{
	"DiscoCats.sol": {
		"DiscoCats": {
			"abi": [
				{
					"inputs": [
						{
							"internalType": "address",
							"name": "initialOwner",
							"type": "address"
						}
					],
					"stateMutability": "nonpayable",
					"type": "constructor"
				},
				{
					"inputs": [
						{
							"internalType": "address",
							"name": "owner",
							"type": "address"
						}
					],
					"name": "OwnableInvalidOwner",
					"type": "error"
				},
				{
					"inputs": [
						{
							"internalType": "address",
							"name": "account",
							"type": "address"
						}
					],
					"name": "OwnableUnauthorizedAccount",
					"type": "error"
				},
				{
					"anonymous": false,
					"inputs": [
						{
							"indexed": true,
							"internalType": "address",
							"name": "previousOwner",
							"type": "address"
						},
						{
							"indexed": true,
							"internalType": "address",
							"name": "newOwner",
							"type": "address"
						}
					],
					"name": "OwnershipTransferred",
					"type": "event"
				},
				{
					"inputs": [
						{
							"internalType": "uint256",
							"name": "id",
							"type": "uint256"
						},
						{
							"internalType": "address",
							"name": "_tokenAddress",
							"type": "address"
						},
						{
							"internalType": "uint256",
							"name": "_tokenAmount",
							"type": "uint256"
						}
					],
					"name": "incentiviseProject",
					"outputs": [],
					"stateMutability": "nonpayable",
					"type": "function"
				},
				{
					"inputs": [
						{
							"internalType": "string",
							"name": "_name",
							"type": "string"
						}
					],
					"name": "initializeProject",
					"outputs": [],
					"stateMutability": "nonpayable",
					"type": "function"
				},
				{
					"inputs": [],
					"name": "owner",
					"outputs": [
						{
							"internalType": "address",
							"name": "",
							"type": "address"
						}
					],
					"stateMutability": "view",
					"type": "function"
				},
				{
					"inputs": [],
					"name": "projectCount",
					"outputs": [
						{
							"internalType": "uint256",
							"name": "",
							"type": "uint256"
						}
					],
					"stateMutability": "view",
					"type": "function"
				},
				{
					"inputs": [
						{
							"internalType": "uint256",
							"name": "",
							"type": "uint256"
						}
					],
					"name": "projects",
					"outputs": [
						{
							"internalType": "string",
							"name": "name",
							"type": "string"
						},
						{
							"internalType": "address",
							"name": "projectOwner",
							"type": "address"
						},
						{
							"internalType": "uint256",
							"name": "votes",
							"type": "uint256"
						}
					],
					"stateMutability": "view",
					"type": "function"
				},
				{
					"inputs": [],
					"name": "renounceOwnership",
					"outputs": [],
					"stateMutability": "nonpayable",
					"type": "function"
				},
				{
					"inputs": [
						{
							"internalType": "address",
							"name": "newOwner",
							"type": "address"
						}
					],
					"name": "transferOwnership",
					"outputs": [],
					"stateMutability": "nonpayable",
					"type": "function"
				}
			],
			"devdoc": {
				"errors": {
					"OwnableInvalidOwner(address)": [
						{
							"details": "The owner is not a valid owner account. (eg. `address(0)`)"
						}
					],
					"OwnableUnauthorizedAccount(address)": [
						{
							"details": "The caller account is not authorized to perform an operation."
						}
					]
				},
				"kind": "dev",
				"methods": {
					"owner()": {
						"details": "Returns the address of the current owner."
					},
					"renounceOwnership()": {
						"details": "Leaves the contract without owner. It will not be possible to call `onlyOwner` functions. Can only be called by the current owner. NOTE: Renouncing ownership will leave the contract without an owner, thereby disabling any functionality that is only available to the owner."
					},
					"transferOwnership(address)": {
						"details": "Transfers ownership of the contract to a new account (`newOwner`). Can only be called by the current owner."
					}
				},
				"version": 1
			},
			"evm": {
				"assembly": "    /* \"DiscoCats.sol\":240:1860  contract DiscoCats is Ownable {... */\n  mstore(0x40, 0x80)\n    /* \"DiscoCats.sol\":302:303  0 */\n  0x00\n    /* \"DiscoCats.sol\":277:303  uint public projectCount=0 */\n  0x01\n  sstore\n    /* \"DiscoCats.sol\":671:729  constructor(address initialOwner) Ownable(initialOwner) {} */\n  callvalue\n  dup1\n  iszero\n  tag_1\n  jumpi\n  0x00\n  dup1\n  revert\ntag_1:\n  pop\n  mload(0x40)\n  sub(codesize, bytecodeSize)\n  dup1\n  bytecodeSize\n  dup4\n  codecopy\n  dup2\n  dup2\n  add\n  0x40\n  mstore\n  dup2\n  add\n  swap1\n  tag_2\n  swap2\n  swap1\n  tag_3\n  jump\t// in\ntag_2:\n    /* \"DiscoCats.sol\":713:725  initialOwner */\n  dup1\n    /* \"@openzeppelin/contracts/access/Ownable.sol\":1297:1298  0 */\n  0x00\n    /* \"@openzeppelin/contracts/access/Ownable.sol\":1273:1299  initialOwner == address(0) */\n  0xffffffffffffffffffffffffffffffffffffffff\n  and\n    /* \"@openzeppelin/contracts/access/Ownable.sol\":1273:1285  initialOwner */\n  dup2\n    /* \"@openzeppelin/contracts/access/Ownable.sol\":1273:1299  initialOwner == address(0) */\n  0xffffffffffffffffffffffffffffffffffffffff\n  and\n  sub\n    /* \"@openzeppelin/contracts/access/Ownable.sol\":1269:1364  if (initialOwner == address(0)) {... */\n  tag_7\n  jumpi\n    /* \"@openzeppelin/contracts/access/Ownable.sol\":1350:1351  0 */\n  0x00\n    /* \"@openzeppelin/contracts/access/Ownable.sol\":1322:1353  OwnableInvalidOwner(address(0)) */\n  mload(0x40)\n  0x1e4fbdf700000000000000000000000000000000000000000000000000000000\n  dup2\n  mstore\n  0x04\n  add\n  tag_8\n  swap2\n  swap1\n  tag_9\n  jump\t// in\ntag_8:\n  mload(0x40)\n  dup1\n  swap2\n  sub\n  swap1\n  revert\n    /* \"@openzeppelin/contracts/access/Ownable.sol\":1269:1364  if (initialOwner == address(0)) {... */\ntag_7:\n    /* \"@openzeppelin/contracts/access/Ownable.sol\":1373:1405  _transferOwnership(initialOwner) */\n  tag_10\n    /* \"@openzeppelin/contracts/access/Ownable.sol\":1392:1404  initialOwner */\n  dup2\n    /* \"@openzeppelin/contracts/access/Ownable.sol\":1373:1391  _transferOwnership */\n  shl(0x20, tag_11)\n    /* \"@openzeppelin/contracts/access/Ownable.sol\":1373:1405  _transferOwnership(initialOwner) */\n  0x20\n  shr\n  jump\t// in\ntag_10:\n    /* \"@openzeppelin/contracts/access/Ownable.sol\":1225:1412  constructor(address initialOwner) {... */\n  pop\n    /* \"DiscoCats.sol\":671:729  constructor(address initialOwner) Ownable(initialOwner) {} */\n  pop\n    /* \"DiscoCats.sol\":240:1860  contract DiscoCats is Ownable {... */\n  jump(tag_13)\n    /* \"@openzeppelin/contracts/access/Ownable.sol\":2912:3099  function _transferOwnership(address newOwner) internal virtual {... */\ntag_11:\n    /* \"@openzeppelin/contracts/access/Ownable.sol\":2985:3001  address oldOwner */\n  0x00\n    /* \"@openzeppelin/contracts/access/Ownable.sol\":3004:3010  _owner */\n  dup1\n  0x00\n  swap1\n  sload\n  swap1\n  0x0100\n  exp\n  swap1\n  div\n  0xffffffffffffffffffffffffffffffffffffffff\n  and\n    /* \"@openzeppelin/contracts/access/Ownable.sol\":2985:3010  address oldOwner = _owner */\n  swap1\n  pop\n    /* \"@openzeppelin/contracts/access/Ownable.sol\":3029:3037  newOwner */\n  dup2\n    /* \"@openzeppelin/contracts/access/Ownable.sol\":3020:3026  _owner */\n  0x00\n  dup1\n    /* \"@openzeppelin/contracts/access/Ownable.sol\":3020:3037  _owner = newOwner */\n  0x0100\n  exp\n  dup2\n  sload\n  dup2\n  0xffffffffffffffffffffffffffffffffffffffff\n  mul\n  not\n  and\n  swap1\n  dup4\n  0xffffffffffffffffffffffffffffffffffffffff\n  and\n  mul\n  or\n  swap1\n  sstore\n  pop\n    /* \"@openzeppelin/contracts/access/Ownable.sol\":3083:3091  newOwner */\n  dup2\n    /* \"@openzeppelin/contracts/access/Ownable.sol\":3052:3092  OwnershipTransferred(oldOwner, newOwner) */\n  0xffffffffffffffffffffffffffffffffffffffff\n  and\n    /* \"@openzeppelin/contracts/access/Ownable.sol\":3073:3081  oldOwner */\n  dup2\n    /* \"@openzeppelin/contracts/access/Ownable.sol\":3052:3092  OwnershipTransferred(oldOwner, newOwner) */\n  0xffffffffffffffffffffffffffffffffffffffff\n  and\n  0x8be0079c531659141344cd1fd0a4f28419497f9722a3daafe3b4186f6b6457e0\n  mload(0x40)\n  mload(0x40)\n  dup1\n  swap2\n  sub\n  swap1\n  log3\n    /* \"@openzeppelin/contracts/access/Ownable.sol\":2975:3099  {... */\n  pop\n    /* \"@openzeppelin/contracts/access/Ownable.sol\":2912:3099  function _transferOwnership(address newOwner) internal virtual {... */\n  pop\n  jump\t// out\n    /* \"#utility.yul\":88:205   */\ntag_16:\n    /* \"#utility.yul\":197:198   */\n  0x00\n    /* \"#utility.yul\":194:195   */\n  dup1\n    /* \"#utility.yul\":187:199   */\n  revert\n    /* \"#utility.yul\":334:460   */\ntag_18:\n    /* \"#utility.yul\":371:378   */\n  0x00\n    /* \"#utility.yul\":411:453   */\n  0xffffffffffffffffffffffffffffffffffffffff\n    /* \"#utility.yul\":404:409   */\n  dup3\n    /* \"#utility.yul\":400:454   */\n  and\n    /* \"#utility.yul\":389:454   */\n  swap1\n  pop\n    /* \"#utility.yul\":334:460   */\n  swap2\n  swap1\n  pop\n  jump\t// out\n    /* \"#utility.yul\":466:562   */\ntag_19:\n    /* \"#utility.yul\":503:510   */\n  0x00\n    /* \"#utility.yul\":532:556   */\n  tag_29\n    /* \"#utility.yul\":550:555   */\n  dup3\n    /* \"#utility.yul\":532:556   */\n  tag_18\n  jump\t// in\ntag_29:\n    /* \"#utility.yul\":521:556   */\n  swap1\n  pop\n    /* \"#utility.yul\":466:562   */\n  swap2\n  swap1\n  pop\n  jump\t// out\n    /* \"#utility.yul\":568:690   */\ntag_20:\n    /* \"#utility.yul\":641:665   */\n  tag_31\n    /* \"#utility.yul\":659:664   */\n  dup2\n    /* \"#utility.yul\":641:665   */\n  tag_19\n  jump\t// in\ntag_31:\n    /* \"#utility.yul\":634:639   */\n  dup2\n    /* \"#utility.yul\":631:666   */\n  eq\n    /* \"#utility.yul\":621:684   */\n  tag_32\n  jumpi\n    /* \"#utility.yul\":680:681   */\n  0x00\n    /* \"#utility.yul\":677:678   */\n  dup1\n    /* \"#utility.yul\":670:682   */\n  revert\n    /* \"#utility.yul\":621:684   */\ntag_32:\n    /* \"#utility.yul\":568:690   */\n  pop\n  jump\t// out\n    /* \"#utility.yul\":696:839   */\ntag_21:\n    /* \"#utility.yul\":753:758   */\n  0x00\n    /* \"#utility.yul\":784:790   */\n  dup2\n    /* \"#utility.yul\":778:791   */\n  mload\n    /* \"#utility.yul\":769:791   */\n  swap1\n  pop\n    /* \"#utility.yul\":800:833   */\n  tag_34\n    /* \"#utility.yul\":827:832   */\n  dup2\n    /* \"#utility.yul\":800:833   */\n  tag_20\n  jump\t// in\ntag_34:\n    /* \"#utility.yul\":696:839   */\n  swap3\n  swap2\n  pop\n  pop\n  jump\t// out\n    /* \"#utility.yul\":845:1196   */\ntag_3:\n    /* \"#utility.yul\":915:921   */\n  0x00\n    /* \"#utility.yul\":964:966   */\n  0x20\n    /* \"#utility.yul\":952:961   */\n  dup3\n    /* \"#utility.yul\":943:950   */\n  dup5\n    /* \"#utility.yul\":939:962   */\n  sub\n    /* \"#utility.yul\":935:967   */\n  slt\n    /* \"#utility.yul\":932:1051   */\n  iszero\n  tag_36\n  jumpi\n    /* \"#utility.yul\":970:1049   */\n  tag_37\n  tag_16\n  jump\t// in\ntag_37:\n    /* \"#utility.yul\":932:1051   */\ntag_36:\n    /* \"#utility.yul\":1090:1091   */\n  0x00\n    /* \"#utility.yul\":1115:1179   */\n  tag_38\n    /* \"#utility.yul\":1171:1178   */\n  dup5\n    /* \"#utility.yul\":1162:1168   */\n  dup3\n    /* \"#utility.yul\":1151:1160   */\n  dup6\n    /* \"#utility.yul\":1147:1169   */\n  add\n    /* \"#utility.yul\":1115:1179   */\n  tag_21\n  jump\t// in\ntag_38:\n    /* \"#utility.yul\":1105:1179   */\n  swap2\n  pop\n    /* \"#utility.yul\":1061:1189   */\n  pop\n    /* \"#utility.yul\":845:1196   */\n  swap3\n  swap2\n  pop\n  pop\n  jump\t// out\n    /* \"#utility.yul\":1202:1320   */\ntag_22:\n    /* \"#utility.yul\":1289:1313   */\n  tag_40\n    /* \"#utility.yul\":1307:1312   */\n  dup2\n    /* \"#utility.yul\":1289:1313   */\n  tag_19\n  jump\t// in\ntag_40:\n    /* \"#utility.yul\":1284:1287   */\n  dup3\n    /* \"#utility.yul\":1277:1314   */\n  mstore\n    /* \"#utility.yul\":1202:1320   */\n  pop\n  pop\n  jump\t// out\n    /* \"#utility.yul\":1326:1548   */\ntag_9:\n    /* \"#utility.yul\":1419:1423   */\n  0x00\n    /* \"#utility.yul\":1457:1459   */\n  0x20\n    /* \"#utility.yul\":1446:1455   */\n  dup3\n    /* \"#utility.yul\":1442:1460   */\n  add\n    /* \"#utility.yul\":1434:1460   */\n  swap1\n  pop\n    /* \"#utility.yul\":1470:1541   */\n  tag_42\n    /* \"#utility.yul\":1538:1539   */\n  0x00\n    /* \"#utility.yul\":1527:1536   */\n  dup4\n    /* \"#utility.yul\":1523:1540   */\n  add\n    /* \"#utility.yul\":1514:1520   */\n  dup5\n    /* \"#utility.yul\":1470:1541   */\n  tag_22\n  jump\t// in\ntag_42:\n    /* \"#utility.yul\":1326:1548   */\n  swap3\n  swap2\n  pop\n  pop\n  jump\t// out\n    /* \"DiscoCats.sol\":240:1860  contract DiscoCats is Ownable {... */\ntag_13:\n  dataSize(sub_0)\n  dup1\n  dataOffset(sub_0)\n  0x00\n  codecopy\n  0x00\n  return\nstop\n\nsub_0: assembly {\n        /* \"DiscoCats.sol\":240:1860  contract DiscoCats is Ownable {... */\n      mstore(0x40, 0x80)\n      callvalue\n      dup1\n      iszero\n      tag_1\n      jumpi\n      0x00\n      dup1\n      revert\n    tag_1:\n      pop\n      jumpi(tag_2, lt(calldatasize, 0x04))\n      shr(0xe0, calldataload(0x00))\n      dup1\n      0x36fbad26\n      gt\n      tag_10\n      jumpi\n      dup1\n      0x36fbad26\n      eq\n      tag_6\n      jumpi\n      dup1\n      0x715018a6\n      eq\n      tag_7\n      jumpi\n      dup1\n      0x8da5cb5b\n      eq\n      tag_8\n      jumpi\n      dup1\n      0xf2fde38b\n      eq\n      tag_9\n      jumpi\n      jump(tag_2)\n    tag_10:\n      dup1\n      0x107046bd\n      eq\n      tag_3\n      jumpi\n      dup1\n      0x239ecf35\n      eq\n      tag_4\n      jumpi\n      dup1\n      0x33b2decc\n      eq\n      tag_5\n      jumpi\n    tag_2:\n      0x00\n      dup1\n      revert\n        /* \"DiscoCats.sol\":625:664  mapping(uint=>Project) public  projects */\n    tag_3:\n      tag_11\n      0x04\n      dup1\n      calldatasize\n      sub\n      dup2\n      add\n      swap1\n      tag_12\n      swap2\n      swap1\n      tag_13\n      jump\t// in\n    tag_12:\n      tag_14\n      jump\t// in\n    tag_11:\n      mload(0x40)\n      tag_15\n      swap4\n      swap3\n      swap2\n      swap1\n      tag_16\n      jump\t// in\n    tag_15:\n      mload(0x40)\n      dup1\n      swap2\n      sub\n      swap1\n      return\n        /* \"DiscoCats.sol\":737:1075  function initializeProject(string memory _name)public  {... */\n    tag_4:\n      tag_17\n      0x04\n      dup1\n      calldatasize\n      sub\n      dup2\n      add\n      swap1\n      tag_18\n      swap2\n      swap1\n      tag_19\n      jump\t// in\n    tag_18:\n      tag_20\n      jump\t// in\n    tag_17:\n      stop\n        /* \"DiscoCats.sol\":1081:1857  function incentiviseProject(uint id,address _tokenAddress, uint256 _tokenAmount)public {... */\n    tag_5:\n      tag_21\n      0x04\n      dup1\n      calldatasize\n      sub\n      dup2\n      add\n      swap1\n      tag_22\n      swap2\n      swap1\n      tag_23\n      jump\t// in\n    tag_22:\n      tag_24\n      jump\t// in\n    tag_21:\n      stop\n        /* \"DiscoCats.sol\":277:303  uint public projectCount=0 */\n    tag_6:\n      tag_25\n      tag_26\n      jump\t// in\n    tag_25:\n      mload(0x40)\n      tag_27\n      swap2\n      swap1\n      tag_28\n      jump\t// in\n    tag_27:\n      mload(0x40)\n      dup1\n      swap2\n      sub\n      swap1\n      return\n        /* \"@openzeppelin/contracts/access/Ownable.sol\":2293:2394  function renounceOwnership() public virtual onlyOwner {... */\n    tag_7:\n      tag_29\n      tag_30\n      jump\t// in\n    tag_29:\n      stop\n        /* \"@openzeppelin/contracts/access/Ownable.sol\":1638:1723  function owner() public view virtual returns (address) {... */\n    tag_8:\n      tag_31\n      tag_32\n      jump\t// in\n    tag_31:\n      mload(0x40)\n      tag_33\n      swap2\n      swap1\n      tag_34\n      jump\t// in\n    tag_33:\n      mload(0x40)\n      dup1\n      swap2\n      sub\n      swap1\n      return\n        /* \"@openzeppelin/contracts/access/Ownable.sol\":2543:2758  function transferOwnership(address newOwner) public virtual onlyOwner {... */\n    tag_9:\n      tag_35\n      0x04\n      dup1\n      calldatasize\n      sub\n      dup2\n      add\n      swap1\n      tag_36\n      swap2\n      swap1\n      tag_37\n      jump\t// in\n    tag_36:\n      tag_38\n      jump\t// in\n    tag_35:\n      stop\n        /* \"DiscoCats.sol\":625:664  mapping(uint=>Project) public  projects */\n    tag_14:\n      mstore(0x20, 0x02)\n      dup1\n      0x00\n      mstore\n      keccak256(0x00, 0x40)\n      0x00\n      swap2\n      pop\n      swap1\n      pop\n      dup1\n      0x00\n      add\n      dup1\n      sload\n      tag_39\n      swap1\n      tag_40\n      jump\t// in\n    tag_39:\n      dup1\n      0x1f\n      add\n      0x20\n      dup1\n      swap2\n      div\n      mul\n      0x20\n      add\n      mload(0x40)\n      swap1\n      dup2\n      add\n      0x40\n      mstore\n      dup1\n      swap3\n      swap2\n      swap1\n      dup2\n      dup2\n      mstore\n      0x20\n      add\n      dup3\n      dup1\n      sload\n      tag_41\n      swap1\n      tag_40\n      jump\t// in\n    tag_41:\n      dup1\n      iszero\n      tag_42\n      jumpi\n      dup1\n      0x1f\n      lt\n      tag_43\n      jumpi\n      0x0100\n      dup1\n      dup4\n      sload\n      div\n      mul\n      dup4\n      mstore\n      swap2\n      0x20\n      add\n      swap2\n      jump(tag_42)\n    tag_43:\n      dup3\n      add\n      swap2\n      swap1\n      0x00\n      mstore\n      keccak256(0x00, 0x20)\n      swap1\n    tag_44:\n      dup2\n      sload\n      dup2\n      mstore\n      swap1\n      0x01\n      add\n      swap1\n      0x20\n      add\n      dup1\n      dup4\n      gt\n      tag_44\n      jumpi\n      dup3\n      swap1\n      sub\n      0x1f\n      and\n      dup3\n      add\n      swap2\n    tag_42:\n      pop\n      pop\n      pop\n      pop\n      pop\n      swap1\n      dup1\n      0x01\n      add\n      0x00\n      swap1\n      sload\n      swap1\n      0x0100\n      exp\n      swap1\n      div\n      0xffffffffffffffffffffffffffffffffffffffff\n      and\n      swap1\n      dup1\n      0x03\n      add\n      sload\n      swap1\n      pop\n      dup4\n      jump\t// out\n        /* \"DiscoCats.sol\":737:1075  function initializeProject(string memory _name)public  {... */\n    tag_20:\n        /* \"DiscoCats.sol\":844:856  projectCount */\n      0x01\n      0x00\n        /* \"DiscoCats.sol\":844:858  projectCount++ */\n      dup2\n      sload\n      dup1\n      swap3\n      swap2\n      swap1\n      tag_46\n      swap1\n      tag_47\n      jump\t// in\n    tag_46:\n      swap2\n      swap1\n      pop\n      sstore\n      pop\n        /* \"DiscoCats.sol\":902:928  Project storage newProject */\n      0x00\n        /* \"DiscoCats.sol\":931:939  projects */\n      0x02\n        /* \"DiscoCats.sol\":931:953  projects[projectCount] */\n      0x00\n        /* \"DiscoCats.sol\":940:952  projectCount */\n      sload(0x01)\n        /* \"DiscoCats.sol\":931:953  projects[projectCount] */\n      dup2\n      mstore\n      0x20\n      add\n      swap1\n      dup2\n      mstore\n      0x20\n      add\n      0x00\n      keccak256\n        /* \"DiscoCats.sol\":902:953  Project storage newProject = projects[projectCount] */\n      swap1\n      pop\n        /* \"DiscoCats.sol\":979:984  _name */\n      dup2\n        /* \"DiscoCats.sol\":963:973  newProject */\n      dup2\n        /* \"DiscoCats.sol\":963:978  newProject.name */\n      0x00\n      add\n        /* \"DiscoCats.sol\":963:984  newProject.name=_name */\n      swap1\n      dup2\n      tag_48\n      swap2\n      swap1\n      tag_49\n      jump\t// in\n    tag_48:\n      pop\n        /* \"DiscoCats.sol\":1018:1028  msg.sender */\n      caller\n        /* \"DiscoCats.sol\":994:1004  newProject */\n      dup2\n        /* \"DiscoCats.sol\":994:1017  newProject.projectOwner */\n      0x01\n      add\n      0x00\n        /* \"DiscoCats.sol\":994:1028  newProject.projectOwner=msg.sender */\n      0x0100\n      exp\n      dup2\n      sload\n      dup2\n      0xffffffffffffffffffffffffffffffffffffffff\n      mul\n      not\n      and\n      swap1\n      dup4\n      0xffffffffffffffffffffffffffffffffffffffff\n      and\n      mul\n      or\n      swap1\n      sstore\n      pop\n        /* \"DiscoCats.sol\":1055:1056  0 */\n      0x00\n        /* \"DiscoCats.sol\":1038:1048  newProject */\n      dup2\n        /* \"DiscoCats.sol\":1038:1054  newProject.votes */\n      0x03\n      add\n        /* \"DiscoCats.sol\":1038:1056  newProject.votes=0 */\n      dup2\n      swap1\n      sstore\n      pop\n        /* \"DiscoCats.sol\":792:1075  {... */\n      pop\n        /* \"DiscoCats.sol\":737:1075  function initializeProject(string memory _name)public  {... */\n      pop\n      jump\t// out\n        /* \"DiscoCats.sol\":1081:1857  function incentiviseProject(uint id,address _tokenAddress, uint256 _tokenAmount)public {... */\n    tag_24:\n        /* \"DiscoCats.sol\":1213:1214  0 */\n      0x00\n        /* \"DiscoCats.sol\":1198:1210  _tokenAmount */\n      dup2\n        /* \"DiscoCats.sol\":1198:1214  _tokenAmount > 0 */\n      gt\n        /* \"DiscoCats.sol\":1190:1248  require(_tokenAmount > 0, \"Amount must be greater than 0\") */\n      tag_51\n      jumpi\n      mload(0x40)\n      0x08c379a000000000000000000000000000000000000000000000000000000000\n      dup2\n      mstore\n      0x04\n      add\n      tag_52\n      swap1\n      tag_53\n      jump\t// in\n    tag_52:\n      mload(0x40)\n      dup1\n      swap2\n      sub\n      swap1\n      revert\n    tag_51:\n        /* \"DiscoCats.sol\":1314:1326  _tokenAmount */\n      dup1\n        /* \"DiscoCats.sol\":1274:1287  _tokenAddress */\n      dup3\n        /* \"DiscoCats.sol\":1267:1298  IERC20(_tokenAddress).balanceOf */\n      0xffffffffffffffffffffffffffffffffffffffff\n      and\n      0x70a08231\n        /* \"DiscoCats.sol\":1299:1309  msg.sender */\n      caller\n        /* \"DiscoCats.sol\":1267:1310  IERC20(_tokenAddress).balanceOf(msg.sender) */\n      mload(0x40)\n      dup3\n      0xffffffff\n      and\n      0xe0\n      shl\n      dup2\n      mstore\n      0x04\n      add\n      tag_54\n      swap2\n      swap1\n      tag_34\n      jump\t// in\n    tag_54:\n      0x20\n      mload(0x40)\n      dup1\n      dup4\n      sub\n      dup2\n      dup7\n      gas\n      staticcall\n      iszero\n      dup1\n      iszero\n      tag_56\n      jumpi\n      returndatasize\n      0x00\n      dup1\n      returndatacopy\n      revert(0x00, returndatasize)\n    tag_56:\n      pop\n      pop\n      pop\n      pop\n      mload(0x40)\n      returndatasize\n      not(0x1f)\n      0x1f\n      dup3\n      add\n      and\n      dup3\n      add\n      dup1\n      0x40\n      mstore\n      pop\n      dup2\n      add\n      swap1\n      tag_57\n      swap2\n      swap1\n      tag_58\n      jump\t// in\n    tag_57:\n        /* \"DiscoCats.sol\":1267:1326  IERC20(_tokenAddress).balanceOf(msg.sender) >= _tokenAmount */\n      lt\n      iszero\n        /* \"DiscoCats.sol\":1259:1357  require(IERC20(_tokenAddress).balanceOf(msg.sender) >= _tokenAmount, \"Insufficient token balance\") */\n      tag_59\n      jumpi\n      mload(0x40)\n      0x08c379a000000000000000000000000000000000000000000000000000000000\n      dup2\n      mstore\n      0x04\n      add\n      tag_60\n      swap1\n      tag_61\n      jump\t// in\n    tag_60:\n      mload(0x40)\n      dup1\n      swap2\n      sub\n      swap1\n      revert\n    tag_59:\n        /* \"DiscoCats.sol\":1393:1406  _tokenAddress */\n      dup2\n        /* \"DiscoCats.sol\":1386:1415  IERC20(_tokenAddress).approve */\n      0xffffffffffffffffffffffffffffffffffffffff\n      and\n      0x095ea7b3\n        /* \"DiscoCats.sol\":1424:1428  this */\n      address\n        /* \"DiscoCats.sol\":1430:1442  _tokenAmount */\n      dup4\n        /* \"DiscoCats.sol\":1386:1443  IERC20(_tokenAddress).approve(address(this),_tokenAmount) */\n      mload(0x40)\n      dup4\n      0xffffffff\n      and\n      0xe0\n      shl\n      dup2\n      mstore\n      0x04\n      add\n      tag_62\n      swap3\n      swap2\n      swap1\n      tag_63\n      jump\t// in\n    tag_62:\n      0x20\n      mload(0x40)\n      dup1\n      dup4\n      sub\n      dup2\n      0x00\n      dup8\n      gas\n      call\n      iszero\n      dup1\n      iszero\n      tag_65\n      jumpi\n      returndatasize\n      0x00\n      dup1\n      returndatacopy\n      revert(0x00, returndatasize)\n    tag_65:\n      pop\n      pop\n      pop\n      pop\n      mload(0x40)\n      returndatasize\n      not(0x1f)\n      0x1f\n      dup3\n      add\n      and\n      dup3\n      add\n      dup1\n      0x40\n      mstore\n      pop\n      dup2\n      add\n      swap1\n      tag_66\n      swap2\n      swap1\n      tag_67\n      jump\t// in\n    tag_66:\n        /* \"DiscoCats.sol\":1378:1444  require(IERC20(_tokenAddress).approve(address(this),_tokenAmount)) */\n      tag_68\n      jumpi\n      0x00\n      dup1\n      revert\n    tag_68:\n        /* \"DiscoCats.sol\":1472:1485  _tokenAddress */\n      dup2\n        /* \"DiscoCats.sol\":1465:1499  IERC20(_tokenAddress).transferFrom */\n      0xffffffffffffffffffffffffffffffffffffffff\n      and\n      0x23b872dd\n        /* \"DiscoCats.sol\":1500:1510  msg.sender */\n      caller\n        /* \"DiscoCats.sol\":1520:1524  this */\n      address\n        /* \"DiscoCats.sol\":1527:1539  _tokenAmount */\n      dup5\n        /* \"DiscoCats.sol\":1465:1540  IERC20(_tokenAddress).transferFrom(msg.sender, address(this), _tokenAmount) */\n      mload(0x40)\n      dup5\n      0xffffffff\n      and\n      0xe0\n      shl\n      dup2\n      mstore\n      0x04\n      add\n      tag_69\n      swap4\n      swap3\n      swap2\n      swap1\n      tag_70\n      jump\t// in\n    tag_69:\n      0x20\n      mload(0x40)\n      dup1\n      dup4\n      sub\n      dup2\n      0x00\n      dup8\n      gas\n      call\n      iszero\n      dup1\n      iszero\n      tag_72\n      jumpi\n      returndatasize\n      0x00\n      dup1\n      returndatacopy\n      revert(0x00, returndatasize)\n    tag_72:\n      pop\n      pop\n      pop\n      pop\n      mload(0x40)\n      returndatasize\n      not(0x1f)\n      0x1f\n      dup3\n      add\n      and\n      dup3\n      add\n      dup1\n      0x40\n      mstore\n      pop\n      dup2\n      add\n      swap1\n      tag_73\n      swap2\n      swap1\n      tag_67\n      jump\t// in\n    tag_73:\n      pop\n        /* \"DiscoCats.sol\":1551:1577  Project storage newProject */\n      0x00\n        /* \"DiscoCats.sol\":1580:1588  projects */\n      0x02\n        /* \"DiscoCats.sol\":1580:1592  projects[id] */\n      0x00\n        /* \"DiscoCats.sol\":1589:1591  id */\n      dup6\n        /* \"DiscoCats.sol\":1580:1592  projects[id] */\n      dup2\n      mstore\n      0x20\n      add\n      swap1\n      dup2\n      mstore\n      0x20\n      add\n      0x00\n      keccak256\n        /* \"DiscoCats.sol\":1551:1592  Project storage newProject = projects[id] */\n      swap1\n      pop\n        /* \"DiscoCats.sol\":1694:1704  msg.sender */\n      caller\n        /* \"DiscoCats.sol\":1649:1659  newProject */\n      dup2\n        /* \"DiscoCats.sol\":1649:1667  newProject.bribers */\n      0x02\n      add\n        /* \"DiscoCats.sol\":1649:1679  newProject.bribers[msg.sender] */\n      0x00\n        /* \"DiscoCats.sol\":1668:1678  msg.sender */\n      caller\n        /* \"DiscoCats.sol\":1649:1679  newProject.bribers[msg.sender] */\n      0xffffffffffffffffffffffffffffffffffffffff\n      and\n      0xffffffffffffffffffffffffffffffffffffffff\n      and\n      dup2\n      mstore\n      0x20\n      add\n      swap1\n      dup2\n      mstore\n      0x20\n      add\n      0x00\n      keccak256\n        /* \"DiscoCats.sol\":1649:1693  newProject.bribers[msg.sender].briberAddress */\n      0x00\n      add\n      0x00\n        /* \"DiscoCats.sol\":1649:1704  newProject.bribers[msg.sender].briberAddress=msg.sender */\n      0x0100\n      exp\n      dup2\n      sload\n      dup2\n      0xffffffffffffffffffffffffffffffffffffffff\n      mul\n      not\n      and\n      swap1\n      dup4\n      0xffffffffffffffffffffffffffffffffffffffff\n      and\n      mul\n      or\n      swap1\n      sstore\n      pop\n        /* \"DiscoCats.sol\":1759:1772  _tokenAddress */\n      dup3\n        /* \"DiscoCats.sol\":1715:1725  newProject */\n      dup2\n        /* \"DiscoCats.sol\":1715:1733  newProject.bribers */\n      0x02\n      add\n        /* \"DiscoCats.sol\":1715:1745  newProject.bribers[msg.sender] */\n      0x00\n        /* \"DiscoCats.sol\":1734:1744  msg.sender */\n      caller\n        /* \"DiscoCats.sol\":1715:1745  newProject.bribers[msg.sender] */\n      0xffffffffffffffffffffffffffffffffffffffff\n      and\n      0xffffffffffffffffffffffffffffffffffffffff\n      and\n      dup2\n      mstore\n      0x20\n      add\n      swap1\n      dup2\n      mstore\n      0x20\n      add\n      0x00\n      keccak256\n        /* \"DiscoCats.sol\":1715:1758  newProject.bribers[msg.sender].tokenAddress */\n      0x01\n      add\n      0x00\n        /* \"DiscoCats.sol\":1715:1772  newProject.bribers[msg.sender].tokenAddress=_tokenAddress */\n      0x0100\n      exp\n      dup2\n      sload\n      dup2\n      0xffffffffffffffffffffffffffffffffffffffff\n      mul\n      not\n      and\n      swap1\n      dup4\n      0xffffffffffffffffffffffffffffffffffffffff\n      and\n      mul\n      or\n      swap1\n      sstore\n      pop\n        /* \"DiscoCats.sol\":1824:1836  _tokenAmount */\n      dup2\n        /* \"DiscoCats.sol\":1783:1793  newProject */\n      dup2\n        /* \"DiscoCats.sol\":1783:1801  newProject.bribers */\n      0x02\n      add\n        /* \"DiscoCats.sol\":1783:1813  newProject.bribers[msg.sender] */\n      0x00\n        /* \"DiscoCats.sol\":1802:1812  msg.sender */\n      caller\n        /* \"DiscoCats.sol\":1783:1813  newProject.bribers[msg.sender] */\n      0xffffffffffffffffffffffffffffffffffffffff\n      and\n      0xffffffffffffffffffffffffffffffffffffffff\n      and\n      dup2\n      mstore\n      0x20\n      add\n      swap1\n      dup2\n      mstore\n      0x20\n      add\n      0x00\n      keccak256\n        /* \"DiscoCats.sol\":1783:1823  newProject.bribers[msg.sender].tokenAmnt */\n      0x02\n      add\n        /* \"DiscoCats.sol\":1783:1836  newProject.bribers[msg.sender].tokenAmnt=_tokenAmount */\n      dup2\n      swap1\n      sstore\n      pop\n        /* \"DiscoCats.sol\":1168:1857  {... */\n      pop\n        /* \"DiscoCats.sol\":1081:1857  function incentiviseProject(uint id,address _tokenAddress, uint256 _tokenAmount)public {... */\n      pop\n      pop\n      pop\n      jump\t// out\n        /* \"DiscoCats.sol\":277:303  uint public projectCount=0 */\n    tag_26:\n      sload(0x01)\n      dup2\n      jump\t// out\n        /* \"@openzeppelin/contracts/access/Ownable.sol\":2293:2394  function renounceOwnership() public virtual onlyOwner {... */\n    tag_30:\n        /* \"@openzeppelin/contracts/access/Ownable.sol\":1531:1544  _checkOwner() */\n      tag_75\n        /* \"@openzeppelin/contracts/access/Ownable.sol\":1531:1542  _checkOwner */\n      tag_76\n        /* \"@openzeppelin/contracts/access/Ownable.sol\":1531:1544  _checkOwner() */\n      jump\t// in\n    tag_75:\n        /* \"@openzeppelin/contracts/access/Ownable.sol\":2357:2387  _transferOwnership(address(0)) */\n      tag_78\n        /* \"@openzeppelin/contracts/access/Ownable.sol\":2384:2385  0 */\n      0x00\n        /* \"@openzeppelin/contracts/access/Ownable.sol\":2357:2375  _transferOwnership */\n      tag_79\n        /* \"@openzeppelin/contracts/access/Ownable.sol\":2357:2387  _transferOwnership(address(0)) */\n      jump\t// in\n    tag_78:\n        /* \"@openzeppelin/contracts/access/Ownable.sol\":2293:2394  function renounceOwnership() public virtual onlyOwner {... */\n      jump\t// out\n        /* \"@openzeppelin/contracts/access/Ownable.sol\":1638:1723  function owner() public view virtual returns (address) {... */\n    tag_32:\n        /* \"@openzeppelin/contracts/access/Ownable.sol\":1684:1691  address */\n      0x00\n        /* \"@openzeppelin/contracts/access/Ownable.sol\":1710:1716  _owner */\n      dup1\n      0x00\n      swap1\n      sload\n      swap1\n      0x0100\n      exp\n      swap1\n      div\n      0xffffffffffffffffffffffffffffffffffffffff\n      and\n        /* \"@openzeppelin/contracts/access/Ownable.sol\":1703:1716  return _owner */\n      swap1\n      pop\n        /* \"@openzeppelin/contracts/access/Ownable.sol\":1638:1723  function owner() public view virtual returns (address) {... */\n      swap1\n      jump\t// out\n        /* \"@openzeppelin/contracts/access/Ownable.sol\":2543:2758  function transferOwnership(address newOwner) public virtual onlyOwner {... */\n    tag_38:\n        /* \"@openzeppelin/contracts/access/Ownable.sol\":1531:1544  _checkOwner() */\n      tag_82\n        /* \"@openzeppelin/contracts/access/Ownable.sol\":1531:1542  _checkOwner */\n      tag_76\n        /* \"@openzeppelin/contracts/access/Ownable.sol\":1531:1544  _checkOwner() */\n      jump\t// in\n    tag_82:\n        /* \"@openzeppelin/contracts/access/Ownable.sol\":2647:2648  0 */\n      0x00\n        /* \"@openzeppelin/contracts/access/Ownable.sol\":2627:2649  newOwner == address(0) */\n      0xffffffffffffffffffffffffffffffffffffffff\n      and\n        /* \"@openzeppelin/contracts/access/Ownable.sol\":2627:2635  newOwner */\n      dup2\n        /* \"@openzeppelin/contracts/access/Ownable.sol\":2627:2649  newOwner == address(0) */\n      0xffffffffffffffffffffffffffffffffffffffff\n      and\n      sub\n        /* \"@openzeppelin/contracts/access/Ownable.sol\":2623:2714  if (newOwner == address(0)) {... */\n      tag_84\n      jumpi\n        /* \"@openzeppelin/contracts/access/Ownable.sol\":2700:2701  0 */\n      0x00\n        /* \"@openzeppelin/contracts/access/Ownable.sol\":2672:2703  OwnableInvalidOwner(address(0)) */\n      mload(0x40)\n      0x1e4fbdf700000000000000000000000000000000000000000000000000000000\n      dup2\n      mstore\n      0x04\n      add\n      tag_85\n      swap2\n      swap1\n      tag_34\n      jump\t// in\n    tag_85:\n      mload(0x40)\n      dup1\n      swap2\n      sub\n      swap1\n      revert\n        /* \"@openzeppelin/contracts/access/Ownable.sol\":2623:2714  if (newOwner == address(0)) {... */\n    tag_84:\n        /* \"@openzeppelin/contracts/access/Ownable.sol\":2723:2751  _transferOwnership(newOwner) */\n      tag_86\n        /* \"@openzeppelin/contracts/access/Ownable.sol\":2742:2750  newOwner */\n      dup2\n        /* \"@openzeppelin/contracts/access/Ownable.sol\":2723:2741  _transferOwnership */\n      tag_79\n        /* \"@openzeppelin/contracts/access/Ownable.sol\":2723:2751  _transferOwnership(newOwner) */\n      jump\t// in\n    tag_86:\n        /* \"@openzeppelin/contracts/access/Ownable.sol\":2543:2758  function transferOwnership(address newOwner) public virtual onlyOwner {... */\n      pop\n      jump\t// out\n        /* \"@openzeppelin/contracts/access/Ownable.sol\":1796:1958  function _checkOwner() internal view virtual {... */\n    tag_76:\n        /* \"@openzeppelin/contracts/access/Ownable.sol\":1866:1878  _msgSender() */\n      tag_88\n        /* \"@openzeppelin/contracts/access/Ownable.sol\":1866:1876  _msgSender */\n      tag_89\n        /* \"@openzeppelin/contracts/access/Ownable.sol\":1866:1878  _msgSender() */\n      jump\t// in\n    tag_88:\n        /* \"@openzeppelin/contracts/access/Ownable.sol\":1855:1878  owner() != _msgSender() */\n      0xffffffffffffffffffffffffffffffffffffffff\n      and\n        /* \"@openzeppelin/contracts/access/Ownable.sol\":1855:1862  owner() */\n      tag_90\n        /* \"@openzeppelin/contracts/access/Ownable.sol\":1855:1860  owner */\n      tag_32\n        /* \"@openzeppelin/contracts/access/Ownable.sol\":1855:1862  owner() */\n      jump\t// in\n    tag_90:\n        /* \"@openzeppelin/contracts/access/Ownable.sol\":1855:1878  owner() != _msgSender() */\n      0xffffffffffffffffffffffffffffffffffffffff\n      and\n      eq\n        /* \"@openzeppelin/contracts/access/Ownable.sol\":1851:1952  if (owner() != _msgSender()) {... */\n      tag_91\n      jumpi\n        /* \"@openzeppelin/contracts/access/Ownable.sol\":1928:1940  _msgSender() */\n      tag_92\n        /* \"@openzeppelin/contracts/access/Ownable.sol\":1928:1938  _msgSender */\n      tag_89\n        /* \"@openzeppelin/contracts/access/Ownable.sol\":1928:1940  _msgSender() */\n      jump\t// in\n    tag_92:\n        /* \"@openzeppelin/contracts/access/Ownable.sol\":1901:1941  OwnableUnauthorizedAccount(_msgSender()) */\n      mload(0x40)\n      0x118cdaa700000000000000000000000000000000000000000000000000000000\n      dup2\n      mstore\n      0x04\n      add\n      tag_93\n      swap2\n      swap1\n      tag_34\n      jump\t// in\n    tag_93:\n      mload(0x40)\n      dup1\n      swap2\n      sub\n      swap1\n      revert\n        /* \"@openzeppelin/contracts/access/Ownable.sol\":1851:1952  if (owner() != _msgSender()) {... */\n    tag_91:\n        /* \"@openzeppelin/contracts/access/Ownable.sol\":1796:1958  function _checkOwner() internal view virtual {... */\n      jump\t// out\n        /* \"@openzeppelin/contracts/access/Ownable.sol\":2912:3099  function _transferOwnership(address newOwner) internal virtual {... */\n    tag_79:\n        /* \"@openzeppelin/contracts/access/Ownable.sol\":2985:3001  address oldOwner */\n      0x00\n        /* \"@openzeppelin/contracts/access/Ownable.sol\":3004:3010  _owner */\n      dup1\n      0x00\n      swap1\n      sload\n      swap1\n      0x0100\n      exp\n      swap1\n      div\n      0xffffffffffffffffffffffffffffffffffffffff\n      and\n        /* \"@openzeppelin/contracts/access/Ownable.sol\":2985:3010  address oldOwner = _owner */\n      swap1\n      pop\n        /* \"@openzeppelin/contracts/access/Ownable.sol\":3029:3037  newOwner */\n      dup2\n        /* \"@openzeppelin/contracts/access/Ownable.sol\":3020:3026  _owner */\n      0x00\n      dup1\n        /* \"@openzeppelin/contracts/access/Ownable.sol\":3020:3037  _owner = newOwner */\n      0x0100\n      exp\n      dup2\n      sload\n      dup2\n      0xffffffffffffffffffffffffffffffffffffffff\n      mul\n      not\n      and\n      swap1\n      dup4\n      0xffffffffffffffffffffffffffffffffffffffff\n      and\n      mul\n      or\n      swap1\n      sstore\n      pop\n        /* \"@openzeppelin/contracts/access/Ownable.sol\":3083:3091  newOwner */\n      dup2\n        /* \"@openzeppelin/contracts/access/Ownable.sol\":3052:3092  OwnershipTransferred(oldOwner, newOwner) */\n      0xffffffffffffffffffffffffffffffffffffffff\n      and\n        /* \"@openzeppelin/contracts/access/Ownable.sol\":3073:3081  oldOwner */\n      dup2\n        /* \"@openzeppelin/contracts/access/Ownable.sol\":3052:3092  OwnershipTransferred(oldOwner, newOwner) */\n      0xffffffffffffffffffffffffffffffffffffffff\n      and\n      0x8be0079c531659141344cd1fd0a4f28419497f9722a3daafe3b4186f6b6457e0\n      mload(0x40)\n      mload(0x40)\n      dup1\n      swap2\n      sub\n      swap1\n      log3\n        /* \"@openzeppelin/contracts/access/Ownable.sol\":2975:3099  {... */\n      pop\n        /* \"@openzeppelin/contracts/access/Ownable.sol\":2912:3099  function _transferOwnership(address newOwner) internal virtual {... */\n      pop\n      jump\t// out\n        /* \"@openzeppelin/contracts/utils/Context.sol\":656:752  function _msgSender() internal view virtual returns (address) {... */\n    tag_89:\n        /* \"@openzeppelin/contracts/utils/Context.sol\":709:716  address */\n      0x00\n        /* \"@openzeppelin/contracts/utils/Context.sol\":735:745  msg.sender */\n      caller\n        /* \"@openzeppelin/contracts/utils/Context.sol\":728:745  return msg.sender */\n      swap1\n      pop\n        /* \"@openzeppelin/contracts/utils/Context.sol\":656:752  function _msgSender() internal view virtual returns (address) {... */\n      swap1\n      jump\t// out\n        /* \"#utility.yul\":7:82   */\n    tag_96:\n        /* \"#utility.yul\":40:46   */\n      0x00\n        /* \"#utility.yul\":73:75   */\n      0x40\n        /* \"#utility.yul\":67:76   */\n      mload\n        /* \"#utility.yul\":57:76   */\n      swap1\n      pop\n        /* \"#utility.yul\":7:82   */\n      swap1\n      jump\t// out\n        /* \"#utility.yul\":88:205   */\n    tag_97:\n        /* \"#utility.yul\":197:198   */\n      0x00\n        /* \"#utility.yul\":194:195   */\n      dup1\n        /* \"#utility.yul\":187:199   */\n      revert\n        /* \"#utility.yul\":211:328   */\n    tag_98:\n        /* \"#utility.yul\":320:321   */\n      0x00\n        /* \"#utility.yul\":317:318   */\n      dup1\n        /* \"#utility.yul\":310:322   */\n      revert\n        /* \"#utility.yul\":334:411   */\n    tag_99:\n        /* \"#utility.yul\":371:378   */\n      0x00\n        /* \"#utility.yul\":400:405   */\n      dup2\n        /* \"#utility.yul\":389:405   */\n      swap1\n      pop\n        /* \"#utility.yul\":334:411   */\n      swap2\n      swap1\n      pop\n      jump\t// out\n        /* \"#utility.yul\":417:539   */\n    tag_100:\n        /* \"#utility.yul\":490:514   */\n      tag_153\n        /* \"#utility.yul\":508:513   */\n      dup2\n        /* \"#utility.yul\":490:514   */\n      tag_99\n      jump\t// in\n    tag_153:\n        /* \"#utility.yul\":483:488   */\n      dup2\n        /* \"#utility.yul\":480:515   */\n      eq\n        /* \"#utility.yul\":470:533   */\n      tag_154\n      jumpi\n        /* \"#utility.yul\":529:530   */\n      0x00\n        /* \"#utility.yul\":526:527   */\n      dup1\n        /* \"#utility.yul\":519:531   */\n      revert\n        /* \"#utility.yul\":470:533   */\n    tag_154:\n        /* \"#utility.yul\":417:539   */\n      pop\n      jump\t// out\n        /* \"#utility.yul\":545:684   */\n    tag_101:\n        /* \"#utility.yul\":591:596   */\n      0x00\n        /* \"#utility.yul\":629:635   */\n      dup2\n        /* \"#utility.yul\":616:636   */\n      calldataload\n        /* \"#utility.yul\":607:636   */\n      swap1\n      pop\n        /* \"#utility.yul\":645:678   */\n      tag_156\n        /* \"#utility.yul\":672:677   */\n      dup2\n        /* \"#utility.yul\":645:678   */\n      tag_100\n      jump\t// in\n    tag_156:\n        /* \"#utility.yul\":545:684   */\n      swap3\n      swap2\n      pop\n      pop\n      jump\t// out\n        /* \"#utility.yul\":690:1019   */\n    tag_13:\n        /* \"#utility.yul\":749:755   */\n      0x00\n        /* \"#utility.yul\":798:800   */\n      0x20\n        /* \"#utility.yul\":786:795   */\n      dup3\n        /* \"#utility.yul\":777:784   */\n      dup5\n        /* \"#utility.yul\":773:796   */\n      sub\n        /* \"#utility.yul\":769:801   */\n      slt\n        /* \"#utility.yul\":766:885   */\n      iszero\n      tag_158\n      jumpi\n        /* \"#utility.yul\":804:883   */\n      tag_159\n      tag_97\n      jump\t// in\n    tag_159:\n        /* \"#utility.yul\":766:885   */\n    tag_158:\n        /* \"#utility.yul\":924:925   */\n      0x00\n        /* \"#utility.yul\":949:1002   */\n      tag_160\n        /* \"#utility.yul\":994:1001   */\n      dup5\n        /* \"#utility.yul\":985:991   */\n      dup3\n        /* \"#utility.yul\":974:983   */\n      dup6\n        /* \"#utility.yul\":970:992   */\n      add\n        /* \"#utility.yul\":949:1002   */\n      tag_101\n      jump\t// in\n    tag_160:\n        /* \"#utility.yul\":939:1002   */\n      swap2\n      pop\n        /* \"#utility.yul\":895:1012   */\n      pop\n        /* \"#utility.yul\":690:1019   */\n      swap3\n      swap2\n      pop\n      pop\n      jump\t// out\n        /* \"#utility.yul\":1025:1124   */\n    tag_102:\n        /* \"#utility.yul\":1077:1083   */\n      0x00\n        /* \"#utility.yul\":1111:1116   */\n      dup2\n        /* \"#utility.yul\":1105:1117   */\n      mload\n        /* \"#utility.yul\":1095:1117   */\n      swap1\n      pop\n        /* \"#utility.yul\":1025:1124   */\n      swap2\n      swap1\n      pop\n      jump\t// out\n        /* \"#utility.yul\":1130:1299   */\n    tag_103:\n        /* \"#utility.yul\":1214:1225   */\n      0x00\n        /* \"#utility.yul\":1248:1254   */\n      dup3\n        /* \"#utility.yul\":1243:1246   */\n      dup3\n        /* \"#utility.yul\":1236:1255   */\n      mstore\n        /* \"#utility.yul\":1288:1292   */\n      0x20\n        /* \"#utility.yul\":1283:1286   */\n      dup3\n        /* \"#utility.yul\":1279:1293   */\n      add\n        /* \"#utility.yul\":1264:1293   */\n      swap1\n      pop\n        /* \"#utility.yul\":1130:1299   */\n      swap3\n      swap2\n      pop\n      pop\n      jump\t// out\n        /* \"#utility.yul\":1305:1444   */\n    tag_104:\n        /* \"#utility.yul\":1394:1400   */\n      dup3\n        /* \"#utility.yul\":1389:1392   */\n      dup2\n        /* \"#utility.yul\":1384:1387   */\n      dup4\n        /* \"#utility.yul\":1378:1401   */\n      mcopy\n        /* \"#utility.yul\":1435:1436   */\n      0x00\n        /* \"#utility.yul\":1426:1432   */\n      dup4\n        /* \"#utility.yul\":1421:1424   */\n      dup4\n        /* \"#utility.yul\":1417:1433   */\n      add\n        /* \"#utility.yul\":1410:1437   */\n      mstore\n        /* \"#utility.yul\":1305:1444   */\n      pop\n      pop\n      pop\n      jump\t// out\n        /* \"#utility.yul\":1450:1552   */\n    tag_105:\n        /* \"#utility.yul\":1491:1497   */\n      0x00\n        /* \"#utility.yul\":1542:1544   */\n      0x1f\n        /* \"#utility.yul\":1538:1545   */\n      not\n        /* \"#utility.yul\":1533:1535   */\n      0x1f\n        /* \"#utility.yul\":1526:1531   */\n      dup4\n        /* \"#utility.yul\":1522:1536   */\n      add\n        /* \"#utility.yul\":1518:1546   */\n      and\n        /* \"#utility.yul\":1508:1546   */\n      swap1\n      pop\n        /* \"#utility.yul\":1450:1552   */\n      swap2\n      swap1\n      pop\n      jump\t// out\n        /* \"#utility.yul\":1558:1935   */\n    tag_106:\n        /* \"#utility.yul\":1646:1649   */\n      0x00\n        /* \"#utility.yul\":1674:1713   */\n      tag_166\n        /* \"#utility.yul\":1707:1712   */\n      dup3\n        /* \"#utility.yul\":1674:1713   */\n      tag_102\n      jump\t// in\n    tag_166:\n        /* \"#utility.yul\":1729:1800   */\n      tag_167\n        /* \"#utility.yul\":1793:1799   */\n      dup2\n        /* \"#utility.yul\":1788:1791   */\n      dup6\n        /* \"#utility.yul\":1729:1800   */\n      tag_103\n      jump\t// in\n    tag_167:\n        /* \"#utility.yul\":1722:1800   */\n      swap4\n      pop\n        /* \"#utility.yul\":1809:1874   */\n      tag_168\n        /* \"#utility.yul\":1867:1873   */\n      dup2\n        /* \"#utility.yul\":1862:1865   */\n      dup6\n        /* \"#utility.yul\":1855:1859   */\n      0x20\n        /* \"#utility.yul\":1848:1853   */\n      dup7\n        /* \"#utility.yul\":1844:1860   */\n      add\n        /* \"#utility.yul\":1809:1874   */\n      tag_104\n      jump\t// in\n    tag_168:\n        /* \"#utility.yul\":1899:1928   */\n      tag_169\n        /* \"#utility.yul\":1921:1927   */\n      dup2\n        /* \"#utility.yul\":1899:1928   */\n      tag_105\n      jump\t// in\n    tag_169:\n        /* \"#utility.yul\":1894:1897   */\n      dup5\n        /* \"#utility.yul\":1890:1929   */\n      add\n        /* \"#utility.yul\":1883:1929   */\n      swap2\n      pop\n        /* \"#utility.yul\":1650:1935   */\n      pop\n        /* \"#utility.yul\":1558:1935   */\n      swap3\n      swap2\n      pop\n      pop\n      jump\t// out\n        /* \"#utility.yul\":1941:2067   */\n    tag_107:\n        /* \"#utility.yul\":1978:1985   */\n      0x00\n        /* \"#utility.yul\":2018:2060   */\n      0xffffffffffffffffffffffffffffffffffffffff\n        /* \"#utility.yul\":2011:2016   */\n      dup3\n        /* \"#utility.yul\":2007:2061   */\n      and\n        /* \"#utility.yul\":1996:2061   */\n      swap1\n      pop\n        /* \"#utility.yul\":1941:2067   */\n      swap2\n      swap1\n      pop\n      jump\t// out\n        /* \"#utility.yul\":2073:2169   */\n    tag_108:\n        /* \"#utility.yul\":2110:2117   */\n      0x00\n        /* \"#utility.yul\":2139:2163   */\n      tag_172\n        /* \"#utility.yul\":2157:2162   */\n      dup3\n        /* \"#utility.yul\":2139:2163   */\n      tag_107\n      jump\t// in\n    tag_172:\n        /* \"#utility.yul\":2128:2163   */\n      swap1\n      pop\n        /* \"#utility.yul\":2073:2169   */\n      swap2\n      swap1\n      pop\n      jump\t// out\n        /* \"#utility.yul\":2175:2293   */\n    tag_109:\n        /* \"#utility.yul\":2262:2286   */\n      tag_174\n        /* \"#utility.yul\":2280:2285   */\n      dup2\n        /* \"#utility.yul\":2262:2286   */\n      tag_108\n      jump\t// in\n    tag_174:\n        /* \"#utility.yul\":2257:2260   */\n      dup3\n        /* \"#utility.yul\":2250:2287   */\n      mstore\n        /* \"#utility.yul\":2175:2293   */\n      pop\n      pop\n      jump\t// out\n        /* \"#utility.yul\":2299:2417   */\n    tag_110:\n        /* \"#utility.yul\":2386:2410   */\n      tag_176\n        /* \"#utility.yul\":2404:2409   */\n      dup2\n        /* \"#utility.yul\":2386:2410   */\n      tag_99\n      jump\t// in\n    tag_176:\n        /* \"#utility.yul\":2381:2384   */\n      dup3\n        /* \"#utility.yul\":2374:2411   */\n      mstore\n        /* \"#utility.yul\":2299:2417   */\n      pop\n      pop\n      jump\t// out\n        /* \"#utility.yul\":2423:2956   */\n    tag_16:\n        /* \"#utility.yul\":2592:2596   */\n      0x00\n        /* \"#utility.yul\":2630:2632   */\n      0x60\n        /* \"#utility.yul\":2619:2628   */\n      dup3\n        /* \"#utility.yul\":2615:2633   */\n      add\n        /* \"#utility.yul\":2607:2633   */\n      swap1\n      pop\n        /* \"#utility.yul\":2679:2688   */\n      dup2\n        /* \"#utility.yul\":2673:2677   */\n      dup2\n        /* \"#utility.yul\":2669:2689   */\n      sub\n        /* \"#utility.yul\":2665:2666   */\n      0x00\n        /* \"#utility.yul\":2654:2663   */\n      dup4\n        /* \"#utility.yul\":2650:2667   */\n      add\n        /* \"#utility.yul\":2643:2690   */\n      mstore\n        /* \"#utility.yul\":2707:2785   */\n      tag_178\n        /* \"#utility.yul\":2780:2784   */\n      dup2\n        /* \"#utility.yul\":2771:2777   */\n      dup7\n        /* \"#utility.yul\":2707:2785   */\n      tag_106\n      jump\t// in\n    tag_178:\n        /* \"#utility.yul\":2699:2785   */\n      swap1\n      pop\n        /* \"#utility.yul\":2795:2867   */\n      tag_179\n        /* \"#utility.yul\":2863:2865   */\n      0x20\n        /* \"#utility.yul\":2852:2861   */\n      dup4\n        /* \"#utility.yul\":2848:2866   */\n      add\n        /* \"#utility.yul\":2839:2845   */\n      dup6\n        /* \"#utility.yul\":2795:2867   */\n      tag_109\n      jump\t// in\n    tag_179:\n        /* \"#utility.yul\":2877:2949   */\n      tag_180\n        /* \"#utility.yul\":2945:2947   */\n      0x40\n        /* \"#utility.yul\":2934:2943   */\n      dup4\n        /* \"#utility.yul\":2930:2948   */\n      add\n        /* \"#utility.yul\":2921:2927   */\n      dup5\n        /* \"#utility.yul\":2877:2949   */\n      tag_110\n      jump\t// in\n    tag_180:\n        /* \"#utility.yul\":2423:2956   */\n      swap5\n      swap4\n      pop\n      pop\n      pop\n      pop\n      jump\t// out\n        /* \"#utility.yul\":2962:3079   */\n    tag_111:\n        /* \"#utility.yul\":3071:3072   */\n      0x00\n        /* \"#utility.yul\":3068:3069   */\n      dup1\n        /* \"#utility.yul\":3061:3073   */\n      revert\n        /* \"#utility.yul\":3085:3202   */\n    tag_112:\n        /* \"#utility.yul\":3194:3195   */\n      0x00\n        /* \"#utility.yul\":3191:3192   */\n      dup1\n        /* \"#utility.yul\":3184:3196   */\n      revert\n        /* \"#utility.yul\":3208:3388   */\n    tag_113:\n        /* \"#utility.yul\":3256:3333   */\n      0x4e487b7100000000000000000000000000000000000000000000000000000000\n        /* \"#utility.yul\":3253:3254   */\n      0x00\n        /* \"#utility.yul\":3246:3334   */\n      mstore\n        /* \"#utility.yul\":3353:3357   */\n      0x41\n        /* \"#utility.yul\":3350:3351   */\n      0x04\n        /* \"#utility.yul\":3343:3358   */\n      mstore\n        /* \"#utility.yul\":3377:3381   */\n      0x24\n        /* \"#utility.yul\":3374:3375   */\n      0x00\n        /* \"#utility.yul\":3367:3382   */\n      revert\n        /* \"#utility.yul\":3394:3675   */\n    tag_114:\n        /* \"#utility.yul\":3477:3504   */\n      tag_185\n        /* \"#utility.yul\":3499:3503   */\n      dup3\n        /* \"#utility.yul\":3477:3504   */\n      tag_105\n      jump\t// in\n    tag_185:\n        /* \"#utility.yul\":3469:3475   */\n      dup2\n        /* \"#utility.yul\":3465:3505   */\n      add\n        /* \"#utility.yul\":3607:3613   */\n      dup2\n        /* \"#utility.yul\":3595:3605   */\n      dup2\n        /* \"#utility.yul\":3592:3614   */\n      lt\n        /* \"#utility.yul\":3571:3589   */\n      0xffffffffffffffff\n        /* \"#utility.yul\":3559:3569   */\n      dup3\n        /* \"#utility.yul\":3556:3590   */\n      gt\n        /* \"#utility.yul\":3553:3615   */\n      or\n        /* \"#utility.yul\":3550:3638   */\n      iszero\n      tag_186\n      jumpi\n        /* \"#utility.yul\":3618:3636   */\n      tag_187\n      tag_113\n      jump\t// in\n    tag_187:\n        /* \"#utility.yul\":3550:3638   */\n    tag_186:\n        /* \"#utility.yul\":3658:3668   */\n      dup1\n        /* \"#utility.yul\":3654:3656   */\n      0x40\n        /* \"#utility.yul\":3647:3669   */\n      mstore\n        /* \"#utility.yul\":3437:3675   */\n      pop\n        /* \"#utility.yul\":3394:3675   */\n      pop\n      pop\n      jump\t// out\n        /* \"#utility.yul\":3681:3810   */\n    tag_115:\n        /* \"#utility.yul\":3715:3721   */\n      0x00\n        /* \"#utility.yul\":3742:3762   */\n      tag_189\n      tag_96\n      jump\t// in\n    tag_189:\n        /* \"#utility.yul\":3732:3762   */\n      swap1\n      pop\n        /* \"#utility.yul\":3771:3804   */\n      tag_190\n        /* \"#utility.yul\":3799:3803   */\n      dup3\n        /* \"#utility.yul\":3791:3797   */\n      dup3\n        /* \"#utility.yul\":3771:3804   */\n      tag_114\n      jump\t// in\n    tag_190:\n        /* \"#utility.yul\":3681:3810   */\n      swap2\n      swap1\n      pop\n      jump\t// out\n        /* \"#utility.yul\":3816:4124   */\n    tag_116:\n        /* \"#utility.yul\":3878:3882   */\n      0x00\n        /* \"#utility.yul\":3968:3986   */\n      0xffffffffffffffff\n        /* \"#utility.yul\":3960:3966   */\n      dup3\n        /* \"#utility.yul\":3957:3987   */\n      gt\n        /* \"#utility.yul\":3954:4010   */\n      iszero\n      tag_192\n      jumpi\n        /* \"#utility.yul\":3990:4008   */\n      tag_193\n      tag_113\n      jump\t// in\n    tag_193:\n        /* \"#utility.yul\":3954:4010   */\n    tag_192:\n        /* \"#utility.yul\":4028:4057   */\n      tag_194\n        /* \"#utility.yul\":4050:4056   */\n      dup3\n        /* \"#utility.yul\":4028:4057   */\n      tag_105\n      jump\t// in\n    tag_194:\n        /* \"#utility.yul\":4020:4057   */\n      swap1\n      pop\n        /* \"#utility.yul\":4112:4116   */\n      0x20\n        /* \"#utility.yul\":4106:4110   */\n      dup2\n        /* \"#utility.yul\":4102:4117   */\n      add\n        /* \"#utility.yul\":4094:4117   */\n      swap1\n      pop\n        /* \"#utility.yul\":3816:4124   */\n      swap2\n      swap1\n      pop\n      jump\t// out\n        /* \"#utility.yul\":4130:4278   */\n    tag_117:\n        /* \"#utility.yul\":4228:4234   */\n      dup3\n        /* \"#utility.yul\":4223:4226   */\n      dup2\n        /* \"#utility.yul\":4218:4221   */\n      dup4\n        /* \"#utility.yul\":4205:4235   */\n      calldatacopy\n        /* \"#utility.yul\":4269:4270   */\n      0x00\n        /* \"#utility.yul\":4260:4266   */\n      dup4\n        /* \"#utility.yul\":4255:4258   */\n      dup4\n        /* \"#utility.yul\":4251:4267   */\n      add\n        /* \"#utility.yul\":4244:4271   */\n      mstore\n        /* \"#utility.yul\":4130:4278   */\n      pop\n      pop\n      pop\n      jump\t// out\n        /* \"#utility.yul\":4284:4709   */\n    tag_118:\n        /* \"#utility.yul\":4362:4367   */\n      0x00\n        /* \"#utility.yul\":4387:4453   */\n      tag_197\n        /* \"#utility.yul\":4403:4452   */\n      tag_198\n        /* \"#utility.yul\":4445:4451   */\n      dup5\n        /* \"#utility.yul\":4403:4452   */\n      tag_116\n      jump\t// in\n    tag_198:\n        /* \"#utility.yul\":4387:4453   */\n      tag_115\n      jump\t// in\n    tag_197:\n        /* \"#utility.yul\":4378:4453   */\n      swap1\n      pop\n        /* \"#utility.yul\":4476:4482   */\n      dup3\n        /* \"#utility.yul\":4469:4474   */\n      dup2\n        /* \"#utility.yul\":4462:4483   */\n      mstore\n        /* \"#utility.yul\":4514:4518   */\n      0x20\n        /* \"#utility.yul\":4507:4512   */\n      dup2\n        /* \"#utility.yul\":4503:4519   */\n      add\n        /* \"#utility.yul\":4552:4555   */\n      dup5\n        /* \"#utility.yul\":4543:4549   */\n      dup5\n        /* \"#utility.yul\":4538:4541   */\n      dup5\n        /* \"#utility.yul\":4534:4550   */\n      add\n        /* \"#utility.yul\":4531:4556   */\n      gt\n        /* \"#utility.yul\":4528:4640   */\n      iszero\n      tag_199\n      jumpi\n        /* \"#utility.yul\":4559:4638   */\n      tag_200\n      tag_112\n      jump\t// in\n    tag_200:\n        /* \"#utility.yul\":4528:4640   */\n    tag_199:\n        /* \"#utility.yul\":4649:4703   */\n      tag_201\n        /* \"#utility.yul\":4696:4702   */\n      dup5\n        /* \"#utility.yul\":4691:4694   */\n      dup3\n        /* \"#utility.yul\":4686:4689   */\n      dup6\n        /* \"#utility.yul\":4649:4703   */\n      tag_117\n      jump\t// in\n    tag_201:\n        /* \"#utility.yul\":4368:4709   */\n      pop\n        /* \"#utility.yul\":4284:4709   */\n      swap4\n      swap3\n      pop\n      pop\n      pop\n      jump\t// out\n        /* \"#utility.yul\":4729:5069   */\n    tag_119:\n        /* \"#utility.yul\":4785:4790   */\n      0x00\n        /* \"#utility.yul\":4834:4837   */\n      dup3\n        /* \"#utility.yul\":4827:4831   */\n      0x1f\n        /* \"#utility.yul\":4819:4825   */\n      dup4\n        /* \"#utility.yul\":4815:4832   */\n      add\n        /* \"#utility.yul\":4811:4838   */\n      slt\n        /* \"#utility.yul\":4801:4923   */\n      tag_203\n      jumpi\n        /* \"#utility.yul\":4842:4921   */\n      tag_204\n      tag_111\n      jump\t// in\n    tag_204:\n        /* \"#utility.yul\":4801:4923   */\n    tag_203:\n        /* \"#utility.yul\":4959:4965   */\n      dup2\n        /* \"#utility.yul\":4946:4966   */\n      calldataload\n        /* \"#utility.yul\":4984:5063   */\n      tag_205\n        /* \"#utility.yul\":5059:5062   */\n      dup5\n        /* \"#utility.yul\":5051:5057   */\n      dup3\n        /* \"#utility.yul\":5044:5048   */\n      0x20\n        /* \"#utility.yul\":5036:5042   */\n      dup7\n        /* \"#utility.yul\":5032:5049   */\n      add\n        /* \"#utility.yul\":4984:5063   */\n      tag_118\n      jump\t// in\n    tag_205:\n        /* \"#utility.yul\":4975:5063   */\n      swap2\n      pop\n        /* \"#utility.yul\":4791:5069   */\n      pop\n        /* \"#utility.yul\":4729:5069   */\n      swap3\n      swap2\n      pop\n      pop\n      jump\t// out\n        /* \"#utility.yul\":5075:5584   */\n    tag_19:\n        /* \"#utility.yul\":5144:5150   */\n      0x00\n        /* \"#utility.yul\":5193:5195   */\n      0x20\n        /* \"#utility.yul\":5181:5190   */\n      dup3\n        /* \"#utility.yul\":5172:5179   */\n      dup5\n        /* \"#utility.yul\":5168:5191   */\n      sub\n        /* \"#utility.yul\":5164:5196   */\n      slt\n        /* \"#utility.yul\":5161:5280   */\n      iszero\n      tag_207\n      jumpi\n        /* \"#utility.yul\":5199:5278   */\n      tag_208\n      tag_97\n      jump\t// in\n    tag_208:\n        /* \"#utility.yul\":5161:5280   */\n    tag_207:\n        /* \"#utility.yul\":5347:5348   */\n      0x00\n        /* \"#utility.yul\":5336:5345   */\n      dup3\n        /* \"#utility.yul\":5332:5349   */\n      add\n        /* \"#utility.yul\":5319:5350   */\n      calldataload\n        /* \"#utility.yul\":5377:5395   */\n      0xffffffffffffffff\n        /* \"#utility.yul\":5369:5375   */\n      dup2\n        /* \"#utility.yul\":5366:5396   */\n      gt\n        /* \"#utility.yul\":5363:5480   */\n      iszero\n      tag_209\n      jumpi\n        /* \"#utility.yul\":5399:5478   */\n      tag_210\n      tag_98\n      jump\t// in\n    tag_210:\n        /* \"#utility.yul\":5363:5480   */\n    tag_209:\n        /* \"#utility.yul\":5504:5567   */\n      tag_211\n        /* \"#utility.yul\":5559:5566   */\n      dup5\n        /* \"#utility.yul\":5550:5556   */\n      dup3\n        /* \"#utility.yul\":5539:5548   */\n      dup6\n        /* \"#utility.yul\":5535:5557   */\n      add\n        /* \"#utility.yul\":5504:5567   */\n      tag_119\n      jump\t// in\n    tag_211:\n        /* \"#utility.yul\":5494:5567   */\n      swap2\n      pop\n        /* \"#utility.yul\":5290:5577   */\n      pop\n        /* \"#utility.yul\":5075:5584   */\n      swap3\n      swap2\n      pop\n      pop\n      jump\t// out\n        /* \"#utility.yul\":5590:5712   */\n    tag_120:\n        /* \"#utility.yul\":5663:5687   */\n      tag_213\n        /* \"#utility.yul\":5681:5686   */\n      dup2\n        /* \"#utility.yul\":5663:5687   */\n      tag_108\n      jump\t// in\n    tag_213:\n        /* \"#utility.yul\":5656:5661   */\n      dup2\n        /* \"#utility.yul\":5653:5688   */\n      eq\n        /* \"#utility.yul\":5643:5706   */\n      tag_214\n      jumpi\n        /* \"#utility.yul\":5702:5703   */\n      0x00\n        /* \"#utility.yul\":5699:5700   */\n      dup1\n        /* \"#utility.yul\":5692:5704   */\n      revert\n        /* \"#utility.yul\":5643:5706   */\n    tag_214:\n        /* \"#utility.yul\":5590:5712   */\n      pop\n      jump\t// out\n        /* \"#utility.yul\":5718:5857   */\n    tag_121:\n        /* \"#utility.yul\":5764:5769   */\n      0x00\n        /* \"#utility.yul\":5802:5808   */\n      dup2\n        /* \"#utility.yul\":5789:5809   */\n      calldataload\n        /* \"#utility.yul\":5780:5809   */\n      swap1\n      pop\n        /* \"#utility.yul\":5818:5851   */\n      tag_216\n        /* \"#utility.yul\":5845:5850   */\n      dup2\n        /* \"#utility.yul\":5818:5851   */\n      tag_120\n      jump\t// in\n    tag_216:\n        /* \"#utility.yul\":5718:5857   */\n      swap3\n      swap2\n      pop\n      pop\n      jump\t// out\n        /* \"#utility.yul\":5863:6482   */\n    tag_23:\n        /* \"#utility.yul\":5940:5946   */\n      0x00\n        /* \"#utility.yul\":5948:5954   */\n      dup1\n        /* \"#utility.yul\":5956:5962   */\n      0x00\n        /* \"#utility.yul\":6005:6007   */\n      0x60\n        /* \"#utility.yul\":5993:6002   */\n      dup5\n        /* \"#utility.yul\":5984:5991   */\n      dup7\n        /* \"#utility.yul\":5980:6003   */\n      sub\n        /* \"#utility.yul\":5976:6008   */\n      slt\n        /* \"#utility.yul\":5973:6092   */\n      iszero\n      tag_218\n      jumpi\n        /* \"#utility.yul\":6011:6090   */\n      tag_219\n      tag_97\n      jump\t// in\n    tag_219:\n        /* \"#utility.yul\":5973:6092   */\n    tag_218:\n        /* \"#utility.yul\":6131:6132   */\n      0x00\n        /* \"#utility.yul\":6156:6209   */\n      tag_220\n        /* \"#utility.yul\":6201:6208   */\n      dup7\n        /* \"#utility.yul\":6192:6198   */\n      dup3\n        /* \"#utility.yul\":6181:6190   */\n      dup8\n        /* \"#utility.yul\":6177:6199   */\n      add\n        /* \"#utility.yul\":6156:6209   */\n      tag_101\n      jump\t// in\n    tag_220:\n        /* \"#utility.yul\":6146:6209   */\n      swap4\n      pop\n        /* \"#utility.yul\":6102:6219   */\n      pop\n        /* \"#utility.yul\":6258:6260   */\n      0x20\n        /* \"#utility.yul\":6284:6337   */\n      tag_221\n        /* \"#utility.yul\":6329:6336   */\n      dup7\n        /* \"#utility.yul\":6320:6326   */\n      dup3\n        /* \"#utility.yul\":6309:6318   */\n      dup8\n        /* \"#utility.yul\":6305:6327   */\n      add\n        /* \"#utility.yul\":6284:6337   */\n      tag_121\n      jump\t// in\n    tag_221:\n        /* \"#utility.yul\":6274:6337   */\n      swap3\n      pop\n        /* \"#utility.yul\":6229:6347   */\n      pop\n        /* \"#utility.yul\":6386:6388   */\n      0x40\n        /* \"#utility.yul\":6412:6465   */\n      tag_222\n        /* \"#utility.yul\":6457:6464   */\n      dup7\n        /* \"#utility.yul\":6448:6454   */\n      dup3\n        /* \"#utility.yul\":6437:6446   */\n      dup8\n        /* \"#utility.yul\":6433:6455   */\n      add\n        /* \"#utility.yul\":6412:6465   */\n      tag_101\n      jump\t// in\n    tag_222:\n        /* \"#utility.yul\":6402:6465   */\n      swap2\n      pop\n        /* \"#utility.yul\":6357:6475   */\n      pop\n        /* \"#utility.yul\":5863:6482   */\n      swap3\n      pop\n      swap3\n      pop\n      swap3\n      jump\t// out\n        /* \"#utility.yul\":6488:6710   */\n    tag_28:\n        /* \"#utility.yul\":6581:6585   */\n      0x00\n        /* \"#utility.yul\":6619:6621   */\n      0x20\n        /* \"#utility.yul\":6608:6617   */\n      dup3\n        /* \"#utility.yul\":6604:6622   */\n      add\n        /* \"#utility.yul\":6596:6622   */\n      swap1\n      pop\n        /* \"#utility.yul\":6632:6703   */\n      tag_224\n        /* \"#utility.yul\":6700:6701   */\n      0x00\n        /* \"#utility.yul\":6689:6698   */\n      dup4\n        /* \"#utility.yul\":6685:6702   */\n      add\n        /* \"#utility.yul\":6676:6682   */\n      dup5\n        /* \"#utility.yul\":6632:6703   */\n      tag_110\n      jump\t// in\n    tag_224:\n        /* \"#utility.yul\":6488:6710   */\n      swap3\n      swap2\n      pop\n      pop\n      jump\t// out\n        /* \"#utility.yul\":6716:6938   */\n    tag_34:\n        /* \"#utility.yul\":6809:6813   */\n      0x00\n        /* \"#utility.yul\":6847:6849   */\n      0x20\n        /* \"#utility.yul\":6836:6845   */\n      dup3\n        /* \"#utility.yul\":6832:6850   */\n      add\n        /* \"#utility.yul\":6824:6850   */\n      swap1\n      pop\n        /* \"#utility.yul\":6860:6931   */\n      tag_226\n        /* \"#utility.yul\":6928:6929   */\n      0x00\n        /* \"#utility.yul\":6917:6926   */\n      dup4\n        /* \"#utility.yul\":6913:6930   */\n      add\n        /* \"#utility.yul\":6904:6910   */\n      dup5\n        /* \"#utility.yul\":6860:6931   */\n      tag_109\n      jump\t// in\n    tag_226:\n        /* \"#utility.yul\":6716:6938   */\n      swap3\n      swap2\n      pop\n      pop\n      jump\t// out\n        /* \"#utility.yul\":6944:7273   */\n    tag_37:\n        /* \"#utility.yul\":7003:7009   */\n      0x00\n        /* \"#utility.yul\":7052:7054   */\n      0x20\n        /* \"#utility.yul\":7040:7049   */\n      dup3\n        /* \"#utility.yul\":7031:7038   */\n      dup5\n        /* \"#utility.yul\":7027:7050   */\n      sub\n        /* \"#utility.yul\":7023:7055   */\n      slt\n        /* \"#utility.yul\":7020:7139   */\n      iszero\n      tag_228\n      jumpi\n        /* \"#utility.yul\":7058:7137   */\n      tag_229\n      tag_97\n      jump\t// in\n    tag_229:\n        /* \"#utility.yul\":7020:7139   */\n    tag_228:\n        /* \"#utility.yul\":7178:7179   */\n      0x00\n        /* \"#utility.yul\":7203:7256   */\n      tag_230\n        /* \"#utility.yul\":7248:7255   */\n      dup5\n        /* \"#utility.yul\":7239:7245   */\n      dup3\n        /* \"#utility.yul\":7228:7237   */\n      dup6\n        /* \"#utility.yul\":7224:7246   */\n      add\n        /* \"#utility.yul\":7203:7256   */\n      tag_121\n      jump\t// in\n    tag_230:\n        /* \"#utility.yul\":7193:7256   */\n      swap2\n      pop\n        /* \"#utility.yul\":7149:7266   */\n      pop\n        /* \"#utility.yul\":6944:7273   */\n      swap3\n      swap2\n      pop\n      pop\n      jump\t// out\n        /* \"#utility.yul\":7279:7459   */\n    tag_122:\n        /* \"#utility.yul\":7327:7404   */\n      0x4e487b7100000000000000000000000000000000000000000000000000000000\n        /* \"#utility.yul\":7324:7325   */\n      0x00\n        /* \"#utility.yul\":7317:7405   */\n      mstore\n        /* \"#utility.yul\":7424:7428   */\n      0x22\n        /* \"#utility.yul\":7421:7422   */\n      0x04\n        /* \"#utility.yul\":7414:7429   */\n      mstore\n        /* \"#utility.yul\":7448:7452   */\n      0x24\n        /* \"#utility.yul\":7445:7446   */\n      0x00\n        /* \"#utility.yul\":7438:7453   */\n      revert\n        /* \"#utility.yul\":7465:7785   */\n    tag_40:\n        /* \"#utility.yul\":7509:7515   */\n      0x00\n        /* \"#utility.yul\":7546:7547   */\n      0x02\n        /* \"#utility.yul\":7540:7544   */\n      dup3\n        /* \"#utility.yul\":7536:7548   */\n      div\n        /* \"#utility.yul\":7526:7548   */\n      swap1\n      pop\n        /* \"#utility.yul\":7593:7594   */\n      0x01\n        /* \"#utility.yul\":7587:7591   */\n      dup3\n        /* \"#utility.yul\":7583:7595   */\n      and\n        /* \"#utility.yul\":7614:7632   */\n      dup1\n        /* \"#utility.yul\":7604:7685   */\n      tag_233\n      jumpi\n        /* \"#utility.yul\":7670:7674   */\n      0x7f\n        /* \"#utility.yul\":7662:7668   */\n      dup3\n        /* \"#utility.yul\":7658:7675   */\n      and\n        /* \"#utility.yul\":7648:7675   */\n      swap2\n      pop\n        /* \"#utility.yul\":7604:7685   */\n    tag_233:\n        /* \"#utility.yul\":7732:7734   */\n      0x20\n        /* \"#utility.yul\":7724:7730   */\n      dup3\n        /* \"#utility.yul\":7721:7735   */\n      lt\n        /* \"#utility.yul\":7701:7719   */\n      dup2\n        /* \"#utility.yul\":7698:7736   */\n      sub\n        /* \"#utility.yul\":7695:7779   */\n      tag_234\n      jumpi\n        /* \"#utility.yul\":7751:7769   */\n      tag_235\n      tag_122\n      jump\t// in\n    tag_235:\n        /* \"#utility.yul\":7695:7779   */\n    tag_234:\n        /* \"#utility.yul\":7516:7785   */\n      pop\n        /* \"#utility.yul\":7465:7785   */\n      swap2\n      swap1\n      pop\n      jump\t// out\n        /* \"#utility.yul\":7791:7971   */\n    tag_123:\n        /* \"#utility.yul\":7839:7916   */\n      0x4e487b7100000000000000000000000000000000000000000000000000000000\n        /* \"#utility.yul\":7836:7837   */\n      0x00\n        /* \"#utility.yul\":7829:7917   */\n      mstore\n        /* \"#utility.yul\":7936:7940   */\n      0x11\n        /* \"#utility.yul\":7933:7934   */\n      0x04\n        /* \"#utility.yul\":7926:7941   */\n      mstore\n        /* \"#utility.yul\":7960:7964   */\n      0x24\n        /* \"#utility.yul\":7957:7958   */\n      0x00\n        /* \"#utility.yul\":7950:7965   */\n      revert\n        /* \"#utility.yul\":7977:8210   */\n    tag_47:\n        /* \"#utility.yul\":8016:8019   */\n      0x00\n        /* \"#utility.yul\":8039:8063   */\n      tag_238\n        /* \"#utility.yul\":8057:8062   */\n      dup3\n        /* \"#utility.yul\":8039:8063   */\n      tag_99\n      jump\t// in\n    tag_238:\n        /* \"#utility.yul\":8030:8063   */\n      swap2\n      pop\n        /* \"#utility.yul\":8085:8151   */\n      0xffffffffffffffffffffffffffffffffffffffffffffffffffffffffffffffff\n        /* \"#utility.yul\":8078:8083   */\n      dup3\n        /* \"#utility.yul\":8075:8152   */\n      sub\n        /* \"#utility.yul\":8072:8175   */\n      tag_239\n      jumpi\n        /* \"#utility.yul\":8155:8173   */\n      tag_240\n      tag_123\n      jump\t// in\n    tag_240:\n        /* \"#utility.yul\":8072:8175   */\n    tag_239:\n        /* \"#utility.yul\":8202:8203   */\n      0x01\n        /* \"#utility.yul\":8195:8200   */\n      dup3\n        /* \"#utility.yul\":8191:8204   */\n      add\n        /* \"#utility.yul\":8184:8204   */\n      swap1\n      pop\n        /* \"#utility.yul\":7977:8210   */\n      swap2\n      swap1\n      pop\n      jump\t// out\n        /* \"#utility.yul\":8216:8357   */\n    tag_124:\n        /* \"#utility.yul\":8265:8269   */\n      0x00\n        /* \"#utility.yul\":8288:8291   */\n      dup2\n        /* \"#utility.yul\":8280:8291   */\n      swap1\n      pop\n        /* \"#utility.yul\":8311:8314   */\n      dup2\n        /* \"#utility.yul\":8308:8309   */\n      0x00\n        /* \"#utility.yul\":8301:8315   */\n      mstore\n        /* \"#utility.yul\":8345:8349   */\n      0x20\n        /* \"#utility.yul\":8342:8343   */\n      0x00\n        /* \"#utility.yul\":8332:8350   */\n      keccak256\n        /* \"#utility.yul\":8324:8350   */\n      swap1\n      pop\n        /* \"#utility.yul\":8216:8357   */\n      swap2\n      swap1\n      pop\n      jump\t// out\n        /* \"#utility.yul\":8363:8456   */\n    tag_125:\n        /* \"#utility.yul\":8400:8406   */\n      0x00\n        /* \"#utility.yul\":8447:8449   */\n      0x20\n        /* \"#utility.yul\":8442:8444   */\n      0x1f\n        /* \"#utility.yul\":8435:8440   */\n      dup4\n        /* \"#utility.yul\":8431:8445   */\n      add\n        /* \"#utility.yul\":8427:8450   */\n      div\n        /* \"#utility.yul\":8417:8450   */\n      swap1\n      pop\n        /* \"#utility.yul\":8363:8456   */\n      swap2\n      swap1\n      pop\n      jump\t// out\n        /* \"#utility.yul\":8462:8569   */\n    tag_126:\n        /* \"#utility.yul\":8506:8514   */\n      0x00\n        /* \"#utility.yul\":8556:8561   */\n      dup3\n        /* \"#utility.yul\":8550:8554   */\n      dup3\n        /* \"#utility.yul\":8546:8562   */\n      shl\n        /* \"#utility.yul\":8525:8562   */\n      swap1\n      pop\n        /* \"#utility.yul\":8462:8569   */\n      swap3\n      swap2\n      pop\n      pop\n      jump\t// out\n        /* \"#utility.yul\":8575:8968   */\n    tag_127:\n        /* \"#utility.yul\":8644:8650   */\n      0x00\n        /* \"#utility.yul\":8694:8695   */\n      0x08\n        /* \"#utility.yul\":8682:8692   */\n      dup4\n        /* \"#utility.yul\":8678:8696   */\n      mul\n        /* \"#utility.yul\":8717:8814   */\n      tag_245\n        /* \"#utility.yul\":8747:8813   */\n      0xffffffffffffffffffffffffffffffffffffffffffffffffffffffffffffffff\n        /* \"#utility.yul\":8736:8745   */\n      dup3\n        /* \"#utility.yul\":8717:8814   */\n      tag_126\n      jump\t// in\n    tag_245:\n        /* \"#utility.yul\":8835:8874   */\n      tag_246\n        /* \"#utility.yul\":8865:8873   */\n      dup7\n        /* \"#utility.yul\":8854:8863   */\n      dup4\n        /* \"#utility.yul\":8835:8874   */\n      tag_126\n      jump\t// in\n    tag_246:\n        /* \"#utility.yul\":8823:8874   */\n      swap6\n      pop\n        /* \"#utility.yul\":8907:8911   */\n      dup1\n        /* \"#utility.yul\":8903:8912   */\n      not\n        /* \"#utility.yul\":8896:8901   */\n      dup5\n        /* \"#utility.yul\":8892:8913   */\n      and\n        /* \"#utility.yul\":8883:8913   */\n      swap4\n      pop\n        /* \"#utility.yul\":8956:8960   */\n      dup1\n        /* \"#utility.yul\":8946:8954   */\n      dup7\n        /* \"#utility.yul\":8942:8961   */\n      and\n        /* \"#utility.yul\":8935:8940   */\n      dup5\n        /* \"#utility.yul\":8932:8962   */\n      or\n        /* \"#utility.yul\":8922:8962   */\n      swap3\n      pop\n        /* \"#utility.yul\":8651:8968   */\n      pop\n      pop\n        /* \"#utility.yul\":8575:8968   */\n      swap4\n      swap3\n      pop\n      pop\n      pop\n      jump\t// out\n        /* \"#utility.yul\":8974:9034   */\n    tag_128:\n        /* \"#utility.yul\":9002:9005   */\n      0x00\n        /* \"#utility.yul\":9023:9028   */\n      dup2\n        /* \"#utility.yul\":9016:9028   */\n      swap1\n      pop\n        /* \"#utility.yul\":8974:9034   */\n      swap2\n      swap1\n      pop\n      jump\t// out\n        /* \"#utility.yul\":9040:9182   */\n    tag_129:\n        /* \"#utility.yul\":9090:9099   */\n      0x00\n        /* \"#utility.yul\":9123:9176   */\n      tag_249\n        /* \"#utility.yul\":9141:9175   */\n      tag_250\n        /* \"#utility.yul\":9150:9174   */\n      tag_251\n        /* \"#utility.yul\":9168:9173   */\n      dup5\n        /* \"#utility.yul\":9150:9174   */\n      tag_99\n      jump\t// in\n    tag_251:\n        /* \"#utility.yul\":9141:9175   */\n      tag_128\n      jump\t// in\n    tag_250:\n        /* \"#utility.yul\":9123:9176   */\n      tag_99\n      jump\t// in\n    tag_249:\n        /* \"#utility.yul\":9110:9176   */\n      swap1\n      pop\n        /* \"#utility.yul\":9040:9182   */\n      swap2\n      swap1\n      pop\n      jump\t// out\n        /* \"#utility.yul\":9188:9263   */\n    tag_130:\n        /* \"#utility.yul\":9231:9234   */\n      0x00\n        /* \"#utility.yul\":9252:9257   */\n      dup2\n        /* \"#utility.yul\":9245:9257   */\n      swap1\n      pop\n        /* \"#utility.yul\":9188:9263   */\n      swap2\n      swap1\n      pop\n      jump\t// out\n        /* \"#utility.yul\":9269:9538   */\n    tag_131:\n        /* \"#utility.yul\":9379:9418   */\n      tag_254\n        /* \"#utility.yul\":9410:9417   */\n      dup4\n        /* \"#utility.yul\":9379:9418   */\n      tag_129\n      jump\t// in\n    tag_254:\n        /* \"#utility.yul\":9440:9531   */\n      tag_255\n        /* \"#utility.yul\":9489:9530   */\n      tag_256\n        /* \"#utility.yul\":9513:9529   */\n      dup3\n        /* \"#utility.yul\":9489:9530   */\n      tag_130\n      jump\t// in\n    tag_256:\n        /* \"#utility.yul\":9481:9487   */\n      dup5\n        /* \"#utility.yul\":9474:9478   */\n      dup5\n        /* \"#utility.yul\":9468:9479   */\n      sload\n        /* \"#utility.yul\":9440:9531   */\n      tag_127\n      jump\t// in\n    tag_255:\n        /* \"#utility.yul\":9434:9438   */\n      dup3\n        /* \"#utility.yul\":9427:9532   */\n      sstore\n        /* \"#utility.yul\":9345:9538   */\n      pop\n        /* \"#utility.yul\":9269:9538   */\n      pop\n      pop\n      pop\n      jump\t// out\n        /* \"#utility.yul\":9544:9617   */\n    tag_132:\n        /* \"#utility.yul\":9589:9592   */\n      0x00\n        /* \"#utility.yul\":9544:9617   */\n      swap1\n      jump\t// out\n        /* \"#utility.yul\":9623:9812   */\n    tag_133:\n        /* \"#utility.yul\":9700:9732   */\n      tag_259\n      tag_132\n      jump\t// in\n    tag_259:\n        /* \"#utility.yul\":9741:9806   */\n      tag_260\n        /* \"#utility.yul\":9799:9805   */\n      dup2\n        /* \"#utility.yul\":9791:9797   */\n      dup5\n        /* \"#utility.yul\":9785:9789   */\n      dup5\n        /* \"#utility.yul\":9741:9806   */\n      tag_131\n      jump\t// in\n    tag_260:\n        /* \"#utility.yul\":9676:9812   */\n      pop\n        /* \"#utility.yul\":9623:9812   */\n      pop\n      pop\n      jump\t// out\n        /* \"#utility.yul\":9818:10004   */\n    tag_134:\n        /* \"#utility.yul\":9878:9998   */\n    tag_262:\n        /* \"#utility.yul\":9895:9898   */\n      dup2\n        /* \"#utility.yul\":9888:9893   */\n      dup2\n        /* \"#utility.yul\":9885:9899   */\n      lt\n        /* \"#utility.yul\":9878:9998   */\n      iszero\n      tag_264\n      jumpi\n        /* \"#utility.yul\":9949:9988   */\n      tag_265\n        /* \"#utility.yul\":9986:9987   */\n      0x00\n        /* \"#utility.yul\":9979:9984   */\n      dup3\n        /* \"#utility.yul\":9949:9988   */\n      tag_133\n      jump\t// in\n    tag_265:\n        /* \"#utility.yul\":9922:9923   */\n      0x01\n        /* \"#utility.yul\":9915:9920   */\n      dup2\n        /* \"#utility.yul\":9911:9924   */\n      add\n        /* \"#utility.yul\":9902:9924   */\n      swap1\n      pop\n        /* \"#utility.yul\":9878:9998   */\n      jump(tag_262)\n    tag_264:\n        /* \"#utility.yul\":9818:10004   */\n      pop\n      pop\n      jump\t// out\n        /* \"#utility.yul\":10010:10553   */\n    tag_135:\n        /* \"#utility.yul\":10111:10113   */\n      0x1f\n        /* \"#utility.yul\":10106:10109   */\n      dup3\n        /* \"#utility.yul\":10103:10114   */\n      gt\n        /* \"#utility.yul\":10100:10546   */\n      iszero\n      tag_267\n      jumpi\n        /* \"#utility.yul\":10145:10183   */\n      tag_268\n        /* \"#utility.yul\":10177:10182   */\n      dup2\n        /* \"#utility.yul\":10145:10183   */\n      tag_124\n      jump\t// in\n    tag_268:\n        /* \"#utility.yul\":10229:10258   */\n      tag_269\n        /* \"#utility.yul\":10247:10257   */\n      dup5\n        /* \"#utility.yul\":10229:10258   */\n      tag_125\n      jump\t// in\n    tag_269:\n        /* \"#utility.yul\":10219:10227   */\n      dup2\n        /* \"#utility.yul\":10215:10259   */\n      add\n        /* \"#utility.yul\":10412:10414   */\n      0x20\n        /* \"#utility.yul\":10400:10410   */\n      dup6\n        /* \"#utility.yul\":10397:10415   */\n      lt\n        /* \"#utility.yul\":10394:10443   */\n      iszero\n      tag_270\n      jumpi\n        /* \"#utility.yul\":10433:10441   */\n      dup2\n        /* \"#utility.yul\":10418:10441   */\n      swap1\n      pop\n        /* \"#utility.yul\":10394:10443   */\n    tag_270:\n        /* \"#utility.yul\":10456:10536   */\n      tag_271\n        /* \"#utility.yul\":10512:10534   */\n      tag_272\n        /* \"#utility.yul\":10530:10533   */\n      dup6\n        /* \"#utility.yul\":10512:10534   */\n      tag_125\n      jump\t// in\n    tag_272:\n        /* \"#utility.yul\":10502:10510   */\n      dup4\n        /* \"#utility.yul\":10498:10535   */\n      add\n        /* \"#utility.yul\":10485:10496   */\n      dup3\n        /* \"#utility.yul\":10456:10536   */\n      tag_134\n      jump\t// in\n    tag_271:\n        /* \"#utility.yul\":10115:10546   */\n      pop\n      pop\n        /* \"#utility.yul\":10100:10546   */\n    tag_267:\n        /* \"#utility.yul\":10010:10553   */\n      pop\n      pop\n      pop\n      jump\t// out\n        /* \"#utility.yul\":10559:10676   */\n    tag_136:\n        /* \"#utility.yul\":10613:10621   */\n      0x00\n        /* \"#utility.yul\":10663:10668   */\n      dup3\n        /* \"#utility.yul\":10657:10661   */\n      dup3\n        /* \"#utility.yul\":10653:10669   */\n      shr\n        /* \"#utility.yul\":10632:10669   */\n      swap1\n      pop\n        /* \"#utility.yul\":10559:10676   */\n      swap3\n      swap2\n      pop\n      pop\n      jump\t// out\n        /* \"#utility.yul\":10682:10851   */\n    tag_137:\n        /* \"#utility.yul\":10726:10732   */\n      0x00\n        /* \"#utility.yul\":10759:10810   */\n      tag_275\n        /* \"#utility.yul\":10807:10808   */\n      0x00\n        /* \"#utility.yul\":10803:10809   */\n      not\n        /* \"#utility.yul\":10795:10800   */\n      dup5\n        /* \"#utility.yul\":10792:10793   */\n      0x08\n        /* \"#utility.yul\":10788:10801   */\n      mul\n        /* \"#utility.yul\":10759:10810   */\n      tag_136\n      jump\t// in\n    tag_275:\n        /* \"#utility.yul\":10755:10811   */\n      not\n        /* \"#utility.yul\":10840:10844   */\n      dup1\n        /* \"#utility.yul\":10834:10838   */\n      dup4\n        /* \"#utility.yul\":10830:10845   */\n      and\n        /* \"#utility.yul\":10820:10845   */\n      swap2\n      pop\n        /* \"#utility.yul\":10733:10851   */\n      pop\n        /* \"#utility.yul\":10682:10851   */\n      swap3\n      swap2\n      pop\n      pop\n      jump\t// out\n        /* \"#utility.yul\":10856:11151   */\n    tag_138:\n        /* \"#utility.yul\":10932:10936   */\n      0x00\n        /* \"#utility.yul\":11078:11107   */\n      tag_277\n        /* \"#utility.yul\":11103:11106   */\n      dup4\n        /* \"#utility.yul\":11097:11101   */\n      dup4\n        /* \"#utility.yul\":11078:11107   */\n      tag_137\n      jump\t// in\n    tag_277:\n        /* \"#utility.yul\":11070:11107   */\n      swap2\n      pop\n        /* \"#utility.yul\":11140:11143   */\n      dup3\n        /* \"#utility.yul\":11137:11138   */\n      0x02\n        /* \"#utility.yul\":11133:11144   */\n      mul\n        /* \"#utility.yul\":11127:11131   */\n      dup3\n        /* \"#utility.yul\":11124:11145   */\n      or\n        /* \"#utility.yul\":11116:11145   */\n      swap1\n      pop\n        /* \"#utility.yul\":10856:11151   */\n      swap3\n      swap2\n      pop\n      pop\n      jump\t// out\n        /* \"#utility.yul\":11156:12551   */\n    tag_49:\n        /* \"#utility.yul\":11273:11310   */\n      tag_279\n        /* \"#utility.yul\":11306:11309   */\n      dup3\n        /* \"#utility.yul\":11273:11310   */\n      tag_102\n      jump\t// in\n    tag_279:\n        /* \"#utility.yul\":11375:11393   */\n      0xffffffffffffffff\n        /* \"#utility.yul\":11367:11373   */\n      dup2\n        /* \"#utility.yul\":11364:11394   */\n      gt\n        /* \"#utility.yul\":11361:11417   */\n      iszero\n      tag_280\n      jumpi\n        /* \"#utility.yul\":11397:11415   */\n      tag_281\n      tag_113\n      jump\t// in\n    tag_281:\n        /* \"#utility.yul\":11361:11417   */\n    tag_280:\n        /* \"#utility.yul\":11441:11479   */\n      tag_282\n        /* \"#utility.yul\":11473:11477   */\n      dup3\n        /* \"#utility.yul\":11467:11478   */\n      sload\n        /* \"#utility.yul\":11441:11479   */\n      tag_40\n      jump\t// in\n    tag_282:\n        /* \"#utility.yul\":11526:11593   */\n      tag_283\n        /* \"#utility.yul\":11586:11592   */\n      dup3\n        /* \"#utility.yul\":11578:11584   */\n      dup3\n        /* \"#utility.yul\":11572:11576   */\n      dup6\n        /* \"#utility.yul\":11526:11593   */\n      tag_135\n      jump\t// in\n    tag_283:\n        /* \"#utility.yul\":11620:11621   */\n      0x00\n        /* \"#utility.yul\":11644:11648   */\n      0x20\n        /* \"#utility.yul\":11631:11648   */\n      swap1\n      pop\n        /* \"#utility.yul\":11676:11678   */\n      0x1f\n        /* \"#utility.yul\":11668:11674   */\n      dup4\n        /* \"#utility.yul\":11665:11679   */\n      gt\n        /* \"#utility.yul\":11693:11694   */\n      0x01\n        /* \"#utility.yul\":11688:12306   */\n      dup2\n      eq\n      tag_285\n      jumpi\n        /* \"#utility.yul\":12350:12351   */\n      0x00\n        /* \"#utility.yul\":12367:12373   */\n      dup5\n        /* \"#utility.yul\":12364:12441   */\n      iszero\n      tag_286\n      jumpi\n        /* \"#utility.yul\":12416:12425   */\n      dup3\n        /* \"#utility.yul\":12411:12414   */\n      dup8\n        /* \"#utility.yul\":12407:12426   */\n      add\n        /* \"#utility.yul\":12401:12427   */\n      mload\n        /* \"#utility.yul\":12392:12427   */\n      swap1\n      pop\n        /* \"#utility.yul\":12364:12441   */\n    tag_286:\n        /* \"#utility.yul\":12467:12534   */\n      tag_287\n        /* \"#utility.yul\":12527:12533   */\n      dup6\n        /* \"#utility.yul\":12520:12525   */\n      dup3\n        /* \"#utility.yul\":12467:12534   */\n      tag_138\n      jump\t// in\n    tag_287:\n        /* \"#utility.yul\":12461:12465   */\n      dup7\n        /* \"#utility.yul\":12454:12535   */\n      sstore\n        /* \"#utility.yul\":12323:12545   */\n      pop\n        /* \"#utility.yul\":11658:12545   */\n      jump(tag_284)\n        /* \"#utility.yul\":11688:12306   */\n    tag_285:\n        /* \"#utility.yul\":11740:11744   */\n      0x1f\n        /* \"#utility.yul\":11736:11745   */\n      not\n        /* \"#utility.yul\":11728:11734   */\n      dup5\n        /* \"#utility.yul\":11724:11746   */\n      and\n        /* \"#utility.yul\":11774:11811   */\n      tag_288\n        /* \"#utility.yul\":11806:11810   */\n      dup7\n        /* \"#utility.yul\":11774:11811   */\n      tag_124\n      jump\t// in\n    tag_288:\n        /* \"#utility.yul\":11833:11834   */\n      0x00\n        /* \"#utility.yul\":11847:12055   */\n    tag_289:\n        /* \"#utility.yul\":11861:11868   */\n      dup3\n        /* \"#utility.yul\":11858:11859   */\n      dup2\n        /* \"#utility.yul\":11855:11869   */\n      lt\n        /* \"#utility.yul\":11847:12055   */\n      iszero\n      tag_291\n      jumpi\n        /* \"#utility.yul\":11940:11949   */\n      dup5\n        /* \"#utility.yul\":11935:11938   */\n      dup10\n        /* \"#utility.yul\":11931:11950   */\n      add\n        /* \"#utility.yul\":11925:11951   */\n      mload\n        /* \"#utility.yul\":11917:11923   */\n      dup3\n        /* \"#utility.yul\":11910:11952   */\n      sstore\n        /* \"#utility.yul\":11991:11992   */\n      0x01\n        /* \"#utility.yul\":11983:11989   */\n      dup3\n        /* \"#utility.yul\":11979:11993   */\n      add\n        /* \"#utility.yul\":11969:11993   */\n      swap2\n      pop\n        /* \"#utility.yul\":12038:12040   */\n      0x20\n        /* \"#utility.yul\":12027:12036   */\n      dup6\n        /* \"#utility.yul\":12023:12041   */\n      add\n        /* \"#utility.yul\":12010:12041   */\n      swap5\n      pop\n        /* \"#utility.yul\":11884:11888   */\n      0x20\n        /* \"#utility.yul\":11881:11882   */\n      dup2\n        /* \"#utility.yul\":11877:11889   */\n      add\n        /* \"#utility.yul\":11872:11889   */\n      swap1\n      pop\n        /* \"#utility.yul\":11847:12055   */\n      jump(tag_289)\n    tag_291:\n        /* \"#utility.yul\":12083:12089   */\n      dup7\n        /* \"#utility.yul\":12074:12081   */\n      dup4\n        /* \"#utility.yul\":12071:12090   */\n      lt\n        /* \"#utility.yul\":12068:12247   */\n      iszero\n      tag_292\n      jumpi\n        /* \"#utility.yul\":12141:12150   */\n      dup5\n        /* \"#utility.yul\":12136:12139   */\n      dup10\n        /* \"#utility.yul\":12132:12151   */\n      add\n        /* \"#utility.yul\":12126:12152   */\n      mload\n        /* \"#utility.yul\":12184:12232   */\n      tag_293\n        /* \"#utility.yul\":12226:12230   */\n      0x1f\n        /* \"#utility.yul\":12218:12224   */\n      dup10\n        /* \"#utility.yul\":12214:12231   */\n      and\n        /* \"#utility.yul\":12203:12212   */\n      dup3\n        /* \"#utility.yul\":12184:12232   */\n      tag_137\n      jump\t// in\n    tag_293:\n        /* \"#utility.yul\":12176:12182   */\n      dup4\n        /* \"#utility.yul\":12169:12233   */\n      sstore\n        /* \"#utility.yul\":12091:12247   */\n      pop\n        /* \"#utility.yul\":12068:12247   */\n    tag_292:\n        /* \"#utility.yul\":12293:12294   */\n      0x01\n        /* \"#utility.yul\":12289:12290   */\n      0x02\n        /* \"#utility.yul\":12281:12287   */\n      dup9\n        /* \"#utility.yul\":12277:12291   */\n      mul\n        /* \"#utility.yul\":12273:12295   */\n      add\n        /* \"#utility.yul\":12267:12271   */\n      dup9\n        /* \"#utility.yul\":12260:12296   */\n      sstore\n        /* \"#utility.yul\":11695:12306   */\n      pop\n      pop\n      pop\n        /* \"#utility.yul\":11658:12545   */\n    tag_284:\n      pop\n        /* \"#utility.yul\":11248:12551   */\n      pop\n      pop\n      pop\n        /* \"#utility.yul\":11156:12551   */\n      pop\n      pop\n      jump\t// out\n        /* \"#utility.yul\":12557:12736   */\n    tag_139:\n        /* \"#utility.yul\":12697:12728   */\n      0x416d6f756e74206d7573742062652067726561746572207468616e2030000000\n        /* \"#utility.yul\":12693:12694   */\n      0x00\n        /* \"#utility.yul\":12685:12691   */\n      dup3\n        /* \"#utility.yul\":12681:12695   */\n      add\n        /* \"#utility.yul\":12674:12729   */\n      mstore\n        /* \"#utility.yul\":12557:12736   */\n      pop\n      jump\t// out\n        /* \"#utility.yul\":12742:13108   */\n    tag_140:\n        /* \"#utility.yul\":12884:12887   */\n      0x00\n        /* \"#utility.yul\":12905:12972   */\n      tag_296\n        /* \"#utility.yul\":12969:12971   */\n      0x1d\n        /* \"#utility.yul\":12964:12967   */\n      dup4\n        /* \"#utility.yul\":12905:12972   */\n      tag_103\n      jump\t// in\n    tag_296:\n        /* \"#utility.yul\":12898:12972   */\n      swap2\n      pop\n        /* \"#utility.yul\":12981:13074   */\n      tag_297\n        /* \"#utility.yul\":13070:13073   */\n      dup3\n        /* \"#utility.yul\":12981:13074   */\n      tag_139\n      jump\t// in\n    tag_297:\n        /* \"#utility.yul\":13099:13101   */\n      0x20\n        /* \"#utility.yul\":13094:13097   */\n      dup3\n        /* \"#utility.yul\":13090:13102   */\n      add\n        /* \"#utility.yul\":13083:13102   */\n      swap1\n      pop\n        /* \"#utility.yul\":12742:13108   */\n      swap2\n      swap1\n      pop\n      jump\t// out\n        /* \"#utility.yul\":13114:13533   */\n    tag_53:\n        /* \"#utility.yul\":13280:13284   */\n      0x00\n        /* \"#utility.yul\":13318:13320   */\n      0x20\n        /* \"#utility.yul\":13307:13316   */\n      dup3\n        /* \"#utility.yul\":13303:13321   */\n      add\n        /* \"#utility.yul\":13295:13321   */\n      swap1\n      pop\n        /* \"#utility.yul\":13367:13376   */\n      dup2\n        /* \"#utility.yul\":13361:13365   */\n      dup2\n        /* \"#utility.yul\":13357:13377   */\n      sub\n        /* \"#utility.yul\":13353:13354   */\n      0x00\n        /* \"#utility.yul\":13342:13351   */\n      dup4\n        /* \"#utility.yul\":13338:13355   */\n      add\n        /* \"#utility.yul\":13331:13378   */\n      mstore\n        /* \"#utility.yul\":13395:13526   */\n      tag_299\n        /* \"#utility.yul\":13521:13525   */\n      dup2\n        /* \"#utility.yul\":13395:13526   */\n      tag_140\n      jump\t// in\n    tag_299:\n        /* \"#utility.yul\":13387:13526   */\n      swap1\n      pop\n        /* \"#utility.yul\":13114:13533   */\n      swap2\n      swap1\n      pop\n      jump\t// out\n        /* \"#utility.yul\":13539:13682   */\n    tag_141:\n        /* \"#utility.yul\":13596:13601   */\n      0x00\n        /* \"#utility.yul\":13627:13633   */\n      dup2\n        /* \"#utility.yul\":13621:13634   */\n      mload\n        /* \"#utility.yul\":13612:13634   */\n      swap1\n      pop\n        /* \"#utility.yul\":13643:13676   */\n      tag_301\n        /* \"#utility.yul\":13670:13675   */\n      dup2\n        /* \"#utility.yul\":13643:13676   */\n      tag_100\n      jump\t// in\n    tag_301:\n        /* \"#utility.yul\":13539:13682   */\n      swap3\n      swap2\n      pop\n      pop\n      jump\t// out\n        /* \"#utility.yul\":13688:14039   */\n    tag_58:\n        /* \"#utility.yul\":13758:13764   */\n      0x00\n        /* \"#utility.yul\":13807:13809   */\n      0x20\n        /* \"#utility.yul\":13795:13804   */\n      dup3\n        /* \"#utility.yul\":13786:13793   */\n      dup5\n        /* \"#utility.yul\":13782:13805   */\n      sub\n        /* \"#utility.yul\":13778:13810   */\n      slt\n        /* \"#utility.yul\":13775:13894   */\n      iszero\n      tag_303\n      jumpi\n        /* \"#utility.yul\":13813:13892   */\n      tag_304\n      tag_97\n      jump\t// in\n    tag_304:\n        /* \"#utility.yul\":13775:13894   */\n    tag_303:\n        /* \"#utility.yul\":13933:13934   */\n      0x00\n        /* \"#utility.yul\":13958:14022   */\n      tag_305\n        /* \"#utility.yul\":14014:14021   */\n      dup5\n        /* \"#utility.yul\":14005:14011   */\n      dup3\n        /* \"#utility.yul\":13994:14003   */\n      dup6\n        /* \"#utility.yul\":13990:14012   */\n      add\n        /* \"#utility.yul\":13958:14022   */\n      tag_141\n      jump\t// in\n    tag_305:\n        /* \"#utility.yul\":13948:14022   */\n      swap2\n      pop\n        /* \"#utility.yul\":13904:14032   */\n      pop\n        /* \"#utility.yul\":13688:14039   */\n      swap3\n      swap2\n      pop\n      pop\n      jump\t// out\n        /* \"#utility.yul\":14045:14221   */\n    tag_142:\n        /* \"#utility.yul\":14185:14213   */\n      0x496e73756666696369656e7420746f6b656e2062616c616e6365000000000000\n        /* \"#utility.yul\":14181:14182   */\n      0x00\n        /* \"#utility.yul\":14173:14179   */\n      dup3\n        /* \"#utility.yul\":14169:14183   */\n      add\n        /* \"#utility.yul\":14162:14214   */\n      mstore\n        /* \"#utility.yul\":14045:14221   */\n      pop\n      jump\t// out\n        /* \"#utility.yul\":14227:14593   */\n    tag_143:\n        /* \"#utility.yul\":14369:14372   */\n      0x00\n        /* \"#utility.yul\":14390:14457   */\n      tag_308\n        /* \"#utility.yul\":14454:14456   */\n      0x1a\n        /* \"#utility.yul\":14449:14452   */\n      dup4\n        /* \"#utility.yul\":14390:14457   */\n      tag_103\n      jump\t// in\n    tag_308:\n        /* \"#utility.yul\":14383:14457   */\n      swap2\n      pop\n        /* \"#utility.yul\":14466:14559   */\n      tag_309\n        /* \"#utility.yul\":14555:14558   */\n      dup3\n        /* \"#utility.yul\":14466:14559   */\n      tag_142\n      jump\t// in\n    tag_309:\n        /* \"#utility.yul\":14584:14586   */\n      0x20\n        /* \"#utility.yul\":14579:14582   */\n      dup3\n        /* \"#utility.yul\":14575:14587   */\n      add\n        /* \"#utility.yul\":14568:14587   */\n      swap1\n      pop\n        /* \"#utility.yul\":14227:14593   */\n      swap2\n      swap1\n      pop\n      jump\t// out\n        /* \"#utility.yul\":14599:15018   */\n    tag_61:\n        /* \"#utility.yul\":14765:14769   */\n      0x00\n        /* \"#utility.yul\":14803:14805   */\n      0x20\n        /* \"#utility.yul\":14792:14801   */\n      dup3\n        /* \"#utility.yul\":14788:14806   */\n      add\n        /* \"#utility.yul\":14780:14806   */\n      swap1\n      pop\n        /* \"#utility.yul\":14852:14861   */\n      dup2\n        /* \"#utility.yul\":14846:14850   */\n      dup2\n        /* \"#utility.yul\":14842:14862   */\n      sub\n        /* \"#utility.yul\":14838:14839   */\n      0x00\n        /* \"#utility.yul\":14827:14836   */\n      dup4\n        /* \"#utility.yul\":14823:14840   */\n      add\n        /* \"#utility.yul\":14816:14863   */\n      mstore\n        /* \"#utility.yul\":14880:15011   */\n      tag_311\n        /* \"#utility.yul\":15006:15010   */\n      dup2\n        /* \"#utility.yul\":14880:15011   */\n      tag_143\n      jump\t// in\n    tag_311:\n        /* \"#utility.yul\":14872:15011   */\n      swap1\n      pop\n        /* \"#utility.yul\":14599:15018   */\n      swap2\n      swap1\n      pop\n      jump\t// out\n        /* \"#utility.yul\":15024:15356   */\n    tag_63:\n        /* \"#utility.yul\":15145:15149   */\n      0x00\n        /* \"#utility.yul\":15183:15185   */\n      0x40\n        /* \"#utility.yul\":15172:15181   */\n      dup3\n        /* \"#utility.yul\":15168:15186   */\n      add\n        /* \"#utility.yul\":15160:15186   */\n      swap1\n      pop\n        /* \"#utility.yul\":15196:15267   */\n      tag_313\n        /* \"#utility.yul\":15264:15265   */\n      0x00\n        /* \"#utility.yul\":15253:15262   */\n      dup4\n        /* \"#utility.yul\":15249:15266   */\n      add\n        /* \"#utility.yul\":15240:15246   */\n      dup6\n        /* \"#utility.yul\":15196:15267   */\n      tag_109\n      jump\t// in\n    tag_313:\n        /* \"#utility.yul\":15277:15349   */\n      tag_314\n        /* \"#utility.yul\":15345:15347   */\n      0x20\n        /* \"#utility.yul\":15334:15343   */\n      dup4\n        /* \"#utility.yul\":15330:15348   */\n      add\n        /* \"#utility.yul\":15321:15327   */\n      dup5\n        /* \"#utility.yul\":15277:15349   */\n      tag_110\n      jump\t// in\n    tag_314:\n        /* \"#utility.yul\":15024:15356   */\n      swap4\n      swap3\n      pop\n      pop\n      pop\n      jump\t// out\n        /* \"#utility.yul\":15362:15452   */\n    tag_144:\n        /* \"#utility.yul\":15396:15403   */\n      0x00\n        /* \"#utility.yul\":15439:15444   */\n      dup2\n        /* \"#utility.yul\":15432:15445   */\n      iszero\n        /* \"#utility.yul\":15425:15446   */\n      iszero\n        /* \"#utility.yul\":15414:15446   */\n      swap1\n      pop\n        /* \"#utility.yul\":15362:15452   */\n      swap2\n      swap1\n      pop\n      jump\t// out\n        /* \"#utility.yul\":15458:15574   */\n    tag_145:\n        /* \"#utility.yul\":15528:15549   */\n      tag_317\n        /* \"#utility.yul\":15543:15548   */\n      dup2\n        /* \"#utility.yul\":15528:15549   */\n      tag_144\n      jump\t// in\n    tag_317:\n        /* \"#utility.yul\":15521:15526   */\n      dup2\n        /* \"#utility.yul\":15518:15550   */\n      eq\n        /* \"#utility.yul\":15508:15568   */\n      tag_318\n      jumpi\n        /* \"#utility.yul\":15564:15565   */\n      0x00\n        /* \"#utility.yul\":15561:15562   */\n      dup1\n        /* \"#utility.yul\":15554:15566   */\n      revert\n        /* \"#utility.yul\":15508:15568   */\n    tag_318:\n        /* \"#utility.yul\":15458:15574   */\n      pop\n      jump\t// out\n        /* \"#utility.yul\":15580:15717   */\n    tag_146:\n        /* \"#utility.yul\":15634:15639   */\n      0x00\n        /* \"#utility.yul\":15665:15671   */\n      dup2\n        /* \"#utility.yul\":15659:15672   */\n      mload\n        /* \"#utility.yul\":15650:15672   */\n      swap1\n      pop\n        /* \"#utility.yul\":15681:15711   */\n      tag_320\n        /* \"#utility.yul\":15705:15710   */\n      dup2\n        /* \"#utility.yul\":15681:15711   */\n      tag_145\n      jump\t// in\n    tag_320:\n        /* \"#utility.yul\":15580:15717   */\n      swap3\n      swap2\n      pop\n      pop\n      jump\t// out\n        /* \"#utility.yul\":15723:16068   */\n    tag_67:\n        /* \"#utility.yul\":15790:15796   */\n      0x00\n        /* \"#utility.yul\":15839:15841   */\n      0x20\n        /* \"#utility.yul\":15827:15836   */\n      dup3\n        /* \"#utility.yul\":15818:15825   */\n      dup5\n        /* \"#utility.yul\":15814:15837   */\n      sub\n        /* \"#utility.yul\":15810:15842   */\n      slt\n        /* \"#utility.yul\":15807:15926   */\n      iszero\n      tag_322\n      jumpi\n        /* \"#utility.yul\":15845:15924   */\n      tag_323\n      tag_97\n      jump\t// in\n    tag_323:\n        /* \"#utility.yul\":15807:15926   */\n    tag_322:\n        /* \"#utility.yul\":15965:15966   */\n      0x00\n        /* \"#utility.yul\":15990:16051   */\n      tag_324\n        /* \"#utility.yul\":16043:16050   */\n      dup5\n        /* \"#utility.yul\":16034:16040   */\n      dup3\n        /* \"#utility.yul\":16023:16032   */\n      dup6\n        /* \"#utility.yul\":16019:16041   */\n      add\n        /* \"#utility.yul\":15990:16051   */\n      tag_146\n      jump\t// in\n    tag_324:\n        /* \"#utility.yul\":15980:16051   */\n      swap2\n      pop\n        /* \"#utility.yul\":15936:16061   */\n      pop\n        /* \"#utility.yul\":15723:16068   */\n      swap3\n      swap2\n      pop\n      pop\n      jump\t// out\n        /* \"#utility.yul\":16074:16516   */\n    tag_70:\n        /* \"#utility.yul\":16223:16227   */\n      0x00\n        /* \"#utility.yul\":16261:16263   */\n      0x60\n        /* \"#utility.yul\":16250:16259   */\n      dup3\n        /* \"#utility.yul\":16246:16264   */\n      add\n        /* \"#utility.yul\":16238:16264   */\n      swap1\n      pop\n        /* \"#utility.yul\":16274:16345   */\n      tag_326\n        /* \"#utility.yul\":16342:16343   */\n      0x00\n        /* \"#utility.yul\":16331:16340   */\n      dup4\n        /* \"#utility.yul\":16327:16344   */\n      add\n        /* \"#utility.yul\":16318:16324   */\n      dup7\n        /* \"#utility.yul\":16274:16345   */\n      tag_109\n      jump\t// in\n    tag_326:\n        /* \"#utility.yul\":16355:16427   */\n      tag_327\n        /* \"#utility.yul\":16423:16425   */\n      0x20\n        /* \"#utility.yul\":16412:16421   */\n      dup4\n        /* \"#utility.yul\":16408:16426   */\n      add\n        /* \"#utility.yul\":16399:16405   */\n      dup6\n        /* \"#utility.yul\":16355:16427   */\n      tag_109\n      jump\t// in\n    tag_327:\n        /* \"#utility.yul\":16437:16509   */\n      tag_328\n        /* \"#utility.yul\":16505:16507   */\n      0x40\n        /* \"#utility.yul\":16494:16503   */\n      dup4\n        /* \"#utility.yul\":16490:16508   */\n      add\n        /* \"#utility.yul\":16481:16487   */\n      dup5\n        /* \"#utility.yul\":16437:16509   */\n      tag_110\n      jump\t// in\n    tag_328:\n        /* \"#utility.yul\":16074:16516   */\n      swap5\n      swap4\n      pop\n      pop\n      pop\n      pop\n      jump\t// out\n\n    auxdata: 0xa2646970667358221220304dad75ad30cefaea6bc633588ce2a4d246f11b254218b94daa9a3a78c840d464736f6c634300081a0033\n}\n",
				"bytecode": {
					"linkReferences": {},
					"object": "60806040525f600155348015610013575f80fd5b5060405161133f38038061133f833981810160405281019061003591906101db565b805f73ffffffffffffffffffffffffffffffffffffffff168173ffffffffffffffffffffffffffffffffffffffff16036100a6575f6040517f1e4fbdf700000000000000000000000000000000000000000000000000000000815260040161009d9190610215565b60405180910390fd5b6100b5816100bc60201b60201c565b505061022e565b5f805f9054906101000a900473ffffffffffffffffffffffffffffffffffffffff169050815f806101000a81548173ffffffffffffffffffffffffffffffffffffffff021916908373ffffffffffffffffffffffffffffffffffffffff1602179055508173ffffffffffffffffffffffffffffffffffffffff168173ffffffffffffffffffffffffffffffffffffffff167f8be0079c531659141344cd1fd0a4f28419497f9722a3daafe3b4186f6b6457e060405160405180910390a35050565b5f80fd5b5f73ffffffffffffffffffffffffffffffffffffffff82169050919050565b5f6101aa82610181565b9050919050565b6101ba816101a0565b81146101c4575f80fd5b50565b5f815190506101d5816101b1565b92915050565b5f602082840312156101f0576101ef61017d565b5b5f6101fd848285016101c7565b91505092915050565b61020f816101a0565b82525050565b5f6020820190506102285f830184610206565b92915050565b6111048061023b5f395ff3fe608060405234801561000f575f80fd5b506004361061007b575f3560e01c806336fbad261161005957806336fbad26146100e9578063715018a6146101075780638da5cb5b14610111578063f2fde38b1461012f5761007b565b8063107046bd1461007f578063239ecf35146100b157806333b2decc146100cd575b5f80fd5b61009960048036038101906100949190610857565b61014b565b6040516100a893929190610940565b60405180910390f35b6100cb60048036038101906100c69190610aa8565b610216565b005b6100e760048036038101906100e29190610b19565b6102a3565b005b6100f1610600565b6040516100fe9190610b69565b60405180910390f35b61010f610606565b005b610119610619565b6040516101269190610b82565b60405180910390f35b61014960048036038101906101449190610b9b565b610640565b005b6002602052805f5260405f205f91509050805f01805461016a90610bf3565b80601f016020809104026020016040519081016040528092919081815260200182805461019690610bf3565b80156101e15780601f106101b8576101008083540402835291602001916101e1565b820191905f5260205f20905b8154815290600101906020018083116101c457829003601f168201915b505050505090806001015f9054906101000a900473ffffffffffffffffffffffffffffffffffffffff16908060030154905083565b60015f81548092919061022890610c50565b91905055505f60025f60015481526020019081526020015f20905081815f0190816102539190610e34565b5033816001015f6101000a81548173ffffffffffffffffffffffffffffffffffffffff021916908373ffffffffffffffffffffffffffffffffffffffff1602179055505f81600301819055505050565b5f81116102e5576040517f08c379a00000000000000000000000000000000000000000000000000000000081526004016102dc90610f4d565b60405180910390fd5b808273ffffffffffffffffffffffffffffffffffffffff166370a08231336040518263ffffffff1660e01b815260040161031f9190610b82565b602060405180830381865afa15801561033a573d5f803e3d5ffd5b505050506040513d601f19601f8201168201806040525081019061035e9190610f7f565b101561039f576040517f08c379a000000000000000000000000000000000000000000000000000000000815260040161039690610ff4565b60405180910390fd5b8173ffffffffffffffffffffffffffffffffffffffff1663095ea7b330836040518363ffffffff1660e01b81526004016103da929190611012565b6020604051808303815f875af11580156103f6573d5f803e3d5ffd5b505050506040513d601f19601f8201168201806040525081019061041a919061106e565b610422575f80fd5b8173ffffffffffffffffffffffffffffffffffffffff166323b872dd3330846040518463ffffffff1660e01b815260040161045f93929190611099565b6020604051808303815f875af115801561047b573d5f803e3d5ffd5b505050506040513d601f19601f8201168201806040525081019061049f919061106e565b505f60025f8581526020019081526020015f20905033816002015f3373ffffffffffffffffffffffffffffffffffffffff1673ffffffffffffffffffffffffffffffffffffffff1681526020019081526020015f205f015f6101000a81548173ffffffffffffffffffffffffffffffffffffffff021916908373ffffffffffffffffffffffffffffffffffffffff16021790555082816002015f3373ffffffffffffffffffffffffffffffffffffffff1673ffffffffffffffffffffffffffffffffffffffff1681526020019081526020015f206001015f6101000a81548173ffffffffffffffffffffffffffffffffffffffff021916908373ffffffffffffffffffffffffffffffffffffffff16021790555081816002015f3373ffffffffffffffffffffffffffffffffffffffff1673ffffffffffffffffffffffffffffffffffffffff1681526020019081526020015f206002018190555050505050565b60015481565b61060e6106c4565b6106175f61074b565b565b5f805f9054906101000a900473ffffffffffffffffffffffffffffffffffffffff16905090565b6106486106c4565b5f73ffffffffffffffffffffffffffffffffffffffff168173ffffffffffffffffffffffffffffffffffffffff16036106b8575f6040517f1e4fbdf70000000000000000000000000000000000000000000000000000000081526004016106af9190610b82565b60405180910390fd5b6106c18161074b565b50565b6106cc61080c565b73ffffffffffffffffffffffffffffffffffffffff166106ea610619565b73ffffffffffffffffffffffffffffffffffffffff16146107495761070d61080c565b6040517f118cdaa70000000000000000000000000000000000000000000000000000000081526004016107409190610b82565b60405180910390fd5b565b5f805f9054906101000a900473ffffffffffffffffffffffffffffffffffffffff169050815f806101000a81548173ffffffffffffffffffffffffffffffffffffffff021916908373ffffffffffffffffffffffffffffffffffffffff1602179055508173ffffffffffffffffffffffffffffffffffffffff168173ffffffffffffffffffffffffffffffffffffffff167f8be0079c531659141344cd1fd0a4f28419497f9722a3daafe3b4186f6b6457e060405160405180910390a35050565b5f33905090565b5f604051905090565b5f80fd5b5f80fd5b5f819050919050565b61083681610824565b8114610840575f80fd5b50565b5f813590506108518161082d565b92915050565b5f6020828403121561086c5761086b61081c565b5b5f61087984828501610843565b91505092915050565b5f81519050919050565b5f82825260208201905092915050565b8281835e5f83830152505050565b5f601f19601f8301169050919050565b5f6108c482610882565b6108ce818561088c565b93506108de81856020860161089c565b6108e7816108aa565b840191505092915050565b5f73ffffffffffffffffffffffffffffffffffffffff82169050919050565b5f61091b826108f2565b9050919050565b61092b81610911565b82525050565b61093a81610824565b82525050565b5f6060820190508181035f83015261095881866108ba565b90506109676020830185610922565b6109746040830184610931565b949350505050565b5f80fd5b5f80fd5b7f4e487b71000000000000000000000000000000000000000000000000000000005f52604160045260245ffd5b6109ba826108aa565b810181811067ffffffffffffffff821117156109d9576109d8610984565b5b80604052505050565b5f6109eb610813565b90506109f782826109b1565b919050565b5f67ffffffffffffffff821115610a1657610a15610984565b5b610a1f826108aa565b9050602081019050919050565b828183375f83830152505050565b5f610a4c610a47846109fc565b6109e2565b905082815260208101848484011115610a6857610a67610980565b5b610a73848285610a2c565b509392505050565b5f82601f830112610a8f57610a8e61097c565b5b8135610a9f848260208601610a3a565b91505092915050565b5f60208284031215610abd57610abc61081c565b5b5f82013567ffffffffffffffff811115610ada57610ad9610820565b5b610ae684828501610a7b565b91505092915050565b610af881610911565b8114610b02575f80fd5b50565b5f81359050610b1381610aef565b92915050565b5f805f60608486031215610b3057610b2f61081c565b5b5f610b3d86828701610843565b9350506020610b4e86828701610b05565b9250506040610b5f86828701610843565b9150509250925092565b5f602082019050610b7c5f830184610931565b92915050565b5f602082019050610b955f830184610922565b92915050565b5f60208284031215610bb057610baf61081c565b5b5f610bbd84828501610b05565b91505092915050565b7f4e487b71000000000000000000000000000000000000000000000000000000005f52602260045260245ffd5b5f6002820490506001821680610c0a57607f821691505b602082108103610c1d57610c1c610bc6565b5b50919050565b7f4e487b71000000000000000000000000000000000000000000000000000000005f52601160045260245ffd5b5f610c5a82610824565b91507fffffffffffffffffffffffffffffffffffffffffffffffffffffffffffffffff8203610c8c57610c8b610c23565b5b600182019050919050565b5f819050815f5260205f209050919050565b5f6020601f8301049050919050565b5f82821b905092915050565b5f60088302610cf37fffffffffffffffffffffffffffffffffffffffffffffffffffffffffffffffff82610cb8565b610cfd8683610cb8565b95508019841693508086168417925050509392505050565b5f819050919050565b5f610d38610d33610d2e84610824565b610d15565b610824565b9050919050565b5f819050919050565b610d5183610d1e565b610d65610d5d82610d3f565b848454610cc4565b825550505050565b5f90565b610d79610d6d565b610d84818484610d48565b505050565b5b81811015610da757610d9c5f82610d71565b600181019050610d8a565b5050565b601f821115610dec57610dbd81610c97565b610dc684610ca9565b81016020851015610dd5578190505b610de9610de185610ca9565b830182610d89565b50505b505050565b5f82821c905092915050565b5f610e0c5f1984600802610df1565b1980831691505092915050565b5f610e248383610dfd565b9150826002028217905092915050565b610e3d82610882565b67ffffffffffffffff811115610e5657610e55610984565b5b610e608254610bf3565b610e6b828285610dab565b5f60209050601f831160018114610e9c575f8415610e8a578287015190505b610e948582610e19565b865550610efb565b601f198416610eaa86610c97565b5f5b82811015610ed157848901518255600182019150602085019450602081019050610eac565b86831015610eee5784890151610eea601f891682610dfd565b8355505b6001600288020188555050505b505050505050565b7f416d6f756e74206d7573742062652067726561746572207468616e20300000005f82015250565b5f610f37601d8361088c565b9150610f4282610f03565b602082019050919050565b5f6020820190508181035f830152610f6481610f2b565b9050919050565b5f81519050610f798161082d565b92915050565b5f60208284031215610f9457610f9361081c565b5b5f610fa184828501610f6b565b91505092915050565b7f496e73756666696369656e7420746f6b656e2062616c616e63650000000000005f82015250565b5f610fde601a8361088c565b9150610fe982610faa565b602082019050919050565b5f6020820190508181035f83015261100b81610fd2565b9050919050565b5f6040820190506110255f830185610922565b6110326020830184610931565b9392505050565b5f8115159050919050565b61104d81611039565b8114611057575f80fd5b50565b5f8151905061106881611044565b92915050565b5f602082840312156110835761108261081c565b5b5f6110908482850161105a565b91505092915050565b5f6060820190506110ac5f830186610922565b6110b96020830185610922565b6110c66040830184610931565b94935050505056fea2646970667358221220304dad75ad30cefaea6bc633588ce2a4d246f11b254218b94daa9a3a78c840d464736f6c634300081a0033",
					"opcodes": "PUSH1 0x80 PUSH1 0x40 MSTORE PUSH0 PUSH1 0x1 SSTORE CALLVALUE DUP1 ISZERO PUSH2 0x13 JUMPI PUSH0 DUP1 REVERT JUMPDEST POP PUSH1 0x40 MLOAD PUSH2 0x133F CODESIZE SUB DUP1 PUSH2 0x133F DUP4 CODECOPY DUP2 DUP2 ADD PUSH1 0x40 MSTORE DUP2 ADD SWAP1 PUSH2 0x35 SWAP2 SWAP1 PUSH2 0x1DB JUMP JUMPDEST DUP1 PUSH0 PUSH20 0xFFFFFFFFFFFFFFFFFFFFFFFFFFFFFFFFFFFFFFFF AND DUP2 PUSH20 0xFFFFFFFFFFFFFFFFFFFFFFFFFFFFFFFFFFFFFFFF AND SUB PUSH2 0xA6 JUMPI PUSH0 PUSH1 0x40 MLOAD PUSH32 0x1E4FBDF700000000000000000000000000000000000000000000000000000000 DUP2 MSTORE PUSH1 0x4 ADD PUSH2 0x9D SWAP2 SWAP1 PUSH2 0x215 JUMP JUMPDEST PUSH1 0x40 MLOAD DUP1 SWAP2 SUB SWAP1 REVERT JUMPDEST PUSH2 0xB5 DUP2 PUSH2 0xBC PUSH1 0x20 SHL PUSH1 0x20 SHR JUMP JUMPDEST POP POP PUSH2 0x22E JUMP JUMPDEST PUSH0 DUP1 PUSH0 SWAP1 SLOAD SWAP1 PUSH2 0x100 EXP SWAP1 DIV PUSH20 0xFFFFFFFFFFFFFFFFFFFFFFFFFFFFFFFFFFFFFFFF AND SWAP1 POP DUP2 PUSH0 DUP1 PUSH2 0x100 EXP DUP2 SLOAD DUP2 PUSH20 0xFFFFFFFFFFFFFFFFFFFFFFFFFFFFFFFFFFFFFFFF MUL NOT AND SWAP1 DUP4 PUSH20 0xFFFFFFFFFFFFFFFFFFFFFFFFFFFFFFFFFFFFFFFF AND MUL OR SWAP1 SSTORE POP DUP2 PUSH20 0xFFFFFFFFFFFFFFFFFFFFFFFFFFFFFFFFFFFFFFFF AND DUP2 PUSH20 0xFFFFFFFFFFFFFFFFFFFFFFFFFFFFFFFFFFFFFFFF AND PUSH32 0x8BE0079C531659141344CD1FD0A4F28419497F9722A3DAAFE3B4186F6B6457E0 PUSH1 0x40 MLOAD PUSH1 0x40 MLOAD DUP1 SWAP2 SUB SWAP1 LOG3 POP POP JUMP JUMPDEST PUSH0 DUP1 REVERT JUMPDEST PUSH0 PUSH20 0xFFFFFFFFFFFFFFFFFFFFFFFFFFFFFFFFFFFFFFFF DUP3 AND SWAP1 POP SWAP2 SWAP1 POP JUMP JUMPDEST PUSH0 PUSH2 0x1AA DUP3 PUSH2 0x181 JUMP JUMPDEST SWAP1 POP SWAP2 SWAP1 POP JUMP JUMPDEST PUSH2 0x1BA DUP2 PUSH2 0x1A0 JUMP JUMPDEST DUP2 EQ PUSH2 0x1C4 JUMPI PUSH0 DUP1 REVERT JUMPDEST POP JUMP JUMPDEST PUSH0 DUP2 MLOAD SWAP1 POP PUSH2 0x1D5 DUP2 PUSH2 0x1B1 JUMP JUMPDEST SWAP3 SWAP2 POP POP JUMP JUMPDEST PUSH0 PUSH1 0x20 DUP3 DUP5 SUB SLT ISZERO PUSH2 0x1F0 JUMPI PUSH2 0x1EF PUSH2 0x17D JUMP JUMPDEST JUMPDEST PUSH0 PUSH2 0x1FD DUP5 DUP3 DUP6 ADD PUSH2 0x1C7 JUMP JUMPDEST SWAP2 POP POP SWAP3 SWAP2 POP POP JUMP JUMPDEST PUSH2 0x20F DUP2 PUSH2 0x1A0 JUMP JUMPDEST DUP3 MSTORE POP POP JUMP JUMPDEST PUSH0 PUSH1 0x20 DUP3 ADD SWAP1 POP PUSH2 0x228 PUSH0 DUP4 ADD DUP5 PUSH2 0x206 JUMP JUMPDEST SWAP3 SWAP2 POP POP JUMP JUMPDEST PUSH2 0x1104 DUP1 PUSH2 0x23B PUSH0 CODECOPY PUSH0 RETURN INVALID PUSH1 0x80 PUSH1 0x40 MSTORE CALLVALUE DUP1 ISZERO PUSH2 0xF JUMPI PUSH0 DUP1 REVERT JUMPDEST POP PUSH1 0x4 CALLDATASIZE LT PUSH2 0x7B JUMPI PUSH0 CALLDATALOAD PUSH1 0xE0 SHR DUP1 PUSH4 0x36FBAD26 GT PUSH2 0x59 JUMPI DUP1 PUSH4 0x36FBAD26 EQ PUSH2 0xE9 JUMPI DUP1 PUSH4 0x715018A6 EQ PUSH2 0x107 JUMPI DUP1 PUSH4 0x8DA5CB5B EQ PUSH2 0x111 JUMPI DUP1 PUSH4 0xF2FDE38B EQ PUSH2 0x12F JUMPI PUSH2 0x7B JUMP JUMPDEST DUP1 PUSH4 0x107046BD EQ PUSH2 0x7F JUMPI DUP1 PUSH4 0x239ECF35 EQ PUSH2 0xB1 JUMPI DUP1 PUSH4 0x33B2DECC EQ PUSH2 0xCD JUMPI JUMPDEST PUSH0 DUP1 REVERT JUMPDEST PUSH2 0x99 PUSH1 0x4 DUP1 CALLDATASIZE SUB DUP2 ADD SWAP1 PUSH2 0x94 SWAP2 SWAP1 PUSH2 0x857 JUMP JUMPDEST PUSH2 0x14B JUMP JUMPDEST PUSH1 0x40 MLOAD PUSH2 0xA8 SWAP4 SWAP3 SWAP2 SWAP1 PUSH2 0x940 JUMP JUMPDEST PUSH1 0x40 MLOAD DUP1 SWAP2 SUB SWAP1 RETURN JUMPDEST PUSH2 0xCB PUSH1 0x4 DUP1 CALLDATASIZE SUB DUP2 ADD SWAP1 PUSH2 0xC6 SWAP2 SWAP1 PUSH2 0xAA8 JUMP JUMPDEST PUSH2 0x216 JUMP JUMPDEST STOP JUMPDEST PUSH2 0xE7 PUSH1 0x4 DUP1 CALLDATASIZE SUB DUP2 ADD SWAP1 PUSH2 0xE2 SWAP2 SWAP1 PUSH2 0xB19 JUMP JUMPDEST PUSH2 0x2A3 JUMP JUMPDEST STOP JUMPDEST PUSH2 0xF1 PUSH2 0x600 JUMP JUMPDEST PUSH1 0x40 MLOAD PUSH2 0xFE SWAP2 SWAP1 PUSH2 0xB69 JUMP JUMPDEST PUSH1 0x40 MLOAD DUP1 SWAP2 SUB SWAP1 RETURN JUMPDEST PUSH2 0x10F PUSH2 0x606 JUMP JUMPDEST STOP JUMPDEST PUSH2 0x119 PUSH2 0x619 JUMP JUMPDEST PUSH1 0x40 MLOAD PUSH2 0x126 SWAP2 SWAP1 PUSH2 0xB82 JUMP JUMPDEST PUSH1 0x40 MLOAD DUP1 SWAP2 SUB SWAP1 RETURN JUMPDEST PUSH2 0x149 PUSH1 0x4 DUP1 CALLDATASIZE SUB DUP2 ADD SWAP1 PUSH2 0x144 SWAP2 SWAP1 PUSH2 0xB9B JUMP JUMPDEST PUSH2 0x640 JUMP JUMPDEST STOP JUMPDEST PUSH1 0x2 PUSH1 0x20 MSTORE DUP1 PUSH0 MSTORE PUSH1 0x40 PUSH0 KECCAK256 PUSH0 SWAP2 POP SWAP1 POP DUP1 PUSH0 ADD DUP1 SLOAD PUSH2 0x16A SWAP1 PUSH2 0xBF3 JUMP JUMPDEST DUP1 PUSH1 0x1F ADD PUSH1 0x20 DUP1 SWAP2 DIV MUL PUSH1 0x20 ADD PUSH1 0x40 MLOAD SWAP1 DUP2 ADD PUSH1 0x40 MSTORE DUP1 SWAP3 SWAP2 SWAP1 DUP2 DUP2 MSTORE PUSH1 0x20 ADD DUP3 DUP1 SLOAD PUSH2 0x196 SWAP1 PUSH2 0xBF3 JUMP JUMPDEST DUP1 ISZERO PUSH2 0x1E1 JUMPI DUP1 PUSH1 0x1F LT PUSH2 0x1B8 JUMPI PUSH2 0x100 DUP1 DUP4 SLOAD DIV MUL DUP4 MSTORE SWAP2 PUSH1 0x20 ADD SWAP2 PUSH2 0x1E1 JUMP JUMPDEST DUP3 ADD SWAP2 SWAP1 PUSH0 MSTORE PUSH1 0x20 PUSH0 KECCAK256 SWAP1 JUMPDEST DUP2 SLOAD DUP2 MSTORE SWAP1 PUSH1 0x1 ADD SWAP1 PUSH1 0x20 ADD DUP1 DUP4 GT PUSH2 0x1C4 JUMPI DUP3 SWAP1 SUB PUSH1 0x1F AND DUP3 ADD SWAP2 JUMPDEST POP POP POP POP POP SWAP1 DUP1 PUSH1 0x1 ADD PUSH0 SWAP1 SLOAD SWAP1 PUSH2 0x100 EXP SWAP1 DIV PUSH20 0xFFFFFFFFFFFFFFFFFFFFFFFFFFFFFFFFFFFFFFFF AND SWAP1 DUP1 PUSH1 0x3 ADD SLOAD SWAP1 POP DUP4 JUMP JUMPDEST PUSH1 0x1 PUSH0 DUP2 SLOAD DUP1 SWAP3 SWAP2 SWAP1 PUSH2 0x228 SWAP1 PUSH2 0xC50 JUMP JUMPDEST SWAP2 SWAP1 POP SSTORE POP PUSH0 PUSH1 0x2 PUSH0 PUSH1 0x1 SLOAD DUP2 MSTORE PUSH1 0x20 ADD SWAP1 DUP2 MSTORE PUSH1 0x20 ADD PUSH0 KECCAK256 SWAP1 POP DUP2 DUP2 PUSH0 ADD SWAP1 DUP2 PUSH2 0x253 SWAP2 SWAP1 PUSH2 0xE34 JUMP JUMPDEST POP CALLER DUP2 PUSH1 0x1 ADD PUSH0 PUSH2 0x100 EXP DUP2 SLOAD DUP2 PUSH20 0xFFFFFFFFFFFFFFFFFFFFFFFFFFFFFFFFFFFFFFFF MUL NOT AND SWAP1 DUP4 PUSH20 0xFFFFFFFFFFFFFFFFFFFFFFFFFFFFFFFFFFFFFFFF AND MUL OR SWAP1 SSTORE POP PUSH0 DUP2 PUSH1 0x3 ADD DUP2 SWAP1 SSTORE POP POP POP JUMP JUMPDEST PUSH0 DUP2 GT PUSH2 0x2E5 JUMPI PUSH1 0x40 MLOAD PUSH32 0x8C379A000000000000000000000000000000000000000000000000000000000 DUP2 MSTORE PUSH1 0x4 ADD PUSH2 0x2DC SWAP1 PUSH2 0xF4D JUMP JUMPDEST PUSH1 0x40 MLOAD DUP1 SWAP2 SUB SWAP1 REVERT JUMPDEST DUP1 DUP3 PUSH20 0xFFFFFFFFFFFFFFFFFFFFFFFFFFFFFFFFFFFFFFFF AND PUSH4 0x70A08231 CALLER PUSH1 0x40 MLOAD DUP3 PUSH4 0xFFFFFFFF AND PUSH1 0xE0 SHL DUP2 MSTORE PUSH1 0x4 ADD PUSH2 0x31F SWAP2 SWAP1 PUSH2 0xB82 JUMP JUMPDEST PUSH1 0x20 PUSH1 0x40 MLOAD DUP1 DUP4 SUB DUP2 DUP7 GAS STATICCALL ISZERO DUP1 ISZERO PUSH2 0x33A JUMPI RETURNDATASIZE PUSH0 DUP1 RETURNDATACOPY RETURNDATASIZE PUSH0 REVERT JUMPDEST POP POP POP POP PUSH1 0x40 MLOAD RETURNDATASIZE PUSH1 0x1F NOT PUSH1 0x1F DUP3 ADD AND DUP3 ADD DUP1 PUSH1 0x40 MSTORE POP DUP2 ADD SWAP1 PUSH2 0x35E SWAP2 SWAP1 PUSH2 0xF7F JUMP JUMPDEST LT ISZERO PUSH2 0x39F JUMPI PUSH1 0x40 MLOAD PUSH32 0x8C379A000000000000000000000000000000000000000000000000000000000 DUP2 MSTORE PUSH1 0x4 ADD PUSH2 0x396 SWAP1 PUSH2 0xFF4 JUMP JUMPDEST PUSH1 0x40 MLOAD DUP1 SWAP2 SUB SWAP1 REVERT JUMPDEST DUP2 PUSH20 0xFFFFFFFFFFFFFFFFFFFFFFFFFFFFFFFFFFFFFFFF AND PUSH4 0x95EA7B3 ADDRESS DUP4 PUSH1 0x40 MLOAD DUP4 PUSH4 0xFFFFFFFF AND PUSH1 0xE0 SHL DUP2 MSTORE PUSH1 0x4 ADD PUSH2 0x3DA SWAP3 SWAP2 SWAP1 PUSH2 0x1012 JUMP JUMPDEST PUSH1 0x20 PUSH1 0x40 MLOAD DUP1 DUP4 SUB DUP2 PUSH0 DUP8 GAS CALL ISZERO DUP1 ISZERO PUSH2 0x3F6 JUMPI RETURNDATASIZE PUSH0 DUP1 RETURNDATACOPY RETURNDATASIZE PUSH0 REVERT JUMPDEST POP POP POP POP PUSH1 0x40 MLOAD RETURNDATASIZE PUSH1 0x1F NOT PUSH1 0x1F DUP3 ADD AND DUP3 ADD DUP1 PUSH1 0x40 MSTORE POP DUP2 ADD SWAP1 PUSH2 0x41A SWAP2 SWAP1 PUSH2 0x106E JUMP JUMPDEST PUSH2 0x422 JUMPI PUSH0 DUP1 REVERT JUMPDEST DUP2 PUSH20 0xFFFFFFFFFFFFFFFFFFFFFFFFFFFFFFFFFFFFFFFF AND PUSH4 0x23B872DD CALLER ADDRESS DUP5 PUSH1 0x40 MLOAD DUP5 PUSH4 0xFFFFFFFF AND PUSH1 0xE0 SHL DUP2 MSTORE PUSH1 0x4 ADD PUSH2 0x45F SWAP4 SWAP3 SWAP2 SWAP1 PUSH2 0x1099 JUMP JUMPDEST PUSH1 0x20 PUSH1 0x40 MLOAD DUP1 DUP4 SUB DUP2 PUSH0 DUP8 GAS CALL ISZERO DUP1 ISZERO PUSH2 0x47B JUMPI RETURNDATASIZE PUSH0 DUP1 RETURNDATACOPY RETURNDATASIZE PUSH0 REVERT JUMPDEST POP POP POP POP PUSH1 0x40 MLOAD RETURNDATASIZE PUSH1 0x1F NOT PUSH1 0x1F DUP3 ADD AND DUP3 ADD DUP1 PUSH1 0x40 MSTORE POP DUP2 ADD SWAP1 PUSH2 0x49F SWAP2 SWAP1 PUSH2 0x106E JUMP JUMPDEST POP PUSH0 PUSH1 0x2 PUSH0 DUP6 DUP2 MSTORE PUSH1 0x20 ADD SWAP1 DUP2 MSTORE PUSH1 0x20 ADD PUSH0 KECCAK256 SWAP1 POP CALLER DUP2 PUSH1 0x2 ADD PUSH0 CALLER PUSH20 0xFFFFFFFFFFFFFFFFFFFFFFFFFFFFFFFFFFFFFFFF AND PUSH20 0xFFFFFFFFFFFFFFFFFFFFFFFFFFFFFFFFFFFFFFFF AND DUP2 MSTORE PUSH1 0x20 ADD SWAP1 DUP2 MSTORE PUSH1 0x20 ADD PUSH0 KECCAK256 PUSH0 ADD PUSH0 PUSH2 0x100 EXP DUP2 SLOAD DUP2 PUSH20 0xFFFFFFFFFFFFFFFFFFFFFFFFFFFFFFFFFFFFFFFF MUL NOT AND SWAP1 DUP4 PUSH20 0xFFFFFFFFFFFFFFFFFFFFFFFFFFFFFFFFFFFFFFFF AND MUL OR SWAP1 SSTORE POP DUP3 DUP2 PUSH1 0x2 ADD PUSH0 CALLER PUSH20 0xFFFFFFFFFFFFFFFFFFFFFFFFFFFFFFFFFFFFFFFF AND PUSH20 0xFFFFFFFFFFFFFFFFFFFFFFFFFFFFFFFFFFFFFFFF AND DUP2 MSTORE PUSH1 0x20 ADD SWAP1 DUP2 MSTORE PUSH1 0x20 ADD PUSH0 KECCAK256 PUSH1 0x1 ADD PUSH0 PUSH2 0x100 EXP DUP2 SLOAD DUP2 PUSH20 0xFFFFFFFFFFFFFFFFFFFFFFFFFFFFFFFFFFFFFFFF MUL NOT AND SWAP1 DUP4 PUSH20 0xFFFFFFFFFFFFFFFFFFFFFFFFFFFFFFFFFFFFFFFF AND MUL OR SWAP1 SSTORE POP DUP2 DUP2 PUSH1 0x2 ADD PUSH0 CALLER PUSH20 0xFFFFFFFFFFFFFFFFFFFFFFFFFFFFFFFFFFFFFFFF AND PUSH20 0xFFFFFFFFFFFFFFFFFFFFFFFFFFFFFFFFFFFFFFFF AND DUP2 MSTORE PUSH1 0x20 ADD SWAP1 DUP2 MSTORE PUSH1 0x20 ADD PUSH0 KECCAK256 PUSH1 0x2 ADD DUP2 SWAP1 SSTORE POP POP POP POP POP JUMP JUMPDEST PUSH1 0x1 SLOAD DUP2 JUMP JUMPDEST PUSH2 0x60E PUSH2 0x6C4 JUMP JUMPDEST PUSH2 0x617 PUSH0 PUSH2 0x74B JUMP JUMPDEST JUMP JUMPDEST PUSH0 DUP1 PUSH0 SWAP1 SLOAD SWAP1 PUSH2 0x100 EXP SWAP1 DIV PUSH20 0xFFFFFFFFFFFFFFFFFFFFFFFFFFFFFFFFFFFFFFFF AND SWAP1 POP SWAP1 JUMP JUMPDEST PUSH2 0x648 PUSH2 0x6C4 JUMP JUMPDEST PUSH0 PUSH20 0xFFFFFFFFFFFFFFFFFFFFFFFFFFFFFFFFFFFFFFFF AND DUP2 PUSH20 0xFFFFFFFFFFFFFFFFFFFFFFFFFFFFFFFFFFFFFFFF AND SUB PUSH2 0x6B8 JUMPI PUSH0 PUSH1 0x40 MLOAD PUSH32 0x1E4FBDF700000000000000000000000000000000000000000000000000000000 DUP2 MSTORE PUSH1 0x4 ADD PUSH2 0x6AF SWAP2 SWAP1 PUSH2 0xB82 JUMP JUMPDEST PUSH1 0x40 MLOAD DUP1 SWAP2 SUB SWAP1 REVERT JUMPDEST PUSH2 0x6C1 DUP2 PUSH2 0x74B JUMP JUMPDEST POP JUMP JUMPDEST PUSH2 0x6CC PUSH2 0x80C JUMP JUMPDEST PUSH20 0xFFFFFFFFFFFFFFFFFFFFFFFFFFFFFFFFFFFFFFFF AND PUSH2 0x6EA PUSH2 0x619 JUMP JUMPDEST PUSH20 0xFFFFFFFFFFFFFFFFFFFFFFFFFFFFFFFFFFFFFFFF AND EQ PUSH2 0x749 JUMPI PUSH2 0x70D PUSH2 0x80C JUMP JUMPDEST PUSH1 0x40 MLOAD PUSH32 0x118CDAA700000000000000000000000000000000000000000000000000000000 DUP2 MSTORE PUSH1 0x4 ADD PUSH2 0x740 SWAP2 SWAP1 PUSH2 0xB82 JUMP JUMPDEST PUSH1 0x40 MLOAD DUP1 SWAP2 SUB SWAP1 REVERT JUMPDEST JUMP JUMPDEST PUSH0 DUP1 PUSH0 SWAP1 SLOAD SWAP1 PUSH2 0x100 EXP SWAP1 DIV PUSH20 0xFFFFFFFFFFFFFFFFFFFFFFFFFFFFFFFFFFFFFFFF AND SWAP1 POP DUP2 PUSH0 DUP1 PUSH2 0x100 EXP DUP2 SLOAD DUP2 PUSH20 0xFFFFFFFFFFFFFFFFFFFFFFFFFFFFFFFFFFFFFFFF MUL NOT AND SWAP1 DUP4 PUSH20 0xFFFFFFFFFFFFFFFFFFFFFFFFFFFFFFFFFFFFFFFF AND MUL OR SWAP1 SSTORE POP DUP2 PUSH20 0xFFFFFFFFFFFFFFFFFFFFFFFFFFFFFFFFFFFFFFFF AND DUP2 PUSH20 0xFFFFFFFFFFFFFFFFFFFFFFFFFFFFFFFFFFFFFFFF AND PUSH32 0x8BE0079C531659141344CD1FD0A4F28419497F9722A3DAAFE3B4186F6B6457E0 PUSH1 0x40 MLOAD PUSH1 0x40 MLOAD DUP1 SWAP2 SUB SWAP1 LOG3 POP POP JUMP JUMPDEST PUSH0 CALLER SWAP1 POP SWAP1 JUMP JUMPDEST PUSH0 PUSH1 0x40 MLOAD SWAP1 POP SWAP1 JUMP JUMPDEST PUSH0 DUP1 REVERT JUMPDEST PUSH0 DUP1 REVERT JUMPDEST PUSH0 DUP2 SWAP1 POP SWAP2 SWAP1 POP JUMP JUMPDEST PUSH2 0x836 DUP2 PUSH2 0x824 JUMP JUMPDEST DUP2 EQ PUSH2 0x840 JUMPI PUSH0 DUP1 REVERT JUMPDEST POP JUMP JUMPDEST PUSH0 DUP2 CALLDATALOAD SWAP1 POP PUSH2 0x851 DUP2 PUSH2 0x82D JUMP JUMPDEST SWAP3 SWAP2 POP POP JUMP JUMPDEST PUSH0 PUSH1 0x20 DUP3 DUP5 SUB SLT ISZERO PUSH2 0x86C JUMPI PUSH2 0x86B PUSH2 0x81C JUMP JUMPDEST JUMPDEST PUSH0 PUSH2 0x879 DUP5 DUP3 DUP6 ADD PUSH2 0x843 JUMP JUMPDEST SWAP2 POP POP SWAP3 SWAP2 POP POP JUMP JUMPDEST PUSH0 DUP2 MLOAD SWAP1 POP SWAP2 SWAP1 POP JUMP JUMPDEST PUSH0 DUP3 DUP3 MSTORE PUSH1 0x20 DUP3 ADD SWAP1 POP SWAP3 SWAP2 POP POP JUMP JUMPDEST DUP3 DUP2 DUP4 MCOPY PUSH0 DUP4 DUP4 ADD MSTORE POP POP POP JUMP JUMPDEST PUSH0 PUSH1 0x1F NOT PUSH1 0x1F DUP4 ADD AND SWAP1 POP SWAP2 SWAP1 POP JUMP JUMPDEST PUSH0 PUSH2 0x8C4 DUP3 PUSH2 0x882 JUMP JUMPDEST PUSH2 0x8CE DUP2 DUP6 PUSH2 0x88C JUMP JUMPDEST SWAP4 POP PUSH2 0x8DE DUP2 DUP6 PUSH1 0x20 DUP7 ADD PUSH2 0x89C JUMP JUMPDEST PUSH2 0x8E7 DUP2 PUSH2 0x8AA JUMP JUMPDEST DUP5 ADD SWAP2 POP POP SWAP3 SWAP2 POP POP JUMP JUMPDEST PUSH0 PUSH20 0xFFFFFFFFFFFFFFFFFFFFFFFFFFFFFFFFFFFFFFFF DUP3 AND SWAP1 POP SWAP2 SWAP1 POP JUMP JUMPDEST PUSH0 PUSH2 0x91B DUP3 PUSH2 0x8F2 JUMP JUMPDEST SWAP1 POP SWAP2 SWAP1 POP JUMP JUMPDEST PUSH2 0x92B DUP2 PUSH2 0x911 JUMP JUMPDEST DUP3 MSTORE POP POP JUMP JUMPDEST PUSH2 0x93A DUP2 PUSH2 0x824 JUMP JUMPDEST DUP3 MSTORE POP POP JUMP JUMPDEST PUSH0 PUSH1 0x60 DUP3 ADD SWAP1 POP DUP2 DUP2 SUB PUSH0 DUP4 ADD MSTORE PUSH2 0x958 DUP2 DUP7 PUSH2 0x8BA JUMP JUMPDEST SWAP1 POP PUSH2 0x967 PUSH1 0x20 DUP4 ADD DUP6 PUSH2 0x922 JUMP JUMPDEST PUSH2 0x974 PUSH1 0x40 DUP4 ADD DUP5 PUSH2 0x931 JUMP JUMPDEST SWAP5 SWAP4 POP POP POP POP JUMP JUMPDEST PUSH0 DUP1 REVERT JUMPDEST PUSH0 DUP1 REVERT JUMPDEST PUSH32 0x4E487B7100000000000000000000000000000000000000000000000000000000 PUSH0 MSTORE PUSH1 0x41 PUSH1 0x4 MSTORE PUSH1 0x24 PUSH0 REVERT JUMPDEST PUSH2 0x9BA DUP3 PUSH2 0x8AA JUMP JUMPDEST DUP2 ADD DUP2 DUP2 LT PUSH8 0xFFFFFFFFFFFFFFFF DUP3 GT OR ISZERO PUSH2 0x9D9 JUMPI PUSH2 0x9D8 PUSH2 0x984 JUMP JUMPDEST JUMPDEST DUP1 PUSH1 0x40 MSTORE POP POP POP JUMP JUMPDEST PUSH0 PUSH2 0x9EB PUSH2 0x813 JUMP JUMPDEST SWAP1 POP PUSH2 0x9F7 DUP3 DUP3 PUSH2 0x9B1 JUMP JUMPDEST SWAP2 SWAP1 POP JUMP JUMPDEST PUSH0 PUSH8 0xFFFFFFFFFFFFFFFF DUP3 GT ISZERO PUSH2 0xA16 JUMPI PUSH2 0xA15 PUSH2 0x984 JUMP JUMPDEST JUMPDEST PUSH2 0xA1F DUP3 PUSH2 0x8AA JUMP JUMPDEST SWAP1 POP PUSH1 0x20 DUP2 ADD SWAP1 POP SWAP2 SWAP1 POP JUMP JUMPDEST DUP3 DUP2 DUP4 CALLDATACOPY PUSH0 DUP4 DUP4 ADD MSTORE POP POP POP JUMP JUMPDEST PUSH0 PUSH2 0xA4C PUSH2 0xA47 DUP5 PUSH2 0x9FC JUMP JUMPDEST PUSH2 0x9E2 JUMP JUMPDEST SWAP1 POP DUP3 DUP2 MSTORE PUSH1 0x20 DUP2 ADD DUP5 DUP5 DUP5 ADD GT ISZERO PUSH2 0xA68 JUMPI PUSH2 0xA67 PUSH2 0x980 JUMP JUMPDEST JUMPDEST PUSH2 0xA73 DUP5 DUP3 DUP6 PUSH2 0xA2C JUMP JUMPDEST POP SWAP4 SWAP3 POP POP POP JUMP JUMPDEST PUSH0 DUP3 PUSH1 0x1F DUP4 ADD SLT PUSH2 0xA8F JUMPI PUSH2 0xA8E PUSH2 0x97C JUMP JUMPDEST JUMPDEST DUP2 CALLDATALOAD PUSH2 0xA9F DUP5 DUP3 PUSH1 0x20 DUP7 ADD PUSH2 0xA3A JUMP JUMPDEST SWAP2 POP POP SWAP3 SWAP2 POP POP JUMP JUMPDEST PUSH0 PUSH1 0x20 DUP3 DUP5 SUB SLT ISZERO PUSH2 0xABD JUMPI PUSH2 0xABC PUSH2 0x81C JUMP JUMPDEST JUMPDEST PUSH0 DUP3 ADD CALLDATALOAD PUSH8 0xFFFFFFFFFFFFFFFF DUP2 GT ISZERO PUSH2 0xADA JUMPI PUSH2 0xAD9 PUSH2 0x820 JUMP JUMPDEST JUMPDEST PUSH2 0xAE6 DUP5 DUP3 DUP6 ADD PUSH2 0xA7B JUMP JUMPDEST SWAP2 POP POP SWAP3 SWAP2 POP POP JUMP JUMPDEST PUSH2 0xAF8 DUP2 PUSH2 0x911 JUMP JUMPDEST DUP2 EQ PUSH2 0xB02 JUMPI PUSH0 DUP1 REVERT JUMPDEST POP JUMP JUMPDEST PUSH0 DUP2 CALLDATALOAD SWAP1 POP PUSH2 0xB13 DUP2 PUSH2 0xAEF JUMP JUMPDEST SWAP3 SWAP2 POP POP JUMP JUMPDEST PUSH0 DUP1 PUSH0 PUSH1 0x60 DUP5 DUP7 SUB SLT ISZERO PUSH2 0xB30 JUMPI PUSH2 0xB2F PUSH2 0x81C JUMP JUMPDEST JUMPDEST PUSH0 PUSH2 0xB3D DUP7 DUP3 DUP8 ADD PUSH2 0x843 JUMP JUMPDEST SWAP4 POP POP PUSH1 0x20 PUSH2 0xB4E DUP7 DUP3 DUP8 ADD PUSH2 0xB05 JUMP JUMPDEST SWAP3 POP POP PUSH1 0x40 PUSH2 0xB5F DUP7 DUP3 DUP8 ADD PUSH2 0x843 JUMP JUMPDEST SWAP2 POP POP SWAP3 POP SWAP3 POP SWAP3 JUMP JUMPDEST PUSH0 PUSH1 0x20 DUP3 ADD SWAP1 POP PUSH2 0xB7C PUSH0 DUP4 ADD DUP5 PUSH2 0x931 JUMP JUMPDEST SWAP3 SWAP2 POP POP JUMP JUMPDEST PUSH0 PUSH1 0x20 DUP3 ADD SWAP1 POP PUSH2 0xB95 PUSH0 DUP4 ADD DUP5 PUSH2 0x922 JUMP JUMPDEST SWAP3 SWAP2 POP POP JUMP JUMPDEST PUSH0 PUSH1 0x20 DUP3 DUP5 SUB SLT ISZERO PUSH2 0xBB0 JUMPI PUSH2 0xBAF PUSH2 0x81C JUMP JUMPDEST JUMPDEST PUSH0 PUSH2 0xBBD DUP5 DUP3 DUP6 ADD PUSH2 0xB05 JUMP JUMPDEST SWAP2 POP POP SWAP3 SWAP2 POP POP JUMP JUMPDEST PUSH32 0x4E487B7100000000000000000000000000000000000000000000000000000000 PUSH0 MSTORE PUSH1 0x22 PUSH1 0x4 MSTORE PUSH1 0x24 PUSH0 REVERT JUMPDEST PUSH0 PUSH1 0x2 DUP3 DIV SWAP1 POP PUSH1 0x1 DUP3 AND DUP1 PUSH2 0xC0A JUMPI PUSH1 0x7F DUP3 AND SWAP2 POP JUMPDEST PUSH1 0x20 DUP3 LT DUP2 SUB PUSH2 0xC1D JUMPI PUSH2 0xC1C PUSH2 0xBC6 JUMP JUMPDEST JUMPDEST POP SWAP2 SWAP1 POP JUMP JUMPDEST PUSH32 0x4E487B7100000000000000000000000000000000000000000000000000000000 PUSH0 MSTORE PUSH1 0x11 PUSH1 0x4 MSTORE PUSH1 0x24 PUSH0 REVERT JUMPDEST PUSH0 PUSH2 0xC5A DUP3 PUSH2 0x824 JUMP JUMPDEST SWAP2 POP PUSH32 0xFFFFFFFFFFFFFFFFFFFFFFFFFFFFFFFFFFFFFFFFFFFFFFFFFFFFFFFFFFFFFFFF DUP3 SUB PUSH2 0xC8C JUMPI PUSH2 0xC8B PUSH2 0xC23 JUMP JUMPDEST JUMPDEST PUSH1 0x1 DUP3 ADD SWAP1 POP SWAP2 SWAP1 POP JUMP JUMPDEST PUSH0 DUP2 SWAP1 POP DUP2 PUSH0 MSTORE PUSH1 0x20 PUSH0 KECCAK256 SWAP1 POP SWAP2 SWAP1 POP JUMP JUMPDEST PUSH0 PUSH1 0x20 PUSH1 0x1F DUP4 ADD DIV SWAP1 POP SWAP2 SWAP1 POP JUMP JUMPDEST PUSH0 DUP3 DUP3 SHL SWAP1 POP SWAP3 SWAP2 POP POP JUMP JUMPDEST PUSH0 PUSH1 0x8 DUP4 MUL PUSH2 0xCF3 PUSH32 0xFFFFFFFFFFFFFFFFFFFFFFFFFFFFFFFFFFFFFFFFFFFFFFFFFFFFFFFFFFFFFFFF DUP3 PUSH2 0xCB8 JUMP JUMPDEST PUSH2 0xCFD DUP7 DUP4 PUSH2 0xCB8 JUMP JUMPDEST SWAP6 POP DUP1 NOT DUP5 AND SWAP4 POP DUP1 DUP7 AND DUP5 OR SWAP3 POP POP POP SWAP4 SWAP3 POP POP POP JUMP JUMPDEST PUSH0 DUP2 SWAP1 POP SWAP2 SWAP1 POP JUMP JUMPDEST PUSH0 PUSH2 0xD38 PUSH2 0xD33 PUSH2 0xD2E DUP5 PUSH2 0x824 JUMP JUMPDEST PUSH2 0xD15 JUMP JUMPDEST PUSH2 0x824 JUMP JUMPDEST SWAP1 POP SWAP2 SWAP1 POP JUMP JUMPDEST PUSH0 DUP2 SWAP1 POP SWAP2 SWAP1 POP JUMP JUMPDEST PUSH2 0xD51 DUP4 PUSH2 0xD1E JUMP JUMPDEST PUSH2 0xD65 PUSH2 0xD5D DUP3 PUSH2 0xD3F JUMP JUMPDEST DUP5 DUP5 SLOAD PUSH2 0xCC4 JUMP JUMPDEST DUP3 SSTORE POP POP POP POP JUMP JUMPDEST PUSH0 SWAP1 JUMP JUMPDEST PUSH2 0xD79 PUSH2 0xD6D JUMP JUMPDEST PUSH2 0xD84 DUP2 DUP5 DUP5 PUSH2 0xD48 JUMP JUMPDEST POP POP POP JUMP JUMPDEST JUMPDEST DUP2 DUP2 LT ISZERO PUSH2 0xDA7 JUMPI PUSH2 0xD9C PUSH0 DUP3 PUSH2 0xD71 JUMP JUMPDEST PUSH1 0x1 DUP2 ADD SWAP1 POP PUSH2 0xD8A JUMP JUMPDEST POP POP JUMP JUMPDEST PUSH1 0x1F DUP3 GT ISZERO PUSH2 0xDEC JUMPI PUSH2 0xDBD DUP2 PUSH2 0xC97 JUMP JUMPDEST PUSH2 0xDC6 DUP5 PUSH2 0xCA9 JUMP JUMPDEST DUP2 ADD PUSH1 0x20 DUP6 LT ISZERO PUSH2 0xDD5 JUMPI DUP2 SWAP1 POP JUMPDEST PUSH2 0xDE9 PUSH2 0xDE1 DUP6 PUSH2 0xCA9 JUMP JUMPDEST DUP4 ADD DUP3 PUSH2 0xD89 JUMP JUMPDEST POP POP JUMPDEST POP POP POP JUMP JUMPDEST PUSH0 DUP3 DUP3 SHR SWAP1 POP SWAP3 SWAP2 POP POP JUMP JUMPDEST PUSH0 PUSH2 0xE0C PUSH0 NOT DUP5 PUSH1 0x8 MUL PUSH2 0xDF1 JUMP JUMPDEST NOT DUP1 DUP4 AND SWAP2 POP POP SWAP3 SWAP2 POP POP JUMP JUMPDEST PUSH0 PUSH2 0xE24 DUP4 DUP4 PUSH2 0xDFD JUMP JUMPDEST SWAP2 POP DUP3 PUSH1 0x2 MUL DUP3 OR SWAP1 POP SWAP3 SWAP2 POP POP JUMP JUMPDEST PUSH2 0xE3D DUP3 PUSH2 0x882 JUMP JUMPDEST PUSH8 0xFFFFFFFFFFFFFFFF DUP2 GT ISZERO PUSH2 0xE56 JUMPI PUSH2 0xE55 PUSH2 0x984 JUMP JUMPDEST JUMPDEST PUSH2 0xE60 DUP3 SLOAD PUSH2 0xBF3 JUMP JUMPDEST PUSH2 0xE6B DUP3 DUP3 DUP6 PUSH2 0xDAB JUMP JUMPDEST PUSH0 PUSH1 0x20 SWAP1 POP PUSH1 0x1F DUP4 GT PUSH1 0x1 DUP2 EQ PUSH2 0xE9C JUMPI PUSH0 DUP5 ISZERO PUSH2 0xE8A JUMPI DUP3 DUP8 ADD MLOAD SWAP1 POP JUMPDEST PUSH2 0xE94 DUP6 DUP3 PUSH2 0xE19 JUMP JUMPDEST DUP7 SSTORE POP PUSH2 0xEFB JUMP JUMPDEST PUSH1 0x1F NOT DUP5 AND PUSH2 0xEAA DUP7 PUSH2 0xC97 JUMP JUMPDEST PUSH0 JUMPDEST DUP3 DUP2 LT ISZERO PUSH2 0xED1 JUMPI DUP5 DUP10 ADD MLOAD DUP3 SSTORE PUSH1 0x1 DUP3 ADD SWAP2 POP PUSH1 0x20 DUP6 ADD SWAP5 POP PUSH1 0x20 DUP2 ADD SWAP1 POP PUSH2 0xEAC JUMP JUMPDEST DUP7 DUP4 LT ISZERO PUSH2 0xEEE JUMPI DUP5 DUP10 ADD MLOAD PUSH2 0xEEA PUSH1 0x1F DUP10 AND DUP3 PUSH2 0xDFD JUMP JUMPDEST DUP4 SSTORE POP JUMPDEST PUSH1 0x1 PUSH1 0x2 DUP9 MUL ADD DUP9 SSTORE POP POP POP JUMPDEST POP POP POP POP POP POP JUMP JUMPDEST PUSH32 0x416D6F756E74206D7573742062652067726561746572207468616E2030000000 PUSH0 DUP3 ADD MSTORE POP JUMP JUMPDEST PUSH0 PUSH2 0xF37 PUSH1 0x1D DUP4 PUSH2 0x88C JUMP JUMPDEST SWAP2 POP PUSH2 0xF42 DUP3 PUSH2 0xF03 JUMP JUMPDEST PUSH1 0x20 DUP3 ADD SWAP1 POP SWAP2 SWAP1 POP JUMP JUMPDEST PUSH0 PUSH1 0x20 DUP3 ADD SWAP1 POP DUP2 DUP2 SUB PUSH0 DUP4 ADD MSTORE PUSH2 0xF64 DUP2 PUSH2 0xF2B JUMP JUMPDEST SWAP1 POP SWAP2 SWAP1 POP JUMP JUMPDEST PUSH0 DUP2 MLOAD SWAP1 POP PUSH2 0xF79 DUP2 PUSH2 0x82D JUMP JUMPDEST SWAP3 SWAP2 POP POP JUMP JUMPDEST PUSH0 PUSH1 0x20 DUP3 DUP5 SUB SLT ISZERO PUSH2 0xF94 JUMPI PUSH2 0xF93 PUSH2 0x81C JUMP JUMPDEST JUMPDEST PUSH0 PUSH2 0xFA1 DUP5 DUP3 DUP6 ADD PUSH2 0xF6B JUMP JUMPDEST SWAP2 POP POP SWAP3 SWAP2 POP POP JUMP JUMPDEST PUSH32 0x496E73756666696369656E7420746F6B656E2062616C616E6365000000000000 PUSH0 DUP3 ADD MSTORE POP JUMP JUMPDEST PUSH0 PUSH2 0xFDE PUSH1 0x1A DUP4 PUSH2 0x88C JUMP JUMPDEST SWAP2 POP PUSH2 0xFE9 DUP3 PUSH2 0xFAA JUMP JUMPDEST PUSH1 0x20 DUP3 ADD SWAP1 POP SWAP2 SWAP1 POP JUMP JUMPDEST PUSH0 PUSH1 0x20 DUP3 ADD SWAP1 POP DUP2 DUP2 SUB PUSH0 DUP4 ADD MSTORE PUSH2 0x100B DUP2 PUSH2 0xFD2 JUMP JUMPDEST SWAP1 POP SWAP2 SWAP1 POP JUMP JUMPDEST PUSH0 PUSH1 0x40 DUP3 ADD SWAP1 POP PUSH2 0x1025 PUSH0 DUP4 ADD DUP6 PUSH2 0x922 JUMP JUMPDEST PUSH2 0x1032 PUSH1 0x20 DUP4 ADD DUP5 PUSH2 0x931 JUMP JUMPDEST SWAP4 SWAP3 POP POP POP JUMP JUMPDEST PUSH0 DUP2 ISZERO ISZERO SWAP1 POP SWAP2 SWAP1 POP JUMP JUMPDEST PUSH2 0x104D DUP2 PUSH2 0x1039 JUMP JUMPDEST DUP2 EQ PUSH2 0x1057 JUMPI PUSH0 DUP1 REVERT JUMPDEST POP JUMP JUMPDEST PUSH0 DUP2 MLOAD SWAP1 POP PUSH2 0x1068 DUP2 PUSH2 0x1044 JUMP JUMPDEST SWAP3 SWAP2 POP POP JUMP JUMPDEST PUSH0 PUSH1 0x20 DUP3 DUP5 SUB SLT ISZERO PUSH2 0x1083 JUMPI PUSH2 0x1082 PUSH2 0x81C JUMP JUMPDEST JUMPDEST PUSH0 PUSH2 0x1090 DUP5 DUP3 DUP6 ADD PUSH2 0x105A JUMP JUMPDEST SWAP2 POP POP SWAP3 SWAP2 POP POP JUMP JUMPDEST PUSH0 PUSH1 0x60 DUP3 ADD SWAP1 POP PUSH2 0x10AC PUSH0 DUP4 ADD DUP7 PUSH2 0x922 JUMP JUMPDEST PUSH2 0x10B9 PUSH1 0x20 DUP4 ADD DUP6 PUSH2 0x922 JUMP JUMPDEST PUSH2 0x10C6 PUSH1 0x40 DUP4 ADD DUP5 PUSH2 0x931 JUMP JUMPDEST SWAP5 SWAP4 POP POP POP POP JUMP INVALID LOG2 PUSH5 0x6970667358 0x22 SLT KECCAK256 ADDRESS 0x4D 0xAD PUSH22 0xAD30CEFAEA6BC633588CE2A4D246F11B254218B94DAA SWAP11 GASPRICE PUSH25 0xC840D464736F6C634300081A00330000000000000000000000 "
				},
				"gasEstimates": {
					"creation": {
						"codeDepositCost": "871200",
						"executionCost": "infinite",
						"totalCost": "infinite"
					},
					"external": {
						"incentiviseProject(uint256,address,uint256)": "infinite",
						"initializeProject(string)": "infinite",
						"owner()": "2559",
						"projectCount()": "2425",
						"projects(uint256)": "infinite",
						"renounceOwnership()": "infinite",
						"transferOwnership(address)": "infinite"
					}
				},
				"methodIdentifiers": {
					"incentiviseProject(uint256,address,uint256)": "33b2decc",
					"initializeProject(string)": "239ecf35",
					"owner()": "8da5cb5b",
					"projectCount()": "36fbad26",
					"projects(uint256)": "107046bd",
					"renounceOwnership()": "715018a6",
					"transferOwnership(address)": "f2fde38b"
				}
			},
			"storageLayout": {
				"storage": [
					{
						"astId": 8,
						"contract": "DiscoCats.sol:DiscoCats",
						"label": "_owner",
						"offset": 0,
						"slot": "0",
						"type": "t_address"
					},
					{
						"astId": 265,
						"contract": "DiscoCats.sol:DiscoCats",
						"label": "projectCount",
						"offset": 0,
						"slot": "1",
						"type": "t_uint256"
					},
					{
						"astId": 289,
						"contract": "DiscoCats.sol:DiscoCats",
						"label": "projects",
						"offset": 0,
						"slot": "2",
						"type": "t_mapping(t_uint256,t_struct(Project)284_storage)"
					}
				],
				"types": {
					"t_address": {
						"encoding": "inplace",
						"label": "address",
						"numberOfBytes": "20"
					},
					"t_mapping(t_address,t_struct(Briber)272_storage)": {
						"encoding": "mapping",
						"key": "t_address",
						"label": "mapping(address => struct DiscoCats.Briber)",
						"numberOfBytes": "32",
						"value": "t_struct(Briber)272_storage"
					},
					"t_mapping(t_uint256,t_struct(Project)284_storage)": {
						"encoding": "mapping",
						"key": "t_uint256",
						"label": "mapping(uint256 => struct DiscoCats.Project)",
						"numberOfBytes": "32",
						"value": "t_struct(Project)284_storage"
					},
					"t_string_storage": {
						"encoding": "bytes",
						"label": "string",
						"numberOfBytes": "32"
					},
					"t_struct(Briber)272_storage": {
						"encoding": "inplace",
						"label": "struct DiscoCats.Briber",
						"members": [
							{
								"astId": 267,
								"contract": "DiscoCats.sol:DiscoCats",
								"label": "briberAddress",
								"offset": 0,
								"slot": "0",
								"type": "t_address"
							},
							{
								"astId": 269,
								"contract": "DiscoCats.sol:DiscoCats",
								"label": "tokenAddress",
								"offset": 0,
								"slot": "1",
								"type": "t_address"
							},
							{
								"astId": 271,
								"contract": "DiscoCats.sol:DiscoCats",
								"label": "tokenAmnt",
								"offset": 0,
								"slot": "2",
								"type": "t_uint256"
							}
						],
						"numberOfBytes": "96"
					},
					"t_struct(Project)284_storage": {
						"encoding": "inplace",
						"label": "struct DiscoCats.Project",
						"members": [
							{
								"astId": 274,
								"contract": "DiscoCats.sol:DiscoCats",
								"label": "name",
								"offset": 0,
								"slot": "0",
								"type": "t_string_storage"
							},
							{
								"astId": 276,
								"contract": "DiscoCats.sol:DiscoCats",
								"label": "projectOwner",
								"offset": 0,
								"slot": "1",
								"type": "t_address"
							},
							{
								"astId": 281,
								"contract": "DiscoCats.sol:DiscoCats",
								"label": "bribers",
								"offset": 0,
								"slot": "2",
								"type": "t_mapping(t_address,t_struct(Briber)272_storage)"
							},
							{
								"astId": 283,
								"contract": "DiscoCats.sol:DiscoCats",
								"label": "votes",
								"offset": 0,
								"slot": "3",
								"type": "t_uint256"
							}
						],
						"numberOfBytes": "128"
					},
					"t_uint256": {
						"encoding": "inplace",
						"label": "uint256",
						"numberOfBytes": "32"
					}
				}
			},
			"userdoc": {
				"kind": "user",
				"methods": {},
				"version": 1
			}
		}
	}
}