{
	"DiscoCats.sol": {
		"DiscoCats": {
			"abi": [
				{
					"inputs": [
						{
							"internalType": "address",
							"name": "initialOwner",
							"type": "address"
						},
						{
							"internalType": "uint256",
							"name": "_incentivizingPeriod",
							"type": "uint256"
						},
						{
							"internalType": "uint256",
							"name": "_votingPeriod",
							"type": "uint256"
						}
					],
					"stateMutability": "nonpayable",
					"type": "constructor"
				},
				{
					"inputs": [
						{
							"internalType": "address",
							"name": "owner",
							"type": "address"
						}
					],
					"name": "OwnableInvalidOwner",
					"type": "error"
				},
				{
					"inputs": [
						{
							"internalType": "address",
							"name": "account",
							"type": "address"
						}
					],
					"name": "OwnableUnauthorizedAccount",
					"type": "error"
				},
				{
					"anonymous": false,
					"inputs": [
						{
							"indexed": true,
							"internalType": "address",
							"name": "previousOwner",
							"type": "address"
						},
						{
							"indexed": true,
							"internalType": "address",
							"name": "newOwner",
							"type": "address"
						}
					],
					"name": "OwnershipTransferred",
					"type": "event"
				},
				{
					"inputs": [
						{
							"internalType": "uint256",
							"name": "_projectId",
							"type": "uint256"
						}
					],
					"name": "briberInfo",
					"outputs": [
						{
							"components": [
								{
									"internalType": "address",
									"name": "briberAddress",
									"type": "address"
								},
								{
									"internalType": "address",
									"name": "tokenAddress",
									"type": "address"
								},
								{
									"internalType": "uint256",
									"name": "tokenAmnt",
									"type": "uint256"
								}
							],
							"internalType": "struct DiscoCats.Briber[]",
							"name": "_bribers",
							"type": "tuple[]"
						},
						{
							"components": [
								{
									"internalType": "address",
									"name": "briberAddress",
									"type": "address"
								},
								{
									"internalType": "uint256",
									"name": "tokenAmnt",
									"type": "uint256"
								}
							],
							"internalType": "struct DiscoCats.NativeBriber[]",
							"name": "_nativebribers",
							"type": "tuple[]"
						}
					],
					"stateMutability": "view",
					"type": "function"
				},
				{
					"inputs": [
						{
							"internalType": "uint256",
							"name": "_projectId",
							"type": "uint256"
						},
						{
							"internalType": "address",
							"name": "_tokenAddress",
							"type": "address"
						}
					],
					"name": "briberTokenInfo",
					"outputs": [
						{
							"internalType": "uint256",
							"name": "number",
							"type": "uint256"
						}
					],
					"stateMutability": "view",
					"type": "function"
				},
				{
					"inputs": [
						{
							"internalType": "uint256",
							"name": "_stateNumber",
							"type": "uint256"
						}
					],
					"name": "changeState",
					"outputs": [],
					"stateMutability": "nonpayable",
					"type": "function"
				},
				{
					"inputs": [
						{
							"internalType": "uint256",
							"name": "_id",
							"type": "uint256"
						}
					],
					"name": "changelastTokenId",
					"outputs": [],
					"stateMutability": "nonpayable",
					"type": "function"
				},
				{
					"inputs": [
						{
							"internalType": "uint256",
							"name": "_projectId",
							"type": "uint256"
						}
					],
					"name": "claim",
					"outputs": [],
					"stateMutability": "nonpayable",
					"type": "function"
				},
				{
					"inputs": [],
					"name": "getStatus",
					"outputs": [
						{
							"internalType": "uint256",
							"name": "_status",
							"type": "uint256"
						}
					],
					"stateMutability": "view",
					"type": "function"
				},
				{
					"inputs": [],
					"name": "getWinnerProjectId",
					"outputs": [
						{
							"internalType": "uint256",
							"name": "_id",
							"type": "uint256"
						}
					],
					"stateMutability": "view",
					"type": "function"
				},
				{
					"inputs": [
						{
							"internalType": "uint256",
							"name": "id",
							"type": "uint256"
						},
						{
							"internalType": "address",
							"name": "_tokenAddress",
							"type": "address"
						},
						{
							"internalType": "uint256",
							"name": "_tokenAmount",
							"type": "uint256"
						}
					],
					"name": "incentiviseProject",
					"outputs": [],
					"stateMutability": "nonpayable",
					"type": "function"
				},
				{
					"inputs": [
						{
							"internalType": "uint256",
							"name": "id",
							"type": "uint256"
						},
						{
							"internalType": "uint256",
							"name": "_tokenAmount",
							"type": "uint256"
						}
					],
					"name": "incentiviseProject",
					"outputs": [],
					"stateMutability": "payable",
					"type": "function"
				},
				{
					"inputs": [],
					"name": "incentivizingPeriod",
					"outputs": [
						{
							"internalType": "uint256",
							"name": "",
							"type": "uint256"
						}
					],
					"stateMutability": "view",
					"type": "function"
				},
				{
					"inputs": [
						{
							"internalType": "string",
							"name": "_name",
							"type": "string"
						}
					],
					"name": "initializeProject",
					"outputs": [],
					"stateMutability": "nonpayable",
					"type": "function"
				},
				{
					"inputs": [],
					"name": "lastTokenId",
					"outputs": [
						{
							"internalType": "uint256",
							"name": "",
							"type": "uint256"
						}
					],
					"stateMutability": "view",
					"type": "function"
				},
				{
					"inputs": [
						{
							"internalType": "uint256",
							"name": "_projectId",
							"type": "uint256"
						}
					],
					"name": "nativebriberInfo",
					"outputs": [
						{
							"internalType": "uint256",
							"name": "_total",
							"type": "uint256"
						}
					],
					"stateMutability": "view",
					"type": "function"
				},
				{
					"inputs": [],
					"name": "nftContractAddress",
					"outputs": [
						{
							"internalType": "address",
							"name": "",
							"type": "address"
						}
					],
					"stateMutability": "view",
					"type": "function"
				},
				{
					"inputs": [],
					"name": "owner",
					"outputs": [
						{
							"internalType": "address",
							"name": "",
							"type": "address"
						}
					],
					"stateMutability": "view",
					"type": "function"
				},
				{
					"inputs": [],
					"name": "projectCount",
					"outputs": [
						{
							"internalType": "uint256",
							"name": "",
							"type": "uint256"
						}
					],
					"stateMutability": "view",
					"type": "function"
				},
				{
					"inputs": [
						{
							"internalType": "uint256",
							"name": "",
							"type": "uint256"
						}
					],
					"name": "projects",
					"outputs": [
						{
							"internalType": "string",
							"name": "name",
							"type": "string"
						},
						{
							"internalType": "address",
							"name": "projectOwner",
							"type": "address"
						},
						{
							"internalType": "uint256",
							"name": "votes",
							"type": "uint256"
						}
					],
					"stateMutability": "view",
					"type": "function"
				},
				{
					"inputs": [],
					"name": "renounceOwnership",
					"outputs": [],
					"stateMutability": "nonpayable",
					"type": "function"
				},
				{
					"inputs": [
						{
							"internalType": "address",
							"name": "_nftAddress",
							"type": "address"
						}
					],
					"name": "setNftAddress",
					"outputs": [],
					"stateMutability": "nonpayable",
					"type": "function"
				},
				{
					"inputs": [
						{
							"internalType": "uint256",
							"name": "",
							"type": "uint256"
						}
					],
					"name": "tokenVoted",
					"outputs": [
						{
							"internalType": "bool",
							"name": "",
							"type": "bool"
						}
					],
					"stateMutability": "view",
					"type": "function"
				},
				{
					"inputs": [],
					"name": "totalVotes",
					"outputs": [
						{
							"internalType": "uint256",
							"name": "",
							"type": "uint256"
						}
					],
					"stateMutability": "view",
					"type": "function"
				},
				{
					"inputs": [
						{
							"internalType": "address",
							"name": "newOwner",
							"type": "address"
						}
					],
					"name": "transferOwnership",
					"outputs": [],
					"stateMutability": "nonpayable",
					"type": "function"
				},
				{
					"inputs": [
						{
							"internalType": "uint256",
							"name": "_projectId",
							"type": "uint256"
						}
					],
					"name": "vote",
					"outputs": [],
					"stateMutability": "nonpayable",
					"type": "function"
				},
				{
					"inputs": [
						{
							"internalType": "address",
							"name": "",
							"type": "address"
						}
					],
					"name": "voters",
					"outputs": [
						{
							"internalType": "uint256",
							"name": "",
							"type": "uint256"
						}
					],
					"stateMutability": "view",
					"type": "function"
				},
				{
					"inputs": [],
					"name": "votingPeriod",
					"outputs": [
						{
							"internalType": "uint256",
							"name": "",
							"type": "uint256"
						}
					],
					"stateMutability": "view",
					"type": "function"
				},
				{
					"inputs": [
						{
							"internalType": "address",
							"name": "_receiver",
							"type": "address"
						}
					],
					"name": "withdrawWinnerProject",
					"outputs": [],
					"stateMutability": "nonpayable",
					"type": "function"
				}
			],
			"devdoc": {
				"errors": {
					"OwnableInvalidOwner(address)": [
						{
							"details": "The owner is not a valid owner account. (eg. `address(0)`)"
						}
					],
					"OwnableUnauthorizedAccount(address)": [
						{
							"details": "The caller account is not authorized to perform an operation."
						}
					]
				},
				"kind": "dev",
				"methods": {
					"owner()": {
						"details": "Returns the address of the current owner."
					},
					"renounceOwnership()": {
						"details": "Leaves the contract without owner. It will not be possible to call `onlyOwner` functions. Can only be called by the current owner. NOTE: Renouncing ownership will leave the contract without an owner, thereby disabling any functionality that is only available to the owner."
					},
					"transferOwnership(address)": {
						"details": "Transfers ownership of the contract to a new account (`newOwner`). Can only be called by the current owner."
					}
				},
				"version": 1
			},
			"evm": {
				"assembly": "    /* \"DiscoCats.sol\":292:9317  contract DiscoCats is Ownable {... */\n  mstore(0x40, 0x80)\n    /* \"DiscoCats.sol\":431:432  0 */\n  0x00\n    /* \"DiscoCats.sol\":401:432  uint256 public projectCount = 0 */\n  0x03\n  sstore\n    /* \"DiscoCats.sol\":1031:1055  govtStatus.incentivising */\n  0x00\n    /* \"DiscoCats.sol\":1002:1055  govtStatus internal status = govtStatus.incentivising */\n  0x04\n  exp(0x0100, 0x14)\n  dup2\n  sload\n  dup2\n  0xff\n  mul\n  not\n  and\n  swap1\n  dup4\n  0x02\n  dup2\n  gt\n  iszero\n  tag_1\n  jumpi\n  tag_2\n  tag_3\n  jump\t// in\ntag_2:\ntag_1:\n  mul\n  or\n  swap1\n  sstore\n  pop\n    /* \"DiscoCats.sol\":1136:1137  0 */\n  0x00\n    /* \"DiscoCats.sol\":1108:1137  uint256 public totalVotes = 0 */\n  0x06\n  sstore\n    /* \"DiscoCats.sol\":1172:1174  10 */\n  0x0a\n    /* \"DiscoCats.sol\":1143:1174  uint256 public lastTokenId = 10 */\n  0x07\n  sstore\n    /* \"DiscoCats.sol\":1341:1679  constructor(... */\n  callvalue\n  dup1\n  iszero\n  tag_4\n  jumpi\n  0x00\n  dup1\n  revert\ntag_4:\n  pop\n  mload(0x40)\n  sub(codesize, bytecodeSize)\n  dup1\n  bytecodeSize\n  dup4\n  codecopy\n  dup2\n  dup2\n  add\n  0x40\n  mstore\n  dup2\n  add\n  swap1\n  tag_5\n  swap2\n  swap1\n  tag_6\n  jump\t// in\ntag_5:\n    /* \"DiscoCats.sol\":1466:1478  initialOwner */\n  dup3\n    /* \"@openzeppelin/contracts/access/Ownable.sol\":1297:1298  0 */\n  0x00\n    /* \"@openzeppelin/contracts/access/Ownable.sol\":1273:1299  initialOwner == address(0) */\n  0xffffffffffffffffffffffffffffffffffffffff\n  and\n    /* \"@openzeppelin/contracts/access/Ownable.sol\":1273:1285  initialOwner */\n  dup2\n    /* \"@openzeppelin/contracts/access/Ownable.sol\":1273:1299  initialOwner == address(0) */\n  0xffffffffffffffffffffffffffffffffffffffff\n  and\n  sub\n    /* \"@openzeppelin/contracts/access/Ownable.sol\":1269:1364  if (initialOwner == address(0)) {... */\n  tag_10\n  jumpi\n    /* \"@openzeppelin/contracts/access/Ownable.sol\":1350:1351  0 */\n  0x00\n    /* \"@openzeppelin/contracts/access/Ownable.sol\":1322:1353  OwnableInvalidOwner(address(0)) */\n  mload(0x40)\n  0x1e4fbdf700000000000000000000000000000000000000000000000000000000\n  dup2\n  mstore\n  0x04\n  add\n  tag_11\n  swap2\n  swap1\n  tag_12\n  jump\t// in\ntag_11:\n  mload(0x40)\n  dup1\n  swap2\n  sub\n  swap1\n  revert\n    /* \"@openzeppelin/contracts/access/Ownable.sol\":1269:1364  if (initialOwner == address(0)) {... */\ntag_10:\n    /* \"@openzeppelin/contracts/access/Ownable.sol\":1373:1405  _transferOwnership(initialOwner) */\n  tag_13\n    /* \"@openzeppelin/contracts/access/Ownable.sol\":1392:1404  initialOwner */\n  dup2\n    /* \"@openzeppelin/contracts/access/Ownable.sol\":1373:1391  _transferOwnership */\n  shl(0x20, tag_14)\n    /* \"@openzeppelin/contracts/access/Ownable.sol\":1373:1405  _transferOwnership(initialOwner) */\n  0x20\n  shr\n  jump\t// in\ntag_13:\n    /* \"@openzeppelin/contracts/access/Ownable.sol\":1225:1412  constructor(address initialOwner) {... */\n  pop\n    /* \"DiscoCats.sol\":1578:1580  60 */\n  0x3c\n    /* \"DiscoCats.sol\":1555:1575  _incentivizingPeriod */\n  dup3\n    /* \"DiscoCats.sol\":1555:1580  _incentivizingPeriod * 60 */\n  tag_16\n  swap2\n  swap1\n  tag_17\n  jump\t// in\ntag_16:\n    /* \"DiscoCats.sol\":1524:1539  block.timestamp */\n  timestamp\n    /* \"DiscoCats.sol\":1524:1582  block.timestamp +... */\n  tag_18\n  swap2\n  swap1\n  tag_19\n  jump\t// in\ntag_18:\n    /* \"DiscoCats.sol\":1490:1509  incentivizingPeriod */\n  0x01\n    /* \"DiscoCats.sol\":1490:1582  incentivizingPeriod =... */\n  dup2\n  swap1\n  sstore\n  pop\n    /* \"DiscoCats.sol\":1657:1659  60 */\n  0x3c\n    /* \"DiscoCats.sol\":1641:1654  _votingPeriod */\n  dup2\n    /* \"DiscoCats.sol\":1641:1659  _votingPeriod * 60 */\n  tag_20\n  swap2\n  swap1\n  tag_17\n  jump\t// in\ntag_20:\n    /* \"DiscoCats.sol\":1618:1637  incentivizingPeriod */\n  sload(0x01)\n    /* \"DiscoCats.sol\":1618:1661  incentivizingPeriod + (_votingPeriod * 60 ) */\n  tag_21\n  swap2\n  swap1\n  tag_19\n  jump\t// in\ntag_21:\n    /* \"DiscoCats.sol\":1603:1615  votingPeriod */\n  0x02\n    /* \"DiscoCats.sol\":1603:1661  votingPeriod = incentivizingPeriod + (_votingPeriod * 60 ) */\n  dup2\n  swap1\n  sstore\n  pop\n    /* \"DiscoCats.sol\":1341:1679  constructor(... */\n  pop\n  pop\n  pop\n    /* \"DiscoCats.sol\":292:9317  contract DiscoCats is Ownable {... */\n  jump(tag_22)\n    /* \"@openzeppelin/contracts/access/Ownable.sol\":2912:3099  function _transferOwnership(address newOwner) internal virtual {... */\ntag_14:\n    /* \"@openzeppelin/contracts/access/Ownable.sol\":2985:3001  address oldOwner */\n  0x00\n    /* \"@openzeppelin/contracts/access/Ownable.sol\":3004:3010  _owner */\n  dup1\n  0x00\n  swap1\n  sload\n  swap1\n  0x0100\n  exp\n  swap1\n  div\n  0xffffffffffffffffffffffffffffffffffffffff\n  and\n    /* \"@openzeppelin/contracts/access/Ownable.sol\":2985:3010  address oldOwner = _owner */\n  swap1\n  pop\n    /* \"@openzeppelin/contracts/access/Ownable.sol\":3029:3037  newOwner */\n  dup2\n    /* \"@openzeppelin/contracts/access/Ownable.sol\":3020:3026  _owner */\n  0x00\n  dup1\n    /* \"@openzeppelin/contracts/access/Ownable.sol\":3020:3037  _owner = newOwner */\n  0x0100\n  exp\n  dup2\n  sload\n  dup2\n  0xffffffffffffffffffffffffffffffffffffffff\n  mul\n  not\n  and\n  swap1\n  dup4\n  0xffffffffffffffffffffffffffffffffffffffff\n  and\n  mul\n  or\n  swap1\n  sstore\n  pop\n    /* \"@openzeppelin/contracts/access/Ownable.sol\":3083:3091  newOwner */\n  dup2\n    /* \"@openzeppelin/contracts/access/Ownable.sol\":3052:3092  OwnershipTransferred(oldOwner, newOwner) */\n  0xffffffffffffffffffffffffffffffffffffffff\n  and\n    /* \"@openzeppelin/contracts/access/Ownable.sol\":3073:3081  oldOwner */\n  dup2\n    /* \"@openzeppelin/contracts/access/Ownable.sol\":3052:3092  OwnershipTransferred(oldOwner, newOwner) */\n  0xffffffffffffffffffffffffffffffffffffffff\n  and\n  0x8be0079c531659141344cd1fd0a4f28419497f9722a3daafe3b4186f6b6457e0\n  mload(0x40)\n  mload(0x40)\n  dup1\n  swap2\n  sub\n  swap1\n  log3\n    /* \"@openzeppelin/contracts/access/Ownable.sol\":2975:3099  {... */\n  pop\n    /* \"@openzeppelin/contracts/access/Ownable.sol\":2912:3099  function _transferOwnership(address newOwner) internal virtual {... */\n  pop\n  jump\t// out\n    /* \"#utility.yul\":7:187   */\ntag_3:\n    /* \"#utility.yul\":55:132   */\n  0x4e487b7100000000000000000000000000000000000000000000000000000000\n    /* \"#utility.yul\":52:53   */\n  0x00\n    /* \"#utility.yul\":45:133   */\n  mstore\n    /* \"#utility.yul\":152:156   */\n  0x21\n    /* \"#utility.yul\":149:150   */\n  0x04\n    /* \"#utility.yul\":142:157   */\n  mstore\n    /* \"#utility.yul\":176:180   */\n  0x24\n    /* \"#utility.yul\":173:174   */\n  0x00\n    /* \"#utility.yul\":166:181   */\n  revert\n    /* \"#utility.yul\":274:391   */\ntag_25:\n    /* \"#utility.yul\":383:384   */\n  0x00\n    /* \"#utility.yul\":380:381   */\n  dup1\n    /* \"#utility.yul\":373:385   */\n  revert\n    /* \"#utility.yul\":520:646   */\ntag_27:\n    /* \"#utility.yul\":557:564   */\n  0x00\n    /* \"#utility.yul\":597:639   */\n  0xffffffffffffffffffffffffffffffffffffffff\n    /* \"#utility.yul\":590:595   */\n  dup3\n    /* \"#utility.yul\":586:640   */\n  and\n    /* \"#utility.yul\":575:640   */\n  swap1\n  pop\n    /* \"#utility.yul\":520:646   */\n  swap2\n  swap1\n  pop\n  jump\t// out\n    /* \"#utility.yul\":652:748   */\ntag_28:\n    /* \"#utility.yul\":689:696   */\n  0x00\n    /* \"#utility.yul\":718:742   */\n  tag_43\n    /* \"#utility.yul\":736:741   */\n  dup3\n    /* \"#utility.yul\":718:742   */\n  tag_27\n  jump\t// in\ntag_43:\n    /* \"#utility.yul\":707:742   */\n  swap1\n  pop\n    /* \"#utility.yul\":652:748   */\n  swap2\n  swap1\n  pop\n  jump\t// out\n    /* \"#utility.yul\":754:876   */\ntag_29:\n    /* \"#utility.yul\":827:851   */\n  tag_45\n    /* \"#utility.yul\":845:850   */\n  dup2\n    /* \"#utility.yul\":827:851   */\n  tag_28\n  jump\t// in\ntag_45:\n    /* \"#utility.yul\":820:825   */\n  dup2\n    /* \"#utility.yul\":817:852   */\n  eq\n    /* \"#utility.yul\":807:870   */\n  tag_46\n  jumpi\n    /* \"#utility.yul\":866:867   */\n  0x00\n    /* \"#utility.yul\":863:864   */\n  dup1\n    /* \"#utility.yul\":856:868   */\n  revert\n    /* \"#utility.yul\":807:870   */\ntag_46:\n    /* \"#utility.yul\":754:876   */\n  pop\n  jump\t// out\n    /* \"#utility.yul\":882:1025   */\ntag_30:\n    /* \"#utility.yul\":939:944   */\n  0x00\n    /* \"#utility.yul\":970:976   */\n  dup2\n    /* \"#utility.yul\":964:977   */\n  mload\n    /* \"#utility.yul\":955:977   */\n  swap1\n  pop\n    /* \"#utility.yul\":986:1019   */\n  tag_48\n    /* \"#utility.yul\":1013:1018   */\n  dup2\n    /* \"#utility.yul\":986:1019   */\n  tag_29\n  jump\t// in\ntag_48:\n    /* \"#utility.yul\":882:1025   */\n  swap3\n  swap2\n  pop\n  pop\n  jump\t// out\n    /* \"#utility.yul\":1031:1108   */\ntag_31:\n    /* \"#utility.yul\":1068:1075   */\n  0x00\n    /* \"#utility.yul\":1097:1102   */\n  dup2\n    /* \"#utility.yul\":1086:1102   */\n  swap1\n  pop\n    /* \"#utility.yul\":1031:1108   */\n  swap2\n  swap1\n  pop\n  jump\t// out\n    /* \"#utility.yul\":1114:1236   */\ntag_32:\n    /* \"#utility.yul\":1187:1211   */\n  tag_51\n    /* \"#utility.yul\":1205:1210   */\n  dup2\n    /* \"#utility.yul\":1187:1211   */\n  tag_31\n  jump\t// in\ntag_51:\n    /* \"#utility.yul\":1180:1185   */\n  dup2\n    /* \"#utility.yul\":1177:1212   */\n  eq\n    /* \"#utility.yul\":1167:1230   */\n  tag_52\n  jumpi\n    /* \"#utility.yul\":1226:1227   */\n  0x00\n    /* \"#utility.yul\":1223:1224   */\n  dup1\n    /* \"#utility.yul\":1216:1228   */\n  revert\n    /* \"#utility.yul\":1167:1230   */\ntag_52:\n    /* \"#utility.yul\":1114:1236   */\n  pop\n  jump\t// out\n    /* \"#utility.yul\":1242:1385   */\ntag_33:\n    /* \"#utility.yul\":1299:1304   */\n  0x00\n    /* \"#utility.yul\":1330:1336   */\n  dup2\n    /* \"#utility.yul\":1324:1337   */\n  mload\n    /* \"#utility.yul\":1315:1337   */\n  swap1\n  pop\n    /* \"#utility.yul\":1346:1379   */\n  tag_54\n    /* \"#utility.yul\":1373:1378   */\n  dup2\n    /* \"#utility.yul\":1346:1379   */\n  tag_32\n  jump\t// in\ntag_54:\n    /* \"#utility.yul\":1242:1385   */\n  swap3\n  swap2\n  pop\n  pop\n  jump\t// out\n    /* \"#utility.yul\":1391:2054   */\ntag_6:\n    /* \"#utility.yul\":1479:1485   */\n  0x00\n    /* \"#utility.yul\":1487:1493   */\n  dup1\n    /* \"#utility.yul\":1495:1501   */\n  0x00\n    /* \"#utility.yul\":1544:1546   */\n  0x60\n    /* \"#utility.yul\":1532:1541   */\n  dup5\n    /* \"#utility.yul\":1523:1530   */\n  dup7\n    /* \"#utility.yul\":1519:1542   */\n  sub\n    /* \"#utility.yul\":1515:1547   */\n  slt\n    /* \"#utility.yul\":1512:1631   */\n  iszero\n  tag_56\n  jumpi\n    /* \"#utility.yul\":1550:1629   */\n  tag_57\n  tag_25\n  jump\t// in\ntag_57:\n    /* \"#utility.yul\":1512:1631   */\ntag_56:\n    /* \"#utility.yul\":1670:1671   */\n  0x00\n    /* \"#utility.yul\":1695:1759   */\n  tag_58\n    /* \"#utility.yul\":1751:1758   */\n  dup7\n    /* \"#utility.yul\":1742:1748   */\n  dup3\n    /* \"#utility.yul\":1731:1740   */\n  dup8\n    /* \"#utility.yul\":1727:1749   */\n  add\n    /* \"#utility.yul\":1695:1759   */\n  tag_30\n  jump\t// in\ntag_58:\n    /* \"#utility.yul\":1685:1759   */\n  swap4\n  pop\n    /* \"#utility.yul\":1641:1769   */\n  pop\n    /* \"#utility.yul\":1808:1810   */\n  0x20\n    /* \"#utility.yul\":1834:1898   */\n  tag_59\n    /* \"#utility.yul\":1890:1897   */\n  dup7\n    /* \"#utility.yul\":1881:1887   */\n  dup3\n    /* \"#utility.yul\":1870:1879   */\n  dup8\n    /* \"#utility.yul\":1866:1888   */\n  add\n    /* \"#utility.yul\":1834:1898   */\n  tag_33\n  jump\t// in\ntag_59:\n    /* \"#utility.yul\":1824:1898   */\n  swap3\n  pop\n    /* \"#utility.yul\":1779:1908   */\n  pop\n    /* \"#utility.yul\":1947:1949   */\n  0x40\n    /* \"#utility.yul\":1973:2037   */\n  tag_60\n    /* \"#utility.yul\":2029:2036   */\n  dup7\n    /* \"#utility.yul\":2020:2026   */\n  dup3\n    /* \"#utility.yul\":2009:2018   */\n  dup8\n    /* \"#utility.yul\":2005:2027   */\n  add\n    /* \"#utility.yul\":1973:2037   */\n  tag_33\n  jump\t// in\ntag_60:\n    /* \"#utility.yul\":1963:2037   */\n  swap2\n  pop\n    /* \"#utility.yul\":1918:2047   */\n  pop\n    /* \"#utility.yul\":1391:2054   */\n  swap3\n  pop\n  swap3\n  pop\n  swap3\n  jump\t// out\n    /* \"#utility.yul\":2060:2178   */\ntag_34:\n    /* \"#utility.yul\":2147:2171   */\n  tag_62\n    /* \"#utility.yul\":2165:2170   */\n  dup2\n    /* \"#utility.yul\":2147:2171   */\n  tag_28\n  jump\t// in\ntag_62:\n    /* \"#utility.yul\":2142:2145   */\n  dup3\n    /* \"#utility.yul\":2135:2172   */\n  mstore\n    /* \"#utility.yul\":2060:2178   */\n  pop\n  pop\n  jump\t// out\n    /* \"#utility.yul\":2184:2406   */\ntag_12:\n    /* \"#utility.yul\":2277:2281   */\n  0x00\n    /* \"#utility.yul\":2315:2317   */\n  0x20\n    /* \"#utility.yul\":2304:2313   */\n  dup3\n    /* \"#utility.yul\":2300:2318   */\n  add\n    /* \"#utility.yul\":2292:2318   */\n  swap1\n  pop\n    /* \"#utility.yul\":2328:2399   */\n  tag_64\n    /* \"#utility.yul\":2396:2397   */\n  0x00\n    /* \"#utility.yul\":2385:2394   */\n  dup4\n    /* \"#utility.yul\":2381:2398   */\n  add\n    /* \"#utility.yul\":2372:2378   */\n  dup5\n    /* \"#utility.yul\":2328:2399   */\n  tag_34\n  jump\t// in\ntag_64:\n    /* \"#utility.yul\":2184:2406   */\n  swap3\n  swap2\n  pop\n  pop\n  jump\t// out\n    /* \"#utility.yul\":2412:2592   */\ntag_35:\n    /* \"#utility.yul\":2460:2537   */\n  0x4e487b7100000000000000000000000000000000000000000000000000000000\n    /* \"#utility.yul\":2457:2458   */\n  0x00\n    /* \"#utility.yul\":2450:2538   */\n  mstore\n    /* \"#utility.yul\":2557:2561   */\n  0x11\n    /* \"#utility.yul\":2554:2555   */\n  0x04\n    /* \"#utility.yul\":2547:2562   */\n  mstore\n    /* \"#utility.yul\":2581:2585   */\n  0x24\n    /* \"#utility.yul\":2578:2579   */\n  0x00\n    /* \"#utility.yul\":2571:2586   */\n  revert\n    /* \"#utility.yul\":2598:3008   */\ntag_17:\n    /* \"#utility.yul\":2638:2645   */\n  0x00\n    /* \"#utility.yul\":2661:2681   */\n  tag_67\n    /* \"#utility.yul\":2679:2680   */\n  dup3\n    /* \"#utility.yul\":2661:2681   */\n  tag_31\n  jump\t// in\ntag_67:\n    /* \"#utility.yul\":2656:2681   */\n  swap2\n  pop\n    /* \"#utility.yul\":2695:2715   */\n  tag_68\n    /* \"#utility.yul\":2713:2714   */\n  dup4\n    /* \"#utility.yul\":2695:2715   */\n  tag_31\n  jump\t// in\ntag_68:\n    /* \"#utility.yul\":2690:2715   */\n  swap3\n  pop\n    /* \"#utility.yul\":2750:2751   */\n  dup3\n    /* \"#utility.yul\":2747:2748   */\n  dup3\n    /* \"#utility.yul\":2743:2752   */\n  mul\n    /* \"#utility.yul\":2772:2802   */\n  tag_69\n    /* \"#utility.yul\":2790:2801   */\n  dup2\n    /* \"#utility.yul\":2772:2802   */\n  tag_31\n  jump\t// in\ntag_69:\n    /* \"#utility.yul\":2761:2802   */\n  swap2\n  pop\n    /* \"#utility.yul\":2951:2952   */\n  dup3\n    /* \"#utility.yul\":2942:2949   */\n  dup3\n    /* \"#utility.yul\":2938:2953   */\n  div\n    /* \"#utility.yul\":2935:2936   */\n  dup5\n    /* \"#utility.yul\":2932:2954   */\n  eq\n    /* \"#utility.yul\":2912:2913   */\n  dup4\n    /* \"#utility.yul\":2905:2914   */\n  iszero\n    /* \"#utility.yul\":2885:2968   */\n  or\n    /* \"#utility.yul\":2862:3001   */\n  tag_70\n  jumpi\n    /* \"#utility.yul\":2981:2999   */\n  tag_71\n  tag_35\n  jump\t// in\ntag_71:\n    /* \"#utility.yul\":2862:3001   */\ntag_70:\n    /* \"#utility.yul\":2646:3008   */\n  pop\n    /* \"#utility.yul\":2598:3008   */\n  swap3\n  swap2\n  pop\n  pop\n  jump\t// out\n    /* \"#utility.yul\":3014:3205   */\ntag_19:\n    /* \"#utility.yul\":3054:3057   */\n  0x00\n    /* \"#utility.yul\":3073:3093   */\n  tag_73\n    /* \"#utility.yul\":3091:3092   */\n  dup3\n    /* \"#utility.yul\":3073:3093   */\n  tag_31\n  jump\t// in\ntag_73:\n    /* \"#utility.yul\":3068:3093   */\n  swap2\n  pop\n    /* \"#utility.yul\":3107:3127   */\n  tag_74\n    /* \"#utility.yul\":3125:3126   */\n  dup4\n    /* \"#utility.yul\":3107:3127   */\n  tag_31\n  jump\t// in\ntag_74:\n    /* \"#utility.yul\":3102:3127   */\n  swap3\n  pop\n    /* \"#utility.yul\":3150:3151   */\n  dup3\n    /* \"#utility.yul\":3147:3148   */\n  dup3\n    /* \"#utility.yul\":3143:3152   */\n  add\n    /* \"#utility.yul\":3136:3152   */\n  swap1\n  pop\n    /* \"#utility.yul\":3171:3174   */\n  dup1\n    /* \"#utility.yul\":3168:3169   */\n  dup3\n    /* \"#utility.yul\":3165:3175   */\n  gt\n    /* \"#utility.yul\":3162:3198   */\n  iszero\n  tag_75\n  jumpi\n    /* \"#utility.yul\":3178:3196   */\n  tag_76\n  tag_35\n  jump\t// in\ntag_76:\n    /* \"#utility.yul\":3162:3198   */\ntag_75:\n    /* \"#utility.yul\":3014:3205   */\n  swap3\n  swap2\n  pop\n  pop\n  jump\t// out\n    /* \"DiscoCats.sol\":292:9317  contract DiscoCats is Ownable {... */\ntag_22:\n  dataSize(sub_0)\n  dup1\n  dataOffset(sub_0)\n  0x00\n  codecopy\n  0x00\n  return\nstop\n\nsub_0: assembly {\n        /* \"DiscoCats.sol\":292:9317  contract DiscoCats is Ownable {... */\n      mstore(0x40, 0x80)\n      jumpi(tag_1, lt(calldatasize, 0x04))\n      shr(0xe0, calldataload(0x00))\n      dup1\n      0x715018a6\n      gt\n      tag_28\n      jumpi\n      dup1\n      0xbae60c88\n      gt\n      tag_29\n      jumpi\n      dup1\n      0xd19ee357\n      gt\n      tag_30\n      jumpi\n      dup1\n      0xd19ee357\n      eq\n      tag_24\n      jumpi\n      dup1\n      0xf2fde38b\n      eq\n      tag_25\n      jumpi\n      dup1\n      0xf4b1f501\n      eq\n      tag_26\n      jumpi\n      dup1\n      0xf84ddf0b\n      eq\n      tag_27\n      jumpi\n      jump(tag_1)\n    tag_30:\n      dup1\n      0xbae60c88\n      eq\n      tag_21\n      jumpi\n      dup1\n      0xbfb906a7\n      eq\n      tag_22\n      jumpi\n      dup1\n      0xcb06545c\n      eq\n      tag_23\n      jumpi\n      jump(tag_1)\n    tag_29:\n      dup1\n      0x715018a6\n      eq\n      tag_15\n      jumpi\n      dup1\n      0x8da5cb5b\n      eq\n      tag_16\n      jumpi\n      dup1\n      0x99b1760a\n      eq\n      tag_17\n      jumpi\n      dup1\n      0xa3ec138d\n      eq\n      tag_18\n      jumpi\n      dup1\n      0xaae282e1\n      eq\n      tag_19\n      jumpi\n      dup1\n      0xb00741cb\n      eq\n      tag_20\n      jumpi\n      jump(tag_1)\n    tag_28:\n      dup1\n      0x33b2decc\n      gt\n      tag_31\n      jumpi\n      dup1\n      0x38200702\n      gt\n      tag_32\n      jumpi\n      dup1\n      0x38200702\n      eq\n      tag_11\n      jumpi\n      dup1\n      0x3885aed3\n      eq\n      tag_12\n      jumpi\n      dup1\n      0x4e69d560\n      eq\n      tag_13\n      jumpi\n      dup1\n      0x6a460d41\n      eq\n      tag_14\n      jumpi\n      jump(tag_1)\n    tag_32:\n      dup1\n      0x33b2decc\n      eq\n      tag_8\n      jumpi\n      dup1\n      0x36fbad26\n      eq\n      tag_9\n      jumpi\n      dup1\n      0x379607f5\n      eq\n      tag_10\n      jumpi\n      jump(tag_1)\n    tag_31:\n      dup1\n      0x0121b93f\n      eq\n      tag_2\n      jumpi\n      dup1\n      0x02a251a3\n      eq\n      tag_3\n      jumpi\n      dup1\n      0x0b102d1a\n      eq\n      tag_4\n      jumpi\n      dup1\n      0x0d15fd77\n      eq\n      tag_5\n      jumpi\n      dup1\n      0x107046bd\n      eq\n      tag_6\n      jumpi\n      dup1\n      0x239ecf35\n      eq\n      tag_7\n      jumpi\n    tag_1:\n      0x00\n      dup1\n      revert\n        /* \"DiscoCats.sol\":3781:4907  function vote(uint256 _projectId) public {... */\n    tag_2:\n      callvalue\n      dup1\n      iszero\n      tag_33\n      jumpi\n      0x00\n      dup1\n      revert\n    tag_33:\n      pop\n      tag_34\n      0x04\n      dup1\n      calldatasize\n      sub\n      dup2\n      add\n      swap1\n      tag_35\n      swap2\n      swap1\n      tag_36\n      jump\t// in\n    tag_35:\n      tag_37\n      jump\t// in\n    tag_34:\n      stop\n        /* \"DiscoCats.sol\":368:395  uint256 public votingPeriod */\n    tag_3:\n      callvalue\n      dup1\n      iszero\n      tag_38\n      jumpi\n      0x00\n      dup1\n      revert\n    tag_38:\n      pop\n      tag_39\n      tag_40\n      jump\t// in\n    tag_39:\n      mload(0x40)\n      tag_41\n      swap2\n      swap1\n      tag_42\n      jump\t// in\n    tag_41:\n      mload(0x40)\n      dup1\n      swap2\n      sub\n      swap1\n      return\n        /* \"DiscoCats.sol\":6698:6810  function setNftAddress(address _nftAddress) external onlyOwner {... */\n    tag_4:\n      callvalue\n      dup1\n      iszero\n      tag_43\n      jumpi\n      0x00\n      dup1\n      revert\n    tag_43:\n      pop\n      tag_44\n      0x04\n      dup1\n      calldatasize\n      sub\n      dup2\n      add\n      swap1\n      tag_45\n      swap2\n      swap1\n      tag_46\n      jump\t// in\n    tag_45:\n      tag_47\n      jump\t// in\n    tag_44:\n      stop\n        /* \"DiscoCats.sol\":1108:1137  uint256 public totalVotes = 0 */\n    tag_5:\n      callvalue\n      dup1\n      iszero\n      tag_48\n      jumpi\n      0x00\n      dup1\n      revert\n    tag_48:\n      pop\n      tag_49\n      tag_50\n      jump\t// in\n    tag_49:\n      mload(0x40)\n      tag_51\n      swap2\n      swap1\n      tag_42\n      jump\t// in\n    tag_51:\n      mload(0x40)\n      dup1\n      swap2\n      sub\n      swap1\n      return\n        /* \"DiscoCats.sol\":1291:1334  mapping(uint256 => Project) public projects */\n    tag_6:\n      callvalue\n      dup1\n      iszero\n      tag_52\n      jumpi\n      0x00\n      dup1\n      revert\n    tag_52:\n      pop\n      tag_53\n      0x04\n      dup1\n      calldatasize\n      sub\n      dup2\n      add\n      swap1\n      tag_54\n      swap2\n      swap1\n      tag_36\n      jump\t// in\n    tag_54:\n      tag_55\n      jump\t// in\n    tag_53:\n      mload(0x40)\n      tag_56\n      swap4\n      swap3\n      swap2\n      swap1\n      tag_57\n      jump\t// in\n    tag_56:\n      mload(0x40)\n      dup1\n      swap2\n      sub\n      swap1\n      return\n        /* \"DiscoCats.sol\":1685:2173  function initializeProject(string memory _name) public onlyOwner {... */\n    tag_7:\n      callvalue\n      dup1\n      iszero\n      tag_58\n      jumpi\n      0x00\n      dup1\n      revert\n    tag_58:\n      pop\n      tag_59\n      0x04\n      dup1\n      calldatasize\n      sub\n      dup2\n      add\n      swap1\n      tag_60\n      swap2\n      swap1\n      tag_61\n      jump\t// in\n    tag_60:\n      tag_62\n      jump\t// in\n    tag_59:\n      stop\n        /* \"DiscoCats.sol\":2179:3131  function incentiviseProject(... */\n    tag_8:\n      callvalue\n      dup1\n      iszero\n      tag_63\n      jumpi\n      0x00\n      dup1\n      revert\n    tag_63:\n      pop\n      tag_64\n      0x04\n      dup1\n      calldatasize\n      sub\n      dup2\n      add\n      swap1\n      tag_65\n      swap2\n      swap1\n      tag_66\n      jump\t// in\n    tag_65:\n      tag_67\n      jump\t// in\n    tag_64:\n      stop\n        /* \"DiscoCats.sol\":401:432  uint256 public projectCount = 0 */\n    tag_9:\n      callvalue\n      dup1\n      iszero\n      tag_68\n      jumpi\n      0x00\n      dup1\n      revert\n    tag_68:\n      pop\n      tag_69\n      tag_70\n      jump\t// in\n    tag_69:\n      mload(0x40)\n      tag_71\n      swap2\n      swap1\n      tag_42\n      jump\t// in\n    tag_71:\n      mload(0x40)\n      dup1\n      swap2\n      sub\n      swap1\n      return\n        /* \"DiscoCats.sol\":6816:7693  function claim(uint256 _projectId) public {... */\n    tag_10:\n      callvalue\n      dup1\n      iszero\n      tag_72\n      jumpi\n      0x00\n      dup1\n      revert\n    tag_72:\n      pop\n      tag_73\n      0x04\n      dup1\n      calldatasize\n      sub\n      dup2\n      add\n      swap1\n      tag_74\n      swap2\n      swap1\n      tag_36\n      jump\t// in\n    tag_74:\n      tag_75\n      jump\t// in\n    tag_73:\n      stop\n        /* \"DiscoCats.sol\":1180:1222  mapping(uint256 => bool) public tokenVoted */\n    tag_11:\n      callvalue\n      dup1\n      iszero\n      tag_76\n      jumpi\n      0x00\n      dup1\n      revert\n    tag_76:\n      pop\n      tag_77\n      0x04\n      dup1\n      calldatasize\n      sub\n      dup2\n      add\n      swap1\n      tag_78\n      swap2\n      swap1\n      tag_36\n      jump\t// in\n    tag_78:\n      tag_79\n      jump\t// in\n    tag_77:\n      mload(0x40)\n      tag_80\n      swap2\n      swap1\n      tag_81\n      jump\t// in\n    tag_80:\n      mload(0x40)\n      dup1\n      swap2\n      sub\n      swap1\n      return\n        /* \"DiscoCats.sol\":328:362  uint256 public incentivizingPeriod */\n    tag_12:\n      callvalue\n      dup1\n      iszero\n      tag_82\n      jumpi\n      0x00\n      dup1\n      revert\n    tag_82:\n      pop\n      tag_83\n      tag_84\n      jump\t// in\n    tag_83:\n      mload(0x40)\n      tag_85\n      swap2\n      swap1\n      tag_42\n      jump\t// in\n    tag_85:\n      mload(0x40)\n      dup1\n      swap2\n      sub\n      swap1\n      return\n        /* \"DiscoCats.sol\":5012:5357  function getStatus() external view returns (uint256 _status) {... */\n    tag_13:\n      callvalue\n      dup1\n      iszero\n      tag_86\n      jumpi\n      0x00\n      dup1\n      revert\n    tag_86:\n      pop\n      tag_87\n      tag_88\n      jump\t// in\n    tag_87:\n      mload(0x40)\n      tag_89\n      swap2\n      swap1\n      tag_42\n      jump\t// in\n    tag_89:\n      mload(0x40)\n      dup1\n      swap2\n      sub\n      swap1\n      return\n        /* \"DiscoCats.sol\":6094:6516  function nativebriberInfo(uint256 _projectId)... */\n    tag_14:\n      callvalue\n      dup1\n      iszero\n      tag_90\n      jumpi\n      0x00\n      dup1\n      revert\n    tag_90:\n      pop\n      tag_91\n      0x04\n      dup1\n      calldatasize\n      sub\n      dup2\n      add\n      swap1\n      tag_92\n      swap2\n      swap1\n      tag_36\n      jump\t// in\n    tag_92:\n      tag_93\n      jump\t// in\n    tag_91:\n      mload(0x40)\n      tag_94\n      swap2\n      swap1\n      tag_42\n      jump\t// in\n    tag_94:\n      mload(0x40)\n      dup1\n      swap2\n      sub\n      swap1\n      return\n        /* \"@openzeppelin/contracts/access/Ownable.sol\":2293:2394  function renounceOwnership() public virtual onlyOwner {... */\n    tag_15:\n      callvalue\n      dup1\n      iszero\n      tag_95\n      jumpi\n      0x00\n      dup1\n      revert\n    tag_95:\n      pop\n      tag_96\n      tag_97\n      jump\t// in\n    tag_96:\n      stop\n        /* \"@openzeppelin/contracts/access/Ownable.sol\":1638:1723  function owner() public view virtual returns (address) {... */\n    tag_16:\n      callvalue\n      dup1\n      iszero\n      tag_98\n      jumpi\n      0x00\n      dup1\n      revert\n    tag_98:\n      pop\n      tag_99\n      tag_100\n      jump\t// in\n    tag_99:\n      mload(0x40)\n      tag_101\n      swap2\n      swap1\n      tag_102\n      jump\t// in\n    tag_101:\n      mload(0x40)\n      dup1\n      swap2\n      sub\n      swap1\n      return\n        /* \"DiscoCats.sol\":5611:6089  function briberTokenInfo(uint256 _projectId,address _tokenAddress)... */\n    tag_17:\n      callvalue\n      dup1\n      iszero\n      tag_103\n      jumpi\n      0x00\n      dup1\n      revert\n    tag_103:\n      pop\n      tag_104\n      0x04\n      dup1\n      calldatasize\n      sub\n      dup2\n      add\n      swap1\n      tag_105\n      swap2\n      swap1\n      tag_106\n      jump\t// in\n    tag_105:\n      tag_107\n      jump\t// in\n    tag_104:\n      mload(0x40)\n      tag_108\n      swap2\n      swap1\n      tag_42\n      jump\t// in\n    tag_108:\n      mload(0x40)\n      dup1\n      swap2\n      sub\n      swap1\n      return\n        /* \"DiscoCats.sol\":1061:1102  mapping(address => uint256) public voters */\n    tag_18:\n      callvalue\n      dup1\n      iszero\n      tag_109\n      jumpi\n      0x00\n      dup1\n      revert\n    tag_109:\n      pop\n      tag_110\n      0x04\n      dup1\n      calldatasize\n      sub\n      dup2\n      add\n      swap1\n      tag_111\n      swap2\n      swap1\n      tag_46\n      jump\t// in\n    tag_111:\n      tag_112\n      jump\t// in\n    tag_110:\n      mload(0x40)\n      tag_113\n      swap2\n      swap1\n      tag_42\n      jump\t// in\n    tag_113:\n      mload(0x40)\n      dup1\n      swap2\n      sub\n      swap1\n      return\n        /* \"DiscoCats.sol\":438:471  address public nftContractAddress */\n    tag_19:\n      callvalue\n      dup1\n      iszero\n      tag_114\n      jumpi\n      0x00\n      dup1\n      revert\n    tag_114:\n      pop\n      tag_115\n      tag_116\n      jump\t// in\n    tag_115:\n      mload(0x40)\n      tag_117\n      swap2\n      swap1\n      tag_102\n      jump\t// in\n    tag_117:\n      mload(0x40)\n      dup1\n      swap2\n      sub\n      swap1\n      return\n        /* \"DiscoCats.sol\":8465:8995  function changeState(uint256 _stateNumber) public onlyOwner {... */\n    tag_20:\n      callvalue\n      dup1\n      iszero\n      tag_118\n      jumpi\n      0x00\n      dup1\n      revert\n    tag_118:\n      pop\n      tag_119\n      0x04\n      dup1\n      calldatasize\n      sub\n      dup2\n      add\n      swap1\n      tag_120\n      swap2\n      swap1\n      tag_36\n      jump\t// in\n    tag_120:\n      tag_121\n      jump\t// in\n    tag_119:\n      stop\n        /* \"DiscoCats.sol\":3136:3775  function incentiviseProject(... */\n    tag_21:\n      tag_122\n      0x04\n      dup1\n      calldatasize\n      sub\n      dup2\n      add\n      swap1\n      tag_123\n      swap2\n      swap1\n      tag_124\n      jump\t// in\n    tag_123:\n      tag_125\n      jump\t// in\n    tag_122:\n      stop\n        /* \"DiscoCats.sol\":5363:5606  function briberInfo(uint256 _projectId)... */\n    tag_22:\n      callvalue\n      dup1\n      iszero\n      tag_126\n      jumpi\n      0x00\n      dup1\n      revert\n    tag_126:\n      pop\n      tag_127\n      0x04\n      dup1\n      calldatasize\n      sub\n      dup2\n      add\n      swap1\n      tag_128\n      swap2\n      swap1\n      tag_36\n      jump\t// in\n    tag_128:\n      tag_129\n      jump\t// in\n    tag_127:\n      mload(0x40)\n      tag_130\n      swap3\n      swap2\n      swap1\n      tag_131\n      jump\t// in\n    tag_130:\n      mload(0x40)\n      dup1\n      swap2\n      sub\n      swap1\n      return\n        /* \"DiscoCats.sol\":4913:5006  function changelastTokenId(uint256 _id) external onlyOwner {... */\n    tag_23:\n      callvalue\n      dup1\n      iszero\n      tag_132\n      jumpi\n      0x00\n      dup1\n      revert\n    tag_132:\n      pop\n      tag_133\n      0x04\n      dup1\n      calldatasize\n      sub\n      dup2\n      add\n      swap1\n      tag_134\n      swap2\n      swap1\n      tag_36\n      jump\t// in\n    tag_134:\n      tag_135\n      jump\t// in\n    tag_133:\n      stop\n        /* \"DiscoCats.sol\":7699:8459  function withdrawWinnerProject(address _receiver) public onlyOwner {... */\n    tag_24:\n      callvalue\n      dup1\n      iszero\n      tag_136\n      jumpi\n      0x00\n      dup1\n      revert\n    tag_136:\n      pop\n      tag_137\n      0x04\n      dup1\n      calldatasize\n      sub\n      dup2\n      add\n      swap1\n      tag_138\n      swap2\n      swap1\n      tag_46\n      jump\t// in\n    tag_138:\n      tag_139\n      jump\t// in\n    tag_137:\n      stop\n        /* \"@openzeppelin/contracts/access/Ownable.sol\":2543:2758  function transferOwnership(address newOwner) public virtual onlyOwner {... */\n    tag_25:\n      callvalue\n      dup1\n      iszero\n      tag_140\n      jumpi\n      0x00\n      dup1\n      revert\n    tag_140:\n      pop\n      tag_141\n      0x04\n      dup1\n      calldatasize\n      sub\n      dup2\n      add\n      swap1\n      tag_142\n      swap2\n      swap1\n      tag_46\n      jump\t// in\n    tag_142:\n      tag_143\n      jump\t// in\n    tag_141:\n      stop\n        /* \"DiscoCats.sol\":9001:9315  function getWinnerProjectId() public view returns (uint256 _id) {... */\n    tag_26:\n      callvalue\n      dup1\n      iszero\n      tag_144\n      jumpi\n      0x00\n      dup1\n      revert\n    tag_144:\n      pop\n      tag_145\n      tag_146\n      jump\t// in\n    tag_145:\n      mload(0x40)\n      tag_147\n      swap2\n      swap1\n      tag_42\n      jump\t// in\n    tag_147:\n      mload(0x40)\n      dup1\n      swap2\n      sub\n      swap1\n      return\n        /* \"DiscoCats.sol\":1143:1174  uint256 public lastTokenId = 10 */\n    tag_27:\n      callvalue\n      dup1\n      iszero\n      tag_148\n      jumpi\n      0x00\n      dup1\n      revert\n    tag_148:\n      pop\n      tag_149\n      tag_150\n      jump\t// in\n    tag_149:\n      mload(0x40)\n      tag_151\n      swap2\n      swap1\n      tag_42\n      jump\t// in\n    tag_151:\n      mload(0x40)\n      dup1\n      swap2\n      sub\n      swap1\n      return\n        /* \"DiscoCats.sol\":3781:4907  function vote(uint256 _projectId) public {... */\n    tag_37:\n        /* \"DiscoCats.sol\":3939:3958  incentivizingPeriod */\n      sload(0x01)\n        /* \"DiscoCats.sol\":3920:3935  block.timestamp */\n      timestamp\n        /* \"DiscoCats.sol\":3920:3958  block.timestamp >= incentivizingPeriod */\n      lt\n      iszero\n        /* \"DiscoCats.sol\":3920:4009  block.timestamp >= incentivizingPeriod &&... */\n      dup1\n      iszero\n      tag_153\n      jumpi\n      pop\n        /* \"DiscoCats.sol\":3997:4009  votingPeriod */\n      sload(0x02)\n        /* \"DiscoCats.sol\":3978:3993  block.timestamp */\n      timestamp\n        /* \"DiscoCats.sol\":3978:4009  block.timestamp <= votingPeriod */\n      gt\n      iszero\n        /* \"DiscoCats.sol\":3920:4009  block.timestamp >= incentivizingPeriod &&... */\n    tag_153:\n        /* \"DiscoCats.sol\":3899:4049  require(... */\n      tag_154\n      jumpi\n      mload(0x40)\n      0x08c379a000000000000000000000000000000000000000000000000000000000\n      dup2\n      mstore\n      0x04\n      add\n      tag_155\n      swap1\n      tag_156\n      jump\t// in\n    tag_155:\n      mload(0x40)\n      dup1\n      swap2\n      sub\n      swap1\n      revert\n    tag_154:\n        /* \"DiscoCats.sol\":4084:4094  _projectId */\n      dup1\n        /* \"DiscoCats.sol\":4068:4080  projectCount */\n      sload(0x03)\n        /* \"DiscoCats.sol\":4068:4094  projectCount >= _projectId */\n      lt\n      iszero\n        /* \"DiscoCats.sol\":4060:4115  require(projectCount >= _projectId, \"aout of order no\") */\n      tag_157\n      jumpi\n      mload(0x40)\n      0x08c379a000000000000000000000000000000000000000000000000000000000\n      dup2\n      mstore\n      0x04\n      add\n      tag_158\n      swap1\n      tag_159\n      jump\t// in\n    tag_158:\n      mload(0x40)\n      dup1\n      swap2\n      sub\n      swap1\n      revert\n    tag_157:\n        /* \"DiscoCats.sol\":4198:4199  0 */\n      0x00\n        /* \"DiscoCats.sol\":4154:4172  nftContractAddress */\n      0x04\n      0x00\n      swap1\n      sload\n      swap1\n      0x0100\n      exp\n      swap1\n      div\n      0xffffffffffffffffffffffffffffffffffffffff\n      and\n        /* \"DiscoCats.sol\":4146:4183  IERC721(nftContractAddress).balanceOf */\n      0xffffffffffffffffffffffffffffffffffffffff\n      and\n      0x70a08231\n        /* \"DiscoCats.sol\":4184:4194  msg.sender */\n      caller\n        /* \"DiscoCats.sol\":4146:4195  IERC721(nftContractAddress).balanceOf(msg.sender) */\n      mload(0x40)\n      dup3\n      0xffffffff\n      and\n      0xe0\n      shl\n      dup2\n      mstore\n      0x04\n      add\n      tag_160\n      swap2\n      swap1\n      tag_102\n      jump\t// in\n    tag_160:\n      0x20\n      mload(0x40)\n      dup1\n      dup4\n      sub\n      dup2\n      dup7\n      gas\n      staticcall\n      iszero\n      dup1\n      iszero\n      tag_162\n      jumpi\n      returndatasize\n      0x00\n      dup1\n      returndatacopy\n      revert(0x00, returndatasize)\n    tag_162:\n      pop\n      pop\n      pop\n      pop\n      mload(0x40)\n      returndatasize\n      not(0x1f)\n      0x1f\n      dup3\n      add\n      and\n      dup3\n      add\n      dup1\n      0x40\n      mstore\n      pop\n      dup2\n      add\n      swap1\n      tag_163\n      swap2\n      swap1\n      tag_164\n      jump\t// in\n    tag_163:\n        /* \"DiscoCats.sol\":4146:4199  IERC721(nftContractAddress).balanceOf(msg.sender) > 0 */\n      gt\n        /* \"DiscoCats.sol\":4125:4241  require(... */\n      tag_165\n      jumpi\n      mload(0x40)\n      0x08c379a000000000000000000000000000000000000000000000000000000000\n      dup2\n      mstore\n      0x04\n      add\n      tag_166\n      swap1\n      tag_167\n      jump\t// in\n    tag_166:\n      mload(0x40)\n      dup1\n      swap2\n      sub\n      swap1\n      revert\n    tag_165:\n        /* \"DiscoCats.sol\":4252:4278  Project storage newProject */\n      0x00\n        /* \"DiscoCats.sol\":4281:4289  projects */\n      0x09\n        /* \"DiscoCats.sol\":4281:4301  projects[_projectId] */\n      0x00\n        /* \"DiscoCats.sol\":4290:4300  _projectId */\n      dup4\n        /* \"DiscoCats.sol\":4281:4301  projects[_projectId] */\n      dup2\n      mstore\n      0x20\n      add\n      swap1\n      dup2\n      mstore\n      0x20\n      add\n      0x00\n      keccak256\n        /* \"DiscoCats.sol\":4252:4301  Project storage newProject = projects[_projectId] */\n      swap1\n      pop\n        /* \"DiscoCats.sol\":4377:4395  nftContractAddress */\n      0x04\n      0x00\n      swap1\n      sload\n      swap1\n      0x0100\n      exp\n      swap1\n      div\n      0xffffffffffffffffffffffffffffffffffffffff\n      and\n        /* \"DiscoCats.sol\":4369:4406  IERC721(nftContractAddress).balanceOf */\n      0xffffffffffffffffffffffffffffffffffffffff\n      and\n      0x70a08231\n        /* \"DiscoCats.sol\":4407:4417  msg.sender */\n      caller\n        /* \"DiscoCats.sol\":4369:4418  IERC721(nftContractAddress).balanceOf(msg.sender) */\n      mload(0x40)\n      dup3\n      0xffffffff\n      and\n      0xe0\n      shl\n      dup2\n      mstore\n      0x04\n      add\n      tag_168\n      swap2\n      swap1\n      tag_102\n      jump\t// in\n    tag_168:\n      0x20\n      mload(0x40)\n      dup1\n      dup4\n      sub\n      dup2\n      dup7\n      gas\n      staticcall\n      iszero\n      dup1\n      iszero\n      tag_170\n      jumpi\n      returndatasize\n      0x00\n      dup1\n      returndatacopy\n      revert(0x00, returndatasize)\n    tag_170:\n      pop\n      pop\n      pop\n      pop\n      mload(0x40)\n      returndatasize\n      not(0x1f)\n      0x1f\n      dup3\n      add\n      and\n      dup3\n      add\n      dup1\n      0x40\n      mstore\n      pop\n      dup2\n      add\n      swap1\n      tag_171\n      swap2\n      swap1\n      tag_164\n      jump\t// in\n    tag_171:\n        /* \"DiscoCats.sol\":4332:4338  voters */\n      0x05\n        /* \"DiscoCats.sol\":4332:4350  voters[msg.sender] */\n      0x00\n        /* \"DiscoCats.sol\":4339:4349  msg.sender */\n      caller\n        /* \"DiscoCats.sol\":4332:4350  voters[msg.sender] */\n      0xffffffffffffffffffffffffffffffffffffffff\n      and\n      0xffffffffffffffffffffffffffffffffffffffff\n      and\n      dup2\n      mstore\n      0x20\n      add\n      swap1\n      dup2\n      mstore\n      0x20\n      add\n      0x00\n      keccak256\n      sload\n        /* \"DiscoCats.sol\":4332:4418  voters[msg.sender] <... */\n      lt\n        /* \"DiscoCats.sol\":4311:4462  require(... */\n      tag_172\n      jumpi\n      mload(0x40)\n      0x08c379a000000000000000000000000000000000000000000000000000000000\n      dup2\n      mstore\n      0x04\n      add\n      tag_173\n      swap1\n      tag_174\n      jump\t// in\n    tag_173:\n      mload(0x40)\n      dup1\n      swap2\n      sub\n      swap1\n      revert\n    tag_172:\n        /* \"DiscoCats.sol\":4477:4486  uint256 i */\n      0x00\n        /* \"DiscoCats.sol\":4472:4901  for (uint256 i = 0; i <= lastTokenId; i++) {... */\n    tag_175:\n        /* \"DiscoCats.sol\":4497:4508  lastTokenId */\n      sload(0x07)\n        /* \"DiscoCats.sol\":4492:4493  i */\n      dup2\n        /* \"DiscoCats.sol\":4492:4508  i <= lastTokenId */\n      gt\n        /* \"DiscoCats.sol\":4472:4901  for (uint256 i = 0; i <= lastTokenId; i++) {... */\n      tag_176\n      jumpi\n        /* \"DiscoCats.sol\":4615:4625  msg.sender */\n      caller\n        /* \"DiscoCats.sol\":4573:4625  IERC721(nftContractAddress).ownerOf(i) == msg.sender */\n      0xffffffffffffffffffffffffffffffffffffffff\n      and\n        /* \"DiscoCats.sol\":4581:4599  nftContractAddress */\n      0x04\n      0x00\n      swap1\n      sload\n      swap1\n      0x0100\n      exp\n      swap1\n      div\n      0xffffffffffffffffffffffffffffffffffffffff\n      and\n        /* \"DiscoCats.sol\":4573:4608  IERC721(nftContractAddress).ownerOf */\n      0xffffffffffffffffffffffffffffffffffffffff\n      and\n      0x6352211e\n        /* \"DiscoCats.sol\":4609:4610  i */\n      dup4\n        /* \"DiscoCats.sol\":4573:4611  IERC721(nftContractAddress).ownerOf(i) */\n      mload(0x40)\n      dup3\n      0xffffffff\n      and\n      0xe0\n      shl\n      dup2\n      mstore\n      0x04\n      add\n      tag_178\n      swap2\n      swap1\n      tag_42\n      jump\t// in\n    tag_178:\n      0x20\n      mload(0x40)\n      dup1\n      dup4\n      sub\n      dup2\n      dup7\n      gas\n      staticcall\n      iszero\n      dup1\n      iszero\n      tag_180\n      jumpi\n      returndatasize\n      0x00\n      dup1\n      returndatacopy\n      revert(0x00, returndatasize)\n    tag_180:\n      pop\n      pop\n      pop\n      pop\n      mload(0x40)\n      returndatasize\n      not(0x1f)\n      0x1f\n      dup3\n      add\n      and\n      dup3\n      add\n      dup1\n      0x40\n      mstore\n      pop\n      dup2\n      add\n      swap1\n      tag_181\n      swap2\n      swap1\n      tag_182\n      jump\t// in\n    tag_181:\n        /* \"DiscoCats.sol\":4573:4625  IERC721(nftContractAddress).ownerOf(i) == msg.sender */\n      0xffffffffffffffffffffffffffffffffffffffff\n      and\n      sub\n        /* \"DiscoCats.sol\":4569:4891  if (IERC721(nftContractAddress).ownerOf(i) == msg.sender) {... */\n      tag_183\n      jumpi\n        /* \"DiscoCats.sol\":4666:4671  false */\n      0x00\n        /* \"DiscoCats.sol\":4649:4671  tokenVoted[i] == false */\n      iszero\n      iszero\n        /* \"DiscoCats.sol\":4649:4659  tokenVoted */\n      0x08\n        /* \"DiscoCats.sol\":4649:4662  tokenVoted[i] */\n      0x00\n        /* \"DiscoCats.sol\":4660:4661  i */\n      dup4\n        /* \"DiscoCats.sol\":4649:4662  tokenVoted[i] */\n      dup2\n      mstore\n      0x20\n      add\n      swap1\n      dup2\n      mstore\n      0x20\n      add\n      0x00\n      keccak256\n      0x00\n      swap1\n      sload\n      swap1\n      0x0100\n      exp\n      swap1\n      div\n      0xff\n      and\n        /* \"DiscoCats.sol\":4649:4671  tokenVoted[i] == false */\n      iszero\n      iszero\n      sub\n        /* \"DiscoCats.sol\":4645:4877  if (tokenVoted[i] == false) {... */\n      tag_184\n      jumpi\n        /* \"DiscoCats.sol\":4695:4701  voters */\n      0x05\n        /* \"DiscoCats.sol\":4695:4713  voters[msg.sender] */\n      0x00\n        /* \"DiscoCats.sol\":4702:4712  msg.sender */\n      caller\n        /* \"DiscoCats.sol\":4695:4713  voters[msg.sender] */\n      0xffffffffffffffffffffffffffffffffffffffff\n      and\n      0xffffffffffffffffffffffffffffffffffffffff\n      and\n      dup2\n      mstore\n      0x20\n      add\n      swap1\n      dup2\n      mstore\n      0x20\n      add\n      0x00\n      keccak256\n      0x00\n        /* \"DiscoCats.sol\":4695:4715  voters[msg.sender]++ */\n      dup2\n      sload\n      dup1\n      swap3\n      swap2\n      swap1\n      tag_185\n      swap1\n      tag_186\n      jump\t// in\n    tag_185:\n      swap2\n      swap1\n      pop\n      sstore\n      pop\n        /* \"DiscoCats.sol\":4737:4747  newProject */\n      dup2\n        /* \"DiscoCats.sol\":4737:4753  newProject.votes */\n      0x04\n      add\n      0x00\n        /* \"DiscoCats.sol\":4737:4755  newProject.votes++ */\n      dup2\n      sload\n      dup1\n      swap3\n      swap2\n      swap1\n      tag_187\n      swap1\n      tag_186\n      jump\t// in\n    tag_187:\n      swap2\n      swap1\n      pop\n      sstore\n      pop\n        /* \"DiscoCats.sol\":4777:4787  totalVotes */\n      0x06\n      0x00\n        /* \"DiscoCats.sol\":4777:4789  totalVotes++ */\n      dup2\n      sload\n      dup1\n      swap3\n      swap2\n      swap1\n      tag_188\n      swap1\n      tag_186\n      jump\t// in\n    tag_188:\n      swap2\n      swap1\n      pop\n      sstore\n      pop\n        /* \"DiscoCats.sol\":4827:4831  true */\n      0x01\n        /* \"DiscoCats.sol\":4811:4821  tokenVoted */\n      0x08\n        /* \"DiscoCats.sol\":4811:4824  tokenVoted[i] */\n      0x00\n        /* \"DiscoCats.sol\":4822:4823  i */\n      dup4\n        /* \"DiscoCats.sol\":4811:4824  tokenVoted[i] */\n      dup2\n      mstore\n      0x20\n      add\n      swap1\n      dup2\n      mstore\n      0x20\n      add\n      0x00\n      keccak256\n      0x00\n        /* \"DiscoCats.sol\":4811:4831  tokenVoted[i] = true */\n      0x0100\n      exp\n      dup2\n      sload\n      dup2\n      0xff\n      mul\n      not\n      and\n      swap1\n      dup4\n      iszero\n      iszero\n      mul\n      or\n      swap1\n      sstore\n      pop\n        /* \"DiscoCats.sol\":4853:4858  break */\n      jump(tag_176)\n        /* \"DiscoCats.sol\":4645:4877  if (tokenVoted[i] == false) {... */\n    tag_184:\n        /* \"DiscoCats.sol\":4569:4891  if (IERC721(nftContractAddress).ownerOf(i) == msg.sender) {... */\n    tag_183:\n        /* \"DiscoCats.sol\":4510:4513  i++ */\n      dup1\n      dup1\n      tag_189\n      swap1\n      tag_186\n      jump\t// in\n    tag_189:\n      swap2\n      pop\n      pop\n        /* \"DiscoCats.sol\":4472:4901  for (uint256 i = 0; i <= lastTokenId; i++) {... */\n      jump(tag_175)\n    tag_176:\n      pop\n        /* \"DiscoCats.sol\":3822:4907  {... */\n      pop\n        /* \"DiscoCats.sol\":3781:4907  function vote(uint256 _projectId) public {... */\n      pop\n      jump\t// out\n        /* \"DiscoCats.sol\":368:395  uint256 public votingPeriod */\n    tag_40:\n      sload(0x02)\n      dup2\n      jump\t// out\n        /* \"DiscoCats.sol\":6698:6810  function setNftAddress(address _nftAddress) external onlyOwner {... */\n    tag_47:\n        /* \"@openzeppelin/contracts/access/Ownable.sol\":1531:1544  _checkOwner() */\n      tag_191\n        /* \"@openzeppelin/contracts/access/Ownable.sol\":1531:1542  _checkOwner */\n      tag_192\n        /* \"@openzeppelin/contracts/access/Ownable.sol\":1531:1544  _checkOwner() */\n      jump\t// in\n    tag_191:\n        /* \"DiscoCats.sol\":6792:6803  _nftAddress */\n      dup1\n        /* \"DiscoCats.sol\":6771:6789  nftContractAddress */\n      0x04\n      0x00\n        /* \"DiscoCats.sol\":6771:6803  nftContractAddress = _nftAddress */\n      0x0100\n      exp\n      dup2\n      sload\n      dup2\n      0xffffffffffffffffffffffffffffffffffffffff\n      mul\n      not\n      and\n      swap1\n      dup4\n      0xffffffffffffffffffffffffffffffffffffffff\n      and\n      mul\n      or\n      swap1\n      sstore\n      pop\n        /* \"DiscoCats.sol\":6698:6810  function setNftAddress(address _nftAddress) external onlyOwner {... */\n      pop\n      jump\t// out\n        /* \"DiscoCats.sol\":1108:1137  uint256 public totalVotes = 0 */\n    tag_50:\n      sload(0x06)\n      dup2\n      jump\t// out\n        /* \"DiscoCats.sol\":1291:1334  mapping(uint256 => Project) public projects */\n    tag_55:\n      mstore(0x20, 0x09)\n      dup1\n      0x00\n      mstore\n      keccak256(0x00, 0x40)\n      0x00\n      swap2\n      pop\n      swap1\n      pop\n      dup1\n      0x00\n      add\n      dup1\n      sload\n      tag_194\n      swap1\n      tag_195\n      jump\t// in\n    tag_194:\n      dup1\n      0x1f\n      add\n      0x20\n      dup1\n      swap2\n      div\n      mul\n      0x20\n      add\n      mload(0x40)\n      swap1\n      dup2\n      add\n      0x40\n      mstore\n      dup1\n      swap3\n      swap2\n      swap1\n      dup2\n      dup2\n      mstore\n      0x20\n      add\n      dup3\n      dup1\n      sload\n      tag_196\n      swap1\n      tag_195\n      jump\t// in\n    tag_196:\n      dup1\n      iszero\n      tag_197\n      jumpi\n      dup1\n      0x1f\n      lt\n      tag_198\n      jumpi\n      0x0100\n      dup1\n      dup4\n      sload\n      div\n      mul\n      dup4\n      mstore\n      swap2\n      0x20\n      add\n      swap2\n      jump(tag_197)\n    tag_198:\n      dup3\n      add\n      swap2\n      swap1\n      0x00\n      mstore\n      keccak256(0x00, 0x20)\n      swap1\n    tag_199:\n      dup2\n      sload\n      dup2\n      mstore\n      swap1\n      0x01\n      add\n      swap1\n      0x20\n      add\n      dup1\n      dup4\n      gt\n      tag_199\n      jumpi\n      dup3\n      swap1\n      sub\n      0x1f\n      and\n      dup3\n      add\n      swap2\n    tag_197:\n      pop\n      pop\n      pop\n      pop\n      pop\n      swap1\n      dup1\n      0x01\n      add\n      0x00\n      swap1\n      sload\n      swap1\n      0x0100\n      exp\n      swap1\n      div\n      0xffffffffffffffffffffffffffffffffffffffff\n      and\n      swap1\n      dup1\n      0x04\n      add\n      sload\n      swap1\n      pop\n      dup4\n      jump\t// out\n        /* \"DiscoCats.sol\":1685:2173  function initializeProject(string memory _name) public onlyOwner {... */\n    tag_62:\n        /* \"@openzeppelin/contracts/access/Ownable.sol\":1531:1544  _checkOwner() */\n      tag_201\n        /* \"@openzeppelin/contracts/access/Ownable.sol\":1531:1542  _checkOwner */\n      tag_192\n        /* \"@openzeppelin/contracts/access/Ownable.sol\":1531:1544  _checkOwner() */\n      jump\t// in\n    tag_201:\n        /* \"DiscoCats.sol\":1901:1920  incentivizingPeriod */\n      sload(0x01)\n        /* \"DiscoCats.sol\":1882:1897  block.timestamp */\n      timestamp\n        /* \"DiscoCats.sol\":1882:1920  block.timestamp <= incentivizingPeriod */\n      gt\n      iszero\n        /* \"DiscoCats.sol\":1874:1939  require(block.timestamp <= incentivizingPeriod, \"cant do it now\") */\n      tag_203\n      jumpi\n      mload(0x40)\n      0x08c379a000000000000000000000000000000000000000000000000000000000\n      dup2\n      mstore\n      0x04\n      add\n      tag_204\n      swap1\n      tag_156\n      jump\t// in\n    tag_204:\n      mload(0x40)\n      dup1\n      swap2\n      sub\n      swap1\n      revert\n    tag_203:\n        /* \"DiscoCats.sol\":1949:1961  projectCount */\n      0x03\n      0x00\n        /* \"DiscoCats.sol\":1949:1963  projectCount++ */\n      dup2\n      sload\n      dup1\n      swap3\n      swap2\n      swap1\n      tag_205\n      swap1\n      tag_186\n      jump\t// in\n    tag_205:\n      swap2\n      swap1\n      pop\n      sstore\n      pop\n        /* \"DiscoCats.sol\":2006:2032  Project storage newProject */\n      0x00\n        /* \"DiscoCats.sol\":2035:2043  projects */\n      0x09\n        /* \"DiscoCats.sol\":2035:2057  projects[projectCount] */\n      0x00\n        /* \"DiscoCats.sol\":2044:2056  projectCount */\n      sload(0x03)\n        /* \"DiscoCats.sol\":2035:2057  projects[projectCount] */\n      dup2\n      mstore\n      0x20\n      add\n      swap1\n      dup2\n      mstore\n      0x20\n      add\n      0x00\n      keccak256\n        /* \"DiscoCats.sol\":2006:2057  Project storage newProject = projects[projectCount] */\n      swap1\n      pop\n        /* \"DiscoCats.sol\":2085:2090  _name */\n      dup2\n        /* \"DiscoCats.sol\":2067:2077  newProject */\n      dup2\n        /* \"DiscoCats.sol\":2067:2082  newProject.name */\n      0x00\n      add\n        /* \"DiscoCats.sol\":2067:2090  newProject.name = _name */\n      swap1\n      dup2\n      tag_206\n      swap2\n      swap1\n      tag_207\n      jump\t// in\n    tag_206:\n      pop\n        /* \"DiscoCats.sol\":2126:2136  msg.sender */\n      caller\n        /* \"DiscoCats.sol\":2100:2110  newProject */\n      dup2\n        /* \"DiscoCats.sol\":2100:2123  newProject.projectOwner */\n      0x01\n      add\n      0x00\n        /* \"DiscoCats.sol\":2100:2136  newProject.projectOwner = msg.sender */\n      0x0100\n      exp\n      dup2\n      sload\n      dup2\n      0xffffffffffffffffffffffffffffffffffffffff\n      mul\n      not\n      and\n      swap1\n      dup4\n      0xffffffffffffffffffffffffffffffffffffffff\n      and\n      mul\n      or\n      swap1\n      sstore\n      pop\n        /* \"DiscoCats.sol\":2165:2166  0 */\n      0x00\n        /* \"DiscoCats.sol\":2146:2156  newProject */\n      dup2\n        /* \"DiscoCats.sol\":2146:2162  newProject.votes */\n      0x04\n      add\n        /* \"DiscoCats.sol\":2146:2166  newProject.votes = 0 */\n      dup2\n      swap1\n      sstore\n      pop\n        /* \"DiscoCats.sol\":1750:2173  {... */\n      pop\n        /* \"DiscoCats.sol\":1685:2173  function initializeProject(string memory _name) public onlyOwner {... */\n      pop\n      jump\t// out\n        /* \"DiscoCats.sol\":2179:3131  function incentiviseProject(... */\n    tag_67:\n        /* \"DiscoCats.sol\":2412:2431  incentivizingPeriod */\n      sload(0x01)\n        /* \"DiscoCats.sol\":2393:2408  block.timestamp */\n      timestamp\n        /* \"DiscoCats.sol\":2393:2431  block.timestamp <= incentivizingPeriod */\n      gt\n      iszero\n        /* \"DiscoCats.sol\":2385:2450  require(block.timestamp <= incentivizingPeriod, \"cant do it now\") */\n      tag_209\n      jumpi\n      mload(0x40)\n      0x08c379a000000000000000000000000000000000000000000000000000000000\n      dup2\n      mstore\n      0x04\n      add\n      tag_210\n      swap1\n      tag_156\n      jump\t// in\n    tag_210:\n      mload(0x40)\n      dup1\n      swap2\n      sub\n      swap1\n      revert\n    tag_209:\n        /* \"DiscoCats.sol\":2484:2485  0 */\n      0x00\n        /* \"DiscoCats.sol\":2469:2481  _tokenAmount */\n      dup2\n        /* \"DiscoCats.sol\":2469:2485  _tokenAmount > 0 */\n      gt\n        /* \"DiscoCats.sol\":2461:2519  require(_tokenAmount > 0, \"Amount must be greater than 0\") */\n      tag_211\n      jumpi\n      mload(0x40)\n      0x08c379a000000000000000000000000000000000000000000000000000000000\n      dup2\n      mstore\n      0x04\n      add\n      tag_212\n      swap1\n      tag_213\n      jump\t// in\n    tag_212:\n      mload(0x40)\n      dup1\n      swap2\n      sub\n      swap1\n      revert\n    tag_211:\n        /* \"DiscoCats.sol\":2597:2609  _tokenAmount */\n      dup1\n        /* \"DiscoCats.sol\":2557:2570  _tokenAddress */\n      dup3\n        /* \"DiscoCats.sol\":2550:2581  IERC20(_tokenAddress).balanceOf */\n      0xffffffffffffffffffffffffffffffffffffffff\n      and\n      0x70a08231\n        /* \"DiscoCats.sol\":2582:2592  msg.sender */\n      caller\n        /* \"DiscoCats.sol\":2550:2593  IERC20(_tokenAddress).balanceOf(msg.sender) */\n      mload(0x40)\n      dup3\n      0xffffffff\n      and\n      0xe0\n      shl\n      dup2\n      mstore\n      0x04\n      add\n      tag_214\n      swap2\n      swap1\n      tag_102\n      jump\t// in\n    tag_214:\n      0x20\n      mload(0x40)\n      dup1\n      dup4\n      sub\n      dup2\n      dup7\n      gas\n      staticcall\n      iszero\n      dup1\n      iszero\n      tag_216\n      jumpi\n      returndatasize\n      0x00\n      dup1\n      returndatacopy\n      revert(0x00, returndatasize)\n    tag_216:\n      pop\n      pop\n      pop\n      pop\n      mload(0x40)\n      returndatasize\n      not(0x1f)\n      0x1f\n      dup3\n      add\n      and\n      dup3\n      add\n      dup1\n      0x40\n      mstore\n      pop\n      dup2\n      add\n      swap1\n      tag_217\n      swap2\n      swap1\n      tag_164\n      jump\t// in\n    tag_217:\n        /* \"DiscoCats.sol\":2550:2609  IERC20(_tokenAddress).balanceOf(msg.sender) >= _tokenAmount */\n      lt\n      iszero\n        /* \"DiscoCats.sol\":2529:2661  require(... */\n      tag_218\n      jumpi\n      mload(0x40)\n      0x08c379a000000000000000000000000000000000000000000000000000000000\n      dup2\n      mstore\n      0x04\n      add\n      tag_219\n      swap1\n      tag_220\n      jump\t// in\n    tag_219:\n      mload(0x40)\n      dup1\n      swap2\n      sub\n      swap1\n      revert\n    tag_218:\n        /* \"DiscoCats.sol\":2700:2713  _tokenAddress */\n      dup2\n        /* \"DiscoCats.sol\":2693:2727  IERC20(_tokenAddress).transferFrom */\n      0xffffffffffffffffffffffffffffffffffffffff\n      and\n      0x23b872dd\n        /* \"DiscoCats.sol\":2745:2755  msg.sender */\n      caller\n        /* \"DiscoCats.sol\":2781:2785  this */\n      address\n        /* \"DiscoCats.sol\":2804:2816  _tokenAmount */\n      dup5\n        /* \"DiscoCats.sol\":2693:2830  IERC20(_tokenAddress).transferFrom(... */\n      mload(0x40)\n      dup5\n      0xffffffff\n      and\n      0xe0\n      shl\n      dup2\n      mstore\n      0x04\n      add\n      tag_221\n      swap4\n      swap3\n      swap2\n      swap1\n      tag_222\n      jump\t// in\n    tag_221:\n      0x20\n      mload(0x40)\n      dup1\n      dup4\n      sub\n      dup2\n      0x00\n      dup8\n      gas\n      call\n      iszero\n      dup1\n      iszero\n      tag_224\n      jumpi\n      returndatasize\n      0x00\n      dup1\n      returndatacopy\n      revert(0x00, returndatasize)\n    tag_224:\n      pop\n      pop\n      pop\n      pop\n      mload(0x40)\n      returndatasize\n      not(0x1f)\n      0x1f\n      dup3\n      add\n      and\n      dup3\n      add\n      dup1\n      0x40\n      mstore\n      pop\n      dup2\n      add\n      swap1\n      tag_225\n      swap2\n      swap1\n      tag_226\n      jump\t// in\n    tag_225:\n        /* \"DiscoCats.sol\":2672:2874  require(... */\n      tag_227\n      jumpi\n      mload(0x40)\n      0x08c379a000000000000000000000000000000000000000000000000000000000\n      dup2\n      mstore\n      0x04\n      add\n      tag_228\n      swap1\n      tag_229\n      jump\t// in\n    tag_228:\n      mload(0x40)\n      dup1\n      swap2\n      sub\n      swap1\n      revert\n    tag_227:\n        /* \"DiscoCats.sol\":2884:2910  Project storage newProject */\n      0x00\n        /* \"DiscoCats.sol\":2913:2921  projects */\n      0x09\n        /* \"DiscoCats.sol\":2913:2925  projects[id] */\n      0x00\n        /* \"DiscoCats.sol\":2922:2924  id */\n      dup6\n        /* \"DiscoCats.sol\":2913:2925  projects[id] */\n      dup2\n      mstore\n      0x20\n      add\n      swap1\n      dup2\n      mstore\n      0x20\n      add\n      0x00\n      keccak256\n        /* \"DiscoCats.sol\":2884:2925  Project storage newProject = projects[id] */\n      swap1\n      pop\n        /* \"DiscoCats.sol\":2935:2953  Briber memory temp */\n      tag_230\n      tag_231\n      jump\t// in\n    tag_230:\n        /* \"DiscoCats.sol\":2984:2994  msg.sender */\n      caller\n        /* \"DiscoCats.sol\":2963:2967  temp */\n      dup2\n        /* \"DiscoCats.sol\":2963:2981  temp.briberAddress */\n      0x00\n      add\n        /* \"DiscoCats.sol\":2963:2994  temp.briberAddress = msg.sender */\n      swap1\n      0xffffffffffffffffffffffffffffffffffffffff\n      and\n      swap1\n      dup2\n      0xffffffffffffffffffffffffffffffffffffffff\n      and\n      dup2\n      mstore\n      pop\n      pop\n        /* \"DiscoCats.sol\":3024:3037  _tokenAddress */\n      dup4\n        /* \"DiscoCats.sol\":3004:3008  temp */\n      dup2\n        /* \"DiscoCats.sol\":3004:3021  temp.tokenAddress */\n      0x20\n      add\n        /* \"DiscoCats.sol\":3004:3037  temp.tokenAddress = _tokenAddress */\n      swap1\n      0xffffffffffffffffffffffffffffffffffffffff\n      and\n      swap1\n      dup2\n      0xffffffffffffffffffffffffffffffffffffffff\n      and\n      dup2\n      mstore\n      pop\n      pop\n        /* \"DiscoCats.sol\":3064:3076  _tokenAmount */\n      dup3\n        /* \"DiscoCats.sol\":3047:3051  temp */\n      dup2\n        /* \"DiscoCats.sol\":3047:3061  temp.tokenAmnt */\n      0x40\n      add\n        /* \"DiscoCats.sol\":3047:3076  temp.tokenAmnt = _tokenAmount */\n      dup2\n      dup2\n      mstore\n      pop\n      pop\n        /* \"DiscoCats.sol\":3086:3096  newProject */\n      dup2\n        /* \"DiscoCats.sol\":3086:3104  newProject.bribers */\n      0x02\n      add\n        /* \"DiscoCats.sol\":3110:3114  temp */\n      dup2\n        /* \"DiscoCats.sol\":3086:3115  newProject.bribers.push(temp) */\n      swap1\n      dup1\n      0x01\n      dup2\n      sload\n      add\n      dup1\n      dup3\n      sstore\n      dup1\n      swap2\n      pop\n      pop\n      0x01\n      swap1\n      sub\n      swap1\n      0x00\n      mstore\n      keccak256(0x00, 0x20)\n      swap1\n      0x03\n      mul\n      add\n      0x00\n      swap1\n      swap2\n      swap1\n      swap2\n      swap1\n      swap2\n      pop\n      0x00\n      dup3\n      add\n      mload\n      dup2\n      0x00\n      add\n      exp(0x0100, 0x00)\n      dup2\n      sload\n      dup2\n      0xffffffffffffffffffffffffffffffffffffffff\n      mul\n      not\n      and\n      swap1\n      dup4\n      0xffffffffffffffffffffffffffffffffffffffff\n      and\n      mul\n      or\n      swap1\n      sstore\n      pop\n      0x20\n      dup3\n      add\n      mload\n      dup2\n      0x01\n      add\n      exp(0x0100, 0x00)\n      dup2\n      sload\n      dup2\n      0xffffffffffffffffffffffffffffffffffffffff\n      mul\n      not\n      and\n      swap1\n      dup4\n      0xffffffffffffffffffffffffffffffffffffffff\n      and\n      mul\n      or\n      swap1\n      sstore\n      pop\n      0x40\n      dup3\n      add\n      mload\n      dup2\n      0x02\n      add\n      sstore\n      pop\n      pop\n        /* \"DiscoCats.sol\":2301:3131  {... */\n      pop\n      pop\n        /* \"DiscoCats.sol\":2179:3131  function incentiviseProject(... */\n      pop\n      pop\n      pop\n      jump\t// out\n        /* \"DiscoCats.sol\":401:432  uint256 public projectCount = 0 */\n    tag_70:\n      sload(0x03)\n      dup2\n      jump\t// out\n        /* \"DiscoCats.sol\":6816:7693  function claim(uint256 _projectId) public {... */\n    tag_75:\n        /* \"DiscoCats.sol\":6964:6976  votingPeriod */\n      sload(0x02)\n        /* \"DiscoCats.sol\":6945:6960  block.timestamp */\n      timestamp\n        /* \"DiscoCats.sol\":6945:6976  block.timestamp >= votingPeriod */\n      lt\n      iszero\n        /* \"DiscoCats.sol\":6937:6995  require(block.timestamp >= votingPeriod, \"cant do it now\") */\n      tag_234\n      jumpi\n      mload(0x40)\n      0x08c379a000000000000000000000000000000000000000000000000000000000\n      dup2\n      mstore\n      0x04\n      add\n      tag_235\n      swap1\n      tag_156\n      jump\t// in\n    tag_235:\n      mload(0x40)\n      dup1\n      swap2\n      sub\n      swap1\n      revert\n    tag_234:\n        /* \"DiscoCats.sol\":7041:7061  getWinnerProjectId() */\n      tag_236\n        /* \"DiscoCats.sol\":7041:7059  getWinnerProjectId */\n      tag_146\n        /* \"DiscoCats.sol\":7041:7061  getWinnerProjectId() */\n      jump\t// in\n    tag_236:\n        /* \"DiscoCats.sol\":7027:7037  _projectId */\n      dup2\n        /* \"DiscoCats.sol\":7027:7061  _projectId != getWinnerProjectId() */\n      sub\n        /* \"DiscoCats.sol\":7006:7112  require(... */\n      tag_237\n      jumpi\n      mload(0x40)\n      0x08c379a000000000000000000000000000000000000000000000000000000000\n      dup2\n      mstore\n      0x04\n      add\n      tag_238\n      swap1\n      tag_239\n      jump\t// in\n    tag_238:\n      mload(0x40)\n      dup1\n      swap2\n      sub\n      swap1\n      revert\n    tag_237:\n        /* \"DiscoCats.sol\":7154:7180  Project storage newProject */\n      0x00\n        /* \"DiscoCats.sol\":7183:7191  projects */\n      0x09\n        /* \"DiscoCats.sol\":7183:7203  projects[_projectId] */\n      0x00\n        /* \"DiscoCats.sol\":7192:7202  _projectId */\n      dup4\n        /* \"DiscoCats.sol\":7183:7203  projects[_projectId] */\n      dup2\n      mstore\n      0x20\n      add\n      swap1\n      dup2\n      mstore\n      0x20\n      add\n      0x00\n      keccak256\n        /* \"DiscoCats.sol\":7154:7203  Project storage newProject = projects[_projectId] */\n      swap1\n      pop\n        /* \"DiscoCats.sol\":7218:7227  uint256 i */\n      0x00\n        /* \"DiscoCats.sol\":7213:7687  for (uint256 i = 0; i < newProject.bribers.length; i++) {... */\n    tag_240:\n        /* \"DiscoCats.sol\":7237:7247  newProject */\n      dup2\n        /* \"DiscoCats.sol\":7237:7255  newProject.bribers */\n      0x02\n      add\n        /* \"DiscoCats.sol\":7237:7262  newProject.bribers.length */\n      dup1\n      sload\n      swap1\n      pop\n        /* \"DiscoCats.sol\":7233:7234  i */\n      dup2\n        /* \"DiscoCats.sol\":7233:7262  i < newProject.bribers.length */\n      lt\n        /* \"DiscoCats.sol\":7213:7687  for (uint256 i = 0; i < newProject.bribers.length; i++) {... */\n      iszero\n      tag_241\n      jumpi\n        /* \"DiscoCats.sol\":7326:7336  msg.sender */\n      caller\n        /* \"DiscoCats.sol\":7287:7336  newProject.bribers[i].briberAddress == msg.sender */\n      0xffffffffffffffffffffffffffffffffffffffff\n      and\n        /* \"DiscoCats.sol\":7287:7297  newProject */\n      dup3\n        /* \"DiscoCats.sol\":7287:7305  newProject.bribers */\n      0x02\n      add\n        /* \"DiscoCats.sol\":7306:7307  i */\n      dup3\n        /* \"DiscoCats.sol\":7287:7308  newProject.bribers[i] */\n      dup2\n      sload\n      dup2\n      lt\n      tag_243\n      jumpi\n      tag_244\n      tag_245\n      jump\t// in\n    tag_244:\n    tag_243:\n      swap1\n      0x00\n      mstore\n      keccak256(0x00, 0x20)\n      swap1\n      0x03\n      mul\n      add\n        /* \"DiscoCats.sol\":7287:7322  newProject.bribers[i].briberAddress */\n      0x00\n      add\n      0x00\n      swap1\n      sload\n      swap1\n      0x0100\n      exp\n      swap1\n      div\n      0xffffffffffffffffffffffffffffffffffffffff\n      and\n        /* \"DiscoCats.sol\":7287:7336  newProject.bribers[i].briberAddress == msg.sender */\n      0xffffffffffffffffffffffffffffffffffffffff\n      and\n      sub\n        /* \"DiscoCats.sol\":7283:7677  if (newProject.bribers[i].briberAddress == msg.sender) {... */\n      tag_247\n      jumpi\n        /* \"DiscoCats.sol\":7392:7402  newProject */\n      dup2\n        /* \"DiscoCats.sol\":7392:7410  newProject.bribers */\n      0x02\n      add\n        /* \"DiscoCats.sol\":7411:7412  i */\n      dup2\n        /* \"DiscoCats.sol\":7392:7413  newProject.bribers[i] */\n      dup2\n      sload\n      dup2\n      lt\n      tag_248\n      jumpi\n      tag_249\n      tag_245\n      jump\t// in\n    tag_249:\n    tag_248:\n      swap1\n      0x00\n      mstore\n      keccak256(0x00, 0x20)\n      swap1\n      0x03\n      mul\n      add\n        /* \"DiscoCats.sol\":7392:7426  newProject.bribers[i].tokenAddress */\n      0x01\n      add\n      0x00\n      swap1\n      sload\n      swap1\n      0x0100\n      exp\n      swap1\n      div\n      0xffffffffffffffffffffffffffffffffffffffff\n      and\n        /* \"DiscoCats.sol\":7385:7436  IERC20(newProject.bribers[i].tokenAddress).transfer */\n      0xffffffffffffffffffffffffffffffffffffffff\n      and\n      0xa9059cbb\n        /* \"DiscoCats.sol\":7462:7472  msg.sender */\n      caller\n        /* \"DiscoCats.sol\":7498:7508  newProject */\n      dup5\n        /* \"DiscoCats.sol\":7498:7516  newProject.bribers */\n      0x02\n      add\n        /* \"DiscoCats.sol\":7517:7518  i */\n      dup5\n        /* \"DiscoCats.sol\":7498:7519  newProject.bribers[i] */\n      dup2\n      sload\n      dup2\n      lt\n      tag_251\n      jumpi\n      tag_252\n      tag_245\n      jump\t// in\n    tag_252:\n    tag_251:\n      swap1\n      0x00\n      mstore\n      keccak256(0x00, 0x20)\n      swap1\n      0x03\n      mul\n      add\n        /* \"DiscoCats.sol\":7498:7529  newProject.bribers[i].tokenAmnt */\n      0x02\n      add\n      sload\n        /* \"DiscoCats.sol\":7385:7551  IERC20(newProject.bribers[i].tokenAddress).transfer(... */\n      mload(0x40)\n      dup4\n      0xffffffff\n      and\n      0xe0\n      shl\n      dup2\n      mstore\n      0x04\n      add\n      tag_254\n      swap3\n      swap2\n      swap1\n      tag_255\n      jump\t// in\n    tag_254:\n      0x20\n      mload(0x40)\n      dup1\n      dup4\n      sub\n      dup2\n      0x00\n      dup8\n      gas\n      call\n      iszero\n      dup1\n      iszero\n      tag_257\n      jumpi\n      returndatasize\n      0x00\n      dup1\n      returndatacopy\n      revert(0x00, returndatasize)\n    tag_257:\n      pop\n      pop\n      pop\n      pop\n      mload(0x40)\n      returndatasize\n      not(0x1f)\n      0x1f\n      dup3\n      add\n      and\n      dup3\n      add\n      dup1\n      0x40\n      mstore\n      pop\n      dup2\n      add\n      swap1\n      tag_258\n      swap2\n      swap1\n      tag_226\n      jump\t// in\n    tag_258:\n        /* \"DiscoCats.sol\":7356:7611  require(... */\n      tag_259\n      jumpi\n      mload(0x40)\n      0x08c379a000000000000000000000000000000000000000000000000000000000\n      dup2\n      mstore\n      0x04\n      add\n      tag_260\n      swap1\n      tag_229\n      jump\t// in\n    tag_260:\n      mload(0x40)\n      dup1\n      swap2\n      sub\n      swap1\n      revert\n    tag_259:\n        /* \"DiscoCats.sol\":7661:7662  0 */\n      0x00\n        /* \"DiscoCats.sol\":7629:7639  newProject */\n      dup3\n        /* \"DiscoCats.sol\":7629:7647  newProject.bribers */\n      0x02\n      add\n        /* \"DiscoCats.sol\":7648:7649  i */\n      dup3\n        /* \"DiscoCats.sol\":7629:7650  newProject.bribers[i] */\n      dup2\n      sload\n      dup2\n      lt\n      tag_261\n      jumpi\n      tag_262\n      tag_245\n      jump\t// in\n    tag_262:\n    tag_261:\n      swap1\n      0x00\n      mstore\n      keccak256(0x00, 0x20)\n      swap1\n      0x03\n      mul\n      add\n        /* \"DiscoCats.sol\":7629:7660  newProject.bribers[i].tokenAmnt */\n      0x02\n      add\n        /* \"DiscoCats.sol\":7629:7662  newProject.bribers[i].tokenAmnt=0 */\n      dup2\n      swap1\n      sstore\n      pop\n        /* \"DiscoCats.sol\":7283:7677  if (newProject.bribers[i].briberAddress == msg.sender) {... */\n    tag_247:\n        /* \"DiscoCats.sol\":7264:7267  i++ */\n      dup1\n      dup1\n      0x01\n      add\n      swap2\n      pop\n      pop\n        /* \"DiscoCats.sol\":7213:7687  for (uint256 i = 0; i < newProject.bribers.length; i++) {... */\n      jump(tag_240)\n    tag_241:\n      pop\n        /* \"DiscoCats.sol\":6858:7693  {... */\n      pop\n        /* \"DiscoCats.sol\":6816:7693  function claim(uint256 _projectId) public {... */\n      pop\n      jump\t// out\n        /* \"DiscoCats.sol\":1180:1222  mapping(uint256 => bool) public tokenVoted */\n    tag_79:\n      mstore(0x20, 0x08)\n      dup1\n      0x00\n      mstore\n      keccak256(0x00, 0x40)\n      0x00\n      swap2\n      pop\n      sload\n      swap1\n      0x0100\n      exp\n      swap1\n      div\n      0xff\n      and\n      dup2\n      jump\t// out\n        /* \"DiscoCats.sol\":328:362  uint256 public incentivizingPeriod */\n    tag_84:\n      sload(0x01)\n      dup2\n      jump\t// out\n        /* \"DiscoCats.sol\":5012:5357  function getStatus() external view returns (uint256 _status) {... */\n    tag_88:\n        /* \"DiscoCats.sol\":5056:5071  uint256 _status */\n      0x00\n        /* \"DiscoCats.sol\":5106:5125  incentivizingPeriod */\n      sload(0x01)\n        /* \"DiscoCats.sol\":5087:5102  block.timestamp */\n      timestamp\n        /* \"DiscoCats.sol\":5087:5125  block.timestamp <= incentivizingPeriod */\n      gt\n        /* \"DiscoCats.sol\":5083:5351  if (block.timestamp <= incentivizingPeriod) {... */\n      tag_265\n      jumpi\n        /* \"DiscoCats.sol\":5148:5149  0 */\n      0x00\n        /* \"DiscoCats.sol\":5141:5149  return 0 */\n      swap1\n      pop\n      jump(tag_264)\n        /* \"DiscoCats.sol\":5083:5351  if (block.timestamp <= incentivizingPeriod) {... */\n    tag_265:\n        /* \"DiscoCats.sol\":5202:5221  incentivizingPeriod */\n      sload(0x01)\n        /* \"DiscoCats.sol\":5183:5198  block.timestamp */\n      timestamp\n        /* \"DiscoCats.sol\":5183:5221  block.timestamp >= incentivizingPeriod */\n      lt\n      iszero\n        /* \"DiscoCats.sol\":5183:5268  block.timestamp >= incentivizingPeriod &&... */\n      dup1\n      iszero\n      tag_267\n      jumpi\n      pop\n        /* \"DiscoCats.sol\":5256:5268  votingPeriod */\n      sload(0x02)\n        /* \"DiscoCats.sol\":5237:5252  block.timestamp */\n      timestamp\n        /* \"DiscoCats.sol\":5237:5268  block.timestamp <= votingPeriod */\n      gt\n      iszero\n        /* \"DiscoCats.sol\":5183:5268  block.timestamp >= incentivizingPeriod &&... */\n    tag_267:\n        /* \"DiscoCats.sol\":5166:5351  if (... */\n      iszero\n      tag_268\n      jumpi\n        /* \"DiscoCats.sol\":5300:5301  1 */\n      0x01\n        /* \"DiscoCats.sol\":5293:5301  return 1 */\n      swap1\n      pop\n      jump(tag_264)\n        /* \"DiscoCats.sol\":5166:5351  if (... */\n    tag_268:\n        /* \"DiscoCats.sol\":5339:5340  2 */\n      0x02\n        /* \"DiscoCats.sol\":5332:5340  return 2 */\n      swap1\n      pop\n        /* \"DiscoCats.sol\":5012:5357  function getStatus() external view returns (uint256 _status) {... */\n    tag_264:\n      swap1\n      jump\t// out\n        /* \"DiscoCats.sol\":6094:6516  function nativebriberInfo(uint256 _projectId)... */\n    tag_93:\n        /* \"DiscoCats.sol\":6187:6198  uint _total */\n      0x00\n        /* \"DiscoCats.sol\":6214:6234  uint totalTokenCount */\n      dup1\n        /* \"DiscoCats.sol\":6235:6236  0 */\n      0x00\n        /* \"DiscoCats.sol\":6214:6236  uint totalTokenCount=0 */\n      swap1\n      pop\n        /* \"DiscoCats.sol\":6246:6272  Project storage newProject */\n      0x00\n        /* \"DiscoCats.sol\":6273:6281  projects */\n      0x09\n        /* \"DiscoCats.sol\":6273:6293  projects[_projectId] */\n      0x00\n        /* \"DiscoCats.sol\":6282:6292  _projectId */\n      dup6\n        /* \"DiscoCats.sol\":6273:6293  projects[_projectId] */\n      dup2\n      mstore\n      0x20\n      add\n      swap1\n      dup2\n      mstore\n      0x20\n      add\n      0x00\n      keccak256\n        /* \"DiscoCats.sol\":6246:6293  Project storage newProject=projects[_projectId] */\n      swap1\n      pop\n        /* \"DiscoCats.sol\":6308:6314  uint i */\n      0x00\n        /* \"DiscoCats.sol\":6303:6476  for (uint i=0; i<newProject.nativeBribers.length; i++) ... */\n    tag_271:\n        /* \"DiscoCats.sol\":6320:6330  newProject */\n      dup2\n        /* \"DiscoCats.sol\":6320:6344  newProject.nativeBribers */\n      0x03\n      add\n        /* \"DiscoCats.sol\":6320:6351  newProject.nativeBribers.length */\n      dup1\n      sload\n      swap1\n      pop\n        /* \"DiscoCats.sol\":6318:6319  i */\n      dup2\n        /* \"DiscoCats.sol\":6318:6351  i<newProject.nativeBribers.length */\n      lt\n        /* \"DiscoCats.sol\":6303:6476  for (uint i=0; i<newProject.nativeBribers.length; i++) ... */\n      iszero\n      tag_272\n      jumpi\n        /* \"DiscoCats.sol\":6415:6425  newProject */\n      dup2\n        /* \"DiscoCats.sol\":6415:6439  newProject.nativeBribers */\n      0x03\n      add\n        /* \"DiscoCats.sol\":6440:6441  i */\n      dup2\n        /* \"DiscoCats.sol\":6415:6442  newProject.nativeBribers[i] */\n      dup2\n      sload\n      dup2\n      lt\n      tag_274\n      jumpi\n      tag_275\n      tag_245\n      jump\t// in\n    tag_275:\n    tag_274:\n      swap1\n      0x00\n      mstore\n      keccak256(0x00, 0x20)\n      swap1\n      0x02\n      mul\n      add\n        /* \"DiscoCats.sol\":6415:6452  newProject.nativeBribers[i].tokenAmnt */\n      0x01\n      add\n      sload\n        /* \"DiscoCats.sol\":6398:6452  totalTokenCount+=newProject.nativeBribers[i].tokenAmnt */\n      dup4\n      tag_277\n      swap2\n      swap1\n      tag_278\n      jump\t// in\n    tag_277:\n      swap3\n      pop\n        /* \"DiscoCats.sol\":6353:6356  i++ */\n      dup1\n      dup1\n      0x01\n      add\n      swap2\n      pop\n      pop\n        /* \"DiscoCats.sol\":6303:6476  for (uint i=0; i<newProject.nativeBribers.length; i++) ... */\n      jump(tag_271)\n    tag_272:\n      pop\n        /* \"DiscoCats.sol\":6493:6508  totalTokenCount */\n      dup2\n        /* \"DiscoCats.sol\":6485:6509  return (totalTokenCount) */\n      swap3\n      pop\n      pop\n      pop\n        /* \"DiscoCats.sol\":6094:6516  function nativebriberInfo(uint256 _projectId)... */\n      swap2\n      swap1\n      pop\n      jump\t// out\n        /* \"@openzeppelin/contracts/access/Ownable.sol\":2293:2394  function renounceOwnership() public virtual onlyOwner {... */\n    tag_97:\n        /* \"@openzeppelin/contracts/access/Ownable.sol\":1531:1544  _checkOwner() */\n      tag_280\n        /* \"@openzeppelin/contracts/access/Ownable.sol\":1531:1542  _checkOwner */\n      tag_192\n        /* \"@openzeppelin/contracts/access/Ownable.sol\":1531:1544  _checkOwner() */\n      jump\t// in\n    tag_280:\n        /* \"@openzeppelin/contracts/access/Ownable.sol\":2357:2387  _transferOwnership(address(0)) */\n      tag_282\n        /* \"@openzeppelin/contracts/access/Ownable.sol\":2384:2385  0 */\n      0x00\n        /* \"@openzeppelin/contracts/access/Ownable.sol\":2357:2375  _transferOwnership */\n      tag_283\n        /* \"@openzeppelin/contracts/access/Ownable.sol\":2357:2387  _transferOwnership(address(0)) */\n      jump\t// in\n    tag_282:\n        /* \"@openzeppelin/contracts/access/Ownable.sol\":2293:2394  function renounceOwnership() public virtual onlyOwner {... */\n      jump\t// out\n        /* \"@openzeppelin/contracts/access/Ownable.sol\":1638:1723  function owner() public view virtual returns (address) {... */\n    tag_100:\n        /* \"@openzeppelin/contracts/access/Ownable.sol\":1684:1691  address */\n      0x00\n        /* \"@openzeppelin/contracts/access/Ownable.sol\":1710:1716  _owner */\n      dup1\n      0x00\n      swap1\n      sload\n      swap1\n      0x0100\n      exp\n      swap1\n      div\n      0xffffffffffffffffffffffffffffffffffffffff\n      and\n        /* \"@openzeppelin/contracts/access/Ownable.sol\":1703:1716  return _owner */\n      swap1\n      pop\n        /* \"@openzeppelin/contracts/access/Ownable.sol\":1638:1723  function owner() public view virtual returns (address) {... */\n      swap1\n      jump\t// out\n        /* \"DiscoCats.sol\":5611:6089  function briberTokenInfo(uint256 _projectId,address _tokenAddress)... */\n    tag_107:\n        /* \"DiscoCats.sol\":5725:5736  uint number */\n      0x00\n        /* \"DiscoCats.sol\":5746:5766  uint totalTokenCount */\n      dup1\n        /* \"DiscoCats.sol\":5767:5768  0 */\n      0x00\n        /* \"DiscoCats.sol\":5746:5768  uint totalTokenCount=0 */\n      swap1\n      pop\n        /* \"DiscoCats.sol\":5778:5804  Project storage newProject */\n      0x00\n        /* \"DiscoCats.sol\":5805:5813  projects */\n      0x09\n        /* \"DiscoCats.sol\":5805:5825  projects[_projectId] */\n      0x00\n        /* \"DiscoCats.sol\":5814:5824  _projectId */\n      dup7\n        /* \"DiscoCats.sol\":5805:5825  projects[_projectId] */\n      dup2\n      mstore\n      0x20\n      add\n      swap1\n      dup2\n      mstore\n      0x20\n      add\n      0x00\n      keccak256\n        /* \"DiscoCats.sol\":5778:5825  Project storage newProject=projects[_projectId] */\n      swap1\n      pop\n        /* \"DiscoCats.sol\":5840:5846  uint i */\n      0x00\n        /* \"DiscoCats.sol\":5835:6051  for (uint i=0; i<newProject.bribers.length; i++) ... */\n    tag_286:\n        /* \"DiscoCats.sol\":5852:5862  newProject */\n      dup2\n        /* \"DiscoCats.sol\":5852:5870  newProject.bribers */\n      0x02\n      add\n        /* \"DiscoCats.sol\":5852:5877  newProject.bribers.length */\n      dup1\n      sload\n      swap1\n      pop\n        /* \"DiscoCats.sol\":5850:5851  i */\n      dup2\n        /* \"DiscoCats.sol\":5850:5877  i<newProject.bribers.length */\n      lt\n        /* \"DiscoCats.sol\":5835:6051  for (uint i=0; i<newProject.bribers.length; i++) ... */\n      iszero\n      tag_287\n      jumpi\n        /* \"DiscoCats.sol\":5946:5959  _tokenAddress */\n      dup5\n        /* \"DiscoCats.sol\":5910:5959  newProject.bribers[i].tokenAddress==_tokenAddress */\n      0xffffffffffffffffffffffffffffffffffffffff\n      and\n        /* \"DiscoCats.sol\":5910:5920  newProject */\n      dup3\n        /* \"DiscoCats.sol\":5910:5928  newProject.bribers */\n      0x02\n      add\n        /* \"DiscoCats.sol\":5929:5930  i */\n      dup3\n        /* \"DiscoCats.sol\":5910:5931  newProject.bribers[i] */\n      dup2\n      sload\n      dup2\n      lt\n      tag_289\n      jumpi\n      tag_290\n      tag_245\n      jump\t// in\n    tag_290:\n    tag_289:\n      swap1\n      0x00\n      mstore\n      keccak256(0x00, 0x20)\n      swap1\n      0x03\n      mul\n      add\n        /* \"DiscoCats.sol\":5910:5944  newProject.bribers[i].tokenAddress */\n      0x01\n      add\n      0x00\n      swap1\n      sload\n      swap1\n      0x0100\n      exp\n      swap1\n      div\n      0xffffffffffffffffffffffffffffffffffffffff\n      and\n        /* \"DiscoCats.sol\":5910:5959  newProject.bribers[i].tokenAddress==_tokenAddress */\n      0xffffffffffffffffffffffffffffffffffffffff\n      and\n      sub\n        /* \"DiscoCats.sol\":5907:6041  if(newProject.bribers[i].tokenAddress==_tokenAddress){... */\n      tag_292\n      jumpi\n        /* \"DiscoCats.sol\":5995:6005  newProject */\n      dup2\n        /* \"DiscoCats.sol\":5995:6013  newProject.bribers */\n      0x02\n      add\n        /* \"DiscoCats.sol\":6014:6015  i */\n      dup2\n        /* \"DiscoCats.sol\":5995:6016  newProject.bribers[i] */\n      dup2\n      sload\n      dup2\n      lt\n      tag_293\n      jumpi\n      tag_294\n      tag_245\n      jump\t// in\n    tag_294:\n    tag_293:\n      swap1\n      0x00\n      mstore\n      keccak256(0x00, 0x20)\n      swap1\n      0x03\n      mul\n      add\n        /* \"DiscoCats.sol\":5995:6026  newProject.bribers[i].tokenAmnt */\n      0x02\n      add\n      sload\n        /* \"DiscoCats.sol\":5978:6026  totalTokenCount+=newProject.bribers[i].tokenAmnt */\n      dup4\n      tag_296\n      swap2\n      swap1\n      tag_278\n      jump\t// in\n    tag_296:\n      swap3\n      pop\n        /* \"DiscoCats.sol\":5907:6041  if(newProject.bribers[i].tokenAddress==_tokenAddress){... */\n    tag_292:\n        /* \"DiscoCats.sol\":5879:5882  i++ */\n      dup1\n      dup1\n      0x01\n      add\n      swap2\n      pop\n      pop\n        /* \"DiscoCats.sol\":5835:6051  for (uint i=0; i<newProject.bribers.length; i++) ... */\n      jump(tag_286)\n    tag_287:\n      pop\n        /* \"DiscoCats.sol\":6067:6082  totalTokenCount */\n      dup2\n        /* \"DiscoCats.sol\":6060:6082  return totalTokenCount */\n      swap3\n      pop\n      pop\n      pop\n        /* \"DiscoCats.sol\":5611:6089  function briberTokenInfo(uint256 _projectId,address _tokenAddress)... */\n      swap3\n      swap2\n      pop\n      pop\n      jump\t// out\n        /* \"DiscoCats.sol\":1061:1102  mapping(address => uint256) public voters */\n    tag_112:\n      mstore(0x20, 0x05)\n      dup1\n      0x00\n      mstore\n      keccak256(0x00, 0x40)\n      0x00\n      swap2\n      pop\n      swap1\n      pop\n      sload\n      dup2\n      jump\t// out\n        /* \"DiscoCats.sol\":438:471  address public nftContractAddress */\n    tag_116:\n      0x04\n      0x00\n      swap1\n      sload\n      swap1\n      0x0100\n      exp\n      swap1\n      div\n      0xffffffffffffffffffffffffffffffffffffffff\n      and\n      dup2\n      jump\t// out\n        /* \"DiscoCats.sol\":8465:8995  function changeState(uint256 _stateNumber) public onlyOwner {... */\n    tag_121:\n        /* \"@openzeppelin/contracts/access/Ownable.sol\":1531:1544  _checkOwner() */\n      tag_298\n        /* \"@openzeppelin/contracts/access/Ownable.sol\":1531:1542  _checkOwner */\n      tag_192\n        /* \"@openzeppelin/contracts/access/Ownable.sol\":1531:1544  _checkOwner() */\n      jump\t// in\n    tag_298:\n        /* \"DiscoCats.sol\":8555:8556  0 */\n      0x00\n        /* \"DiscoCats.sol\":8539:8551  _stateNumber */\n      dup2\n        /* \"DiscoCats.sol\":8539:8556  _stateNumber == 0 */\n      sub\n        /* \"DiscoCats.sol\":8535:8616  if (_stateNumber == 0) {... */\n      tag_300\n      jumpi\n        /* \"DiscoCats.sol\":8581:8605  govtStatus.incentivising */\n      0x00\n        /* \"DiscoCats.sol\":8572:8578  status */\n      0x04\n      0x14\n        /* \"DiscoCats.sol\":8572:8605  status = govtStatus.incentivising */\n      0x0100\n      exp\n      dup2\n      sload\n      dup2\n      0xff\n      mul\n      not\n      and\n      swap1\n      dup4\n      0x02\n      dup2\n      gt\n      iszero\n      tag_301\n      jumpi\n      tag_302\n      tag_303\n      jump\t// in\n    tag_302:\n    tag_301:\n      mul\n      or\n      swap1\n      sstore\n      pop\n        /* \"DiscoCats.sol\":8535:8616  if (_stateNumber == 0) {... */\n    tag_300:\n        /* \"DiscoCats.sol\":8645:8646  1 */\n      0x01\n        /* \"DiscoCats.sol\":8629:8641  _stateNumber */\n      dup2\n        /* \"DiscoCats.sol\":8629:8646  _stateNumber == 1 */\n      sub\n        /* \"DiscoCats.sol\":8625:8699  if (_stateNumber == 1) {... */\n      tag_304\n      jumpi\n        /* \"DiscoCats.sol\":8671:8688  govtStatus.voting */\n      0x01\n        /* \"DiscoCats.sol\":8662:8668  status */\n      0x04\n      0x14\n        /* \"DiscoCats.sol\":8662:8688  status = govtStatus.voting */\n      0x0100\n      exp\n      dup2\n      sload\n      dup2\n      0xff\n      mul\n      not\n      and\n      swap1\n      dup4\n      0x02\n      dup2\n      gt\n      iszero\n      tag_305\n      jumpi\n      tag_306\n      tag_303\n      jump\t// in\n    tag_306:\n    tag_305:\n      mul\n      or\n      swap1\n      sstore\n      pop\n        /* \"DiscoCats.sol\":8625:8699  if (_stateNumber == 1) {... */\n    tag_304:\n        /* \"DiscoCats.sol\":8728:8729  2 */\n      0x02\n        /* \"DiscoCats.sol\":8712:8724  _stateNumber */\n      dup2\n        /* \"DiscoCats.sol\":8712:8729  _stateNumber == 2 */\n      sub\n        /* \"DiscoCats.sol\":8708:8989  if (_stateNumber == 2) {... */\n      tag_307\n      jumpi\n        /* \"DiscoCats.sol\":8959:8978  govtStatus.claiming */\n      0x02\n        /* \"DiscoCats.sol\":8950:8956  status */\n      0x04\n      0x14\n        /* \"DiscoCats.sol\":8950:8978  status = govtStatus.claiming */\n      0x0100\n      exp\n      dup2\n      sload\n      dup2\n      0xff\n      mul\n      not\n      and\n      swap1\n      dup4\n      0x02\n      dup2\n      gt\n      iszero\n      tag_308\n      jumpi\n      tag_309\n      tag_303\n      jump\t// in\n    tag_309:\n    tag_308:\n      mul\n      or\n      swap1\n      sstore\n      pop\n        /* \"DiscoCats.sol\":8708:8989  if (_stateNumber == 2) {... */\n    tag_307:\n        /* \"DiscoCats.sol\":8465:8995  function changeState(uint256 _stateNumber) public onlyOwner {... */\n      pop\n      jump\t// out\n        /* \"DiscoCats.sol\":3136:3775  function incentiviseProject(... */\n    tag_125:\n        /* \"DiscoCats.sol\":3381:3400  incentivizingPeriod */\n      sload(0x01)\n        /* \"DiscoCats.sol\":3362:3377  block.timestamp */\n      timestamp\n        /* \"DiscoCats.sol\":3362:3400  block.timestamp <= incentivizingPeriod */\n      gt\n      iszero\n        /* \"DiscoCats.sol\":3354:3419  require(block.timestamp <= incentivizingPeriod, \"cant do it now\") */\n      tag_311\n      jumpi\n      mload(0x40)\n      0x08c379a000000000000000000000000000000000000000000000000000000000\n      dup2\n      mstore\n      0x04\n      add\n      tag_312\n      swap1\n      tag_156\n      jump\t// in\n    tag_312:\n      mload(0x40)\n      dup1\n      swap2\n      sub\n      swap1\n      revert\n    tag_311:\n        /* \"DiscoCats.sol\":3450:3451  0 */\n      0x00\n        /* \"DiscoCats.sol\":3438:3447  msg.value */\n      callvalue\n        /* \"DiscoCats.sol\":3438:3451  msg.value > 0 */\n      gt\n        /* \"DiscoCats.sol\":3430:3485  require(msg.value > 0, \"Amount must be greater than 0\") */\n      tag_313\n      jumpi\n      mload(0x40)\n      0x08c379a000000000000000000000000000000000000000000000000000000000\n      dup2\n      mstore\n      0x04\n      add\n      tag_314\n      swap1\n      tag_213\n      jump\t// in\n    tag_314:\n      mload(0x40)\n      dup1\n      swap2\n      sub\n      swap1\n      revert\n    tag_313:\n        /* \"DiscoCats.sol\":3504:3530  Project storage newProject */\n      0x00\n        /* \"DiscoCats.sol\":3533:3541  projects */\n      0x09\n        /* \"DiscoCats.sol\":3533:3545  projects[id] */\n      0x00\n        /* \"DiscoCats.sol\":3542:3544  id */\n      dup5\n        /* \"DiscoCats.sol\":3533:3545  projects[id] */\n      dup2\n      mstore\n      0x20\n      add\n      swap1\n      dup2\n      mstore\n      0x20\n      add\n      0x00\n      keccak256\n        /* \"DiscoCats.sol\":3504:3545  Project storage newProject = projects[id] */\n      swap1\n      pop\n        /* \"DiscoCats.sol\":3555:3579  NativeBriber memory temp */\n      tag_315\n      tag_316\n      jump\t// in\n    tag_315:\n        /* \"DiscoCats.sol\":3610:3620  msg.sender */\n      caller\n        /* \"DiscoCats.sol\":3589:3593  temp */\n      dup2\n        /* \"DiscoCats.sol\":3589:3607  temp.briberAddress */\n      0x00\n      add\n        /* \"DiscoCats.sol\":3589:3620  temp.briberAddress = msg.sender */\n      swap1\n      0xffffffffffffffffffffffffffffffffffffffff\n      and\n      swap1\n      dup2\n      0xffffffffffffffffffffffffffffffffffffffff\n      and\n      dup2\n      mstore\n      pop\n      pop\n        /* \"DiscoCats.sol\":3702:3714  _tokenAmount */\n      dup3\n        /* \"DiscoCats.sol\":3685:3689  temp */\n      dup2\n        /* \"DiscoCats.sol\":3685:3699  temp.tokenAmnt */\n      0x20\n      add\n        /* \"DiscoCats.sol\":3685:3714  temp.tokenAmnt = _tokenAmount */\n      dup2\n      dup2\n      mstore\n      pop\n      pop\n        /* \"DiscoCats.sol\":3724:3734  newProject */\n      dup2\n        /* \"DiscoCats.sol\":3724:3748  newProject.nativeBribers */\n      0x03\n      add\n        /* \"DiscoCats.sol\":3754:3758  temp */\n      dup2\n        /* \"DiscoCats.sol\":3724:3759  newProject.nativeBribers.push(temp) */\n      swap1\n      dup1\n      0x01\n      dup2\n      sload\n      add\n      dup1\n      dup3\n      sstore\n      dup1\n      swap2\n      pop\n      pop\n      0x01\n      swap1\n      sub\n      swap1\n      0x00\n      mstore\n      keccak256(0x00, 0x20)\n      swap1\n      0x02\n      mul\n      add\n      0x00\n      swap1\n      swap2\n      swap1\n      swap2\n      swap1\n      swap2\n      pop\n      0x00\n      dup3\n      add\n      mload\n      dup2\n      0x00\n      add\n      exp(0x0100, 0x00)\n      dup2\n      sload\n      dup2\n      0xffffffffffffffffffffffffffffffffffffffff\n      mul\n      not\n      and\n      swap1\n      dup4\n      0xffffffffffffffffffffffffffffffffffffffff\n      and\n      mul\n      or\n      swap1\n      sstore\n      pop\n      0x20\n      dup3\n      add\n      mload\n      dup2\n      0x01\n      add\n      sstore\n      pop\n      pop\n        /* \"DiscoCats.sol\":3270:3775  {... */\n      pop\n      pop\n        /* \"DiscoCats.sol\":3136:3775  function incentiviseProject(... */\n      pop\n      pop\n      jump\t// out\n        /* \"DiscoCats.sol\":5363:5606  function briberInfo(uint256 _projectId)... */\n    tag_129:\n        /* \"DiscoCats.sol\":5450:5474  Briber[] memory _bribers */\n      0x60\n        /* \"DiscoCats.sol\":5475:5511  NativeBriber[] memory _nativebribers */\n      dup1\n        /* \"DiscoCats.sol\":5535:5543  projects */\n      0x09\n        /* \"DiscoCats.sol\":5535:5555  projects[_projectId] */\n      0x00\n        /* \"DiscoCats.sol\":5544:5554  _projectId */\n      dup5\n        /* \"DiscoCats.sol\":5535:5555  projects[_projectId] */\n      dup2\n      mstore\n      0x20\n      add\n      swap1\n      dup2\n      mstore\n      0x20\n      add\n      0x00\n      keccak256\n        /* \"DiscoCats.sol\":5535:5563  projects[_projectId].bribers */\n      0x02\n      add\n        /* \"DiscoCats.sol\":5564:5572  projects */\n      0x09\n        /* \"DiscoCats.sol\":5564:5584  projects[_projectId] */\n      0x00\n        /* \"DiscoCats.sol\":5573:5583  _projectId */\n      dup6\n        /* \"DiscoCats.sol\":5564:5584  projects[_projectId] */\n      dup2\n      mstore\n      0x20\n      add\n      swap1\n      dup2\n      mstore\n      0x20\n      add\n      0x00\n      keccak256\n        /* \"DiscoCats.sol\":5564:5598  projects[_projectId].nativeBribers */\n      0x03\n      add\n        /* \"DiscoCats.sol\":5527:5599  return (projects[_projectId].bribers,projects[_projectId].nativeBribers) */\n      dup2\n      dup1\n      sload\n      dup1\n      0x20\n      mul\n      0x20\n      add\n      mload(0x40)\n      swap1\n      dup2\n      add\n      0x40\n      mstore\n      dup1\n      swap3\n      swap2\n      swap1\n      dup2\n      dup2\n      mstore\n      0x20\n      add\n      0x00\n      swap1\n    tag_319:\n      dup3\n      dup3\n      lt\n      iszero\n      tag_320\n      jumpi\n      dup4\n      dup3\n      swap1\n      0x00\n      mstore\n      keccak256(0x00, 0x20)\n      swap1\n      0x03\n      mul\n      add\n      mload(0x40)\n      dup1\n      0x60\n      add\n      0x40\n      mstore\n      swap1\n      dup2\n      0x00\n      dup3\n      add\n      0x00\n      swap1\n      sload\n      swap1\n      0x0100\n      exp\n      swap1\n      div\n      0xffffffffffffffffffffffffffffffffffffffff\n      and\n      0xffffffffffffffffffffffffffffffffffffffff\n      and\n      0xffffffffffffffffffffffffffffffffffffffff\n      and\n      dup2\n      mstore\n      0x20\n      add\n      0x01\n      dup3\n      add\n      0x00\n      swap1\n      sload\n      swap1\n      0x0100\n      exp\n      swap1\n      div\n      0xffffffffffffffffffffffffffffffffffffffff\n      and\n      0xffffffffffffffffffffffffffffffffffffffff\n      and\n      0xffffffffffffffffffffffffffffffffffffffff\n      and\n      dup2\n      mstore\n      0x20\n      add\n      0x02\n      dup3\n      add\n      sload\n      dup2\n      mstore\n      pop\n      pop\n      dup2\n      mstore\n      0x20\n      add\n      swap1\n      0x01\n      add\n      swap1\n      jump(tag_319)\n    tag_320:\n      pop\n      pop\n      pop\n      pop\n      swap2\n      pop\n      dup1\n      dup1\n      sload\n      dup1\n      0x20\n      mul\n      0x20\n      add\n      mload(0x40)\n      swap1\n      dup2\n      add\n      0x40\n      mstore\n      dup1\n      swap3\n      swap2\n      swap1\n      dup2\n      dup2\n      mstore\n      0x20\n      add\n      0x00\n      swap1\n    tag_322:\n      dup3\n      dup3\n      lt\n      iszero\n      tag_323\n      jumpi\n      dup4\n      dup3\n      swap1\n      0x00\n      mstore\n      keccak256(0x00, 0x20)\n      swap1\n      0x02\n      mul\n      add\n      mload(0x40)\n      dup1\n      0x40\n      add\n      0x40\n      mstore\n      swap1\n      dup2\n      0x00\n      dup3\n      add\n      0x00\n      swap1\n      sload\n      swap1\n      0x0100\n      exp\n      swap1\n      div\n      0xffffffffffffffffffffffffffffffffffffffff\n      and\n      0xffffffffffffffffffffffffffffffffffffffff\n      and\n      0xffffffffffffffffffffffffffffffffffffffff\n      and\n      dup2\n      mstore\n      0x20\n      add\n      0x01\n      dup3\n      add\n      sload\n      dup2\n      mstore\n      pop\n      pop\n      dup2\n      mstore\n      0x20\n      add\n      swap1\n      0x01\n      add\n      swap1\n      jump(tag_322)\n    tag_323:\n      pop\n      pop\n      pop\n      pop\n      swap1\n      pop\n      swap2\n      pop\n      swap2\n      pop\n        /* \"DiscoCats.sol\":5363:5606  function briberInfo(uint256 _projectId)... */\n      swap2\n      pop\n      swap2\n      jump\t// out\n        /* \"DiscoCats.sol\":4913:5006  function changelastTokenId(uint256 _id) external onlyOwner {... */\n    tag_135:\n        /* \"@openzeppelin/contracts/access/Ownable.sol\":1531:1544  _checkOwner() */\n      tag_326\n        /* \"@openzeppelin/contracts/access/Ownable.sol\":1531:1542  _checkOwner */\n      tag_192\n        /* \"@openzeppelin/contracts/access/Ownable.sol\":1531:1544  _checkOwner() */\n      jump\t// in\n    tag_326:\n        /* \"DiscoCats.sol\":4996:4999  _id */\n      dup1\n        /* \"DiscoCats.sol\":4982:4993  lastTokenId */\n      0x07\n        /* \"DiscoCats.sol\":4982:4999  lastTokenId = _id */\n      dup2\n      swap1\n      sstore\n      pop\n        /* \"DiscoCats.sol\":4913:5006  function changelastTokenId(uint256 _id) external onlyOwner {... */\n      pop\n      jump\t// out\n        /* \"DiscoCats.sol\":7699:8459  function withdrawWinnerProject(address _receiver) public onlyOwner {... */\n    tag_139:\n        /* \"@openzeppelin/contracts/access/Ownable.sol\":1531:1544  _checkOwner() */\n      tag_329\n        /* \"@openzeppelin/contracts/access/Ownable.sol\":1531:1542  _checkOwner */\n      tag_192\n        /* \"@openzeppelin/contracts/access/Ownable.sol\":1531:1544  _checkOwner() */\n      jump\t// in\n    tag_329:\n        /* \"DiscoCats.sol\":7872:7884  votingPeriod */\n      sload(0x02)\n        /* \"DiscoCats.sol\":7853:7868  block.timestamp */\n      timestamp\n        /* \"DiscoCats.sol\":7853:7884  block.timestamp >= votingPeriod */\n      lt\n      iszero\n        /* \"DiscoCats.sol\":7845:7903  require(block.timestamp >= votingPeriod, \"cant do it now\") */\n      tag_331\n      jumpi\n      mload(0x40)\n      0x08c379a000000000000000000000000000000000000000000000000000000000\n      dup2\n      mstore\n      0x04\n      add\n      tag_332\n      swap1\n      tag_156\n      jump\t// in\n    tag_332:\n      mload(0x40)\n      dup1\n      swap2\n      sub\n      swap1\n      revert\n    tag_331:\n        /* \"DiscoCats.sol\":7989:8005  uint256 winnerId */\n      0x00\n        /* \"DiscoCats.sol\":8008:8028  getWinnerProjectId() */\n      tag_333\n        /* \"DiscoCats.sol\":8008:8026  getWinnerProjectId */\n      tag_146\n        /* \"DiscoCats.sol\":8008:8028  getWinnerProjectId() */\n      jump\t// in\n    tag_333:\n        /* \"DiscoCats.sol\":7989:8028  uint256 winnerId = getWinnerProjectId() */\n      swap1\n      pop\n        /* \"DiscoCats.sol\":8038:8064  Project storage newProject */\n      0x00\n        /* \"DiscoCats.sol\":8067:8075  projects */\n      0x09\n        /* \"DiscoCats.sol\":8067:8085  projects[winnerId] */\n      0x00\n        /* \"DiscoCats.sol\":8076:8084  winnerId */\n      dup4\n        /* \"DiscoCats.sol\":8067:8085  projects[winnerId] */\n      dup2\n      mstore\n      0x20\n      add\n      swap1\n      dup2\n      mstore\n      0x20\n      add\n      0x00\n      keccak256\n        /* \"DiscoCats.sol\":8038:8085  Project storage newProject = projects[winnerId] */\n      swap1\n      pop\n        /* \"DiscoCats.sol\":8100:8109  uint256 i */\n      0x00\n        /* \"DiscoCats.sol\":8095:8453  for (uint256 i = 0; i < newProject.bribers.length; i++) {... */\n    tag_334:\n        /* \"DiscoCats.sol\":8119:8129  newProject */\n      dup2\n        /* \"DiscoCats.sol\":8119:8137  newProject.bribers */\n      0x02\n      add\n        /* \"DiscoCats.sol\":8119:8144  newProject.bribers.length */\n      dup1\n      sload\n      swap1\n      pop\n        /* \"DiscoCats.sol\":8115:8116  i */\n      dup2\n        /* \"DiscoCats.sol\":8115:8144  i < newProject.bribers.length */\n      lt\n        /* \"DiscoCats.sol\":8095:8453  for (uint256 i = 0; i < newProject.bribers.length; i++) {... */\n      iszero\n      tag_335\n      jumpi\n        /* \"DiscoCats.sol\":8197:8207  newProject */\n      dup2\n        /* \"DiscoCats.sol\":8197:8215  newProject.bribers */\n      0x02\n      add\n        /* \"DiscoCats.sol\":8216:8217  i */\n      dup2\n        /* \"DiscoCats.sol\":8197:8218  newProject.bribers[i] */\n      dup2\n      sload\n      dup2\n      lt\n      tag_337\n      jumpi\n      tag_338\n      tag_245\n      jump\t// in\n    tag_338:\n    tag_337:\n      swap1\n      0x00\n      mstore\n      keccak256(0x00, 0x20)\n      swap1\n      0x03\n      mul\n      add\n        /* \"DiscoCats.sol\":8197:8231  newProject.bribers[i].tokenAddress */\n      0x01\n      add\n      0x00\n      swap1\n      sload\n      swap1\n      0x0100\n      exp\n      swap1\n      div\n      0xffffffffffffffffffffffffffffffffffffffff\n      and\n        /* \"DiscoCats.sol\":8190:8241  IERC20(newProject.bribers[i].tokenAddress).transfer */\n      0xffffffffffffffffffffffffffffffffffffffff\n      and\n      0xa9059cbb\n        /* \"DiscoCats.sol\":8263:8272  _receiver */\n      dup6\n        /* \"DiscoCats.sol\":8294:8304  newProject */\n      dup5\n        /* \"DiscoCats.sol\":8294:8312  newProject.bribers */\n      0x02\n      add\n        /* \"DiscoCats.sol\":8313:8314  i */\n      dup5\n        /* \"DiscoCats.sol\":8294:8315  newProject.bribers[i] */\n      dup2\n      sload\n      dup2\n      lt\n      tag_340\n      jumpi\n      tag_341\n      tag_245\n      jump\t// in\n    tag_341:\n    tag_340:\n      swap1\n      0x00\n      mstore\n      keccak256(0x00, 0x20)\n      swap1\n      0x03\n      mul\n      add\n        /* \"DiscoCats.sol\":8294:8325  newProject.bribers[i].tokenAmnt */\n      0x02\n      add\n      sload\n        /* \"DiscoCats.sol\":8190:8343  IERC20(newProject.bribers[i].tokenAddress).transfer(... */\n      mload(0x40)\n      dup4\n      0xffffffff\n      and\n      0xe0\n      shl\n      dup2\n      mstore\n      0x04\n      add\n      tag_343\n      swap3\n      swap2\n      swap1\n      tag_255\n      jump\t// in\n    tag_343:\n      0x20\n      mload(0x40)\n      dup1\n      dup4\n      sub\n      dup2\n      0x00\n      dup8\n      gas\n      call\n      iszero\n      dup1\n      iszero\n      tag_345\n      jumpi\n      returndatasize\n      0x00\n      dup1\n      returndatacopy\n      revert(0x00, returndatasize)\n    tag_345:\n      pop\n      pop\n      pop\n      pop\n      mload(0x40)\n      returndatasize\n      not(0x1f)\n      0x1f\n      dup3\n      add\n      and\n      dup3\n      add\n      dup1\n      0x40\n      mstore\n      pop\n      dup2\n      add\n      swap1\n      tag_346\n      swap2\n      swap1\n      tag_226\n      jump\t// in\n    tag_346:\n        /* \"DiscoCats.sol\":8165:8395  require(... */\n      tag_347\n      jumpi\n      mload(0x40)\n      0x08c379a000000000000000000000000000000000000000000000000000000000\n      dup2\n      mstore\n      0x04\n      add\n      tag_348\n      swap1\n      tag_229\n      jump\t// in\n    tag_348:\n      mload(0x40)\n      dup1\n      swap2\n      sub\n      swap1\n      revert\n    tag_347:\n        /* \"DiscoCats.sol\":8441:8442  0 */\n      0x00\n        /* \"DiscoCats.sol\":8409:8419  newProject */\n      dup3\n        /* \"DiscoCats.sol\":8409:8427  newProject.bribers */\n      0x02\n      add\n        /* \"DiscoCats.sol\":8428:8429  i */\n      dup3\n        /* \"DiscoCats.sol\":8409:8430  newProject.bribers[i] */\n      dup2\n      sload\n      dup2\n      lt\n      tag_349\n      jumpi\n      tag_350\n      tag_245\n      jump\t// in\n    tag_350:\n    tag_349:\n      swap1\n      0x00\n      mstore\n      keccak256(0x00, 0x20)\n      swap1\n      0x03\n      mul\n      add\n        /* \"DiscoCats.sol\":8409:8440  newProject.bribers[i].tokenAmnt */\n      0x02\n      add\n        /* \"DiscoCats.sol\":8409:8442  newProject.bribers[i].tokenAmnt=0 */\n      dup2\n      swap1\n      sstore\n      pop\n        /* \"DiscoCats.sol\":8146:8149  i++ */\n      dup1\n      dup1\n      0x01\n      add\n      swap2\n      pop\n      pop\n        /* \"DiscoCats.sol\":8095:8453  for (uint256 i = 0; i < newProject.bribers.length; i++) {... */\n      jump(tag_334)\n    tag_335:\n      pop\n        /* \"DiscoCats.sol\":7766:8459  {... */\n      pop\n      pop\n        /* \"DiscoCats.sol\":7699:8459  function withdrawWinnerProject(address _receiver) public onlyOwner {... */\n      pop\n      jump\t// out\n        /* \"@openzeppelin/contracts/access/Ownable.sol\":2543:2758  function transferOwnership(address newOwner) public virtual onlyOwner {... */\n    tag_143:\n        /* \"@openzeppelin/contracts/access/Ownable.sol\":1531:1544  _checkOwner() */\n      tag_353\n        /* \"@openzeppelin/contracts/access/Ownable.sol\":1531:1542  _checkOwner */\n      tag_192\n        /* \"@openzeppelin/contracts/access/Ownable.sol\":1531:1544  _checkOwner() */\n      jump\t// in\n    tag_353:\n        /* \"@openzeppelin/contracts/access/Ownable.sol\":2647:2648  0 */\n      0x00\n        /* \"@openzeppelin/contracts/access/Ownable.sol\":2627:2649  newOwner == address(0) */\n      0xffffffffffffffffffffffffffffffffffffffff\n      and\n        /* \"@openzeppelin/contracts/access/Ownable.sol\":2627:2635  newOwner */\n      dup2\n        /* \"@openzeppelin/contracts/access/Ownable.sol\":2627:2649  newOwner == address(0) */\n      0xffffffffffffffffffffffffffffffffffffffff\n      and\n      sub\n        /* \"@openzeppelin/contracts/access/Ownable.sol\":2623:2714  if (newOwner == address(0)) {... */\n      tag_355\n      jumpi\n        /* \"@openzeppelin/contracts/access/Ownable.sol\":2700:2701  0 */\n      0x00\n        /* \"@openzeppelin/contracts/access/Ownable.sol\":2672:2703  OwnableInvalidOwner(address(0)) */\n      mload(0x40)\n      0x1e4fbdf700000000000000000000000000000000000000000000000000000000\n      dup2\n      mstore\n      0x04\n      add\n      tag_356\n      swap2\n      swap1\n      tag_102\n      jump\t// in\n    tag_356:\n      mload(0x40)\n      dup1\n      swap2\n      sub\n      swap1\n      revert\n        /* \"@openzeppelin/contracts/access/Ownable.sol\":2623:2714  if (newOwner == address(0)) {... */\n    tag_355:\n        /* \"@openzeppelin/contracts/access/Ownable.sol\":2723:2751  _transferOwnership(newOwner) */\n      tag_357\n        /* \"@openzeppelin/contracts/access/Ownable.sol\":2742:2750  newOwner */\n      dup2\n        /* \"@openzeppelin/contracts/access/Ownable.sol\":2723:2741  _transferOwnership */\n      tag_283\n        /* \"@openzeppelin/contracts/access/Ownable.sol\":2723:2751  _transferOwnership(newOwner) */\n      jump\t// in\n    tag_357:\n        /* \"@openzeppelin/contracts/access/Ownable.sol\":2543:2758  function transferOwnership(address newOwner) public virtual onlyOwner {... */\n      pop\n      jump\t// out\n        /* \"DiscoCats.sol\":9001:9315  function getWinnerProjectId() public view returns (uint256 _id) {... */\n    tag_146:\n        /* \"DiscoCats.sol\":9052:9063  uint256 _id */\n      0x00\n        /* \"DiscoCats.sol\":9075:9099  uint256 _winnerProjectId */\n      dup1\n        /* \"DiscoCats.sol\":9102:9103  1 */\n      0x01\n        /* \"DiscoCats.sol\":9075:9103  uint256 _winnerProjectId = 1 */\n      swap1\n      pop\n        /* \"DiscoCats.sol\":9118:9127  uint256 i */\n      0x00\n        /* \"DiscoCats.sol\":9130:9131  1 */\n      0x01\n        /* \"DiscoCats.sol\":9118:9131  uint256 i = 1 */\n      swap1\n      pop\n        /* \"DiscoCats.sol\":9113:9276  for (uint256 i = 1; i <= projectCount; i++) {... */\n    tag_359:\n        /* \"DiscoCats.sol\":9138:9150  projectCount */\n      sload(0x03)\n        /* \"DiscoCats.sol\":9133:9134  i */\n      dup2\n        /* \"DiscoCats.sol\":9133:9150  i <= projectCount */\n      gt\n        /* \"DiscoCats.sol\":9113:9276  for (uint256 i = 1; i <= projectCount; i++) {... */\n      tag_360\n      jumpi\n        /* \"DiscoCats.sol\":9195:9211  _winnerProjectId */\n      dup2\n        /* \"DiscoCats.sol\":9175:9183  projects */\n      0x09\n        /* \"DiscoCats.sol\":9175:9186  projects[i] */\n      0x00\n        /* \"DiscoCats.sol\":9184:9185  i */\n      dup4\n        /* \"DiscoCats.sol\":9175:9186  projects[i] */\n      dup2\n      mstore\n      0x20\n      add\n      swap1\n      dup2\n      mstore\n      0x20\n      add\n      0x00\n      keccak256\n        /* \"DiscoCats.sol\":9175:9192  projects[i].votes */\n      0x04\n      add\n      sload\n        /* \"DiscoCats.sol\":9175:9211  projects[i].votes > _winnerProjectId */\n      gt\n        /* \"DiscoCats.sol\":9171:9266  if (projects[i].votes > _winnerProjectId) {... */\n      iszero\n      tag_362\n      jumpi\n        /* \"DiscoCats.sol\":9250:9251  i */\n      dup1\n        /* \"DiscoCats.sol\":9231:9251  _winnerProjectId = i */\n      swap2\n      pop\n        /* \"DiscoCats.sol\":9171:9266  if (projects[i].votes > _winnerProjectId) {... */\n    tag_362:\n        /* \"DiscoCats.sol\":9152:9155  i++ */\n      dup1\n      dup1\n      tag_363\n      swap1\n      tag_186\n      jump\t// in\n    tag_363:\n      swap2\n      pop\n      pop\n        /* \"DiscoCats.sol\":9113:9276  for (uint256 i = 1; i <= projectCount; i++) {... */\n      jump(tag_359)\n    tag_360:\n      pop\n        /* \"DiscoCats.sol\":9292:9308  _winnerProjectId */\n      dup1\n        /* \"DiscoCats.sol\":9285:9308  return _winnerProjectId */\n      swap2\n      pop\n      pop\n        /* \"DiscoCats.sol\":9001:9315  function getWinnerProjectId() public view returns (uint256 _id) {... */\n      swap1\n      jump\t// out\n        /* \"DiscoCats.sol\":1143:1174  uint256 public lastTokenId = 10 */\n    tag_150:\n      sload(0x07)\n      dup2\n      jump\t// out\n        /* \"@openzeppelin/contracts/access/Ownable.sol\":1796:1958  function _checkOwner() internal view virtual {... */\n    tag_192:\n        /* \"@openzeppelin/contracts/access/Ownable.sol\":1866:1878  _msgSender() */\n      tag_365\n        /* \"@openzeppelin/contracts/access/Ownable.sol\":1866:1876  _msgSender */\n      tag_366\n        /* \"@openzeppelin/contracts/access/Ownable.sol\":1866:1878  _msgSender() */\n      jump\t// in\n    tag_365:\n        /* \"@openzeppelin/contracts/access/Ownable.sol\":1855:1878  owner() != _msgSender() */\n      0xffffffffffffffffffffffffffffffffffffffff\n      and\n        /* \"@openzeppelin/contracts/access/Ownable.sol\":1855:1862  owner() */\n      tag_367\n        /* \"@openzeppelin/contracts/access/Ownable.sol\":1855:1860  owner */\n      tag_100\n        /* \"@openzeppelin/contracts/access/Ownable.sol\":1855:1862  owner() */\n      jump\t// in\n    tag_367:\n        /* \"@openzeppelin/contracts/access/Ownable.sol\":1855:1878  owner() != _msgSender() */\n      0xffffffffffffffffffffffffffffffffffffffff\n      and\n      eq\n        /* \"@openzeppelin/contracts/access/Ownable.sol\":1851:1952  if (owner() != _msgSender()) {... */\n      tag_368\n      jumpi\n        /* \"@openzeppelin/contracts/access/Ownable.sol\":1928:1940  _msgSender() */\n      tag_369\n        /* \"@openzeppelin/contracts/access/Ownable.sol\":1928:1938  _msgSender */\n      tag_366\n        /* \"@openzeppelin/contracts/access/Ownable.sol\":1928:1940  _msgSender() */\n      jump\t// in\n    tag_369:\n        /* \"@openzeppelin/contracts/access/Ownable.sol\":1901:1941  OwnableUnauthorizedAccount(_msgSender()) */\n      mload(0x40)\n      0x118cdaa700000000000000000000000000000000000000000000000000000000\n      dup2\n      mstore\n      0x04\n      add\n      tag_370\n      swap2\n      swap1\n      tag_102\n      jump\t// in\n    tag_370:\n      mload(0x40)\n      dup1\n      swap2\n      sub\n      swap1\n      revert\n        /* \"@openzeppelin/contracts/access/Ownable.sol\":1851:1952  if (owner() != _msgSender()) {... */\n    tag_368:\n        /* \"@openzeppelin/contracts/access/Ownable.sol\":1796:1958  function _checkOwner() internal view virtual {... */\n      jump\t// out\n        /* \"@openzeppelin/contracts/access/Ownable.sol\":2912:3099  function _transferOwnership(address newOwner) internal virtual {... */\n    tag_283:\n        /* \"@openzeppelin/contracts/access/Ownable.sol\":2985:3001  address oldOwner */\n      0x00\n        /* \"@openzeppelin/contracts/access/Ownable.sol\":3004:3010  _owner */\n      dup1\n      0x00\n      swap1\n      sload\n      swap1\n      0x0100\n      exp\n      swap1\n      div\n      0xffffffffffffffffffffffffffffffffffffffff\n      and\n        /* \"@openzeppelin/contracts/access/Ownable.sol\":2985:3010  address oldOwner = _owner */\n      swap1\n      pop\n        /* \"@openzeppelin/contracts/access/Ownable.sol\":3029:3037  newOwner */\n      dup2\n        /* \"@openzeppelin/contracts/access/Ownable.sol\":3020:3026  _owner */\n      0x00\n      dup1\n        /* \"@openzeppelin/contracts/access/Ownable.sol\":3020:3037  _owner = newOwner */\n      0x0100\n      exp\n      dup2\n      sload\n      dup2\n      0xffffffffffffffffffffffffffffffffffffffff\n      mul\n      not\n      and\n      swap1\n      dup4\n      0xffffffffffffffffffffffffffffffffffffffff\n      and\n      mul\n      or\n      swap1\n      sstore\n      pop\n        /* \"@openzeppelin/contracts/access/Ownable.sol\":3083:3091  newOwner */\n      dup2\n        /* \"@openzeppelin/contracts/access/Ownable.sol\":3052:3092  OwnershipTransferred(oldOwner, newOwner) */\n      0xffffffffffffffffffffffffffffffffffffffff\n      and\n        /* \"@openzeppelin/contracts/access/Ownable.sol\":3073:3081  oldOwner */\n      dup2\n        /* \"@openzeppelin/contracts/access/Ownable.sol\":3052:3092  OwnershipTransferred(oldOwner, newOwner) */\n      0xffffffffffffffffffffffffffffffffffffffff\n      and\n      0x8be0079c531659141344cd1fd0a4f28419497f9722a3daafe3b4186f6b6457e0\n      mload(0x40)\n      mload(0x40)\n      dup1\n      swap2\n      sub\n      swap1\n      log3\n        /* \"@openzeppelin/contracts/access/Ownable.sol\":2975:3099  {... */\n      pop\n        /* \"@openzeppelin/contracts/access/Ownable.sol\":2912:3099  function _transferOwnership(address newOwner) internal virtual {... */\n      pop\n      jump\t// out\n        /* \"@openzeppelin/contracts/utils/Context.sol\":656:752  function _msgSender() internal view virtual returns (address) {... */\n    tag_366:\n        /* \"@openzeppelin/contracts/utils/Context.sol\":709:716  address */\n      0x00\n        /* \"@openzeppelin/contracts/utils/Context.sol\":735:745  msg.sender */\n      caller\n        /* \"@openzeppelin/contracts/utils/Context.sol\":728:745  return msg.sender */\n      swap1\n      pop\n        /* \"@openzeppelin/contracts/utils/Context.sol\":656:752  function _msgSender() internal view virtual returns (address) {... */\n      swap1\n      jump\t// out\n    tag_231:\n      mload(0x40)\n      dup1\n      0x60\n      add\n      0x40\n      mstore\n      dup1\n      and(0xffffffffffffffffffffffffffffffffffffffff, 0x00)\n      dup2\n      mstore\n      0x20\n      add\n      and(0xffffffffffffffffffffffffffffffffffffffff, 0x00)\n      dup2\n      mstore\n      0x20\n      add\n      0x00\n      dup2\n      mstore\n      pop\n      swap1\n      jump\t// out\n    tag_316:\n      mload(0x40)\n      dup1\n      0x40\n      add\n      0x40\n      mstore\n      dup1\n      and(0xffffffffffffffffffffffffffffffffffffffff, 0x00)\n      dup2\n      mstore\n      0x20\n      add\n      0x00\n      dup2\n      mstore\n      pop\n      swap1\n      jump\t// out\n        /* \"#utility.yul\":7:82   */\n    tag_373:\n        /* \"#utility.yul\":40:46   */\n      0x00\n        /* \"#utility.yul\":73:75   */\n      0x40\n        /* \"#utility.yul\":67:76   */\n      mload\n        /* \"#utility.yul\":57:76   */\n      swap1\n      pop\n        /* \"#utility.yul\":7:82   */\n      swap1\n      jump\t// out\n        /* \"#utility.yul\":88:205   */\n    tag_374:\n        /* \"#utility.yul\":197:198   */\n      0x00\n        /* \"#utility.yul\":194:195   */\n      dup1\n        /* \"#utility.yul\":187:199   */\n      revert\n        /* \"#utility.yul\":211:328   */\n    tag_375:\n        /* \"#utility.yul\":320:321   */\n      0x00\n        /* \"#utility.yul\":317:318   */\n      dup1\n        /* \"#utility.yul\":310:322   */\n      revert\n        /* \"#utility.yul\":334:411   */\n    tag_376:\n        /* \"#utility.yul\":371:378   */\n      0x00\n        /* \"#utility.yul\":400:405   */\n      dup2\n        /* \"#utility.yul\":389:405   */\n      swap1\n      pop\n        /* \"#utility.yul\":334:411   */\n      swap2\n      swap1\n      pop\n      jump\t// out\n        /* \"#utility.yul\":417:539   */\n    tag_377:\n        /* \"#utility.yul\":490:514   */\n      tag_460\n        /* \"#utility.yul\":508:513   */\n      dup2\n        /* \"#utility.yul\":490:514   */\n      tag_376\n      jump\t// in\n    tag_460:\n        /* \"#utility.yul\":483:488   */\n      dup2\n        /* \"#utility.yul\":480:515   */\n      eq\n        /* \"#utility.yul\":470:533   */\n      tag_461\n      jumpi\n        /* \"#utility.yul\":529:530   */\n      0x00\n        /* \"#utility.yul\":526:527   */\n      dup1\n        /* \"#utility.yul\":519:531   */\n      revert\n        /* \"#utility.yul\":470:533   */\n    tag_461:\n        /* \"#utility.yul\":417:539   */\n      pop\n      jump\t// out\n        /* \"#utility.yul\":545:684   */\n    tag_378:\n        /* \"#utility.yul\":591:596   */\n      0x00\n        /* \"#utility.yul\":629:635   */\n      dup2\n        /* \"#utility.yul\":616:636   */\n      calldataload\n        /* \"#utility.yul\":607:636   */\n      swap1\n      pop\n        /* \"#utility.yul\":645:678   */\n      tag_463\n        /* \"#utility.yul\":672:677   */\n      dup2\n        /* \"#utility.yul\":645:678   */\n      tag_377\n      jump\t// in\n    tag_463:\n        /* \"#utility.yul\":545:684   */\n      swap3\n      swap2\n      pop\n      pop\n      jump\t// out\n        /* \"#utility.yul\":690:1019   */\n    tag_36:\n        /* \"#utility.yul\":749:755   */\n      0x00\n        /* \"#utility.yul\":798:800   */\n      0x20\n        /* \"#utility.yul\":786:795   */\n      dup3\n        /* \"#utility.yul\":777:784   */\n      dup5\n        /* \"#utility.yul\":773:796   */\n      sub\n        /* \"#utility.yul\":769:801   */\n      slt\n        /* \"#utility.yul\":766:885   */\n      iszero\n      tag_465\n      jumpi\n        /* \"#utility.yul\":804:883   */\n      tag_466\n      tag_374\n      jump\t// in\n    tag_466:\n        /* \"#utility.yul\":766:885   */\n    tag_465:\n        /* \"#utility.yul\":924:925   */\n      0x00\n        /* \"#utility.yul\":949:1002   */\n      tag_467\n        /* \"#utility.yul\":994:1001   */\n      dup5\n        /* \"#utility.yul\":985:991   */\n      dup3\n        /* \"#utility.yul\":974:983   */\n      dup6\n        /* \"#utility.yul\":970:992   */\n      add\n        /* \"#utility.yul\":949:1002   */\n      tag_378\n      jump\t// in\n    tag_467:\n        /* \"#utility.yul\":939:1002   */\n      swap2\n      pop\n        /* \"#utility.yul\":895:1012   */\n      pop\n        /* \"#utility.yul\":690:1019   */\n      swap3\n      swap2\n      pop\n      pop\n      jump\t// out\n        /* \"#utility.yul\":1025:1143   */\n    tag_379:\n        /* \"#utility.yul\":1112:1136   */\n      tag_469\n        /* \"#utility.yul\":1130:1135   */\n      dup2\n        /* \"#utility.yul\":1112:1136   */\n      tag_376\n      jump\t// in\n    tag_469:\n        /* \"#utility.yul\":1107:1110   */\n      dup3\n        /* \"#utility.yul\":1100:1137   */\n      mstore\n        /* \"#utility.yul\":1025:1143   */\n      pop\n      pop\n      jump\t// out\n        /* \"#utility.yul\":1149:1371   */\n    tag_42:\n        /* \"#utility.yul\":1242:1246   */\n      0x00\n        /* \"#utility.yul\":1280:1282   */\n      0x20\n        /* \"#utility.yul\":1269:1278   */\n      dup3\n        /* \"#utility.yul\":1265:1283   */\n      add\n        /* \"#utility.yul\":1257:1283   */\n      swap1\n      pop\n        /* \"#utility.yul\":1293:1364   */\n      tag_471\n        /* \"#utility.yul\":1361:1362   */\n      0x00\n        /* \"#utility.yul\":1350:1359   */\n      dup4\n        /* \"#utility.yul\":1346:1363   */\n      add\n        /* \"#utility.yul\":1337:1343   */\n      dup5\n        /* \"#utility.yul\":1293:1364   */\n      tag_379\n      jump\t// in\n    tag_471:\n        /* \"#utility.yul\":1149:1371   */\n      swap3\n      swap2\n      pop\n      pop\n      jump\t// out\n        /* \"#utility.yul\":1377:1503   */\n    tag_380:\n        /* \"#utility.yul\":1414:1421   */\n      0x00\n        /* \"#utility.yul\":1454:1496   */\n      0xffffffffffffffffffffffffffffffffffffffff\n        /* \"#utility.yul\":1447:1452   */\n      dup3\n        /* \"#utility.yul\":1443:1497   */\n      and\n        /* \"#utility.yul\":1432:1497   */\n      swap1\n      pop\n        /* \"#utility.yul\":1377:1503   */\n      swap2\n      swap1\n      pop\n      jump\t// out\n        /* \"#utility.yul\":1509:1605   */\n    tag_381:\n        /* \"#utility.yul\":1546:1553   */\n      0x00\n        /* \"#utility.yul\":1575:1599   */\n      tag_474\n        /* \"#utility.yul\":1593:1598   */\n      dup3\n        /* \"#utility.yul\":1575:1599   */\n      tag_380\n      jump\t// in\n    tag_474:\n        /* \"#utility.yul\":1564:1599   */\n      swap1\n      pop\n        /* \"#utility.yul\":1509:1605   */\n      swap2\n      swap1\n      pop\n      jump\t// out\n        /* \"#utility.yul\":1611:1733   */\n    tag_382:\n        /* \"#utility.yul\":1684:1708   */\n      tag_476\n        /* \"#utility.yul\":1702:1707   */\n      dup2\n        /* \"#utility.yul\":1684:1708   */\n      tag_381\n      jump\t// in\n    tag_476:\n        /* \"#utility.yul\":1677:1682   */\n      dup2\n        /* \"#utility.yul\":1674:1709   */\n      eq\n        /* \"#utility.yul\":1664:1727   */\n      tag_477\n      jumpi\n        /* \"#utility.yul\":1723:1724   */\n      0x00\n        /* \"#utility.yul\":1720:1721   */\n      dup1\n        /* \"#utility.yul\":1713:1725   */\n      revert\n        /* \"#utility.yul\":1664:1727   */\n    tag_477:\n        /* \"#utility.yul\":1611:1733   */\n      pop\n      jump\t// out\n        /* \"#utility.yul\":1739:1878   */\n    tag_383:\n        /* \"#utility.yul\":1785:1790   */\n      0x00\n        /* \"#utility.yul\":1823:1829   */\n      dup2\n        /* \"#utility.yul\":1810:1830   */\n      calldataload\n        /* \"#utility.yul\":1801:1830   */\n      swap1\n      pop\n        /* \"#utility.yul\":1839:1872   */\n      tag_479\n        /* \"#utility.yul\":1866:1871   */\n      dup2\n        /* \"#utility.yul\":1839:1872   */\n      tag_382\n      jump\t// in\n    tag_479:\n        /* \"#utility.yul\":1739:1878   */\n      swap3\n      swap2\n      pop\n      pop\n      jump\t// out\n        /* \"#utility.yul\":1884:2213   */\n    tag_46:\n        /* \"#utility.yul\":1943:1949   */\n      0x00\n        /* \"#utility.yul\":1992:1994   */\n      0x20\n        /* \"#utility.yul\":1980:1989   */\n      dup3\n        /* \"#utility.yul\":1971:1978   */\n      dup5\n        /* \"#utility.yul\":1967:1990   */\n      sub\n        /* \"#utility.yul\":1963:1995   */\n      slt\n        /* \"#utility.yul\":1960:2079   */\n      iszero\n      tag_481\n      jumpi\n        /* \"#utility.yul\":1998:2077   */\n      tag_482\n      tag_374\n      jump\t// in\n    tag_482:\n        /* \"#utility.yul\":1960:2079   */\n    tag_481:\n        /* \"#utility.yul\":2118:2119   */\n      0x00\n        /* \"#utility.yul\":2143:2196   */\n      tag_483\n        /* \"#utility.yul\":2188:2195   */\n      dup5\n        /* \"#utility.yul\":2179:2185   */\n      dup3\n        /* \"#utility.yul\":2168:2177   */\n      dup6\n        /* \"#utility.yul\":2164:2186   */\n      add\n        /* \"#utility.yul\":2143:2196   */\n      tag_383\n      jump\t// in\n    tag_483:\n        /* \"#utility.yul\":2133:2196   */\n      swap2\n      pop\n        /* \"#utility.yul\":2089:2206   */\n      pop\n        /* \"#utility.yul\":1884:2213   */\n      swap3\n      swap2\n      pop\n      pop\n      jump\t// out\n        /* \"#utility.yul\":2219:2318   */\n    tag_384:\n        /* \"#utility.yul\":2271:2277   */\n      0x00\n        /* \"#utility.yul\":2305:2310   */\n      dup2\n        /* \"#utility.yul\":2299:2311   */\n      mload\n        /* \"#utility.yul\":2289:2311   */\n      swap1\n      pop\n        /* \"#utility.yul\":2219:2318   */\n      swap2\n      swap1\n      pop\n      jump\t// out\n        /* \"#utility.yul\":2324:2493   */\n    tag_385:\n        /* \"#utility.yul\":2408:2419   */\n      0x00\n        /* \"#utility.yul\":2442:2448   */\n      dup3\n        /* \"#utility.yul\":2437:2440   */\n      dup3\n        /* \"#utility.yul\":2430:2449   */\n      mstore\n        /* \"#utility.yul\":2482:2486   */\n      0x20\n        /* \"#utility.yul\":2477:2480   */\n      dup3\n        /* \"#utility.yul\":2473:2487   */\n      add\n        /* \"#utility.yul\":2458:2487   */\n      swap1\n      pop\n        /* \"#utility.yul\":2324:2493   */\n      swap3\n      swap2\n      pop\n      pop\n      jump\t// out\n        /* \"#utility.yul\":2499:2638   */\n    tag_386:\n        /* \"#utility.yul\":2588:2594   */\n      dup3\n        /* \"#utility.yul\":2583:2586   */\n      dup2\n        /* \"#utility.yul\":2578:2581   */\n      dup4\n        /* \"#utility.yul\":2572:2595   */\n      mcopy\n        /* \"#utility.yul\":2629:2630   */\n      0x00\n        /* \"#utility.yul\":2620:2626   */\n      dup4\n        /* \"#utility.yul\":2615:2618   */\n      dup4\n        /* \"#utility.yul\":2611:2627   */\n      add\n        /* \"#utility.yul\":2604:2631   */\n      mstore\n        /* \"#utility.yul\":2499:2638   */\n      pop\n      pop\n      pop\n      jump\t// out\n        /* \"#utility.yul\":2644:2746   */\n    tag_387:\n        /* \"#utility.yul\":2685:2691   */\n      0x00\n        /* \"#utility.yul\":2736:2738   */\n      0x1f\n        /* \"#utility.yul\":2732:2739   */\n      not\n        /* \"#utility.yul\":2727:2729   */\n      0x1f\n        /* \"#utility.yul\":2720:2725   */\n      dup4\n        /* \"#utility.yul\":2716:2730   */\n      add\n        /* \"#utility.yul\":2712:2740   */\n      and\n        /* \"#utility.yul\":2702:2740   */\n      swap1\n      pop\n        /* \"#utility.yul\":2644:2746   */\n      swap2\n      swap1\n      pop\n      jump\t// out\n        /* \"#utility.yul\":2752:3129   */\n    tag_388:\n        /* \"#utility.yul\":2840:2843   */\n      0x00\n        /* \"#utility.yul\":2868:2907   */\n      tag_489\n        /* \"#utility.yul\":2901:2906   */\n      dup3\n        /* \"#utility.yul\":2868:2907   */\n      tag_384\n      jump\t// in\n    tag_489:\n        /* \"#utility.yul\":2923:2994   */\n      tag_490\n        /* \"#utility.yul\":2987:2993   */\n      dup2\n        /* \"#utility.yul\":2982:2985   */\n      dup6\n        /* \"#utility.yul\":2923:2994   */\n      tag_385\n      jump\t// in\n    tag_490:\n        /* \"#utility.yul\":2916:2994   */\n      swap4\n      pop\n        /* \"#utility.yul\":3003:3068   */\n      tag_491\n        /* \"#utility.yul\":3061:3067   */\n      dup2\n        /* \"#utility.yul\":3056:3059   */\n      dup6\n        /* \"#utility.yul\":3049:3053   */\n      0x20\n        /* \"#utility.yul\":3042:3047   */\n      dup7\n        /* \"#utility.yul\":3038:3054   */\n      add\n        /* \"#utility.yul\":3003:3068   */\n      tag_386\n      jump\t// in\n    tag_491:\n        /* \"#utility.yul\":3093:3122   */\n      tag_492\n        /* \"#utility.yul\":3115:3121   */\n      dup2\n        /* \"#utility.yul\":3093:3122   */\n      tag_387\n      jump\t// in\n    tag_492:\n        /* \"#utility.yul\":3088:3091   */\n      dup5\n        /* \"#utility.yul\":3084:3123   */\n      add\n        /* \"#utility.yul\":3077:3123   */\n      swap2\n      pop\n        /* \"#utility.yul\":2844:3129   */\n      pop\n        /* \"#utility.yul\":2752:3129   */\n      swap3\n      swap2\n      pop\n      pop\n      jump\t// out\n        /* \"#utility.yul\":3135:3253   */\n    tag_389:\n        /* \"#utility.yul\":3222:3246   */\n      tag_494\n        /* \"#utility.yul\":3240:3245   */\n      dup2\n        /* \"#utility.yul\":3222:3246   */\n      tag_381\n      jump\t// in\n    tag_494:\n        /* \"#utility.yul\":3217:3220   */\n      dup3\n        /* \"#utility.yul\":3210:3247   */\n      mstore\n        /* \"#utility.yul\":3135:3253   */\n      pop\n      pop\n      jump\t// out\n        /* \"#utility.yul\":3259:3792   */\n    tag_57:\n        /* \"#utility.yul\":3428:3432   */\n      0x00\n        /* \"#utility.yul\":3466:3468   */\n      0x60\n        /* \"#utility.yul\":3455:3464   */\n      dup3\n        /* \"#utility.yul\":3451:3469   */\n      add\n        /* \"#utility.yul\":3443:3469   */\n      swap1\n      pop\n        /* \"#utility.yul\":3515:3524   */\n      dup2\n        /* \"#utility.yul\":3509:3513   */\n      dup2\n        /* \"#utility.yul\":3505:3525   */\n      sub\n        /* \"#utility.yul\":3501:3502   */\n      0x00\n        /* \"#utility.yul\":3490:3499   */\n      dup4\n        /* \"#utility.yul\":3486:3503   */\n      add\n        /* \"#utility.yul\":3479:3526   */\n      mstore\n        /* \"#utility.yul\":3543:3621   */\n      tag_496\n        /* \"#utility.yul\":3616:3620   */\n      dup2\n        /* \"#utility.yul\":3607:3613   */\n      dup7\n        /* \"#utility.yul\":3543:3621   */\n      tag_388\n      jump\t// in\n    tag_496:\n        /* \"#utility.yul\":3535:3621   */\n      swap1\n      pop\n        /* \"#utility.yul\":3631:3703   */\n      tag_497\n        /* \"#utility.yul\":3699:3701   */\n      0x20\n        /* \"#utility.yul\":3688:3697   */\n      dup4\n        /* \"#utility.yul\":3684:3702   */\n      add\n        /* \"#utility.yul\":3675:3681   */\n      dup6\n        /* \"#utility.yul\":3631:3703   */\n      tag_389\n      jump\t// in\n    tag_497:\n        /* \"#utility.yul\":3713:3785   */\n      tag_498\n        /* \"#utility.yul\":3781:3783   */\n      0x40\n        /* \"#utility.yul\":3770:3779   */\n      dup4\n        /* \"#utility.yul\":3766:3784   */\n      add\n        /* \"#utility.yul\":3757:3763   */\n      dup5\n        /* \"#utility.yul\":3713:3785   */\n      tag_379\n      jump\t// in\n    tag_498:\n        /* \"#utility.yul\":3259:3792   */\n      swap5\n      swap4\n      pop\n      pop\n      pop\n      pop\n      jump\t// out\n        /* \"#utility.yul\":3798:3915   */\n    tag_390:\n        /* \"#utility.yul\":3907:3908   */\n      0x00\n        /* \"#utility.yul\":3904:3905   */\n      dup1\n        /* \"#utility.yul\":3897:3909   */\n      revert\n        /* \"#utility.yul\":3921:4038   */\n    tag_391:\n        /* \"#utility.yul\":4030:4031   */\n      0x00\n        /* \"#utility.yul\":4027:4028   */\n      dup1\n        /* \"#utility.yul\":4020:4032   */\n      revert\n        /* \"#utility.yul\":4044:4224   */\n    tag_392:\n        /* \"#utility.yul\":4092:4169   */\n      0x4e487b7100000000000000000000000000000000000000000000000000000000\n        /* \"#utility.yul\":4089:4090   */\n      0x00\n        /* \"#utility.yul\":4082:4170   */\n      mstore\n        /* \"#utility.yul\":4189:4193   */\n      0x41\n        /* \"#utility.yul\":4186:4187   */\n      0x04\n        /* \"#utility.yul\":4179:4194   */\n      mstore\n        /* \"#utility.yul\":4213:4217   */\n      0x24\n        /* \"#utility.yul\":4210:4211   */\n      0x00\n        /* \"#utility.yul\":4203:4218   */\n      revert\n        /* \"#utility.yul\":4230:4511   */\n    tag_393:\n        /* \"#utility.yul\":4313:4340   */\n      tag_503\n        /* \"#utility.yul\":4335:4339   */\n      dup3\n        /* \"#utility.yul\":4313:4340   */\n      tag_387\n      jump\t// in\n    tag_503:\n        /* \"#utility.yul\":4305:4311   */\n      dup2\n        /* \"#utility.yul\":4301:4341   */\n      add\n        /* \"#utility.yul\":4443:4449   */\n      dup2\n        /* \"#utility.yul\":4431:4441   */\n      dup2\n        /* \"#utility.yul\":4428:4450   */\n      lt\n        /* \"#utility.yul\":4407:4425   */\n      0xffffffffffffffff\n        /* \"#utility.yul\":4395:4405   */\n      dup3\n        /* \"#utility.yul\":4392:4426   */\n      gt\n        /* \"#utility.yul\":4389:4451   */\n      or\n        /* \"#utility.yul\":4386:4474   */\n      iszero\n      tag_504\n      jumpi\n        /* \"#utility.yul\":4454:4472   */\n      tag_505\n      tag_392\n      jump\t// in\n    tag_505:\n        /* \"#utility.yul\":4386:4474   */\n    tag_504:\n        /* \"#utility.yul\":4494:4504   */\n      dup1\n        /* \"#utility.yul\":4490:4492   */\n      0x40\n        /* \"#utility.yul\":4483:4505   */\n      mstore\n        /* \"#utility.yul\":4273:4511   */\n      pop\n        /* \"#utility.yul\":4230:4511   */\n      pop\n      pop\n      jump\t// out\n        /* \"#utility.yul\":4517:4646   */\n    tag_394:\n        /* \"#utility.yul\":4551:4557   */\n      0x00\n        /* \"#utility.yul\":4578:4598   */\n      tag_507\n      tag_373\n      jump\t// in\n    tag_507:\n        /* \"#utility.yul\":4568:4598   */\n      swap1\n      pop\n        /* \"#utility.yul\":4607:4640   */\n      tag_508\n        /* \"#utility.yul\":4635:4639   */\n      dup3\n        /* \"#utility.yul\":4627:4633   */\n      dup3\n        /* \"#utility.yul\":4607:4640   */\n      tag_393\n      jump\t// in\n    tag_508:\n        /* \"#utility.yul\":4517:4646   */\n      swap2\n      swap1\n      pop\n      jump\t// out\n        /* \"#utility.yul\":4652:4960   */\n    tag_395:\n        /* \"#utility.yul\":4714:4718   */\n      0x00\n        /* \"#utility.yul\":4804:4822   */\n      0xffffffffffffffff\n        /* \"#utility.yul\":4796:4802   */\n      dup3\n        /* \"#utility.yul\":4793:4823   */\n      gt\n        /* \"#utility.yul\":4790:4846   */\n      iszero\n      tag_510\n      jumpi\n        /* \"#utility.yul\":4826:4844   */\n      tag_511\n      tag_392\n      jump\t// in\n    tag_511:\n        /* \"#utility.yul\":4790:4846   */\n    tag_510:\n        /* \"#utility.yul\":4864:4893   */\n      tag_512\n        /* \"#utility.yul\":4886:4892   */\n      dup3\n        /* \"#utility.yul\":4864:4893   */\n      tag_387\n      jump\t// in\n    tag_512:\n        /* \"#utility.yul\":4856:4893   */\n      swap1\n      pop\n        /* \"#utility.yul\":4948:4952   */\n      0x20\n        /* \"#utility.yul\":4942:4946   */\n      dup2\n        /* \"#utility.yul\":4938:4953   */\n      add\n        /* \"#utility.yul\":4930:4953   */\n      swap1\n      pop\n        /* \"#utility.yul\":4652:4960   */\n      swap2\n      swap1\n      pop\n      jump\t// out\n        /* \"#utility.yul\":4966:5114   */\n    tag_396:\n        /* \"#utility.yul\":5064:5070   */\n      dup3\n        /* \"#utility.yul\":5059:5062   */\n      dup2\n        /* \"#utility.yul\":5054:5057   */\n      dup4\n        /* \"#utility.yul\":5041:5071   */\n      calldatacopy\n        /* \"#utility.yul\":5105:5106   */\n      0x00\n        /* \"#utility.yul\":5096:5102   */\n      dup4\n        /* \"#utility.yul\":5091:5094   */\n      dup4\n        /* \"#utility.yul\":5087:5103   */\n      add\n        /* \"#utility.yul\":5080:5107   */\n      mstore\n        /* \"#utility.yul\":4966:5114   */\n      pop\n      pop\n      pop\n      jump\t// out\n        /* \"#utility.yul\":5120:5545   */\n    tag_397:\n        /* \"#utility.yul\":5198:5203   */\n      0x00\n        /* \"#utility.yul\":5223:5289   */\n      tag_515\n        /* \"#utility.yul\":5239:5288   */\n      tag_516\n        /* \"#utility.yul\":5281:5287   */\n      dup5\n        /* \"#utility.yul\":5239:5288   */\n      tag_395\n      jump\t// in\n    tag_516:\n        /* \"#utility.yul\":5223:5289   */\n      tag_394\n      jump\t// in\n    tag_515:\n        /* \"#utility.yul\":5214:5289   */\n      swap1\n      pop\n        /* \"#utility.yul\":5312:5318   */\n      dup3\n        /* \"#utility.yul\":5305:5310   */\n      dup2\n        /* \"#utility.yul\":5298:5319   */\n      mstore\n        /* \"#utility.yul\":5350:5354   */\n      0x20\n        /* \"#utility.yul\":5343:5348   */\n      dup2\n        /* \"#utility.yul\":5339:5355   */\n      add\n        /* \"#utility.yul\":5388:5391   */\n      dup5\n        /* \"#utility.yul\":5379:5385   */\n      dup5\n        /* \"#utility.yul\":5374:5377   */\n      dup5\n        /* \"#utility.yul\":5370:5386   */\n      add\n        /* \"#utility.yul\":5367:5392   */\n      gt\n        /* \"#utility.yul\":5364:5476   */\n      iszero\n      tag_517\n      jumpi\n        /* \"#utility.yul\":5395:5474   */\n      tag_518\n      tag_391\n      jump\t// in\n    tag_518:\n        /* \"#utility.yul\":5364:5476   */\n    tag_517:\n        /* \"#utility.yul\":5485:5539   */\n      tag_519\n        /* \"#utility.yul\":5532:5538   */\n      dup5\n        /* \"#utility.yul\":5527:5530   */\n      dup3\n        /* \"#utility.yul\":5522:5525   */\n      dup6\n        /* \"#utility.yul\":5485:5539   */\n      tag_396\n      jump\t// in\n    tag_519:\n        /* \"#utility.yul\":5204:5545   */\n      pop\n        /* \"#utility.yul\":5120:5545   */\n      swap4\n      swap3\n      pop\n      pop\n      pop\n      jump\t// out\n        /* \"#utility.yul\":5565:5905   */\n    tag_398:\n        /* \"#utility.yul\":5621:5626   */\n      0x00\n        /* \"#utility.yul\":5670:5673   */\n      dup3\n        /* \"#utility.yul\":5663:5667   */\n      0x1f\n        /* \"#utility.yul\":5655:5661   */\n      dup4\n        /* \"#utility.yul\":5651:5668   */\n      add\n        /* \"#utility.yul\":5647:5674   */\n      slt\n        /* \"#utility.yul\":5637:5759   */\n      tag_521\n      jumpi\n        /* \"#utility.yul\":5678:5757   */\n      tag_522\n      tag_390\n      jump\t// in\n    tag_522:\n        /* \"#utility.yul\":5637:5759   */\n    tag_521:\n        /* \"#utility.yul\":5795:5801   */\n      dup2\n        /* \"#utility.yul\":5782:5802   */\n      calldataload\n        /* \"#utility.yul\":5820:5899   */\n      tag_523\n        /* \"#utility.yul\":5895:5898   */\n      dup5\n        /* \"#utility.yul\":5887:5893   */\n      dup3\n        /* \"#utility.yul\":5880:5884   */\n      0x20\n        /* \"#utility.yul\":5872:5878   */\n      dup7\n        /* \"#utility.yul\":5868:5885   */\n      add\n        /* \"#utility.yul\":5820:5899   */\n      tag_397\n      jump\t// in\n    tag_523:\n        /* \"#utility.yul\":5811:5899   */\n      swap2\n      pop\n        /* \"#utility.yul\":5627:5905   */\n      pop\n        /* \"#utility.yul\":5565:5905   */\n      swap3\n      swap2\n      pop\n      pop\n      jump\t// out\n        /* \"#utility.yul\":5911:6420   */\n    tag_61:\n        /* \"#utility.yul\":5980:5986   */\n      0x00\n        /* \"#utility.yul\":6029:6031   */\n      0x20\n        /* \"#utility.yul\":6017:6026   */\n      dup3\n        /* \"#utility.yul\":6008:6015   */\n      dup5\n        /* \"#utility.yul\":6004:6027   */\n      sub\n        /* \"#utility.yul\":6000:6032   */\n      slt\n        /* \"#utility.yul\":5997:6116   */\n      iszero\n      tag_525\n      jumpi\n        /* \"#utility.yul\":6035:6114   */\n      tag_526\n      tag_374\n      jump\t// in\n    tag_526:\n        /* \"#utility.yul\":5997:6116   */\n    tag_525:\n        /* \"#utility.yul\":6183:6184   */\n      0x00\n        /* \"#utility.yul\":6172:6181   */\n      dup3\n        /* \"#utility.yul\":6168:6185   */\n      add\n        /* \"#utility.yul\":6155:6186   */\n      calldataload\n        /* \"#utility.yul\":6213:6231   */\n      0xffffffffffffffff\n        /* \"#utility.yul\":6205:6211   */\n      dup2\n        /* \"#utility.yul\":6202:6232   */\n      gt\n        /* \"#utility.yul\":6199:6316   */\n      iszero\n      tag_527\n      jumpi\n        /* \"#utility.yul\":6235:6314   */\n      tag_528\n      tag_375\n      jump\t// in\n    tag_528:\n        /* \"#utility.yul\":6199:6316   */\n    tag_527:\n        /* \"#utility.yul\":6340:6403   */\n      tag_529\n        /* \"#utility.yul\":6395:6402   */\n      dup5\n        /* \"#utility.yul\":6386:6392   */\n      dup3\n        /* \"#utility.yul\":6375:6384   */\n      dup6\n        /* \"#utility.yul\":6371:6393   */\n      add\n        /* \"#utility.yul\":6340:6403   */\n      tag_398\n      jump\t// in\n    tag_529:\n        /* \"#utility.yul\":6330:6403   */\n      swap2\n      pop\n        /* \"#utility.yul\":6126:6413   */\n      pop\n        /* \"#utility.yul\":5911:6420   */\n      swap3\n      swap2\n      pop\n      pop\n      jump\t// out\n        /* \"#utility.yul\":6426:7045   */\n    tag_66:\n        /* \"#utility.yul\":6503:6509   */\n      0x00\n        /* \"#utility.yul\":6511:6517   */\n      dup1\n        /* \"#utility.yul\":6519:6525   */\n      0x00\n        /* \"#utility.yul\":6568:6570   */\n      0x60\n        /* \"#utility.yul\":6556:6565   */\n      dup5\n        /* \"#utility.yul\":6547:6554   */\n      dup7\n        /* \"#utility.yul\":6543:6566   */\n      sub\n        /* \"#utility.yul\":6539:6571   */\n      slt\n        /* \"#utility.yul\":6536:6655   */\n      iszero\n      tag_531\n      jumpi\n        /* \"#utility.yul\":6574:6653   */\n      tag_532\n      tag_374\n      jump\t// in\n    tag_532:\n        /* \"#utility.yul\":6536:6655   */\n    tag_531:\n        /* \"#utility.yul\":6694:6695   */\n      0x00\n        /* \"#utility.yul\":6719:6772   */\n      tag_533\n        /* \"#utility.yul\":6764:6771   */\n      dup7\n        /* \"#utility.yul\":6755:6761   */\n      dup3\n        /* \"#utility.yul\":6744:6753   */\n      dup8\n        /* \"#utility.yul\":6740:6762   */\n      add\n        /* \"#utility.yul\":6719:6772   */\n      tag_378\n      jump\t// in\n    tag_533:\n        /* \"#utility.yul\":6709:6772   */\n      swap4\n      pop\n        /* \"#utility.yul\":6665:6782   */\n      pop\n        /* \"#utility.yul\":6821:6823   */\n      0x20\n        /* \"#utility.yul\":6847:6900   */\n      tag_534\n        /* \"#utility.yul\":6892:6899   */\n      dup7\n        /* \"#utility.yul\":6883:6889   */\n      dup3\n        /* \"#utility.yul\":6872:6881   */\n      dup8\n        /* \"#utility.yul\":6868:6890   */\n      add\n        /* \"#utility.yul\":6847:6900   */\n      tag_383\n      jump\t// in\n    tag_534:\n        /* \"#utility.yul\":6837:6900   */\n      swap3\n      pop\n        /* \"#utility.yul\":6792:6910   */\n      pop\n        /* \"#utility.yul\":6949:6951   */\n      0x40\n        /* \"#utility.yul\":6975:7028   */\n      tag_535\n        /* \"#utility.yul\":7020:7027   */\n      dup7\n        /* \"#utility.yul\":7011:7017   */\n      dup3\n        /* \"#utility.yul\":7000:7009   */\n      dup8\n        /* \"#utility.yul\":6996:7018   */\n      add\n        /* \"#utility.yul\":6975:7028   */\n      tag_378\n      jump\t// in\n    tag_535:\n        /* \"#utility.yul\":6965:7028   */\n      swap2\n      pop\n        /* \"#utility.yul\":6920:7038   */\n      pop\n        /* \"#utility.yul\":6426:7045   */\n      swap3\n      pop\n      swap3\n      pop\n      swap3\n      jump\t// out\n        /* \"#utility.yul\":7051:7141   */\n    tag_399:\n        /* \"#utility.yul\":7085:7092   */\n      0x00\n        /* \"#utility.yul\":7128:7133   */\n      dup2\n        /* \"#utility.yul\":7121:7134   */\n      iszero\n        /* \"#utility.yul\":7114:7135   */\n      iszero\n        /* \"#utility.yul\":7103:7135   */\n      swap1\n      pop\n        /* \"#utility.yul\":7051:7141   */\n      swap2\n      swap1\n      pop\n      jump\t// out\n        /* \"#utility.yul\":7147:7256   */\n    tag_400:\n        /* \"#utility.yul\":7228:7249   */\n      tag_538\n        /* \"#utility.yul\":7243:7248   */\n      dup2\n        /* \"#utility.yul\":7228:7249   */\n      tag_399\n      jump\t// in\n    tag_538:\n        /* \"#utility.yul\":7223:7226   */\n      dup3\n        /* \"#utility.yul\":7216:7250   */\n      mstore\n        /* \"#utility.yul\":7147:7256   */\n      pop\n      pop\n      jump\t// out\n        /* \"#utility.yul\":7262:7472   */\n    tag_81:\n        /* \"#utility.yul\":7349:7353   */\n      0x00\n        /* \"#utility.yul\":7387:7389   */\n      0x20\n        /* \"#utility.yul\":7376:7385   */\n      dup3\n        /* \"#utility.yul\":7372:7390   */\n      add\n        /* \"#utility.yul\":7364:7390   */\n      swap1\n      pop\n        /* \"#utility.yul\":7400:7465   */\n      tag_540\n        /* \"#utility.yul\":7462:7463   */\n      0x00\n        /* \"#utility.yul\":7451:7460   */\n      dup4\n        /* \"#utility.yul\":7447:7464   */\n      add\n        /* \"#utility.yul\":7438:7444   */\n      dup5\n        /* \"#utility.yul\":7400:7465   */\n      tag_400\n      jump\t// in\n    tag_540:\n        /* \"#utility.yul\":7262:7472   */\n      swap3\n      swap2\n      pop\n      pop\n      jump\t// out\n        /* \"#utility.yul\":7478:7700   */\n    tag_102:\n        /* \"#utility.yul\":7571:7575   */\n      0x00\n        /* \"#utility.yul\":7609:7611   */\n      0x20\n        /* \"#utility.yul\":7598:7607   */\n      dup3\n        /* \"#utility.yul\":7594:7612   */\n      add\n        /* \"#utility.yul\":7586:7612   */\n      swap1\n      pop\n        /* \"#utility.yul\":7622:7693   */\n      tag_542\n        /* \"#utility.yul\":7690:7691   */\n      0x00\n        /* \"#utility.yul\":7679:7688   */\n      dup4\n        /* \"#utility.yul\":7675:7692   */\n      add\n        /* \"#utility.yul\":7666:7672   */\n      dup5\n        /* \"#utility.yul\":7622:7693   */\n      tag_389\n      jump\t// in\n    tag_542:\n        /* \"#utility.yul\":7478:7700   */\n      swap3\n      swap2\n      pop\n      pop\n      jump\t// out\n        /* \"#utility.yul\":7706:8180   */\n    tag_106:\n        /* \"#utility.yul\":7774:7780   */\n      0x00\n        /* \"#utility.yul\":7782:7788   */\n      dup1\n        /* \"#utility.yul\":7831:7833   */\n      0x40\n        /* \"#utility.yul\":7819:7828   */\n      dup4\n        /* \"#utility.yul\":7810:7817   */\n      dup6\n        /* \"#utility.yul\":7806:7829   */\n      sub\n        /* \"#utility.yul\":7802:7834   */\n      slt\n        /* \"#utility.yul\":7799:7918   */\n      iszero\n      tag_544\n      jumpi\n        /* \"#utility.yul\":7837:7916   */\n      tag_545\n      tag_374\n      jump\t// in\n    tag_545:\n        /* \"#utility.yul\":7799:7918   */\n    tag_544:\n        /* \"#utility.yul\":7957:7958   */\n      0x00\n        /* \"#utility.yul\":7982:8035   */\n      tag_546\n        /* \"#utility.yul\":8027:8034   */\n      dup6\n        /* \"#utility.yul\":8018:8024   */\n      dup3\n        /* \"#utility.yul\":8007:8016   */\n      dup7\n        /* \"#utility.yul\":8003:8025   */\n      add\n        /* \"#utility.yul\":7982:8035   */\n      tag_378\n      jump\t// in\n    tag_546:\n        /* \"#utility.yul\":7972:8035   */\n      swap3\n      pop\n        /* \"#utility.yul\":7928:8045   */\n      pop\n        /* \"#utility.yul\":8084:8086   */\n      0x20\n        /* \"#utility.yul\":8110:8163   */\n      tag_547\n        /* \"#utility.yul\":8155:8162   */\n      dup6\n        /* \"#utility.yul\":8146:8152   */\n      dup3\n        /* \"#utility.yul\":8135:8144   */\n      dup7\n        /* \"#utility.yul\":8131:8153   */\n      add\n        /* \"#utility.yul\":8110:8163   */\n      tag_383\n      jump\t// in\n    tag_547:\n        /* \"#utility.yul\":8100:8163   */\n      swap2\n      pop\n        /* \"#utility.yul\":8055:8173   */\n      pop\n        /* \"#utility.yul\":7706:8180   */\n      swap3\n      pop\n      swap3\n      swap1\n      pop\n      jump\t// out\n        /* \"#utility.yul\":8186:8660   */\n    tag_124:\n        /* \"#utility.yul\":8254:8260   */\n      0x00\n        /* \"#utility.yul\":8262:8268   */\n      dup1\n        /* \"#utility.yul\":8311:8313   */\n      0x40\n        /* \"#utility.yul\":8299:8308   */\n      dup4\n        /* \"#utility.yul\":8290:8297   */\n      dup6\n        /* \"#utility.yul\":8286:8309   */\n      sub\n        /* \"#utility.yul\":8282:8314   */\n      slt\n        /* \"#utility.yul\":8279:8398   */\n      iszero\n      tag_549\n      jumpi\n        /* \"#utility.yul\":8317:8396   */\n      tag_550\n      tag_374\n      jump\t// in\n    tag_550:\n        /* \"#utility.yul\":8279:8398   */\n    tag_549:\n        /* \"#utility.yul\":8437:8438   */\n      0x00\n        /* \"#utility.yul\":8462:8515   */\n      tag_551\n        /* \"#utility.yul\":8507:8514   */\n      dup6\n        /* \"#utility.yul\":8498:8504   */\n      dup3\n        /* \"#utility.yul\":8487:8496   */\n      dup7\n        /* \"#utility.yul\":8483:8505   */\n      add\n        /* \"#utility.yul\":8462:8515   */\n      tag_378\n      jump\t// in\n    tag_551:\n        /* \"#utility.yul\":8452:8515   */\n      swap3\n      pop\n        /* \"#utility.yul\":8408:8525   */\n      pop\n        /* \"#utility.yul\":8564:8566   */\n      0x20\n        /* \"#utility.yul\":8590:8643   */\n      tag_552\n        /* \"#utility.yul\":8635:8642   */\n      dup6\n        /* \"#utility.yul\":8626:8632   */\n      dup3\n        /* \"#utility.yul\":8615:8624   */\n      dup7\n        /* \"#utility.yul\":8611:8633   */\n      add\n        /* \"#utility.yul\":8590:8643   */\n      tag_378\n      jump\t// in\n    tag_552:\n        /* \"#utility.yul\":8580:8643   */\n      swap2\n      pop\n        /* \"#utility.yul\":8535:8653   */\n      pop\n        /* \"#utility.yul\":8186:8660   */\n      swap3\n      pop\n      swap3\n      swap1\n      pop\n      jump\t// out\n        /* \"#utility.yul\":8666:8803   */\n    tag_401:\n        /* \"#utility.yul\":8756:8762   */\n      0x00\n        /* \"#utility.yul\":8790:8795   */\n      dup2\n        /* \"#utility.yul\":8784:8796   */\n      mload\n        /* \"#utility.yul\":8774:8796   */\n      swap1\n      pop\n        /* \"#utility.yul\":8666:8803   */\n      swap2\n      swap1\n      pop\n      jump\t// out\n        /* \"#utility.yul\":8809:9016   */\n    tag_402:\n        /* \"#utility.yul\":8931:8942   */\n      0x00\n        /* \"#utility.yul\":8965:8971   */\n      dup3\n        /* \"#utility.yul\":8960:8963   */\n      dup3\n        /* \"#utility.yul\":8953:8972   */\n      mstore\n        /* \"#utility.yul\":9005:9009   */\n      0x20\n        /* \"#utility.yul\":9000:9003   */\n      dup3\n        /* \"#utility.yul\":8996:9010   */\n      add\n        /* \"#utility.yul\":8981:9010   */\n      swap1\n      pop\n        /* \"#utility.yul\":8809:9016   */\n      swap3\n      swap2\n      pop\n      pop\n      jump\t// out\n        /* \"#utility.yul\":9022:9177   */\n    tag_403:\n        /* \"#utility.yul\":9112:9116   */\n      0x00\n        /* \"#utility.yul\":9135:9138   */\n      dup2\n        /* \"#utility.yul\":9127:9138   */\n      swap1\n      pop\n        /* \"#utility.yul\":9165:9169   */\n      0x20\n        /* \"#utility.yul\":9160:9163   */\n      dup3\n        /* \"#utility.yul\":9156:9170   */\n      add\n        /* \"#utility.yul\":9148:9170   */\n      swap1\n      pop\n        /* \"#utility.yul\":9022:9177   */\n      swap2\n      swap1\n      pop\n      jump\t// out\n        /* \"#utility.yul\":9183:9291   */\n    tag_404:\n        /* \"#utility.yul\":9260:9284   */\n      tag_557\n        /* \"#utility.yul\":9278:9283   */\n      dup2\n        /* \"#utility.yul\":9260:9284   */\n      tag_381\n      jump\t// in\n    tag_557:\n        /* \"#utility.yul\":9255:9258   */\n      dup3\n        /* \"#utility.yul\":9248:9285   */\n      mstore\n        /* \"#utility.yul\":9183:9291   */\n      pop\n      pop\n      jump\t// out\n        /* \"#utility.yul\":9297:9405   */\n    tag_405:\n        /* \"#utility.yul\":9374:9398   */\n      tag_559\n        /* \"#utility.yul\":9392:9397   */\n      dup2\n        /* \"#utility.yul\":9374:9398   */\n      tag_376\n      jump\t// in\n    tag_559:\n        /* \"#utility.yul\":9369:9372   */\n      dup3\n        /* \"#utility.yul\":9362:9399   */\n      mstore\n        /* \"#utility.yul\":9297:9405   */\n      pop\n      pop\n      jump\t// out\n        /* \"#utility.yul\":9469:10158   */\n    tag_406:\n        /* \"#utility.yul\":9602:9606   */\n      0x60\n        /* \"#utility.yul\":9597:9600   */\n      dup3\n        /* \"#utility.yul\":9593:9607   */\n      add\n        /* \"#utility.yul\":9698:9702   */\n      0x00\n        /* \"#utility.yul\":9691:9696   */\n      dup3\n        /* \"#utility.yul\":9687:9703   */\n      add\n        /* \"#utility.yul\":9681:9704   */\n      mload\n        /* \"#utility.yul\":9717:9780   */\n      tag_561\n        /* \"#utility.yul\":9774:9778   */\n      0x00\n        /* \"#utility.yul\":9769:9772   */\n      dup6\n        /* \"#utility.yul\":9765:9779   */\n      add\n        /* \"#utility.yul\":9751:9763   */\n      dup3\n        /* \"#utility.yul\":9717:9780   */\n      tag_404\n      jump\t// in\n    tag_561:\n        /* \"#utility.yul\":9617:9790   */\n      pop\n        /* \"#utility.yul\":9880:9884   */\n      0x20\n        /* \"#utility.yul\":9873:9878   */\n      dup3\n        /* \"#utility.yul\":9869:9885   */\n      add\n        /* \"#utility.yul\":9863:9886   */\n      mload\n        /* \"#utility.yul\":9899:9962   */\n      tag_562\n        /* \"#utility.yul\":9956:9960   */\n      0x20\n        /* \"#utility.yul\":9951:9954   */\n      dup6\n        /* \"#utility.yul\":9947:9961   */\n      add\n        /* \"#utility.yul\":9933:9945   */\n      dup3\n        /* \"#utility.yul\":9899:9962   */\n      tag_404\n      jump\t// in\n    tag_562:\n        /* \"#utility.yul\":9800:9972   */\n      pop\n        /* \"#utility.yul\":10059:10063   */\n      0x40\n        /* \"#utility.yul\":10052:10057   */\n      dup3\n        /* \"#utility.yul\":10048:10064   */\n      add\n        /* \"#utility.yul\":10042:10065   */\n      mload\n        /* \"#utility.yul\":10078:10141   */\n      tag_563\n        /* \"#utility.yul\":10135:10139   */\n      0x40\n        /* \"#utility.yul\":10130:10133   */\n      dup6\n        /* \"#utility.yul\":10126:10140   */\n      add\n        /* \"#utility.yul\":10112:10124   */\n      dup3\n        /* \"#utility.yul\":10078:10141   */\n      tag_405\n      jump\t// in\n    tag_563:\n        /* \"#utility.yul\":9982:10151   */\n      pop\n        /* \"#utility.yul\":9571:10158   */\n      pop\n        /* \"#utility.yul\":9469:10158   */\n      pop\n      pop\n      jump\t// out\n        /* \"#utility.yul\":10164:10435   */\n    tag_407:\n        /* \"#utility.yul\":10279:10289   */\n      0x00\n        /* \"#utility.yul\":10300:10392   */\n      tag_565\n        /* \"#utility.yul\":10388:10391   */\n      dup4\n        /* \"#utility.yul\":10380:10386   */\n      dup4\n        /* \"#utility.yul\":10300:10392   */\n      tag_406\n      jump\t// in\n    tag_565:\n        /* \"#utility.yul\":10424:10428   */\n      0x60\n        /* \"#utility.yul\":10419:10422   */\n      dup4\n        /* \"#utility.yul\":10415:10429   */\n      add\n        /* \"#utility.yul\":10401:10429   */\n      swap1\n      pop\n        /* \"#utility.yul\":10164:10435   */\n      swap3\n      swap2\n      pop\n      pop\n      jump\t// out\n        /* \"#utility.yul\":10441:10577   */\n    tag_408:\n        /* \"#utility.yul\":10534:10538   */\n      0x00\n        /* \"#utility.yul\":10566:10570   */\n      0x20\n        /* \"#utility.yul\":10561:10564   */\n      dup3\n        /* \"#utility.yul\":10557:10571   */\n      add\n        /* \"#utility.yul\":10549:10571   */\n      swap1\n      pop\n        /* \"#utility.yul\":10441:10577   */\n      swap2\n      swap1\n      pop\n      jump\t// out\n        /* \"#utility.yul\":10645:11561   */\n    tag_409:\n        /* \"#utility.yul\":10810:10813   */\n      0x00\n        /* \"#utility.yul\":10839:10916   */\n      tag_568\n        /* \"#utility.yul\":10910:10915   */\n      dup3\n        /* \"#utility.yul\":10839:10916   */\n      tag_401\n      jump\t// in\n    tag_568:\n        /* \"#utility.yul\":10932:11041   */\n      tag_569\n        /* \"#utility.yul\":11034:11040   */\n      dup2\n        /* \"#utility.yul\":11029:11032   */\n      dup6\n        /* \"#utility.yul\":10932:11041   */\n      tag_402\n      jump\t// in\n    tag_569:\n        /* \"#utility.yul\":10925:11041   */\n      swap4\n      pop\n        /* \"#utility.yul\":11065:11144   */\n      tag_570\n        /* \"#utility.yul\":11138:11143   */\n      dup4\n        /* \"#utility.yul\":11065:11144   */\n      tag_403\n      jump\t// in\n    tag_570:\n        /* \"#utility.yul\":11167:11174   */\n      dup1\n        /* \"#utility.yul\":11198:11199   */\n      0x00\n        /* \"#utility.yul\":11183:11536   */\n    tag_571:\n        /* \"#utility.yul\":11208:11214   */\n      dup4\n        /* \"#utility.yul\":11205:11206   */\n      dup2\n        /* \"#utility.yul\":11202:11215   */\n      lt\n        /* \"#utility.yul\":11183:11536   */\n      iszero\n      tag_573\n      jumpi\n        /* \"#utility.yul\":11284:11290   */\n      dup2\n        /* \"#utility.yul\":11278:11291   */\n      mload\n        /* \"#utility.yul\":11311:11420   */\n      tag_574\n        /* \"#utility.yul\":11416:11419   */\n      dup9\n        /* \"#utility.yul\":11401:11414   */\n      dup3\n        /* \"#utility.yul\":11311:11420   */\n      tag_407\n      jump\t// in\n    tag_574:\n        /* \"#utility.yul\":11304:11420   */\n      swap8\n      pop\n        /* \"#utility.yul\":11443:11526   */\n      tag_575\n        /* \"#utility.yul\":11519:11525   */\n      dup4\n        /* \"#utility.yul\":11443:11526   */\n      tag_408\n      jump\t// in\n    tag_575:\n        /* \"#utility.yul\":11433:11526   */\n      swap3\n      pop\n        /* \"#utility.yul\":11243:11536   */\n      pop\n        /* \"#utility.yul\":11230:11231   */\n      0x01\n        /* \"#utility.yul\":11227:11228   */\n      dup2\n        /* \"#utility.yul\":11223:11232   */\n      add\n        /* \"#utility.yul\":11218:11232   */\n      swap1\n      pop\n        /* \"#utility.yul\":11183:11536   */\n      jump(tag_571)\n    tag_573:\n        /* \"#utility.yul\":11187:11201   */\n      pop\n        /* \"#utility.yul\":11552:11555   */\n      dup6\n        /* \"#utility.yul\":11545:11555   */\n      swap4\n      pop\n        /* \"#utility.yul\":10815:11561   */\n      pop\n      pop\n      pop\n        /* \"#utility.yul\":10645:11561   */\n      swap3\n      swap2\n      pop\n      pop\n      jump\t// out\n        /* \"#utility.yul\":11567:11710   */\n    tag_410:\n        /* \"#utility.yul\":11663:11669   */\n      0x00\n        /* \"#utility.yul\":11697:11702   */\n      dup2\n        /* \"#utility.yul\":11691:11703   */\n      mload\n        /* \"#utility.yul\":11681:11703   */\n      swap1\n      pop\n        /* \"#utility.yul\":11567:11710   */\n      swap2\n      swap1\n      pop\n      jump\t// out\n        /* \"#utility.yul\":11716:11929   */\n    tag_411:\n        /* \"#utility.yul\":11844:11855   */\n      0x00\n        /* \"#utility.yul\":11878:11884   */\n      dup3\n        /* \"#utility.yul\":11873:11876   */\n      dup3\n        /* \"#utility.yul\":11866:11885   */\n      mstore\n        /* \"#utility.yul\":11918:11922   */\n      0x20\n        /* \"#utility.yul\":11913:11916   */\n      dup3\n        /* \"#utility.yul\":11909:11923   */\n      add\n        /* \"#utility.yul\":11894:11923   */\n      swap1\n      pop\n        /* \"#utility.yul\":11716:11929   */\n      swap3\n      swap2\n      pop\n      pop\n      jump\t// out\n        /* \"#utility.yul\":11935:12096   */\n    tag_412:\n        /* \"#utility.yul\":12031:12035   */\n      0x00\n        /* \"#utility.yul\":12054:12057   */\n      dup2\n        /* \"#utility.yul\":12046:12057   */\n      swap1\n      pop\n        /* \"#utility.yul\":12084:12088   */\n      0x20\n        /* \"#utility.yul\":12079:12082   */\n      dup3\n        /* \"#utility.yul\":12075:12089   */\n      add\n        /* \"#utility.yul\":12067:12089   */\n      swap1\n      pop\n        /* \"#utility.yul\":11935:12096   */\n      swap2\n      swap1\n      pop\n      jump\t// out\n        /* \"#utility.yul\":12172:12691   */\n    tag_413:\n        /* \"#utility.yul\":12317:12321   */\n      0x40\n        /* \"#utility.yul\":12312:12315   */\n      dup3\n        /* \"#utility.yul\":12308:12322   */\n      add\n        /* \"#utility.yul\":12413:12417   */\n      0x00\n        /* \"#utility.yul\":12406:12411   */\n      dup3\n        /* \"#utility.yul\":12402:12418   */\n      add\n        /* \"#utility.yul\":12396:12419   */\n      mload\n        /* \"#utility.yul\":12432:12495   */\n      tag_580\n        /* \"#utility.yul\":12489:12493   */\n      0x00\n        /* \"#utility.yul\":12484:12487   */\n      dup6\n        /* \"#utility.yul\":12480:12494   */\n      add\n        /* \"#utility.yul\":12466:12478   */\n      dup3\n        /* \"#utility.yul\":12432:12495   */\n      tag_404\n      jump\t// in\n    tag_580:\n        /* \"#utility.yul\":12332:12505   */\n      pop\n        /* \"#utility.yul\":12592:12596   */\n      0x20\n        /* \"#utility.yul\":12585:12590   */\n      dup3\n        /* \"#utility.yul\":12581:12597   */\n      add\n        /* \"#utility.yul\":12575:12598   */\n      mload\n        /* \"#utility.yul\":12611:12674   */\n      tag_581\n        /* \"#utility.yul\":12668:12672   */\n      0x20\n        /* \"#utility.yul\":12663:12666   */\n      dup6\n        /* \"#utility.yul\":12659:12673   */\n      add\n        /* \"#utility.yul\":12645:12657   */\n      dup3\n        /* \"#utility.yul\":12611:12674   */\n      tag_405\n      jump\t// in\n    tag_581:\n        /* \"#utility.yul\":12515:12684   */\n      pop\n        /* \"#utility.yul\":12286:12691   */\n      pop\n        /* \"#utility.yul\":12172:12691   */\n      pop\n      pop\n      jump\t// out\n        /* \"#utility.yul\":12697:12992   */\n    tag_414:\n        /* \"#utility.yul\":12824:12834   */\n      0x00\n        /* \"#utility.yul\":12845:12949   */\n      tag_583\n        /* \"#utility.yul\":12945:12948   */\n      dup4\n        /* \"#utility.yul\":12937:12943   */\n      dup4\n        /* \"#utility.yul\":12845:12949   */\n      tag_413\n      jump\t// in\n    tag_583:\n        /* \"#utility.yul\":12981:12985   */\n      0x40\n        /* \"#utility.yul\":12976:12979   */\n      dup4\n        /* \"#utility.yul\":12972:12986   */\n      add\n        /* \"#utility.yul\":12958:12986   */\n      swap1\n      pop\n        /* \"#utility.yul\":12697:12992   */\n      swap3\n      swap2\n      pop\n      pop\n      jump\t// out\n        /* \"#utility.yul\":12998:13140   */\n    tag_415:\n        /* \"#utility.yul\":13097:13101   */\n      0x00\n        /* \"#utility.yul\":13129:13133   */\n      0x20\n        /* \"#utility.yul\":13124:13127   */\n      dup3\n        /* \"#utility.yul\":13120:13134   */\n      add\n        /* \"#utility.yul\":13112:13134   */\n      swap1\n      pop\n        /* \"#utility.yul\":12998:13140   */\n      swap2\n      swap1\n      pop\n      jump\t// out\n        /* \"#utility.yul\":13220:14184   */\n    tag_416:\n        /* \"#utility.yul\":13397:13400   */\n      0x00\n        /* \"#utility.yul\":13426:13509   */\n      tag_586\n        /* \"#utility.yul\":13503:13508   */\n      dup3\n        /* \"#utility.yul\":13426:13509   */\n      tag_410\n      jump\t// in\n    tag_586:\n        /* \"#utility.yul\":13525:13640   */\n      tag_587\n        /* \"#utility.yul\":13633:13639   */\n      dup2\n        /* \"#utility.yul\":13628:13631   */\n      dup6\n        /* \"#utility.yul\":13525:13640   */\n      tag_411\n      jump\t// in\n    tag_587:\n        /* \"#utility.yul\":13518:13640   */\n      swap4\n      pop\n        /* \"#utility.yul\":13664:13749   */\n      tag_588\n        /* \"#utility.yul\":13743:13748   */\n      dup4\n        /* \"#utility.yul\":13664:13749   */\n      tag_412\n      jump\t// in\n    tag_588:\n        /* \"#utility.yul\":13772:13779   */\n      dup1\n        /* \"#utility.yul\":13803:13804   */\n      0x00\n        /* \"#utility.yul\":13788:14159   */\n    tag_589:\n        /* \"#utility.yul\":13813:13819   */\n      dup4\n        /* \"#utility.yul\":13810:13811   */\n      dup2\n        /* \"#utility.yul\":13807:13820   */\n      lt\n        /* \"#utility.yul\":13788:14159   */\n      iszero\n      tag_591\n      jumpi\n        /* \"#utility.yul\":13889:13895   */\n      dup2\n        /* \"#utility.yul\":13883:13896   */\n      mload\n        /* \"#utility.yul\":13916:14037   */\n      tag_592\n        /* \"#utility.yul\":14033:14036   */\n      dup9\n        /* \"#utility.yul\":14018:14031   */\n      dup3\n        /* \"#utility.yul\":13916:14037   */\n      tag_414\n      jump\t// in\n    tag_592:\n        /* \"#utility.yul\":13909:14037   */\n      swap8\n      pop\n        /* \"#utility.yul\":14060:14149   */\n      tag_593\n        /* \"#utility.yul\":14142:14148   */\n      dup4\n        /* \"#utility.yul\":14060:14149   */\n      tag_415\n      jump\t// in\n    tag_593:\n        /* \"#utility.yul\":14050:14149   */\n      swap3\n      pop\n        /* \"#utility.yul\":13848:14159   */\n      pop\n        /* \"#utility.yul\":13835:13836   */\n      0x01\n        /* \"#utility.yul\":13832:13833   */\n      dup2\n        /* \"#utility.yul\":13828:13837   */\n      add\n        /* \"#utility.yul\":13823:13837   */\n      swap1\n      pop\n        /* \"#utility.yul\":13788:14159   */\n      jump(tag_589)\n    tag_591:\n        /* \"#utility.yul\":13792:13806   */\n      pop\n        /* \"#utility.yul\":14175:14178   */\n      dup6\n        /* \"#utility.yul\":14168:14178   */\n      swap4\n      pop\n        /* \"#utility.yul\":13402:14184   */\n      pop\n      pop\n      pop\n        /* \"#utility.yul\":13220:14184   */\n      swap3\n      swap2\n      pop\n      pop\n      jump\t// out\n        /* \"#utility.yul\":14190:15032   */\n    tag_131:\n        /* \"#utility.yul\":14515:14519   */\n      0x00\n        /* \"#utility.yul\":14553:14555   */\n      0x40\n        /* \"#utility.yul\":14542:14551   */\n      dup3\n        /* \"#utility.yul\":14538:14556   */\n      add\n        /* \"#utility.yul\":14530:14556   */\n      swap1\n      pop\n        /* \"#utility.yul\":14602:14611   */\n      dup2\n        /* \"#utility.yul\":14596:14600   */\n      dup2\n        /* \"#utility.yul\":14592:14612   */\n      sub\n        /* \"#utility.yul\":14588:14589   */\n      0x00\n        /* \"#utility.yul\":14577:14586   */\n      dup4\n        /* \"#utility.yul\":14573:14590   */\n      add\n        /* \"#utility.yul\":14566:14613   */\n      mstore\n        /* \"#utility.yul\":14630:14784   */\n      tag_595\n        /* \"#utility.yul\":14779:14783   */\n      dup2\n        /* \"#utility.yul\":14770:14776   */\n      dup6\n        /* \"#utility.yul\":14630:14784   */\n      tag_409\n      jump\t// in\n    tag_595:\n        /* \"#utility.yul\":14622:14784   */\n      swap1\n      pop\n        /* \"#utility.yul\":14831:14840   */\n      dup2\n        /* \"#utility.yul\":14825:14829   */\n      dup2\n        /* \"#utility.yul\":14821:14841   */\n      sub\n        /* \"#utility.yul\":14816:14818   */\n      0x20\n        /* \"#utility.yul\":14805:14814   */\n      dup4\n        /* \"#utility.yul\":14801:14819   */\n      add\n        /* \"#utility.yul\":14794:14842   */\n      mstore\n        /* \"#utility.yul\":14859:15025   */\n      tag_596\n        /* \"#utility.yul\":15020:15024   */\n      dup2\n        /* \"#utility.yul\":15011:15017   */\n      dup5\n        /* \"#utility.yul\":14859:15025   */\n      tag_416\n      jump\t// in\n    tag_596:\n        /* \"#utility.yul\":14851:15025   */\n      swap1\n      pop\n        /* \"#utility.yul\":14190:15032   */\n      swap4\n      swap3\n      pop\n      pop\n      pop\n      jump\t// out\n        /* \"#utility.yul\":15038:15202   */\n    tag_417:\n        /* \"#utility.yul\":15178:15194   */\n      0x63616e7420646f206974206e6f77000000000000000000000000000000000000\n        /* \"#utility.yul\":15174:15175   */\n      0x00\n        /* \"#utility.yul\":15166:15172   */\n      dup3\n        /* \"#utility.yul\":15162:15176   */\n      add\n        /* \"#utility.yul\":15155:15195   */\n      mstore\n        /* \"#utility.yul\":15038:15202   */\n      pop\n      jump\t// out\n        /* \"#utility.yul\":15208:15574   */\n    tag_418:\n        /* \"#utility.yul\":15350:15353   */\n      0x00\n        /* \"#utility.yul\":15371:15438   */\n      tag_599\n        /* \"#utility.yul\":15435:15437   */\n      0x0e\n        /* \"#utility.yul\":15430:15433   */\n      dup4\n        /* \"#utility.yul\":15371:15438   */\n      tag_385\n      jump\t// in\n    tag_599:\n        /* \"#utility.yul\":15364:15438   */\n      swap2\n      pop\n        /* \"#utility.yul\":15447:15540   */\n      tag_600\n        /* \"#utility.yul\":15536:15539   */\n      dup3\n        /* \"#utility.yul\":15447:15540   */\n      tag_417\n      jump\t// in\n    tag_600:\n        /* \"#utility.yul\":15565:15567   */\n      0x20\n        /* \"#utility.yul\":15560:15563   */\n      dup3\n        /* \"#utility.yul\":15556:15568   */\n      add\n        /* \"#utility.yul\":15549:15568   */\n      swap1\n      pop\n        /* \"#utility.yul\":15208:15574   */\n      swap2\n      swap1\n      pop\n      jump\t// out\n        /* \"#utility.yul\":15580:15999   */\n    tag_156:\n        /* \"#utility.yul\":15746:15750   */\n      0x00\n        /* \"#utility.yul\":15784:15786   */\n      0x20\n        /* \"#utility.yul\":15773:15782   */\n      dup3\n        /* \"#utility.yul\":15769:15787   */\n      add\n        /* \"#utility.yul\":15761:15787   */\n      swap1\n      pop\n        /* \"#utility.yul\":15833:15842   */\n      dup2\n        /* \"#utility.yul\":15827:15831   */\n      dup2\n        /* \"#utility.yul\":15823:15843   */\n      sub\n        /* \"#utility.yul\":15819:15820   */\n      0x00\n        /* \"#utility.yul\":15808:15817   */\n      dup4\n        /* \"#utility.yul\":15804:15821   */\n      add\n        /* \"#utility.yul\":15797:15844   */\n      mstore\n        /* \"#utility.yul\":15861:15992   */\n      tag_602\n        /* \"#utility.yul\":15987:15991   */\n      dup2\n        /* \"#utility.yul\":15861:15992   */\n      tag_418\n      jump\t// in\n    tag_602:\n        /* \"#utility.yul\":15853:15992   */\n      swap1\n      pop\n        /* \"#utility.yul\":15580:15999   */\n      swap2\n      swap1\n      pop\n      jump\t// out\n        /* \"#utility.yul\":16005:16171   */\n    tag_419:\n        /* \"#utility.yul\":16145:16163   */\n      0x616f7574206f66206f72646572206e6f00000000000000000000000000000000\n        /* \"#utility.yul\":16141:16142   */\n      0x00\n        /* \"#utility.yul\":16133:16139   */\n      dup3\n        /* \"#utility.yul\":16129:16143   */\n      add\n        /* \"#utility.yul\":16122:16164   */\n      mstore\n        /* \"#utility.yul\":16005:16171   */\n      pop\n      jump\t// out\n        /* \"#utility.yul\":16177:16543   */\n    tag_420:\n        /* \"#utility.yul\":16319:16322   */\n      0x00\n        /* \"#utility.yul\":16340:16407   */\n      tag_605\n        /* \"#utility.yul\":16404:16406   */\n      0x10\n        /* \"#utility.yul\":16399:16402   */\n      dup4\n        /* \"#utility.yul\":16340:16407   */\n      tag_385\n      jump\t// in\n    tag_605:\n        /* \"#utility.yul\":16333:16407   */\n      swap2\n      pop\n        /* \"#utility.yul\":16416:16509   */\n      tag_606\n        /* \"#utility.yul\":16505:16508   */\n      dup3\n        /* \"#utility.yul\":16416:16509   */\n      tag_419\n      jump\t// in\n    tag_606:\n        /* \"#utility.yul\":16534:16536   */\n      0x20\n        /* \"#utility.yul\":16529:16532   */\n      dup3\n        /* \"#utility.yul\":16525:16537   */\n      add\n        /* \"#utility.yul\":16518:16537   */\n      swap1\n      pop\n        /* \"#utility.yul\":16177:16543   */\n      swap2\n      swap1\n      pop\n      jump\t// out\n        /* \"#utility.yul\":16549:16968   */\n    tag_159:\n        /* \"#utility.yul\":16715:16719   */\n      0x00\n        /* \"#utility.yul\":16753:16755   */\n      0x20\n        /* \"#utility.yul\":16742:16751   */\n      dup3\n        /* \"#utility.yul\":16738:16756   */\n      add\n        /* \"#utility.yul\":16730:16756   */\n      swap1\n      pop\n        /* \"#utility.yul\":16802:16811   */\n      dup2\n        /* \"#utility.yul\":16796:16800   */\n      dup2\n        /* \"#utility.yul\":16792:16812   */\n      sub\n        /* \"#utility.yul\":16788:16789   */\n      0x00\n        /* \"#utility.yul\":16777:16786   */\n      dup4\n        /* \"#utility.yul\":16773:16790   */\n      add\n        /* \"#utility.yul\":16766:16813   */\n      mstore\n        /* \"#utility.yul\":16830:16961   */\n      tag_608\n        /* \"#utility.yul\":16956:16960   */\n      dup2\n        /* \"#utility.yul\":16830:16961   */\n      tag_420\n      jump\t// in\n    tag_608:\n        /* \"#utility.yul\":16822:16961   */\n      swap1\n      pop\n        /* \"#utility.yul\":16549:16968   */\n      swap2\n      swap1\n      pop\n      jump\t// out\n        /* \"#utility.yul\":16974:17117   */\n    tag_421:\n        /* \"#utility.yul\":17031:17036   */\n      0x00\n        /* \"#utility.yul\":17062:17068   */\n      dup2\n        /* \"#utility.yul\":17056:17069   */\n      mload\n        /* \"#utility.yul\":17047:17069   */\n      swap1\n      pop\n        /* \"#utility.yul\":17078:17111   */\n      tag_610\n        /* \"#utility.yul\":17105:17110   */\n      dup2\n        /* \"#utility.yul\":17078:17111   */\n      tag_377\n      jump\t// in\n    tag_610:\n        /* \"#utility.yul\":16974:17117   */\n      swap3\n      swap2\n      pop\n      pop\n      jump\t// out\n        /* \"#utility.yul\":17123:17474   */\n    tag_164:\n        /* \"#utility.yul\":17193:17199   */\n      0x00\n        /* \"#utility.yul\":17242:17244   */\n      0x20\n        /* \"#utility.yul\":17230:17239   */\n      dup3\n        /* \"#utility.yul\":17221:17228   */\n      dup5\n        /* \"#utility.yul\":17217:17240   */\n      sub\n        /* \"#utility.yul\":17213:17245   */\n      slt\n        /* \"#utility.yul\":17210:17329   */\n      iszero\n      tag_612\n      jumpi\n        /* \"#utility.yul\":17248:17327   */\n      tag_613\n      tag_374\n      jump\t// in\n    tag_613:\n        /* \"#utility.yul\":17210:17329   */\n    tag_612:\n        /* \"#utility.yul\":17368:17369   */\n      0x00\n        /* \"#utility.yul\":17393:17457   */\n      tag_614\n        /* \"#utility.yul\":17449:17456   */\n      dup5\n        /* \"#utility.yul\":17440:17446   */\n      dup3\n        /* \"#utility.yul\":17429:17438   */\n      dup6\n        /* \"#utility.yul\":17425:17447   */\n      add\n        /* \"#utility.yul\":17393:17457   */\n      tag_421\n      jump\t// in\n    tag_614:\n        /* \"#utility.yul\":17383:17457   */\n      swap2\n      pop\n        /* \"#utility.yul\":17339:17467   */\n      pop\n        /* \"#utility.yul\":17123:17474   */\n      swap3\n      swap2\n      pop\n      pop\n      jump\t// out\n        /* \"#utility.yul\":17480:17646   */\n    tag_422:\n        /* \"#utility.yul\":17620:17638   */\n      0x646f6e74206f776e20746865206e667400000000000000000000000000000000\n        /* \"#utility.yul\":17616:17617   */\n      0x00\n        /* \"#utility.yul\":17608:17614   */\n      dup3\n        /* \"#utility.yul\":17604:17618   */\n      add\n        /* \"#utility.yul\":17597:17639   */\n      mstore\n        /* \"#utility.yul\":17480:17646   */\n      pop\n      jump\t// out\n        /* \"#utility.yul\":17652:18018   */\n    tag_423:\n        /* \"#utility.yul\":17794:17797   */\n      0x00\n        /* \"#utility.yul\":17815:17882   */\n      tag_617\n        /* \"#utility.yul\":17879:17881   */\n      0x10\n        /* \"#utility.yul\":17874:17877   */\n      dup4\n        /* \"#utility.yul\":17815:17882   */\n      tag_385\n      jump\t// in\n    tag_617:\n        /* \"#utility.yul\":17808:17882   */\n      swap2\n      pop\n        /* \"#utility.yul\":17891:17984   */\n      tag_618\n        /* \"#utility.yul\":17980:17983   */\n      dup3\n        /* \"#utility.yul\":17891:17984   */\n      tag_422\n      jump\t// in\n    tag_618:\n        /* \"#utility.yul\":18009:18011   */\n      0x20\n        /* \"#utility.yul\":18004:18007   */\n      dup3\n        /* \"#utility.yul\":18000:18012   */\n      add\n        /* \"#utility.yul\":17993:18012   */\n      swap1\n      pop\n        /* \"#utility.yul\":17652:18018   */\n      swap2\n      swap1\n      pop\n      jump\t// out\n        /* \"#utility.yul\":18024:18443   */\n    tag_167:\n        /* \"#utility.yul\":18190:18194   */\n      0x00\n        /* \"#utility.yul\":18228:18230   */\n      0x20\n        /* \"#utility.yul\":18217:18226   */\n      dup3\n        /* \"#utility.yul\":18213:18231   */\n      add\n        /* \"#utility.yul\":18205:18231   */\n      swap1\n      pop\n        /* \"#utility.yul\":18277:18286   */\n      dup2\n        /* \"#utility.yul\":18271:18275   */\n      dup2\n        /* \"#utility.yul\":18267:18287   */\n      sub\n        /* \"#utility.yul\":18263:18264   */\n      0x00\n        /* \"#utility.yul\":18252:18261   */\n      dup4\n        /* \"#utility.yul\":18248:18265   */\n      add\n        /* \"#utility.yul\":18241:18288   */\n      mstore\n        /* \"#utility.yul\":18305:18436   */\n      tag_620\n        /* \"#utility.yul\":18431:18435   */\n      dup2\n        /* \"#utility.yul\":18305:18436   */\n      tag_423\n      jump\t// in\n    tag_620:\n        /* \"#utility.yul\":18297:18436   */\n      swap1\n      pop\n        /* \"#utility.yul\":18024:18443   */\n      swap2\n      swap1\n      pop\n      jump\t// out\n        /* \"#utility.yul\":18449:18617   */\n    tag_424:\n        /* \"#utility.yul\":18589:18609   */\n      0x63616e2063617374206d6f726520766f74650000000000000000000000000000\n        /* \"#utility.yul\":18585:18586   */\n      0x00\n        /* \"#utility.yul\":18577:18583   */\n      dup3\n        /* \"#utility.yul\":18573:18587   */\n      add\n        /* \"#utility.yul\":18566:18610   */\n      mstore\n        /* \"#utility.yul\":18449:18617   */\n      pop\n      jump\t// out\n        /* \"#utility.yul\":18623:18989   */\n    tag_425:\n        /* \"#utility.yul\":18765:18768   */\n      0x00\n        /* \"#utility.yul\":18786:18853   */\n      tag_623\n        /* \"#utility.yul\":18850:18852   */\n      0x12\n        /* \"#utility.yul\":18845:18848   */\n      dup4\n        /* \"#utility.yul\":18786:18853   */\n      tag_385\n      jump\t// in\n    tag_623:\n        /* \"#utility.yul\":18779:18853   */\n      swap2\n      pop\n        /* \"#utility.yul\":18862:18955   */\n      tag_624\n        /* \"#utility.yul\":18951:18954   */\n      dup3\n        /* \"#utility.yul\":18862:18955   */\n      tag_424\n      jump\t// in\n    tag_624:\n        /* \"#utility.yul\":18980:18982   */\n      0x20\n        /* \"#utility.yul\":18975:18978   */\n      dup3\n        /* \"#utility.yul\":18971:18983   */\n      add\n        /* \"#utility.yul\":18964:18983   */\n      swap1\n      pop\n        /* \"#utility.yul\":18623:18989   */\n      swap2\n      swap1\n      pop\n      jump\t// out\n        /* \"#utility.yul\":18995:19414   */\n    tag_174:\n        /* \"#utility.yul\":19161:19165   */\n      0x00\n        /* \"#utility.yul\":19199:19201   */\n      0x20\n        /* \"#utility.yul\":19188:19197   */\n      dup3\n        /* \"#utility.yul\":19184:19202   */\n      add\n        /* \"#utility.yul\":19176:19202   */\n      swap1\n      pop\n        /* \"#utility.yul\":19248:19257   */\n      dup2\n        /* \"#utility.yul\":19242:19246   */\n      dup2\n        /* \"#utility.yul\":19238:19258   */\n      sub\n        /* \"#utility.yul\":19234:19235   */\n      0x00\n        /* \"#utility.yul\":19223:19232   */\n      dup4\n        /* \"#utility.yul\":19219:19236   */\n      add\n        /* \"#utility.yul\":19212:19259   */\n      mstore\n        /* \"#utility.yul\":19276:19407   */\n      tag_626\n        /* \"#utility.yul\":19402:19406   */\n      dup2\n        /* \"#utility.yul\":19276:19407   */\n      tag_425\n      jump\t// in\n    tag_626:\n        /* \"#utility.yul\":19268:19407   */\n      swap1\n      pop\n        /* \"#utility.yul\":18995:19414   */\n      swap2\n      swap1\n      pop\n      jump\t// out\n        /* \"#utility.yul\":19420:19563   */\n    tag_426:\n        /* \"#utility.yul\":19477:19482   */\n      0x00\n        /* \"#utility.yul\":19508:19514   */\n      dup2\n        /* \"#utility.yul\":19502:19515   */\n      mload\n        /* \"#utility.yul\":19493:19515   */\n      swap1\n      pop\n        /* \"#utility.yul\":19524:19557   */\n      tag_628\n        /* \"#utility.yul\":19551:19556   */\n      dup2\n        /* \"#utility.yul\":19524:19557   */\n      tag_382\n      jump\t// in\n    tag_628:\n        /* \"#utility.yul\":19420:19563   */\n      swap3\n      swap2\n      pop\n      pop\n      jump\t// out\n        /* \"#utility.yul\":19569:19920   */\n    tag_182:\n        /* \"#utility.yul\":19639:19645   */\n      0x00\n        /* \"#utility.yul\":19688:19690   */\n      0x20\n        /* \"#utility.yul\":19676:19685   */\n      dup3\n        /* \"#utility.yul\":19667:19674   */\n      dup5\n        /* \"#utility.yul\":19663:19686   */\n      sub\n        /* \"#utility.yul\":19659:19691   */\n      slt\n        /* \"#utility.yul\":19656:19775   */\n      iszero\n      tag_630\n      jumpi\n        /* \"#utility.yul\":19694:19773   */\n      tag_631\n      tag_374\n      jump\t// in\n    tag_631:\n        /* \"#utility.yul\":19656:19775   */\n    tag_630:\n        /* \"#utility.yul\":19814:19815   */\n      0x00\n        /* \"#utility.yul\":19839:19903   */\n      tag_632\n        /* \"#utility.yul\":19895:19902   */\n      dup5\n        /* \"#utility.yul\":19886:19892   */\n      dup3\n        /* \"#utility.yul\":19875:19884   */\n      dup6\n        /* \"#utility.yul\":19871:19893   */\n      add\n        /* \"#utility.yul\":19839:19903   */\n      tag_426\n      jump\t// in\n    tag_632:\n        /* \"#utility.yul\":19829:19903   */\n      swap2\n      pop\n        /* \"#utility.yul\":19785:19913   */\n      pop\n        /* \"#utility.yul\":19569:19920   */\n      swap3\n      swap2\n      pop\n      pop\n      jump\t// out\n        /* \"#utility.yul\":19926:20106   */\n    tag_427:\n        /* \"#utility.yul\":19974:20051   */\n      0x4e487b7100000000000000000000000000000000000000000000000000000000\n        /* \"#utility.yul\":19971:19972   */\n      0x00\n        /* \"#utility.yul\":19964:20052   */\n      mstore\n        /* \"#utility.yul\":20071:20075   */\n      0x11\n        /* \"#utility.yul\":20068:20069   */\n      0x04\n        /* \"#utility.yul\":20061:20076   */\n      mstore\n        /* \"#utility.yul\":20095:20099   */\n      0x24\n        /* \"#utility.yul\":20092:20093   */\n      0x00\n        /* \"#utility.yul\":20085:20100   */\n      revert\n        /* \"#utility.yul\":20112:20345   */\n    tag_186:\n        /* \"#utility.yul\":20151:20154   */\n      0x00\n        /* \"#utility.yul\":20174:20198   */\n      tag_635\n        /* \"#utility.yul\":20192:20197   */\n      dup3\n        /* \"#utility.yul\":20174:20198   */\n      tag_376\n      jump\t// in\n    tag_635:\n        /* \"#utility.yul\":20165:20198   */\n      swap2\n      pop\n        /* \"#utility.yul\":20220:20286   */\n      0xffffffffffffffffffffffffffffffffffffffffffffffffffffffffffffffff\n        /* \"#utility.yul\":20213:20218   */\n      dup3\n        /* \"#utility.yul\":20210:20287   */\n      sub\n        /* \"#utility.yul\":20207:20310   */\n      tag_636\n      jumpi\n        /* \"#utility.yul\":20290:20308   */\n      tag_637\n      tag_427\n      jump\t// in\n    tag_637:\n        /* \"#utility.yul\":20207:20310   */\n    tag_636:\n        /* \"#utility.yul\":20337:20338   */\n      0x01\n        /* \"#utility.yul\":20330:20335   */\n      dup3\n        /* \"#utility.yul\":20326:20339   */\n      add\n        /* \"#utility.yul\":20319:20339   */\n      swap1\n      pop\n        /* \"#utility.yul\":20112:20345   */\n      swap2\n      swap1\n      pop\n      jump\t// out\n        /* \"#utility.yul\":20351:20531   */\n    tag_428:\n        /* \"#utility.yul\":20399:20476   */\n      0x4e487b7100000000000000000000000000000000000000000000000000000000\n        /* \"#utility.yul\":20396:20397   */\n      0x00\n        /* \"#utility.yul\":20389:20477   */\n      mstore\n        /* \"#utility.yul\":20496:20500   */\n      0x22\n        /* \"#utility.yul\":20493:20494   */\n      0x04\n        /* \"#utility.yul\":20486:20501   */\n      mstore\n        /* \"#utility.yul\":20520:20524   */\n      0x24\n        /* \"#utility.yul\":20517:20518   */\n      0x00\n        /* \"#utility.yul\":20510:20525   */\n      revert\n        /* \"#utility.yul\":20537:20857   */\n    tag_195:\n        /* \"#utility.yul\":20581:20587   */\n      0x00\n        /* \"#utility.yul\":20618:20619   */\n      0x02\n        /* \"#utility.yul\":20612:20616   */\n      dup3\n        /* \"#utility.yul\":20608:20620   */\n      div\n        /* \"#utility.yul\":20598:20620   */\n      swap1\n      pop\n        /* \"#utility.yul\":20665:20666   */\n      0x01\n        /* \"#utility.yul\":20659:20663   */\n      dup3\n        /* \"#utility.yul\":20655:20667   */\n      and\n        /* \"#utility.yul\":20686:20704   */\n      dup1\n        /* \"#utility.yul\":20676:20757   */\n      tag_640\n      jumpi\n        /* \"#utility.yul\":20742:20746   */\n      0x7f\n        /* \"#utility.yul\":20734:20740   */\n      dup3\n        /* \"#utility.yul\":20730:20747   */\n      and\n        /* \"#utility.yul\":20720:20747   */\n      swap2\n      pop\n        /* \"#utility.yul\":20676:20757   */\n    tag_640:\n        /* \"#utility.yul\":20804:20806   */\n      0x20\n        /* \"#utility.yul\":20796:20802   */\n      dup3\n        /* \"#utility.yul\":20793:20807   */\n      lt\n        /* \"#utility.yul\":20773:20791   */\n      dup2\n        /* \"#utility.yul\":20770:20808   */\n      sub\n        /* \"#utility.yul\":20767:20851   */\n      tag_641\n      jumpi\n        /* \"#utility.yul\":20823:20841   */\n      tag_642\n      tag_428\n      jump\t// in\n    tag_642:\n        /* \"#utility.yul\":20767:20851   */\n    tag_641:\n        /* \"#utility.yul\":20588:20857   */\n      pop\n        /* \"#utility.yul\":20537:20857   */\n      swap2\n      swap1\n      pop\n      jump\t// out\n        /* \"#utility.yul\":20863:21004   */\n    tag_429:\n        /* \"#utility.yul\":20912:20916   */\n      0x00\n        /* \"#utility.yul\":20935:20938   */\n      dup2\n        /* \"#utility.yul\":20927:20938   */\n      swap1\n      pop\n        /* \"#utility.yul\":20958:20961   */\n      dup2\n        /* \"#utility.yul\":20955:20956   */\n      0x00\n        /* \"#utility.yul\":20948:20962   */\n      mstore\n        /* \"#utility.yul\":20992:20996   */\n      0x20\n        /* \"#utility.yul\":20989:20990   */\n      0x00\n        /* \"#utility.yul\":20979:20997   */\n      keccak256\n        /* \"#utility.yul\":20971:20997   */\n      swap1\n      pop\n        /* \"#utility.yul\":20863:21004   */\n      swap2\n      swap1\n      pop\n      jump\t// out\n        /* \"#utility.yul\":21010:21103   */\n    tag_430:\n        /* \"#utility.yul\":21047:21053   */\n      0x00\n        /* \"#utility.yul\":21094:21096   */\n      0x20\n        /* \"#utility.yul\":21089:21091   */\n      0x1f\n        /* \"#utility.yul\":21082:21087   */\n      dup4\n        /* \"#utility.yul\":21078:21092   */\n      add\n        /* \"#utility.yul\":21074:21097   */\n      div\n        /* \"#utility.yul\":21064:21097   */\n      swap1\n      pop\n        /* \"#utility.yul\":21010:21103   */\n      swap2\n      swap1\n      pop\n      jump\t// out\n        /* \"#utility.yul\":21109:21216   */\n    tag_431:\n        /* \"#utility.yul\":21153:21161   */\n      0x00\n        /* \"#utility.yul\":21203:21208   */\n      dup3\n        /* \"#utility.yul\":21197:21201   */\n      dup3\n        /* \"#utility.yul\":21193:21209   */\n      shl\n        /* \"#utility.yul\":21172:21209   */\n      swap1\n      pop\n        /* \"#utility.yul\":21109:21216   */\n      swap3\n      swap2\n      pop\n      pop\n      jump\t// out\n        /* \"#utility.yul\":21222:21615   */\n    tag_432:\n        /* \"#utility.yul\":21291:21297   */\n      0x00\n        /* \"#utility.yul\":21341:21342   */\n      0x08\n        /* \"#utility.yul\":21329:21339   */\n      dup4\n        /* \"#utility.yul\":21325:21343   */\n      mul\n        /* \"#utility.yul\":21364:21461   */\n      tag_647\n        /* \"#utility.yul\":21394:21460   */\n      0xffffffffffffffffffffffffffffffffffffffffffffffffffffffffffffffff\n        /* \"#utility.yul\":21383:21392   */\n      dup3\n        /* \"#utility.yul\":21364:21461   */\n      tag_431\n      jump\t// in\n    tag_647:\n        /* \"#utility.yul\":21482:21521   */\n      tag_648\n        /* \"#utility.yul\":21512:21520   */\n      dup7\n        /* \"#utility.yul\":21501:21510   */\n      dup4\n        /* \"#utility.yul\":21482:21521   */\n      tag_431\n      jump\t// in\n    tag_648:\n        /* \"#utility.yul\":21470:21521   */\n      swap6\n      pop\n        /* \"#utility.yul\":21554:21558   */\n      dup1\n        /* \"#utility.yul\":21550:21559   */\n      not\n        /* \"#utility.yul\":21543:21548   */\n      dup5\n        /* \"#utility.yul\":21539:21560   */\n      and\n        /* \"#utility.yul\":21530:21560   */\n      swap4\n      pop\n        /* \"#utility.yul\":21603:21607   */\n      dup1\n        /* \"#utility.yul\":21593:21601   */\n      dup7\n        /* \"#utility.yul\":21589:21608   */\n      and\n        /* \"#utility.yul\":21582:21587   */\n      dup5\n        /* \"#utility.yul\":21579:21609   */\n      or\n        /* \"#utility.yul\":21569:21609   */\n      swap3\n      pop\n        /* \"#utility.yul\":21298:21615   */\n      pop\n      pop\n        /* \"#utility.yul\":21222:21615   */\n      swap4\n      swap3\n      pop\n      pop\n      pop\n      jump\t// out\n        /* \"#utility.yul\":21621:21681   */\n    tag_433:\n        /* \"#utility.yul\":21649:21652   */\n      0x00\n        /* \"#utility.yul\":21670:21675   */\n      dup2\n        /* \"#utility.yul\":21663:21675   */\n      swap1\n      pop\n        /* \"#utility.yul\":21621:21681   */\n      swap2\n      swap1\n      pop\n      jump\t// out\n        /* \"#utility.yul\":21687:21829   */\n    tag_434:\n        /* \"#utility.yul\":21737:21746   */\n      0x00\n        /* \"#utility.yul\":21770:21823   */\n      tag_651\n        /* \"#utility.yul\":21788:21822   */\n      tag_652\n        /* \"#utility.yul\":21797:21821   */\n      tag_653\n        /* \"#utility.yul\":21815:21820   */\n      dup5\n        /* \"#utility.yul\":21797:21821   */\n      tag_376\n      jump\t// in\n    tag_653:\n        /* \"#utility.yul\":21788:21822   */\n      tag_433\n      jump\t// in\n    tag_652:\n        /* \"#utility.yul\":21770:21823   */\n      tag_376\n      jump\t// in\n    tag_651:\n        /* \"#utility.yul\":21757:21823   */\n      swap1\n      pop\n        /* \"#utility.yul\":21687:21829   */\n      swap2\n      swap1\n      pop\n      jump\t// out\n        /* \"#utility.yul\":21835:21910   */\n    tag_435:\n        /* \"#utility.yul\":21878:21881   */\n      0x00\n        /* \"#utility.yul\":21899:21904   */\n      dup2\n        /* \"#utility.yul\":21892:21904   */\n      swap1\n      pop\n        /* \"#utility.yul\":21835:21910   */\n      swap2\n      swap1\n      pop\n      jump\t// out\n        /* \"#utility.yul\":21916:22185   */\n    tag_436:\n        /* \"#utility.yul\":22026:22065   */\n      tag_656\n        /* \"#utility.yul\":22057:22064   */\n      dup4\n        /* \"#utility.yul\":22026:22065   */\n      tag_434\n      jump\t// in\n    tag_656:\n        /* \"#utility.yul\":22087:22178   */\n      tag_657\n        /* \"#utility.yul\":22136:22177   */\n      tag_658\n        /* \"#utility.yul\":22160:22176   */\n      dup3\n        /* \"#utility.yul\":22136:22177   */\n      tag_435\n      jump\t// in\n    tag_658:\n        /* \"#utility.yul\":22128:22134   */\n      dup5\n        /* \"#utility.yul\":22121:22125   */\n      dup5\n        /* \"#utility.yul\":22115:22126   */\n      sload\n        /* \"#utility.yul\":22087:22178   */\n      tag_432\n      jump\t// in\n    tag_657:\n        /* \"#utility.yul\":22081:22085   */\n      dup3\n        /* \"#utility.yul\":22074:22179   */\n      sstore\n        /* \"#utility.yul\":21992:22185   */\n      pop\n        /* \"#utility.yul\":21916:22185   */\n      pop\n      pop\n      pop\n      jump\t// out\n        /* \"#utility.yul\":22191:22264   */\n    tag_437:\n        /* \"#utility.yul\":22236:22239   */\n      0x00\n        /* \"#utility.yul\":22191:22264   */\n      swap1\n      jump\t// out\n        /* \"#utility.yul\":22270:22459   */\n    tag_438:\n        /* \"#utility.yul\":22347:22379   */\n      tag_661\n      tag_437\n      jump\t// in\n    tag_661:\n        /* \"#utility.yul\":22388:22453   */\n      tag_662\n        /* \"#utility.yul\":22446:22452   */\n      dup2\n        /* \"#utility.yul\":22438:22444   */\n      dup5\n        /* \"#utility.yul\":22432:22436   */\n      dup5\n        /* \"#utility.yul\":22388:22453   */\n      tag_436\n      jump\t// in\n    tag_662:\n        /* \"#utility.yul\":22323:22459   */\n      pop\n        /* \"#utility.yul\":22270:22459   */\n      pop\n      pop\n      jump\t// out\n        /* \"#utility.yul\":22465:22651   */\n    tag_439:\n        /* \"#utility.yul\":22525:22645   */\n    tag_664:\n        /* \"#utility.yul\":22542:22545   */\n      dup2\n        /* \"#utility.yul\":22535:22540   */\n      dup2\n        /* \"#utility.yul\":22532:22546   */\n      lt\n        /* \"#utility.yul\":22525:22645   */\n      iszero\n      tag_666\n      jumpi\n        /* \"#utility.yul\":22596:22635   */\n      tag_667\n        /* \"#utility.yul\":22633:22634   */\n      0x00\n        /* \"#utility.yul\":22626:22631   */\n      dup3\n        /* \"#utility.yul\":22596:22635   */\n      tag_438\n      jump\t// in\n    tag_667:\n        /* \"#utility.yul\":22569:22570   */\n      0x01\n        /* \"#utility.yul\":22562:22567   */\n      dup2\n        /* \"#utility.yul\":22558:22571   */\n      add\n        /* \"#utility.yul\":22549:22571   */\n      swap1\n      pop\n        /* \"#utility.yul\":22525:22645   */\n      jump(tag_664)\n    tag_666:\n        /* \"#utility.yul\":22465:22651   */\n      pop\n      pop\n      jump\t// out\n        /* \"#utility.yul\":22657:23200   */\n    tag_440:\n        /* \"#utility.yul\":22758:22760   */\n      0x1f\n        /* \"#utility.yul\":22753:22756   */\n      dup3\n        /* \"#utility.yul\":22750:22761   */\n      gt\n        /* \"#utility.yul\":22747:23193   */\n      iszero\n      tag_669\n      jumpi\n        /* \"#utility.yul\":22792:22830   */\n      tag_670\n        /* \"#utility.yul\":22824:22829   */\n      dup2\n        /* \"#utility.yul\":22792:22830   */\n      tag_429\n      jump\t// in\n    tag_670:\n        /* \"#utility.yul\":22876:22905   */\n      tag_671\n        /* \"#utility.yul\":22894:22904   */\n      dup5\n        /* \"#utility.yul\":22876:22905   */\n      tag_430\n      jump\t// in\n    tag_671:\n        /* \"#utility.yul\":22866:22874   */\n      dup2\n        /* \"#utility.yul\":22862:22906   */\n      add\n        /* \"#utility.yul\":23059:23061   */\n      0x20\n        /* \"#utility.yul\":23047:23057   */\n      dup6\n        /* \"#utility.yul\":23044:23062   */\n      lt\n        /* \"#utility.yul\":23041:23090   */\n      iszero\n      tag_672\n      jumpi\n        /* \"#utility.yul\":23080:23088   */\n      dup2\n        /* \"#utility.yul\":23065:23088   */\n      swap1\n      pop\n        /* \"#utility.yul\":23041:23090   */\n    tag_672:\n        /* \"#utility.yul\":23103:23183   */\n      tag_673\n        /* \"#utility.yul\":23159:23181   */\n      tag_674\n        /* \"#utility.yul\":23177:23180   */\n      dup6\n        /* \"#utility.yul\":23159:23181   */\n      tag_430\n      jump\t// in\n    tag_674:\n        /* \"#utility.yul\":23149:23157   */\n      dup4\n        /* \"#utility.yul\":23145:23182   */\n      add\n        /* \"#utility.yul\":23132:23143   */\n      dup3\n        /* \"#utility.yul\":23103:23183   */\n      tag_439\n      jump\t// in\n    tag_673:\n        /* \"#utility.yul\":22762:23193   */\n      pop\n      pop\n        /* \"#utility.yul\":22747:23193   */\n    tag_669:\n        /* \"#utility.yul\":22657:23200   */\n      pop\n      pop\n      pop\n      jump\t// out\n        /* \"#utility.yul\":23206:23323   */\n    tag_441:\n        /* \"#utility.yul\":23260:23268   */\n      0x00\n        /* \"#utility.yul\":23310:23315   */\n      dup3\n        /* \"#utility.yul\":23304:23308   */\n      dup3\n        /* \"#utility.yul\":23300:23316   */\n      shr\n        /* \"#utility.yul\":23279:23316   */\n      swap1\n      pop\n        /* \"#utility.yul\":23206:23323   */\n      swap3\n      swap2\n      pop\n      pop\n      jump\t// out\n        /* \"#utility.yul\":23329:23498   */\n    tag_442:\n        /* \"#utility.yul\":23373:23379   */\n      0x00\n        /* \"#utility.yul\":23406:23457   */\n      tag_677\n        /* \"#utility.yul\":23454:23455   */\n      0x00\n        /* \"#utility.yul\":23450:23456   */\n      not\n        /* \"#utility.yul\":23442:23447   */\n      dup5\n        /* \"#utility.yul\":23439:23440   */\n      0x08\n        /* \"#utility.yul\":23435:23448   */\n      mul\n        /* \"#utility.yul\":23406:23457   */\n      tag_441\n      jump\t// in\n    tag_677:\n        /* \"#utility.yul\":23402:23458   */\n      not\n        /* \"#utility.yul\":23487:23491   */\n      dup1\n        /* \"#utility.yul\":23481:23485   */\n      dup4\n        /* \"#utility.yul\":23477:23492   */\n      and\n        /* \"#utility.yul\":23467:23492   */\n      swap2\n      pop\n        /* \"#utility.yul\":23380:23498   */\n      pop\n        /* \"#utility.yul\":23329:23498   */\n      swap3\n      swap2\n      pop\n      pop\n      jump\t// out\n        /* \"#utility.yul\":23503:23798   */\n    tag_443:\n        /* \"#utility.yul\":23579:23583   */\n      0x00\n        /* \"#utility.yul\":23725:23754   */\n      tag_679\n        /* \"#utility.yul\":23750:23753   */\n      dup4\n        /* \"#utility.yul\":23744:23748   */\n      dup4\n        /* \"#utility.yul\":23725:23754   */\n      tag_442\n      jump\t// in\n    tag_679:\n        /* \"#utility.yul\":23717:23754   */\n      swap2\n      pop\n        /* \"#utility.yul\":23787:23790   */\n      dup3\n        /* \"#utility.yul\":23784:23785   */\n      0x02\n        /* \"#utility.yul\":23780:23791   */\n      mul\n        /* \"#utility.yul\":23774:23778   */\n      dup3\n        /* \"#utility.yul\":23771:23792   */\n      or\n        /* \"#utility.yul\":23763:23792   */\n      swap1\n      pop\n        /* \"#utility.yul\":23503:23798   */\n      swap3\n      swap2\n      pop\n      pop\n      jump\t// out\n        /* \"#utility.yul\":23803:25198   */\n    tag_207:\n        /* \"#utility.yul\":23920:23957   */\n      tag_681\n        /* \"#utility.yul\":23953:23956   */\n      dup3\n        /* \"#utility.yul\":23920:23957   */\n      tag_384\n      jump\t// in\n    tag_681:\n        /* \"#utility.yul\":24022:24040   */\n      0xffffffffffffffff\n        /* \"#utility.yul\":24014:24020   */\n      dup2\n        /* \"#utility.yul\":24011:24041   */\n      gt\n        /* \"#utility.yul\":24008:24064   */\n      iszero\n      tag_682\n      jumpi\n        /* \"#utility.yul\":24044:24062   */\n      tag_683\n      tag_392\n      jump\t// in\n    tag_683:\n        /* \"#utility.yul\":24008:24064   */\n    tag_682:\n        /* \"#utility.yul\":24088:24126   */\n      tag_684\n        /* \"#utility.yul\":24120:24124   */\n      dup3\n        /* \"#utility.yul\":24114:24125   */\n      sload\n        /* \"#utility.yul\":24088:24126   */\n      tag_195\n      jump\t// in\n    tag_684:\n        /* \"#utility.yul\":24173:24240   */\n      tag_685\n        /* \"#utility.yul\":24233:24239   */\n      dup3\n        /* \"#utility.yul\":24225:24231   */\n      dup3\n        /* \"#utility.yul\":24219:24223   */\n      dup6\n        /* \"#utility.yul\":24173:24240   */\n      tag_440\n      jump\t// in\n    tag_685:\n        /* \"#utility.yul\":24267:24268   */\n      0x00\n        /* \"#utility.yul\":24291:24295   */\n      0x20\n        /* \"#utility.yul\":24278:24295   */\n      swap1\n      pop\n        /* \"#utility.yul\":24323:24325   */\n      0x1f\n        /* \"#utility.yul\":24315:24321   */\n      dup4\n        /* \"#utility.yul\":24312:24326   */\n      gt\n        /* \"#utility.yul\":24340:24341   */\n      0x01\n        /* \"#utility.yul\":24335:24953   */\n      dup2\n      eq\n      tag_687\n      jumpi\n        /* \"#utility.yul\":24997:24998   */\n      0x00\n        /* \"#utility.yul\":25014:25020   */\n      dup5\n        /* \"#utility.yul\":25011:25088   */\n      iszero\n      tag_688\n      jumpi\n        /* \"#utility.yul\":25063:25072   */\n      dup3\n        /* \"#utility.yul\":25058:25061   */\n      dup8\n        /* \"#utility.yul\":25054:25073   */\n      add\n        /* \"#utility.yul\":25048:25074   */\n      mload\n        /* \"#utility.yul\":25039:25074   */\n      swap1\n      pop\n        /* \"#utility.yul\":25011:25088   */\n    tag_688:\n        /* \"#utility.yul\":25114:25181   */\n      tag_689\n        /* \"#utility.yul\":25174:25180   */\n      dup6\n        /* \"#utility.yul\":25167:25172   */\n      dup3\n        /* \"#utility.yul\":25114:25181   */\n      tag_443\n      jump\t// in\n    tag_689:\n        /* \"#utility.yul\":25108:25112   */\n      dup7\n        /* \"#utility.yul\":25101:25182   */\n      sstore\n        /* \"#utility.yul\":24970:25192   */\n      pop\n        /* \"#utility.yul\":24305:25192   */\n      jump(tag_686)\n        /* \"#utility.yul\":24335:24953   */\n    tag_687:\n        /* \"#utility.yul\":24387:24391   */\n      0x1f\n        /* \"#utility.yul\":24383:24392   */\n      not\n        /* \"#utility.yul\":24375:24381   */\n      dup5\n        /* \"#utility.yul\":24371:24393   */\n      and\n        /* \"#utility.yul\":24421:24458   */\n      tag_690\n        /* \"#utility.yul\":24453:24457   */\n      dup7\n        /* \"#utility.yul\":24421:24458   */\n      tag_429\n      jump\t// in\n    tag_690:\n        /* \"#utility.yul\":24480:24481   */\n      0x00\n        /* \"#utility.yul\":24494:24702   */\n    tag_691:\n        /* \"#utility.yul\":24508:24515   */\n      dup3\n        /* \"#utility.yul\":24505:24506   */\n      dup2\n        /* \"#utility.yul\":24502:24516   */\n      lt\n        /* \"#utility.yul\":24494:24702   */\n      iszero\n      tag_693\n      jumpi\n        /* \"#utility.yul\":24587:24596   */\n      dup5\n        /* \"#utility.yul\":24582:24585   */\n      dup10\n        /* \"#utility.yul\":24578:24597   */\n      add\n        /* \"#utility.yul\":24572:24598   */\n      mload\n        /* \"#utility.yul\":24564:24570   */\n      dup3\n        /* \"#utility.yul\":24557:24599   */\n      sstore\n        /* \"#utility.yul\":24638:24639   */\n      0x01\n        /* \"#utility.yul\":24630:24636   */\n      dup3\n        /* \"#utility.yul\":24626:24640   */\n      add\n        /* \"#utility.yul\":24616:24640   */\n      swap2\n      pop\n        /* \"#utility.yul\":24685:24687   */\n      0x20\n        /* \"#utility.yul\":24674:24683   */\n      dup6\n        /* \"#utility.yul\":24670:24688   */\n      add\n        /* \"#utility.yul\":24657:24688   */\n      swap5\n      pop\n        /* \"#utility.yul\":24531:24535   */\n      0x20\n        /* \"#utility.yul\":24528:24529   */\n      dup2\n        /* \"#utility.yul\":24524:24536   */\n      add\n        /* \"#utility.yul\":24519:24536   */\n      swap1\n      pop\n        /* \"#utility.yul\":24494:24702   */\n      jump(tag_691)\n    tag_693:\n        /* \"#utility.yul\":24730:24736   */\n      dup7\n        /* \"#utility.yul\":24721:24728   */\n      dup4\n        /* \"#utility.yul\":24718:24737   */\n      lt\n        /* \"#utility.yul\":24715:24894   */\n      iszero\n      tag_694\n      jumpi\n        /* \"#utility.yul\":24788:24797   */\n      dup5\n        /* \"#utility.yul\":24783:24786   */\n      dup10\n        /* \"#utility.yul\":24779:24798   */\n      add\n        /* \"#utility.yul\":24773:24799   */\n      mload\n        /* \"#utility.yul\":24831:24879   */\n      tag_695\n        /* \"#utility.yul\":24873:24877   */\n      0x1f\n        /* \"#utility.yul\":24865:24871   */\n      dup10\n        /* \"#utility.yul\":24861:24878   */\n      and\n        /* \"#utility.yul\":24850:24859   */\n      dup3\n        /* \"#utility.yul\":24831:24879   */\n      tag_442\n      jump\t// in\n    tag_695:\n        /* \"#utility.yul\":24823:24829   */\n      dup4\n        /* \"#utility.yul\":24816:24880   */\n      sstore\n        /* \"#utility.yul\":24738:24894   */\n      pop\n        /* \"#utility.yul\":24715:24894   */\n    tag_694:\n        /* \"#utility.yul\":24940:24941   */\n      0x01\n        /* \"#utility.yul\":24936:24937   */\n      0x02\n        /* \"#utility.yul\":24928:24934   */\n      dup9\n        /* \"#utility.yul\":24924:24938   */\n      mul\n        /* \"#utility.yul\":24920:24942   */\n      add\n        /* \"#utility.yul\":24914:24918   */\n      dup9\n        /* \"#utility.yul\":24907:24943   */\n      sstore\n        /* \"#utility.yul\":24342:24953   */\n      pop\n      pop\n      pop\n        /* \"#utility.yul\":24305:25192   */\n    tag_686:\n      pop\n        /* \"#utility.yul\":23895:25198   */\n      pop\n      pop\n      pop\n        /* \"#utility.yul\":23803:25198   */\n      pop\n      pop\n      jump\t// out\n        /* \"#utility.yul\":25204:25383   */\n    tag_444:\n        /* \"#utility.yul\":25344:25375   */\n      0x416d6f756e74206d7573742062652067726561746572207468616e2030000000\n        /* \"#utility.yul\":25340:25341   */\n      0x00\n        /* \"#utility.yul\":25332:25338   */\n      dup3\n        /* \"#utility.yul\":25328:25342   */\n      add\n        /* \"#utility.yul\":25321:25376   */\n      mstore\n        /* \"#utility.yul\":25204:25383   */\n      pop\n      jump\t// out\n        /* \"#utility.yul\":25389:25755   */\n    tag_445:\n        /* \"#utility.yul\":25531:25534   */\n      0x00\n        /* \"#utility.yul\":25552:25619   */\n      tag_698\n        /* \"#utility.yul\":25616:25618   */\n      0x1d\n        /* \"#utility.yul\":25611:25614   */\n      dup4\n        /* \"#utility.yul\":25552:25619   */\n      tag_385\n      jump\t// in\n    tag_698:\n        /* \"#utility.yul\":25545:25619   */\n      swap2\n      pop\n        /* \"#utility.yul\":25628:25721   */\n      tag_699\n        /* \"#utility.yul\":25717:25720   */\n      dup3\n        /* \"#utility.yul\":25628:25721   */\n      tag_444\n      jump\t// in\n    tag_699:\n        /* \"#utility.yul\":25746:25748   */\n      0x20\n        /* \"#utility.yul\":25741:25744   */\n      dup3\n        /* \"#utility.yul\":25737:25749   */\n      add\n        /* \"#utility.yul\":25730:25749   */\n      swap1\n      pop\n        /* \"#utility.yul\":25389:25755   */\n      swap2\n      swap1\n      pop\n      jump\t// out\n        /* \"#utility.yul\":25761:26180   */\n    tag_213:\n        /* \"#utility.yul\":25927:25931   */\n      0x00\n        /* \"#utility.yul\":25965:25967   */\n      0x20\n        /* \"#utility.yul\":25954:25963   */\n      dup3\n        /* \"#utility.yul\":25950:25968   */\n      add\n        /* \"#utility.yul\":25942:25968   */\n      swap1\n      pop\n        /* \"#utility.yul\":26014:26023   */\n      dup2\n        /* \"#utility.yul\":26008:26012   */\n      dup2\n        /* \"#utility.yul\":26004:26024   */\n      sub\n        /* \"#utility.yul\":26000:26001   */\n      0x00\n        /* \"#utility.yul\":25989:25998   */\n      dup4\n        /* \"#utility.yul\":25985:26002   */\n      add\n        /* \"#utility.yul\":25978:26025   */\n      mstore\n        /* \"#utility.yul\":26042:26173   */\n      tag_701\n        /* \"#utility.yul\":26168:26172   */\n      dup2\n        /* \"#utility.yul\":26042:26173   */\n      tag_445\n      jump\t// in\n    tag_701:\n        /* \"#utility.yul\":26034:26173   */\n      swap1\n      pop\n        /* \"#utility.yul\":25761:26180   */\n      swap2\n      swap1\n      pop\n      jump\t// out\n        /* \"#utility.yul\":26186:26362   */\n    tag_446:\n        /* \"#utility.yul\":26326:26354   */\n      0x496e73756666696369656e7420746f6b656e2062616c616e6365000000000000\n        /* \"#utility.yul\":26322:26323   */\n      0x00\n        /* \"#utility.yul\":26314:26320   */\n      dup3\n        /* \"#utility.yul\":26310:26324   */\n      add\n        /* \"#utility.yul\":26303:26355   */\n      mstore\n        /* \"#utility.yul\":26186:26362   */\n      pop\n      jump\t// out\n        /* \"#utility.yul\":26368:26734   */\n    tag_447:\n        /* \"#utility.yul\":26510:26513   */\n      0x00\n        /* \"#utility.yul\":26531:26598   */\n      tag_704\n        /* \"#utility.yul\":26595:26597   */\n      0x1a\n        /* \"#utility.yul\":26590:26593   */\n      dup4\n        /* \"#utility.yul\":26531:26598   */\n      tag_385\n      jump\t// in\n    tag_704:\n        /* \"#utility.yul\":26524:26598   */\n      swap2\n      pop\n        /* \"#utility.yul\":26607:26700   */\n      tag_705\n        /* \"#utility.yul\":26696:26699   */\n      dup3\n        /* \"#utility.yul\":26607:26700   */\n      tag_446\n      jump\t// in\n    tag_705:\n        /* \"#utility.yul\":26725:26727   */\n      0x20\n        /* \"#utility.yul\":26720:26723   */\n      dup3\n        /* \"#utility.yul\":26716:26728   */\n      add\n        /* \"#utility.yul\":26709:26728   */\n      swap1\n      pop\n        /* \"#utility.yul\":26368:26734   */\n      swap2\n      swap1\n      pop\n      jump\t// out\n        /* \"#utility.yul\":26740:27159   */\n    tag_220:\n        /* \"#utility.yul\":26906:26910   */\n      0x00\n        /* \"#utility.yul\":26944:26946   */\n      0x20\n        /* \"#utility.yul\":26933:26942   */\n      dup3\n        /* \"#utility.yul\":26929:26947   */\n      add\n        /* \"#utility.yul\":26921:26947   */\n      swap1\n      pop\n        /* \"#utility.yul\":26993:27002   */\n      dup2\n        /* \"#utility.yul\":26987:26991   */\n      dup2\n        /* \"#utility.yul\":26983:27003   */\n      sub\n        /* \"#utility.yul\":26979:26980   */\n      0x00\n        /* \"#utility.yul\":26968:26977   */\n      dup4\n        /* \"#utility.yul\":26964:26981   */\n      add\n        /* \"#utility.yul\":26957:27004   */\n      mstore\n        /* \"#utility.yul\":27021:27152   */\n      tag_707\n        /* \"#utility.yul\":27147:27151   */\n      dup2\n        /* \"#utility.yul\":27021:27152   */\n      tag_447\n      jump\t// in\n    tag_707:\n        /* \"#utility.yul\":27013:27152   */\n      swap1\n      pop\n        /* \"#utility.yul\":26740:27159   */\n      swap2\n      swap1\n      pop\n      jump\t// out\n        /* \"#utility.yul\":27165:27607   */\n    tag_222:\n        /* \"#utility.yul\":27314:27318   */\n      0x00\n        /* \"#utility.yul\":27352:27354   */\n      0x60\n        /* \"#utility.yul\":27341:27350   */\n      dup3\n        /* \"#utility.yul\":27337:27355   */\n      add\n        /* \"#utility.yul\":27329:27355   */\n      swap1\n      pop\n        /* \"#utility.yul\":27365:27436   */\n      tag_709\n        /* \"#utility.yul\":27433:27434   */\n      0x00\n        /* \"#utility.yul\":27422:27431   */\n      dup4\n        /* \"#utility.yul\":27418:27435   */\n      add\n        /* \"#utility.yul\":27409:27415   */\n      dup7\n        /* \"#utility.yul\":27365:27436   */\n      tag_389\n      jump\t// in\n    tag_709:\n        /* \"#utility.yul\":27446:27518   */\n      tag_710\n        /* \"#utility.yul\":27514:27516   */\n      0x20\n        /* \"#utility.yul\":27503:27512   */\n      dup4\n        /* \"#utility.yul\":27499:27517   */\n      add\n        /* \"#utility.yul\":27490:27496   */\n      dup6\n        /* \"#utility.yul\":27446:27518   */\n      tag_389\n      jump\t// in\n    tag_710:\n        /* \"#utility.yul\":27528:27600   */\n      tag_711\n        /* \"#utility.yul\":27596:27598   */\n      0x40\n        /* \"#utility.yul\":27585:27594   */\n      dup4\n        /* \"#utility.yul\":27581:27599   */\n      add\n        /* \"#utility.yul\":27572:27578   */\n      dup5\n        /* \"#utility.yul\":27528:27600   */\n      tag_379\n      jump\t// in\n    tag_711:\n        /* \"#utility.yul\":27165:27607   */\n      swap5\n      swap4\n      pop\n      pop\n      pop\n      pop\n      jump\t// out\n        /* \"#utility.yul\":27613:27729   */\n    tag_448:\n        /* \"#utility.yul\":27683:27704   */\n      tag_713\n        /* \"#utility.yul\":27698:27703   */\n      dup2\n        /* \"#utility.yul\":27683:27704   */\n      tag_399\n      jump\t// in\n    tag_713:\n        /* \"#utility.yul\":27676:27681   */\n      dup2\n        /* \"#utility.yul\":27673:27705   */\n      eq\n        /* \"#utility.yul\":27663:27723   */\n      tag_714\n      jumpi\n        /* \"#utility.yul\":27719:27720   */\n      0x00\n        /* \"#utility.yul\":27716:27717   */\n      dup1\n        /* \"#utility.yul\":27709:27721   */\n      revert\n        /* \"#utility.yul\":27663:27723   */\n    tag_714:\n        /* \"#utility.yul\":27613:27729   */\n      pop\n      jump\t// out\n        /* \"#utility.yul\":27735:27872   */\n    tag_449:\n        /* \"#utility.yul\":27789:27794   */\n      0x00\n        /* \"#utility.yul\":27820:27826   */\n      dup2\n        /* \"#utility.yul\":27814:27827   */\n      mload\n        /* \"#utility.yul\":27805:27827   */\n      swap1\n      pop\n        /* \"#utility.yul\":27836:27866   */\n      tag_716\n        /* \"#utility.yul\":27860:27865   */\n      dup2\n        /* \"#utility.yul\":27836:27866   */\n      tag_448\n      jump\t// in\n    tag_716:\n        /* \"#utility.yul\":27735:27872   */\n      swap3\n      swap2\n      pop\n      pop\n      jump\t// out\n        /* \"#utility.yul\":27878:28223   */\n    tag_226:\n        /* \"#utility.yul\":27945:27951   */\n      0x00\n        /* \"#utility.yul\":27994:27996   */\n      0x20\n        /* \"#utility.yul\":27982:27991   */\n      dup3\n        /* \"#utility.yul\":27973:27980   */\n      dup5\n        /* \"#utility.yul\":27969:27992   */\n      sub\n        /* \"#utility.yul\":27965:27997   */\n      slt\n        /* \"#utility.yul\":27962:28081   */\n      iszero\n      tag_718\n      jumpi\n        /* \"#utility.yul\":28000:28079   */\n      tag_719\n      tag_374\n      jump\t// in\n    tag_719:\n        /* \"#utility.yul\":27962:28081   */\n    tag_718:\n        /* \"#utility.yul\":28120:28121   */\n      0x00\n        /* \"#utility.yul\":28145:28206   */\n      tag_720\n        /* \"#utility.yul\":28198:28205   */\n      dup5\n        /* \"#utility.yul\":28189:28195   */\n      dup3\n        /* \"#utility.yul\":28178:28187   */\n      dup6\n        /* \"#utility.yul\":28174:28196   */\n      add\n        /* \"#utility.yul\":28145:28206   */\n      tag_449\n      jump\t// in\n    tag_720:\n        /* \"#utility.yul\":28135:28206   */\n      swap2\n      pop\n        /* \"#utility.yul\":28091:28216   */\n      pop\n        /* \"#utility.yul\":27878:28223   */\n      swap3\n      swap2\n      pop\n      pop\n      jump\t// out\n        /* \"#utility.yul\":28229:28397   */\n    tag_450:\n        /* \"#utility.yul\":28369:28389   */\n      0x7472616e73616374696f6e206661696c65640000000000000000000000000000\n        /* \"#utility.yul\":28365:28366   */\n      0x00\n        /* \"#utility.yul\":28357:28363   */\n      dup3\n        /* \"#utility.yul\":28353:28367   */\n      add\n        /* \"#utility.yul\":28346:28390   */\n      mstore\n        /* \"#utility.yul\":28229:28397   */\n      pop\n      jump\t// out\n        /* \"#utility.yul\":28403:28769   */\n    tag_451:\n        /* \"#utility.yul\":28545:28548   */\n      0x00\n        /* \"#utility.yul\":28566:28633   */\n      tag_723\n        /* \"#utility.yul\":28630:28632   */\n      0x12\n        /* \"#utility.yul\":28625:28628   */\n      dup4\n        /* \"#utility.yul\":28566:28633   */\n      tag_385\n      jump\t// in\n    tag_723:\n        /* \"#utility.yul\":28559:28633   */\n      swap2\n      pop\n        /* \"#utility.yul\":28642:28735   */\n      tag_724\n        /* \"#utility.yul\":28731:28734   */\n      dup3\n        /* \"#utility.yul\":28642:28735   */\n      tag_450\n      jump\t// in\n    tag_724:\n        /* \"#utility.yul\":28760:28762   */\n      0x20\n        /* \"#utility.yul\":28755:28758   */\n      dup3\n        /* \"#utility.yul\":28751:28763   */\n      add\n        /* \"#utility.yul\":28744:28763   */\n      swap1\n      pop\n        /* \"#utility.yul\":28403:28769   */\n      swap2\n      swap1\n      pop\n      jump\t// out\n        /* \"#utility.yul\":28775:29194   */\n    tag_229:\n        /* \"#utility.yul\":28941:28945   */\n      0x00\n        /* \"#utility.yul\":28979:28981   */\n      0x20\n        /* \"#utility.yul\":28968:28977   */\n      dup3\n        /* \"#utility.yul\":28964:28982   */\n      add\n        /* \"#utility.yul\":28956:28982   */\n      swap1\n      pop\n        /* \"#utility.yul\":29028:29037   */\n      dup2\n        /* \"#utility.yul\":29022:29026   */\n      dup2\n        /* \"#utility.yul\":29018:29038   */\n      sub\n        /* \"#utility.yul\":29014:29015   */\n      0x00\n        /* \"#utility.yul\":29003:29012   */\n      dup4\n        /* \"#utility.yul\":28999:29016   */\n      add\n        /* \"#utility.yul\":28992:29039   */\n      mstore\n        /* \"#utility.yul\":29056:29187   */\n      tag_726\n        /* \"#utility.yul\":29182:29186   */\n      dup2\n        /* \"#utility.yul\":29056:29187   */\n      tag_451\n      jump\t// in\n    tag_726:\n        /* \"#utility.yul\":29048:29187   */\n      swap1\n      pop\n        /* \"#utility.yul\":28775:29194   */\n      swap2\n      swap1\n      pop\n      jump\t// out\n        /* \"#utility.yul\":29200:29375   */\n    tag_452:\n        /* \"#utility.yul\":29340:29367   */\n      0x63616e7420636c61696d2077696e6e65722070726f6a65637400000000000000\n        /* \"#utility.yul\":29336:29337   */\n      0x00\n        /* \"#utility.yul\":29328:29334   */\n      dup3\n        /* \"#utility.yul\":29324:29338   */\n      add\n        /* \"#utility.yul\":29317:29368   */\n      mstore\n        /* \"#utility.yul\":29200:29375   */\n      pop\n      jump\t// out\n        /* \"#utility.yul\":29381:29747   */\n    tag_453:\n        /* \"#utility.yul\":29523:29526   */\n      0x00\n        /* \"#utility.yul\":29544:29611   */\n      tag_729\n        /* \"#utility.yul\":29608:29610   */\n      0x19\n        /* \"#utility.yul\":29603:29606   */\n      dup4\n        /* \"#utility.yul\":29544:29611   */\n      tag_385\n      jump\t// in\n    tag_729:\n        /* \"#utility.yul\":29537:29611   */\n      swap2\n      pop\n        /* \"#utility.yul\":29620:29713   */\n      tag_730\n        /* \"#utility.yul\":29709:29712   */\n      dup3\n        /* \"#utility.yul\":29620:29713   */\n      tag_452\n      jump\t// in\n    tag_730:\n        /* \"#utility.yul\":29738:29740   */\n      0x20\n        /* \"#utility.yul\":29733:29736   */\n      dup3\n        /* \"#utility.yul\":29729:29741   */\n      add\n        /* \"#utility.yul\":29722:29741   */\n      swap1\n      pop\n        /* \"#utility.yul\":29381:29747   */\n      swap2\n      swap1\n      pop\n      jump\t// out\n        /* \"#utility.yul\":29753:30172   */\n    tag_239:\n        /* \"#utility.yul\":29919:29923   */\n      0x00\n        /* \"#utility.yul\":29957:29959   */\n      0x20\n        /* \"#utility.yul\":29946:29955   */\n      dup3\n        /* \"#utility.yul\":29942:29960   */\n      add\n        /* \"#utility.yul\":29934:29960   */\n      swap1\n      pop\n        /* \"#utility.yul\":30006:30015   */\n      dup2\n        /* \"#utility.yul\":30000:30004   */\n      dup2\n        /* \"#utility.yul\":29996:30016   */\n      sub\n        /* \"#utility.yul\":29992:29993   */\n      0x00\n        /* \"#utility.yul\":29981:29990   */\n      dup4\n        /* \"#utility.yul\":29977:29994   */\n      add\n        /* \"#utility.yul\":29970:30017   */\n      mstore\n        /* \"#utility.yul\":30034:30165   */\n      tag_732\n        /* \"#utility.yul\":30160:30164   */\n      dup2\n        /* \"#utility.yul\":30034:30165   */\n      tag_453\n      jump\t// in\n    tag_732:\n        /* \"#utility.yul\":30026:30165   */\n      swap1\n      pop\n        /* \"#utility.yul\":29753:30172   */\n      swap2\n      swap1\n      pop\n      jump\t// out\n        /* \"#utility.yul\":30178:30358   */\n    tag_245:\n        /* \"#utility.yul\":30226:30303   */\n      0x4e487b7100000000000000000000000000000000000000000000000000000000\n        /* \"#utility.yul\":30223:30224   */\n      0x00\n        /* \"#utility.yul\":30216:30304   */\n      mstore\n        /* \"#utility.yul\":30323:30327   */\n      0x32\n        /* \"#utility.yul\":30320:30321   */\n      0x04\n        /* \"#utility.yul\":30313:30328   */\n      mstore\n        /* \"#utility.yul\":30347:30351   */\n      0x24\n        /* \"#utility.yul\":30344:30345   */\n      0x00\n        /* \"#utility.yul\":30337:30352   */\n      revert\n        /* \"#utility.yul\":30364:30696   */\n    tag_255:\n        /* \"#utility.yul\":30485:30489   */\n      0x00\n        /* \"#utility.yul\":30523:30525   */\n      0x40\n        /* \"#utility.yul\":30512:30521   */\n      dup3\n        /* \"#utility.yul\":30508:30526   */\n      add\n        /* \"#utility.yul\":30500:30526   */\n      swap1\n      pop\n        /* \"#utility.yul\":30536:30607   */\n      tag_735\n        /* \"#utility.yul\":30604:30605   */\n      0x00\n        /* \"#utility.yul\":30593:30602   */\n      dup4\n        /* \"#utility.yul\":30589:30606   */\n      add\n        /* \"#utility.yul\":30580:30586   */\n      dup6\n        /* \"#utility.yul\":30536:30607   */\n      tag_389\n      jump\t// in\n    tag_735:\n        /* \"#utility.yul\":30617:30689   */\n      tag_736\n        /* \"#utility.yul\":30685:30687   */\n      0x20\n        /* \"#utility.yul\":30674:30683   */\n      dup4\n        /* \"#utility.yul\":30670:30688   */\n      add\n        /* \"#utility.yul\":30661:30667   */\n      dup5\n        /* \"#utility.yul\":30617:30689   */\n      tag_379\n      jump\t// in\n    tag_736:\n        /* \"#utility.yul\":30364:30696   */\n      swap4\n      swap3\n      pop\n      pop\n      pop\n      jump\t// out\n        /* \"#utility.yul\":30702:30893   */\n    tag_278:\n        /* \"#utility.yul\":30742:30745   */\n      0x00\n        /* \"#utility.yul\":30761:30781   */\n      tag_738\n        /* \"#utility.yul\":30779:30780   */\n      dup3\n        /* \"#utility.yul\":30761:30781   */\n      tag_376\n      jump\t// in\n    tag_738:\n        /* \"#utility.yul\":30756:30781   */\n      swap2\n      pop\n        /* \"#utility.yul\":30795:30815   */\n      tag_739\n        /* \"#utility.yul\":30813:30814   */\n      dup4\n        /* \"#utility.yul\":30795:30815   */\n      tag_376\n      jump\t// in\n    tag_739:\n        /* \"#utility.yul\":30790:30815   */\n      swap3\n      pop\n        /* \"#utility.yul\":30838:30839   */\n      dup3\n        /* \"#utility.yul\":30835:30836   */\n      dup3\n        /* \"#utility.yul\":30831:30840   */\n      add\n        /* \"#utility.yul\":30824:30840   */\n      swap1\n      pop\n        /* \"#utility.yul\":30859:30862   */\n      dup1\n        /* \"#utility.yul\":30856:30857   */\n      dup3\n        /* \"#utility.yul\":30853:30863   */\n      gt\n        /* \"#utility.yul\":30850:30886   */\n      iszero\n      tag_740\n      jumpi\n        /* \"#utility.yul\":30866:30884   */\n      tag_741\n      tag_427\n      jump\t// in\n    tag_741:\n        /* \"#utility.yul\":30850:30886   */\n    tag_740:\n        /* \"#utility.yul\":30702:30893   */\n      swap3\n      swap2\n      pop\n      pop\n      jump\t// out\n        /* \"#utility.yul\":30899:31079   */\n    tag_303:\n        /* \"#utility.yul\":30947:31024   */\n      0x4e487b7100000000000000000000000000000000000000000000000000000000\n        /* \"#utility.yul\":30944:30945   */\n      0x00\n        /* \"#utility.yul\":30937:31025   */\n      mstore\n        /* \"#utility.yul\":31044:31048   */\n      0x21\n        /* \"#utility.yul\":31041:31042   */\n      0x04\n        /* \"#utility.yul\":31034:31049   */\n      mstore\n        /* \"#utility.yul\":31068:31072   */\n      0x24\n        /* \"#utility.yul\":31065:31066   */\n      0x00\n        /* \"#utility.yul\":31058:31073   */\n      revert\n\n    auxdata: 0xa2646970667358221220ba44d50ac3dbac11be59f28339ecd99da14b02766cd627ec971ba9cfbbb5e45864736f6c634300081a0033\n}\n",
				"bytecode": {
					"linkReferences": {},
					"object": "60806040525f6003555f600460146101000a81548160ff0219169083600281111561002d5761002c6101f0565b5b02179055505f600655600a600755348015610046575f80fd5b50604051612fc2380380612fc2833981810160405281019061006891906102ae565b825f73ffffffffffffffffffffffffffffffffffffffff168173ffffffffffffffffffffffffffffffffffffffff16036100d9575f6040517f1e4fbdf70000000000000000000000000000000000000000000000000000000081526004016100d0919061030d565b60405180910390fd5b6100e88161012f60201b60201c565b50603c826100f69190610353565b426101019190610394565b600181905550603c816101149190610353565b6001546101219190610394565b6002819055505050506103c7565b5f805f9054906101000a900473ffffffffffffffffffffffffffffffffffffffff169050815f806101000a81548173ffffffffffffffffffffffffffffffffffffffff021916908373ffffffffffffffffffffffffffffffffffffffff1602179055508173ffffffffffffffffffffffffffffffffffffffff168173ffffffffffffffffffffffffffffffffffffffff167f8be0079c531659141344cd1fd0a4f28419497f9722a3daafe3b4186f6b6457e060405160405180910390a35050565b7f4e487b71000000000000000000000000000000000000000000000000000000005f52602160045260245ffd5b5f80fd5b5f73ffffffffffffffffffffffffffffffffffffffff82169050919050565b5f61024a82610221565b9050919050565b61025a81610240565b8114610264575f80fd5b50565b5f8151905061027581610251565b92915050565b5f819050919050565b61028d8161027b565b8114610297575f80fd5b50565b5f815190506102a881610284565b92915050565b5f805f606084860312156102c5576102c461021d565b5b5f6102d286828701610267565b93505060206102e38682870161029a565b92505060406102f48682870161029a565b9150509250925092565b61030781610240565b82525050565b5f6020820190506103205f8301846102fe565b92915050565b7f4e487b71000000000000000000000000000000000000000000000000000000005f52601160045260245ffd5b5f61035d8261027b565b91506103688361027b565b92508282026103768161027b565b9150828204841483151761038d5761038c610326565b5b5092915050565b5f61039e8261027b565b91506103a98361027b565b92508282019050808211156103c1576103c0610326565b5b92915050565b612bee806103d45f395ff3fe608060405260043610610180575f3560e01c8063715018a6116100d0578063bae60c8811610089578063d19ee35711610063578063d19ee3571461055f578063f2fde38b14610587578063f4b1f501146105af578063f84ddf0b146105d957610180565b8063bae60c88146104de578063bfb906a7146104fa578063cb06545c1461053757610180565b8063715018a6146103d45780638da5cb5b146103ea57806399b1760a14610414578063a3ec138d14610450578063aae282e11461048c578063b00741cb146104b657610180565b806333b2decc1161013d578063382007021161011757806338200702146103085780633885aed3146103445780634e69d5601461036e5780636a460d411461039857610180565b806333b2decc1461028e57806336fbad26146102b6578063379607f5146102e057610180565b80630121b93f1461018457806302a251a3146101ac5780630b102d1a146101d65780630d15fd77146101fe578063107046bd14610228578063239ecf3514610266575b5f80fd5b34801561018f575f80fd5b506101aa60048036038101906101a59190611d51565b610603565b005b3480156101b7575f80fd5b506101c0610a67565b6040516101cd9190611d8b565b60405180910390f35b3480156101e1575f80fd5b506101fc60048036038101906101f79190611dfe565b610a6d565b005b348015610209575f80fd5b50610212610ab8565b60405161021f9190611d8b565b60405180910390f35b348015610233575f80fd5b5061024e60048036038101906102499190611d51565b610abe565b60405161025d93929190611ea8565b60405180910390f35b348015610271575f80fd5b5061028c60048036038101906102879190612010565b610b89565b005b348015610299575f80fd5b506102b460048036038101906102af9190612057565b610c63565b005b3480156102c1575f80fd5b506102ca610fbd565b6040516102d79190611d8b565b60405180910390f35b3480156102eb575f80fd5b5061030660048036038101906103019190611d51565b610fc3565b005b348015610313575f80fd5b5061032e60048036038101906103299190611d51565b61124c565b60405161033b91906120c1565b60405180910390f35b34801561034f575f80fd5b50610358611269565b6040516103659190611d8b565b60405180910390f35b348015610379575f80fd5b5061038261126f565b60405161038f9190611d8b565b60405180910390f35b3480156103a3575f80fd5b506103be60048036038101906103b99190611d51565b6112ab565b6040516103cb9190611d8b565b60405180910390f35b3480156103df575f80fd5b506103e8611320565b005b3480156103f5575f80fd5b506103fe611333565b60405161040b91906120da565b60405180910390f35b34801561041f575f80fd5b5061043a600480360381019061043591906120f3565b61135a565b6040516104479190611d8b565b60405180910390f35b34801561045b575f80fd5b5061047660048036038101906104719190611dfe565b611448565b6040516104839190611d8b565b60405180910390f35b348015610497575f80fd5b506104a061145d565b6040516104ad91906120da565b60405180910390f35b3480156104c1575f80fd5b506104dc60048036038101906104d79190611d51565b611482565b005b6104f860048036038101906104f39190612131565b611527565b005b348015610505575f80fd5b50610520600480360381019061051b9190611d51565b61168c565b60405161052e92919061234a565b60405180910390f35b348015610542575f80fd5b5061055d60048036038101906105589190611d51565b61187d565b005b34801561056a575f80fd5b5061058560048036038101906105809190611dfe565b61188f565b005b348015610592575f80fd5b506105ad60048036038101906105a89190611dfe565b611a6c565b005b3480156105ba575f80fd5b506105c3611af0565b6040516105d09190611d8b565b60405180910390f35b3480156105e4575f80fd5b506105ed611b40565b6040516105fa9190611d8b565b60405180910390f35b600154421015801561061757506002544211155b610656576040517f08c379a000000000000000000000000000000000000000000000000000000000815260040161064d906123c9565b60405180910390fd5b80600354101561069b576040517f08c379a000000000000000000000000000000000000000000000000000000000815260040161069290612431565b60405180910390fd5b5f60045f9054906101000a900473ffffffffffffffffffffffffffffffffffffffff1673ffffffffffffffffffffffffffffffffffffffff166370a08231336040518263ffffffff1660e01b81526004016106f691906120da565b602060405180830381865afa158015610711573d5f803e3d5ffd5b505050506040513d601f19601f820116820180604052508101906107359190612463565b11610775576040517f08c379a000000000000000000000000000000000000000000000000000000000815260040161076c906124d8565b60405180910390fd5b5f60095f8381526020019081526020015f20905060045f9054906101000a900473ffffffffffffffffffffffffffffffffffffffff1673ffffffffffffffffffffffffffffffffffffffff166370a08231336040518263ffffffff1660e01b81526004016107e391906120da565b602060405180830381865afa1580156107fe573d5f803e3d5ffd5b505050506040513d601f19601f820116820180604052508101906108229190612463565b60055f3373ffffffffffffffffffffffffffffffffffffffff1673ffffffffffffffffffffffffffffffffffffffff1681526020019081526020015f2054106108a0576040517f08c379a000000000000000000000000000000000000000000000000000000000815260040161089790612540565b60405180910390fd5b5f5b6007548111610a62573373ffffffffffffffffffffffffffffffffffffffff1660045f9054906101000a900473ffffffffffffffffffffffffffffffffffffffff1673ffffffffffffffffffffffffffffffffffffffff16636352211e836040518263ffffffff1660e01b815260040161091c9190611d8b565b602060405180830381865afa158015610937573d5f803e3d5ffd5b505050506040513d601f19601f8201168201806040525081019061095b9190612572565b73ffffffffffffffffffffffffffffffffffffffff1603610a4f575f151560085f8381526020019081526020015f205f9054906101000a900460ff16151503610a4e5760055f3373ffffffffffffffffffffffffffffffffffffffff1673ffffffffffffffffffffffffffffffffffffffff1681526020019081526020015f205f8154809291906109eb906125ca565b9190505550816004015f815480929190610a04906125ca565b919050555060065f815480929190610a1b906125ca565b9190505550600160085f8381526020019081526020015f205f6101000a81548160ff021916908315150217905550610a62565b5b8080610a5a906125ca565b9150506108a2565b505050565b60025481565b610a75611b46565b8060045f6101000a81548173ffffffffffffffffffffffffffffffffffffffff021916908373ffffffffffffffffffffffffffffffffffffffff16021790555050565b60065481565b6009602052805f5260405f205f91509050805f018054610add9061263e565b80601f0160208091040260200160405190810160405280929190818152602001828054610b099061263e565b8015610b545780601f10610b2b57610100808354040283529160200191610b54565b820191905f5260205f20905b815481529060010190602001808311610b3757829003601f168201915b505050505090806001015f9054906101000a900473ffffffffffffffffffffffffffffffffffffffff16908060040154905083565b610b91611b46565b600154421115610bd6576040517f08c379a0000000000000000000000000000000000000000000000000000000008152600401610bcd906123c9565b60405180910390fd5b60035f815480929190610be8906125ca565b91905055505f60095f60035481526020019081526020015f20905081815f019081610c13919061280b565b5033816001015f6101000a81548173ffffffffffffffffffffffffffffffffffffffff021916908373ffffffffffffffffffffffffffffffffffffffff1602179055505f81600401819055505050565b600154421115610ca8576040517f08c379a0000000000000000000000000000000000000000000000000000000008152600401610c9f906123c9565b60405180910390fd5b5f8111610cea576040517f08c379a0000000000000000000000000000000000000000000000000000000008152600401610ce190612924565b60405180910390fd5b808273ffffffffffffffffffffffffffffffffffffffff166370a08231336040518263ffffffff1660e01b8152600401610d2491906120da565b602060405180830381865afa158015610d3f573d5f803e3d5ffd5b505050506040513d601f19601f82011682018060405250810190610d639190612463565b1015610da4576040517f08c379a0000000000000000000000000000000000000000000000000000000008152600401610d9b9061298c565b60405180910390fd5b8173ffffffffffffffffffffffffffffffffffffffff166323b872dd3330846040518463ffffffff1660e01b8152600401610de1939291906129aa565b6020604051808303815f875af1158015610dfd573d5f803e3d5ffd5b505050506040513d601f19601f82011682018060405250810190610e219190612a09565b610e60576040517f08c379a0000000000000000000000000000000000000000000000000000000008152600401610e5790612a7e565b60405180910390fd5b5f60095f8581526020019081526020015f209050610e7c611c95565b33815f019073ffffffffffffffffffffffffffffffffffffffff16908173ffffffffffffffffffffffffffffffffffffffff168152505083816020019073ffffffffffffffffffffffffffffffffffffffff16908173ffffffffffffffffffffffffffffffffffffffff1681525050828160400181815250508160020181908060018154018082558091505060019003905f5260205f2090600302015f909190919091505f820151815f015f6101000a81548173ffffffffffffffffffffffffffffffffffffffff021916908373ffffffffffffffffffffffffffffffffffffffff1602179055506020820151816001015f6101000a81548173ffffffffffffffffffffffffffffffffffffffff021916908373ffffffffffffffffffffffffffffffffffffffff1602179055506040820151816002015550505050505050565b60035481565b600254421015611008576040517f08c379a0000000000000000000000000000000000000000000000000000000008152600401610fff906123c9565b60405180910390fd5b611010611af0565b8103611051576040517f08c379a000000000000000000000000000000000000000000000000000000000815260040161104890612ae6565b60405180910390fd5b5f60095f8381526020019081526020015f2090505f5b8160020180549050811015611247573373ffffffffffffffffffffffffffffffffffffffff168260020182815481106110a3576110a2612b04565b5b905f5260205f2090600302015f015f9054906101000a900473ffffffffffffffffffffffffffffffffffffffff1673ffffffffffffffffffffffffffffffffffffffff160361123a5781600201818154811061110257611101612b04565b5b905f5260205f2090600302016001015f9054906101000a900473ffffffffffffffffffffffffffffffffffffffff1673ffffffffffffffffffffffffffffffffffffffff1663a9059cbb3384600201848154811061116357611162612b04565b5b905f5260205f209060030201600201546040518363ffffffff1660e01b8152600401611190929190612b31565b6020604051808303815f875af11580156111ac573d5f803e3d5ffd5b505050506040513d601f19601f820116820180604052508101906111d09190612a09565b61120f576040517f08c379a000000000000000000000000000000000000000000000000000000000815260040161120690612a7e565b60405180910390fd5b5f82600201828154811061122657611225612b04565b5b905f5260205f209060030201600201819055505b8080600101915050611067565b505050565b6008602052805f5260405f205f915054906101000a900460ff1681565b60015481565b5f6001544211611281575f90506112a8565b600154421015801561129557506002544211155b156112a357600190506112a8565b600290505b90565b5f805f90505f60095f8581526020019081526020015f2090505f5b8160030180549050811015611315578160030181815481106112eb576112ea612b04565b5b905f5260205f20906002020160010154836113069190612b58565b925080806001019150506112c6565b508192505050919050565b611328611b46565b6113315f611bcd565b565b5f805f9054906101000a900473ffffffffffffffffffffffffffffffffffffffff16905090565b5f805f90505f60095f8681526020019081526020015f2090505f5b816002018054905081101561143c578473ffffffffffffffffffffffffffffffffffffffff168260020182815481106113b1576113b0612b04565b5b905f5260205f2090600302016001015f9054906101000a900473ffffffffffffffffffffffffffffffffffffffff1673ffffffffffffffffffffffffffffffffffffffff160361142f5781600201818154811061141157611410612b04565b5b905f5260205f209060030201600201548361142c9190612b58565b92505b8080600101915050611375565b50819250505092915050565b6005602052805f5260405f205f915090505481565b60045f9054906101000a900473ffffffffffffffffffffffffffffffffffffffff1681565b61148a611b46565b5f81036114bc575f600460146101000a81548160ff021916908360028111156114b6576114b5612b8b565b5b02179055505b600181036114f0576001600460146101000a81548160ff021916908360028111156114ea576114e9612b8b565b5b02179055505b60028103611524576002600460146101000a81548160ff0219169083600281111561151e5761151d612b8b565b5b02179055505b50565b60015442111561156c576040517f08c379a0000000000000000000000000000000000000000000000000000000008152600401611563906123c9565b60405180910390fd5b5f34116115ae576040517f08c379a00000000000000000000000000000000000000000000000000000000081526004016115a590612924565b60405180910390fd5b5f60095f8481526020019081526020015f2090506115ca611cdf565b33815f019073ffffffffffffffffffffffffffffffffffffffff16908173ffffffffffffffffffffffffffffffffffffffff1681525050828160200181815250508160030181908060018154018082558091505060019003905f5260205f2090600202015f909190919091505f820151815f015f6101000a81548173ffffffffffffffffffffffffffffffffffffffff021916908373ffffffffffffffffffffffffffffffffffffffff16021790555060208201518160010155505050505050565b60608060095f8481526020019081526020015f2060020160095f8581526020019081526020015f2060030181805480602002602001604051908101604052809291908181526020015f905b828210156117ba578382905f5260205f2090600302016040518060600160405290815f82015f9054906101000a900473ffffffffffffffffffffffffffffffffffffffff1673ffffffffffffffffffffffffffffffffffffffff1673ffffffffffffffffffffffffffffffffffffffff168152602001600182015f9054906101000a900473ffffffffffffffffffffffffffffffffffffffff1673ffffffffffffffffffffffffffffffffffffffff1673ffffffffffffffffffffffffffffffffffffffff168152602001600282015481525050815260200190600101906116d7565b50505050915080805480602002602001604051908101604052809291908181526020015f905b8282101561186e578382905f5260205f2090600202016040518060400160405290815f82015f9054906101000a900473ffffffffffffffffffffffffffffffffffffffff1673ffffffffffffffffffffffffffffffffffffffff1673ffffffffffffffffffffffffffffffffffffffff168152602001600182015481525050815260200190600101906117e0565b50505050905091509150915091565b611885611b46565b8060078190555050565b611897611b46565b6002544210156118dc576040517f08c379a00000000000000000000000000000000000000000000000000000000081526004016118d3906123c9565b60405180910390fd5b5f6118e5611af0565b90505f60095f8381526020019081526020015f2090505f5b8160020180549050811015611a665781600201818154811061192257611921612b04565b5b905f5260205f2090600302016001015f9054906101000a900473ffffffffffffffffffffffffffffffffffffffff1673ffffffffffffffffffffffffffffffffffffffff1663a9059cbb8584600201848154811061198357611982612b04565b5b905f5260205f209060030201600201546040518363ffffffff1660e01b81526004016119b0929190612b31565b6020604051808303815f875af11580156119cc573d5f803e3d5ffd5b505050506040513d601f19601f820116820180604052508101906119f09190612a09565b611a2f576040517f08c379a0000000000000000000000000000000000000000000000000000000008152600401611a2690612a7e565b60405180910390fd5b5f826002018281548110611a4657611a45612b04565b5b905f5260205f2090600302016002018190555080806001019150506118fd565b50505050565b611a74611b46565b5f73ffffffffffffffffffffffffffffffffffffffff168173ffffffffffffffffffffffffffffffffffffffff1603611ae4575f6040517f1e4fbdf7000000000000000000000000000000000000000000000000000000008152600401611adb91906120da565b60405180910390fd5b611aed81611bcd565b50565b5f80600190505f600190505b6003548111611b38578160095f8381526020019081526020015f20600401541115611b25578091505b8080611b30906125ca565b915050611afc565b508091505090565b60075481565b611b4e611c8e565b73ffffffffffffffffffffffffffffffffffffffff16611b6c611333565b73ffffffffffffffffffffffffffffffffffffffff1614611bcb57611b8f611c8e565b6040517f118cdaa7000000000000000000000000000000000000000000000000000000008152600401611bc291906120da565b60405180910390fd5b565b5f805f9054906101000a900473ffffffffffffffffffffffffffffffffffffffff169050815f806101000a81548173ffffffffffffffffffffffffffffffffffffffff021916908373ffffffffffffffffffffffffffffffffffffffff1602179055508173ffffffffffffffffffffffffffffffffffffffff168173ffffffffffffffffffffffffffffffffffffffff167f8be0079c531659141344cd1fd0a4f28419497f9722a3daafe3b4186f6b6457e060405160405180910390a35050565b5f33905090565b60405180606001604052805f73ffffffffffffffffffffffffffffffffffffffff1681526020015f73ffffffffffffffffffffffffffffffffffffffff1681526020015f81525090565b60405180604001604052805f73ffffffffffffffffffffffffffffffffffffffff1681526020015f81525090565b5f604051905090565b5f80fd5b5f80fd5b5f819050919050565b611d3081611d1e565b8114611d3a575f80fd5b50565b5f81359050611d4b81611d27565b92915050565b5f60208284031215611d6657611d65611d16565b5b5f611d7384828501611d3d565b91505092915050565b611d8581611d1e565b82525050565b5f602082019050611d9e5f830184611d7c565b92915050565b5f73ffffffffffffffffffffffffffffffffffffffff82169050919050565b5f611dcd82611da4565b9050919050565b611ddd81611dc3565b8114611de7575f80fd5b50565b5f81359050611df881611dd4565b92915050565b5f60208284031215611e1357611e12611d16565b5b5f611e2084828501611dea565b91505092915050565b5f81519050919050565b5f82825260208201905092915050565b8281835e5f83830152505050565b5f601f19601f8301169050919050565b5f611e6b82611e29565b611e758185611e33565b9350611e85818560208601611e43565b611e8e81611e51565b840191505092915050565b611ea281611dc3565b82525050565b5f6060820190508181035f830152611ec08186611e61565b9050611ecf6020830185611e99565b611edc6040830184611d7c565b949350505050565b5f80fd5b5f80fd5b7f4e487b71000000000000000000000000000000000000000000000000000000005f52604160045260245ffd5b611f2282611e51565b810181811067ffffffffffffffff82111715611f4157611f40611eec565b5b80604052505050565b5f611f53611d0d565b9050611f5f8282611f19565b919050565b5f67ffffffffffffffff821115611f7e57611f7d611eec565b5b611f8782611e51565b9050602081019050919050565b828183375f83830152505050565b5f611fb4611faf84611f64565b611f4a565b905082815260208101848484011115611fd057611fcf611ee8565b5b611fdb848285611f94565b509392505050565b5f82601f830112611ff757611ff6611ee4565b5b8135612007848260208601611fa2565b91505092915050565b5f6020828403121561202557612024611d16565b5b5f82013567ffffffffffffffff81111561204257612041611d1a565b5b61204e84828501611fe3565b91505092915050565b5f805f6060848603121561206e5761206d611d16565b5b5f61207b86828701611d3d565b935050602061208c86828701611dea565b925050604061209d86828701611d3d565b9150509250925092565b5f8115159050919050565b6120bb816120a7565b82525050565b5f6020820190506120d45f8301846120b2565b92915050565b5f6020820190506120ed5f830184611e99565b92915050565b5f806040838503121561210957612108611d16565b5b5f61211685828601611d3d565b925050602061212785828601611dea565b9150509250929050565b5f806040838503121561214757612146611d16565b5b5f61215485828601611d3d565b925050602061216585828601611d3d565b9150509250929050565b5f81519050919050565b5f82825260208201905092915050565b5f819050602082019050919050565b6121a181611dc3565b82525050565b6121b081611d1e565b82525050565b606082015f8201516121ca5f850182612198565b5060208201516121dd6020850182612198565b5060408201516121f060408501826121a7565b50505050565b5f61220183836121b6565b60608301905092915050565b5f602082019050919050565b5f6122238261216f565b61222d8185612179565b935061223883612189565b805f5b8381101561226857815161224f88826121f6565b975061225a8361220d565b92505060018101905061223b565b5085935050505092915050565b5f81519050919050565b5f82825260208201905092915050565b5f819050602082019050919050565b604082015f8201516122b25f850182612198565b5060208201516122c560208501826121a7565b50505050565b5f6122d6838361229e565b60408301905092915050565b5f602082019050919050565b5f6122f882612275565b612302818561227f565b935061230d8361228f565b805f5b8381101561233d57815161232488826122cb565b975061232f836122e2565b925050600181019050612310565b5085935050505092915050565b5f6040820190508181035f8301526123628185612219565b9050818103602083015261237681846122ee565b90509392505050565b7f63616e7420646f206974206e6f770000000000000000000000000000000000005f82015250565b5f6123b3600e83611e33565b91506123be8261237f565b602082019050919050565b5f6020820190508181035f8301526123e0816123a7565b9050919050565b7f616f7574206f66206f72646572206e6f000000000000000000000000000000005f82015250565b5f61241b601083611e33565b9150612426826123e7565b602082019050919050565b5f6020820190508181035f8301526124488161240f565b9050919050565b5f8151905061245d81611d27565b92915050565b5f6020828403121561247857612477611d16565b5b5f6124858482850161244f565b91505092915050565b7f646f6e74206f776e20746865206e6674000000000000000000000000000000005f82015250565b5f6124c2601083611e33565b91506124cd8261248e565b602082019050919050565b5f6020820190508181035f8301526124ef816124b6565b9050919050565b7f63616e2063617374206d6f726520766f746500000000000000000000000000005f82015250565b5f61252a601283611e33565b9150612535826124f6565b602082019050919050565b5f6020820190508181035f8301526125578161251e565b9050919050565b5f8151905061256c81611dd4565b92915050565b5f6020828403121561258757612586611d16565b5b5f6125948482850161255e565b91505092915050565b7f4e487b71000000000000000000000000000000000000000000000000000000005f52601160045260245ffd5b5f6125d482611d1e565b91507fffffffffffffffffffffffffffffffffffffffffffffffffffffffffffffffff82036126065761260561259d565b5b600182019050919050565b7f4e487b71000000000000000000000000000000000000000000000000000000005f52602260045260245ffd5b5f600282049050600182168061265557607f821691505b60208210810361266857612667612611565b5b50919050565b5f819050815f5260205f209050919050565b5f6020601f8301049050919050565b5f82821b905092915050565b5f600883026126ca7fffffffffffffffffffffffffffffffffffffffffffffffffffffffffffffffff8261268f565b6126d4868361268f565b95508019841693508086168417925050509392505050565b5f819050919050565b5f61270f61270a61270584611d1e565b6126ec565b611d1e565b9050919050565b5f819050919050565b612728836126f5565b61273c61273482612716565b84845461269b565b825550505050565b5f90565b612750612744565b61275b81848461271f565b505050565b5b8181101561277e576127735f82612748565b600181019050612761565b5050565b601f8211156127c3576127948161266e565b61279d84612680565b810160208510156127ac578190505b6127c06127b885612680565b830182612760565b50505b505050565b5f82821c905092915050565b5f6127e35f19846008026127c8565b1980831691505092915050565b5f6127fb83836127d4565b9150826002028217905092915050565b61281482611e29565b67ffffffffffffffff81111561282d5761282c611eec565b5b612837825461263e565b612842828285612782565b5f60209050601f831160018114612873575f8415612861578287015190505b61286b85826127f0565b8655506128d2565b601f1984166128818661266e565b5f5b828110156128a857848901518255600182019150602085019450602081019050612883565b868310156128c557848901516128c1601f8916826127d4565b8355505b6001600288020188555050505b505050505050565b7f416d6f756e74206d7573742062652067726561746572207468616e20300000005f82015250565b5f61290e601d83611e33565b9150612919826128da565b602082019050919050565b5f6020820190508181035f83015261293b81612902565b9050919050565b7f496e73756666696369656e7420746f6b656e2062616c616e63650000000000005f82015250565b5f612976601a83611e33565b915061298182612942565b602082019050919050565b5f6020820190508181035f8301526129a38161296a565b9050919050565b5f6060820190506129bd5f830186611e99565b6129ca6020830185611e99565b6129d76040830184611d7c565b949350505050565b6129e8816120a7565b81146129f2575f80fd5b50565b5f81519050612a03816129df565b92915050565b5f60208284031215612a1e57612a1d611d16565b5b5f612a2b848285016129f5565b91505092915050565b7f7472616e73616374696f6e206661696c656400000000000000000000000000005f82015250565b5f612a68601283611e33565b9150612a7382612a34565b602082019050919050565b5f6020820190508181035f830152612a9581612a5c565b9050919050565b7f63616e7420636c61696d2077696e6e65722070726f6a656374000000000000005f82015250565b5f612ad0601983611e33565b9150612adb82612a9c565b602082019050919050565b5f6020820190508181035f830152612afd81612ac4565b9050919050565b7f4e487b71000000000000000000000000000000000000000000000000000000005f52603260045260245ffd5b5f604082019050612b445f830185611e99565b612b516020830184611d7c565b9392505050565b5f612b6282611d1e565b9150612b6d83611d1e565b9250828201905080821115612b8557612b8461259d565b5b92915050565b7f4e487b71000000000000000000000000000000000000000000000000000000005f52602160045260245ffdfea2646970667358221220ba44d50ac3dbac11be59f28339ecd99da14b02766cd627ec971ba9cfbbb5e45864736f6c634300081a0033",
					"opcodes": "PUSH1 0x80 PUSH1 0x40 MSTORE PUSH0 PUSH1 0x3 SSTORE PUSH0 PUSH1 0x4 PUSH1 0x14 PUSH2 0x100 EXP DUP2 SLOAD DUP2 PUSH1 0xFF MUL NOT AND SWAP1 DUP4 PUSH1 0x2 DUP2 GT ISZERO PUSH2 0x2D JUMPI PUSH2 0x2C PUSH2 0x1F0 JUMP JUMPDEST JUMPDEST MUL OR SWAP1 SSTORE POP PUSH0 PUSH1 0x6 SSTORE PUSH1 0xA PUSH1 0x7 SSTORE CALLVALUE DUP1 ISZERO PUSH2 0x46 JUMPI PUSH0 DUP1 REVERT JUMPDEST POP PUSH1 0x40 MLOAD PUSH2 0x2FC2 CODESIZE SUB DUP1 PUSH2 0x2FC2 DUP4 CODECOPY DUP2 DUP2 ADD PUSH1 0x40 MSTORE DUP2 ADD SWAP1 PUSH2 0x68 SWAP2 SWAP1 PUSH2 0x2AE JUMP JUMPDEST DUP3 PUSH0 PUSH20 0xFFFFFFFFFFFFFFFFFFFFFFFFFFFFFFFFFFFFFFFF AND DUP2 PUSH20 0xFFFFFFFFFFFFFFFFFFFFFFFFFFFFFFFFFFFFFFFF AND SUB PUSH2 0xD9 JUMPI PUSH0 PUSH1 0x40 MLOAD PUSH32 0x1E4FBDF700000000000000000000000000000000000000000000000000000000 DUP2 MSTORE PUSH1 0x4 ADD PUSH2 0xD0 SWAP2 SWAP1 PUSH2 0x30D JUMP JUMPDEST PUSH1 0x40 MLOAD DUP1 SWAP2 SUB SWAP1 REVERT JUMPDEST PUSH2 0xE8 DUP2 PUSH2 0x12F PUSH1 0x20 SHL PUSH1 0x20 SHR JUMP JUMPDEST POP PUSH1 0x3C DUP3 PUSH2 0xF6 SWAP2 SWAP1 PUSH2 0x353 JUMP JUMPDEST TIMESTAMP PUSH2 0x101 SWAP2 SWAP1 PUSH2 0x394 JUMP JUMPDEST PUSH1 0x1 DUP2 SWAP1 SSTORE POP PUSH1 0x3C DUP2 PUSH2 0x114 SWAP2 SWAP1 PUSH2 0x353 JUMP JUMPDEST PUSH1 0x1 SLOAD PUSH2 0x121 SWAP2 SWAP1 PUSH2 0x394 JUMP JUMPDEST PUSH1 0x2 DUP2 SWAP1 SSTORE POP POP POP POP PUSH2 0x3C7 JUMP JUMPDEST PUSH0 DUP1 PUSH0 SWAP1 SLOAD SWAP1 PUSH2 0x100 EXP SWAP1 DIV PUSH20 0xFFFFFFFFFFFFFFFFFFFFFFFFFFFFFFFFFFFFFFFF AND SWAP1 POP DUP2 PUSH0 DUP1 PUSH2 0x100 EXP DUP2 SLOAD DUP2 PUSH20 0xFFFFFFFFFFFFFFFFFFFFFFFFFFFFFFFFFFFFFFFF MUL NOT AND SWAP1 DUP4 PUSH20 0xFFFFFFFFFFFFFFFFFFFFFFFFFFFFFFFFFFFFFFFF AND MUL OR SWAP1 SSTORE POP DUP2 PUSH20 0xFFFFFFFFFFFFFFFFFFFFFFFFFFFFFFFFFFFFFFFF AND DUP2 PUSH20 0xFFFFFFFFFFFFFFFFFFFFFFFFFFFFFFFFFFFFFFFF AND PUSH32 0x8BE0079C531659141344CD1FD0A4F28419497F9722A3DAAFE3B4186F6B6457E0 PUSH1 0x40 MLOAD PUSH1 0x40 MLOAD DUP1 SWAP2 SUB SWAP1 LOG3 POP POP JUMP JUMPDEST PUSH32 0x4E487B7100000000000000000000000000000000000000000000000000000000 PUSH0 MSTORE PUSH1 0x21 PUSH1 0x4 MSTORE PUSH1 0x24 PUSH0 REVERT JUMPDEST PUSH0 DUP1 REVERT JUMPDEST PUSH0 PUSH20 0xFFFFFFFFFFFFFFFFFFFFFFFFFFFFFFFFFFFFFFFF DUP3 AND SWAP1 POP SWAP2 SWAP1 POP JUMP JUMPDEST PUSH0 PUSH2 0x24A DUP3 PUSH2 0x221 JUMP JUMPDEST SWAP1 POP SWAP2 SWAP1 POP JUMP JUMPDEST PUSH2 0x25A DUP2 PUSH2 0x240 JUMP JUMPDEST DUP2 EQ PUSH2 0x264 JUMPI PUSH0 DUP1 REVERT JUMPDEST POP JUMP JUMPDEST PUSH0 DUP2 MLOAD SWAP1 POP PUSH2 0x275 DUP2 PUSH2 0x251 JUMP JUMPDEST SWAP3 SWAP2 POP POP JUMP JUMPDEST PUSH0 DUP2 SWAP1 POP SWAP2 SWAP1 POP JUMP JUMPDEST PUSH2 0x28D DUP2 PUSH2 0x27B JUMP JUMPDEST DUP2 EQ PUSH2 0x297 JUMPI PUSH0 DUP1 REVERT JUMPDEST POP JUMP JUMPDEST PUSH0 DUP2 MLOAD SWAP1 POP PUSH2 0x2A8 DUP2 PUSH2 0x284 JUMP JUMPDEST SWAP3 SWAP2 POP POP JUMP JUMPDEST PUSH0 DUP1 PUSH0 PUSH1 0x60 DUP5 DUP7 SUB SLT ISZERO PUSH2 0x2C5 JUMPI PUSH2 0x2C4 PUSH2 0x21D JUMP JUMPDEST JUMPDEST PUSH0 PUSH2 0x2D2 DUP7 DUP3 DUP8 ADD PUSH2 0x267 JUMP JUMPDEST SWAP4 POP POP PUSH1 0x20 PUSH2 0x2E3 DUP7 DUP3 DUP8 ADD PUSH2 0x29A JUMP JUMPDEST SWAP3 POP POP PUSH1 0x40 PUSH2 0x2F4 DUP7 DUP3 DUP8 ADD PUSH2 0x29A JUMP JUMPDEST SWAP2 POP POP SWAP3 POP SWAP3 POP SWAP3 JUMP JUMPDEST PUSH2 0x307 DUP2 PUSH2 0x240 JUMP JUMPDEST DUP3 MSTORE POP POP JUMP JUMPDEST PUSH0 PUSH1 0x20 DUP3 ADD SWAP1 POP PUSH2 0x320 PUSH0 DUP4 ADD DUP5 PUSH2 0x2FE JUMP JUMPDEST SWAP3 SWAP2 POP POP JUMP JUMPDEST PUSH32 0x4E487B7100000000000000000000000000000000000000000000000000000000 PUSH0 MSTORE PUSH1 0x11 PUSH1 0x4 MSTORE PUSH1 0x24 PUSH0 REVERT JUMPDEST PUSH0 PUSH2 0x35D DUP3 PUSH2 0x27B JUMP JUMPDEST SWAP2 POP PUSH2 0x368 DUP4 PUSH2 0x27B JUMP JUMPDEST SWAP3 POP DUP3 DUP3 MUL PUSH2 0x376 DUP2 PUSH2 0x27B JUMP JUMPDEST SWAP2 POP DUP3 DUP3 DIV DUP5 EQ DUP4 ISZERO OR PUSH2 0x38D JUMPI PUSH2 0x38C PUSH2 0x326 JUMP JUMPDEST JUMPDEST POP SWAP3 SWAP2 POP POP JUMP JUMPDEST PUSH0 PUSH2 0x39E DUP3 PUSH2 0x27B JUMP JUMPDEST SWAP2 POP PUSH2 0x3A9 DUP4 PUSH2 0x27B JUMP JUMPDEST SWAP3 POP DUP3 DUP3 ADD SWAP1 POP DUP1 DUP3 GT ISZERO PUSH2 0x3C1 JUMPI PUSH2 0x3C0 PUSH2 0x326 JUMP JUMPDEST JUMPDEST SWAP3 SWAP2 POP POP JUMP JUMPDEST PUSH2 0x2BEE DUP1 PUSH2 0x3D4 PUSH0 CODECOPY PUSH0 RETURN INVALID PUSH1 0x80 PUSH1 0x40 MSTORE PUSH1 0x4 CALLDATASIZE LT PUSH2 0x180 JUMPI PUSH0 CALLDATALOAD PUSH1 0xE0 SHR DUP1 PUSH4 0x715018A6 GT PUSH2 0xD0 JUMPI DUP1 PUSH4 0xBAE60C88 GT PUSH2 0x89 JUMPI DUP1 PUSH4 0xD19EE357 GT PUSH2 0x63 JUMPI DUP1 PUSH4 0xD19EE357 EQ PUSH2 0x55F JUMPI DUP1 PUSH4 0xF2FDE38B EQ PUSH2 0x587 JUMPI DUP1 PUSH4 0xF4B1F501 EQ PUSH2 0x5AF JUMPI DUP1 PUSH4 0xF84DDF0B EQ PUSH2 0x5D9 JUMPI PUSH2 0x180 JUMP JUMPDEST DUP1 PUSH4 0xBAE60C88 EQ PUSH2 0x4DE JUMPI DUP1 PUSH4 0xBFB906A7 EQ PUSH2 0x4FA JUMPI DUP1 PUSH4 0xCB06545C EQ PUSH2 0x537 JUMPI PUSH2 0x180 JUMP JUMPDEST DUP1 PUSH4 0x715018A6 EQ PUSH2 0x3D4 JUMPI DUP1 PUSH4 0x8DA5CB5B EQ PUSH2 0x3EA JUMPI DUP1 PUSH4 0x99B1760A EQ PUSH2 0x414 JUMPI DUP1 PUSH4 0xA3EC138D EQ PUSH2 0x450 JUMPI DUP1 PUSH4 0xAAE282E1 EQ PUSH2 0x48C JUMPI DUP1 PUSH4 0xB00741CB EQ PUSH2 0x4B6 JUMPI PUSH2 0x180 JUMP JUMPDEST DUP1 PUSH4 0x33B2DECC GT PUSH2 0x13D JUMPI DUP1 PUSH4 0x38200702 GT PUSH2 0x117 JUMPI DUP1 PUSH4 0x38200702 EQ PUSH2 0x308 JUMPI DUP1 PUSH4 0x3885AED3 EQ PUSH2 0x344 JUMPI DUP1 PUSH4 0x4E69D560 EQ PUSH2 0x36E JUMPI DUP1 PUSH4 0x6A460D41 EQ PUSH2 0x398 JUMPI PUSH2 0x180 JUMP JUMPDEST DUP1 PUSH4 0x33B2DECC EQ PUSH2 0x28E JUMPI DUP1 PUSH4 0x36FBAD26 EQ PUSH2 0x2B6 JUMPI DUP1 PUSH4 0x379607F5 EQ PUSH2 0x2E0 JUMPI PUSH2 0x180 JUMP JUMPDEST DUP1 PUSH4 0x121B93F EQ PUSH2 0x184 JUMPI DUP1 PUSH4 0x2A251A3 EQ PUSH2 0x1AC JUMPI DUP1 PUSH4 0xB102D1A EQ PUSH2 0x1D6 JUMPI DUP1 PUSH4 0xD15FD77 EQ PUSH2 0x1FE JUMPI DUP1 PUSH4 0x107046BD EQ PUSH2 0x228 JUMPI DUP1 PUSH4 0x239ECF35 EQ PUSH2 0x266 JUMPI JUMPDEST PUSH0 DUP1 REVERT JUMPDEST CALLVALUE DUP1 ISZERO PUSH2 0x18F JUMPI PUSH0 DUP1 REVERT JUMPDEST POP PUSH2 0x1AA PUSH1 0x4 DUP1 CALLDATASIZE SUB DUP2 ADD SWAP1 PUSH2 0x1A5 SWAP2 SWAP1 PUSH2 0x1D51 JUMP JUMPDEST PUSH2 0x603 JUMP JUMPDEST STOP JUMPDEST CALLVALUE DUP1 ISZERO PUSH2 0x1B7 JUMPI PUSH0 DUP1 REVERT JUMPDEST POP PUSH2 0x1C0 PUSH2 0xA67 JUMP JUMPDEST PUSH1 0x40 MLOAD PUSH2 0x1CD SWAP2 SWAP1 PUSH2 0x1D8B JUMP JUMPDEST PUSH1 0x40 MLOAD DUP1 SWAP2 SUB SWAP1 RETURN JUMPDEST CALLVALUE DUP1 ISZERO PUSH2 0x1E1 JUMPI PUSH0 DUP1 REVERT JUMPDEST POP PUSH2 0x1FC PUSH1 0x4 DUP1 CALLDATASIZE SUB DUP2 ADD SWAP1 PUSH2 0x1F7 SWAP2 SWAP1 PUSH2 0x1DFE JUMP JUMPDEST PUSH2 0xA6D JUMP JUMPDEST STOP JUMPDEST CALLVALUE DUP1 ISZERO PUSH2 0x209 JUMPI PUSH0 DUP1 REVERT JUMPDEST POP PUSH2 0x212 PUSH2 0xAB8 JUMP JUMPDEST PUSH1 0x40 MLOAD PUSH2 0x21F SWAP2 SWAP1 PUSH2 0x1D8B JUMP JUMPDEST PUSH1 0x40 MLOAD DUP1 SWAP2 SUB SWAP1 RETURN JUMPDEST CALLVALUE DUP1 ISZERO PUSH2 0x233 JUMPI PUSH0 DUP1 REVERT JUMPDEST POP PUSH2 0x24E PUSH1 0x4 DUP1 CALLDATASIZE SUB DUP2 ADD SWAP1 PUSH2 0x249 SWAP2 SWAP1 PUSH2 0x1D51 JUMP JUMPDEST PUSH2 0xABE JUMP JUMPDEST PUSH1 0x40 MLOAD PUSH2 0x25D SWAP4 SWAP3 SWAP2 SWAP1 PUSH2 0x1EA8 JUMP JUMPDEST PUSH1 0x40 MLOAD DUP1 SWAP2 SUB SWAP1 RETURN JUMPDEST CALLVALUE DUP1 ISZERO PUSH2 0x271 JUMPI PUSH0 DUP1 REVERT JUMPDEST POP PUSH2 0x28C PUSH1 0x4 DUP1 CALLDATASIZE SUB DUP2 ADD SWAP1 PUSH2 0x287 SWAP2 SWAP1 PUSH2 0x2010 JUMP JUMPDEST PUSH2 0xB89 JUMP JUMPDEST STOP JUMPDEST CALLVALUE DUP1 ISZERO PUSH2 0x299 JUMPI PUSH0 DUP1 REVERT JUMPDEST POP PUSH2 0x2B4 PUSH1 0x4 DUP1 CALLDATASIZE SUB DUP2 ADD SWAP1 PUSH2 0x2AF SWAP2 SWAP1 PUSH2 0x2057 JUMP JUMPDEST PUSH2 0xC63 JUMP JUMPDEST STOP JUMPDEST CALLVALUE DUP1 ISZERO PUSH2 0x2C1 JUMPI PUSH0 DUP1 REVERT JUMPDEST POP PUSH2 0x2CA PUSH2 0xFBD JUMP JUMPDEST PUSH1 0x40 MLOAD PUSH2 0x2D7 SWAP2 SWAP1 PUSH2 0x1D8B JUMP JUMPDEST PUSH1 0x40 MLOAD DUP1 SWAP2 SUB SWAP1 RETURN JUMPDEST CALLVALUE DUP1 ISZERO PUSH2 0x2EB JUMPI PUSH0 DUP1 REVERT JUMPDEST POP PUSH2 0x306 PUSH1 0x4 DUP1 CALLDATASIZE SUB DUP2 ADD SWAP1 PUSH2 0x301 SWAP2 SWAP1 PUSH2 0x1D51 JUMP JUMPDEST PUSH2 0xFC3 JUMP JUMPDEST STOP JUMPDEST CALLVALUE DUP1 ISZERO PUSH2 0x313 JUMPI PUSH0 DUP1 REVERT JUMPDEST POP PUSH2 0x32E PUSH1 0x4 DUP1 CALLDATASIZE SUB DUP2 ADD SWAP1 PUSH2 0x329 SWAP2 SWAP1 PUSH2 0x1D51 JUMP JUMPDEST PUSH2 0x124C JUMP JUMPDEST PUSH1 0x40 MLOAD PUSH2 0x33B SWAP2 SWAP1 PUSH2 0x20C1 JUMP JUMPDEST PUSH1 0x40 MLOAD DUP1 SWAP2 SUB SWAP1 RETURN JUMPDEST CALLVALUE DUP1 ISZERO PUSH2 0x34F JUMPI PUSH0 DUP1 REVERT JUMPDEST POP PUSH2 0x358 PUSH2 0x1269 JUMP JUMPDEST PUSH1 0x40 MLOAD PUSH2 0x365 SWAP2 SWAP1 PUSH2 0x1D8B JUMP JUMPDEST PUSH1 0x40 MLOAD DUP1 SWAP2 SUB SWAP1 RETURN JUMPDEST CALLVALUE DUP1 ISZERO PUSH2 0x379 JUMPI PUSH0 DUP1 REVERT JUMPDEST POP PUSH2 0x382 PUSH2 0x126F JUMP JUMPDEST PUSH1 0x40 MLOAD PUSH2 0x38F SWAP2 SWAP1 PUSH2 0x1D8B JUMP JUMPDEST PUSH1 0x40 MLOAD DUP1 SWAP2 SUB SWAP1 RETURN JUMPDEST CALLVALUE DUP1 ISZERO PUSH2 0x3A3 JUMPI PUSH0 DUP1 REVERT JUMPDEST POP PUSH2 0x3BE PUSH1 0x4 DUP1 CALLDATASIZE SUB DUP2 ADD SWAP1 PUSH2 0x3B9 SWAP2 SWAP1 PUSH2 0x1D51 JUMP JUMPDEST PUSH2 0x12AB JUMP JUMPDEST PUSH1 0x40 MLOAD PUSH2 0x3CB SWAP2 SWAP1 PUSH2 0x1D8B JUMP JUMPDEST PUSH1 0x40 MLOAD DUP1 SWAP2 SUB SWAP1 RETURN JUMPDEST CALLVALUE DUP1 ISZERO PUSH2 0x3DF JUMPI PUSH0 DUP1 REVERT JUMPDEST POP PUSH2 0x3E8 PUSH2 0x1320 JUMP JUMPDEST STOP JUMPDEST CALLVALUE DUP1 ISZERO PUSH2 0x3F5 JUMPI PUSH0 DUP1 REVERT JUMPDEST POP PUSH2 0x3FE PUSH2 0x1333 JUMP JUMPDEST PUSH1 0x40 MLOAD PUSH2 0x40B SWAP2 SWAP1 PUSH2 0x20DA JUMP JUMPDEST PUSH1 0x40 MLOAD DUP1 SWAP2 SUB SWAP1 RETURN JUMPDEST CALLVALUE DUP1 ISZERO PUSH2 0x41F JUMPI PUSH0 DUP1 REVERT JUMPDEST POP PUSH2 0x43A PUSH1 0x4 DUP1 CALLDATASIZE SUB DUP2 ADD SWAP1 PUSH2 0x435 SWAP2 SWAP1 PUSH2 0x20F3 JUMP JUMPDEST PUSH2 0x135A JUMP JUMPDEST PUSH1 0x40 MLOAD PUSH2 0x447 SWAP2 SWAP1 PUSH2 0x1D8B JUMP JUMPDEST PUSH1 0x40 MLOAD DUP1 SWAP2 SUB SWAP1 RETURN JUMPDEST CALLVALUE DUP1 ISZERO PUSH2 0x45B JUMPI PUSH0 DUP1 REVERT JUMPDEST POP PUSH2 0x476 PUSH1 0x4 DUP1 CALLDATASIZE SUB DUP2 ADD SWAP1 PUSH2 0x471 SWAP2 SWAP1 PUSH2 0x1DFE JUMP JUMPDEST PUSH2 0x1448 JUMP JUMPDEST PUSH1 0x40 MLOAD PUSH2 0x483 SWAP2 SWAP1 PUSH2 0x1D8B JUMP JUMPDEST PUSH1 0x40 MLOAD DUP1 SWAP2 SUB SWAP1 RETURN JUMPDEST CALLVALUE DUP1 ISZERO PUSH2 0x497 JUMPI PUSH0 DUP1 REVERT JUMPDEST POP PUSH2 0x4A0 PUSH2 0x145D JUMP JUMPDEST PUSH1 0x40 MLOAD PUSH2 0x4AD SWAP2 SWAP1 PUSH2 0x20DA JUMP JUMPDEST PUSH1 0x40 MLOAD DUP1 SWAP2 SUB SWAP1 RETURN JUMPDEST CALLVALUE DUP1 ISZERO PUSH2 0x4C1 JUMPI PUSH0 DUP1 REVERT JUMPDEST POP PUSH2 0x4DC PUSH1 0x4 DUP1 CALLDATASIZE SUB DUP2 ADD SWAP1 PUSH2 0x4D7 SWAP2 SWAP1 PUSH2 0x1D51 JUMP JUMPDEST PUSH2 0x1482 JUMP JUMPDEST STOP JUMPDEST PUSH2 0x4F8 PUSH1 0x4 DUP1 CALLDATASIZE SUB DUP2 ADD SWAP1 PUSH2 0x4F3 SWAP2 SWAP1 PUSH2 0x2131 JUMP JUMPDEST PUSH2 0x1527 JUMP JUMPDEST STOP JUMPDEST CALLVALUE DUP1 ISZERO PUSH2 0x505 JUMPI PUSH0 DUP1 REVERT JUMPDEST POP PUSH2 0x520 PUSH1 0x4 DUP1 CALLDATASIZE SUB DUP2 ADD SWAP1 PUSH2 0x51B SWAP2 SWAP1 PUSH2 0x1D51 JUMP JUMPDEST PUSH2 0x168C JUMP JUMPDEST PUSH1 0x40 MLOAD PUSH2 0x52E SWAP3 SWAP2 SWAP1 PUSH2 0x234A JUMP JUMPDEST PUSH1 0x40 MLOAD DUP1 SWAP2 SUB SWAP1 RETURN JUMPDEST CALLVALUE DUP1 ISZERO PUSH2 0x542 JUMPI PUSH0 DUP1 REVERT JUMPDEST POP PUSH2 0x55D PUSH1 0x4 DUP1 CALLDATASIZE SUB DUP2 ADD SWAP1 PUSH2 0x558 SWAP2 SWAP1 PUSH2 0x1D51 JUMP JUMPDEST PUSH2 0x187D JUMP JUMPDEST STOP JUMPDEST CALLVALUE DUP1 ISZERO PUSH2 0x56A JUMPI PUSH0 DUP1 REVERT JUMPDEST POP PUSH2 0x585 PUSH1 0x4 DUP1 CALLDATASIZE SUB DUP2 ADD SWAP1 PUSH2 0x580 SWAP2 SWAP1 PUSH2 0x1DFE JUMP JUMPDEST PUSH2 0x188F JUMP JUMPDEST STOP JUMPDEST CALLVALUE DUP1 ISZERO PUSH2 0x592 JUMPI PUSH0 DUP1 REVERT JUMPDEST POP PUSH2 0x5AD PUSH1 0x4 DUP1 CALLDATASIZE SUB DUP2 ADD SWAP1 PUSH2 0x5A8 SWAP2 SWAP1 PUSH2 0x1DFE JUMP JUMPDEST PUSH2 0x1A6C JUMP JUMPDEST STOP JUMPDEST CALLVALUE DUP1 ISZERO PUSH2 0x5BA JUMPI PUSH0 DUP1 REVERT JUMPDEST POP PUSH2 0x5C3 PUSH2 0x1AF0 JUMP JUMPDEST PUSH1 0x40 MLOAD PUSH2 0x5D0 SWAP2 SWAP1 PUSH2 0x1D8B JUMP JUMPDEST PUSH1 0x40 MLOAD DUP1 SWAP2 SUB SWAP1 RETURN JUMPDEST CALLVALUE DUP1 ISZERO PUSH2 0x5E4 JUMPI PUSH0 DUP1 REVERT JUMPDEST POP PUSH2 0x5ED PUSH2 0x1B40 JUMP JUMPDEST PUSH1 0x40 MLOAD PUSH2 0x5FA SWAP2 SWAP1 PUSH2 0x1D8B JUMP JUMPDEST PUSH1 0x40 MLOAD DUP1 SWAP2 SUB SWAP1 RETURN JUMPDEST PUSH1 0x1 SLOAD TIMESTAMP LT ISZERO DUP1 ISZERO PUSH2 0x617 JUMPI POP PUSH1 0x2 SLOAD TIMESTAMP GT ISZERO JUMPDEST PUSH2 0x656 JUMPI PUSH1 0x40 MLOAD PUSH32 0x8C379A000000000000000000000000000000000000000000000000000000000 DUP2 MSTORE PUSH1 0x4 ADD PUSH2 0x64D SWAP1 PUSH2 0x23C9 JUMP JUMPDEST PUSH1 0x40 MLOAD DUP1 SWAP2 SUB SWAP1 REVERT JUMPDEST DUP1 PUSH1 0x3 SLOAD LT ISZERO PUSH2 0x69B JUMPI PUSH1 0x40 MLOAD PUSH32 0x8C379A000000000000000000000000000000000000000000000000000000000 DUP2 MSTORE PUSH1 0x4 ADD PUSH2 0x692 SWAP1 PUSH2 0x2431 JUMP JUMPDEST PUSH1 0x40 MLOAD DUP1 SWAP2 SUB SWAP1 REVERT JUMPDEST PUSH0 PUSH1 0x4 PUSH0 SWAP1 SLOAD SWAP1 PUSH2 0x100 EXP SWAP1 DIV PUSH20 0xFFFFFFFFFFFFFFFFFFFFFFFFFFFFFFFFFFFFFFFF AND PUSH20 0xFFFFFFFFFFFFFFFFFFFFFFFFFFFFFFFFFFFFFFFF AND PUSH4 0x70A08231 CALLER PUSH1 0x40 MLOAD DUP3 PUSH4 0xFFFFFFFF AND PUSH1 0xE0 SHL DUP2 MSTORE PUSH1 0x4 ADD PUSH2 0x6F6 SWAP2 SWAP1 PUSH2 0x20DA JUMP JUMPDEST PUSH1 0x20 PUSH1 0x40 MLOAD DUP1 DUP4 SUB DUP2 DUP7 GAS STATICCALL ISZERO DUP1 ISZERO PUSH2 0x711 JUMPI RETURNDATASIZE PUSH0 DUP1 RETURNDATACOPY RETURNDATASIZE PUSH0 REVERT JUMPDEST POP POP POP POP PUSH1 0x40 MLOAD RETURNDATASIZE PUSH1 0x1F NOT PUSH1 0x1F DUP3 ADD AND DUP3 ADD DUP1 PUSH1 0x40 MSTORE POP DUP2 ADD SWAP1 PUSH2 0x735 SWAP2 SWAP1 PUSH2 0x2463 JUMP JUMPDEST GT PUSH2 0x775 JUMPI PUSH1 0x40 MLOAD PUSH32 0x8C379A000000000000000000000000000000000000000000000000000000000 DUP2 MSTORE PUSH1 0x4 ADD PUSH2 0x76C SWAP1 PUSH2 0x24D8 JUMP JUMPDEST PUSH1 0x40 MLOAD DUP1 SWAP2 SUB SWAP1 REVERT JUMPDEST PUSH0 PUSH1 0x9 PUSH0 DUP4 DUP2 MSTORE PUSH1 0x20 ADD SWAP1 DUP2 MSTORE PUSH1 0x20 ADD PUSH0 KECCAK256 SWAP1 POP PUSH1 0x4 PUSH0 SWAP1 SLOAD SWAP1 PUSH2 0x100 EXP SWAP1 DIV PUSH20 0xFFFFFFFFFFFFFFFFFFFFFFFFFFFFFFFFFFFFFFFF AND PUSH20 0xFFFFFFFFFFFFFFFFFFFFFFFFFFFFFFFFFFFFFFFF AND PUSH4 0x70A08231 CALLER PUSH1 0x40 MLOAD DUP3 PUSH4 0xFFFFFFFF AND PUSH1 0xE0 SHL DUP2 MSTORE PUSH1 0x4 ADD PUSH2 0x7E3 SWAP2 SWAP1 PUSH2 0x20DA JUMP JUMPDEST PUSH1 0x20 PUSH1 0x40 MLOAD DUP1 DUP4 SUB DUP2 DUP7 GAS STATICCALL ISZERO DUP1 ISZERO PUSH2 0x7FE JUMPI RETURNDATASIZE PUSH0 DUP1 RETURNDATACOPY RETURNDATASIZE PUSH0 REVERT JUMPDEST POP POP POP POP PUSH1 0x40 MLOAD RETURNDATASIZE PUSH1 0x1F NOT PUSH1 0x1F DUP3 ADD AND DUP3 ADD DUP1 PUSH1 0x40 MSTORE POP DUP2 ADD SWAP1 PUSH2 0x822 SWAP2 SWAP1 PUSH2 0x2463 JUMP JUMPDEST PUSH1 0x5 PUSH0 CALLER PUSH20 0xFFFFFFFFFFFFFFFFFFFFFFFFFFFFFFFFFFFFFFFF AND PUSH20 0xFFFFFFFFFFFFFFFFFFFFFFFFFFFFFFFFFFFFFFFF AND DUP2 MSTORE PUSH1 0x20 ADD SWAP1 DUP2 MSTORE PUSH1 0x20 ADD PUSH0 KECCAK256 SLOAD LT PUSH2 0x8A0 JUMPI PUSH1 0x40 MLOAD PUSH32 0x8C379A000000000000000000000000000000000000000000000000000000000 DUP2 MSTORE PUSH1 0x4 ADD PUSH2 0x897 SWAP1 PUSH2 0x2540 JUMP JUMPDEST PUSH1 0x40 MLOAD DUP1 SWAP2 SUB SWAP1 REVERT JUMPDEST PUSH0 JUMPDEST PUSH1 0x7 SLOAD DUP2 GT PUSH2 0xA62 JUMPI CALLER PUSH20 0xFFFFFFFFFFFFFFFFFFFFFFFFFFFFFFFFFFFFFFFF AND PUSH1 0x4 PUSH0 SWAP1 SLOAD SWAP1 PUSH2 0x100 EXP SWAP1 DIV PUSH20 0xFFFFFFFFFFFFFFFFFFFFFFFFFFFFFFFFFFFFFFFF AND PUSH20 0xFFFFFFFFFFFFFFFFFFFFFFFFFFFFFFFFFFFFFFFF AND PUSH4 0x6352211E DUP4 PUSH1 0x40 MLOAD DUP3 PUSH4 0xFFFFFFFF AND PUSH1 0xE0 SHL DUP2 MSTORE PUSH1 0x4 ADD PUSH2 0x91C SWAP2 SWAP1 PUSH2 0x1D8B JUMP JUMPDEST PUSH1 0x20 PUSH1 0x40 MLOAD DUP1 DUP4 SUB DUP2 DUP7 GAS STATICCALL ISZERO DUP1 ISZERO PUSH2 0x937 JUMPI RETURNDATASIZE PUSH0 DUP1 RETURNDATACOPY RETURNDATASIZE PUSH0 REVERT JUMPDEST POP POP POP POP PUSH1 0x40 MLOAD RETURNDATASIZE PUSH1 0x1F NOT PUSH1 0x1F DUP3 ADD AND DUP3 ADD DUP1 PUSH1 0x40 MSTORE POP DUP2 ADD SWAP1 PUSH2 0x95B SWAP2 SWAP1 PUSH2 0x2572 JUMP JUMPDEST PUSH20 0xFFFFFFFFFFFFFFFFFFFFFFFFFFFFFFFFFFFFFFFF AND SUB PUSH2 0xA4F JUMPI PUSH0 ISZERO ISZERO PUSH1 0x8 PUSH0 DUP4 DUP2 MSTORE PUSH1 0x20 ADD SWAP1 DUP2 MSTORE PUSH1 0x20 ADD PUSH0 KECCAK256 PUSH0 SWAP1 SLOAD SWAP1 PUSH2 0x100 EXP SWAP1 DIV PUSH1 0xFF AND ISZERO ISZERO SUB PUSH2 0xA4E JUMPI PUSH1 0x5 PUSH0 CALLER PUSH20 0xFFFFFFFFFFFFFFFFFFFFFFFFFFFFFFFFFFFFFFFF AND PUSH20 0xFFFFFFFFFFFFFFFFFFFFFFFFFFFFFFFFFFFFFFFF AND DUP2 MSTORE PUSH1 0x20 ADD SWAP1 DUP2 MSTORE PUSH1 0x20 ADD PUSH0 KECCAK256 PUSH0 DUP2 SLOAD DUP1 SWAP3 SWAP2 SWAP1 PUSH2 0x9EB SWAP1 PUSH2 0x25CA JUMP JUMPDEST SWAP2 SWAP1 POP SSTORE POP DUP2 PUSH1 0x4 ADD PUSH0 DUP2 SLOAD DUP1 SWAP3 SWAP2 SWAP1 PUSH2 0xA04 SWAP1 PUSH2 0x25CA JUMP JUMPDEST SWAP2 SWAP1 POP SSTORE POP PUSH1 0x6 PUSH0 DUP2 SLOAD DUP1 SWAP3 SWAP2 SWAP1 PUSH2 0xA1B SWAP1 PUSH2 0x25CA JUMP JUMPDEST SWAP2 SWAP1 POP SSTORE POP PUSH1 0x1 PUSH1 0x8 PUSH0 DUP4 DUP2 MSTORE PUSH1 0x20 ADD SWAP1 DUP2 MSTORE PUSH1 0x20 ADD PUSH0 KECCAK256 PUSH0 PUSH2 0x100 EXP DUP2 SLOAD DUP2 PUSH1 0xFF MUL NOT AND SWAP1 DUP4 ISZERO ISZERO MUL OR SWAP1 SSTORE POP PUSH2 0xA62 JUMP JUMPDEST JUMPDEST DUP1 DUP1 PUSH2 0xA5A SWAP1 PUSH2 0x25CA JUMP JUMPDEST SWAP2 POP POP PUSH2 0x8A2 JUMP JUMPDEST POP POP POP JUMP JUMPDEST PUSH1 0x2 SLOAD DUP2 JUMP JUMPDEST PUSH2 0xA75 PUSH2 0x1B46 JUMP JUMPDEST DUP1 PUSH1 0x4 PUSH0 PUSH2 0x100 EXP DUP2 SLOAD DUP2 PUSH20 0xFFFFFFFFFFFFFFFFFFFFFFFFFFFFFFFFFFFFFFFF MUL NOT AND SWAP1 DUP4 PUSH20 0xFFFFFFFFFFFFFFFFFFFFFFFFFFFFFFFFFFFFFFFF AND MUL OR SWAP1 SSTORE POP POP JUMP JUMPDEST PUSH1 0x6 SLOAD DUP2 JUMP JUMPDEST PUSH1 0x9 PUSH1 0x20 MSTORE DUP1 PUSH0 MSTORE PUSH1 0x40 PUSH0 KECCAK256 PUSH0 SWAP2 POP SWAP1 POP DUP1 PUSH0 ADD DUP1 SLOAD PUSH2 0xADD SWAP1 PUSH2 0x263E JUMP JUMPDEST DUP1 PUSH1 0x1F ADD PUSH1 0x20 DUP1 SWAP2 DIV MUL PUSH1 0x20 ADD PUSH1 0x40 MLOAD SWAP1 DUP2 ADD PUSH1 0x40 MSTORE DUP1 SWAP3 SWAP2 SWAP1 DUP2 DUP2 MSTORE PUSH1 0x20 ADD DUP3 DUP1 SLOAD PUSH2 0xB09 SWAP1 PUSH2 0x263E JUMP JUMPDEST DUP1 ISZERO PUSH2 0xB54 JUMPI DUP1 PUSH1 0x1F LT PUSH2 0xB2B JUMPI PUSH2 0x100 DUP1 DUP4 SLOAD DIV MUL DUP4 MSTORE SWAP2 PUSH1 0x20 ADD SWAP2 PUSH2 0xB54 JUMP JUMPDEST DUP3 ADD SWAP2 SWAP1 PUSH0 MSTORE PUSH1 0x20 PUSH0 KECCAK256 SWAP1 JUMPDEST DUP2 SLOAD DUP2 MSTORE SWAP1 PUSH1 0x1 ADD SWAP1 PUSH1 0x20 ADD DUP1 DUP4 GT PUSH2 0xB37 JUMPI DUP3 SWAP1 SUB PUSH1 0x1F AND DUP3 ADD SWAP2 JUMPDEST POP POP POP POP POP SWAP1 DUP1 PUSH1 0x1 ADD PUSH0 SWAP1 SLOAD SWAP1 PUSH2 0x100 EXP SWAP1 DIV PUSH20 0xFFFFFFFFFFFFFFFFFFFFFFFFFFFFFFFFFFFFFFFF AND SWAP1 DUP1 PUSH1 0x4 ADD SLOAD SWAP1 POP DUP4 JUMP JUMPDEST PUSH2 0xB91 PUSH2 0x1B46 JUMP JUMPDEST PUSH1 0x1 SLOAD TIMESTAMP GT ISZERO PUSH2 0xBD6 JUMPI PUSH1 0x40 MLOAD PUSH32 0x8C379A000000000000000000000000000000000000000000000000000000000 DUP2 MSTORE PUSH1 0x4 ADD PUSH2 0xBCD SWAP1 PUSH2 0x23C9 JUMP JUMPDEST PUSH1 0x40 MLOAD DUP1 SWAP2 SUB SWAP1 REVERT JUMPDEST PUSH1 0x3 PUSH0 DUP2 SLOAD DUP1 SWAP3 SWAP2 SWAP1 PUSH2 0xBE8 SWAP1 PUSH2 0x25CA JUMP JUMPDEST SWAP2 SWAP1 POP SSTORE POP PUSH0 PUSH1 0x9 PUSH0 PUSH1 0x3 SLOAD DUP2 MSTORE PUSH1 0x20 ADD SWAP1 DUP2 MSTORE PUSH1 0x20 ADD PUSH0 KECCAK256 SWAP1 POP DUP2 DUP2 PUSH0 ADD SWAP1 DUP2 PUSH2 0xC13 SWAP2 SWAP1 PUSH2 0x280B JUMP JUMPDEST POP CALLER DUP2 PUSH1 0x1 ADD PUSH0 PUSH2 0x100 EXP DUP2 SLOAD DUP2 PUSH20 0xFFFFFFFFFFFFFFFFFFFFFFFFFFFFFFFFFFFFFFFF MUL NOT AND SWAP1 DUP4 PUSH20 0xFFFFFFFFFFFFFFFFFFFFFFFFFFFFFFFFFFFFFFFF AND MUL OR SWAP1 SSTORE POP PUSH0 DUP2 PUSH1 0x4 ADD DUP2 SWAP1 SSTORE POP POP POP JUMP JUMPDEST PUSH1 0x1 SLOAD TIMESTAMP GT ISZERO PUSH2 0xCA8 JUMPI PUSH1 0x40 MLOAD PUSH32 0x8C379A000000000000000000000000000000000000000000000000000000000 DUP2 MSTORE PUSH1 0x4 ADD PUSH2 0xC9F SWAP1 PUSH2 0x23C9 JUMP JUMPDEST PUSH1 0x40 MLOAD DUP1 SWAP2 SUB SWAP1 REVERT JUMPDEST PUSH0 DUP2 GT PUSH2 0xCEA JUMPI PUSH1 0x40 MLOAD PUSH32 0x8C379A000000000000000000000000000000000000000000000000000000000 DUP2 MSTORE PUSH1 0x4 ADD PUSH2 0xCE1 SWAP1 PUSH2 0x2924 JUMP JUMPDEST PUSH1 0x40 MLOAD DUP1 SWAP2 SUB SWAP1 REVERT JUMPDEST DUP1 DUP3 PUSH20 0xFFFFFFFFFFFFFFFFFFFFFFFFFFFFFFFFFFFFFFFF AND PUSH4 0x70A08231 CALLER PUSH1 0x40 MLOAD DUP3 PUSH4 0xFFFFFFFF AND PUSH1 0xE0 SHL DUP2 MSTORE PUSH1 0x4 ADD PUSH2 0xD24 SWAP2 SWAP1 PUSH2 0x20DA JUMP JUMPDEST PUSH1 0x20 PUSH1 0x40 MLOAD DUP1 DUP4 SUB DUP2 DUP7 GAS STATICCALL ISZERO DUP1 ISZERO PUSH2 0xD3F JUMPI RETURNDATASIZE PUSH0 DUP1 RETURNDATACOPY RETURNDATASIZE PUSH0 REVERT JUMPDEST POP POP POP POP PUSH1 0x40 MLOAD RETURNDATASIZE PUSH1 0x1F NOT PUSH1 0x1F DUP3 ADD AND DUP3 ADD DUP1 PUSH1 0x40 MSTORE POP DUP2 ADD SWAP1 PUSH2 0xD63 SWAP2 SWAP1 PUSH2 0x2463 JUMP JUMPDEST LT ISZERO PUSH2 0xDA4 JUMPI PUSH1 0x40 MLOAD PUSH32 0x8C379A000000000000000000000000000000000000000000000000000000000 DUP2 MSTORE PUSH1 0x4 ADD PUSH2 0xD9B SWAP1 PUSH2 0x298C JUMP JUMPDEST PUSH1 0x40 MLOAD DUP1 SWAP2 SUB SWAP1 REVERT JUMPDEST DUP2 PUSH20 0xFFFFFFFFFFFFFFFFFFFFFFFFFFFFFFFFFFFFFFFF AND PUSH4 0x23B872DD CALLER ADDRESS DUP5 PUSH1 0x40 MLOAD DUP5 PUSH4 0xFFFFFFFF AND PUSH1 0xE0 SHL DUP2 MSTORE PUSH1 0x4 ADD PUSH2 0xDE1 SWAP4 SWAP3 SWAP2 SWAP1 PUSH2 0x29AA JUMP JUMPDEST PUSH1 0x20 PUSH1 0x40 MLOAD DUP1 DUP4 SUB DUP2 PUSH0 DUP8 GAS CALL ISZERO DUP1 ISZERO PUSH2 0xDFD JUMPI RETURNDATASIZE PUSH0 DUP1 RETURNDATACOPY RETURNDATASIZE PUSH0 REVERT JUMPDEST POP POP POP POP PUSH1 0x40 MLOAD RETURNDATASIZE PUSH1 0x1F NOT PUSH1 0x1F DUP3 ADD AND DUP3 ADD DUP1 PUSH1 0x40 MSTORE POP DUP2 ADD SWAP1 PUSH2 0xE21 SWAP2 SWAP1 PUSH2 0x2A09 JUMP JUMPDEST PUSH2 0xE60 JUMPI PUSH1 0x40 MLOAD PUSH32 0x8C379A000000000000000000000000000000000000000000000000000000000 DUP2 MSTORE PUSH1 0x4 ADD PUSH2 0xE57 SWAP1 PUSH2 0x2A7E JUMP JUMPDEST PUSH1 0x40 MLOAD DUP1 SWAP2 SUB SWAP1 REVERT JUMPDEST PUSH0 PUSH1 0x9 PUSH0 DUP6 DUP2 MSTORE PUSH1 0x20 ADD SWAP1 DUP2 MSTORE PUSH1 0x20 ADD PUSH0 KECCAK256 SWAP1 POP PUSH2 0xE7C PUSH2 0x1C95 JUMP JUMPDEST CALLER DUP2 PUSH0 ADD SWAP1 PUSH20 0xFFFFFFFFFFFFFFFFFFFFFFFFFFFFFFFFFFFFFFFF AND SWAP1 DUP2 PUSH20 0xFFFFFFFFFFFFFFFFFFFFFFFFFFFFFFFFFFFFFFFF AND DUP2 MSTORE POP POP DUP4 DUP2 PUSH1 0x20 ADD SWAP1 PUSH20 0xFFFFFFFFFFFFFFFFFFFFFFFFFFFFFFFFFFFFFFFF AND SWAP1 DUP2 PUSH20 0xFFFFFFFFFFFFFFFFFFFFFFFFFFFFFFFFFFFFFFFF AND DUP2 MSTORE POP POP DUP3 DUP2 PUSH1 0x40 ADD DUP2 DUP2 MSTORE POP POP DUP2 PUSH1 0x2 ADD DUP2 SWAP1 DUP1 PUSH1 0x1 DUP2 SLOAD ADD DUP1 DUP3 SSTORE DUP1 SWAP2 POP POP PUSH1 0x1 SWAP1 SUB SWAP1 PUSH0 MSTORE PUSH1 0x20 PUSH0 KECCAK256 SWAP1 PUSH1 0x3 MUL ADD PUSH0 SWAP1 SWAP2 SWAP1 SWAP2 SWAP1 SWAP2 POP PUSH0 DUP3 ADD MLOAD DUP2 PUSH0 ADD PUSH0 PUSH2 0x100 EXP DUP2 SLOAD DUP2 PUSH20 0xFFFFFFFFFFFFFFFFFFFFFFFFFFFFFFFFFFFFFFFF MUL NOT AND SWAP1 DUP4 PUSH20 0xFFFFFFFFFFFFFFFFFFFFFFFFFFFFFFFFFFFFFFFF AND MUL OR SWAP1 SSTORE POP PUSH1 0x20 DUP3 ADD MLOAD DUP2 PUSH1 0x1 ADD PUSH0 PUSH2 0x100 EXP DUP2 SLOAD DUP2 PUSH20 0xFFFFFFFFFFFFFFFFFFFFFFFFFFFFFFFFFFFFFFFF MUL NOT AND SWAP1 DUP4 PUSH20 0xFFFFFFFFFFFFFFFFFFFFFFFFFFFFFFFFFFFFFFFF AND MUL OR SWAP1 SSTORE POP PUSH1 0x40 DUP3 ADD MLOAD DUP2 PUSH1 0x2 ADD SSTORE POP POP POP POP POP POP POP JUMP JUMPDEST PUSH1 0x3 SLOAD DUP2 JUMP JUMPDEST PUSH1 0x2 SLOAD TIMESTAMP LT ISZERO PUSH2 0x1008 JUMPI PUSH1 0x40 MLOAD PUSH32 0x8C379A000000000000000000000000000000000000000000000000000000000 DUP2 MSTORE PUSH1 0x4 ADD PUSH2 0xFFF SWAP1 PUSH2 0x23C9 JUMP JUMPDEST PUSH1 0x40 MLOAD DUP1 SWAP2 SUB SWAP1 REVERT JUMPDEST PUSH2 0x1010 PUSH2 0x1AF0 JUMP JUMPDEST DUP2 SUB PUSH2 0x1051 JUMPI PUSH1 0x40 MLOAD PUSH32 0x8C379A000000000000000000000000000000000000000000000000000000000 DUP2 MSTORE PUSH1 0x4 ADD PUSH2 0x1048 SWAP1 PUSH2 0x2AE6 JUMP JUMPDEST PUSH1 0x40 MLOAD DUP1 SWAP2 SUB SWAP1 REVERT JUMPDEST PUSH0 PUSH1 0x9 PUSH0 DUP4 DUP2 MSTORE PUSH1 0x20 ADD SWAP1 DUP2 MSTORE PUSH1 0x20 ADD PUSH0 KECCAK256 SWAP1 POP PUSH0 JUMPDEST DUP2 PUSH1 0x2 ADD DUP1 SLOAD SWAP1 POP DUP2 LT ISZERO PUSH2 0x1247 JUMPI CALLER PUSH20 0xFFFFFFFFFFFFFFFFFFFFFFFFFFFFFFFFFFFFFFFF AND DUP3 PUSH1 0x2 ADD DUP3 DUP2 SLOAD DUP2 LT PUSH2 0x10A3 JUMPI PUSH2 0x10A2 PUSH2 0x2B04 JUMP JUMPDEST JUMPDEST SWAP1 PUSH0 MSTORE PUSH1 0x20 PUSH0 KECCAK256 SWAP1 PUSH1 0x3 MUL ADD PUSH0 ADD PUSH0 SWAP1 SLOAD SWAP1 PUSH2 0x100 EXP SWAP1 DIV PUSH20 0xFFFFFFFFFFFFFFFFFFFFFFFFFFFFFFFFFFFFFFFF AND PUSH20 0xFFFFFFFFFFFFFFFFFFFFFFFFFFFFFFFFFFFFFFFF AND SUB PUSH2 0x123A JUMPI DUP2 PUSH1 0x2 ADD DUP2 DUP2 SLOAD DUP2 LT PUSH2 0x1102 JUMPI PUSH2 0x1101 PUSH2 0x2B04 JUMP JUMPDEST JUMPDEST SWAP1 PUSH0 MSTORE PUSH1 0x20 PUSH0 KECCAK256 SWAP1 PUSH1 0x3 MUL ADD PUSH1 0x1 ADD PUSH0 SWAP1 SLOAD SWAP1 PUSH2 0x100 EXP SWAP1 DIV PUSH20 0xFFFFFFFFFFFFFFFFFFFFFFFFFFFFFFFFFFFFFFFF AND PUSH20 0xFFFFFFFFFFFFFFFFFFFFFFFFFFFFFFFFFFFFFFFF AND PUSH4 0xA9059CBB CALLER DUP5 PUSH1 0x2 ADD DUP5 DUP2 SLOAD DUP2 LT PUSH2 0x1163 JUMPI PUSH2 0x1162 PUSH2 0x2B04 JUMP JUMPDEST JUMPDEST SWAP1 PUSH0 MSTORE PUSH1 0x20 PUSH0 KECCAK256 SWAP1 PUSH1 0x3 MUL ADD PUSH1 0x2 ADD SLOAD PUSH1 0x40 MLOAD DUP4 PUSH4 0xFFFFFFFF AND PUSH1 0xE0 SHL DUP2 MSTORE PUSH1 0x4 ADD PUSH2 0x1190 SWAP3 SWAP2 SWAP1 PUSH2 0x2B31 JUMP JUMPDEST PUSH1 0x20 PUSH1 0x40 MLOAD DUP1 DUP4 SUB DUP2 PUSH0 DUP8 GAS CALL ISZERO DUP1 ISZERO PUSH2 0x11AC JUMPI RETURNDATASIZE PUSH0 DUP1 RETURNDATACOPY RETURNDATASIZE PUSH0 REVERT JUMPDEST POP POP POP POP PUSH1 0x40 MLOAD RETURNDATASIZE PUSH1 0x1F NOT PUSH1 0x1F DUP3 ADD AND DUP3 ADD DUP1 PUSH1 0x40 MSTORE POP DUP2 ADD SWAP1 PUSH2 0x11D0 SWAP2 SWAP1 PUSH2 0x2A09 JUMP JUMPDEST PUSH2 0x120F JUMPI PUSH1 0x40 MLOAD PUSH32 0x8C379A000000000000000000000000000000000000000000000000000000000 DUP2 MSTORE PUSH1 0x4 ADD PUSH2 0x1206 SWAP1 PUSH2 0x2A7E JUMP JUMPDEST PUSH1 0x40 MLOAD DUP1 SWAP2 SUB SWAP1 REVERT JUMPDEST PUSH0 DUP3 PUSH1 0x2 ADD DUP3 DUP2 SLOAD DUP2 LT PUSH2 0x1226 JUMPI PUSH2 0x1225 PUSH2 0x2B04 JUMP JUMPDEST JUMPDEST SWAP1 PUSH0 MSTORE PUSH1 0x20 PUSH0 KECCAK256 SWAP1 PUSH1 0x3 MUL ADD PUSH1 0x2 ADD DUP2 SWAP1 SSTORE POP JUMPDEST DUP1 DUP1 PUSH1 0x1 ADD SWAP2 POP POP PUSH2 0x1067 JUMP JUMPDEST POP POP POP JUMP JUMPDEST PUSH1 0x8 PUSH1 0x20 MSTORE DUP1 PUSH0 MSTORE PUSH1 0x40 PUSH0 KECCAK256 PUSH0 SWAP2 POP SLOAD SWAP1 PUSH2 0x100 EXP SWAP1 DIV PUSH1 0xFF AND DUP2 JUMP JUMPDEST PUSH1 0x1 SLOAD DUP2 JUMP JUMPDEST PUSH0 PUSH1 0x1 SLOAD TIMESTAMP GT PUSH2 0x1281 JUMPI PUSH0 SWAP1 POP PUSH2 0x12A8 JUMP JUMPDEST PUSH1 0x1 SLOAD TIMESTAMP LT ISZERO DUP1 ISZERO PUSH2 0x1295 JUMPI POP PUSH1 0x2 SLOAD TIMESTAMP GT ISZERO JUMPDEST ISZERO PUSH2 0x12A3 JUMPI PUSH1 0x1 SWAP1 POP PUSH2 0x12A8 JUMP JUMPDEST PUSH1 0x2 SWAP1 POP JUMPDEST SWAP1 JUMP JUMPDEST PUSH0 DUP1 PUSH0 SWAP1 POP PUSH0 PUSH1 0x9 PUSH0 DUP6 DUP2 MSTORE PUSH1 0x20 ADD SWAP1 DUP2 MSTORE PUSH1 0x20 ADD PUSH0 KECCAK256 SWAP1 POP PUSH0 JUMPDEST DUP2 PUSH1 0x3 ADD DUP1 SLOAD SWAP1 POP DUP2 LT ISZERO PUSH2 0x1315 JUMPI DUP2 PUSH1 0x3 ADD DUP2 DUP2 SLOAD DUP2 LT PUSH2 0x12EB JUMPI PUSH2 0x12EA PUSH2 0x2B04 JUMP JUMPDEST JUMPDEST SWAP1 PUSH0 MSTORE PUSH1 0x20 PUSH0 KECCAK256 SWAP1 PUSH1 0x2 MUL ADD PUSH1 0x1 ADD SLOAD DUP4 PUSH2 0x1306 SWAP2 SWAP1 PUSH2 0x2B58 JUMP JUMPDEST SWAP3 POP DUP1 DUP1 PUSH1 0x1 ADD SWAP2 POP POP PUSH2 0x12C6 JUMP JUMPDEST POP DUP2 SWAP3 POP POP POP SWAP2 SWAP1 POP JUMP JUMPDEST PUSH2 0x1328 PUSH2 0x1B46 JUMP JUMPDEST PUSH2 0x1331 PUSH0 PUSH2 0x1BCD JUMP JUMPDEST JUMP JUMPDEST PUSH0 DUP1 PUSH0 SWAP1 SLOAD SWAP1 PUSH2 0x100 EXP SWAP1 DIV PUSH20 0xFFFFFFFFFFFFFFFFFFFFFFFFFFFFFFFFFFFFFFFF AND SWAP1 POP SWAP1 JUMP JUMPDEST PUSH0 DUP1 PUSH0 SWAP1 POP PUSH0 PUSH1 0x9 PUSH0 DUP7 DUP2 MSTORE PUSH1 0x20 ADD SWAP1 DUP2 MSTORE PUSH1 0x20 ADD PUSH0 KECCAK256 SWAP1 POP PUSH0 JUMPDEST DUP2 PUSH1 0x2 ADD DUP1 SLOAD SWAP1 POP DUP2 LT ISZERO PUSH2 0x143C JUMPI DUP5 PUSH20 0xFFFFFFFFFFFFFFFFFFFFFFFFFFFFFFFFFFFFFFFF AND DUP3 PUSH1 0x2 ADD DUP3 DUP2 SLOAD DUP2 LT PUSH2 0x13B1 JUMPI PUSH2 0x13B0 PUSH2 0x2B04 JUMP JUMPDEST JUMPDEST SWAP1 PUSH0 MSTORE PUSH1 0x20 PUSH0 KECCAK256 SWAP1 PUSH1 0x3 MUL ADD PUSH1 0x1 ADD PUSH0 SWAP1 SLOAD SWAP1 PUSH2 0x100 EXP SWAP1 DIV PUSH20 0xFFFFFFFFFFFFFFFFFFFFFFFFFFFFFFFFFFFFFFFF AND PUSH20 0xFFFFFFFFFFFFFFFFFFFFFFFFFFFFFFFFFFFFFFFF AND SUB PUSH2 0x142F JUMPI DUP2 PUSH1 0x2 ADD DUP2 DUP2 SLOAD DUP2 LT PUSH2 0x1411 JUMPI PUSH2 0x1410 PUSH2 0x2B04 JUMP JUMPDEST JUMPDEST SWAP1 PUSH0 MSTORE PUSH1 0x20 PUSH0 KECCAK256 SWAP1 PUSH1 0x3 MUL ADD PUSH1 0x2 ADD SLOAD DUP4 PUSH2 0x142C SWAP2 SWAP1 PUSH2 0x2B58 JUMP JUMPDEST SWAP3 POP JUMPDEST DUP1 DUP1 PUSH1 0x1 ADD SWAP2 POP POP PUSH2 0x1375 JUMP JUMPDEST POP DUP2 SWAP3 POP POP POP SWAP3 SWAP2 POP POP JUMP JUMPDEST PUSH1 0x5 PUSH1 0x20 MSTORE DUP1 PUSH0 MSTORE PUSH1 0x40 PUSH0 KECCAK256 PUSH0 SWAP2 POP SWAP1 POP SLOAD DUP2 JUMP JUMPDEST PUSH1 0x4 PUSH0 SWAP1 SLOAD SWAP1 PUSH2 0x100 EXP SWAP1 DIV PUSH20 0xFFFFFFFFFFFFFFFFFFFFFFFFFFFFFFFFFFFFFFFF AND DUP2 JUMP JUMPDEST PUSH2 0x148A PUSH2 0x1B46 JUMP JUMPDEST PUSH0 DUP2 SUB PUSH2 0x14BC JUMPI PUSH0 PUSH1 0x4 PUSH1 0x14 PUSH2 0x100 EXP DUP2 SLOAD DUP2 PUSH1 0xFF MUL NOT AND SWAP1 DUP4 PUSH1 0x2 DUP2 GT ISZERO PUSH2 0x14B6 JUMPI PUSH2 0x14B5 PUSH2 0x2B8B JUMP JUMPDEST JUMPDEST MUL OR SWAP1 SSTORE POP JUMPDEST PUSH1 0x1 DUP2 SUB PUSH2 0x14F0 JUMPI PUSH1 0x1 PUSH1 0x4 PUSH1 0x14 PUSH2 0x100 EXP DUP2 SLOAD DUP2 PUSH1 0xFF MUL NOT AND SWAP1 DUP4 PUSH1 0x2 DUP2 GT ISZERO PUSH2 0x14EA JUMPI PUSH2 0x14E9 PUSH2 0x2B8B JUMP JUMPDEST JUMPDEST MUL OR SWAP1 SSTORE POP JUMPDEST PUSH1 0x2 DUP2 SUB PUSH2 0x1524 JUMPI PUSH1 0x2 PUSH1 0x4 PUSH1 0x14 PUSH2 0x100 EXP DUP2 SLOAD DUP2 PUSH1 0xFF MUL NOT AND SWAP1 DUP4 PUSH1 0x2 DUP2 GT ISZERO PUSH2 0x151E JUMPI PUSH2 0x151D PUSH2 0x2B8B JUMP JUMPDEST JUMPDEST MUL OR SWAP1 SSTORE POP JUMPDEST POP JUMP JUMPDEST PUSH1 0x1 SLOAD TIMESTAMP GT ISZERO PUSH2 0x156C JUMPI PUSH1 0x40 MLOAD PUSH32 0x8C379A000000000000000000000000000000000000000000000000000000000 DUP2 MSTORE PUSH1 0x4 ADD PUSH2 0x1563 SWAP1 PUSH2 0x23C9 JUMP JUMPDEST PUSH1 0x40 MLOAD DUP1 SWAP2 SUB SWAP1 REVERT JUMPDEST PUSH0 CALLVALUE GT PUSH2 0x15AE JUMPI PUSH1 0x40 MLOAD PUSH32 0x8C379A000000000000000000000000000000000000000000000000000000000 DUP2 MSTORE PUSH1 0x4 ADD PUSH2 0x15A5 SWAP1 PUSH2 0x2924 JUMP JUMPDEST PUSH1 0x40 MLOAD DUP1 SWAP2 SUB SWAP1 REVERT JUMPDEST PUSH0 PUSH1 0x9 PUSH0 DUP5 DUP2 MSTORE PUSH1 0x20 ADD SWAP1 DUP2 MSTORE PUSH1 0x20 ADD PUSH0 KECCAK256 SWAP1 POP PUSH2 0x15CA PUSH2 0x1CDF JUMP JUMPDEST CALLER DUP2 PUSH0 ADD SWAP1 PUSH20 0xFFFFFFFFFFFFFFFFFFFFFFFFFFFFFFFFFFFFFFFF AND SWAP1 DUP2 PUSH20 0xFFFFFFFFFFFFFFFFFFFFFFFFFFFFFFFFFFFFFFFF AND DUP2 MSTORE POP POP DUP3 DUP2 PUSH1 0x20 ADD DUP2 DUP2 MSTORE POP POP DUP2 PUSH1 0x3 ADD DUP2 SWAP1 DUP1 PUSH1 0x1 DUP2 SLOAD ADD DUP1 DUP3 SSTORE DUP1 SWAP2 POP POP PUSH1 0x1 SWAP1 SUB SWAP1 PUSH0 MSTORE PUSH1 0x20 PUSH0 KECCAK256 SWAP1 PUSH1 0x2 MUL ADD PUSH0 SWAP1 SWAP2 SWAP1 SWAP2 SWAP1 SWAP2 POP PUSH0 DUP3 ADD MLOAD DUP2 PUSH0 ADD PUSH0 PUSH2 0x100 EXP DUP2 SLOAD DUP2 PUSH20 0xFFFFFFFFFFFFFFFFFFFFFFFFFFFFFFFFFFFFFFFF MUL NOT AND SWAP1 DUP4 PUSH20 0xFFFFFFFFFFFFFFFFFFFFFFFFFFFFFFFFFFFFFFFF AND MUL OR SWAP1 SSTORE POP PUSH1 0x20 DUP3 ADD MLOAD DUP2 PUSH1 0x1 ADD SSTORE POP POP POP POP POP POP JUMP JUMPDEST PUSH1 0x60 DUP1 PUSH1 0x9 PUSH0 DUP5 DUP2 MSTORE PUSH1 0x20 ADD SWAP1 DUP2 MSTORE PUSH1 0x20 ADD PUSH0 KECCAK256 PUSH1 0x2 ADD PUSH1 0x9 PUSH0 DUP6 DUP2 MSTORE PUSH1 0x20 ADD SWAP1 DUP2 MSTORE PUSH1 0x20 ADD PUSH0 KECCAK256 PUSH1 0x3 ADD DUP2 DUP1 SLOAD DUP1 PUSH1 0x20 MUL PUSH1 0x20 ADD PUSH1 0x40 MLOAD SWAP1 DUP2 ADD PUSH1 0x40 MSTORE DUP1 SWAP3 SWAP2 SWAP1 DUP2 DUP2 MSTORE PUSH1 0x20 ADD PUSH0 SWAP1 JUMPDEST DUP3 DUP3 LT ISZERO PUSH2 0x17BA JUMPI DUP4 DUP3 SWAP1 PUSH0 MSTORE PUSH1 0x20 PUSH0 KECCAK256 SWAP1 PUSH1 0x3 MUL ADD PUSH1 0x40 MLOAD DUP1 PUSH1 0x60 ADD PUSH1 0x40 MSTORE SWAP1 DUP2 PUSH0 DUP3 ADD PUSH0 SWAP1 SLOAD SWAP1 PUSH2 0x100 EXP SWAP1 DIV PUSH20 0xFFFFFFFFFFFFFFFFFFFFFFFFFFFFFFFFFFFFFFFF AND PUSH20 0xFFFFFFFFFFFFFFFFFFFFFFFFFFFFFFFFFFFFFFFF AND PUSH20 0xFFFFFFFFFFFFFFFFFFFFFFFFFFFFFFFFFFFFFFFF AND DUP2 MSTORE PUSH1 0x20 ADD PUSH1 0x1 DUP3 ADD PUSH0 SWAP1 SLOAD SWAP1 PUSH2 0x100 EXP SWAP1 DIV PUSH20 0xFFFFFFFFFFFFFFFFFFFFFFFFFFFFFFFFFFFFFFFF AND PUSH20 0xFFFFFFFFFFFFFFFFFFFFFFFFFFFFFFFFFFFFFFFF AND PUSH20 0xFFFFFFFFFFFFFFFFFFFFFFFFFFFFFFFFFFFFFFFF AND DUP2 MSTORE PUSH1 0x20 ADD PUSH1 0x2 DUP3 ADD SLOAD DUP2 MSTORE POP POP DUP2 MSTORE PUSH1 0x20 ADD SWAP1 PUSH1 0x1 ADD SWAP1 PUSH2 0x16D7 JUMP JUMPDEST POP POP POP POP SWAP2 POP DUP1 DUP1 SLOAD DUP1 PUSH1 0x20 MUL PUSH1 0x20 ADD PUSH1 0x40 MLOAD SWAP1 DUP2 ADD PUSH1 0x40 MSTORE DUP1 SWAP3 SWAP2 SWAP1 DUP2 DUP2 MSTORE PUSH1 0x20 ADD PUSH0 SWAP1 JUMPDEST DUP3 DUP3 LT ISZERO PUSH2 0x186E JUMPI DUP4 DUP3 SWAP1 PUSH0 MSTORE PUSH1 0x20 PUSH0 KECCAK256 SWAP1 PUSH1 0x2 MUL ADD PUSH1 0x40 MLOAD DUP1 PUSH1 0x40 ADD PUSH1 0x40 MSTORE SWAP1 DUP2 PUSH0 DUP3 ADD PUSH0 SWAP1 SLOAD SWAP1 PUSH2 0x100 EXP SWAP1 DIV PUSH20 0xFFFFFFFFFFFFFFFFFFFFFFFFFFFFFFFFFFFFFFFF AND PUSH20 0xFFFFFFFFFFFFFFFFFFFFFFFFFFFFFFFFFFFFFFFF AND PUSH20 0xFFFFFFFFFFFFFFFFFFFFFFFFFFFFFFFFFFFFFFFF AND DUP2 MSTORE PUSH1 0x20 ADD PUSH1 0x1 DUP3 ADD SLOAD DUP2 MSTORE POP POP DUP2 MSTORE PUSH1 0x20 ADD SWAP1 PUSH1 0x1 ADD SWAP1 PUSH2 0x17E0 JUMP JUMPDEST POP POP POP POP SWAP1 POP SWAP2 POP SWAP2 POP SWAP2 POP SWAP2 JUMP JUMPDEST PUSH2 0x1885 PUSH2 0x1B46 JUMP JUMPDEST DUP1 PUSH1 0x7 DUP2 SWAP1 SSTORE POP POP JUMP JUMPDEST PUSH2 0x1897 PUSH2 0x1B46 JUMP JUMPDEST PUSH1 0x2 SLOAD TIMESTAMP LT ISZERO PUSH2 0x18DC JUMPI PUSH1 0x40 MLOAD PUSH32 0x8C379A000000000000000000000000000000000000000000000000000000000 DUP2 MSTORE PUSH1 0x4 ADD PUSH2 0x18D3 SWAP1 PUSH2 0x23C9 JUMP JUMPDEST PUSH1 0x40 MLOAD DUP1 SWAP2 SUB SWAP1 REVERT JUMPDEST PUSH0 PUSH2 0x18E5 PUSH2 0x1AF0 JUMP JUMPDEST SWAP1 POP PUSH0 PUSH1 0x9 PUSH0 DUP4 DUP2 MSTORE PUSH1 0x20 ADD SWAP1 DUP2 MSTORE PUSH1 0x20 ADD PUSH0 KECCAK256 SWAP1 POP PUSH0 JUMPDEST DUP2 PUSH1 0x2 ADD DUP1 SLOAD SWAP1 POP DUP2 LT ISZERO PUSH2 0x1A66 JUMPI DUP2 PUSH1 0x2 ADD DUP2 DUP2 SLOAD DUP2 LT PUSH2 0x1922 JUMPI PUSH2 0x1921 PUSH2 0x2B04 JUMP JUMPDEST JUMPDEST SWAP1 PUSH0 MSTORE PUSH1 0x20 PUSH0 KECCAK256 SWAP1 PUSH1 0x3 MUL ADD PUSH1 0x1 ADD PUSH0 SWAP1 SLOAD SWAP1 PUSH2 0x100 EXP SWAP1 DIV PUSH20 0xFFFFFFFFFFFFFFFFFFFFFFFFFFFFFFFFFFFFFFFF AND PUSH20 0xFFFFFFFFFFFFFFFFFFFFFFFFFFFFFFFFFFFFFFFF AND PUSH4 0xA9059CBB DUP6 DUP5 PUSH1 0x2 ADD DUP5 DUP2 SLOAD DUP2 LT PUSH2 0x1983 JUMPI PUSH2 0x1982 PUSH2 0x2B04 JUMP JUMPDEST JUMPDEST SWAP1 PUSH0 MSTORE PUSH1 0x20 PUSH0 KECCAK256 SWAP1 PUSH1 0x3 MUL ADD PUSH1 0x2 ADD SLOAD PUSH1 0x40 MLOAD DUP4 PUSH4 0xFFFFFFFF AND PUSH1 0xE0 SHL DUP2 MSTORE PUSH1 0x4 ADD PUSH2 0x19B0 SWAP3 SWAP2 SWAP1 PUSH2 0x2B31 JUMP JUMPDEST PUSH1 0x20 PUSH1 0x40 MLOAD DUP1 DUP4 SUB DUP2 PUSH0 DUP8 GAS CALL ISZERO DUP1 ISZERO PUSH2 0x19CC JUMPI RETURNDATASIZE PUSH0 DUP1 RETURNDATACOPY RETURNDATASIZE PUSH0 REVERT JUMPDEST POP POP POP POP PUSH1 0x40 MLOAD RETURNDATASIZE PUSH1 0x1F NOT PUSH1 0x1F DUP3 ADD AND DUP3 ADD DUP1 PUSH1 0x40 MSTORE POP DUP2 ADD SWAP1 PUSH2 0x19F0 SWAP2 SWAP1 PUSH2 0x2A09 JUMP JUMPDEST PUSH2 0x1A2F JUMPI PUSH1 0x40 MLOAD PUSH32 0x8C379A000000000000000000000000000000000000000000000000000000000 DUP2 MSTORE PUSH1 0x4 ADD PUSH2 0x1A26 SWAP1 PUSH2 0x2A7E JUMP JUMPDEST PUSH1 0x40 MLOAD DUP1 SWAP2 SUB SWAP1 REVERT JUMPDEST PUSH0 DUP3 PUSH1 0x2 ADD DUP3 DUP2 SLOAD DUP2 LT PUSH2 0x1A46 JUMPI PUSH2 0x1A45 PUSH2 0x2B04 JUMP JUMPDEST JUMPDEST SWAP1 PUSH0 MSTORE PUSH1 0x20 PUSH0 KECCAK256 SWAP1 PUSH1 0x3 MUL ADD PUSH1 0x2 ADD DUP2 SWAP1 SSTORE POP DUP1 DUP1 PUSH1 0x1 ADD SWAP2 POP POP PUSH2 0x18FD JUMP JUMPDEST POP POP POP POP JUMP JUMPDEST PUSH2 0x1A74 PUSH2 0x1B46 JUMP JUMPDEST PUSH0 PUSH20 0xFFFFFFFFFFFFFFFFFFFFFFFFFFFFFFFFFFFFFFFF AND DUP2 PUSH20 0xFFFFFFFFFFFFFFFFFFFFFFFFFFFFFFFFFFFFFFFF AND SUB PUSH2 0x1AE4 JUMPI PUSH0 PUSH1 0x40 MLOAD PUSH32 0x1E4FBDF700000000000000000000000000000000000000000000000000000000 DUP2 MSTORE PUSH1 0x4 ADD PUSH2 0x1ADB SWAP2 SWAP1 PUSH2 0x20DA JUMP JUMPDEST PUSH1 0x40 MLOAD DUP1 SWAP2 SUB SWAP1 REVERT JUMPDEST PUSH2 0x1AED DUP2 PUSH2 0x1BCD JUMP JUMPDEST POP JUMP JUMPDEST PUSH0 DUP1 PUSH1 0x1 SWAP1 POP PUSH0 PUSH1 0x1 SWAP1 POP JUMPDEST PUSH1 0x3 SLOAD DUP2 GT PUSH2 0x1B38 JUMPI DUP2 PUSH1 0x9 PUSH0 DUP4 DUP2 MSTORE PUSH1 0x20 ADD SWAP1 DUP2 MSTORE PUSH1 0x20 ADD PUSH0 KECCAK256 PUSH1 0x4 ADD SLOAD GT ISZERO PUSH2 0x1B25 JUMPI DUP1 SWAP2 POP JUMPDEST DUP1 DUP1 PUSH2 0x1B30 SWAP1 PUSH2 0x25CA JUMP JUMPDEST SWAP2 POP POP PUSH2 0x1AFC JUMP JUMPDEST POP DUP1 SWAP2 POP POP SWAP1 JUMP JUMPDEST PUSH1 0x7 SLOAD DUP2 JUMP JUMPDEST PUSH2 0x1B4E PUSH2 0x1C8E JUMP JUMPDEST PUSH20 0xFFFFFFFFFFFFFFFFFFFFFFFFFFFFFFFFFFFFFFFF AND PUSH2 0x1B6C PUSH2 0x1333 JUMP JUMPDEST PUSH20 0xFFFFFFFFFFFFFFFFFFFFFFFFFFFFFFFFFFFFFFFF AND EQ PUSH2 0x1BCB JUMPI PUSH2 0x1B8F PUSH2 0x1C8E JUMP JUMPDEST PUSH1 0x40 MLOAD PUSH32 0x118CDAA700000000000000000000000000000000000000000000000000000000 DUP2 MSTORE PUSH1 0x4 ADD PUSH2 0x1BC2 SWAP2 SWAP1 PUSH2 0x20DA JUMP JUMPDEST PUSH1 0x40 MLOAD DUP1 SWAP2 SUB SWAP1 REVERT JUMPDEST JUMP JUMPDEST PUSH0 DUP1 PUSH0 SWAP1 SLOAD SWAP1 PUSH2 0x100 EXP SWAP1 DIV PUSH20 0xFFFFFFFFFFFFFFFFFFFFFFFFFFFFFFFFFFFFFFFF AND SWAP1 POP DUP2 PUSH0 DUP1 PUSH2 0x100 EXP DUP2 SLOAD DUP2 PUSH20 0xFFFFFFFFFFFFFFFFFFFFFFFFFFFFFFFFFFFFFFFF MUL NOT AND SWAP1 DUP4 PUSH20 0xFFFFFFFFFFFFFFFFFFFFFFFFFFFFFFFFFFFFFFFF AND MUL OR SWAP1 SSTORE POP DUP2 PUSH20 0xFFFFFFFFFFFFFFFFFFFFFFFFFFFFFFFFFFFFFFFF AND DUP2 PUSH20 0xFFFFFFFFFFFFFFFFFFFFFFFFFFFFFFFFFFFFFFFF AND PUSH32 0x8BE0079C531659141344CD1FD0A4F28419497F9722A3DAAFE3B4186F6B6457E0 PUSH1 0x40 MLOAD PUSH1 0x40 MLOAD DUP1 SWAP2 SUB SWAP1 LOG3 POP POP JUMP JUMPDEST PUSH0 CALLER SWAP1 POP SWAP1 JUMP JUMPDEST PUSH1 0x40 MLOAD DUP1 PUSH1 0x60 ADD PUSH1 0x40 MSTORE DUP1 PUSH0 PUSH20 0xFFFFFFFFFFFFFFFFFFFFFFFFFFFFFFFFFFFFFFFF AND DUP2 MSTORE PUSH1 0x20 ADD PUSH0 PUSH20 0xFFFFFFFFFFFFFFFFFFFFFFFFFFFFFFFFFFFFFFFF AND DUP2 MSTORE PUSH1 0x20 ADD PUSH0 DUP2 MSTORE POP SWAP1 JUMP JUMPDEST PUSH1 0x40 MLOAD DUP1 PUSH1 0x40 ADD PUSH1 0x40 MSTORE DUP1 PUSH0 PUSH20 0xFFFFFFFFFFFFFFFFFFFFFFFFFFFFFFFFFFFFFFFF AND DUP2 MSTORE PUSH1 0x20 ADD PUSH0 DUP2 MSTORE POP SWAP1 JUMP JUMPDEST PUSH0 PUSH1 0x40 MLOAD SWAP1 POP SWAP1 JUMP JUMPDEST PUSH0 DUP1 REVERT JUMPDEST PUSH0 DUP1 REVERT JUMPDEST PUSH0 DUP2 SWAP1 POP SWAP2 SWAP1 POP JUMP JUMPDEST PUSH2 0x1D30 DUP2 PUSH2 0x1D1E JUMP JUMPDEST DUP2 EQ PUSH2 0x1D3A JUMPI PUSH0 DUP1 REVERT JUMPDEST POP JUMP JUMPDEST PUSH0 DUP2 CALLDATALOAD SWAP1 POP PUSH2 0x1D4B DUP2 PUSH2 0x1D27 JUMP JUMPDEST SWAP3 SWAP2 POP POP JUMP JUMPDEST PUSH0 PUSH1 0x20 DUP3 DUP5 SUB SLT ISZERO PUSH2 0x1D66 JUMPI PUSH2 0x1D65 PUSH2 0x1D16 JUMP JUMPDEST JUMPDEST PUSH0 PUSH2 0x1D73 DUP5 DUP3 DUP6 ADD PUSH2 0x1D3D JUMP JUMPDEST SWAP2 POP POP SWAP3 SWAP2 POP POP JUMP JUMPDEST PUSH2 0x1D85 DUP2 PUSH2 0x1D1E JUMP JUMPDEST DUP3 MSTORE POP POP JUMP JUMPDEST PUSH0 PUSH1 0x20 DUP3 ADD SWAP1 POP PUSH2 0x1D9E PUSH0 DUP4 ADD DUP5 PUSH2 0x1D7C JUMP JUMPDEST SWAP3 SWAP2 POP POP JUMP JUMPDEST PUSH0 PUSH20 0xFFFFFFFFFFFFFFFFFFFFFFFFFFFFFFFFFFFFFFFF DUP3 AND SWAP1 POP SWAP2 SWAP1 POP JUMP JUMPDEST PUSH0 PUSH2 0x1DCD DUP3 PUSH2 0x1DA4 JUMP JUMPDEST SWAP1 POP SWAP2 SWAP1 POP JUMP JUMPDEST PUSH2 0x1DDD DUP2 PUSH2 0x1DC3 JUMP JUMPDEST DUP2 EQ PUSH2 0x1DE7 JUMPI PUSH0 DUP1 REVERT JUMPDEST POP JUMP JUMPDEST PUSH0 DUP2 CALLDATALOAD SWAP1 POP PUSH2 0x1DF8 DUP2 PUSH2 0x1DD4 JUMP JUMPDEST SWAP3 SWAP2 POP POP JUMP JUMPDEST PUSH0 PUSH1 0x20 DUP3 DUP5 SUB SLT ISZERO PUSH2 0x1E13 JUMPI PUSH2 0x1E12 PUSH2 0x1D16 JUMP JUMPDEST JUMPDEST PUSH0 PUSH2 0x1E20 DUP5 DUP3 DUP6 ADD PUSH2 0x1DEA JUMP JUMPDEST SWAP2 POP POP SWAP3 SWAP2 POP POP JUMP JUMPDEST PUSH0 DUP2 MLOAD SWAP1 POP SWAP2 SWAP1 POP JUMP JUMPDEST PUSH0 DUP3 DUP3 MSTORE PUSH1 0x20 DUP3 ADD SWAP1 POP SWAP3 SWAP2 POP POP JUMP JUMPDEST DUP3 DUP2 DUP4 MCOPY PUSH0 DUP4 DUP4 ADD MSTORE POP POP POP JUMP JUMPDEST PUSH0 PUSH1 0x1F NOT PUSH1 0x1F DUP4 ADD AND SWAP1 POP SWAP2 SWAP1 POP JUMP JUMPDEST PUSH0 PUSH2 0x1E6B DUP3 PUSH2 0x1E29 JUMP JUMPDEST PUSH2 0x1E75 DUP2 DUP6 PUSH2 0x1E33 JUMP JUMPDEST SWAP4 POP PUSH2 0x1E85 DUP2 DUP6 PUSH1 0x20 DUP7 ADD PUSH2 0x1E43 JUMP JUMPDEST PUSH2 0x1E8E DUP2 PUSH2 0x1E51 JUMP JUMPDEST DUP5 ADD SWAP2 POP POP SWAP3 SWAP2 POP POP JUMP JUMPDEST PUSH2 0x1EA2 DUP2 PUSH2 0x1DC3 JUMP JUMPDEST DUP3 MSTORE POP POP JUMP JUMPDEST PUSH0 PUSH1 0x60 DUP3 ADD SWAP1 POP DUP2 DUP2 SUB PUSH0 DUP4 ADD MSTORE PUSH2 0x1EC0 DUP2 DUP7 PUSH2 0x1E61 JUMP JUMPDEST SWAP1 POP PUSH2 0x1ECF PUSH1 0x20 DUP4 ADD DUP6 PUSH2 0x1E99 JUMP JUMPDEST PUSH2 0x1EDC PUSH1 0x40 DUP4 ADD DUP5 PUSH2 0x1D7C JUMP JUMPDEST SWAP5 SWAP4 POP POP POP POP JUMP JUMPDEST PUSH0 DUP1 REVERT JUMPDEST PUSH0 DUP1 REVERT JUMPDEST PUSH32 0x4E487B7100000000000000000000000000000000000000000000000000000000 PUSH0 MSTORE PUSH1 0x41 PUSH1 0x4 MSTORE PUSH1 0x24 PUSH0 REVERT JUMPDEST PUSH2 0x1F22 DUP3 PUSH2 0x1E51 JUMP JUMPDEST DUP2 ADD DUP2 DUP2 LT PUSH8 0xFFFFFFFFFFFFFFFF DUP3 GT OR ISZERO PUSH2 0x1F41 JUMPI PUSH2 0x1F40 PUSH2 0x1EEC JUMP JUMPDEST JUMPDEST DUP1 PUSH1 0x40 MSTORE POP POP POP JUMP JUMPDEST PUSH0 PUSH2 0x1F53 PUSH2 0x1D0D JUMP JUMPDEST SWAP1 POP PUSH2 0x1F5F DUP3 DUP3 PUSH2 0x1F19 JUMP JUMPDEST SWAP2 SWAP1 POP JUMP JUMPDEST PUSH0 PUSH8 0xFFFFFFFFFFFFFFFF DUP3 GT ISZERO PUSH2 0x1F7E JUMPI PUSH2 0x1F7D PUSH2 0x1EEC JUMP JUMPDEST JUMPDEST PUSH2 0x1F87 DUP3 PUSH2 0x1E51 JUMP JUMPDEST SWAP1 POP PUSH1 0x20 DUP2 ADD SWAP1 POP SWAP2 SWAP1 POP JUMP JUMPDEST DUP3 DUP2 DUP4 CALLDATACOPY PUSH0 DUP4 DUP4 ADD MSTORE POP POP POP JUMP JUMPDEST PUSH0 PUSH2 0x1FB4 PUSH2 0x1FAF DUP5 PUSH2 0x1F64 JUMP JUMPDEST PUSH2 0x1F4A JUMP JUMPDEST SWAP1 POP DUP3 DUP2 MSTORE PUSH1 0x20 DUP2 ADD DUP5 DUP5 DUP5 ADD GT ISZERO PUSH2 0x1FD0 JUMPI PUSH2 0x1FCF PUSH2 0x1EE8 JUMP JUMPDEST JUMPDEST PUSH2 0x1FDB DUP5 DUP3 DUP6 PUSH2 0x1F94 JUMP JUMPDEST POP SWAP4 SWAP3 POP POP POP JUMP JUMPDEST PUSH0 DUP3 PUSH1 0x1F DUP4 ADD SLT PUSH2 0x1FF7 JUMPI PUSH2 0x1FF6 PUSH2 0x1EE4 JUMP JUMPDEST JUMPDEST DUP2 CALLDATALOAD PUSH2 0x2007 DUP5 DUP3 PUSH1 0x20 DUP7 ADD PUSH2 0x1FA2 JUMP JUMPDEST SWAP2 POP POP SWAP3 SWAP2 POP POP JUMP JUMPDEST PUSH0 PUSH1 0x20 DUP3 DUP5 SUB SLT ISZERO PUSH2 0x2025 JUMPI PUSH2 0x2024 PUSH2 0x1D16 JUMP JUMPDEST JUMPDEST PUSH0 DUP3 ADD CALLDATALOAD PUSH8 0xFFFFFFFFFFFFFFFF DUP2 GT ISZERO PUSH2 0x2042 JUMPI PUSH2 0x2041 PUSH2 0x1D1A JUMP JUMPDEST JUMPDEST PUSH2 0x204E DUP5 DUP3 DUP6 ADD PUSH2 0x1FE3 JUMP JUMPDEST SWAP2 POP POP SWAP3 SWAP2 POP POP JUMP JUMPDEST PUSH0 DUP1 PUSH0 PUSH1 0x60 DUP5 DUP7 SUB SLT ISZERO PUSH2 0x206E JUMPI PUSH2 0x206D PUSH2 0x1D16 JUMP JUMPDEST JUMPDEST PUSH0 PUSH2 0x207B DUP7 DUP3 DUP8 ADD PUSH2 0x1D3D JUMP JUMPDEST SWAP4 POP POP PUSH1 0x20 PUSH2 0x208C DUP7 DUP3 DUP8 ADD PUSH2 0x1DEA JUMP JUMPDEST SWAP3 POP POP PUSH1 0x40 PUSH2 0x209D DUP7 DUP3 DUP8 ADD PUSH2 0x1D3D JUMP JUMPDEST SWAP2 POP POP SWAP3 POP SWAP3 POP SWAP3 JUMP JUMPDEST PUSH0 DUP2 ISZERO ISZERO SWAP1 POP SWAP2 SWAP1 POP JUMP JUMPDEST PUSH2 0x20BB DUP2 PUSH2 0x20A7 JUMP JUMPDEST DUP3 MSTORE POP POP JUMP JUMPDEST PUSH0 PUSH1 0x20 DUP3 ADD SWAP1 POP PUSH2 0x20D4 PUSH0 DUP4 ADD DUP5 PUSH2 0x20B2 JUMP JUMPDEST SWAP3 SWAP2 POP POP JUMP JUMPDEST PUSH0 PUSH1 0x20 DUP3 ADD SWAP1 POP PUSH2 0x20ED PUSH0 DUP4 ADD DUP5 PUSH2 0x1E99 JUMP JUMPDEST SWAP3 SWAP2 POP POP JUMP JUMPDEST PUSH0 DUP1 PUSH1 0x40 DUP4 DUP6 SUB SLT ISZERO PUSH2 0x2109 JUMPI PUSH2 0x2108 PUSH2 0x1D16 JUMP JUMPDEST JUMPDEST PUSH0 PUSH2 0x2116 DUP6 DUP3 DUP7 ADD PUSH2 0x1D3D JUMP JUMPDEST SWAP3 POP POP PUSH1 0x20 PUSH2 0x2127 DUP6 DUP3 DUP7 ADD PUSH2 0x1DEA JUMP JUMPDEST SWAP2 POP POP SWAP3 POP SWAP3 SWAP1 POP JUMP JUMPDEST PUSH0 DUP1 PUSH1 0x40 DUP4 DUP6 SUB SLT ISZERO PUSH2 0x2147 JUMPI PUSH2 0x2146 PUSH2 0x1D16 JUMP JUMPDEST JUMPDEST PUSH0 PUSH2 0x2154 DUP6 DUP3 DUP7 ADD PUSH2 0x1D3D JUMP JUMPDEST SWAP3 POP POP PUSH1 0x20 PUSH2 0x2165 DUP6 DUP3 DUP7 ADD PUSH2 0x1D3D JUMP JUMPDEST SWAP2 POP POP SWAP3 POP SWAP3 SWAP1 POP JUMP JUMPDEST PUSH0 DUP2 MLOAD SWAP1 POP SWAP2 SWAP1 POP JUMP JUMPDEST PUSH0 DUP3 DUP3 MSTORE PUSH1 0x20 DUP3 ADD SWAP1 POP SWAP3 SWAP2 POP POP JUMP JUMPDEST PUSH0 DUP2 SWAP1 POP PUSH1 0x20 DUP3 ADD SWAP1 POP SWAP2 SWAP1 POP JUMP JUMPDEST PUSH2 0x21A1 DUP2 PUSH2 0x1DC3 JUMP JUMPDEST DUP3 MSTORE POP POP JUMP JUMPDEST PUSH2 0x21B0 DUP2 PUSH2 0x1D1E JUMP JUMPDEST DUP3 MSTORE POP POP JUMP JUMPDEST PUSH1 0x60 DUP3 ADD PUSH0 DUP3 ADD MLOAD PUSH2 0x21CA PUSH0 DUP6 ADD DUP3 PUSH2 0x2198 JUMP JUMPDEST POP PUSH1 0x20 DUP3 ADD MLOAD PUSH2 0x21DD PUSH1 0x20 DUP6 ADD DUP3 PUSH2 0x2198 JUMP JUMPDEST POP PUSH1 0x40 DUP3 ADD MLOAD PUSH2 0x21F0 PUSH1 0x40 DUP6 ADD DUP3 PUSH2 0x21A7 JUMP JUMPDEST POP POP POP POP JUMP JUMPDEST PUSH0 PUSH2 0x2201 DUP4 DUP4 PUSH2 0x21B6 JUMP JUMPDEST PUSH1 0x60 DUP4 ADD SWAP1 POP SWAP3 SWAP2 POP POP JUMP JUMPDEST PUSH0 PUSH1 0x20 DUP3 ADD SWAP1 POP SWAP2 SWAP1 POP JUMP JUMPDEST PUSH0 PUSH2 0x2223 DUP3 PUSH2 0x216F JUMP JUMPDEST PUSH2 0x222D DUP2 DUP6 PUSH2 0x2179 JUMP JUMPDEST SWAP4 POP PUSH2 0x2238 DUP4 PUSH2 0x2189 JUMP JUMPDEST DUP1 PUSH0 JUMPDEST DUP4 DUP2 LT ISZERO PUSH2 0x2268 JUMPI DUP2 MLOAD PUSH2 0x224F DUP9 DUP3 PUSH2 0x21F6 JUMP JUMPDEST SWAP8 POP PUSH2 0x225A DUP4 PUSH2 0x220D JUMP JUMPDEST SWAP3 POP POP PUSH1 0x1 DUP2 ADD SWAP1 POP PUSH2 0x223B JUMP JUMPDEST POP DUP6 SWAP4 POP POP POP POP SWAP3 SWAP2 POP POP JUMP JUMPDEST PUSH0 DUP2 MLOAD SWAP1 POP SWAP2 SWAP1 POP JUMP JUMPDEST PUSH0 DUP3 DUP3 MSTORE PUSH1 0x20 DUP3 ADD SWAP1 POP SWAP3 SWAP2 POP POP JUMP JUMPDEST PUSH0 DUP2 SWAP1 POP PUSH1 0x20 DUP3 ADD SWAP1 POP SWAP2 SWAP1 POP JUMP JUMPDEST PUSH1 0x40 DUP3 ADD PUSH0 DUP3 ADD MLOAD PUSH2 0x22B2 PUSH0 DUP6 ADD DUP3 PUSH2 0x2198 JUMP JUMPDEST POP PUSH1 0x20 DUP3 ADD MLOAD PUSH2 0x22C5 PUSH1 0x20 DUP6 ADD DUP3 PUSH2 0x21A7 JUMP JUMPDEST POP POP POP POP JUMP JUMPDEST PUSH0 PUSH2 0x22D6 DUP4 DUP4 PUSH2 0x229E JUMP JUMPDEST PUSH1 0x40 DUP4 ADD SWAP1 POP SWAP3 SWAP2 POP POP JUMP JUMPDEST PUSH0 PUSH1 0x20 DUP3 ADD SWAP1 POP SWAP2 SWAP1 POP JUMP JUMPDEST PUSH0 PUSH2 0x22F8 DUP3 PUSH2 0x2275 JUMP JUMPDEST PUSH2 0x2302 DUP2 DUP6 PUSH2 0x227F JUMP JUMPDEST SWAP4 POP PUSH2 0x230D DUP4 PUSH2 0x228F JUMP JUMPDEST DUP1 PUSH0 JUMPDEST DUP4 DUP2 LT ISZERO PUSH2 0x233D JUMPI DUP2 MLOAD PUSH2 0x2324 DUP9 DUP3 PUSH2 0x22CB JUMP JUMPDEST SWAP8 POP PUSH2 0x232F DUP4 PUSH2 0x22E2 JUMP JUMPDEST SWAP3 POP POP PUSH1 0x1 DUP2 ADD SWAP1 POP PUSH2 0x2310 JUMP JUMPDEST POP DUP6 SWAP4 POP POP POP POP SWAP3 SWAP2 POP POP JUMP JUMPDEST PUSH0 PUSH1 0x40 DUP3 ADD SWAP1 POP DUP2 DUP2 SUB PUSH0 DUP4 ADD MSTORE PUSH2 0x2362 DUP2 DUP6 PUSH2 0x2219 JUMP JUMPDEST SWAP1 POP DUP2 DUP2 SUB PUSH1 0x20 DUP4 ADD MSTORE PUSH2 0x2376 DUP2 DUP5 PUSH2 0x22EE JUMP JUMPDEST SWAP1 POP SWAP4 SWAP3 POP POP POP JUMP JUMPDEST PUSH32 0x63616E7420646F206974206E6F77000000000000000000000000000000000000 PUSH0 DUP3 ADD MSTORE POP JUMP JUMPDEST PUSH0 PUSH2 0x23B3 PUSH1 0xE DUP4 PUSH2 0x1E33 JUMP JUMPDEST SWAP2 POP PUSH2 0x23BE DUP3 PUSH2 0x237F JUMP JUMPDEST PUSH1 0x20 DUP3 ADD SWAP1 POP SWAP2 SWAP1 POP JUMP JUMPDEST PUSH0 PUSH1 0x20 DUP3 ADD SWAP1 POP DUP2 DUP2 SUB PUSH0 DUP4 ADD MSTORE PUSH2 0x23E0 DUP2 PUSH2 0x23A7 JUMP JUMPDEST SWAP1 POP SWAP2 SWAP1 POP JUMP JUMPDEST PUSH32 0x616F7574206F66206F72646572206E6F00000000000000000000000000000000 PUSH0 DUP3 ADD MSTORE POP JUMP JUMPDEST PUSH0 PUSH2 0x241B PUSH1 0x10 DUP4 PUSH2 0x1E33 JUMP JUMPDEST SWAP2 POP PUSH2 0x2426 DUP3 PUSH2 0x23E7 JUMP JUMPDEST PUSH1 0x20 DUP3 ADD SWAP1 POP SWAP2 SWAP1 POP JUMP JUMPDEST PUSH0 PUSH1 0x20 DUP3 ADD SWAP1 POP DUP2 DUP2 SUB PUSH0 DUP4 ADD MSTORE PUSH2 0x2448 DUP2 PUSH2 0x240F JUMP JUMPDEST SWAP1 POP SWAP2 SWAP1 POP JUMP JUMPDEST PUSH0 DUP2 MLOAD SWAP1 POP PUSH2 0x245D DUP2 PUSH2 0x1D27 JUMP JUMPDEST SWAP3 SWAP2 POP POP JUMP JUMPDEST PUSH0 PUSH1 0x20 DUP3 DUP5 SUB SLT ISZERO PUSH2 0x2478 JUMPI PUSH2 0x2477 PUSH2 0x1D16 JUMP JUMPDEST JUMPDEST PUSH0 PUSH2 0x2485 DUP5 DUP3 DUP6 ADD PUSH2 0x244F JUMP JUMPDEST SWAP2 POP POP SWAP3 SWAP2 POP POP JUMP JUMPDEST PUSH32 0x646F6E74206F776E20746865206E667400000000000000000000000000000000 PUSH0 DUP3 ADD MSTORE POP JUMP JUMPDEST PUSH0 PUSH2 0x24C2 PUSH1 0x10 DUP4 PUSH2 0x1E33 JUMP JUMPDEST SWAP2 POP PUSH2 0x24CD DUP3 PUSH2 0x248E JUMP JUMPDEST PUSH1 0x20 DUP3 ADD SWAP1 POP SWAP2 SWAP1 POP JUMP JUMPDEST PUSH0 PUSH1 0x20 DUP3 ADD SWAP1 POP DUP2 DUP2 SUB PUSH0 DUP4 ADD MSTORE PUSH2 0x24EF DUP2 PUSH2 0x24B6 JUMP JUMPDEST SWAP1 POP SWAP2 SWAP1 POP JUMP JUMPDEST PUSH32 0x63616E2063617374206D6F726520766F74650000000000000000000000000000 PUSH0 DUP3 ADD MSTORE POP JUMP JUMPDEST PUSH0 PUSH2 0x252A PUSH1 0x12 DUP4 PUSH2 0x1E33 JUMP JUMPDEST SWAP2 POP PUSH2 0x2535 DUP3 PUSH2 0x24F6 JUMP JUMPDEST PUSH1 0x20 DUP3 ADD SWAP1 POP SWAP2 SWAP1 POP JUMP JUMPDEST PUSH0 PUSH1 0x20 DUP3 ADD SWAP1 POP DUP2 DUP2 SUB PUSH0 DUP4 ADD MSTORE PUSH2 0x2557 DUP2 PUSH2 0x251E JUMP JUMPDEST SWAP1 POP SWAP2 SWAP1 POP JUMP JUMPDEST PUSH0 DUP2 MLOAD SWAP1 POP PUSH2 0x256C DUP2 PUSH2 0x1DD4 JUMP JUMPDEST SWAP3 SWAP2 POP POP JUMP JUMPDEST PUSH0 PUSH1 0x20 DUP3 DUP5 SUB SLT ISZERO PUSH2 0x2587 JUMPI PUSH2 0x2586 PUSH2 0x1D16 JUMP JUMPDEST JUMPDEST PUSH0 PUSH2 0x2594 DUP5 DUP3 DUP6 ADD PUSH2 0x255E JUMP JUMPDEST SWAP2 POP POP SWAP3 SWAP2 POP POP JUMP JUMPDEST PUSH32 0x4E487B7100000000000000000000000000000000000000000000000000000000 PUSH0 MSTORE PUSH1 0x11 PUSH1 0x4 MSTORE PUSH1 0x24 PUSH0 REVERT JUMPDEST PUSH0 PUSH2 0x25D4 DUP3 PUSH2 0x1D1E JUMP JUMPDEST SWAP2 POP PUSH32 0xFFFFFFFFFFFFFFFFFFFFFFFFFFFFFFFFFFFFFFFFFFFFFFFFFFFFFFFFFFFFFFFF DUP3 SUB PUSH2 0x2606 JUMPI PUSH2 0x2605 PUSH2 0x259D JUMP JUMPDEST JUMPDEST PUSH1 0x1 DUP3 ADD SWAP1 POP SWAP2 SWAP1 POP JUMP JUMPDEST PUSH32 0x4E487B7100000000000000000000000000000000000000000000000000000000 PUSH0 MSTORE PUSH1 0x22 PUSH1 0x4 MSTORE PUSH1 0x24 PUSH0 REVERT JUMPDEST PUSH0 PUSH1 0x2 DUP3 DIV SWAP1 POP PUSH1 0x1 DUP3 AND DUP1 PUSH2 0x2655 JUMPI PUSH1 0x7F DUP3 AND SWAP2 POP JUMPDEST PUSH1 0x20 DUP3 LT DUP2 SUB PUSH2 0x2668 JUMPI PUSH2 0x2667 PUSH2 0x2611 JUMP JUMPDEST JUMPDEST POP SWAP2 SWAP1 POP JUMP JUMPDEST PUSH0 DUP2 SWAP1 POP DUP2 PUSH0 MSTORE PUSH1 0x20 PUSH0 KECCAK256 SWAP1 POP SWAP2 SWAP1 POP JUMP JUMPDEST PUSH0 PUSH1 0x20 PUSH1 0x1F DUP4 ADD DIV SWAP1 POP SWAP2 SWAP1 POP JUMP JUMPDEST PUSH0 DUP3 DUP3 SHL SWAP1 POP SWAP3 SWAP2 POP POP JUMP JUMPDEST PUSH0 PUSH1 0x8 DUP4 MUL PUSH2 0x26CA PUSH32 0xFFFFFFFFFFFFFFFFFFFFFFFFFFFFFFFFFFFFFFFFFFFFFFFFFFFFFFFFFFFFFFFF DUP3 PUSH2 0x268F JUMP JUMPDEST PUSH2 0x26D4 DUP7 DUP4 PUSH2 0x268F JUMP JUMPDEST SWAP6 POP DUP1 NOT DUP5 AND SWAP4 POP DUP1 DUP7 AND DUP5 OR SWAP3 POP POP POP SWAP4 SWAP3 POP POP POP JUMP JUMPDEST PUSH0 DUP2 SWAP1 POP SWAP2 SWAP1 POP JUMP JUMPDEST PUSH0 PUSH2 0x270F PUSH2 0x270A PUSH2 0x2705 DUP5 PUSH2 0x1D1E JUMP JUMPDEST PUSH2 0x26EC JUMP JUMPDEST PUSH2 0x1D1E JUMP JUMPDEST SWAP1 POP SWAP2 SWAP1 POP JUMP JUMPDEST PUSH0 DUP2 SWAP1 POP SWAP2 SWAP1 POP JUMP JUMPDEST PUSH2 0x2728 DUP4 PUSH2 0x26F5 JUMP JUMPDEST PUSH2 0x273C PUSH2 0x2734 DUP3 PUSH2 0x2716 JUMP JUMPDEST DUP5 DUP5 SLOAD PUSH2 0x269B JUMP JUMPDEST DUP3 SSTORE POP POP POP POP JUMP JUMPDEST PUSH0 SWAP1 JUMP JUMPDEST PUSH2 0x2750 PUSH2 0x2744 JUMP JUMPDEST PUSH2 0x275B DUP2 DUP5 DUP5 PUSH2 0x271F JUMP JUMPDEST POP POP POP JUMP JUMPDEST JUMPDEST DUP2 DUP2 LT ISZERO PUSH2 0x277E JUMPI PUSH2 0x2773 PUSH0 DUP3 PUSH2 0x2748 JUMP JUMPDEST PUSH1 0x1 DUP2 ADD SWAP1 POP PUSH2 0x2761 JUMP JUMPDEST POP POP JUMP JUMPDEST PUSH1 0x1F DUP3 GT ISZERO PUSH2 0x27C3 JUMPI PUSH2 0x2794 DUP2 PUSH2 0x266E JUMP JUMPDEST PUSH2 0x279D DUP5 PUSH2 0x2680 JUMP JUMPDEST DUP2 ADD PUSH1 0x20 DUP6 LT ISZERO PUSH2 0x27AC JUMPI DUP2 SWAP1 POP JUMPDEST PUSH2 0x27C0 PUSH2 0x27B8 DUP6 PUSH2 0x2680 JUMP JUMPDEST DUP4 ADD DUP3 PUSH2 0x2760 JUMP JUMPDEST POP POP JUMPDEST POP POP POP JUMP JUMPDEST PUSH0 DUP3 DUP3 SHR SWAP1 POP SWAP3 SWAP2 POP POP JUMP JUMPDEST PUSH0 PUSH2 0x27E3 PUSH0 NOT DUP5 PUSH1 0x8 MUL PUSH2 0x27C8 JUMP JUMPDEST NOT DUP1 DUP4 AND SWAP2 POP POP SWAP3 SWAP2 POP POP JUMP JUMPDEST PUSH0 PUSH2 0x27FB DUP4 DUP4 PUSH2 0x27D4 JUMP JUMPDEST SWAP2 POP DUP3 PUSH1 0x2 MUL DUP3 OR SWAP1 POP SWAP3 SWAP2 POP POP JUMP JUMPDEST PUSH2 0x2814 DUP3 PUSH2 0x1E29 JUMP JUMPDEST PUSH8 0xFFFFFFFFFFFFFFFF DUP2 GT ISZERO PUSH2 0x282D JUMPI PUSH2 0x282C PUSH2 0x1EEC JUMP JUMPDEST JUMPDEST PUSH2 0x2837 DUP3 SLOAD PUSH2 0x263E JUMP JUMPDEST PUSH2 0x2842 DUP3 DUP3 DUP6 PUSH2 0x2782 JUMP JUMPDEST PUSH0 PUSH1 0x20 SWAP1 POP PUSH1 0x1F DUP4 GT PUSH1 0x1 DUP2 EQ PUSH2 0x2873 JUMPI PUSH0 DUP5 ISZERO PUSH2 0x2861 JUMPI DUP3 DUP8 ADD MLOAD SWAP1 POP JUMPDEST PUSH2 0x286B DUP6 DUP3 PUSH2 0x27F0 JUMP JUMPDEST DUP7 SSTORE POP PUSH2 0x28D2 JUMP JUMPDEST PUSH1 0x1F NOT DUP5 AND PUSH2 0x2881 DUP7 PUSH2 0x266E JUMP JUMPDEST PUSH0 JUMPDEST DUP3 DUP2 LT ISZERO PUSH2 0x28A8 JUMPI DUP5 DUP10 ADD MLOAD DUP3 SSTORE PUSH1 0x1 DUP3 ADD SWAP2 POP PUSH1 0x20 DUP6 ADD SWAP5 POP PUSH1 0x20 DUP2 ADD SWAP1 POP PUSH2 0x2883 JUMP JUMPDEST DUP7 DUP4 LT ISZERO PUSH2 0x28C5 JUMPI DUP5 DUP10 ADD MLOAD PUSH2 0x28C1 PUSH1 0x1F DUP10 AND DUP3 PUSH2 0x27D4 JUMP JUMPDEST DUP4 SSTORE POP JUMPDEST PUSH1 0x1 PUSH1 0x2 DUP9 MUL ADD DUP9 SSTORE POP POP POP JUMPDEST POP POP POP POP POP POP JUMP JUMPDEST PUSH32 0x416D6F756E74206D7573742062652067726561746572207468616E2030000000 PUSH0 DUP3 ADD MSTORE POP JUMP JUMPDEST PUSH0 PUSH2 0x290E PUSH1 0x1D DUP4 PUSH2 0x1E33 JUMP JUMPDEST SWAP2 POP PUSH2 0x2919 DUP3 PUSH2 0x28DA JUMP JUMPDEST PUSH1 0x20 DUP3 ADD SWAP1 POP SWAP2 SWAP1 POP JUMP JUMPDEST PUSH0 PUSH1 0x20 DUP3 ADD SWAP1 POP DUP2 DUP2 SUB PUSH0 DUP4 ADD MSTORE PUSH2 0x293B DUP2 PUSH2 0x2902 JUMP JUMPDEST SWAP1 POP SWAP2 SWAP1 POP JUMP JUMPDEST PUSH32 0x496E73756666696369656E7420746F6B656E2062616C616E6365000000000000 PUSH0 DUP3 ADD MSTORE POP JUMP JUMPDEST PUSH0 PUSH2 0x2976 PUSH1 0x1A DUP4 PUSH2 0x1E33 JUMP JUMPDEST SWAP2 POP PUSH2 0x2981 DUP3 PUSH2 0x2942 JUMP JUMPDEST PUSH1 0x20 DUP3 ADD SWAP1 POP SWAP2 SWAP1 POP JUMP JUMPDEST PUSH0 PUSH1 0x20 DUP3 ADD SWAP1 POP DUP2 DUP2 SUB PUSH0 DUP4 ADD MSTORE PUSH2 0x29A3 DUP2 PUSH2 0x296A JUMP JUMPDEST SWAP1 POP SWAP2 SWAP1 POP JUMP JUMPDEST PUSH0 PUSH1 0x60 DUP3 ADD SWAP1 POP PUSH2 0x29BD PUSH0 DUP4 ADD DUP7 PUSH2 0x1E99 JUMP JUMPDEST PUSH2 0x29CA PUSH1 0x20 DUP4 ADD DUP6 PUSH2 0x1E99 JUMP JUMPDEST PUSH2 0x29D7 PUSH1 0x40 DUP4 ADD DUP5 PUSH2 0x1D7C JUMP JUMPDEST SWAP5 SWAP4 POP POP POP POP JUMP JUMPDEST PUSH2 0x29E8 DUP2 PUSH2 0x20A7 JUMP JUMPDEST DUP2 EQ PUSH2 0x29F2 JUMPI PUSH0 DUP1 REVERT JUMPDEST POP JUMP JUMPDEST PUSH0 DUP2 MLOAD SWAP1 POP PUSH2 0x2A03 DUP2 PUSH2 0x29DF JUMP JUMPDEST SWAP3 SWAP2 POP POP JUMP JUMPDEST PUSH0 PUSH1 0x20 DUP3 DUP5 SUB SLT ISZERO PUSH2 0x2A1E JUMPI PUSH2 0x2A1D PUSH2 0x1D16 JUMP JUMPDEST JUMPDEST PUSH0 PUSH2 0x2A2B DUP5 DUP3 DUP6 ADD PUSH2 0x29F5 JUMP JUMPDEST SWAP2 POP POP SWAP3 SWAP2 POP POP JUMP JUMPDEST PUSH32 0x7472616E73616374696F6E206661696C65640000000000000000000000000000 PUSH0 DUP3 ADD MSTORE POP JUMP JUMPDEST PUSH0 PUSH2 0x2A68 PUSH1 0x12 DUP4 PUSH2 0x1E33 JUMP JUMPDEST SWAP2 POP PUSH2 0x2A73 DUP3 PUSH2 0x2A34 JUMP JUMPDEST PUSH1 0x20 DUP3 ADD SWAP1 POP SWAP2 SWAP1 POP JUMP JUMPDEST PUSH0 PUSH1 0x20 DUP3 ADD SWAP1 POP DUP2 DUP2 SUB PUSH0 DUP4 ADD MSTORE PUSH2 0x2A95 DUP2 PUSH2 0x2A5C JUMP JUMPDEST SWAP1 POP SWAP2 SWAP1 POP JUMP JUMPDEST PUSH32 0x63616E7420636C61696D2077696E6E65722070726F6A65637400000000000000 PUSH0 DUP3 ADD MSTORE POP JUMP JUMPDEST PUSH0 PUSH2 0x2AD0 PUSH1 0x19 DUP4 PUSH2 0x1E33 JUMP JUMPDEST SWAP2 POP PUSH2 0x2ADB DUP3 PUSH2 0x2A9C JUMP JUMPDEST PUSH1 0x20 DUP3 ADD SWAP1 POP SWAP2 SWAP1 POP JUMP JUMPDEST PUSH0 PUSH1 0x20 DUP3 ADD SWAP1 POP DUP2 DUP2 SUB PUSH0 DUP4 ADD MSTORE PUSH2 0x2AFD DUP2 PUSH2 0x2AC4 JUMP JUMPDEST SWAP1 POP SWAP2 SWAP1 POP JUMP JUMPDEST PUSH32 0x4E487B7100000000000000000000000000000000000000000000000000000000 PUSH0 MSTORE PUSH1 0x32 PUSH1 0x4 MSTORE PUSH1 0x24 PUSH0 REVERT JUMPDEST PUSH0 PUSH1 0x40 DUP3 ADD SWAP1 POP PUSH2 0x2B44 PUSH0 DUP4 ADD DUP6 PUSH2 0x1E99 JUMP JUMPDEST PUSH2 0x2B51 PUSH1 0x20 DUP4 ADD DUP5 PUSH2 0x1D7C JUMP JUMPDEST SWAP4 SWAP3 POP POP POP JUMP JUMPDEST PUSH0 PUSH2 0x2B62 DUP3 PUSH2 0x1D1E JUMP JUMPDEST SWAP2 POP PUSH2 0x2B6D DUP4 PUSH2 0x1D1E JUMP JUMPDEST SWAP3 POP DUP3 DUP3 ADD SWAP1 POP DUP1 DUP3 GT ISZERO PUSH2 0x2B85 JUMPI PUSH2 0x2B84 PUSH2 0x259D JUMP JUMPDEST JUMPDEST SWAP3 SWAP2 POP POP JUMP JUMPDEST PUSH32 0x4E487B7100000000000000000000000000000000000000000000000000000000 PUSH0 MSTORE PUSH1 0x21 PUSH1 0x4 MSTORE PUSH1 0x24 PUSH0 REVERT INVALID LOG2 PUSH5 0x6970667358 0x22 SLT KECCAK256 0xBA PREVRANDAO 0xD5 EXP 0xC3 0xDB 0xAC GT 0xBE MSIZE CALLCODE DUP4 CODECOPY 0xEC 0xD9 SWAP14 LOG1 0x4B MUL PUSH23 0x6CD627EC971BA9CFBBB5E45864736F6C634300081A0033 "
				},
				"gasEstimates": {
					"creation": {
						"codeDepositCost": "2249200",
						"executionCost": "infinite",
						"totalCost": "infinite"
					},
					"external": {
						"briberInfo(uint256)": "infinite",
						"briberTokenInfo(uint256,address)": "infinite",
						"changeState(uint256)": "infinite",
						"changelastTokenId(uint256)": "infinite",
						"claim(uint256)": "infinite",
						"getStatus()": "6815",
						"getWinnerProjectId()": "infinite",
						"incentiviseProject(uint256,address,uint256)": "infinite",
						"incentiviseProject(uint256,uint256)": "infinite",
						"incentivizingPeriod()": "2492",
						"initializeProject(string)": "infinite",
						"lastTokenId()": "2535",
						"nativebriberInfo(uint256)": "infinite",
						"nftContractAddress()": "2619",
						"owner()": "2560",
						"projectCount()": "2493",
						"projects(uint256)": "infinite",
						"renounceOwnership()": "infinite",
						"setNftAddress(address)": "infinite",
						"tokenVoted(uint256)": "2830",
						"totalVotes()": "2515",
						"transferOwnership(address)": "infinite",
						"vote(uint256)": "infinite",
						"voters(address)": "2891",
						"votingPeriod()": "2471",
						"withdrawWinnerProject(address)": "infinite"
					}
				},
				"methodIdentifiers": {
					"briberInfo(uint256)": "bfb906a7",
					"briberTokenInfo(uint256,address)": "99b1760a",
					"changeState(uint256)": "b00741cb",
					"changelastTokenId(uint256)": "cb06545c",
					"claim(uint256)": "379607f5",
					"getStatus()": "4e69d560",
					"getWinnerProjectId()": "f4b1f501",
					"incentiviseProject(uint256,address,uint256)": "33b2decc",
					"incentiviseProject(uint256,uint256)": "bae60c88",
					"incentivizingPeriod()": "3885aed3",
					"initializeProject(string)": "239ecf35",
					"lastTokenId()": "f84ddf0b",
					"nativebriberInfo(uint256)": "6a460d41",
					"nftContractAddress()": "aae282e1",
					"owner()": "8da5cb5b",
					"projectCount()": "36fbad26",
					"projects(uint256)": "107046bd",
					"renounceOwnership()": "715018a6",
					"setNftAddress(address)": "0b102d1a",
					"tokenVoted(uint256)": "38200702",
					"totalVotes()": "0d15fd77",
					"transferOwnership(address)": "f2fde38b",
					"vote(uint256)": "0121b93f",
					"voters(address)": "a3ec138d",
					"votingPeriod()": "02a251a3",
					"withdrawWinnerProject(address)": "d19ee357"
				}
			},
			"storageLayout": {
				"storage": [
					{
						"astId": 8,
						"contract": "DiscoCats.sol:DiscoCats",
						"label": "_owner",
						"offset": 0,
						"slot": "0",
						"type": "t_address"
					},
					{
						"astId": 394,
						"contract": "DiscoCats.sol:DiscoCats",
						"label": "incentivizingPeriod",
						"offset": 0,
						"slot": "1",
						"type": "t_uint256"
					},
					{
						"astId": 396,
						"contract": "DiscoCats.sol:DiscoCats",
						"label": "votingPeriod",
						"offset": 0,
						"slot": "2",
						"type": "t_uint256"
					},
					{
						"astId": 399,
						"contract": "DiscoCats.sol:DiscoCats",
						"label": "projectCount",
						"offset": 0,
						"slot": "3",
						"type": "t_uint256"
					},
					{
						"astId": 401,
						"contract": "DiscoCats.sol:DiscoCats",
						"label": "nftContractAddress",
						"offset": 0,
						"slot": "4",
						"type": "t_address"
					},
					{
						"astId": 437,
						"contract": "DiscoCats.sol:DiscoCats",
						"label": "status",
						"offset": 20,
						"slot": "4",
						"type": "t_enum(govtStatus)432"
					},
					{
						"astId": 441,
						"contract": "DiscoCats.sol:DiscoCats",
						"label": "voters",
						"offset": 0,
						"slot": "5",
						"type": "t_mapping(t_address,t_uint256)"
					},
					{
						"astId": 444,
						"contract": "DiscoCats.sol:DiscoCats",
						"label": "totalVotes",
						"offset": 0,
						"slot": "6",
						"type": "t_uint256"
					},
					{
						"astId": 447,
						"contract": "DiscoCats.sol:DiscoCats",
						"label": "lastTokenId",
						"offset": 0,
						"slot": "7",
						"type": "t_uint256"
					},
					{
						"astId": 451,
						"contract": "DiscoCats.sol:DiscoCats",
						"label": "tokenVoted",
						"offset": 0,
						"slot": "8",
						"type": "t_mapping(t_uint256,t_bool)"
					},
					{
						"astId": 456,
						"contract": "DiscoCats.sol:DiscoCats",
						"label": "projects",
						"offset": 0,
						"slot": "9",
						"type": "t_mapping(t_uint256,t_struct(Project)428_storage)"
					}
				],
				"types": {
					"t_address": {
						"encoding": "inplace",
						"label": "address",
						"numberOfBytes": "20"
					},
					"t_array(t_struct(Briber)408_storage)dyn_storage": {
						"base": "t_struct(Briber)408_storage",
						"encoding": "dynamic_array",
						"label": "struct DiscoCats.Briber[]",
						"numberOfBytes": "32"
					},
					"t_array(t_struct(NativeBriber)413_storage)dyn_storage": {
						"base": "t_struct(NativeBriber)413_storage",
						"encoding": "dynamic_array",
						"label": "struct DiscoCats.NativeBriber[]",
						"numberOfBytes": "32"
					},
					"t_bool": {
						"encoding": "inplace",
						"label": "bool",
						"numberOfBytes": "1"
					},
					"t_enum(govtStatus)432": {
						"encoding": "inplace",
						"label": "enum DiscoCats.govtStatus",
						"numberOfBytes": "1"
					},
					"t_mapping(t_address,t_uint256)": {
						"encoding": "mapping",
						"key": "t_address",
						"label": "mapping(address => uint256)",
						"numberOfBytes": "32",
						"value": "t_uint256"
					},
					"t_mapping(t_uint256,t_bool)": {
						"encoding": "mapping",
						"key": "t_uint256",
						"label": "mapping(uint256 => bool)",
						"numberOfBytes": "32",
						"value": "t_bool"
					},
					"t_mapping(t_uint256,t_struct(Project)428_storage)": {
						"encoding": "mapping",
						"key": "t_uint256",
						"label": "mapping(uint256 => struct DiscoCats.Project)",
						"numberOfBytes": "32",
						"value": "t_struct(Project)428_storage"
					},
					"t_string_storage": {
						"encoding": "bytes",
						"label": "string",
						"numberOfBytes": "32"
					},
					"t_struct(Briber)408_storage": {
						"encoding": "inplace",
						"label": "struct DiscoCats.Briber",
						"members": [
							{
								"astId": 403,
								"contract": "DiscoCats.sol:DiscoCats",
								"label": "briberAddress",
								"offset": 0,
								"slot": "0",
								"type": "t_address"
							},
							{
								"astId": 405,
								"contract": "DiscoCats.sol:DiscoCats",
								"label": "tokenAddress",
								"offset": 0,
								"slot": "1",
								"type": "t_address"
							},
							{
								"astId": 407,
								"contract": "DiscoCats.sol:DiscoCats",
								"label": "tokenAmnt",
								"offset": 0,
								"slot": "2",
								"type": "t_uint256"
							}
						],
						"numberOfBytes": "96"
					},
					"t_struct(NativeBriber)413_storage": {
						"encoding": "inplace",
						"label": "struct DiscoCats.NativeBriber",
						"members": [
							{
								"astId": 410,
								"contract": "DiscoCats.sol:DiscoCats",
								"label": "briberAddress",
								"offset": 0,
								"slot": "0",
								"type": "t_address"
							},
							{
								"astId": 412,
								"contract": "DiscoCats.sol:DiscoCats",
								"label": "tokenAmnt",
								"offset": 0,
								"slot": "1",
								"type": "t_uint256"
							}
						],
						"numberOfBytes": "64"
					},
					"t_struct(Project)428_storage": {
						"encoding": "inplace",
						"label": "struct DiscoCats.Project",
						"members": [
							{
								"astId": 415,
								"contract": "DiscoCats.sol:DiscoCats",
								"label": "name",
								"offset": 0,
								"slot": "0",
								"type": "t_string_storage"
							},
							{
								"astId": 417,
								"contract": "DiscoCats.sol:DiscoCats",
								"label": "projectOwner",
								"offset": 0,
								"slot": "1",
								"type": "t_address"
							},
							{
								"astId": 421,
								"contract": "DiscoCats.sol:DiscoCats",
								"label": "bribers",
								"offset": 0,
								"slot": "2",
								"type": "t_array(t_struct(Briber)408_storage)dyn_storage"
							},
							{
								"astId": 425,
								"contract": "DiscoCats.sol:DiscoCats",
								"label": "nativeBribers",
								"offset": 0,
								"slot": "3",
								"type": "t_array(t_struct(NativeBriber)413_storage)dyn_storage"
							},
							{
								"astId": 427,
								"contract": "DiscoCats.sol:DiscoCats",
								"label": "votes",
								"offset": 0,
								"slot": "4",
								"type": "t_uint256"
							}
						],
						"numberOfBytes": "160"
					},
					"t_uint256": {
						"encoding": "inplace",
						"label": "uint256",
						"numberOfBytes": "32"
					}
				}
			},
			"userdoc": {
				"kind": "user",
				"methods": {},
				"version": 1
			}
		}
	}
}