{
	"DiscoCats.sol": {
		"DiscoCats": {
			"abi": [
				{
					"inputs": [
						{
							"internalType": "address",
							"name": "initialOwner",
							"type": "address"
						},
						{
							"internalType": "uint256",
							"name": "_incentivizingPeriod",
							"type": "uint256"
						},
						{
							"internalType": "uint256",
							"name": "_votingPeriod",
							"type": "uint256"
						}
					],
					"stateMutability": "nonpayable",
					"type": "constructor"
				},
				{
					"inputs": [
						{
							"internalType": "address",
							"name": "owner",
							"type": "address"
						}
					],
					"name": "OwnableInvalidOwner",
					"type": "error"
				},
				{
					"inputs": [
						{
							"internalType": "address",
							"name": "account",
							"type": "address"
						}
					],
					"name": "OwnableUnauthorizedAccount",
					"type": "error"
				},
				{
					"anonymous": false,
					"inputs": [
						{
							"indexed": true,
							"internalType": "address",
							"name": "previousOwner",
							"type": "address"
						},
						{
							"indexed": true,
							"internalType": "address",
							"name": "newOwner",
							"type": "address"
						}
					],
					"name": "OwnershipTransferred",
					"type": "event"
				},
				{
					"inputs": [
						{
							"internalType": "uint256",
							"name": "_projectId",
							"type": "uint256"
						}
					],
					"name": "briberInfo",
					"outputs": [
						{
							"components": [
								{
									"internalType": "address",
									"name": "briberAddress",
									"type": "address"
								},
								{
									"internalType": "address",
									"name": "tokenAddress",
									"type": "address"
								},
								{
									"internalType": "uint256",
									"name": "tokenAmnt",
									"type": "uint256"
								}
							],
							"internalType": "struct DiscoCats.Briber[]",
							"name": "_bribers",
							"type": "tuple[]"
						}
					],
					"stateMutability": "view",
					"type": "function"
				},
				{
					"inputs": [
						{
							"internalType": "uint256",
							"name": "_stateNumber",
							"type": "uint256"
						}
					],
					"name": "changeState",
					"outputs": [],
					"stateMutability": "nonpayable",
					"type": "function"
				},
				{
					"inputs": [
						{
							"internalType": "uint256",
							"name": "_id",
							"type": "uint256"
						}
					],
					"name": "changelastTokenId",
					"outputs": [],
					"stateMutability": "nonpayable",
					"type": "function"
				},
				{
					"inputs": [
						{
							"internalType": "uint256",
							"name": "_projectId",
							"type": "uint256"
						}
					],
					"name": "claim",
					"outputs": [],
					"stateMutability": "nonpayable",
					"type": "function"
				},
				{
					"inputs": [],
					"name": "getStatus",
					"outputs": [
						{
							"internalType": "uint256",
							"name": "_status",
							"type": "uint256"
						}
					],
					"stateMutability": "view",
					"type": "function"
				},
				{
					"inputs": [],
					"name": "getWinnerProjectId",
					"outputs": [
						{
							"internalType": "uint256",
							"name": "_id",
							"type": "uint256"
						}
					],
					"stateMutability": "view",
					"type": "function"
				},
				{
					"inputs": [
						{
							"internalType": "uint256",
							"name": "id",
							"type": "uint256"
						},
						{
							"internalType": "address",
							"name": "_tokenAddress",
							"type": "address"
						},
						{
							"internalType": "uint256",
							"name": "_tokenAmount",
							"type": "uint256"
						}
					],
					"name": "incentiviseProject",
					"outputs": [],
					"stateMutability": "nonpayable",
					"type": "function"
				},
				{
					"inputs": [],
					"name": "incentivizingPeriod",
					"outputs": [
						{
							"internalType": "uint256",
							"name": "",
							"type": "uint256"
						}
					],
					"stateMutability": "view",
					"type": "function"
				},
				{
					"inputs": [
						{
							"internalType": "string",
							"name": "_name",
							"type": "string"
						}
					],
					"name": "initializeProject",
					"outputs": [],
					"stateMutability": "nonpayable",
					"type": "function"
				},
				{
					"inputs": [],
					"name": "lastTokenId",
					"outputs": [
						{
							"internalType": "uint256",
							"name": "",
							"type": "uint256"
						}
					],
					"stateMutability": "view",
					"type": "function"
				},
				{
					"inputs": [],
					"name": "nftContractAddress",
					"outputs": [
						{
							"internalType": "address",
							"name": "",
							"type": "address"
						}
					],
					"stateMutability": "view",
					"type": "function"
				},
				{
					"inputs": [],
					"name": "owner",
					"outputs": [
						{
							"internalType": "address",
							"name": "",
							"type": "address"
						}
					],
					"stateMutability": "view",
					"type": "function"
				},
				{
					"inputs": [],
					"name": "projectCount",
					"outputs": [
						{
							"internalType": "uint256",
							"name": "",
							"type": "uint256"
						}
					],
					"stateMutability": "view",
					"type": "function"
				},
				{
					"inputs": [
						{
							"internalType": "uint256",
							"name": "",
							"type": "uint256"
						}
					],
					"name": "projects",
					"outputs": [
						{
							"internalType": "string",
							"name": "name",
							"type": "string"
						},
						{
							"internalType": "address",
							"name": "projectOwner",
							"type": "address"
						},
						{
							"internalType": "uint256",
							"name": "votes",
							"type": "uint256"
						}
					],
					"stateMutability": "view",
					"type": "function"
				},
				{
					"inputs": [],
					"name": "renounceOwnership",
					"outputs": [],
					"stateMutability": "nonpayable",
					"type": "function"
				},
				{
					"inputs": [
						{
							"internalType": "address",
							"name": "_nftAddress",
							"type": "address"
						}
					],
					"name": "setNftAddress",
					"outputs": [],
					"stateMutability": "nonpayable",
					"type": "function"
				},
				{
					"inputs": [
						{
							"internalType": "uint256",
							"name": "",
							"type": "uint256"
						}
					],
					"name": "tokenVoted",
					"outputs": [
						{
							"internalType": "bool",
							"name": "",
							"type": "bool"
						}
					],
					"stateMutability": "view",
					"type": "function"
				},
				{
					"inputs": [],
					"name": "totalVotes",
					"outputs": [
						{
							"internalType": "uint256",
							"name": "",
							"type": "uint256"
						}
					],
					"stateMutability": "view",
					"type": "function"
				},
				{
					"inputs": [
						{
							"internalType": "address",
							"name": "newOwner",
							"type": "address"
						}
					],
					"name": "transferOwnership",
					"outputs": [],
					"stateMutability": "nonpayable",
					"type": "function"
				},
				{
					"inputs": [
						{
							"internalType": "uint256",
							"name": "_projectId",
							"type": "uint256"
						}
					],
					"name": "vote",
					"outputs": [],
					"stateMutability": "nonpayable",
					"type": "function"
				},
				{
					"inputs": [
						{
							"internalType": "address",
							"name": "",
							"type": "address"
						}
					],
					"name": "voters",
					"outputs": [
						{
							"internalType": "uint256",
							"name": "",
							"type": "uint256"
						}
					],
					"stateMutability": "view",
					"type": "function"
				},
				{
					"inputs": [],
					"name": "votingPeriod",
					"outputs": [
						{
							"internalType": "uint256",
							"name": "",
							"type": "uint256"
						}
					],
					"stateMutability": "view",
					"type": "function"
				},
				{
					"inputs": [
						{
							"internalType": "address",
							"name": "_receiver",
							"type": "address"
						}
					],
					"name": "withdrawWinnerProject",
					"outputs": [],
					"stateMutability": "nonpayable",
					"type": "function"
				}
			],
			"devdoc": {
				"errors": {
					"OwnableInvalidOwner(address)": [
						{
							"details": "The owner is not a valid owner account. (eg. `address(0)`)"
						}
					],
					"OwnableUnauthorizedAccount(address)": [
						{
							"details": "The caller account is not authorized to perform an operation."
						}
					]
				},
				"kind": "dev",
				"methods": {
					"owner()": {
						"details": "Returns the address of the current owner."
					},
					"renounceOwnership()": {
						"details": "Leaves the contract without owner. It will not be possible to call `onlyOwner` functions. Can only be called by the current owner. NOTE: Renouncing ownership will leave the contract without an owner, thereby disabling any functionality that is only available to the owner."
					},
					"transferOwnership(address)": {
						"details": "Transfers ownership of the contract to a new account (`newOwner`). Can only be called by the current owner."
					}
				},
				"version": 1
			},
			"evm": {
				"assembly": "    /* \"DiscoCats.sol\":292:7523  contract DiscoCats is Ownable {... */\n  mstore(0x40, 0x80)\n    /* \"DiscoCats.sol\":431:432  0 */\n  0x00\n    /* \"DiscoCats.sol\":401:432  uint256 public projectCount = 0 */\n  0x03\n  sstore\n    /* \"DiscoCats.sol\":870:894  govtStatus.incentivising */\n  0x00\n    /* \"DiscoCats.sol\":841:894  govtStatus internal status = govtStatus.incentivising */\n  0x04\n  exp(0x0100, 0x14)\n  dup2\n  sload\n  dup2\n  0xff\n  mul\n  not\n  and\n  swap1\n  dup4\n  0x02\n  dup2\n  gt\n  iszero\n  tag_1\n  jumpi\n  tag_2\n  tag_3\n  jump\t// in\ntag_2:\ntag_1:\n  mul\n  or\n  swap1\n  sstore\n  pop\n    /* \"DiscoCats.sol\":975:976  0 */\n  0x00\n    /* \"DiscoCats.sol\":947:976  uint256 public totalVotes = 0 */\n  0x06\n  sstore\n    /* \"DiscoCats.sol\":1011:1013  10 */\n  0x0a\n    /* \"DiscoCats.sol\":982:1013  uint256 public lastTokenId = 10 */\n  0x07\n  sstore\n    /* \"DiscoCats.sol\":1180:1518  constructor(... */\n  callvalue\n  dup1\n  iszero\n  tag_4\n  jumpi\n  0x00\n  dup1\n  revert\ntag_4:\n  pop\n  mload(0x40)\n  sub(codesize, bytecodeSize)\n  dup1\n  bytecodeSize\n  dup4\n  codecopy\n  dup2\n  dup2\n  add\n  0x40\n  mstore\n  dup2\n  add\n  swap1\n  tag_5\n  swap2\n  swap1\n  tag_6\n  jump\t// in\ntag_5:\n    /* \"DiscoCats.sol\":1305:1317  initialOwner */\n  dup3\n    /* \"@openzeppelin/contracts/access/Ownable.sol\":1297:1298  0 */\n  0x00\n    /* \"@openzeppelin/contracts/access/Ownable.sol\":1273:1299  initialOwner == address(0) */\n  0xffffffffffffffffffffffffffffffffffffffff\n  and\n    /* \"@openzeppelin/contracts/access/Ownable.sol\":1273:1285  initialOwner */\n  dup2\n    /* \"@openzeppelin/contracts/access/Ownable.sol\":1273:1299  initialOwner == address(0) */\n  0xffffffffffffffffffffffffffffffffffffffff\n  and\n  sub\n    /* \"@openzeppelin/contracts/access/Ownable.sol\":1269:1364  if (initialOwner == address(0)) {... */\n  tag_10\n  jumpi\n    /* \"@openzeppelin/contracts/access/Ownable.sol\":1350:1351  0 */\n  0x00\n    /* \"@openzeppelin/contracts/access/Ownable.sol\":1322:1353  OwnableInvalidOwner(address(0)) */\n  mload(0x40)\n  0x1e4fbdf700000000000000000000000000000000000000000000000000000000\n  dup2\n  mstore\n  0x04\n  add\n  tag_11\n  swap2\n  swap1\n  tag_12\n  jump\t// in\ntag_11:\n  mload(0x40)\n  dup1\n  swap2\n  sub\n  swap1\n  revert\n    /* \"@openzeppelin/contracts/access/Ownable.sol\":1269:1364  if (initialOwner == address(0)) {... */\ntag_10:\n    /* \"@openzeppelin/contracts/access/Ownable.sol\":1373:1405  _transferOwnership(initialOwner) */\n  tag_13\n    /* \"@openzeppelin/contracts/access/Ownable.sol\":1392:1404  initialOwner */\n  dup2\n    /* \"@openzeppelin/contracts/access/Ownable.sol\":1373:1391  _transferOwnership */\n  shl(0x20, tag_14)\n    /* \"@openzeppelin/contracts/access/Ownable.sol\":1373:1405  _transferOwnership(initialOwner) */\n  0x20\n  shr\n  jump\t// in\ntag_13:\n    /* \"@openzeppelin/contracts/access/Ownable.sol\":1225:1412  constructor(address initialOwner) {... */\n  pop\n    /* \"DiscoCats.sol\":1417:1419  60 */\n  0x3c\n    /* \"DiscoCats.sol\":1394:1414  _incentivizingPeriod */\n  dup3\n    /* \"DiscoCats.sol\":1394:1419  _incentivizingPeriod * 60 */\n  tag_16\n  swap2\n  swap1\n  tag_17\n  jump\t// in\ntag_16:\n    /* \"DiscoCats.sol\":1363:1378  block.timestamp */\n  timestamp\n    /* \"DiscoCats.sol\":1363:1421  block.timestamp +... */\n  tag_18\n  swap2\n  swap1\n  tag_19\n  jump\t// in\ntag_18:\n    /* \"DiscoCats.sol\":1329:1348  incentivizingPeriod */\n  0x01\n    /* \"DiscoCats.sol\":1329:1421  incentivizingPeriod =... */\n  dup2\n  swap1\n  sstore\n  pop\n    /* \"DiscoCats.sol\":1496:1498  60 */\n  0x3c\n    /* \"DiscoCats.sol\":1480:1493  _votingPeriod */\n  dup2\n    /* \"DiscoCats.sol\":1480:1498  _votingPeriod * 60 */\n  tag_20\n  swap2\n  swap1\n  tag_17\n  jump\t// in\ntag_20:\n    /* \"DiscoCats.sol\":1457:1476  incentivizingPeriod */\n  sload(0x01)\n    /* \"DiscoCats.sol\":1457:1500  incentivizingPeriod + (_votingPeriod * 60 ) */\n  tag_21\n  swap2\n  swap1\n  tag_19\n  jump\t// in\ntag_21:\n    /* \"DiscoCats.sol\":1442:1454  votingPeriod */\n  0x02\n    /* \"DiscoCats.sol\":1442:1500  votingPeriod = incentivizingPeriod + (_votingPeriod * 60 ) */\n  dup2\n  swap1\n  sstore\n  pop\n    /* \"DiscoCats.sol\":1180:1518  constructor(... */\n  pop\n  pop\n  pop\n    /* \"DiscoCats.sol\":292:7523  contract DiscoCats is Ownable {... */\n  jump(tag_22)\n    /* \"@openzeppelin/contracts/access/Ownable.sol\":2912:3099  function _transferOwnership(address newOwner) internal virtual {... */\ntag_14:\n    /* \"@openzeppelin/contracts/access/Ownable.sol\":2985:3001  address oldOwner */\n  0x00\n    /* \"@openzeppelin/contracts/access/Ownable.sol\":3004:3010  _owner */\n  dup1\n  0x00\n  swap1\n  sload\n  swap1\n  0x0100\n  exp\n  swap1\n  div\n  0xffffffffffffffffffffffffffffffffffffffff\n  and\n    /* \"@openzeppelin/contracts/access/Ownable.sol\":2985:3010  address oldOwner = _owner */\n  swap1\n  pop\n    /* \"@openzeppelin/contracts/access/Ownable.sol\":3029:3037  newOwner */\n  dup2\n    /* \"@openzeppelin/contracts/access/Ownable.sol\":3020:3026  _owner */\n  0x00\n  dup1\n    /* \"@openzeppelin/contracts/access/Ownable.sol\":3020:3037  _owner = newOwner */\n  0x0100\n  exp\n  dup2\n  sload\n  dup2\n  0xffffffffffffffffffffffffffffffffffffffff\n  mul\n  not\n  and\n  swap1\n  dup4\n  0xffffffffffffffffffffffffffffffffffffffff\n  and\n  mul\n  or\n  swap1\n  sstore\n  pop\n    /* \"@openzeppelin/contracts/access/Ownable.sol\":3083:3091  newOwner */\n  dup2\n    /* \"@openzeppelin/contracts/access/Ownable.sol\":3052:3092  OwnershipTransferred(oldOwner, newOwner) */\n  0xffffffffffffffffffffffffffffffffffffffff\n  and\n    /* \"@openzeppelin/contracts/access/Ownable.sol\":3073:3081  oldOwner */\n  dup2\n    /* \"@openzeppelin/contracts/access/Ownable.sol\":3052:3092  OwnershipTransferred(oldOwner, newOwner) */\n  0xffffffffffffffffffffffffffffffffffffffff\n  and\n  0x8be0079c531659141344cd1fd0a4f28419497f9722a3daafe3b4186f6b6457e0\n  mload(0x40)\n  mload(0x40)\n  dup1\n  swap2\n  sub\n  swap1\n  log3\n    /* \"@openzeppelin/contracts/access/Ownable.sol\":2975:3099  {... */\n  pop\n    /* \"@openzeppelin/contracts/access/Ownable.sol\":2912:3099  function _transferOwnership(address newOwner) internal virtual {... */\n  pop\n  jump\t// out\n    /* \"#utility.yul\":7:187   */\ntag_3:\n    /* \"#utility.yul\":55:132   */\n  0x4e487b7100000000000000000000000000000000000000000000000000000000\n    /* \"#utility.yul\":52:53   */\n  0x00\n    /* \"#utility.yul\":45:133   */\n  mstore\n    /* \"#utility.yul\":152:156   */\n  0x21\n    /* \"#utility.yul\":149:150   */\n  0x04\n    /* \"#utility.yul\":142:157   */\n  mstore\n    /* \"#utility.yul\":176:180   */\n  0x24\n    /* \"#utility.yul\":173:174   */\n  0x00\n    /* \"#utility.yul\":166:181   */\n  revert\n    /* \"#utility.yul\":274:391   */\ntag_25:\n    /* \"#utility.yul\":383:384   */\n  0x00\n    /* \"#utility.yul\":380:381   */\n  dup1\n    /* \"#utility.yul\":373:385   */\n  revert\n    /* \"#utility.yul\":520:646   */\ntag_27:\n    /* \"#utility.yul\":557:564   */\n  0x00\n    /* \"#utility.yul\":597:639   */\n  0xffffffffffffffffffffffffffffffffffffffff\n    /* \"#utility.yul\":590:595   */\n  dup3\n    /* \"#utility.yul\":586:640   */\n  and\n    /* \"#utility.yul\":575:640   */\n  swap1\n  pop\n    /* \"#utility.yul\":520:646   */\n  swap2\n  swap1\n  pop\n  jump\t// out\n    /* \"#utility.yul\":652:748   */\ntag_28:\n    /* \"#utility.yul\":689:696   */\n  0x00\n    /* \"#utility.yul\":718:742   */\n  tag_43\n    /* \"#utility.yul\":736:741   */\n  dup3\n    /* \"#utility.yul\":718:742   */\n  tag_27\n  jump\t// in\ntag_43:\n    /* \"#utility.yul\":707:742   */\n  swap1\n  pop\n    /* \"#utility.yul\":652:748   */\n  swap2\n  swap1\n  pop\n  jump\t// out\n    /* \"#utility.yul\":754:876   */\ntag_29:\n    /* \"#utility.yul\":827:851   */\n  tag_45\n    /* \"#utility.yul\":845:850   */\n  dup2\n    /* \"#utility.yul\":827:851   */\n  tag_28\n  jump\t// in\ntag_45:\n    /* \"#utility.yul\":820:825   */\n  dup2\n    /* \"#utility.yul\":817:852   */\n  eq\n    /* \"#utility.yul\":807:870   */\n  tag_46\n  jumpi\n    /* \"#utility.yul\":866:867   */\n  0x00\n    /* \"#utility.yul\":863:864   */\n  dup1\n    /* \"#utility.yul\":856:868   */\n  revert\n    /* \"#utility.yul\":807:870   */\ntag_46:\n    /* \"#utility.yul\":754:876   */\n  pop\n  jump\t// out\n    /* \"#utility.yul\":882:1025   */\ntag_30:\n    /* \"#utility.yul\":939:944   */\n  0x00\n    /* \"#utility.yul\":970:976   */\n  dup2\n    /* \"#utility.yul\":964:977   */\n  mload\n    /* \"#utility.yul\":955:977   */\n  swap1\n  pop\n    /* \"#utility.yul\":986:1019   */\n  tag_48\n    /* \"#utility.yul\":1013:1018   */\n  dup2\n    /* \"#utility.yul\":986:1019   */\n  tag_29\n  jump\t// in\ntag_48:\n    /* \"#utility.yul\":882:1025   */\n  swap3\n  swap2\n  pop\n  pop\n  jump\t// out\n    /* \"#utility.yul\":1031:1108   */\ntag_31:\n    /* \"#utility.yul\":1068:1075   */\n  0x00\n    /* \"#utility.yul\":1097:1102   */\n  dup2\n    /* \"#utility.yul\":1086:1102   */\n  swap1\n  pop\n    /* \"#utility.yul\":1031:1108   */\n  swap2\n  swap1\n  pop\n  jump\t// out\n    /* \"#utility.yul\":1114:1236   */\ntag_32:\n    /* \"#utility.yul\":1187:1211   */\n  tag_51\n    /* \"#utility.yul\":1205:1210   */\n  dup2\n    /* \"#utility.yul\":1187:1211   */\n  tag_31\n  jump\t// in\ntag_51:\n    /* \"#utility.yul\":1180:1185   */\n  dup2\n    /* \"#utility.yul\":1177:1212   */\n  eq\n    /* \"#utility.yul\":1167:1230   */\n  tag_52\n  jumpi\n    /* \"#utility.yul\":1226:1227   */\n  0x00\n    /* \"#utility.yul\":1223:1224   */\n  dup1\n    /* \"#utility.yul\":1216:1228   */\n  revert\n    /* \"#utility.yul\":1167:1230   */\ntag_52:\n    /* \"#utility.yul\":1114:1236   */\n  pop\n  jump\t// out\n    /* \"#utility.yul\":1242:1385   */\ntag_33:\n    /* \"#utility.yul\":1299:1304   */\n  0x00\n    /* \"#utility.yul\":1330:1336   */\n  dup2\n    /* \"#utility.yul\":1324:1337   */\n  mload\n    /* \"#utility.yul\":1315:1337   */\n  swap1\n  pop\n    /* \"#utility.yul\":1346:1379   */\n  tag_54\n    /* \"#utility.yul\":1373:1378   */\n  dup2\n    /* \"#utility.yul\":1346:1379   */\n  tag_32\n  jump\t// in\ntag_54:\n    /* \"#utility.yul\":1242:1385   */\n  swap3\n  swap2\n  pop\n  pop\n  jump\t// out\n    /* \"#utility.yul\":1391:2054   */\ntag_6:\n    /* \"#utility.yul\":1479:1485   */\n  0x00\n    /* \"#utility.yul\":1487:1493   */\n  dup1\n    /* \"#utility.yul\":1495:1501   */\n  0x00\n    /* \"#utility.yul\":1544:1546   */\n  0x60\n    /* \"#utility.yul\":1532:1541   */\n  dup5\n    /* \"#utility.yul\":1523:1530   */\n  dup7\n    /* \"#utility.yul\":1519:1542   */\n  sub\n    /* \"#utility.yul\":1515:1547   */\n  slt\n    /* \"#utility.yul\":1512:1631   */\n  iszero\n  tag_56\n  jumpi\n    /* \"#utility.yul\":1550:1629   */\n  tag_57\n  tag_25\n  jump\t// in\ntag_57:\n    /* \"#utility.yul\":1512:1631   */\ntag_56:\n    /* \"#utility.yul\":1670:1671   */\n  0x00\n    /* \"#utility.yul\":1695:1759   */\n  tag_58\n    /* \"#utility.yul\":1751:1758   */\n  dup7\n    /* \"#utility.yul\":1742:1748   */\n  dup3\n    /* \"#utility.yul\":1731:1740   */\n  dup8\n    /* \"#utility.yul\":1727:1749   */\n  add\n    /* \"#utility.yul\":1695:1759   */\n  tag_30\n  jump\t// in\ntag_58:\n    /* \"#utility.yul\":1685:1759   */\n  swap4\n  pop\n    /* \"#utility.yul\":1641:1769   */\n  pop\n    /* \"#utility.yul\":1808:1810   */\n  0x20\n    /* \"#utility.yul\":1834:1898   */\n  tag_59\n    /* \"#utility.yul\":1890:1897   */\n  dup7\n    /* \"#utility.yul\":1881:1887   */\n  dup3\n    /* \"#utility.yul\":1870:1879   */\n  dup8\n    /* \"#utility.yul\":1866:1888   */\n  add\n    /* \"#utility.yul\":1834:1898   */\n  tag_33\n  jump\t// in\ntag_59:\n    /* \"#utility.yul\":1824:1898   */\n  swap3\n  pop\n    /* \"#utility.yul\":1779:1908   */\n  pop\n    /* \"#utility.yul\":1947:1949   */\n  0x40\n    /* \"#utility.yul\":1973:2037   */\n  tag_60\n    /* \"#utility.yul\":2029:2036   */\n  dup7\n    /* \"#utility.yul\":2020:2026   */\n  dup3\n    /* \"#utility.yul\":2009:2018   */\n  dup8\n    /* \"#utility.yul\":2005:2027   */\n  add\n    /* \"#utility.yul\":1973:2037   */\n  tag_33\n  jump\t// in\ntag_60:\n    /* \"#utility.yul\":1963:2037   */\n  swap2\n  pop\n    /* \"#utility.yul\":1918:2047   */\n  pop\n    /* \"#utility.yul\":1391:2054   */\n  swap3\n  pop\n  swap3\n  pop\n  swap3\n  jump\t// out\n    /* \"#utility.yul\":2060:2178   */\ntag_34:\n    /* \"#utility.yul\":2147:2171   */\n  tag_62\n    /* \"#utility.yul\":2165:2170   */\n  dup2\n    /* \"#utility.yul\":2147:2171   */\n  tag_28\n  jump\t// in\ntag_62:\n    /* \"#utility.yul\":2142:2145   */\n  dup3\n    /* \"#utility.yul\":2135:2172   */\n  mstore\n    /* \"#utility.yul\":2060:2178   */\n  pop\n  pop\n  jump\t// out\n    /* \"#utility.yul\":2184:2406   */\ntag_12:\n    /* \"#utility.yul\":2277:2281   */\n  0x00\n    /* \"#utility.yul\":2315:2317   */\n  0x20\n    /* \"#utility.yul\":2304:2313   */\n  dup3\n    /* \"#utility.yul\":2300:2318   */\n  add\n    /* \"#utility.yul\":2292:2318   */\n  swap1\n  pop\n    /* \"#utility.yul\":2328:2399   */\n  tag_64\n    /* \"#utility.yul\":2396:2397   */\n  0x00\n    /* \"#utility.yul\":2385:2394   */\n  dup4\n    /* \"#utility.yul\":2381:2398   */\n  add\n    /* \"#utility.yul\":2372:2378   */\n  dup5\n    /* \"#utility.yul\":2328:2399   */\n  tag_34\n  jump\t// in\ntag_64:\n    /* \"#utility.yul\":2184:2406   */\n  swap3\n  swap2\n  pop\n  pop\n  jump\t// out\n    /* \"#utility.yul\":2412:2592   */\ntag_35:\n    /* \"#utility.yul\":2460:2537   */\n  0x4e487b7100000000000000000000000000000000000000000000000000000000\n    /* \"#utility.yul\":2457:2458   */\n  0x00\n    /* \"#utility.yul\":2450:2538   */\n  mstore\n    /* \"#utility.yul\":2557:2561   */\n  0x11\n    /* \"#utility.yul\":2554:2555   */\n  0x04\n    /* \"#utility.yul\":2547:2562   */\n  mstore\n    /* \"#utility.yul\":2581:2585   */\n  0x24\n    /* \"#utility.yul\":2578:2579   */\n  0x00\n    /* \"#utility.yul\":2571:2586   */\n  revert\n    /* \"#utility.yul\":2598:3008   */\ntag_17:\n    /* \"#utility.yul\":2638:2645   */\n  0x00\n    /* \"#utility.yul\":2661:2681   */\n  tag_67\n    /* \"#utility.yul\":2679:2680   */\n  dup3\n    /* \"#utility.yul\":2661:2681   */\n  tag_31\n  jump\t// in\ntag_67:\n    /* \"#utility.yul\":2656:2681   */\n  swap2\n  pop\n    /* \"#utility.yul\":2695:2715   */\n  tag_68\n    /* \"#utility.yul\":2713:2714   */\n  dup4\n    /* \"#utility.yul\":2695:2715   */\n  tag_31\n  jump\t// in\ntag_68:\n    /* \"#utility.yul\":2690:2715   */\n  swap3\n  pop\n    /* \"#utility.yul\":2750:2751   */\n  dup3\n    /* \"#utility.yul\":2747:2748   */\n  dup3\n    /* \"#utility.yul\":2743:2752   */\n  mul\n    /* \"#utility.yul\":2772:2802   */\n  tag_69\n    /* \"#utility.yul\":2790:2801   */\n  dup2\n    /* \"#utility.yul\":2772:2802   */\n  tag_31\n  jump\t// in\ntag_69:\n    /* \"#utility.yul\":2761:2802   */\n  swap2\n  pop\n    /* \"#utility.yul\":2951:2952   */\n  dup3\n    /* \"#utility.yul\":2942:2949   */\n  dup3\n    /* \"#utility.yul\":2938:2953   */\n  div\n    /* \"#utility.yul\":2935:2936   */\n  dup5\n    /* \"#utility.yul\":2932:2954   */\n  eq\n    /* \"#utility.yul\":2912:2913   */\n  dup4\n    /* \"#utility.yul\":2905:2914   */\n  iszero\n    /* \"#utility.yul\":2885:2968   */\n  or\n    /* \"#utility.yul\":2862:3001   */\n  tag_70\n  jumpi\n    /* \"#utility.yul\":2981:2999   */\n  tag_71\n  tag_35\n  jump\t// in\ntag_71:\n    /* \"#utility.yul\":2862:3001   */\ntag_70:\n    /* \"#utility.yul\":2646:3008   */\n  pop\n    /* \"#utility.yul\":2598:3008   */\n  swap3\n  swap2\n  pop\n  pop\n  jump\t// out\n    /* \"#utility.yul\":3014:3205   */\ntag_19:\n    /* \"#utility.yul\":3054:3057   */\n  0x00\n    /* \"#utility.yul\":3073:3093   */\n  tag_73\n    /* \"#utility.yul\":3091:3092   */\n  dup3\n    /* \"#utility.yul\":3073:3093   */\n  tag_31\n  jump\t// in\ntag_73:\n    /* \"#utility.yul\":3068:3093   */\n  swap2\n  pop\n    /* \"#utility.yul\":3107:3127   */\n  tag_74\n    /* \"#utility.yul\":3125:3126   */\n  dup4\n    /* \"#utility.yul\":3107:3127   */\n  tag_31\n  jump\t// in\ntag_74:\n    /* \"#utility.yul\":3102:3127   */\n  swap3\n  pop\n    /* \"#utility.yul\":3150:3151   */\n  dup3\n    /* \"#utility.yul\":3147:3148   */\n  dup3\n    /* \"#utility.yul\":3143:3152   */\n  add\n    /* \"#utility.yul\":3136:3152   */\n  swap1\n  pop\n    /* \"#utility.yul\":3171:3174   */\n  dup1\n    /* \"#utility.yul\":3168:3169   */\n  dup3\n    /* \"#utility.yul\":3165:3175   */\n  gt\n    /* \"#utility.yul\":3162:3198   */\n  iszero\n  tag_75\n  jumpi\n    /* \"#utility.yul\":3178:3196   */\n  tag_76\n  tag_35\n  jump\t// in\ntag_76:\n    /* \"#utility.yul\":3162:3198   */\ntag_75:\n    /* \"#utility.yul\":3014:3205   */\n  swap3\n  swap2\n  pop\n  pop\n  jump\t// out\n    /* \"DiscoCats.sol\":292:7523  contract DiscoCats is Ownable {... */\ntag_22:\n  dataSize(sub_0)\n  dup1\n  dataOffset(sub_0)\n  0x00\n  codecopy\n  0x00\n  return\nstop\n\nsub_0: assembly {\n        /* \"DiscoCats.sol\":292:7523  contract DiscoCats is Ownable {... */\n      mstore(0x40, 0x80)\n      callvalue\n      dup1\n      iszero\n      tag_1\n      jumpi\n      0x00\n      dup1\n      revert\n    tag_1:\n      pop\n      jumpi(tag_2, lt(calldatasize, 0x04))\n      shr(0xe0, calldataload(0x00))\n      dup1\n      0x4e69d560\n      gt\n      tag_26\n      jumpi\n      dup1\n      0xbfb906a7\n      gt\n      tag_27\n      jumpi\n      dup1\n      0xbfb906a7\n      eq\n      tag_20\n      jumpi\n      dup1\n      0xcb06545c\n      eq\n      tag_21\n      jumpi\n      dup1\n      0xd19ee357\n      eq\n      tag_22\n      jumpi\n      dup1\n      0xf2fde38b\n      eq\n      tag_23\n      jumpi\n      dup1\n      0xf4b1f501\n      eq\n      tag_24\n      jumpi\n      dup1\n      0xf84ddf0b\n      eq\n      tag_25\n      jumpi\n      jump(tag_2)\n    tag_27:\n      dup1\n      0x4e69d560\n      eq\n      tag_14\n      jumpi\n      dup1\n      0x715018a6\n      eq\n      tag_15\n      jumpi\n      dup1\n      0x8da5cb5b\n      eq\n      tag_16\n      jumpi\n      dup1\n      0xa3ec138d\n      eq\n      tag_17\n      jumpi\n      dup1\n      0xaae282e1\n      eq\n      tag_18\n      jumpi\n      dup1\n      0xb00741cb\n      eq\n      tag_19\n      jumpi\n      jump(tag_2)\n    tag_26:\n      dup1\n      0x239ecf35\n      gt\n      tag_28\n      jumpi\n      dup1\n      0x239ecf35\n      eq\n      tag_8\n      jumpi\n      dup1\n      0x33b2decc\n      eq\n      tag_9\n      jumpi\n      dup1\n      0x36fbad26\n      eq\n      tag_10\n      jumpi\n      dup1\n      0x379607f5\n      eq\n      tag_11\n      jumpi\n      dup1\n      0x38200702\n      eq\n      tag_12\n      jumpi\n      dup1\n      0x3885aed3\n      eq\n      tag_13\n      jumpi\n      jump(tag_2)\n    tag_28:\n      dup1\n      0x0121b93f\n      eq\n      tag_3\n      jumpi\n      dup1\n      0x02a251a3\n      eq\n      tag_4\n      jumpi\n      dup1\n      0x0b102d1a\n      eq\n      tag_5\n      jumpi\n      dup1\n      0x0d15fd77\n      eq\n      tag_6\n      jumpi\n      dup1\n      0x107046bd\n      eq\n      tag_7\n      jumpi\n    tag_2:\n      0x00\n      dup1\n      revert\n        /* \"DiscoCats.sol\":2976:4102  function vote(uint256 _projectId) public {... */\n    tag_3:\n      tag_29\n      0x04\n      dup1\n      calldatasize\n      sub\n      dup2\n      add\n      swap1\n      tag_30\n      swap2\n      swap1\n      tag_31\n      jump\t// in\n    tag_30:\n      tag_32\n      jump\t// in\n    tag_29:\n      stop\n        /* \"DiscoCats.sol\":368:395  uint256 public votingPeriod */\n    tag_4:\n      tag_33\n      tag_34\n      jump\t// in\n    tag_33:\n      mload(0x40)\n      tag_35\n      swap2\n      swap1\n      tag_36\n      jump\t// in\n    tag_35:\n      mload(0x40)\n      dup1\n      swap2\n      sub\n      swap1\n      return\n        /* \"DiscoCats.sol\":4904:5016  function setNftAddress(address _nftAddress) external onlyOwner {... */\n    tag_5:\n      tag_37\n      0x04\n      dup1\n      calldatasize\n      sub\n      dup2\n      add\n      swap1\n      tag_38\n      swap2\n      swap1\n      tag_39\n      jump\t// in\n    tag_38:\n      tag_40\n      jump\t// in\n    tag_37:\n      stop\n        /* \"DiscoCats.sol\":947:976  uint256 public totalVotes = 0 */\n    tag_6:\n      tag_41\n      tag_42\n      jump\t// in\n    tag_41:\n      mload(0x40)\n      tag_43\n      swap2\n      swap1\n      tag_36\n      jump\t// in\n    tag_43:\n      mload(0x40)\n      dup1\n      swap2\n      sub\n      swap1\n      return\n        /* \"DiscoCats.sol\":1130:1173  mapping(uint256 => Project) public projects */\n    tag_7:\n      tag_44\n      0x04\n      dup1\n      calldatasize\n      sub\n      dup2\n      add\n      swap1\n      tag_45\n      swap2\n      swap1\n      tag_31\n      jump\t// in\n    tag_45:\n      tag_46\n      jump\t// in\n    tag_44:\n      mload(0x40)\n      tag_47\n      swap4\n      swap3\n      swap2\n      swap1\n      tag_48\n      jump\t// in\n    tag_47:\n      mload(0x40)\n      dup1\n      swap2\n      sub\n      swap1\n      return\n        /* \"DiscoCats.sol\":1524:2012  function initializeProject(string memory _name) public onlyOwner {... */\n    tag_8:\n      tag_49\n      0x04\n      dup1\n      calldatasize\n      sub\n      dup2\n      add\n      swap1\n      tag_50\n      swap2\n      swap1\n      tag_51\n      jump\t// in\n    tag_50:\n      tag_52\n      jump\t// in\n    tag_49:\n      stop\n        /* \"DiscoCats.sol\":2018:2970  function incentiviseProject(... */\n    tag_9:\n      tag_53\n      0x04\n      dup1\n      calldatasize\n      sub\n      dup2\n      add\n      swap1\n      tag_54\n      swap2\n      swap1\n      tag_55\n      jump\t// in\n    tag_54:\n      tag_56\n      jump\t// in\n    tag_53:\n      stop\n        /* \"DiscoCats.sol\":401:432  uint256 public projectCount = 0 */\n    tag_10:\n      tag_57\n      tag_58\n      jump\t// in\n    tag_57:\n      mload(0x40)\n      tag_59\n      swap2\n      swap1\n      tag_36\n      jump\t// in\n    tag_59:\n      mload(0x40)\n      dup1\n      swap2\n      sub\n      swap1\n      return\n        /* \"DiscoCats.sol\":5022:5899  function claim(uint256 _projectId) public {... */\n    tag_11:\n      tag_60\n      0x04\n      dup1\n      calldatasize\n      sub\n      dup2\n      add\n      swap1\n      tag_61\n      swap2\n      swap1\n      tag_31\n      jump\t// in\n    tag_61:\n      tag_62\n      jump\t// in\n    tag_60:\n      stop\n        /* \"DiscoCats.sol\":1019:1061  mapping(uint256 => bool) public tokenVoted */\n    tag_12:\n      tag_63\n      0x04\n      dup1\n      calldatasize\n      sub\n      dup2\n      add\n      swap1\n      tag_64\n      swap2\n      swap1\n      tag_31\n      jump\t// in\n    tag_64:\n      tag_65\n      jump\t// in\n    tag_63:\n      mload(0x40)\n      tag_66\n      swap2\n      swap1\n      tag_67\n      jump\t// in\n    tag_66:\n      mload(0x40)\n      dup1\n      swap2\n      sub\n      swap1\n      return\n        /* \"DiscoCats.sol\":328:362  uint256 public incentivizingPeriod */\n    tag_13:\n      tag_68\n      tag_69\n      jump\t// in\n    tag_68:\n      mload(0x40)\n      tag_70\n      swap2\n      swap1\n      tag_36\n      jump\t// in\n    tag_70:\n      mload(0x40)\n      dup1\n      swap2\n      sub\n      swap1\n      return\n        /* \"DiscoCats.sol\":4207:4552  function getStatus() external view returns (uint256 _status) {... */\n    tag_14:\n      tag_71\n      tag_72\n      jump\t// in\n    tag_71:\n      mload(0x40)\n      tag_73\n      swap2\n      swap1\n      tag_36\n      jump\t// in\n    tag_73:\n      mload(0x40)\n      dup1\n      swap2\n      sub\n      swap1\n      return\n        /* \"@openzeppelin/contracts/access/Ownable.sol\":2293:2394  function renounceOwnership() public virtual onlyOwner {... */\n    tag_15:\n      tag_74\n      tag_75\n      jump\t// in\n    tag_74:\n      stop\n        /* \"@openzeppelin/contracts/access/Ownable.sol\":1638:1723  function owner() public view virtual returns (address) {... */\n    tag_16:\n      tag_76\n      tag_77\n      jump\t// in\n    tag_76:\n      mload(0x40)\n      tag_78\n      swap2\n      swap1\n      tag_79\n      jump\t// in\n    tag_78:\n      mload(0x40)\n      dup1\n      swap2\n      sub\n      swap1\n      return\n        /* \"DiscoCats.sol\":900:941  mapping(address => uint256) public voters */\n    tag_17:\n      tag_80\n      0x04\n      dup1\n      calldatasize\n      sub\n      dup2\n      add\n      swap1\n      tag_81\n      swap2\n      swap1\n      tag_39\n      jump\t// in\n    tag_81:\n      tag_82\n      jump\t// in\n    tag_80:\n      mload(0x40)\n      tag_83\n      swap2\n      swap1\n      tag_36\n      jump\t// in\n    tag_83:\n      mload(0x40)\n      dup1\n      swap2\n      sub\n      swap1\n      return\n        /* \"DiscoCats.sol\":438:471  address public nftContractAddress */\n    tag_18:\n      tag_84\n      tag_85\n      jump\t// in\n    tag_84:\n      mload(0x40)\n      tag_86\n      swap2\n      swap1\n      tag_79\n      jump\t// in\n    tag_86:\n      mload(0x40)\n      dup1\n      swap2\n      sub\n      swap1\n      return\n        /* \"DiscoCats.sol\":6671:7201  function changeState(uint256 _stateNumber) public onlyOwner {... */\n    tag_19:\n      tag_87\n      0x04\n      dup1\n      calldatasize\n      sub\n      dup2\n      add\n      swap1\n      tag_88\n      swap2\n      swap1\n      tag_31\n      jump\t// in\n    tag_88:\n      tag_89\n      jump\t// in\n    tag_87:\n      stop\n        /* \"DiscoCats.sol\":4558:4727  function briberInfo(uint256 _projectId)... */\n    tag_20:\n      tag_90\n      0x04\n      dup1\n      calldatasize\n      sub\n      dup2\n      add\n      swap1\n      tag_91\n      swap2\n      swap1\n      tag_31\n      jump\t// in\n    tag_91:\n      tag_92\n      jump\t// in\n    tag_90:\n      mload(0x40)\n      tag_93\n      swap2\n      swap1\n      tag_94\n      jump\t// in\n    tag_93:\n      mload(0x40)\n      dup1\n      swap2\n      sub\n      swap1\n      return\n        /* \"DiscoCats.sol\":4108:4201  function changelastTokenId(uint256 _id) external onlyOwner {... */\n    tag_21:\n      tag_95\n      0x04\n      dup1\n      calldatasize\n      sub\n      dup2\n      add\n      swap1\n      tag_96\n      swap2\n      swap1\n      tag_31\n      jump\t// in\n    tag_96:\n      tag_97\n      jump\t// in\n    tag_95:\n      stop\n        /* \"DiscoCats.sol\":5905:6665  function withdrawWinnerProject(address _receiver) public onlyOwner {... */\n    tag_22:\n      tag_98\n      0x04\n      dup1\n      calldatasize\n      sub\n      dup2\n      add\n      swap1\n      tag_99\n      swap2\n      swap1\n      tag_39\n      jump\t// in\n    tag_99:\n      tag_100\n      jump\t// in\n    tag_98:\n      stop\n        /* \"@openzeppelin/contracts/access/Ownable.sol\":2543:2758  function transferOwnership(address newOwner) public virtual onlyOwner {... */\n    tag_23:\n      tag_101\n      0x04\n      dup1\n      calldatasize\n      sub\n      dup2\n      add\n      swap1\n      tag_102\n      swap2\n      swap1\n      tag_39\n      jump\t// in\n    tag_102:\n      tag_103\n      jump\t// in\n    tag_101:\n      stop\n        /* \"DiscoCats.sol\":7207:7521  function getWinnerProjectId() public view returns (uint256 _id) {... */\n    tag_24:\n      tag_104\n      tag_105\n      jump\t// in\n    tag_104:\n      mload(0x40)\n      tag_106\n      swap2\n      swap1\n      tag_36\n      jump\t// in\n    tag_106:\n      mload(0x40)\n      dup1\n      swap2\n      sub\n      swap1\n      return\n        /* \"DiscoCats.sol\":982:1013  uint256 public lastTokenId = 10 */\n    tag_25:\n      tag_107\n      tag_108\n      jump\t// in\n    tag_107:\n      mload(0x40)\n      tag_109\n      swap2\n      swap1\n      tag_36\n      jump\t// in\n    tag_109:\n      mload(0x40)\n      dup1\n      swap2\n      sub\n      swap1\n      return\n        /* \"DiscoCats.sol\":2976:4102  function vote(uint256 _projectId) public {... */\n    tag_32:\n        /* \"DiscoCats.sol\":3134:3153  incentivizingPeriod */\n      sload(0x01)\n        /* \"DiscoCats.sol\":3115:3130  block.timestamp */\n      timestamp\n        /* \"DiscoCats.sol\":3115:3153  block.timestamp >= incentivizingPeriod */\n      lt\n      iszero\n        /* \"DiscoCats.sol\":3115:3204  block.timestamp >= incentivizingPeriod &&... */\n      dup1\n      iszero\n      tag_111\n      jumpi\n      pop\n        /* \"DiscoCats.sol\":3192:3204  votingPeriod */\n      sload(0x02)\n        /* \"DiscoCats.sol\":3173:3188  block.timestamp */\n      timestamp\n        /* \"DiscoCats.sol\":3173:3204  block.timestamp <= votingPeriod */\n      gt\n      iszero\n        /* \"DiscoCats.sol\":3115:3204  block.timestamp >= incentivizingPeriod &&... */\n    tag_111:\n        /* \"DiscoCats.sol\":3094:3244  require(... */\n      tag_112\n      jumpi\n      mload(0x40)\n      0x08c379a000000000000000000000000000000000000000000000000000000000\n      dup2\n      mstore\n      0x04\n      add\n      tag_113\n      swap1\n      tag_114\n      jump\t// in\n    tag_113:\n      mload(0x40)\n      dup1\n      swap2\n      sub\n      swap1\n      revert\n    tag_112:\n        /* \"DiscoCats.sol\":3279:3289  _projectId */\n      dup1\n        /* \"DiscoCats.sol\":3263:3275  projectCount */\n      sload(0x03)\n        /* \"DiscoCats.sol\":3263:3289  projectCount >= _projectId */\n      lt\n      iszero\n        /* \"DiscoCats.sol\":3255:3310  require(projectCount >= _projectId, \"aout of order no\") */\n      tag_115\n      jumpi\n      mload(0x40)\n      0x08c379a000000000000000000000000000000000000000000000000000000000\n      dup2\n      mstore\n      0x04\n      add\n      tag_116\n      swap1\n      tag_117\n      jump\t// in\n    tag_116:\n      mload(0x40)\n      dup1\n      swap2\n      sub\n      swap1\n      revert\n    tag_115:\n        /* \"DiscoCats.sol\":3393:3394  0 */\n      0x00\n        /* \"DiscoCats.sol\":3349:3367  nftContractAddress */\n      0x04\n      0x00\n      swap1\n      sload\n      swap1\n      0x0100\n      exp\n      swap1\n      div\n      0xffffffffffffffffffffffffffffffffffffffff\n      and\n        /* \"DiscoCats.sol\":3341:3378  IERC721(nftContractAddress).balanceOf */\n      0xffffffffffffffffffffffffffffffffffffffff\n      and\n      0x70a08231\n        /* \"DiscoCats.sol\":3379:3389  msg.sender */\n      caller\n        /* \"DiscoCats.sol\":3341:3390  IERC721(nftContractAddress).balanceOf(msg.sender) */\n      mload(0x40)\n      dup3\n      0xffffffff\n      and\n      0xe0\n      shl\n      dup2\n      mstore\n      0x04\n      add\n      tag_118\n      swap2\n      swap1\n      tag_79\n      jump\t// in\n    tag_118:\n      0x20\n      mload(0x40)\n      dup1\n      dup4\n      sub\n      dup2\n      dup7\n      gas\n      staticcall\n      iszero\n      dup1\n      iszero\n      tag_120\n      jumpi\n      returndatasize\n      0x00\n      dup1\n      returndatacopy\n      revert(0x00, returndatasize)\n    tag_120:\n      pop\n      pop\n      pop\n      pop\n      mload(0x40)\n      returndatasize\n      not(0x1f)\n      0x1f\n      dup3\n      add\n      and\n      dup3\n      add\n      dup1\n      0x40\n      mstore\n      pop\n      dup2\n      add\n      swap1\n      tag_121\n      swap2\n      swap1\n      tag_122\n      jump\t// in\n    tag_121:\n        /* \"DiscoCats.sol\":3341:3394  IERC721(nftContractAddress).balanceOf(msg.sender) > 0 */\n      gt\n        /* \"DiscoCats.sol\":3320:3436  require(... */\n      tag_123\n      jumpi\n      mload(0x40)\n      0x08c379a000000000000000000000000000000000000000000000000000000000\n      dup2\n      mstore\n      0x04\n      add\n      tag_124\n      swap1\n      tag_125\n      jump\t// in\n    tag_124:\n      mload(0x40)\n      dup1\n      swap2\n      sub\n      swap1\n      revert\n    tag_123:\n        /* \"DiscoCats.sol\":3447:3473  Project storage newProject */\n      0x00\n        /* \"DiscoCats.sol\":3476:3484  projects */\n      0x09\n        /* \"DiscoCats.sol\":3476:3496  projects[_projectId] */\n      0x00\n        /* \"DiscoCats.sol\":3485:3495  _projectId */\n      dup4\n        /* \"DiscoCats.sol\":3476:3496  projects[_projectId] */\n      dup2\n      mstore\n      0x20\n      add\n      swap1\n      dup2\n      mstore\n      0x20\n      add\n      0x00\n      keccak256\n        /* \"DiscoCats.sol\":3447:3496  Project storage newProject = projects[_projectId] */\n      swap1\n      pop\n        /* \"DiscoCats.sol\":3572:3590  nftContractAddress */\n      0x04\n      0x00\n      swap1\n      sload\n      swap1\n      0x0100\n      exp\n      swap1\n      div\n      0xffffffffffffffffffffffffffffffffffffffff\n      and\n        /* \"DiscoCats.sol\":3564:3601  IERC721(nftContractAddress).balanceOf */\n      0xffffffffffffffffffffffffffffffffffffffff\n      and\n      0x70a08231\n        /* \"DiscoCats.sol\":3602:3612  msg.sender */\n      caller\n        /* \"DiscoCats.sol\":3564:3613  IERC721(nftContractAddress).balanceOf(msg.sender) */\n      mload(0x40)\n      dup3\n      0xffffffff\n      and\n      0xe0\n      shl\n      dup2\n      mstore\n      0x04\n      add\n      tag_126\n      swap2\n      swap1\n      tag_79\n      jump\t// in\n    tag_126:\n      0x20\n      mload(0x40)\n      dup1\n      dup4\n      sub\n      dup2\n      dup7\n      gas\n      staticcall\n      iszero\n      dup1\n      iszero\n      tag_128\n      jumpi\n      returndatasize\n      0x00\n      dup1\n      returndatacopy\n      revert(0x00, returndatasize)\n    tag_128:\n      pop\n      pop\n      pop\n      pop\n      mload(0x40)\n      returndatasize\n      not(0x1f)\n      0x1f\n      dup3\n      add\n      and\n      dup3\n      add\n      dup1\n      0x40\n      mstore\n      pop\n      dup2\n      add\n      swap1\n      tag_129\n      swap2\n      swap1\n      tag_122\n      jump\t// in\n    tag_129:\n        /* \"DiscoCats.sol\":3527:3533  voters */\n      0x05\n        /* \"DiscoCats.sol\":3527:3545  voters[msg.sender] */\n      0x00\n        /* \"DiscoCats.sol\":3534:3544  msg.sender */\n      caller\n        /* \"DiscoCats.sol\":3527:3545  voters[msg.sender] */\n      0xffffffffffffffffffffffffffffffffffffffff\n      and\n      0xffffffffffffffffffffffffffffffffffffffff\n      and\n      dup2\n      mstore\n      0x20\n      add\n      swap1\n      dup2\n      mstore\n      0x20\n      add\n      0x00\n      keccak256\n      sload\n        /* \"DiscoCats.sol\":3527:3613  voters[msg.sender] <... */\n      lt\n        /* \"DiscoCats.sol\":3506:3657  require(... */\n      tag_130\n      jumpi\n      mload(0x40)\n      0x08c379a000000000000000000000000000000000000000000000000000000000\n      dup2\n      mstore\n      0x04\n      add\n      tag_131\n      swap1\n      tag_132\n      jump\t// in\n    tag_131:\n      mload(0x40)\n      dup1\n      swap2\n      sub\n      swap1\n      revert\n    tag_130:\n        /* \"DiscoCats.sol\":3672:3681  uint256 i */\n      0x00\n        /* \"DiscoCats.sol\":3667:4096  for (uint256 i = 0; i <= lastTokenId; i++) {... */\n    tag_133:\n        /* \"DiscoCats.sol\":3692:3703  lastTokenId */\n      sload(0x07)\n        /* \"DiscoCats.sol\":3687:3688  i */\n      dup2\n        /* \"DiscoCats.sol\":3687:3703  i <= lastTokenId */\n      gt\n        /* \"DiscoCats.sol\":3667:4096  for (uint256 i = 0; i <= lastTokenId; i++) {... */\n      tag_134\n      jumpi\n        /* \"DiscoCats.sol\":3810:3820  msg.sender */\n      caller\n        /* \"DiscoCats.sol\":3768:3820  IERC721(nftContractAddress).ownerOf(i) == msg.sender */\n      0xffffffffffffffffffffffffffffffffffffffff\n      and\n        /* \"DiscoCats.sol\":3776:3794  nftContractAddress */\n      0x04\n      0x00\n      swap1\n      sload\n      swap1\n      0x0100\n      exp\n      swap1\n      div\n      0xffffffffffffffffffffffffffffffffffffffff\n      and\n        /* \"DiscoCats.sol\":3768:3803  IERC721(nftContractAddress).ownerOf */\n      0xffffffffffffffffffffffffffffffffffffffff\n      and\n      0x6352211e\n        /* \"DiscoCats.sol\":3804:3805  i */\n      dup4\n        /* \"DiscoCats.sol\":3768:3806  IERC721(nftContractAddress).ownerOf(i) */\n      mload(0x40)\n      dup3\n      0xffffffff\n      and\n      0xe0\n      shl\n      dup2\n      mstore\n      0x04\n      add\n      tag_136\n      swap2\n      swap1\n      tag_36\n      jump\t// in\n    tag_136:\n      0x20\n      mload(0x40)\n      dup1\n      dup4\n      sub\n      dup2\n      dup7\n      gas\n      staticcall\n      iszero\n      dup1\n      iszero\n      tag_138\n      jumpi\n      returndatasize\n      0x00\n      dup1\n      returndatacopy\n      revert(0x00, returndatasize)\n    tag_138:\n      pop\n      pop\n      pop\n      pop\n      mload(0x40)\n      returndatasize\n      not(0x1f)\n      0x1f\n      dup3\n      add\n      and\n      dup3\n      add\n      dup1\n      0x40\n      mstore\n      pop\n      dup2\n      add\n      swap1\n      tag_139\n      swap2\n      swap1\n      tag_140\n      jump\t// in\n    tag_139:\n        /* \"DiscoCats.sol\":3768:3820  IERC721(nftContractAddress).ownerOf(i) == msg.sender */\n      0xffffffffffffffffffffffffffffffffffffffff\n      and\n      sub\n        /* \"DiscoCats.sol\":3764:4086  if (IERC721(nftContractAddress).ownerOf(i) == msg.sender) {... */\n      tag_141\n      jumpi\n        /* \"DiscoCats.sol\":3861:3866  false */\n      0x00\n        /* \"DiscoCats.sol\":3844:3866  tokenVoted[i] == false */\n      iszero\n      iszero\n        /* \"DiscoCats.sol\":3844:3854  tokenVoted */\n      0x08\n        /* \"DiscoCats.sol\":3844:3857  tokenVoted[i] */\n      0x00\n        /* \"DiscoCats.sol\":3855:3856  i */\n      dup4\n        /* \"DiscoCats.sol\":3844:3857  tokenVoted[i] */\n      dup2\n      mstore\n      0x20\n      add\n      swap1\n      dup2\n      mstore\n      0x20\n      add\n      0x00\n      keccak256\n      0x00\n      swap1\n      sload\n      swap1\n      0x0100\n      exp\n      swap1\n      div\n      0xff\n      and\n        /* \"DiscoCats.sol\":3844:3866  tokenVoted[i] == false */\n      iszero\n      iszero\n      sub\n        /* \"DiscoCats.sol\":3840:4072  if (tokenVoted[i] == false) {... */\n      tag_142\n      jumpi\n        /* \"DiscoCats.sol\":3890:3896  voters */\n      0x05\n        /* \"DiscoCats.sol\":3890:3908  voters[msg.sender] */\n      0x00\n        /* \"DiscoCats.sol\":3897:3907  msg.sender */\n      caller\n        /* \"DiscoCats.sol\":3890:3908  voters[msg.sender] */\n      0xffffffffffffffffffffffffffffffffffffffff\n      and\n      0xffffffffffffffffffffffffffffffffffffffff\n      and\n      dup2\n      mstore\n      0x20\n      add\n      swap1\n      dup2\n      mstore\n      0x20\n      add\n      0x00\n      keccak256\n      0x00\n        /* \"DiscoCats.sol\":3890:3910  voters[msg.sender]++ */\n      dup2\n      sload\n      dup1\n      swap3\n      swap2\n      swap1\n      tag_143\n      swap1\n      tag_144\n      jump\t// in\n    tag_143:\n      swap2\n      swap1\n      pop\n      sstore\n      pop\n        /* \"DiscoCats.sol\":3932:3942  newProject */\n      dup2\n        /* \"DiscoCats.sol\":3932:3948  newProject.votes */\n      0x03\n      add\n      0x00\n        /* \"DiscoCats.sol\":3932:3950  newProject.votes++ */\n      dup2\n      sload\n      dup1\n      swap3\n      swap2\n      swap1\n      tag_145\n      swap1\n      tag_144\n      jump\t// in\n    tag_145:\n      swap2\n      swap1\n      pop\n      sstore\n      pop\n        /* \"DiscoCats.sol\":3972:3982  totalVotes */\n      0x06\n      0x00\n        /* \"DiscoCats.sol\":3972:3984  totalVotes++ */\n      dup2\n      sload\n      dup1\n      swap3\n      swap2\n      swap1\n      tag_146\n      swap1\n      tag_144\n      jump\t// in\n    tag_146:\n      swap2\n      swap1\n      pop\n      sstore\n      pop\n        /* \"DiscoCats.sol\":4022:4026  true */\n      0x01\n        /* \"DiscoCats.sol\":4006:4016  tokenVoted */\n      0x08\n        /* \"DiscoCats.sol\":4006:4019  tokenVoted[i] */\n      0x00\n        /* \"DiscoCats.sol\":4017:4018  i */\n      dup4\n        /* \"DiscoCats.sol\":4006:4019  tokenVoted[i] */\n      dup2\n      mstore\n      0x20\n      add\n      swap1\n      dup2\n      mstore\n      0x20\n      add\n      0x00\n      keccak256\n      0x00\n        /* \"DiscoCats.sol\":4006:4026  tokenVoted[i] = true */\n      0x0100\n      exp\n      dup2\n      sload\n      dup2\n      0xff\n      mul\n      not\n      and\n      swap1\n      dup4\n      iszero\n      iszero\n      mul\n      or\n      swap1\n      sstore\n      pop\n        /* \"DiscoCats.sol\":4048:4053  break */\n      jump(tag_134)\n        /* \"DiscoCats.sol\":3840:4072  if (tokenVoted[i] == false) {... */\n    tag_142:\n        /* \"DiscoCats.sol\":3764:4086  if (IERC721(nftContractAddress).ownerOf(i) == msg.sender) {... */\n    tag_141:\n        /* \"DiscoCats.sol\":3705:3708  i++ */\n      dup1\n      dup1\n      tag_147\n      swap1\n      tag_144\n      jump\t// in\n    tag_147:\n      swap2\n      pop\n      pop\n        /* \"DiscoCats.sol\":3667:4096  for (uint256 i = 0; i <= lastTokenId; i++) {... */\n      jump(tag_133)\n    tag_134:\n      pop\n        /* \"DiscoCats.sol\":3017:4102  {... */\n      pop\n        /* \"DiscoCats.sol\":2976:4102  function vote(uint256 _projectId) public {... */\n      pop\n      jump\t// out\n        /* \"DiscoCats.sol\":368:395  uint256 public votingPeriod */\n    tag_34:\n      sload(0x02)\n      dup2\n      jump\t// out\n        /* \"DiscoCats.sol\":4904:5016  function setNftAddress(address _nftAddress) external onlyOwner {... */\n    tag_40:\n        /* \"@openzeppelin/contracts/access/Ownable.sol\":1531:1544  _checkOwner() */\n      tag_149\n        /* \"@openzeppelin/contracts/access/Ownable.sol\":1531:1542  _checkOwner */\n      tag_150\n        /* \"@openzeppelin/contracts/access/Ownable.sol\":1531:1544  _checkOwner() */\n      jump\t// in\n    tag_149:\n        /* \"DiscoCats.sol\":4998:5009  _nftAddress */\n      dup1\n        /* \"DiscoCats.sol\":4977:4995  nftContractAddress */\n      0x04\n      0x00\n        /* \"DiscoCats.sol\":4977:5009  nftContractAddress = _nftAddress */\n      0x0100\n      exp\n      dup2\n      sload\n      dup2\n      0xffffffffffffffffffffffffffffffffffffffff\n      mul\n      not\n      and\n      swap1\n      dup4\n      0xffffffffffffffffffffffffffffffffffffffff\n      and\n      mul\n      or\n      swap1\n      sstore\n      pop\n        /* \"DiscoCats.sol\":4904:5016  function setNftAddress(address _nftAddress) external onlyOwner {... */\n      pop\n      jump\t// out\n        /* \"DiscoCats.sol\":947:976  uint256 public totalVotes = 0 */\n    tag_42:\n      sload(0x06)\n      dup2\n      jump\t// out\n        /* \"DiscoCats.sol\":1130:1173  mapping(uint256 => Project) public projects */\n    tag_46:\n      mstore(0x20, 0x09)\n      dup1\n      0x00\n      mstore\n      keccak256(0x00, 0x40)\n      0x00\n      swap2\n      pop\n      swap1\n      pop\n      dup1\n      0x00\n      add\n      dup1\n      sload\n      tag_152\n      swap1\n      tag_153\n      jump\t// in\n    tag_152:\n      dup1\n      0x1f\n      add\n      0x20\n      dup1\n      swap2\n      div\n      mul\n      0x20\n      add\n      mload(0x40)\n      swap1\n      dup2\n      add\n      0x40\n      mstore\n      dup1\n      swap3\n      swap2\n      swap1\n      dup2\n      dup2\n      mstore\n      0x20\n      add\n      dup3\n      dup1\n      sload\n      tag_154\n      swap1\n      tag_153\n      jump\t// in\n    tag_154:\n      dup1\n      iszero\n      tag_155\n      jumpi\n      dup1\n      0x1f\n      lt\n      tag_156\n      jumpi\n      0x0100\n      dup1\n      dup4\n      sload\n      div\n      mul\n      dup4\n      mstore\n      swap2\n      0x20\n      add\n      swap2\n      jump(tag_155)\n    tag_156:\n      dup3\n      add\n      swap2\n      swap1\n      0x00\n      mstore\n      keccak256(0x00, 0x20)\n      swap1\n    tag_157:\n      dup2\n      sload\n      dup2\n      mstore\n      swap1\n      0x01\n      add\n      swap1\n      0x20\n      add\n      dup1\n      dup4\n      gt\n      tag_157\n      jumpi\n      dup3\n      swap1\n      sub\n      0x1f\n      and\n      dup3\n      add\n      swap2\n    tag_155:\n      pop\n      pop\n      pop\n      pop\n      pop\n      swap1\n      dup1\n      0x01\n      add\n      0x00\n      swap1\n      sload\n      swap1\n      0x0100\n      exp\n      swap1\n      div\n      0xffffffffffffffffffffffffffffffffffffffff\n      and\n      swap1\n      dup1\n      0x03\n      add\n      sload\n      swap1\n      pop\n      dup4\n      jump\t// out\n        /* \"DiscoCats.sol\":1524:2012  function initializeProject(string memory _name) public onlyOwner {... */\n    tag_52:\n        /* \"@openzeppelin/contracts/access/Ownable.sol\":1531:1544  _checkOwner() */\n      tag_159\n        /* \"@openzeppelin/contracts/access/Ownable.sol\":1531:1542  _checkOwner */\n      tag_150\n        /* \"@openzeppelin/contracts/access/Ownable.sol\":1531:1544  _checkOwner() */\n      jump\t// in\n    tag_159:\n        /* \"DiscoCats.sol\":1740:1759  incentivizingPeriod */\n      sload(0x01)\n        /* \"DiscoCats.sol\":1721:1736  block.timestamp */\n      timestamp\n        /* \"DiscoCats.sol\":1721:1759  block.timestamp <= incentivizingPeriod */\n      gt\n      iszero\n        /* \"DiscoCats.sol\":1713:1778  require(block.timestamp <= incentivizingPeriod, \"cant do it now\") */\n      tag_161\n      jumpi\n      mload(0x40)\n      0x08c379a000000000000000000000000000000000000000000000000000000000\n      dup2\n      mstore\n      0x04\n      add\n      tag_162\n      swap1\n      tag_114\n      jump\t// in\n    tag_162:\n      mload(0x40)\n      dup1\n      swap2\n      sub\n      swap1\n      revert\n    tag_161:\n        /* \"DiscoCats.sol\":1788:1800  projectCount */\n      0x03\n      0x00\n        /* \"DiscoCats.sol\":1788:1802  projectCount++ */\n      dup2\n      sload\n      dup1\n      swap3\n      swap2\n      swap1\n      tag_163\n      swap1\n      tag_144\n      jump\t// in\n    tag_163:\n      swap2\n      swap1\n      pop\n      sstore\n      pop\n        /* \"DiscoCats.sol\":1845:1871  Project storage newProject */\n      0x00\n        /* \"DiscoCats.sol\":1874:1882  projects */\n      0x09\n        /* \"DiscoCats.sol\":1874:1896  projects[projectCount] */\n      0x00\n        /* \"DiscoCats.sol\":1883:1895  projectCount */\n      sload(0x03)\n        /* \"DiscoCats.sol\":1874:1896  projects[projectCount] */\n      dup2\n      mstore\n      0x20\n      add\n      swap1\n      dup2\n      mstore\n      0x20\n      add\n      0x00\n      keccak256\n        /* \"DiscoCats.sol\":1845:1896  Project storage newProject = projects[projectCount] */\n      swap1\n      pop\n        /* \"DiscoCats.sol\":1924:1929  _name */\n      dup2\n        /* \"DiscoCats.sol\":1906:1916  newProject */\n      dup2\n        /* \"DiscoCats.sol\":1906:1921  newProject.name */\n      0x00\n      add\n        /* \"DiscoCats.sol\":1906:1929  newProject.name = _name */\n      swap1\n      dup2\n      tag_164\n      swap2\n      swap1\n      tag_165\n      jump\t// in\n    tag_164:\n      pop\n        /* \"DiscoCats.sol\":1965:1975  msg.sender */\n      caller\n        /* \"DiscoCats.sol\":1939:1949  newProject */\n      dup2\n        /* \"DiscoCats.sol\":1939:1962  newProject.projectOwner */\n      0x01\n      add\n      0x00\n        /* \"DiscoCats.sol\":1939:1975  newProject.projectOwner = msg.sender */\n      0x0100\n      exp\n      dup2\n      sload\n      dup2\n      0xffffffffffffffffffffffffffffffffffffffff\n      mul\n      not\n      and\n      swap1\n      dup4\n      0xffffffffffffffffffffffffffffffffffffffff\n      and\n      mul\n      or\n      swap1\n      sstore\n      pop\n        /* \"DiscoCats.sol\":2004:2005  0 */\n      0x00\n        /* \"DiscoCats.sol\":1985:1995  newProject */\n      dup2\n        /* \"DiscoCats.sol\":1985:2001  newProject.votes */\n      0x03\n      add\n        /* \"DiscoCats.sol\":1985:2005  newProject.votes = 0 */\n      dup2\n      swap1\n      sstore\n      pop\n        /* \"DiscoCats.sol\":1589:2012  {... */\n      pop\n        /* \"DiscoCats.sol\":1524:2012  function initializeProject(string memory _name) public onlyOwner {... */\n      pop\n      jump\t// out\n        /* \"DiscoCats.sol\":2018:2970  function incentiviseProject(... */\n    tag_56:\n        /* \"DiscoCats.sol\":2251:2270  incentivizingPeriod */\n      sload(0x01)\n        /* \"DiscoCats.sol\":2232:2247  block.timestamp */\n      timestamp\n        /* \"DiscoCats.sol\":2232:2270  block.timestamp <= incentivizingPeriod */\n      gt\n      iszero\n        /* \"DiscoCats.sol\":2224:2289  require(block.timestamp <= incentivizingPeriod, \"cant do it now\") */\n      tag_167\n      jumpi\n      mload(0x40)\n      0x08c379a000000000000000000000000000000000000000000000000000000000\n      dup2\n      mstore\n      0x04\n      add\n      tag_168\n      swap1\n      tag_114\n      jump\t// in\n    tag_168:\n      mload(0x40)\n      dup1\n      swap2\n      sub\n      swap1\n      revert\n    tag_167:\n        /* \"DiscoCats.sol\":2323:2324  0 */\n      0x00\n        /* \"DiscoCats.sol\":2308:2320  _tokenAmount */\n      dup2\n        /* \"DiscoCats.sol\":2308:2324  _tokenAmount > 0 */\n      gt\n        /* \"DiscoCats.sol\":2300:2358  require(_tokenAmount > 0, \"Amount must be greater than 0\") */\n      tag_169\n      jumpi\n      mload(0x40)\n      0x08c379a000000000000000000000000000000000000000000000000000000000\n      dup2\n      mstore\n      0x04\n      add\n      tag_170\n      swap1\n      tag_171\n      jump\t// in\n    tag_170:\n      mload(0x40)\n      dup1\n      swap2\n      sub\n      swap1\n      revert\n    tag_169:\n        /* \"DiscoCats.sol\":2436:2448  _tokenAmount */\n      dup1\n        /* \"DiscoCats.sol\":2396:2409  _tokenAddress */\n      dup3\n        /* \"DiscoCats.sol\":2389:2420  IERC20(_tokenAddress).balanceOf */\n      0xffffffffffffffffffffffffffffffffffffffff\n      and\n      0x70a08231\n        /* \"DiscoCats.sol\":2421:2431  msg.sender */\n      caller\n        /* \"DiscoCats.sol\":2389:2432  IERC20(_tokenAddress).balanceOf(msg.sender) */\n      mload(0x40)\n      dup3\n      0xffffffff\n      and\n      0xe0\n      shl\n      dup2\n      mstore\n      0x04\n      add\n      tag_172\n      swap2\n      swap1\n      tag_79\n      jump\t// in\n    tag_172:\n      0x20\n      mload(0x40)\n      dup1\n      dup4\n      sub\n      dup2\n      dup7\n      gas\n      staticcall\n      iszero\n      dup1\n      iszero\n      tag_174\n      jumpi\n      returndatasize\n      0x00\n      dup1\n      returndatacopy\n      revert(0x00, returndatasize)\n    tag_174:\n      pop\n      pop\n      pop\n      pop\n      mload(0x40)\n      returndatasize\n      not(0x1f)\n      0x1f\n      dup3\n      add\n      and\n      dup3\n      add\n      dup1\n      0x40\n      mstore\n      pop\n      dup2\n      add\n      swap1\n      tag_175\n      swap2\n      swap1\n      tag_122\n      jump\t// in\n    tag_175:\n        /* \"DiscoCats.sol\":2389:2448  IERC20(_tokenAddress).balanceOf(msg.sender) >= _tokenAmount */\n      lt\n      iszero\n        /* \"DiscoCats.sol\":2368:2500  require(... */\n      tag_176\n      jumpi\n      mload(0x40)\n      0x08c379a000000000000000000000000000000000000000000000000000000000\n      dup2\n      mstore\n      0x04\n      add\n      tag_177\n      swap1\n      tag_178\n      jump\t// in\n    tag_177:\n      mload(0x40)\n      dup1\n      swap2\n      sub\n      swap1\n      revert\n    tag_176:\n        /* \"DiscoCats.sol\":2539:2552  _tokenAddress */\n      dup2\n        /* \"DiscoCats.sol\":2532:2566  IERC20(_tokenAddress).transferFrom */\n      0xffffffffffffffffffffffffffffffffffffffff\n      and\n      0x23b872dd\n        /* \"DiscoCats.sol\":2584:2594  msg.sender */\n      caller\n        /* \"DiscoCats.sol\":2620:2624  this */\n      address\n        /* \"DiscoCats.sol\":2643:2655  _tokenAmount */\n      dup5\n        /* \"DiscoCats.sol\":2532:2669  IERC20(_tokenAddress).transferFrom(... */\n      mload(0x40)\n      dup5\n      0xffffffff\n      and\n      0xe0\n      shl\n      dup2\n      mstore\n      0x04\n      add\n      tag_179\n      swap4\n      swap3\n      swap2\n      swap1\n      tag_180\n      jump\t// in\n    tag_179:\n      0x20\n      mload(0x40)\n      dup1\n      dup4\n      sub\n      dup2\n      0x00\n      dup8\n      gas\n      call\n      iszero\n      dup1\n      iszero\n      tag_182\n      jumpi\n      returndatasize\n      0x00\n      dup1\n      returndatacopy\n      revert(0x00, returndatasize)\n    tag_182:\n      pop\n      pop\n      pop\n      pop\n      mload(0x40)\n      returndatasize\n      not(0x1f)\n      0x1f\n      dup3\n      add\n      and\n      dup3\n      add\n      dup1\n      0x40\n      mstore\n      pop\n      dup2\n      add\n      swap1\n      tag_183\n      swap2\n      swap1\n      tag_184\n      jump\t// in\n    tag_183:\n        /* \"DiscoCats.sol\":2511:2713  require(... */\n      tag_185\n      jumpi\n      mload(0x40)\n      0x08c379a000000000000000000000000000000000000000000000000000000000\n      dup2\n      mstore\n      0x04\n      add\n      tag_186\n      swap1\n      tag_187\n      jump\t// in\n    tag_186:\n      mload(0x40)\n      dup1\n      swap2\n      sub\n      swap1\n      revert\n    tag_185:\n        /* \"DiscoCats.sol\":2723:2749  Project storage newProject */\n      0x00\n        /* \"DiscoCats.sol\":2752:2760  projects */\n      0x09\n        /* \"DiscoCats.sol\":2752:2764  projects[id] */\n      0x00\n        /* \"DiscoCats.sol\":2761:2763  id */\n      dup6\n        /* \"DiscoCats.sol\":2752:2764  projects[id] */\n      dup2\n      mstore\n      0x20\n      add\n      swap1\n      dup2\n      mstore\n      0x20\n      add\n      0x00\n      keccak256\n        /* \"DiscoCats.sol\":2723:2764  Project storage newProject = projects[id] */\n      swap1\n      pop\n        /* \"DiscoCats.sol\":2774:2792  Briber memory temp */\n      tag_188\n      tag_189\n      jump\t// in\n    tag_188:\n        /* \"DiscoCats.sol\":2823:2833  msg.sender */\n      caller\n        /* \"DiscoCats.sol\":2802:2806  temp */\n      dup2\n        /* \"DiscoCats.sol\":2802:2820  temp.briberAddress */\n      0x00\n      add\n        /* \"DiscoCats.sol\":2802:2833  temp.briberAddress = msg.sender */\n      swap1\n      0xffffffffffffffffffffffffffffffffffffffff\n      and\n      swap1\n      dup2\n      0xffffffffffffffffffffffffffffffffffffffff\n      and\n      dup2\n      mstore\n      pop\n      pop\n        /* \"DiscoCats.sol\":2863:2876  _tokenAddress */\n      dup4\n        /* \"DiscoCats.sol\":2843:2847  temp */\n      dup2\n        /* \"DiscoCats.sol\":2843:2860  temp.tokenAddress */\n      0x20\n      add\n        /* \"DiscoCats.sol\":2843:2876  temp.tokenAddress = _tokenAddress */\n      swap1\n      0xffffffffffffffffffffffffffffffffffffffff\n      and\n      swap1\n      dup2\n      0xffffffffffffffffffffffffffffffffffffffff\n      and\n      dup2\n      mstore\n      pop\n      pop\n        /* \"DiscoCats.sol\":2903:2915  _tokenAmount */\n      dup3\n        /* \"DiscoCats.sol\":2886:2890  temp */\n      dup2\n        /* \"DiscoCats.sol\":2886:2900  temp.tokenAmnt */\n      0x40\n      add\n        /* \"DiscoCats.sol\":2886:2915  temp.tokenAmnt = _tokenAmount */\n      dup2\n      dup2\n      mstore\n      pop\n      pop\n        /* \"DiscoCats.sol\":2925:2935  newProject */\n      dup2\n        /* \"DiscoCats.sol\":2925:2943  newProject.bribers */\n      0x02\n      add\n        /* \"DiscoCats.sol\":2949:2953  temp */\n      dup2\n        /* \"DiscoCats.sol\":2925:2954  newProject.bribers.push(temp) */\n      swap1\n      dup1\n      0x01\n      dup2\n      sload\n      add\n      dup1\n      dup3\n      sstore\n      dup1\n      swap2\n      pop\n      pop\n      0x01\n      swap1\n      sub\n      swap1\n      0x00\n      mstore\n      keccak256(0x00, 0x20)\n      swap1\n      0x03\n      mul\n      add\n      0x00\n      swap1\n      swap2\n      swap1\n      swap2\n      swap1\n      swap2\n      pop\n      0x00\n      dup3\n      add\n      mload\n      dup2\n      0x00\n      add\n      exp(0x0100, 0x00)\n      dup2\n      sload\n      dup2\n      0xffffffffffffffffffffffffffffffffffffffff\n      mul\n      not\n      and\n      swap1\n      dup4\n      0xffffffffffffffffffffffffffffffffffffffff\n      and\n      mul\n      or\n      swap1\n      sstore\n      pop\n      0x20\n      dup3\n      add\n      mload\n      dup2\n      0x01\n      add\n      exp(0x0100, 0x00)\n      dup2\n      sload\n      dup2\n      0xffffffffffffffffffffffffffffffffffffffff\n      mul\n      not\n      and\n      swap1\n      dup4\n      0xffffffffffffffffffffffffffffffffffffffff\n      and\n      mul\n      or\n      swap1\n      sstore\n      pop\n      0x40\n      dup3\n      add\n      mload\n      dup2\n      0x02\n      add\n      sstore\n      pop\n      pop\n        /* \"DiscoCats.sol\":2140:2970  {... */\n      pop\n      pop\n        /* \"DiscoCats.sol\":2018:2970  function incentiviseProject(... */\n      pop\n      pop\n      pop\n      jump\t// out\n        /* \"DiscoCats.sol\":401:432  uint256 public projectCount = 0 */\n    tag_58:\n      sload(0x03)\n      dup2\n      jump\t// out\n        /* \"DiscoCats.sol\":5022:5899  function claim(uint256 _projectId) public {... */\n    tag_62:\n        /* \"DiscoCats.sol\":5170:5182  votingPeriod */\n      sload(0x02)\n        /* \"DiscoCats.sol\":5151:5166  block.timestamp */\n      timestamp\n        /* \"DiscoCats.sol\":5151:5182  block.timestamp >= votingPeriod */\n      lt\n      iszero\n        /* \"DiscoCats.sol\":5143:5201  require(block.timestamp >= votingPeriod, \"cant do it now\") */\n      tag_192\n      jumpi\n      mload(0x40)\n      0x08c379a000000000000000000000000000000000000000000000000000000000\n      dup2\n      mstore\n      0x04\n      add\n      tag_193\n      swap1\n      tag_114\n      jump\t// in\n    tag_193:\n      mload(0x40)\n      dup1\n      swap2\n      sub\n      swap1\n      revert\n    tag_192:\n        /* \"DiscoCats.sol\":5247:5267  getWinnerProjectId() */\n      tag_194\n        /* \"DiscoCats.sol\":5247:5265  getWinnerProjectId */\n      tag_105\n        /* \"DiscoCats.sol\":5247:5267  getWinnerProjectId() */\n      jump\t// in\n    tag_194:\n        /* \"DiscoCats.sol\":5233:5243  _projectId */\n      dup2\n        /* \"DiscoCats.sol\":5233:5267  _projectId != getWinnerProjectId() */\n      sub\n        /* \"DiscoCats.sol\":5212:5318  require(... */\n      tag_195\n      jumpi\n      mload(0x40)\n      0x08c379a000000000000000000000000000000000000000000000000000000000\n      dup2\n      mstore\n      0x04\n      add\n      tag_196\n      swap1\n      tag_197\n      jump\t// in\n    tag_196:\n      mload(0x40)\n      dup1\n      swap2\n      sub\n      swap1\n      revert\n    tag_195:\n        /* \"DiscoCats.sol\":5360:5386  Project storage newProject */\n      0x00\n        /* \"DiscoCats.sol\":5389:5397  projects */\n      0x09\n        /* \"DiscoCats.sol\":5389:5409  projects[_projectId] */\n      0x00\n        /* \"DiscoCats.sol\":5398:5408  _projectId */\n      dup4\n        /* \"DiscoCats.sol\":5389:5409  projects[_projectId] */\n      dup2\n      mstore\n      0x20\n      add\n      swap1\n      dup2\n      mstore\n      0x20\n      add\n      0x00\n      keccak256\n        /* \"DiscoCats.sol\":5360:5409  Project storage newProject = projects[_projectId] */\n      swap1\n      pop\n        /* \"DiscoCats.sol\":5424:5433  uint256 i */\n      0x00\n        /* \"DiscoCats.sol\":5419:5893  for (uint256 i = 0; i < newProject.bribers.length; i++) {... */\n    tag_198:\n        /* \"DiscoCats.sol\":5443:5453  newProject */\n      dup2\n        /* \"DiscoCats.sol\":5443:5461  newProject.bribers */\n      0x02\n      add\n        /* \"DiscoCats.sol\":5443:5468  newProject.bribers.length */\n      dup1\n      sload\n      swap1\n      pop\n        /* \"DiscoCats.sol\":5439:5440  i */\n      dup2\n        /* \"DiscoCats.sol\":5439:5468  i < newProject.bribers.length */\n      lt\n        /* \"DiscoCats.sol\":5419:5893  for (uint256 i = 0; i < newProject.bribers.length; i++) {... */\n      iszero\n      tag_199\n      jumpi\n        /* \"DiscoCats.sol\":5532:5542  msg.sender */\n      caller\n        /* \"DiscoCats.sol\":5493:5542  newProject.bribers[i].briberAddress == msg.sender */\n      0xffffffffffffffffffffffffffffffffffffffff\n      and\n        /* \"DiscoCats.sol\":5493:5503  newProject */\n      dup3\n        /* \"DiscoCats.sol\":5493:5511  newProject.bribers */\n      0x02\n      add\n        /* \"DiscoCats.sol\":5512:5513  i */\n      dup3\n        /* \"DiscoCats.sol\":5493:5514  newProject.bribers[i] */\n      dup2\n      sload\n      dup2\n      lt\n      tag_201\n      jumpi\n      tag_202\n      tag_203\n      jump\t// in\n    tag_202:\n    tag_201:\n      swap1\n      0x00\n      mstore\n      keccak256(0x00, 0x20)\n      swap1\n      0x03\n      mul\n      add\n        /* \"DiscoCats.sol\":5493:5528  newProject.bribers[i].briberAddress */\n      0x00\n      add\n      0x00\n      swap1\n      sload\n      swap1\n      0x0100\n      exp\n      swap1\n      div\n      0xffffffffffffffffffffffffffffffffffffffff\n      and\n        /* \"DiscoCats.sol\":5493:5542  newProject.bribers[i].briberAddress == msg.sender */\n      0xffffffffffffffffffffffffffffffffffffffff\n      and\n      sub\n        /* \"DiscoCats.sol\":5489:5883  if (newProject.bribers[i].briberAddress == msg.sender) {... */\n      tag_205\n      jumpi\n        /* \"DiscoCats.sol\":5598:5608  newProject */\n      dup2\n        /* \"DiscoCats.sol\":5598:5616  newProject.bribers */\n      0x02\n      add\n        /* \"DiscoCats.sol\":5617:5618  i */\n      dup2\n        /* \"DiscoCats.sol\":5598:5619  newProject.bribers[i] */\n      dup2\n      sload\n      dup2\n      lt\n      tag_206\n      jumpi\n      tag_207\n      tag_203\n      jump\t// in\n    tag_207:\n    tag_206:\n      swap1\n      0x00\n      mstore\n      keccak256(0x00, 0x20)\n      swap1\n      0x03\n      mul\n      add\n        /* \"DiscoCats.sol\":5598:5632  newProject.bribers[i].tokenAddress */\n      0x01\n      add\n      0x00\n      swap1\n      sload\n      swap1\n      0x0100\n      exp\n      swap1\n      div\n      0xffffffffffffffffffffffffffffffffffffffff\n      and\n        /* \"DiscoCats.sol\":5591:5642  IERC20(newProject.bribers[i].tokenAddress).transfer */\n      0xffffffffffffffffffffffffffffffffffffffff\n      and\n      0xa9059cbb\n        /* \"DiscoCats.sol\":5668:5678  msg.sender */\n      caller\n        /* \"DiscoCats.sol\":5704:5714  newProject */\n      dup5\n        /* \"DiscoCats.sol\":5704:5722  newProject.bribers */\n      0x02\n      add\n        /* \"DiscoCats.sol\":5723:5724  i */\n      dup5\n        /* \"DiscoCats.sol\":5704:5725  newProject.bribers[i] */\n      dup2\n      sload\n      dup2\n      lt\n      tag_209\n      jumpi\n      tag_210\n      tag_203\n      jump\t// in\n    tag_210:\n    tag_209:\n      swap1\n      0x00\n      mstore\n      keccak256(0x00, 0x20)\n      swap1\n      0x03\n      mul\n      add\n        /* \"DiscoCats.sol\":5704:5735  newProject.bribers[i].tokenAmnt */\n      0x02\n      add\n      sload\n        /* \"DiscoCats.sol\":5591:5757  IERC20(newProject.bribers[i].tokenAddress).transfer(... */\n      mload(0x40)\n      dup4\n      0xffffffff\n      and\n      0xe0\n      shl\n      dup2\n      mstore\n      0x04\n      add\n      tag_212\n      swap3\n      swap2\n      swap1\n      tag_213\n      jump\t// in\n    tag_212:\n      0x20\n      mload(0x40)\n      dup1\n      dup4\n      sub\n      dup2\n      0x00\n      dup8\n      gas\n      call\n      iszero\n      dup1\n      iszero\n      tag_215\n      jumpi\n      returndatasize\n      0x00\n      dup1\n      returndatacopy\n      revert(0x00, returndatasize)\n    tag_215:\n      pop\n      pop\n      pop\n      pop\n      mload(0x40)\n      returndatasize\n      not(0x1f)\n      0x1f\n      dup3\n      add\n      and\n      dup3\n      add\n      dup1\n      0x40\n      mstore\n      pop\n      dup2\n      add\n      swap1\n      tag_216\n      swap2\n      swap1\n      tag_184\n      jump\t// in\n    tag_216:\n        /* \"DiscoCats.sol\":5562:5817  require(... */\n      tag_217\n      jumpi\n      mload(0x40)\n      0x08c379a000000000000000000000000000000000000000000000000000000000\n      dup2\n      mstore\n      0x04\n      add\n      tag_218\n      swap1\n      tag_187\n      jump\t// in\n    tag_218:\n      mload(0x40)\n      dup1\n      swap2\n      sub\n      swap1\n      revert\n    tag_217:\n        /* \"DiscoCats.sol\":5867:5868  0 */\n      0x00\n        /* \"DiscoCats.sol\":5835:5845  newProject */\n      dup3\n        /* \"DiscoCats.sol\":5835:5853  newProject.bribers */\n      0x02\n      add\n        /* \"DiscoCats.sol\":5854:5855  i */\n      dup3\n        /* \"DiscoCats.sol\":5835:5856  newProject.bribers[i] */\n      dup2\n      sload\n      dup2\n      lt\n      tag_219\n      jumpi\n      tag_220\n      tag_203\n      jump\t// in\n    tag_220:\n    tag_219:\n      swap1\n      0x00\n      mstore\n      keccak256(0x00, 0x20)\n      swap1\n      0x03\n      mul\n      add\n        /* \"DiscoCats.sol\":5835:5866  newProject.bribers[i].tokenAmnt */\n      0x02\n      add\n        /* \"DiscoCats.sol\":5835:5868  newProject.bribers[i].tokenAmnt=0 */\n      dup2\n      swap1\n      sstore\n      pop\n        /* \"DiscoCats.sol\":5489:5883  if (newProject.bribers[i].briberAddress == msg.sender) {... */\n    tag_205:\n        /* \"DiscoCats.sol\":5470:5473  i++ */\n      dup1\n      dup1\n      0x01\n      add\n      swap2\n      pop\n      pop\n        /* \"DiscoCats.sol\":5419:5893  for (uint256 i = 0; i < newProject.bribers.length; i++) {... */\n      jump(tag_198)\n    tag_199:\n      pop\n        /* \"DiscoCats.sol\":5064:5899  {... */\n      pop\n        /* \"DiscoCats.sol\":5022:5899  function claim(uint256 _projectId) public {... */\n      pop\n      jump\t// out\n        /* \"DiscoCats.sol\":1019:1061  mapping(uint256 => bool) public tokenVoted */\n    tag_65:\n      mstore(0x20, 0x08)\n      dup1\n      0x00\n      mstore\n      keccak256(0x00, 0x40)\n      0x00\n      swap2\n      pop\n      sload\n      swap1\n      0x0100\n      exp\n      swap1\n      div\n      0xff\n      and\n      dup2\n      jump\t// out\n        /* \"DiscoCats.sol\":328:362  uint256 public incentivizingPeriod */\n    tag_69:\n      sload(0x01)\n      dup2\n      jump\t// out\n        /* \"DiscoCats.sol\":4207:4552  function getStatus() external view returns (uint256 _status) {... */\n    tag_72:\n        /* \"DiscoCats.sol\":4251:4266  uint256 _status */\n      0x00\n        /* \"DiscoCats.sol\":4301:4320  incentivizingPeriod */\n      sload(0x01)\n        /* \"DiscoCats.sol\":4282:4297  block.timestamp */\n      timestamp\n        /* \"DiscoCats.sol\":4282:4320  block.timestamp <= incentivizingPeriod */\n      gt\n        /* \"DiscoCats.sol\":4278:4546  if (block.timestamp <= incentivizingPeriod) {... */\n      tag_223\n      jumpi\n        /* \"DiscoCats.sol\":4343:4344  0 */\n      0x00\n        /* \"DiscoCats.sol\":4336:4344  return 0 */\n      swap1\n      pop\n      jump(tag_222)\n        /* \"DiscoCats.sol\":4278:4546  if (block.timestamp <= incentivizingPeriod) {... */\n    tag_223:\n        /* \"DiscoCats.sol\":4397:4416  incentivizingPeriod */\n      sload(0x01)\n        /* \"DiscoCats.sol\":4378:4393  block.timestamp */\n      timestamp\n        /* \"DiscoCats.sol\":4378:4416  block.timestamp >= incentivizingPeriod */\n      lt\n      iszero\n        /* \"DiscoCats.sol\":4378:4463  block.timestamp >= incentivizingPeriod &&... */\n      dup1\n      iszero\n      tag_225\n      jumpi\n      pop\n        /* \"DiscoCats.sol\":4451:4463  votingPeriod */\n      sload(0x02)\n        /* \"DiscoCats.sol\":4432:4447  block.timestamp */\n      timestamp\n        /* \"DiscoCats.sol\":4432:4463  block.timestamp <= votingPeriod */\n      gt\n      iszero\n        /* \"DiscoCats.sol\":4378:4463  block.timestamp >= incentivizingPeriod &&... */\n    tag_225:\n        /* \"DiscoCats.sol\":4361:4546  if (... */\n      iszero\n      tag_226\n      jumpi\n        /* \"DiscoCats.sol\":4495:4496  1 */\n      0x01\n        /* \"DiscoCats.sol\":4488:4496  return 1 */\n      swap1\n      pop\n      jump(tag_222)\n        /* \"DiscoCats.sol\":4361:4546  if (... */\n    tag_226:\n        /* \"DiscoCats.sol\":4534:4535  2 */\n      0x02\n        /* \"DiscoCats.sol\":4527:4535  return 2 */\n      swap1\n      pop\n        /* \"DiscoCats.sol\":4207:4552  function getStatus() external view returns (uint256 _status) {... */\n    tag_222:\n      swap1\n      jump\t// out\n        /* \"@openzeppelin/contracts/access/Ownable.sol\":2293:2394  function renounceOwnership() public virtual onlyOwner {... */\n    tag_75:\n        /* \"@openzeppelin/contracts/access/Ownable.sol\":1531:1544  _checkOwner() */\n      tag_229\n        /* \"@openzeppelin/contracts/access/Ownable.sol\":1531:1542  _checkOwner */\n      tag_150\n        /* \"@openzeppelin/contracts/access/Ownable.sol\":1531:1544  _checkOwner() */\n      jump\t// in\n    tag_229:\n        /* \"@openzeppelin/contracts/access/Ownable.sol\":2357:2387  _transferOwnership(address(0)) */\n      tag_231\n        /* \"@openzeppelin/contracts/access/Ownable.sol\":2384:2385  0 */\n      0x00\n        /* \"@openzeppelin/contracts/access/Ownable.sol\":2357:2375  _transferOwnership */\n      tag_232\n        /* \"@openzeppelin/contracts/access/Ownable.sol\":2357:2387  _transferOwnership(address(0)) */\n      jump\t// in\n    tag_231:\n        /* \"@openzeppelin/contracts/access/Ownable.sol\":2293:2394  function renounceOwnership() public virtual onlyOwner {... */\n      jump\t// out\n        /* \"@openzeppelin/contracts/access/Ownable.sol\":1638:1723  function owner() public view virtual returns (address) {... */\n    tag_77:\n        /* \"@openzeppelin/contracts/access/Ownable.sol\":1684:1691  address */\n      0x00\n        /* \"@openzeppelin/contracts/access/Ownable.sol\":1710:1716  _owner */\n      dup1\n      0x00\n      swap1\n      sload\n      swap1\n      0x0100\n      exp\n      swap1\n      div\n      0xffffffffffffffffffffffffffffffffffffffff\n      and\n        /* \"@openzeppelin/contracts/access/Ownable.sol\":1703:1716  return _owner */\n      swap1\n      pop\n        /* \"@openzeppelin/contracts/access/Ownable.sol\":1638:1723  function owner() public view virtual returns (address) {... */\n      swap1\n      jump\t// out\n        /* \"DiscoCats.sol\":900:941  mapping(address => uint256) public voters */\n    tag_82:\n      mstore(0x20, 0x05)\n      dup1\n      0x00\n      mstore\n      keccak256(0x00, 0x40)\n      0x00\n      swap2\n      pop\n      swap1\n      pop\n      sload\n      dup2\n      jump\t// out\n        /* \"DiscoCats.sol\":438:471  address public nftContractAddress */\n    tag_85:\n      0x04\n      0x00\n      swap1\n      sload\n      swap1\n      0x0100\n      exp\n      swap1\n      div\n      0xffffffffffffffffffffffffffffffffffffffff\n      and\n      dup2\n      jump\t// out\n        /* \"DiscoCats.sol\":6671:7201  function changeState(uint256 _stateNumber) public onlyOwner {... */\n    tag_89:\n        /* \"@openzeppelin/contracts/access/Ownable.sol\":1531:1544  _checkOwner() */\n      tag_235\n        /* \"@openzeppelin/contracts/access/Ownable.sol\":1531:1542  _checkOwner */\n      tag_150\n        /* \"@openzeppelin/contracts/access/Ownable.sol\":1531:1544  _checkOwner() */\n      jump\t// in\n    tag_235:\n        /* \"DiscoCats.sol\":6761:6762  0 */\n      0x00\n        /* \"DiscoCats.sol\":6745:6757  _stateNumber */\n      dup2\n        /* \"DiscoCats.sol\":6745:6762  _stateNumber == 0 */\n      sub\n        /* \"DiscoCats.sol\":6741:6822  if (_stateNumber == 0) {... */\n      tag_237\n      jumpi\n        /* \"DiscoCats.sol\":6787:6811  govtStatus.incentivising */\n      0x00\n        /* \"DiscoCats.sol\":6778:6784  status */\n      0x04\n      0x14\n        /* \"DiscoCats.sol\":6778:6811  status = govtStatus.incentivising */\n      0x0100\n      exp\n      dup2\n      sload\n      dup2\n      0xff\n      mul\n      not\n      and\n      swap1\n      dup4\n      0x02\n      dup2\n      gt\n      iszero\n      tag_238\n      jumpi\n      tag_239\n      tag_240\n      jump\t// in\n    tag_239:\n    tag_238:\n      mul\n      or\n      swap1\n      sstore\n      pop\n        /* \"DiscoCats.sol\":6741:6822  if (_stateNumber == 0) {... */\n    tag_237:\n        /* \"DiscoCats.sol\":6851:6852  1 */\n      0x01\n        /* \"DiscoCats.sol\":6835:6847  _stateNumber */\n      dup2\n        /* \"DiscoCats.sol\":6835:6852  _stateNumber == 1 */\n      sub\n        /* \"DiscoCats.sol\":6831:6905  if (_stateNumber == 1) {... */\n      tag_241\n      jumpi\n        /* \"DiscoCats.sol\":6877:6894  govtStatus.voting */\n      0x01\n        /* \"DiscoCats.sol\":6868:6874  status */\n      0x04\n      0x14\n        /* \"DiscoCats.sol\":6868:6894  status = govtStatus.voting */\n      0x0100\n      exp\n      dup2\n      sload\n      dup2\n      0xff\n      mul\n      not\n      and\n      swap1\n      dup4\n      0x02\n      dup2\n      gt\n      iszero\n      tag_242\n      jumpi\n      tag_243\n      tag_240\n      jump\t// in\n    tag_243:\n    tag_242:\n      mul\n      or\n      swap1\n      sstore\n      pop\n        /* \"DiscoCats.sol\":6831:6905  if (_stateNumber == 1) {... */\n    tag_241:\n        /* \"DiscoCats.sol\":6934:6935  2 */\n      0x02\n        /* \"DiscoCats.sol\":6918:6930  _stateNumber */\n      dup2\n        /* \"DiscoCats.sol\":6918:6935  _stateNumber == 2 */\n      sub\n        /* \"DiscoCats.sol\":6914:7195  if (_stateNumber == 2) {... */\n      tag_244\n      jumpi\n        /* \"DiscoCats.sol\":7165:7184  govtStatus.claiming */\n      0x02\n        /* \"DiscoCats.sol\":7156:7162  status */\n      0x04\n      0x14\n        /* \"DiscoCats.sol\":7156:7184  status = govtStatus.claiming */\n      0x0100\n      exp\n      dup2\n      sload\n      dup2\n      0xff\n      mul\n      not\n      and\n      swap1\n      dup4\n      0x02\n      dup2\n      gt\n      iszero\n      tag_245\n      jumpi\n      tag_246\n      tag_240\n      jump\t// in\n    tag_246:\n    tag_245:\n      mul\n      or\n      swap1\n      sstore\n      pop\n        /* \"DiscoCats.sol\":6914:7195  if (_stateNumber == 2) {... */\n    tag_244:\n        /* \"DiscoCats.sol\":6671:7201  function changeState(uint256 _stateNumber) public onlyOwner {... */\n      pop\n      jump\t// out\n        /* \"DiscoCats.sol\":4558:4727  function briberInfo(uint256 _projectId)... */\n    tag_92:\n        /* \"DiscoCats.sol\":4645:4669  Briber[] memory _bribers */\n      0x60\n        /* \"DiscoCats.sol\":4692:4700  projects */\n      0x09\n        /* \"DiscoCats.sol\":4692:4712  projects[_projectId] */\n      0x00\n        /* \"DiscoCats.sol\":4701:4711  _projectId */\n      dup4\n        /* \"DiscoCats.sol\":4692:4712  projects[_projectId] */\n      dup2\n      mstore\n      0x20\n      add\n      swap1\n      dup2\n      mstore\n      0x20\n      add\n      0x00\n      keccak256\n        /* \"DiscoCats.sol\":4692:4720  projects[_projectId].bribers */\n      0x02\n      add\n        /* \"DiscoCats.sol\":4685:4720  return projects[_projectId].bribers */\n      dup1\n      sload\n      dup1\n      0x20\n      mul\n      0x20\n      add\n      mload(0x40)\n      swap1\n      dup2\n      add\n      0x40\n      mstore\n      dup1\n      swap3\n      swap2\n      swap1\n      dup2\n      dup2\n      mstore\n      0x20\n      add\n      0x00\n      swap1\n    tag_248:\n      dup3\n      dup3\n      lt\n      iszero\n      tag_249\n      jumpi\n      dup4\n      dup3\n      swap1\n      0x00\n      mstore\n      keccak256(0x00, 0x20)\n      swap1\n      0x03\n      mul\n      add\n      mload(0x40)\n      dup1\n      0x60\n      add\n      0x40\n      mstore\n      swap1\n      dup2\n      0x00\n      dup3\n      add\n      0x00\n      swap1\n      sload\n      swap1\n      0x0100\n      exp\n      swap1\n      div\n      0xffffffffffffffffffffffffffffffffffffffff\n      and\n      0xffffffffffffffffffffffffffffffffffffffff\n      and\n      0xffffffffffffffffffffffffffffffffffffffff\n      and\n      dup2\n      mstore\n      0x20\n      add\n      0x01\n      dup3\n      add\n      0x00\n      swap1\n      sload\n      swap1\n      0x0100\n      exp\n      swap1\n      div\n      0xffffffffffffffffffffffffffffffffffffffff\n      and\n      0xffffffffffffffffffffffffffffffffffffffff\n      and\n      0xffffffffffffffffffffffffffffffffffffffff\n      and\n      dup2\n      mstore\n      0x20\n      add\n      0x02\n      dup3\n      add\n      sload\n      dup2\n      mstore\n      pop\n      pop\n      dup2\n      mstore\n      0x20\n      add\n      swap1\n      0x01\n      add\n      swap1\n      jump(tag_248)\n    tag_249:\n      pop\n      pop\n      pop\n      pop\n      swap1\n      pop\n        /* \"DiscoCats.sol\":4558:4727  function briberInfo(uint256 _projectId)... */\n      swap2\n      swap1\n      pop\n      jump\t// out\n        /* \"DiscoCats.sol\":4108:4201  function changelastTokenId(uint256 _id) external onlyOwner {... */\n    tag_97:\n        /* \"@openzeppelin/contracts/access/Ownable.sol\":1531:1544  _checkOwner() */\n      tag_252\n        /* \"@openzeppelin/contracts/access/Ownable.sol\":1531:1542  _checkOwner */\n      tag_150\n        /* \"@openzeppelin/contracts/access/Ownable.sol\":1531:1544  _checkOwner() */\n      jump\t// in\n    tag_252:\n        /* \"DiscoCats.sol\":4191:4194  _id */\n      dup1\n        /* \"DiscoCats.sol\":4177:4188  lastTokenId */\n      0x07\n        /* \"DiscoCats.sol\":4177:4194  lastTokenId = _id */\n      dup2\n      swap1\n      sstore\n      pop\n        /* \"DiscoCats.sol\":4108:4201  function changelastTokenId(uint256 _id) external onlyOwner {... */\n      pop\n      jump\t// out\n        /* \"DiscoCats.sol\":5905:6665  function withdrawWinnerProject(address _receiver) public onlyOwner {... */\n    tag_100:\n        /* \"@openzeppelin/contracts/access/Ownable.sol\":1531:1544  _checkOwner() */\n      tag_255\n        /* \"@openzeppelin/contracts/access/Ownable.sol\":1531:1542  _checkOwner */\n      tag_150\n        /* \"@openzeppelin/contracts/access/Ownable.sol\":1531:1544  _checkOwner() */\n      jump\t// in\n    tag_255:\n        /* \"DiscoCats.sol\":6078:6090  votingPeriod */\n      sload(0x02)\n        /* \"DiscoCats.sol\":6059:6074  block.timestamp */\n      timestamp\n        /* \"DiscoCats.sol\":6059:6090  block.timestamp >= votingPeriod */\n      lt\n      iszero\n        /* \"DiscoCats.sol\":6051:6109  require(block.timestamp >= votingPeriod, \"cant do it now\") */\n      tag_257\n      jumpi\n      mload(0x40)\n      0x08c379a000000000000000000000000000000000000000000000000000000000\n      dup2\n      mstore\n      0x04\n      add\n      tag_258\n      swap1\n      tag_114\n      jump\t// in\n    tag_258:\n      mload(0x40)\n      dup1\n      swap2\n      sub\n      swap1\n      revert\n    tag_257:\n        /* \"DiscoCats.sol\":6195:6211  uint256 winnerId */\n      0x00\n        /* \"DiscoCats.sol\":6214:6234  getWinnerProjectId() */\n      tag_259\n        /* \"DiscoCats.sol\":6214:6232  getWinnerProjectId */\n      tag_105\n        /* \"DiscoCats.sol\":6214:6234  getWinnerProjectId() */\n      jump\t// in\n    tag_259:\n        /* \"DiscoCats.sol\":6195:6234  uint256 winnerId = getWinnerProjectId() */\n      swap1\n      pop\n        /* \"DiscoCats.sol\":6244:6270  Project storage newProject */\n      0x00\n        /* \"DiscoCats.sol\":6273:6281  projects */\n      0x09\n        /* \"DiscoCats.sol\":6273:6291  projects[winnerId] */\n      0x00\n        /* \"DiscoCats.sol\":6282:6290  winnerId */\n      dup4\n        /* \"DiscoCats.sol\":6273:6291  projects[winnerId] */\n      dup2\n      mstore\n      0x20\n      add\n      swap1\n      dup2\n      mstore\n      0x20\n      add\n      0x00\n      keccak256\n        /* \"DiscoCats.sol\":6244:6291  Project storage newProject = projects[winnerId] */\n      swap1\n      pop\n        /* \"DiscoCats.sol\":6306:6315  uint256 i */\n      0x00\n        /* \"DiscoCats.sol\":6301:6659  for (uint256 i = 0; i < newProject.bribers.length; i++) {... */\n    tag_260:\n        /* \"DiscoCats.sol\":6325:6335  newProject */\n      dup2\n        /* \"DiscoCats.sol\":6325:6343  newProject.bribers */\n      0x02\n      add\n        /* \"DiscoCats.sol\":6325:6350  newProject.bribers.length */\n      dup1\n      sload\n      swap1\n      pop\n        /* \"DiscoCats.sol\":6321:6322  i */\n      dup2\n        /* \"DiscoCats.sol\":6321:6350  i < newProject.bribers.length */\n      lt\n        /* \"DiscoCats.sol\":6301:6659  for (uint256 i = 0; i < newProject.bribers.length; i++) {... */\n      iszero\n      tag_261\n      jumpi\n        /* \"DiscoCats.sol\":6403:6413  newProject */\n      dup2\n        /* \"DiscoCats.sol\":6403:6421  newProject.bribers */\n      0x02\n      add\n        /* \"DiscoCats.sol\":6422:6423  i */\n      dup2\n        /* \"DiscoCats.sol\":6403:6424  newProject.bribers[i] */\n      dup2\n      sload\n      dup2\n      lt\n      tag_263\n      jumpi\n      tag_264\n      tag_203\n      jump\t// in\n    tag_264:\n    tag_263:\n      swap1\n      0x00\n      mstore\n      keccak256(0x00, 0x20)\n      swap1\n      0x03\n      mul\n      add\n        /* \"DiscoCats.sol\":6403:6437  newProject.bribers[i].tokenAddress */\n      0x01\n      add\n      0x00\n      swap1\n      sload\n      swap1\n      0x0100\n      exp\n      swap1\n      div\n      0xffffffffffffffffffffffffffffffffffffffff\n      and\n        /* \"DiscoCats.sol\":6396:6447  IERC20(newProject.bribers[i].tokenAddress).transfer */\n      0xffffffffffffffffffffffffffffffffffffffff\n      and\n      0xa9059cbb\n        /* \"DiscoCats.sol\":6469:6478  _receiver */\n      dup6\n        /* \"DiscoCats.sol\":6500:6510  newProject */\n      dup5\n        /* \"DiscoCats.sol\":6500:6518  newProject.bribers */\n      0x02\n      add\n        /* \"DiscoCats.sol\":6519:6520  i */\n      dup5\n        /* \"DiscoCats.sol\":6500:6521  newProject.bribers[i] */\n      dup2\n      sload\n      dup2\n      lt\n      tag_266\n      jumpi\n      tag_267\n      tag_203\n      jump\t// in\n    tag_267:\n    tag_266:\n      swap1\n      0x00\n      mstore\n      keccak256(0x00, 0x20)\n      swap1\n      0x03\n      mul\n      add\n        /* \"DiscoCats.sol\":6500:6531  newProject.bribers[i].tokenAmnt */\n      0x02\n      add\n      sload\n        /* \"DiscoCats.sol\":6396:6549  IERC20(newProject.bribers[i].tokenAddress).transfer(... */\n      mload(0x40)\n      dup4\n      0xffffffff\n      and\n      0xe0\n      shl\n      dup2\n      mstore\n      0x04\n      add\n      tag_269\n      swap3\n      swap2\n      swap1\n      tag_213\n      jump\t// in\n    tag_269:\n      0x20\n      mload(0x40)\n      dup1\n      dup4\n      sub\n      dup2\n      0x00\n      dup8\n      gas\n      call\n      iszero\n      dup1\n      iszero\n      tag_271\n      jumpi\n      returndatasize\n      0x00\n      dup1\n      returndatacopy\n      revert(0x00, returndatasize)\n    tag_271:\n      pop\n      pop\n      pop\n      pop\n      mload(0x40)\n      returndatasize\n      not(0x1f)\n      0x1f\n      dup3\n      add\n      and\n      dup3\n      add\n      dup1\n      0x40\n      mstore\n      pop\n      dup2\n      add\n      swap1\n      tag_272\n      swap2\n      swap1\n      tag_184\n      jump\t// in\n    tag_272:\n        /* \"DiscoCats.sol\":6371:6601  require(... */\n      tag_273\n      jumpi\n      mload(0x40)\n      0x08c379a000000000000000000000000000000000000000000000000000000000\n      dup2\n      mstore\n      0x04\n      add\n      tag_274\n      swap1\n      tag_187\n      jump\t// in\n    tag_274:\n      mload(0x40)\n      dup1\n      swap2\n      sub\n      swap1\n      revert\n    tag_273:\n        /* \"DiscoCats.sol\":6647:6648  0 */\n      0x00\n        /* \"DiscoCats.sol\":6615:6625  newProject */\n      dup3\n        /* \"DiscoCats.sol\":6615:6633  newProject.bribers */\n      0x02\n      add\n        /* \"DiscoCats.sol\":6634:6635  i */\n      dup3\n        /* \"DiscoCats.sol\":6615:6636  newProject.bribers[i] */\n      dup2\n      sload\n      dup2\n      lt\n      tag_275\n      jumpi\n      tag_276\n      tag_203\n      jump\t// in\n    tag_276:\n    tag_275:\n      swap1\n      0x00\n      mstore\n      keccak256(0x00, 0x20)\n      swap1\n      0x03\n      mul\n      add\n        /* \"DiscoCats.sol\":6615:6646  newProject.bribers[i].tokenAmnt */\n      0x02\n      add\n        /* \"DiscoCats.sol\":6615:6648  newProject.bribers[i].tokenAmnt=0 */\n      dup2\n      swap1\n      sstore\n      pop\n        /* \"DiscoCats.sol\":6352:6355  i++ */\n      dup1\n      dup1\n      0x01\n      add\n      swap2\n      pop\n      pop\n        /* \"DiscoCats.sol\":6301:6659  for (uint256 i = 0; i < newProject.bribers.length; i++) {... */\n      jump(tag_260)\n    tag_261:\n      pop\n        /* \"DiscoCats.sol\":5972:6665  {... */\n      pop\n      pop\n        /* \"DiscoCats.sol\":5905:6665  function withdrawWinnerProject(address _receiver) public onlyOwner {... */\n      pop\n      jump\t// out\n        /* \"@openzeppelin/contracts/access/Ownable.sol\":2543:2758  function transferOwnership(address newOwner) public virtual onlyOwner {... */\n    tag_103:\n        /* \"@openzeppelin/contracts/access/Ownable.sol\":1531:1544  _checkOwner() */\n      tag_279\n        /* \"@openzeppelin/contracts/access/Ownable.sol\":1531:1542  _checkOwner */\n      tag_150\n        /* \"@openzeppelin/contracts/access/Ownable.sol\":1531:1544  _checkOwner() */\n      jump\t// in\n    tag_279:\n        /* \"@openzeppelin/contracts/access/Ownable.sol\":2647:2648  0 */\n      0x00\n        /* \"@openzeppelin/contracts/access/Ownable.sol\":2627:2649  newOwner == address(0) */\n      0xffffffffffffffffffffffffffffffffffffffff\n      and\n        /* \"@openzeppelin/contracts/access/Ownable.sol\":2627:2635  newOwner */\n      dup2\n        /* \"@openzeppelin/contracts/access/Ownable.sol\":2627:2649  newOwner == address(0) */\n      0xffffffffffffffffffffffffffffffffffffffff\n      and\n      sub\n        /* \"@openzeppelin/contracts/access/Ownable.sol\":2623:2714  if (newOwner == address(0)) {... */\n      tag_281\n      jumpi\n        /* \"@openzeppelin/contracts/access/Ownable.sol\":2700:2701  0 */\n      0x00\n        /* \"@openzeppelin/contracts/access/Ownable.sol\":2672:2703  OwnableInvalidOwner(address(0)) */\n      mload(0x40)\n      0x1e4fbdf700000000000000000000000000000000000000000000000000000000\n      dup2\n      mstore\n      0x04\n      add\n      tag_282\n      swap2\n      swap1\n      tag_79\n      jump\t// in\n    tag_282:\n      mload(0x40)\n      dup1\n      swap2\n      sub\n      swap1\n      revert\n        /* \"@openzeppelin/contracts/access/Ownable.sol\":2623:2714  if (newOwner == address(0)) {... */\n    tag_281:\n        /* \"@openzeppelin/contracts/access/Ownable.sol\":2723:2751  _transferOwnership(newOwner) */\n      tag_283\n        /* \"@openzeppelin/contracts/access/Ownable.sol\":2742:2750  newOwner */\n      dup2\n        /* \"@openzeppelin/contracts/access/Ownable.sol\":2723:2741  _transferOwnership */\n      tag_232\n        /* \"@openzeppelin/contracts/access/Ownable.sol\":2723:2751  _transferOwnership(newOwner) */\n      jump\t// in\n    tag_283:\n        /* \"@openzeppelin/contracts/access/Ownable.sol\":2543:2758  function transferOwnership(address newOwner) public virtual onlyOwner {... */\n      pop\n      jump\t// out\n        /* \"DiscoCats.sol\":7207:7521  function getWinnerProjectId() public view returns (uint256 _id) {... */\n    tag_105:\n        /* \"DiscoCats.sol\":7258:7269  uint256 _id */\n      0x00\n        /* \"DiscoCats.sol\":7281:7305  uint256 _winnerProjectId */\n      dup1\n        /* \"DiscoCats.sol\":7308:7309  1 */\n      0x01\n        /* \"DiscoCats.sol\":7281:7309  uint256 _winnerProjectId = 1 */\n      swap1\n      pop\n        /* \"DiscoCats.sol\":7324:7333  uint256 i */\n      0x00\n        /* \"DiscoCats.sol\":7336:7337  1 */\n      0x01\n        /* \"DiscoCats.sol\":7324:7337  uint256 i = 1 */\n      swap1\n      pop\n        /* \"DiscoCats.sol\":7319:7482  for (uint256 i = 1; i <= projectCount; i++) {... */\n    tag_285:\n        /* \"DiscoCats.sol\":7344:7356  projectCount */\n      sload(0x03)\n        /* \"DiscoCats.sol\":7339:7340  i */\n      dup2\n        /* \"DiscoCats.sol\":7339:7356  i <= projectCount */\n      gt\n        /* \"DiscoCats.sol\":7319:7482  for (uint256 i = 1; i <= projectCount; i++) {... */\n      tag_286\n      jumpi\n        /* \"DiscoCats.sol\":7401:7417  _winnerProjectId */\n      dup2\n        /* \"DiscoCats.sol\":7381:7389  projects */\n      0x09\n        /* \"DiscoCats.sol\":7381:7392  projects[i] */\n      0x00\n        /* \"DiscoCats.sol\":7390:7391  i */\n      dup4\n        /* \"DiscoCats.sol\":7381:7392  projects[i] */\n      dup2\n      mstore\n      0x20\n      add\n      swap1\n      dup2\n      mstore\n      0x20\n      add\n      0x00\n      keccak256\n        /* \"DiscoCats.sol\":7381:7398  projects[i].votes */\n      0x03\n      add\n      sload\n        /* \"DiscoCats.sol\":7381:7417  projects[i].votes > _winnerProjectId */\n      gt\n        /* \"DiscoCats.sol\":7377:7472  if (projects[i].votes > _winnerProjectId) {... */\n      iszero\n      tag_288\n      jumpi\n        /* \"DiscoCats.sol\":7456:7457  i */\n      dup1\n        /* \"DiscoCats.sol\":7437:7457  _winnerProjectId = i */\n      swap2\n      pop\n        /* \"DiscoCats.sol\":7377:7472  if (projects[i].votes > _winnerProjectId) {... */\n    tag_288:\n        /* \"DiscoCats.sol\":7358:7361  i++ */\n      dup1\n      dup1\n      tag_289\n      swap1\n      tag_144\n      jump\t// in\n    tag_289:\n      swap2\n      pop\n      pop\n        /* \"DiscoCats.sol\":7319:7482  for (uint256 i = 1; i <= projectCount; i++) {... */\n      jump(tag_285)\n    tag_286:\n      pop\n        /* \"DiscoCats.sol\":7498:7514  _winnerProjectId */\n      dup1\n        /* \"DiscoCats.sol\":7491:7514  return _winnerProjectId */\n      swap2\n      pop\n      pop\n        /* \"DiscoCats.sol\":7207:7521  function getWinnerProjectId() public view returns (uint256 _id) {... */\n      swap1\n      jump\t// out\n        /* \"DiscoCats.sol\":982:1013  uint256 public lastTokenId = 10 */\n    tag_108:\n      sload(0x07)\n      dup2\n      jump\t// out\n        /* \"@openzeppelin/contracts/access/Ownable.sol\":1796:1958  function _checkOwner() internal view virtual {... */\n    tag_150:\n        /* \"@openzeppelin/contracts/access/Ownable.sol\":1866:1878  _msgSender() */\n      tag_291\n        /* \"@openzeppelin/contracts/access/Ownable.sol\":1866:1876  _msgSender */\n      tag_292\n        /* \"@openzeppelin/contracts/access/Ownable.sol\":1866:1878  _msgSender() */\n      jump\t// in\n    tag_291:\n        /* \"@openzeppelin/contracts/access/Ownable.sol\":1855:1878  owner() != _msgSender() */\n      0xffffffffffffffffffffffffffffffffffffffff\n      and\n        /* \"@openzeppelin/contracts/access/Ownable.sol\":1855:1862  owner() */\n      tag_293\n        /* \"@openzeppelin/contracts/access/Ownable.sol\":1855:1860  owner */\n      tag_77\n        /* \"@openzeppelin/contracts/access/Ownable.sol\":1855:1862  owner() */\n      jump\t// in\n    tag_293:\n        /* \"@openzeppelin/contracts/access/Ownable.sol\":1855:1878  owner() != _msgSender() */\n      0xffffffffffffffffffffffffffffffffffffffff\n      and\n      eq\n        /* \"@openzeppelin/contracts/access/Ownable.sol\":1851:1952  if (owner() != _msgSender()) {... */\n      tag_294\n      jumpi\n        /* \"@openzeppelin/contracts/access/Ownable.sol\":1928:1940  _msgSender() */\n      tag_295\n        /* \"@openzeppelin/contracts/access/Ownable.sol\":1928:1938  _msgSender */\n      tag_292\n        /* \"@openzeppelin/contracts/access/Ownable.sol\":1928:1940  _msgSender() */\n      jump\t// in\n    tag_295:\n        /* \"@openzeppelin/contracts/access/Ownable.sol\":1901:1941  OwnableUnauthorizedAccount(_msgSender()) */\n      mload(0x40)\n      0x118cdaa700000000000000000000000000000000000000000000000000000000\n      dup2\n      mstore\n      0x04\n      add\n      tag_296\n      swap2\n      swap1\n      tag_79\n      jump\t// in\n    tag_296:\n      mload(0x40)\n      dup1\n      swap2\n      sub\n      swap1\n      revert\n        /* \"@openzeppelin/contracts/access/Ownable.sol\":1851:1952  if (owner() != _msgSender()) {... */\n    tag_294:\n        /* \"@openzeppelin/contracts/access/Ownable.sol\":1796:1958  function _checkOwner() internal view virtual {... */\n      jump\t// out\n        /* \"@openzeppelin/contracts/access/Ownable.sol\":2912:3099  function _transferOwnership(address newOwner) internal virtual {... */\n    tag_232:\n        /* \"@openzeppelin/contracts/access/Ownable.sol\":2985:3001  address oldOwner */\n      0x00\n        /* \"@openzeppelin/contracts/access/Ownable.sol\":3004:3010  _owner */\n      dup1\n      0x00\n      swap1\n      sload\n      swap1\n      0x0100\n      exp\n      swap1\n      div\n      0xffffffffffffffffffffffffffffffffffffffff\n      and\n        /* \"@openzeppelin/contracts/access/Ownable.sol\":2985:3010  address oldOwner = _owner */\n      swap1\n      pop\n        /* \"@openzeppelin/contracts/access/Ownable.sol\":3029:3037  newOwner */\n      dup2\n        /* \"@openzeppelin/contracts/access/Ownable.sol\":3020:3026  _owner */\n      0x00\n      dup1\n        /* \"@openzeppelin/contracts/access/Ownable.sol\":3020:3037  _owner = newOwner */\n      0x0100\n      exp\n      dup2\n      sload\n      dup2\n      0xffffffffffffffffffffffffffffffffffffffff\n      mul\n      not\n      and\n      swap1\n      dup4\n      0xffffffffffffffffffffffffffffffffffffffff\n      and\n      mul\n      or\n      swap1\n      sstore\n      pop\n        /* \"@openzeppelin/contracts/access/Ownable.sol\":3083:3091  newOwner */\n      dup2\n        /* \"@openzeppelin/contracts/access/Ownable.sol\":3052:3092  OwnershipTransferred(oldOwner, newOwner) */\n      0xffffffffffffffffffffffffffffffffffffffff\n      and\n        /* \"@openzeppelin/contracts/access/Ownable.sol\":3073:3081  oldOwner */\n      dup2\n        /* \"@openzeppelin/contracts/access/Ownable.sol\":3052:3092  OwnershipTransferred(oldOwner, newOwner) */\n      0xffffffffffffffffffffffffffffffffffffffff\n      and\n      0x8be0079c531659141344cd1fd0a4f28419497f9722a3daafe3b4186f6b6457e0\n      mload(0x40)\n      mload(0x40)\n      dup1\n      swap2\n      sub\n      swap1\n      log3\n        /* \"@openzeppelin/contracts/access/Ownable.sol\":2975:3099  {... */\n      pop\n        /* \"@openzeppelin/contracts/access/Ownable.sol\":2912:3099  function _transferOwnership(address newOwner) internal virtual {... */\n      pop\n      jump\t// out\n        /* \"@openzeppelin/contracts/utils/Context.sol\":656:752  function _msgSender() internal view virtual returns (address) {... */\n    tag_292:\n        /* \"@openzeppelin/contracts/utils/Context.sol\":709:716  address */\n      0x00\n        /* \"@openzeppelin/contracts/utils/Context.sol\":735:745  msg.sender */\n      caller\n        /* \"@openzeppelin/contracts/utils/Context.sol\":728:745  return msg.sender */\n      swap1\n      pop\n        /* \"@openzeppelin/contracts/utils/Context.sol\":656:752  function _msgSender() internal view virtual returns (address) {... */\n      swap1\n      jump\t// out\n    tag_189:\n      mload(0x40)\n      dup1\n      0x60\n      add\n      0x40\n      mstore\n      dup1\n      and(0xffffffffffffffffffffffffffffffffffffffff, 0x00)\n      dup2\n      mstore\n      0x20\n      add\n      and(0xffffffffffffffffffffffffffffffffffffffff, 0x00)\n      dup2\n      mstore\n      0x20\n      add\n      0x00\n      dup2\n      mstore\n      pop\n      swap1\n      jump\t// out\n        /* \"#utility.yul\":7:82   */\n    tag_299:\n        /* \"#utility.yul\":40:46   */\n      0x00\n        /* \"#utility.yul\":73:75   */\n      0x40\n        /* \"#utility.yul\":67:76   */\n      mload\n        /* \"#utility.yul\":57:76   */\n      swap1\n      pop\n        /* \"#utility.yul\":7:82   */\n      swap1\n      jump\t// out\n        /* \"#utility.yul\":88:205   */\n    tag_300:\n        /* \"#utility.yul\":197:198   */\n      0x00\n        /* \"#utility.yul\":194:195   */\n      dup1\n        /* \"#utility.yul\":187:199   */\n      revert\n        /* \"#utility.yul\":211:328   */\n    tag_301:\n        /* \"#utility.yul\":320:321   */\n      0x00\n        /* \"#utility.yul\":317:318   */\n      dup1\n        /* \"#utility.yul\":310:322   */\n      revert\n        /* \"#utility.yul\":334:411   */\n    tag_302:\n        /* \"#utility.yul\":371:378   */\n      0x00\n        /* \"#utility.yul\":400:405   */\n      dup2\n        /* \"#utility.yul\":389:405   */\n      swap1\n      pop\n        /* \"#utility.yul\":334:411   */\n      swap2\n      swap1\n      pop\n      jump\t// out\n        /* \"#utility.yul\":417:539   */\n    tag_303:\n        /* \"#utility.yul\":490:514   */\n      tag_379\n        /* \"#utility.yul\":508:513   */\n      dup2\n        /* \"#utility.yul\":490:514   */\n      tag_302\n      jump\t// in\n    tag_379:\n        /* \"#utility.yul\":483:488   */\n      dup2\n        /* \"#utility.yul\":480:515   */\n      eq\n        /* \"#utility.yul\":470:533   */\n      tag_380\n      jumpi\n        /* \"#utility.yul\":529:530   */\n      0x00\n        /* \"#utility.yul\":526:527   */\n      dup1\n        /* \"#utility.yul\":519:531   */\n      revert\n        /* \"#utility.yul\":470:533   */\n    tag_380:\n        /* \"#utility.yul\":417:539   */\n      pop\n      jump\t// out\n        /* \"#utility.yul\":545:684   */\n    tag_304:\n        /* \"#utility.yul\":591:596   */\n      0x00\n        /* \"#utility.yul\":629:635   */\n      dup2\n        /* \"#utility.yul\":616:636   */\n      calldataload\n        /* \"#utility.yul\":607:636   */\n      swap1\n      pop\n        /* \"#utility.yul\":645:678   */\n      tag_382\n        /* \"#utility.yul\":672:677   */\n      dup2\n        /* \"#utility.yul\":645:678   */\n      tag_303\n      jump\t// in\n    tag_382:\n        /* \"#utility.yul\":545:684   */\n      swap3\n      swap2\n      pop\n      pop\n      jump\t// out\n        /* \"#utility.yul\":690:1019   */\n    tag_31:\n        /* \"#utility.yul\":749:755   */\n      0x00\n        /* \"#utility.yul\":798:800   */\n      0x20\n        /* \"#utility.yul\":786:795   */\n      dup3\n        /* \"#utility.yul\":777:784   */\n      dup5\n        /* \"#utility.yul\":773:796   */\n      sub\n        /* \"#utility.yul\":769:801   */\n      slt\n        /* \"#utility.yul\":766:885   */\n      iszero\n      tag_384\n      jumpi\n        /* \"#utility.yul\":804:883   */\n      tag_385\n      tag_300\n      jump\t// in\n    tag_385:\n        /* \"#utility.yul\":766:885   */\n    tag_384:\n        /* \"#utility.yul\":924:925   */\n      0x00\n        /* \"#utility.yul\":949:1002   */\n      tag_386\n        /* \"#utility.yul\":994:1001   */\n      dup5\n        /* \"#utility.yul\":985:991   */\n      dup3\n        /* \"#utility.yul\":974:983   */\n      dup6\n        /* \"#utility.yul\":970:992   */\n      add\n        /* \"#utility.yul\":949:1002   */\n      tag_304\n      jump\t// in\n    tag_386:\n        /* \"#utility.yul\":939:1002   */\n      swap2\n      pop\n        /* \"#utility.yul\":895:1012   */\n      pop\n        /* \"#utility.yul\":690:1019   */\n      swap3\n      swap2\n      pop\n      pop\n      jump\t// out\n        /* \"#utility.yul\":1025:1143   */\n    tag_305:\n        /* \"#utility.yul\":1112:1136   */\n      tag_388\n        /* \"#utility.yul\":1130:1135   */\n      dup2\n        /* \"#utility.yul\":1112:1136   */\n      tag_302\n      jump\t// in\n    tag_388:\n        /* \"#utility.yul\":1107:1110   */\n      dup3\n        /* \"#utility.yul\":1100:1137   */\n      mstore\n        /* \"#utility.yul\":1025:1143   */\n      pop\n      pop\n      jump\t// out\n        /* \"#utility.yul\":1149:1371   */\n    tag_36:\n        /* \"#utility.yul\":1242:1246   */\n      0x00\n        /* \"#utility.yul\":1280:1282   */\n      0x20\n        /* \"#utility.yul\":1269:1278   */\n      dup3\n        /* \"#utility.yul\":1265:1283   */\n      add\n        /* \"#utility.yul\":1257:1283   */\n      swap1\n      pop\n        /* \"#utility.yul\":1293:1364   */\n      tag_390\n        /* \"#utility.yul\":1361:1362   */\n      0x00\n        /* \"#utility.yul\":1350:1359   */\n      dup4\n        /* \"#utility.yul\":1346:1363   */\n      add\n        /* \"#utility.yul\":1337:1343   */\n      dup5\n        /* \"#utility.yul\":1293:1364   */\n      tag_305\n      jump\t// in\n    tag_390:\n        /* \"#utility.yul\":1149:1371   */\n      swap3\n      swap2\n      pop\n      pop\n      jump\t// out\n        /* \"#utility.yul\":1377:1503   */\n    tag_306:\n        /* \"#utility.yul\":1414:1421   */\n      0x00\n        /* \"#utility.yul\":1454:1496   */\n      0xffffffffffffffffffffffffffffffffffffffff\n        /* \"#utility.yul\":1447:1452   */\n      dup3\n        /* \"#utility.yul\":1443:1497   */\n      and\n        /* \"#utility.yul\":1432:1497   */\n      swap1\n      pop\n        /* \"#utility.yul\":1377:1503   */\n      swap2\n      swap1\n      pop\n      jump\t// out\n        /* \"#utility.yul\":1509:1605   */\n    tag_307:\n        /* \"#utility.yul\":1546:1553   */\n      0x00\n        /* \"#utility.yul\":1575:1599   */\n      tag_393\n        /* \"#utility.yul\":1593:1598   */\n      dup3\n        /* \"#utility.yul\":1575:1599   */\n      tag_306\n      jump\t// in\n    tag_393:\n        /* \"#utility.yul\":1564:1599   */\n      swap1\n      pop\n        /* \"#utility.yul\":1509:1605   */\n      swap2\n      swap1\n      pop\n      jump\t// out\n        /* \"#utility.yul\":1611:1733   */\n    tag_308:\n        /* \"#utility.yul\":1684:1708   */\n      tag_395\n        /* \"#utility.yul\":1702:1707   */\n      dup2\n        /* \"#utility.yul\":1684:1708   */\n      tag_307\n      jump\t// in\n    tag_395:\n        /* \"#utility.yul\":1677:1682   */\n      dup2\n        /* \"#utility.yul\":1674:1709   */\n      eq\n        /* \"#utility.yul\":1664:1727   */\n      tag_396\n      jumpi\n        /* \"#utility.yul\":1723:1724   */\n      0x00\n        /* \"#utility.yul\":1720:1721   */\n      dup1\n        /* \"#utility.yul\":1713:1725   */\n      revert\n        /* \"#utility.yul\":1664:1727   */\n    tag_396:\n        /* \"#utility.yul\":1611:1733   */\n      pop\n      jump\t// out\n        /* \"#utility.yul\":1739:1878   */\n    tag_309:\n        /* \"#utility.yul\":1785:1790   */\n      0x00\n        /* \"#utility.yul\":1823:1829   */\n      dup2\n        /* \"#utility.yul\":1810:1830   */\n      calldataload\n        /* \"#utility.yul\":1801:1830   */\n      swap1\n      pop\n        /* \"#utility.yul\":1839:1872   */\n      tag_398\n        /* \"#utility.yul\":1866:1871   */\n      dup2\n        /* \"#utility.yul\":1839:1872   */\n      tag_308\n      jump\t// in\n    tag_398:\n        /* \"#utility.yul\":1739:1878   */\n      swap3\n      swap2\n      pop\n      pop\n      jump\t// out\n        /* \"#utility.yul\":1884:2213   */\n    tag_39:\n        /* \"#utility.yul\":1943:1949   */\n      0x00\n        /* \"#utility.yul\":1992:1994   */\n      0x20\n        /* \"#utility.yul\":1980:1989   */\n      dup3\n        /* \"#utility.yul\":1971:1978   */\n      dup5\n        /* \"#utility.yul\":1967:1990   */\n      sub\n        /* \"#utility.yul\":1963:1995   */\n      slt\n        /* \"#utility.yul\":1960:2079   */\n      iszero\n      tag_400\n      jumpi\n        /* \"#utility.yul\":1998:2077   */\n      tag_401\n      tag_300\n      jump\t// in\n    tag_401:\n        /* \"#utility.yul\":1960:2079   */\n    tag_400:\n        /* \"#utility.yul\":2118:2119   */\n      0x00\n        /* \"#utility.yul\":2143:2196   */\n      tag_402\n        /* \"#utility.yul\":2188:2195   */\n      dup5\n        /* \"#utility.yul\":2179:2185   */\n      dup3\n        /* \"#utility.yul\":2168:2177   */\n      dup6\n        /* \"#utility.yul\":2164:2186   */\n      add\n        /* \"#utility.yul\":2143:2196   */\n      tag_309\n      jump\t// in\n    tag_402:\n        /* \"#utility.yul\":2133:2196   */\n      swap2\n      pop\n        /* \"#utility.yul\":2089:2206   */\n      pop\n        /* \"#utility.yul\":1884:2213   */\n      swap3\n      swap2\n      pop\n      pop\n      jump\t// out\n        /* \"#utility.yul\":2219:2318   */\n    tag_310:\n        /* \"#utility.yul\":2271:2277   */\n      0x00\n        /* \"#utility.yul\":2305:2310   */\n      dup2\n        /* \"#utility.yul\":2299:2311   */\n      mload\n        /* \"#utility.yul\":2289:2311   */\n      swap1\n      pop\n        /* \"#utility.yul\":2219:2318   */\n      swap2\n      swap1\n      pop\n      jump\t// out\n        /* \"#utility.yul\":2324:2493   */\n    tag_311:\n        /* \"#utility.yul\":2408:2419   */\n      0x00\n        /* \"#utility.yul\":2442:2448   */\n      dup3\n        /* \"#utility.yul\":2437:2440   */\n      dup3\n        /* \"#utility.yul\":2430:2449   */\n      mstore\n        /* \"#utility.yul\":2482:2486   */\n      0x20\n        /* \"#utility.yul\":2477:2480   */\n      dup3\n        /* \"#utility.yul\":2473:2487   */\n      add\n        /* \"#utility.yul\":2458:2487   */\n      swap1\n      pop\n        /* \"#utility.yul\":2324:2493   */\n      swap3\n      swap2\n      pop\n      pop\n      jump\t// out\n        /* \"#utility.yul\":2499:2638   */\n    tag_312:\n        /* \"#utility.yul\":2588:2594   */\n      dup3\n        /* \"#utility.yul\":2583:2586   */\n      dup2\n        /* \"#utility.yul\":2578:2581   */\n      dup4\n        /* \"#utility.yul\":2572:2595   */\n      mcopy\n        /* \"#utility.yul\":2629:2630   */\n      0x00\n        /* \"#utility.yul\":2620:2626   */\n      dup4\n        /* \"#utility.yul\":2615:2618   */\n      dup4\n        /* \"#utility.yul\":2611:2627   */\n      add\n        /* \"#utility.yul\":2604:2631   */\n      mstore\n        /* \"#utility.yul\":2499:2638   */\n      pop\n      pop\n      pop\n      jump\t// out\n        /* \"#utility.yul\":2644:2746   */\n    tag_313:\n        /* \"#utility.yul\":2685:2691   */\n      0x00\n        /* \"#utility.yul\":2736:2738   */\n      0x1f\n        /* \"#utility.yul\":2732:2739   */\n      not\n        /* \"#utility.yul\":2727:2729   */\n      0x1f\n        /* \"#utility.yul\":2720:2725   */\n      dup4\n        /* \"#utility.yul\":2716:2730   */\n      add\n        /* \"#utility.yul\":2712:2740   */\n      and\n        /* \"#utility.yul\":2702:2740   */\n      swap1\n      pop\n        /* \"#utility.yul\":2644:2746   */\n      swap2\n      swap1\n      pop\n      jump\t// out\n        /* \"#utility.yul\":2752:3129   */\n    tag_314:\n        /* \"#utility.yul\":2840:2843   */\n      0x00\n        /* \"#utility.yul\":2868:2907   */\n      tag_408\n        /* \"#utility.yul\":2901:2906   */\n      dup3\n        /* \"#utility.yul\":2868:2907   */\n      tag_310\n      jump\t// in\n    tag_408:\n        /* \"#utility.yul\":2923:2994   */\n      tag_409\n        /* \"#utility.yul\":2987:2993   */\n      dup2\n        /* \"#utility.yul\":2982:2985   */\n      dup6\n        /* \"#utility.yul\":2923:2994   */\n      tag_311\n      jump\t// in\n    tag_409:\n        /* \"#utility.yul\":2916:2994   */\n      swap4\n      pop\n        /* \"#utility.yul\":3003:3068   */\n      tag_410\n        /* \"#utility.yul\":3061:3067   */\n      dup2\n        /* \"#utility.yul\":3056:3059   */\n      dup6\n        /* \"#utility.yul\":3049:3053   */\n      0x20\n        /* \"#utility.yul\":3042:3047   */\n      dup7\n        /* \"#utility.yul\":3038:3054   */\n      add\n        /* \"#utility.yul\":3003:3068   */\n      tag_312\n      jump\t// in\n    tag_410:\n        /* \"#utility.yul\":3093:3122   */\n      tag_411\n        /* \"#utility.yul\":3115:3121   */\n      dup2\n        /* \"#utility.yul\":3093:3122   */\n      tag_313\n      jump\t// in\n    tag_411:\n        /* \"#utility.yul\":3088:3091   */\n      dup5\n        /* \"#utility.yul\":3084:3123   */\n      add\n        /* \"#utility.yul\":3077:3123   */\n      swap2\n      pop\n        /* \"#utility.yul\":2844:3129   */\n      pop\n        /* \"#utility.yul\":2752:3129   */\n      swap3\n      swap2\n      pop\n      pop\n      jump\t// out\n        /* \"#utility.yul\":3135:3253   */\n    tag_315:\n        /* \"#utility.yul\":3222:3246   */\n      tag_413\n        /* \"#utility.yul\":3240:3245   */\n      dup2\n        /* \"#utility.yul\":3222:3246   */\n      tag_307\n      jump\t// in\n    tag_413:\n        /* \"#utility.yul\":3217:3220   */\n      dup3\n        /* \"#utility.yul\":3210:3247   */\n      mstore\n        /* \"#utility.yul\":3135:3253   */\n      pop\n      pop\n      jump\t// out\n        /* \"#utility.yul\":3259:3792   */\n    tag_48:\n        /* \"#utility.yul\":3428:3432   */\n      0x00\n        /* \"#utility.yul\":3466:3468   */\n      0x60\n        /* \"#utility.yul\":3455:3464   */\n      dup3\n        /* \"#utility.yul\":3451:3469   */\n      add\n        /* \"#utility.yul\":3443:3469   */\n      swap1\n      pop\n        /* \"#utility.yul\":3515:3524   */\n      dup2\n        /* \"#utility.yul\":3509:3513   */\n      dup2\n        /* \"#utility.yul\":3505:3525   */\n      sub\n        /* \"#utility.yul\":3501:3502   */\n      0x00\n        /* \"#utility.yul\":3490:3499   */\n      dup4\n        /* \"#utility.yul\":3486:3503   */\n      add\n        /* \"#utility.yul\":3479:3526   */\n      mstore\n        /* \"#utility.yul\":3543:3621   */\n      tag_415\n        /* \"#utility.yul\":3616:3620   */\n      dup2\n        /* \"#utility.yul\":3607:3613   */\n      dup7\n        /* \"#utility.yul\":3543:3621   */\n      tag_314\n      jump\t// in\n    tag_415:\n        /* \"#utility.yul\":3535:3621   */\n      swap1\n      pop\n        /* \"#utility.yul\":3631:3703   */\n      tag_416\n        /* \"#utility.yul\":3699:3701   */\n      0x20\n        /* \"#utility.yul\":3688:3697   */\n      dup4\n        /* \"#utility.yul\":3684:3702   */\n      add\n        /* \"#utility.yul\":3675:3681   */\n      dup6\n        /* \"#utility.yul\":3631:3703   */\n      tag_315\n      jump\t// in\n    tag_416:\n        /* \"#utility.yul\":3713:3785   */\n      tag_417\n        /* \"#utility.yul\":3781:3783   */\n      0x40\n        /* \"#utility.yul\":3770:3779   */\n      dup4\n        /* \"#utility.yul\":3766:3784   */\n      add\n        /* \"#utility.yul\":3757:3763   */\n      dup5\n        /* \"#utility.yul\":3713:3785   */\n      tag_305\n      jump\t// in\n    tag_417:\n        /* \"#utility.yul\":3259:3792   */\n      swap5\n      swap4\n      pop\n      pop\n      pop\n      pop\n      jump\t// out\n        /* \"#utility.yul\":3798:3915   */\n    tag_316:\n        /* \"#utility.yul\":3907:3908   */\n      0x00\n        /* \"#utility.yul\":3904:3905   */\n      dup1\n        /* \"#utility.yul\":3897:3909   */\n      revert\n        /* \"#utility.yul\":3921:4038   */\n    tag_317:\n        /* \"#utility.yul\":4030:4031   */\n      0x00\n        /* \"#utility.yul\":4027:4028   */\n      dup1\n        /* \"#utility.yul\":4020:4032   */\n      revert\n        /* \"#utility.yul\":4044:4224   */\n    tag_318:\n        /* \"#utility.yul\":4092:4169   */\n      0x4e487b7100000000000000000000000000000000000000000000000000000000\n        /* \"#utility.yul\":4089:4090   */\n      0x00\n        /* \"#utility.yul\":4082:4170   */\n      mstore\n        /* \"#utility.yul\":4189:4193   */\n      0x41\n        /* \"#utility.yul\":4186:4187   */\n      0x04\n        /* \"#utility.yul\":4179:4194   */\n      mstore\n        /* \"#utility.yul\":4213:4217   */\n      0x24\n        /* \"#utility.yul\":4210:4211   */\n      0x00\n        /* \"#utility.yul\":4203:4218   */\n      revert\n        /* \"#utility.yul\":4230:4511   */\n    tag_319:\n        /* \"#utility.yul\":4313:4340   */\n      tag_422\n        /* \"#utility.yul\":4335:4339   */\n      dup3\n        /* \"#utility.yul\":4313:4340   */\n      tag_313\n      jump\t// in\n    tag_422:\n        /* \"#utility.yul\":4305:4311   */\n      dup2\n        /* \"#utility.yul\":4301:4341   */\n      add\n        /* \"#utility.yul\":4443:4449   */\n      dup2\n        /* \"#utility.yul\":4431:4441   */\n      dup2\n        /* \"#utility.yul\":4428:4450   */\n      lt\n        /* \"#utility.yul\":4407:4425   */\n      0xffffffffffffffff\n        /* \"#utility.yul\":4395:4405   */\n      dup3\n        /* \"#utility.yul\":4392:4426   */\n      gt\n        /* \"#utility.yul\":4389:4451   */\n      or\n        /* \"#utility.yul\":4386:4474   */\n      iszero\n      tag_423\n      jumpi\n        /* \"#utility.yul\":4454:4472   */\n      tag_424\n      tag_318\n      jump\t// in\n    tag_424:\n        /* \"#utility.yul\":4386:4474   */\n    tag_423:\n        /* \"#utility.yul\":4494:4504   */\n      dup1\n        /* \"#utility.yul\":4490:4492   */\n      0x40\n        /* \"#utility.yul\":4483:4505   */\n      mstore\n        /* \"#utility.yul\":4273:4511   */\n      pop\n        /* \"#utility.yul\":4230:4511   */\n      pop\n      pop\n      jump\t// out\n        /* \"#utility.yul\":4517:4646   */\n    tag_320:\n        /* \"#utility.yul\":4551:4557   */\n      0x00\n        /* \"#utility.yul\":4578:4598   */\n      tag_426\n      tag_299\n      jump\t// in\n    tag_426:\n        /* \"#utility.yul\":4568:4598   */\n      swap1\n      pop\n        /* \"#utility.yul\":4607:4640   */\n      tag_427\n        /* \"#utility.yul\":4635:4639   */\n      dup3\n        /* \"#utility.yul\":4627:4633   */\n      dup3\n        /* \"#utility.yul\":4607:4640   */\n      tag_319\n      jump\t// in\n    tag_427:\n        /* \"#utility.yul\":4517:4646   */\n      swap2\n      swap1\n      pop\n      jump\t// out\n        /* \"#utility.yul\":4652:4960   */\n    tag_321:\n        /* \"#utility.yul\":4714:4718   */\n      0x00\n        /* \"#utility.yul\":4804:4822   */\n      0xffffffffffffffff\n        /* \"#utility.yul\":4796:4802   */\n      dup3\n        /* \"#utility.yul\":4793:4823   */\n      gt\n        /* \"#utility.yul\":4790:4846   */\n      iszero\n      tag_429\n      jumpi\n        /* \"#utility.yul\":4826:4844   */\n      tag_430\n      tag_318\n      jump\t// in\n    tag_430:\n        /* \"#utility.yul\":4790:4846   */\n    tag_429:\n        /* \"#utility.yul\":4864:4893   */\n      tag_431\n        /* \"#utility.yul\":4886:4892   */\n      dup3\n        /* \"#utility.yul\":4864:4893   */\n      tag_313\n      jump\t// in\n    tag_431:\n        /* \"#utility.yul\":4856:4893   */\n      swap1\n      pop\n        /* \"#utility.yul\":4948:4952   */\n      0x20\n        /* \"#utility.yul\":4942:4946   */\n      dup2\n        /* \"#utility.yul\":4938:4953   */\n      add\n        /* \"#utility.yul\":4930:4953   */\n      swap1\n      pop\n        /* \"#utility.yul\":4652:4960   */\n      swap2\n      swap1\n      pop\n      jump\t// out\n        /* \"#utility.yul\":4966:5114   */\n    tag_322:\n        /* \"#utility.yul\":5064:5070   */\n      dup3\n        /* \"#utility.yul\":5059:5062   */\n      dup2\n        /* \"#utility.yul\":5054:5057   */\n      dup4\n        /* \"#utility.yul\":5041:5071   */\n      calldatacopy\n        /* \"#utility.yul\":5105:5106   */\n      0x00\n        /* \"#utility.yul\":5096:5102   */\n      dup4\n        /* \"#utility.yul\":5091:5094   */\n      dup4\n        /* \"#utility.yul\":5087:5103   */\n      add\n        /* \"#utility.yul\":5080:5107   */\n      mstore\n        /* \"#utility.yul\":4966:5114   */\n      pop\n      pop\n      pop\n      jump\t// out\n        /* \"#utility.yul\":5120:5545   */\n    tag_323:\n        /* \"#utility.yul\":5198:5203   */\n      0x00\n        /* \"#utility.yul\":5223:5289   */\n      tag_434\n        /* \"#utility.yul\":5239:5288   */\n      tag_435\n        /* \"#utility.yul\":5281:5287   */\n      dup5\n        /* \"#utility.yul\":5239:5288   */\n      tag_321\n      jump\t// in\n    tag_435:\n        /* \"#utility.yul\":5223:5289   */\n      tag_320\n      jump\t// in\n    tag_434:\n        /* \"#utility.yul\":5214:5289   */\n      swap1\n      pop\n        /* \"#utility.yul\":5312:5318   */\n      dup3\n        /* \"#utility.yul\":5305:5310   */\n      dup2\n        /* \"#utility.yul\":5298:5319   */\n      mstore\n        /* \"#utility.yul\":5350:5354   */\n      0x20\n        /* \"#utility.yul\":5343:5348   */\n      dup2\n        /* \"#utility.yul\":5339:5355   */\n      add\n        /* \"#utility.yul\":5388:5391   */\n      dup5\n        /* \"#utility.yul\":5379:5385   */\n      dup5\n        /* \"#utility.yul\":5374:5377   */\n      dup5\n        /* \"#utility.yul\":5370:5386   */\n      add\n        /* \"#utility.yul\":5367:5392   */\n      gt\n        /* \"#utility.yul\":5364:5476   */\n      iszero\n      tag_436\n      jumpi\n        /* \"#utility.yul\":5395:5474   */\n      tag_437\n      tag_317\n      jump\t// in\n    tag_437:\n        /* \"#utility.yul\":5364:5476   */\n    tag_436:\n        /* \"#utility.yul\":5485:5539   */\n      tag_438\n        /* \"#utility.yul\":5532:5538   */\n      dup5\n        /* \"#utility.yul\":5527:5530   */\n      dup3\n        /* \"#utility.yul\":5522:5525   */\n      dup6\n        /* \"#utility.yul\":5485:5539   */\n      tag_322\n      jump\t// in\n    tag_438:\n        /* \"#utility.yul\":5204:5545   */\n      pop\n        /* \"#utility.yul\":5120:5545   */\n      swap4\n      swap3\n      pop\n      pop\n      pop\n      jump\t// out\n        /* \"#utility.yul\":5565:5905   */\n    tag_324:\n        /* \"#utility.yul\":5621:5626   */\n      0x00\n        /* \"#utility.yul\":5670:5673   */\n      dup3\n        /* \"#utility.yul\":5663:5667   */\n      0x1f\n        /* \"#utility.yul\":5655:5661   */\n      dup4\n        /* \"#utility.yul\":5651:5668   */\n      add\n        /* \"#utility.yul\":5647:5674   */\n      slt\n        /* \"#utility.yul\":5637:5759   */\n      tag_440\n      jumpi\n        /* \"#utility.yul\":5678:5757   */\n      tag_441\n      tag_316\n      jump\t// in\n    tag_441:\n        /* \"#utility.yul\":5637:5759   */\n    tag_440:\n        /* \"#utility.yul\":5795:5801   */\n      dup2\n        /* \"#utility.yul\":5782:5802   */\n      calldataload\n        /* \"#utility.yul\":5820:5899   */\n      tag_442\n        /* \"#utility.yul\":5895:5898   */\n      dup5\n        /* \"#utility.yul\":5887:5893   */\n      dup3\n        /* \"#utility.yul\":5880:5884   */\n      0x20\n        /* \"#utility.yul\":5872:5878   */\n      dup7\n        /* \"#utility.yul\":5868:5885   */\n      add\n        /* \"#utility.yul\":5820:5899   */\n      tag_323\n      jump\t// in\n    tag_442:\n        /* \"#utility.yul\":5811:5899   */\n      swap2\n      pop\n        /* \"#utility.yul\":5627:5905   */\n      pop\n        /* \"#utility.yul\":5565:5905   */\n      swap3\n      swap2\n      pop\n      pop\n      jump\t// out\n        /* \"#utility.yul\":5911:6420   */\n    tag_51:\n        /* \"#utility.yul\":5980:5986   */\n      0x00\n        /* \"#utility.yul\":6029:6031   */\n      0x20\n        /* \"#utility.yul\":6017:6026   */\n      dup3\n        /* \"#utility.yul\":6008:6015   */\n      dup5\n        /* \"#utility.yul\":6004:6027   */\n      sub\n        /* \"#utility.yul\":6000:6032   */\n      slt\n        /* \"#utility.yul\":5997:6116   */\n      iszero\n      tag_444\n      jumpi\n        /* \"#utility.yul\":6035:6114   */\n      tag_445\n      tag_300\n      jump\t// in\n    tag_445:\n        /* \"#utility.yul\":5997:6116   */\n    tag_444:\n        /* \"#utility.yul\":6183:6184   */\n      0x00\n        /* \"#utility.yul\":6172:6181   */\n      dup3\n        /* \"#utility.yul\":6168:6185   */\n      add\n        /* \"#utility.yul\":6155:6186   */\n      calldataload\n        /* \"#utility.yul\":6213:6231   */\n      0xffffffffffffffff\n        /* \"#utility.yul\":6205:6211   */\n      dup2\n        /* \"#utility.yul\":6202:6232   */\n      gt\n        /* \"#utility.yul\":6199:6316   */\n      iszero\n      tag_446\n      jumpi\n        /* \"#utility.yul\":6235:6314   */\n      tag_447\n      tag_301\n      jump\t// in\n    tag_447:\n        /* \"#utility.yul\":6199:6316   */\n    tag_446:\n        /* \"#utility.yul\":6340:6403   */\n      tag_448\n        /* \"#utility.yul\":6395:6402   */\n      dup5\n        /* \"#utility.yul\":6386:6392   */\n      dup3\n        /* \"#utility.yul\":6375:6384   */\n      dup6\n        /* \"#utility.yul\":6371:6393   */\n      add\n        /* \"#utility.yul\":6340:6403   */\n      tag_324\n      jump\t// in\n    tag_448:\n        /* \"#utility.yul\":6330:6403   */\n      swap2\n      pop\n        /* \"#utility.yul\":6126:6413   */\n      pop\n        /* \"#utility.yul\":5911:6420   */\n      swap3\n      swap2\n      pop\n      pop\n      jump\t// out\n        /* \"#utility.yul\":6426:7045   */\n    tag_55:\n        /* \"#utility.yul\":6503:6509   */\n      0x00\n        /* \"#utility.yul\":6511:6517   */\n      dup1\n        /* \"#utility.yul\":6519:6525   */\n      0x00\n        /* \"#utility.yul\":6568:6570   */\n      0x60\n        /* \"#utility.yul\":6556:6565   */\n      dup5\n        /* \"#utility.yul\":6547:6554   */\n      dup7\n        /* \"#utility.yul\":6543:6566   */\n      sub\n        /* \"#utility.yul\":6539:6571   */\n      slt\n        /* \"#utility.yul\":6536:6655   */\n      iszero\n      tag_450\n      jumpi\n        /* \"#utility.yul\":6574:6653   */\n      tag_451\n      tag_300\n      jump\t// in\n    tag_451:\n        /* \"#utility.yul\":6536:6655   */\n    tag_450:\n        /* \"#utility.yul\":6694:6695   */\n      0x00\n        /* \"#utility.yul\":6719:6772   */\n      tag_452\n        /* \"#utility.yul\":6764:6771   */\n      dup7\n        /* \"#utility.yul\":6755:6761   */\n      dup3\n        /* \"#utility.yul\":6744:6753   */\n      dup8\n        /* \"#utility.yul\":6740:6762   */\n      add\n        /* \"#utility.yul\":6719:6772   */\n      tag_304\n      jump\t// in\n    tag_452:\n        /* \"#utility.yul\":6709:6772   */\n      swap4\n      pop\n        /* \"#utility.yul\":6665:6782   */\n      pop\n        /* \"#utility.yul\":6821:6823   */\n      0x20\n        /* \"#utility.yul\":6847:6900   */\n      tag_453\n        /* \"#utility.yul\":6892:6899   */\n      dup7\n        /* \"#utility.yul\":6883:6889   */\n      dup3\n        /* \"#utility.yul\":6872:6881   */\n      dup8\n        /* \"#utility.yul\":6868:6890   */\n      add\n        /* \"#utility.yul\":6847:6900   */\n      tag_309\n      jump\t// in\n    tag_453:\n        /* \"#utility.yul\":6837:6900   */\n      swap3\n      pop\n        /* \"#utility.yul\":6792:6910   */\n      pop\n        /* \"#utility.yul\":6949:6951   */\n      0x40\n        /* \"#utility.yul\":6975:7028   */\n      tag_454\n        /* \"#utility.yul\":7020:7027   */\n      dup7\n        /* \"#utility.yul\":7011:7017   */\n      dup3\n        /* \"#utility.yul\":7000:7009   */\n      dup8\n        /* \"#utility.yul\":6996:7018   */\n      add\n        /* \"#utility.yul\":6975:7028   */\n      tag_304\n      jump\t// in\n    tag_454:\n        /* \"#utility.yul\":6965:7028   */\n      swap2\n      pop\n        /* \"#utility.yul\":6920:7038   */\n      pop\n        /* \"#utility.yul\":6426:7045   */\n      swap3\n      pop\n      swap3\n      pop\n      swap3\n      jump\t// out\n        /* \"#utility.yul\":7051:7141   */\n    tag_325:\n        /* \"#utility.yul\":7085:7092   */\n      0x00\n        /* \"#utility.yul\":7128:7133   */\n      dup2\n        /* \"#utility.yul\":7121:7134   */\n      iszero\n        /* \"#utility.yul\":7114:7135   */\n      iszero\n        /* \"#utility.yul\":7103:7135   */\n      swap1\n      pop\n        /* \"#utility.yul\":7051:7141   */\n      swap2\n      swap1\n      pop\n      jump\t// out\n        /* \"#utility.yul\":7147:7256   */\n    tag_326:\n        /* \"#utility.yul\":7228:7249   */\n      tag_457\n        /* \"#utility.yul\":7243:7248   */\n      dup2\n        /* \"#utility.yul\":7228:7249   */\n      tag_325\n      jump\t// in\n    tag_457:\n        /* \"#utility.yul\":7223:7226   */\n      dup3\n        /* \"#utility.yul\":7216:7250   */\n      mstore\n        /* \"#utility.yul\":7147:7256   */\n      pop\n      pop\n      jump\t// out\n        /* \"#utility.yul\":7262:7472   */\n    tag_67:\n        /* \"#utility.yul\":7349:7353   */\n      0x00\n        /* \"#utility.yul\":7387:7389   */\n      0x20\n        /* \"#utility.yul\":7376:7385   */\n      dup3\n        /* \"#utility.yul\":7372:7390   */\n      add\n        /* \"#utility.yul\":7364:7390   */\n      swap1\n      pop\n        /* \"#utility.yul\":7400:7465   */\n      tag_459\n        /* \"#utility.yul\":7462:7463   */\n      0x00\n        /* \"#utility.yul\":7451:7460   */\n      dup4\n        /* \"#utility.yul\":7447:7464   */\n      add\n        /* \"#utility.yul\":7438:7444   */\n      dup5\n        /* \"#utility.yul\":7400:7465   */\n      tag_326\n      jump\t// in\n    tag_459:\n        /* \"#utility.yul\":7262:7472   */\n      swap3\n      swap2\n      pop\n      pop\n      jump\t// out\n        /* \"#utility.yul\":7478:7700   */\n    tag_79:\n        /* \"#utility.yul\":7571:7575   */\n      0x00\n        /* \"#utility.yul\":7609:7611   */\n      0x20\n        /* \"#utility.yul\":7598:7607   */\n      dup3\n        /* \"#utility.yul\":7594:7612   */\n      add\n        /* \"#utility.yul\":7586:7612   */\n      swap1\n      pop\n        /* \"#utility.yul\":7622:7693   */\n      tag_461\n        /* \"#utility.yul\":7690:7691   */\n      0x00\n        /* \"#utility.yul\":7679:7688   */\n      dup4\n        /* \"#utility.yul\":7675:7692   */\n      add\n        /* \"#utility.yul\":7666:7672   */\n      dup5\n        /* \"#utility.yul\":7622:7693   */\n      tag_315\n      jump\t// in\n    tag_461:\n        /* \"#utility.yul\":7478:7700   */\n      swap3\n      swap2\n      pop\n      pop\n      jump\t// out\n        /* \"#utility.yul\":7706:7843   */\n    tag_327:\n        /* \"#utility.yul\":7796:7802   */\n      0x00\n        /* \"#utility.yul\":7830:7835   */\n      dup2\n        /* \"#utility.yul\":7824:7836   */\n      mload\n        /* \"#utility.yul\":7814:7836   */\n      swap1\n      pop\n        /* \"#utility.yul\":7706:7843   */\n      swap2\n      swap1\n      pop\n      jump\t// out\n        /* \"#utility.yul\":7849:8056   */\n    tag_328:\n        /* \"#utility.yul\":7971:7982   */\n      0x00\n        /* \"#utility.yul\":8005:8011   */\n      dup3\n        /* \"#utility.yul\":8000:8003   */\n      dup3\n        /* \"#utility.yul\":7993:8012   */\n      mstore\n        /* \"#utility.yul\":8045:8049   */\n      0x20\n        /* \"#utility.yul\":8040:8043   */\n      dup3\n        /* \"#utility.yul\":8036:8050   */\n      add\n        /* \"#utility.yul\":8021:8050   */\n      swap1\n      pop\n        /* \"#utility.yul\":7849:8056   */\n      swap3\n      swap2\n      pop\n      pop\n      jump\t// out\n        /* \"#utility.yul\":8062:8217   */\n    tag_329:\n        /* \"#utility.yul\":8152:8156   */\n      0x00\n        /* \"#utility.yul\":8175:8178   */\n      dup2\n        /* \"#utility.yul\":8167:8178   */\n      swap1\n      pop\n        /* \"#utility.yul\":8205:8209   */\n      0x20\n        /* \"#utility.yul\":8200:8203   */\n      dup3\n        /* \"#utility.yul\":8196:8210   */\n      add\n        /* \"#utility.yul\":8188:8210   */\n      swap1\n      pop\n        /* \"#utility.yul\":8062:8217   */\n      swap2\n      swap1\n      pop\n      jump\t// out\n        /* \"#utility.yul\":8223:8331   */\n    tag_330:\n        /* \"#utility.yul\":8300:8324   */\n      tag_466\n        /* \"#utility.yul\":8318:8323   */\n      dup2\n        /* \"#utility.yul\":8300:8324   */\n      tag_307\n      jump\t// in\n    tag_466:\n        /* \"#utility.yul\":8295:8298   */\n      dup3\n        /* \"#utility.yul\":8288:8325   */\n      mstore\n        /* \"#utility.yul\":8223:8331   */\n      pop\n      pop\n      jump\t// out\n        /* \"#utility.yul\":8337:8445   */\n    tag_331:\n        /* \"#utility.yul\":8414:8438   */\n      tag_468\n        /* \"#utility.yul\":8432:8437   */\n      dup2\n        /* \"#utility.yul\":8414:8438   */\n      tag_302\n      jump\t// in\n    tag_468:\n        /* \"#utility.yul\":8409:8412   */\n      dup3\n        /* \"#utility.yul\":8402:8439   */\n      mstore\n        /* \"#utility.yul\":8337:8445   */\n      pop\n      pop\n      jump\t// out\n        /* \"#utility.yul\":8509:9198   */\n    tag_332:\n        /* \"#utility.yul\":8642:8646   */\n      0x60\n        /* \"#utility.yul\":8637:8640   */\n      dup3\n        /* \"#utility.yul\":8633:8647   */\n      add\n        /* \"#utility.yul\":8738:8742   */\n      0x00\n        /* \"#utility.yul\":8731:8736   */\n      dup3\n        /* \"#utility.yul\":8727:8743   */\n      add\n        /* \"#utility.yul\":8721:8744   */\n      mload\n        /* \"#utility.yul\":8757:8820   */\n      tag_470\n        /* \"#utility.yul\":8814:8818   */\n      0x00\n        /* \"#utility.yul\":8809:8812   */\n      dup6\n        /* \"#utility.yul\":8805:8819   */\n      add\n        /* \"#utility.yul\":8791:8803   */\n      dup3\n        /* \"#utility.yul\":8757:8820   */\n      tag_330\n      jump\t// in\n    tag_470:\n        /* \"#utility.yul\":8657:8830   */\n      pop\n        /* \"#utility.yul\":8920:8924   */\n      0x20\n        /* \"#utility.yul\":8913:8918   */\n      dup3\n        /* \"#utility.yul\":8909:8925   */\n      add\n        /* \"#utility.yul\":8903:8926   */\n      mload\n        /* \"#utility.yul\":8939:9002   */\n      tag_471\n        /* \"#utility.yul\":8996:9000   */\n      0x20\n        /* \"#utility.yul\":8991:8994   */\n      dup6\n        /* \"#utility.yul\":8987:9001   */\n      add\n        /* \"#utility.yul\":8973:8985   */\n      dup3\n        /* \"#utility.yul\":8939:9002   */\n      tag_330\n      jump\t// in\n    tag_471:\n        /* \"#utility.yul\":8840:9012   */\n      pop\n        /* \"#utility.yul\":9099:9103   */\n      0x40\n        /* \"#utility.yul\":9092:9097   */\n      dup3\n        /* \"#utility.yul\":9088:9104   */\n      add\n        /* \"#utility.yul\":9082:9105   */\n      mload\n        /* \"#utility.yul\":9118:9181   */\n      tag_472\n        /* \"#utility.yul\":9175:9179   */\n      0x40\n        /* \"#utility.yul\":9170:9173   */\n      dup6\n        /* \"#utility.yul\":9166:9180   */\n      add\n        /* \"#utility.yul\":9152:9164   */\n      dup3\n        /* \"#utility.yul\":9118:9181   */\n      tag_331\n      jump\t// in\n    tag_472:\n        /* \"#utility.yul\":9022:9191   */\n      pop\n        /* \"#utility.yul\":8611:9198   */\n      pop\n        /* \"#utility.yul\":8509:9198   */\n      pop\n      pop\n      jump\t// out\n        /* \"#utility.yul\":9204:9475   */\n    tag_333:\n        /* \"#utility.yul\":9319:9329   */\n      0x00\n        /* \"#utility.yul\":9340:9432   */\n      tag_474\n        /* \"#utility.yul\":9428:9431   */\n      dup4\n        /* \"#utility.yul\":9420:9426   */\n      dup4\n        /* \"#utility.yul\":9340:9432   */\n      tag_332\n      jump\t// in\n    tag_474:\n        /* \"#utility.yul\":9464:9468   */\n      0x60\n        /* \"#utility.yul\":9459:9462   */\n      dup4\n        /* \"#utility.yul\":9455:9469   */\n      add\n        /* \"#utility.yul\":9441:9469   */\n      swap1\n      pop\n        /* \"#utility.yul\":9204:9475   */\n      swap3\n      swap2\n      pop\n      pop\n      jump\t// out\n        /* \"#utility.yul\":9481:9617   */\n    tag_334:\n        /* \"#utility.yul\":9574:9578   */\n      0x00\n        /* \"#utility.yul\":9606:9610   */\n      0x20\n        /* \"#utility.yul\":9601:9604   */\n      dup3\n        /* \"#utility.yul\":9597:9611   */\n      add\n        /* \"#utility.yul\":9589:9611   */\n      swap1\n      pop\n        /* \"#utility.yul\":9481:9617   */\n      swap2\n      swap1\n      pop\n      jump\t// out\n        /* \"#utility.yul\":9685:10601   */\n    tag_335:\n        /* \"#utility.yul\":9850:9853   */\n      0x00\n        /* \"#utility.yul\":9879:9956   */\n      tag_477\n        /* \"#utility.yul\":9950:9955   */\n      dup3\n        /* \"#utility.yul\":9879:9956   */\n      tag_327\n      jump\t// in\n    tag_477:\n        /* \"#utility.yul\":9972:10081   */\n      tag_478\n        /* \"#utility.yul\":10074:10080   */\n      dup2\n        /* \"#utility.yul\":10069:10072   */\n      dup6\n        /* \"#utility.yul\":9972:10081   */\n      tag_328\n      jump\t// in\n    tag_478:\n        /* \"#utility.yul\":9965:10081   */\n      swap4\n      pop\n        /* \"#utility.yul\":10105:10184   */\n      tag_479\n        /* \"#utility.yul\":10178:10183   */\n      dup4\n        /* \"#utility.yul\":10105:10184   */\n      tag_329\n      jump\t// in\n    tag_479:\n        /* \"#utility.yul\":10207:10214   */\n      dup1\n        /* \"#utility.yul\":10238:10239   */\n      0x00\n        /* \"#utility.yul\":10223:10576   */\n    tag_480:\n        /* \"#utility.yul\":10248:10254   */\n      dup4\n        /* \"#utility.yul\":10245:10246   */\n      dup2\n        /* \"#utility.yul\":10242:10255   */\n      lt\n        /* \"#utility.yul\":10223:10576   */\n      iszero\n      tag_482\n      jumpi\n        /* \"#utility.yul\":10324:10330   */\n      dup2\n        /* \"#utility.yul\":10318:10331   */\n      mload\n        /* \"#utility.yul\":10351:10460   */\n      tag_483\n        /* \"#utility.yul\":10456:10459   */\n      dup9\n        /* \"#utility.yul\":10441:10454   */\n      dup3\n        /* \"#utility.yul\":10351:10460   */\n      tag_333\n      jump\t// in\n    tag_483:\n        /* \"#utility.yul\":10344:10460   */\n      swap8\n      pop\n        /* \"#utility.yul\":10483:10566   */\n      tag_484\n        /* \"#utility.yul\":10559:10565   */\n      dup4\n        /* \"#utility.yul\":10483:10566   */\n      tag_334\n      jump\t// in\n    tag_484:\n        /* \"#utility.yul\":10473:10566   */\n      swap3\n      pop\n        /* \"#utility.yul\":10283:10576   */\n      pop\n        /* \"#utility.yul\":10270:10271   */\n      0x01\n        /* \"#utility.yul\":10267:10268   */\n      dup2\n        /* \"#utility.yul\":10263:10272   */\n      add\n        /* \"#utility.yul\":10258:10272   */\n      swap1\n      pop\n        /* \"#utility.yul\":10223:10576   */\n      jump(tag_480)\n    tag_482:\n        /* \"#utility.yul\":10227:10241   */\n      pop\n        /* \"#utility.yul\":10592:10595   */\n      dup6\n        /* \"#utility.yul\":10585:10595   */\n      swap4\n      pop\n        /* \"#utility.yul\":9855:10601   */\n      pop\n      pop\n      pop\n        /* \"#utility.yul\":9685:10601   */\n      swap3\n      swap2\n      pop\n      pop\n      jump\t// out\n        /* \"#utility.yul\":10607:11072   */\n    tag_94:\n        /* \"#utility.yul\":10796:10800   */\n      0x00\n        /* \"#utility.yul\":10834:10836   */\n      0x20\n        /* \"#utility.yul\":10823:10832   */\n      dup3\n        /* \"#utility.yul\":10819:10837   */\n      add\n        /* \"#utility.yul\":10811:10837   */\n      swap1\n      pop\n        /* \"#utility.yul\":10883:10892   */\n      dup2\n        /* \"#utility.yul\":10877:10881   */\n      dup2\n        /* \"#utility.yul\":10873:10893   */\n      sub\n        /* \"#utility.yul\":10869:10870   */\n      0x00\n        /* \"#utility.yul\":10858:10867   */\n      dup4\n        /* \"#utility.yul\":10854:10871   */\n      add\n        /* \"#utility.yul\":10847:10894   */\n      mstore\n        /* \"#utility.yul\":10911:11065   */\n      tag_486\n        /* \"#utility.yul\":11060:11064   */\n      dup2\n        /* \"#utility.yul\":11051:11057   */\n      dup5\n        /* \"#utility.yul\":10911:11065   */\n      tag_335\n      jump\t// in\n    tag_486:\n        /* \"#utility.yul\":10903:11065   */\n      swap1\n      pop\n        /* \"#utility.yul\":10607:11072   */\n      swap3\n      swap2\n      pop\n      pop\n      jump\t// out\n        /* \"#utility.yul\":11078:11242   */\n    tag_336:\n        /* \"#utility.yul\":11218:11234   */\n      0x63616e7420646f206974206e6f77000000000000000000000000000000000000\n        /* \"#utility.yul\":11214:11215   */\n      0x00\n        /* \"#utility.yul\":11206:11212   */\n      dup3\n        /* \"#utility.yul\":11202:11216   */\n      add\n        /* \"#utility.yul\":11195:11235   */\n      mstore\n        /* \"#utility.yul\":11078:11242   */\n      pop\n      jump\t// out\n        /* \"#utility.yul\":11248:11614   */\n    tag_337:\n        /* \"#utility.yul\":11390:11393   */\n      0x00\n        /* \"#utility.yul\":11411:11478   */\n      tag_489\n        /* \"#utility.yul\":11475:11477   */\n      0x0e\n        /* \"#utility.yul\":11470:11473   */\n      dup4\n        /* \"#utility.yul\":11411:11478   */\n      tag_311\n      jump\t// in\n    tag_489:\n        /* \"#utility.yul\":11404:11478   */\n      swap2\n      pop\n        /* \"#utility.yul\":11487:11580   */\n      tag_490\n        /* \"#utility.yul\":11576:11579   */\n      dup3\n        /* \"#utility.yul\":11487:11580   */\n      tag_336\n      jump\t// in\n    tag_490:\n        /* \"#utility.yul\":11605:11607   */\n      0x20\n        /* \"#utility.yul\":11600:11603   */\n      dup3\n        /* \"#utility.yul\":11596:11608   */\n      add\n        /* \"#utility.yul\":11589:11608   */\n      swap1\n      pop\n        /* \"#utility.yul\":11248:11614   */\n      swap2\n      swap1\n      pop\n      jump\t// out\n        /* \"#utility.yul\":11620:12039   */\n    tag_114:\n        /* \"#utility.yul\":11786:11790   */\n      0x00\n        /* \"#utility.yul\":11824:11826   */\n      0x20\n        /* \"#utility.yul\":11813:11822   */\n      dup3\n        /* \"#utility.yul\":11809:11827   */\n      add\n        /* \"#utility.yul\":11801:11827   */\n      swap1\n      pop\n        /* \"#utility.yul\":11873:11882   */\n      dup2\n        /* \"#utility.yul\":11867:11871   */\n      dup2\n        /* \"#utility.yul\":11863:11883   */\n      sub\n        /* \"#utility.yul\":11859:11860   */\n      0x00\n        /* \"#utility.yul\":11848:11857   */\n      dup4\n        /* \"#utility.yul\":11844:11861   */\n      add\n        /* \"#utility.yul\":11837:11884   */\n      mstore\n        /* \"#utility.yul\":11901:12032   */\n      tag_492\n        /* \"#utility.yul\":12027:12031   */\n      dup2\n        /* \"#utility.yul\":11901:12032   */\n      tag_337\n      jump\t// in\n    tag_492:\n        /* \"#utility.yul\":11893:12032   */\n      swap1\n      pop\n        /* \"#utility.yul\":11620:12039   */\n      swap2\n      swap1\n      pop\n      jump\t// out\n        /* \"#utility.yul\":12045:12211   */\n    tag_338:\n        /* \"#utility.yul\":12185:12203   */\n      0x616f7574206f66206f72646572206e6f00000000000000000000000000000000\n        /* \"#utility.yul\":12181:12182   */\n      0x00\n        /* \"#utility.yul\":12173:12179   */\n      dup3\n        /* \"#utility.yul\":12169:12183   */\n      add\n        /* \"#utility.yul\":12162:12204   */\n      mstore\n        /* \"#utility.yul\":12045:12211   */\n      pop\n      jump\t// out\n        /* \"#utility.yul\":12217:12583   */\n    tag_339:\n        /* \"#utility.yul\":12359:12362   */\n      0x00\n        /* \"#utility.yul\":12380:12447   */\n      tag_495\n        /* \"#utility.yul\":12444:12446   */\n      0x10\n        /* \"#utility.yul\":12439:12442   */\n      dup4\n        /* \"#utility.yul\":12380:12447   */\n      tag_311\n      jump\t// in\n    tag_495:\n        /* \"#utility.yul\":12373:12447   */\n      swap2\n      pop\n        /* \"#utility.yul\":12456:12549   */\n      tag_496\n        /* \"#utility.yul\":12545:12548   */\n      dup3\n        /* \"#utility.yul\":12456:12549   */\n      tag_338\n      jump\t// in\n    tag_496:\n        /* \"#utility.yul\":12574:12576   */\n      0x20\n        /* \"#utility.yul\":12569:12572   */\n      dup3\n        /* \"#utility.yul\":12565:12577   */\n      add\n        /* \"#utility.yul\":12558:12577   */\n      swap1\n      pop\n        /* \"#utility.yul\":12217:12583   */\n      swap2\n      swap1\n      pop\n      jump\t// out\n        /* \"#utility.yul\":12589:13008   */\n    tag_117:\n        /* \"#utility.yul\":12755:12759   */\n      0x00\n        /* \"#utility.yul\":12793:12795   */\n      0x20\n        /* \"#utility.yul\":12782:12791   */\n      dup3\n        /* \"#utility.yul\":12778:12796   */\n      add\n        /* \"#utility.yul\":12770:12796   */\n      swap1\n      pop\n        /* \"#utility.yul\":12842:12851   */\n      dup2\n        /* \"#utility.yul\":12836:12840   */\n      dup2\n        /* \"#utility.yul\":12832:12852   */\n      sub\n        /* \"#utility.yul\":12828:12829   */\n      0x00\n        /* \"#utility.yul\":12817:12826   */\n      dup4\n        /* \"#utility.yul\":12813:12830   */\n      add\n        /* \"#utility.yul\":12806:12853   */\n      mstore\n        /* \"#utility.yul\":12870:13001   */\n      tag_498\n        /* \"#utility.yul\":12996:13000   */\n      dup2\n        /* \"#utility.yul\":12870:13001   */\n      tag_339\n      jump\t// in\n    tag_498:\n        /* \"#utility.yul\":12862:13001   */\n      swap1\n      pop\n        /* \"#utility.yul\":12589:13008   */\n      swap2\n      swap1\n      pop\n      jump\t// out\n        /* \"#utility.yul\":13014:13157   */\n    tag_340:\n        /* \"#utility.yul\":13071:13076   */\n      0x00\n        /* \"#utility.yul\":13102:13108   */\n      dup2\n        /* \"#utility.yul\":13096:13109   */\n      mload\n        /* \"#utility.yul\":13087:13109   */\n      swap1\n      pop\n        /* \"#utility.yul\":13118:13151   */\n      tag_500\n        /* \"#utility.yul\":13145:13150   */\n      dup2\n        /* \"#utility.yul\":13118:13151   */\n      tag_303\n      jump\t// in\n    tag_500:\n        /* \"#utility.yul\":13014:13157   */\n      swap3\n      swap2\n      pop\n      pop\n      jump\t// out\n        /* \"#utility.yul\":13163:13514   */\n    tag_122:\n        /* \"#utility.yul\":13233:13239   */\n      0x00\n        /* \"#utility.yul\":13282:13284   */\n      0x20\n        /* \"#utility.yul\":13270:13279   */\n      dup3\n        /* \"#utility.yul\":13261:13268   */\n      dup5\n        /* \"#utility.yul\":13257:13280   */\n      sub\n        /* \"#utility.yul\":13253:13285   */\n      slt\n        /* \"#utility.yul\":13250:13369   */\n      iszero\n      tag_502\n      jumpi\n        /* \"#utility.yul\":13288:13367   */\n      tag_503\n      tag_300\n      jump\t// in\n    tag_503:\n        /* \"#utility.yul\":13250:13369   */\n    tag_502:\n        /* \"#utility.yul\":13408:13409   */\n      0x00\n        /* \"#utility.yul\":13433:13497   */\n      tag_504\n        /* \"#utility.yul\":13489:13496   */\n      dup5\n        /* \"#utility.yul\":13480:13486   */\n      dup3\n        /* \"#utility.yul\":13469:13478   */\n      dup6\n        /* \"#utility.yul\":13465:13487   */\n      add\n        /* \"#utility.yul\":13433:13497   */\n      tag_340\n      jump\t// in\n    tag_504:\n        /* \"#utility.yul\":13423:13497   */\n      swap2\n      pop\n        /* \"#utility.yul\":13379:13507   */\n      pop\n        /* \"#utility.yul\":13163:13514   */\n      swap3\n      swap2\n      pop\n      pop\n      jump\t// out\n        /* \"#utility.yul\":13520:13686   */\n    tag_341:\n        /* \"#utility.yul\":13660:13678   */\n      0x646f6e74206f776e20746865206e667400000000000000000000000000000000\n        /* \"#utility.yul\":13656:13657   */\n      0x00\n        /* \"#utility.yul\":13648:13654   */\n      dup3\n        /* \"#utility.yul\":13644:13658   */\n      add\n        /* \"#utility.yul\":13637:13679   */\n      mstore\n        /* \"#utility.yul\":13520:13686   */\n      pop\n      jump\t// out\n        /* \"#utility.yul\":13692:14058   */\n    tag_342:\n        /* \"#utility.yul\":13834:13837   */\n      0x00\n        /* \"#utility.yul\":13855:13922   */\n      tag_507\n        /* \"#utility.yul\":13919:13921   */\n      0x10\n        /* \"#utility.yul\":13914:13917   */\n      dup4\n        /* \"#utility.yul\":13855:13922   */\n      tag_311\n      jump\t// in\n    tag_507:\n        /* \"#utility.yul\":13848:13922   */\n      swap2\n      pop\n        /* \"#utility.yul\":13931:14024   */\n      tag_508\n        /* \"#utility.yul\":14020:14023   */\n      dup3\n        /* \"#utility.yul\":13931:14024   */\n      tag_341\n      jump\t// in\n    tag_508:\n        /* \"#utility.yul\":14049:14051   */\n      0x20\n        /* \"#utility.yul\":14044:14047   */\n      dup3\n        /* \"#utility.yul\":14040:14052   */\n      add\n        /* \"#utility.yul\":14033:14052   */\n      swap1\n      pop\n        /* \"#utility.yul\":13692:14058   */\n      swap2\n      swap1\n      pop\n      jump\t// out\n        /* \"#utility.yul\":14064:14483   */\n    tag_125:\n        /* \"#utility.yul\":14230:14234   */\n      0x00\n        /* \"#utility.yul\":14268:14270   */\n      0x20\n        /* \"#utility.yul\":14257:14266   */\n      dup3\n        /* \"#utility.yul\":14253:14271   */\n      add\n        /* \"#utility.yul\":14245:14271   */\n      swap1\n      pop\n        /* \"#utility.yul\":14317:14326   */\n      dup2\n        /* \"#utility.yul\":14311:14315   */\n      dup2\n        /* \"#utility.yul\":14307:14327   */\n      sub\n        /* \"#utility.yul\":14303:14304   */\n      0x00\n        /* \"#utility.yul\":14292:14301   */\n      dup4\n        /* \"#utility.yul\":14288:14305   */\n      add\n        /* \"#utility.yul\":14281:14328   */\n      mstore\n        /* \"#utility.yul\":14345:14476   */\n      tag_510\n        /* \"#utility.yul\":14471:14475   */\n      dup2\n        /* \"#utility.yul\":14345:14476   */\n      tag_342\n      jump\t// in\n    tag_510:\n        /* \"#utility.yul\":14337:14476   */\n      swap1\n      pop\n        /* \"#utility.yul\":14064:14483   */\n      swap2\n      swap1\n      pop\n      jump\t// out\n        /* \"#utility.yul\":14489:14657   */\n    tag_343:\n        /* \"#utility.yul\":14629:14649   */\n      0x63616e2063617374206d6f726520766f74650000000000000000000000000000\n        /* \"#utility.yul\":14625:14626   */\n      0x00\n        /* \"#utility.yul\":14617:14623   */\n      dup3\n        /* \"#utility.yul\":14613:14627   */\n      add\n        /* \"#utility.yul\":14606:14650   */\n      mstore\n        /* \"#utility.yul\":14489:14657   */\n      pop\n      jump\t// out\n        /* \"#utility.yul\":14663:15029   */\n    tag_344:\n        /* \"#utility.yul\":14805:14808   */\n      0x00\n        /* \"#utility.yul\":14826:14893   */\n      tag_513\n        /* \"#utility.yul\":14890:14892   */\n      0x12\n        /* \"#utility.yul\":14885:14888   */\n      dup4\n        /* \"#utility.yul\":14826:14893   */\n      tag_311\n      jump\t// in\n    tag_513:\n        /* \"#utility.yul\":14819:14893   */\n      swap2\n      pop\n        /* \"#utility.yul\":14902:14995   */\n      tag_514\n        /* \"#utility.yul\":14991:14994   */\n      dup3\n        /* \"#utility.yul\":14902:14995   */\n      tag_343\n      jump\t// in\n    tag_514:\n        /* \"#utility.yul\":15020:15022   */\n      0x20\n        /* \"#utility.yul\":15015:15018   */\n      dup3\n        /* \"#utility.yul\":15011:15023   */\n      add\n        /* \"#utility.yul\":15004:15023   */\n      swap1\n      pop\n        /* \"#utility.yul\":14663:15029   */\n      swap2\n      swap1\n      pop\n      jump\t// out\n        /* \"#utility.yul\":15035:15454   */\n    tag_132:\n        /* \"#utility.yul\":15201:15205   */\n      0x00\n        /* \"#utility.yul\":15239:15241   */\n      0x20\n        /* \"#utility.yul\":15228:15237   */\n      dup3\n        /* \"#utility.yul\":15224:15242   */\n      add\n        /* \"#utility.yul\":15216:15242   */\n      swap1\n      pop\n        /* \"#utility.yul\":15288:15297   */\n      dup2\n        /* \"#utility.yul\":15282:15286   */\n      dup2\n        /* \"#utility.yul\":15278:15298   */\n      sub\n        /* \"#utility.yul\":15274:15275   */\n      0x00\n        /* \"#utility.yul\":15263:15272   */\n      dup4\n        /* \"#utility.yul\":15259:15276   */\n      add\n        /* \"#utility.yul\":15252:15299   */\n      mstore\n        /* \"#utility.yul\":15316:15447   */\n      tag_516\n        /* \"#utility.yul\":15442:15446   */\n      dup2\n        /* \"#utility.yul\":15316:15447   */\n      tag_344\n      jump\t// in\n    tag_516:\n        /* \"#utility.yul\":15308:15447   */\n      swap1\n      pop\n        /* \"#utility.yul\":15035:15454   */\n      swap2\n      swap1\n      pop\n      jump\t// out\n        /* \"#utility.yul\":15460:15603   */\n    tag_345:\n        /* \"#utility.yul\":15517:15522   */\n      0x00\n        /* \"#utility.yul\":15548:15554   */\n      dup2\n        /* \"#utility.yul\":15542:15555   */\n      mload\n        /* \"#utility.yul\":15533:15555   */\n      swap1\n      pop\n        /* \"#utility.yul\":15564:15597   */\n      tag_518\n        /* \"#utility.yul\":15591:15596   */\n      dup2\n        /* \"#utility.yul\":15564:15597   */\n      tag_308\n      jump\t// in\n    tag_518:\n        /* \"#utility.yul\":15460:15603   */\n      swap3\n      swap2\n      pop\n      pop\n      jump\t// out\n        /* \"#utility.yul\":15609:15960   */\n    tag_140:\n        /* \"#utility.yul\":15679:15685   */\n      0x00\n        /* \"#utility.yul\":15728:15730   */\n      0x20\n        /* \"#utility.yul\":15716:15725   */\n      dup3\n        /* \"#utility.yul\":15707:15714   */\n      dup5\n        /* \"#utility.yul\":15703:15726   */\n      sub\n        /* \"#utility.yul\":15699:15731   */\n      slt\n        /* \"#utility.yul\":15696:15815   */\n      iszero\n      tag_520\n      jumpi\n        /* \"#utility.yul\":15734:15813   */\n      tag_521\n      tag_300\n      jump\t// in\n    tag_521:\n        /* \"#utility.yul\":15696:15815   */\n    tag_520:\n        /* \"#utility.yul\":15854:15855   */\n      0x00\n        /* \"#utility.yul\":15879:15943   */\n      tag_522\n        /* \"#utility.yul\":15935:15942   */\n      dup5\n        /* \"#utility.yul\":15926:15932   */\n      dup3\n        /* \"#utility.yul\":15915:15924   */\n      dup6\n        /* \"#utility.yul\":15911:15933   */\n      add\n        /* \"#utility.yul\":15879:15943   */\n      tag_345\n      jump\t// in\n    tag_522:\n        /* \"#utility.yul\":15869:15943   */\n      swap2\n      pop\n        /* \"#utility.yul\":15825:15953   */\n      pop\n        /* \"#utility.yul\":15609:15960   */\n      swap3\n      swap2\n      pop\n      pop\n      jump\t// out\n        /* \"#utility.yul\":15966:16146   */\n    tag_346:\n        /* \"#utility.yul\":16014:16091   */\n      0x4e487b7100000000000000000000000000000000000000000000000000000000\n        /* \"#utility.yul\":16011:16012   */\n      0x00\n        /* \"#utility.yul\":16004:16092   */\n      mstore\n        /* \"#utility.yul\":16111:16115   */\n      0x11\n        /* \"#utility.yul\":16108:16109   */\n      0x04\n        /* \"#utility.yul\":16101:16116   */\n      mstore\n        /* \"#utility.yul\":16135:16139   */\n      0x24\n        /* \"#utility.yul\":16132:16133   */\n      0x00\n        /* \"#utility.yul\":16125:16140   */\n      revert\n        /* \"#utility.yul\":16152:16385   */\n    tag_144:\n        /* \"#utility.yul\":16191:16194   */\n      0x00\n        /* \"#utility.yul\":16214:16238   */\n      tag_525\n        /* \"#utility.yul\":16232:16237   */\n      dup3\n        /* \"#utility.yul\":16214:16238   */\n      tag_302\n      jump\t// in\n    tag_525:\n        /* \"#utility.yul\":16205:16238   */\n      swap2\n      pop\n        /* \"#utility.yul\":16260:16326   */\n      0xffffffffffffffffffffffffffffffffffffffffffffffffffffffffffffffff\n        /* \"#utility.yul\":16253:16258   */\n      dup3\n        /* \"#utility.yul\":16250:16327   */\n      sub\n        /* \"#utility.yul\":16247:16350   */\n      tag_526\n      jumpi\n        /* \"#utility.yul\":16330:16348   */\n      tag_527\n      tag_346\n      jump\t// in\n    tag_527:\n        /* \"#utility.yul\":16247:16350   */\n    tag_526:\n        /* \"#utility.yul\":16377:16378   */\n      0x01\n        /* \"#utility.yul\":16370:16375   */\n      dup3\n        /* \"#utility.yul\":16366:16379   */\n      add\n        /* \"#utility.yul\":16359:16379   */\n      swap1\n      pop\n        /* \"#utility.yul\":16152:16385   */\n      swap2\n      swap1\n      pop\n      jump\t// out\n        /* \"#utility.yul\":16391:16571   */\n    tag_347:\n        /* \"#utility.yul\":16439:16516   */\n      0x4e487b7100000000000000000000000000000000000000000000000000000000\n        /* \"#utility.yul\":16436:16437   */\n      0x00\n        /* \"#utility.yul\":16429:16517   */\n      mstore\n        /* \"#utility.yul\":16536:16540   */\n      0x22\n        /* \"#utility.yul\":16533:16534   */\n      0x04\n        /* \"#utility.yul\":16526:16541   */\n      mstore\n        /* \"#utility.yul\":16560:16564   */\n      0x24\n        /* \"#utility.yul\":16557:16558   */\n      0x00\n        /* \"#utility.yul\":16550:16565   */\n      revert\n        /* \"#utility.yul\":16577:16897   */\n    tag_153:\n        /* \"#utility.yul\":16621:16627   */\n      0x00\n        /* \"#utility.yul\":16658:16659   */\n      0x02\n        /* \"#utility.yul\":16652:16656   */\n      dup3\n        /* \"#utility.yul\":16648:16660   */\n      div\n        /* \"#utility.yul\":16638:16660   */\n      swap1\n      pop\n        /* \"#utility.yul\":16705:16706   */\n      0x01\n        /* \"#utility.yul\":16699:16703   */\n      dup3\n        /* \"#utility.yul\":16695:16707   */\n      and\n        /* \"#utility.yul\":16726:16744   */\n      dup1\n        /* \"#utility.yul\":16716:16797   */\n      tag_530\n      jumpi\n        /* \"#utility.yul\":16782:16786   */\n      0x7f\n        /* \"#utility.yul\":16774:16780   */\n      dup3\n        /* \"#utility.yul\":16770:16787   */\n      and\n        /* \"#utility.yul\":16760:16787   */\n      swap2\n      pop\n        /* \"#utility.yul\":16716:16797   */\n    tag_530:\n        /* \"#utility.yul\":16844:16846   */\n      0x20\n        /* \"#utility.yul\":16836:16842   */\n      dup3\n        /* \"#utility.yul\":16833:16847   */\n      lt\n        /* \"#utility.yul\":16813:16831   */\n      dup2\n        /* \"#utility.yul\":16810:16848   */\n      sub\n        /* \"#utility.yul\":16807:16891   */\n      tag_531\n      jumpi\n        /* \"#utility.yul\":16863:16881   */\n      tag_532\n      tag_347\n      jump\t// in\n    tag_532:\n        /* \"#utility.yul\":16807:16891   */\n    tag_531:\n        /* \"#utility.yul\":16628:16897   */\n      pop\n        /* \"#utility.yul\":16577:16897   */\n      swap2\n      swap1\n      pop\n      jump\t// out\n        /* \"#utility.yul\":16903:17044   */\n    tag_348:\n        /* \"#utility.yul\":16952:16956   */\n      0x00\n        /* \"#utility.yul\":16975:16978   */\n      dup2\n        /* \"#utility.yul\":16967:16978   */\n      swap1\n      pop\n        /* \"#utility.yul\":16998:17001   */\n      dup2\n        /* \"#utility.yul\":16995:16996   */\n      0x00\n        /* \"#utility.yul\":16988:17002   */\n      mstore\n        /* \"#utility.yul\":17032:17036   */\n      0x20\n        /* \"#utility.yul\":17029:17030   */\n      0x00\n        /* \"#utility.yul\":17019:17037   */\n      keccak256\n        /* \"#utility.yul\":17011:17037   */\n      swap1\n      pop\n        /* \"#utility.yul\":16903:17044   */\n      swap2\n      swap1\n      pop\n      jump\t// out\n        /* \"#utility.yul\":17050:17143   */\n    tag_349:\n        /* \"#utility.yul\":17087:17093   */\n      0x00\n        /* \"#utility.yul\":17134:17136   */\n      0x20\n        /* \"#utility.yul\":17129:17131   */\n      0x1f\n        /* \"#utility.yul\":17122:17127   */\n      dup4\n        /* \"#utility.yul\":17118:17132   */\n      add\n        /* \"#utility.yul\":17114:17137   */\n      div\n        /* \"#utility.yul\":17104:17137   */\n      swap1\n      pop\n        /* \"#utility.yul\":17050:17143   */\n      swap2\n      swap1\n      pop\n      jump\t// out\n        /* \"#utility.yul\":17149:17256   */\n    tag_350:\n        /* \"#utility.yul\":17193:17201   */\n      0x00\n        /* \"#utility.yul\":17243:17248   */\n      dup3\n        /* \"#utility.yul\":17237:17241   */\n      dup3\n        /* \"#utility.yul\":17233:17249   */\n      shl\n        /* \"#utility.yul\":17212:17249   */\n      swap1\n      pop\n        /* \"#utility.yul\":17149:17256   */\n      swap3\n      swap2\n      pop\n      pop\n      jump\t// out\n        /* \"#utility.yul\":17262:17655   */\n    tag_351:\n        /* \"#utility.yul\":17331:17337   */\n      0x00\n        /* \"#utility.yul\":17381:17382   */\n      0x08\n        /* \"#utility.yul\":17369:17379   */\n      dup4\n        /* \"#utility.yul\":17365:17383   */\n      mul\n        /* \"#utility.yul\":17404:17501   */\n      tag_537\n        /* \"#utility.yul\":17434:17500   */\n      0xffffffffffffffffffffffffffffffffffffffffffffffffffffffffffffffff\n        /* \"#utility.yul\":17423:17432   */\n      dup3\n        /* \"#utility.yul\":17404:17501   */\n      tag_350\n      jump\t// in\n    tag_537:\n        /* \"#utility.yul\":17522:17561   */\n      tag_538\n        /* \"#utility.yul\":17552:17560   */\n      dup7\n        /* \"#utility.yul\":17541:17550   */\n      dup4\n        /* \"#utility.yul\":17522:17561   */\n      tag_350\n      jump\t// in\n    tag_538:\n        /* \"#utility.yul\":17510:17561   */\n      swap6\n      pop\n        /* \"#utility.yul\":17594:17598   */\n      dup1\n        /* \"#utility.yul\":17590:17599   */\n      not\n        /* \"#utility.yul\":17583:17588   */\n      dup5\n        /* \"#utility.yul\":17579:17600   */\n      and\n        /* \"#utility.yul\":17570:17600   */\n      swap4\n      pop\n        /* \"#utility.yul\":17643:17647   */\n      dup1\n        /* \"#utility.yul\":17633:17641   */\n      dup7\n        /* \"#utility.yul\":17629:17648   */\n      and\n        /* \"#utility.yul\":17622:17627   */\n      dup5\n        /* \"#utility.yul\":17619:17649   */\n      or\n        /* \"#utility.yul\":17609:17649   */\n      swap3\n      pop\n        /* \"#utility.yul\":17338:17655   */\n      pop\n      pop\n        /* \"#utility.yul\":17262:17655   */\n      swap4\n      swap3\n      pop\n      pop\n      pop\n      jump\t// out\n        /* \"#utility.yul\":17661:17721   */\n    tag_352:\n        /* \"#utility.yul\":17689:17692   */\n      0x00\n        /* \"#utility.yul\":17710:17715   */\n      dup2\n        /* \"#utility.yul\":17703:17715   */\n      swap1\n      pop\n        /* \"#utility.yul\":17661:17721   */\n      swap2\n      swap1\n      pop\n      jump\t// out\n        /* \"#utility.yul\":17727:17869   */\n    tag_353:\n        /* \"#utility.yul\":17777:17786   */\n      0x00\n        /* \"#utility.yul\":17810:17863   */\n      tag_541\n        /* \"#utility.yul\":17828:17862   */\n      tag_542\n        /* \"#utility.yul\":17837:17861   */\n      tag_543\n        /* \"#utility.yul\":17855:17860   */\n      dup5\n        /* \"#utility.yul\":17837:17861   */\n      tag_302\n      jump\t// in\n    tag_543:\n        /* \"#utility.yul\":17828:17862   */\n      tag_352\n      jump\t// in\n    tag_542:\n        /* \"#utility.yul\":17810:17863   */\n      tag_302\n      jump\t// in\n    tag_541:\n        /* \"#utility.yul\":17797:17863   */\n      swap1\n      pop\n        /* \"#utility.yul\":17727:17869   */\n      swap2\n      swap1\n      pop\n      jump\t// out\n        /* \"#utility.yul\":17875:17950   */\n    tag_354:\n        /* \"#utility.yul\":17918:17921   */\n      0x00\n        /* \"#utility.yul\":17939:17944   */\n      dup2\n        /* \"#utility.yul\":17932:17944   */\n      swap1\n      pop\n        /* \"#utility.yul\":17875:17950   */\n      swap2\n      swap1\n      pop\n      jump\t// out\n        /* \"#utility.yul\":17956:18225   */\n    tag_355:\n        /* \"#utility.yul\":18066:18105   */\n      tag_546\n        /* \"#utility.yul\":18097:18104   */\n      dup4\n        /* \"#utility.yul\":18066:18105   */\n      tag_353\n      jump\t// in\n    tag_546:\n        /* \"#utility.yul\":18127:18218   */\n      tag_547\n        /* \"#utility.yul\":18176:18217   */\n      tag_548\n        /* \"#utility.yul\":18200:18216   */\n      dup3\n        /* \"#utility.yul\":18176:18217   */\n      tag_354\n      jump\t// in\n    tag_548:\n        /* \"#utility.yul\":18168:18174   */\n      dup5\n        /* \"#utility.yul\":18161:18165   */\n      dup5\n        /* \"#utility.yul\":18155:18166   */\n      sload\n        /* \"#utility.yul\":18127:18218   */\n      tag_351\n      jump\t// in\n    tag_547:\n        /* \"#utility.yul\":18121:18125   */\n      dup3\n        /* \"#utility.yul\":18114:18219   */\n      sstore\n        /* \"#utility.yul\":18032:18225   */\n      pop\n        /* \"#utility.yul\":17956:18225   */\n      pop\n      pop\n      pop\n      jump\t// out\n        /* \"#utility.yul\":18231:18304   */\n    tag_356:\n        /* \"#utility.yul\":18276:18279   */\n      0x00\n        /* \"#utility.yul\":18231:18304   */\n      swap1\n      jump\t// out\n        /* \"#utility.yul\":18310:18499   */\n    tag_357:\n        /* \"#utility.yul\":18387:18419   */\n      tag_551\n      tag_356\n      jump\t// in\n    tag_551:\n        /* \"#utility.yul\":18428:18493   */\n      tag_552\n        /* \"#utility.yul\":18486:18492   */\n      dup2\n        /* \"#utility.yul\":18478:18484   */\n      dup5\n        /* \"#utility.yul\":18472:18476   */\n      dup5\n        /* \"#utility.yul\":18428:18493   */\n      tag_355\n      jump\t// in\n    tag_552:\n        /* \"#utility.yul\":18363:18499   */\n      pop\n        /* \"#utility.yul\":18310:18499   */\n      pop\n      pop\n      jump\t// out\n        /* \"#utility.yul\":18505:18691   */\n    tag_358:\n        /* \"#utility.yul\":18565:18685   */\n    tag_554:\n        /* \"#utility.yul\":18582:18585   */\n      dup2\n        /* \"#utility.yul\":18575:18580   */\n      dup2\n        /* \"#utility.yul\":18572:18586   */\n      lt\n        /* \"#utility.yul\":18565:18685   */\n      iszero\n      tag_556\n      jumpi\n        /* \"#utility.yul\":18636:18675   */\n      tag_557\n        /* \"#utility.yul\":18673:18674   */\n      0x00\n        /* \"#utility.yul\":18666:18671   */\n      dup3\n        /* \"#utility.yul\":18636:18675   */\n      tag_357\n      jump\t// in\n    tag_557:\n        /* \"#utility.yul\":18609:18610   */\n      0x01\n        /* \"#utility.yul\":18602:18607   */\n      dup2\n        /* \"#utility.yul\":18598:18611   */\n      add\n        /* \"#utility.yul\":18589:18611   */\n      swap1\n      pop\n        /* \"#utility.yul\":18565:18685   */\n      jump(tag_554)\n    tag_556:\n        /* \"#utility.yul\":18505:18691   */\n      pop\n      pop\n      jump\t// out\n        /* \"#utility.yul\":18697:19240   */\n    tag_359:\n        /* \"#utility.yul\":18798:18800   */\n      0x1f\n        /* \"#utility.yul\":18793:18796   */\n      dup3\n        /* \"#utility.yul\":18790:18801   */\n      gt\n        /* \"#utility.yul\":18787:19233   */\n      iszero\n      tag_559\n      jumpi\n        /* \"#utility.yul\":18832:18870   */\n      tag_560\n        /* \"#utility.yul\":18864:18869   */\n      dup2\n        /* \"#utility.yul\":18832:18870   */\n      tag_348\n      jump\t// in\n    tag_560:\n        /* \"#utility.yul\":18916:18945   */\n      tag_561\n        /* \"#utility.yul\":18934:18944   */\n      dup5\n        /* \"#utility.yul\":18916:18945   */\n      tag_349\n      jump\t// in\n    tag_561:\n        /* \"#utility.yul\":18906:18914   */\n      dup2\n        /* \"#utility.yul\":18902:18946   */\n      add\n        /* \"#utility.yul\":19099:19101   */\n      0x20\n        /* \"#utility.yul\":19087:19097   */\n      dup6\n        /* \"#utility.yul\":19084:19102   */\n      lt\n        /* \"#utility.yul\":19081:19130   */\n      iszero\n      tag_562\n      jumpi\n        /* \"#utility.yul\":19120:19128   */\n      dup2\n        /* \"#utility.yul\":19105:19128   */\n      swap1\n      pop\n        /* \"#utility.yul\":19081:19130   */\n    tag_562:\n        /* \"#utility.yul\":19143:19223   */\n      tag_563\n        /* \"#utility.yul\":19199:19221   */\n      tag_564\n        /* \"#utility.yul\":19217:19220   */\n      dup6\n        /* \"#utility.yul\":19199:19221   */\n      tag_349\n      jump\t// in\n    tag_564:\n        /* \"#utility.yul\":19189:19197   */\n      dup4\n        /* \"#utility.yul\":19185:19222   */\n      add\n        /* \"#utility.yul\":19172:19183   */\n      dup3\n        /* \"#utility.yul\":19143:19223   */\n      tag_358\n      jump\t// in\n    tag_563:\n        /* \"#utility.yul\":18802:19233   */\n      pop\n      pop\n        /* \"#utility.yul\":18787:19233   */\n    tag_559:\n        /* \"#utility.yul\":18697:19240   */\n      pop\n      pop\n      pop\n      jump\t// out\n        /* \"#utility.yul\":19246:19363   */\n    tag_360:\n        /* \"#utility.yul\":19300:19308   */\n      0x00\n        /* \"#utility.yul\":19350:19355   */\n      dup3\n        /* \"#utility.yul\":19344:19348   */\n      dup3\n        /* \"#utility.yul\":19340:19356   */\n      shr\n        /* \"#utility.yul\":19319:19356   */\n      swap1\n      pop\n        /* \"#utility.yul\":19246:19363   */\n      swap3\n      swap2\n      pop\n      pop\n      jump\t// out\n        /* \"#utility.yul\":19369:19538   */\n    tag_361:\n        /* \"#utility.yul\":19413:19419   */\n      0x00\n        /* \"#utility.yul\":19446:19497   */\n      tag_567\n        /* \"#utility.yul\":19494:19495   */\n      0x00\n        /* \"#utility.yul\":19490:19496   */\n      not\n        /* \"#utility.yul\":19482:19487   */\n      dup5\n        /* \"#utility.yul\":19479:19480   */\n      0x08\n        /* \"#utility.yul\":19475:19488   */\n      mul\n        /* \"#utility.yul\":19446:19497   */\n      tag_360\n      jump\t// in\n    tag_567:\n        /* \"#utility.yul\":19442:19498   */\n      not\n        /* \"#utility.yul\":19527:19531   */\n      dup1\n        /* \"#utility.yul\":19521:19525   */\n      dup4\n        /* \"#utility.yul\":19517:19532   */\n      and\n        /* \"#utility.yul\":19507:19532   */\n      swap2\n      pop\n        /* \"#utility.yul\":19420:19538   */\n      pop\n        /* \"#utility.yul\":19369:19538   */\n      swap3\n      swap2\n      pop\n      pop\n      jump\t// out\n        /* \"#utility.yul\":19543:19838   */\n    tag_362:\n        /* \"#utility.yul\":19619:19623   */\n      0x00\n        /* \"#utility.yul\":19765:19794   */\n      tag_569\n        /* \"#utility.yul\":19790:19793   */\n      dup4\n        /* \"#utility.yul\":19784:19788   */\n      dup4\n        /* \"#utility.yul\":19765:19794   */\n      tag_361\n      jump\t// in\n    tag_569:\n        /* \"#utility.yul\":19757:19794   */\n      swap2\n      pop\n        /* \"#utility.yul\":19827:19830   */\n      dup3\n        /* \"#utility.yul\":19824:19825   */\n      0x02\n        /* \"#utility.yul\":19820:19831   */\n      mul\n        /* \"#utility.yul\":19814:19818   */\n      dup3\n        /* \"#utility.yul\":19811:19832   */\n      or\n        /* \"#utility.yul\":19803:19832   */\n      swap1\n      pop\n        /* \"#utility.yul\":19543:19838   */\n      swap3\n      swap2\n      pop\n      pop\n      jump\t// out\n        /* \"#utility.yul\":19843:21238   */\n    tag_165:\n        /* \"#utility.yul\":19960:19997   */\n      tag_571\n        /* \"#utility.yul\":19993:19996   */\n      dup3\n        /* \"#utility.yul\":19960:19997   */\n      tag_310\n      jump\t// in\n    tag_571:\n        /* \"#utility.yul\":20062:20080   */\n      0xffffffffffffffff\n        /* \"#utility.yul\":20054:20060   */\n      dup2\n        /* \"#utility.yul\":20051:20081   */\n      gt\n        /* \"#utility.yul\":20048:20104   */\n      iszero\n      tag_572\n      jumpi\n        /* \"#utility.yul\":20084:20102   */\n      tag_573\n      tag_318\n      jump\t// in\n    tag_573:\n        /* \"#utility.yul\":20048:20104   */\n    tag_572:\n        /* \"#utility.yul\":20128:20166   */\n      tag_574\n        /* \"#utility.yul\":20160:20164   */\n      dup3\n        /* \"#utility.yul\":20154:20165   */\n      sload\n        /* \"#utility.yul\":20128:20166   */\n      tag_153\n      jump\t// in\n    tag_574:\n        /* \"#utility.yul\":20213:20280   */\n      tag_575\n        /* \"#utility.yul\":20273:20279   */\n      dup3\n        /* \"#utility.yul\":20265:20271   */\n      dup3\n        /* \"#utility.yul\":20259:20263   */\n      dup6\n        /* \"#utility.yul\":20213:20280   */\n      tag_359\n      jump\t// in\n    tag_575:\n        /* \"#utility.yul\":20307:20308   */\n      0x00\n        /* \"#utility.yul\":20331:20335   */\n      0x20\n        /* \"#utility.yul\":20318:20335   */\n      swap1\n      pop\n        /* \"#utility.yul\":20363:20365   */\n      0x1f\n        /* \"#utility.yul\":20355:20361   */\n      dup4\n        /* \"#utility.yul\":20352:20366   */\n      gt\n        /* \"#utility.yul\":20380:20381   */\n      0x01\n        /* \"#utility.yul\":20375:20993   */\n      dup2\n      eq\n      tag_577\n      jumpi\n        /* \"#utility.yul\":21037:21038   */\n      0x00\n        /* \"#utility.yul\":21054:21060   */\n      dup5\n        /* \"#utility.yul\":21051:21128   */\n      iszero\n      tag_578\n      jumpi\n        /* \"#utility.yul\":21103:21112   */\n      dup3\n        /* \"#utility.yul\":21098:21101   */\n      dup8\n        /* \"#utility.yul\":21094:21113   */\n      add\n        /* \"#utility.yul\":21088:21114   */\n      mload\n        /* \"#utility.yul\":21079:21114   */\n      swap1\n      pop\n        /* \"#utility.yul\":21051:21128   */\n    tag_578:\n        /* \"#utility.yul\":21154:21221   */\n      tag_579\n        /* \"#utility.yul\":21214:21220   */\n      dup6\n        /* \"#utility.yul\":21207:21212   */\n      dup3\n        /* \"#utility.yul\":21154:21221   */\n      tag_362\n      jump\t// in\n    tag_579:\n        /* \"#utility.yul\":21148:21152   */\n      dup7\n        /* \"#utility.yul\":21141:21222   */\n      sstore\n        /* \"#utility.yul\":21010:21232   */\n      pop\n        /* \"#utility.yul\":20345:21232   */\n      jump(tag_576)\n        /* \"#utility.yul\":20375:20993   */\n    tag_577:\n        /* \"#utility.yul\":20427:20431   */\n      0x1f\n        /* \"#utility.yul\":20423:20432   */\n      not\n        /* \"#utility.yul\":20415:20421   */\n      dup5\n        /* \"#utility.yul\":20411:20433   */\n      and\n        /* \"#utility.yul\":20461:20498   */\n      tag_580\n        /* \"#utility.yul\":20493:20497   */\n      dup7\n        /* \"#utility.yul\":20461:20498   */\n      tag_348\n      jump\t// in\n    tag_580:\n        /* \"#utility.yul\":20520:20521   */\n      0x00\n        /* \"#utility.yul\":20534:20742   */\n    tag_581:\n        /* \"#utility.yul\":20548:20555   */\n      dup3\n        /* \"#utility.yul\":20545:20546   */\n      dup2\n        /* \"#utility.yul\":20542:20556   */\n      lt\n        /* \"#utility.yul\":20534:20742   */\n      iszero\n      tag_583\n      jumpi\n        /* \"#utility.yul\":20627:20636   */\n      dup5\n        /* \"#utility.yul\":20622:20625   */\n      dup10\n        /* \"#utility.yul\":20618:20637   */\n      add\n        /* \"#utility.yul\":20612:20638   */\n      mload\n        /* \"#utility.yul\":20604:20610   */\n      dup3\n        /* \"#utility.yul\":20597:20639   */\n      sstore\n        /* \"#utility.yul\":20678:20679   */\n      0x01\n        /* \"#utility.yul\":20670:20676   */\n      dup3\n        /* \"#utility.yul\":20666:20680   */\n      add\n        /* \"#utility.yul\":20656:20680   */\n      swap2\n      pop\n        /* \"#utility.yul\":20725:20727   */\n      0x20\n        /* \"#utility.yul\":20714:20723   */\n      dup6\n        /* \"#utility.yul\":20710:20728   */\n      add\n        /* \"#utility.yul\":20697:20728   */\n      swap5\n      pop\n        /* \"#utility.yul\":20571:20575   */\n      0x20\n        /* \"#utility.yul\":20568:20569   */\n      dup2\n        /* \"#utility.yul\":20564:20576   */\n      add\n        /* \"#utility.yul\":20559:20576   */\n      swap1\n      pop\n        /* \"#utility.yul\":20534:20742   */\n      jump(tag_581)\n    tag_583:\n        /* \"#utility.yul\":20770:20776   */\n      dup7\n        /* \"#utility.yul\":20761:20768   */\n      dup4\n        /* \"#utility.yul\":20758:20777   */\n      lt\n        /* \"#utility.yul\":20755:20934   */\n      iszero\n      tag_584\n      jumpi\n        /* \"#utility.yul\":20828:20837   */\n      dup5\n        /* \"#utility.yul\":20823:20826   */\n      dup10\n        /* \"#utility.yul\":20819:20838   */\n      add\n        /* \"#utility.yul\":20813:20839   */\n      mload\n        /* \"#utility.yul\":20871:20919   */\n      tag_585\n        /* \"#utility.yul\":20913:20917   */\n      0x1f\n        /* \"#utility.yul\":20905:20911   */\n      dup10\n        /* \"#utility.yul\":20901:20918   */\n      and\n        /* \"#utility.yul\":20890:20899   */\n      dup3\n        /* \"#utility.yul\":20871:20919   */\n      tag_361\n      jump\t// in\n    tag_585:\n        /* \"#utility.yul\":20863:20869   */\n      dup4\n        /* \"#utility.yul\":20856:20920   */\n      sstore\n        /* \"#utility.yul\":20778:20934   */\n      pop\n        /* \"#utility.yul\":20755:20934   */\n    tag_584:\n        /* \"#utility.yul\":20980:20981   */\n      0x01\n        /* \"#utility.yul\":20976:20977   */\n      0x02\n        /* \"#utility.yul\":20968:20974   */\n      dup9\n        /* \"#utility.yul\":20964:20978   */\n      mul\n        /* \"#utility.yul\":20960:20982   */\n      add\n        /* \"#utility.yul\":20954:20958   */\n      dup9\n        /* \"#utility.yul\":20947:20983   */\n      sstore\n        /* \"#utility.yul\":20382:20993   */\n      pop\n      pop\n      pop\n        /* \"#utility.yul\":20345:21232   */\n    tag_576:\n      pop\n        /* \"#utility.yul\":19935:21238   */\n      pop\n      pop\n      pop\n        /* \"#utility.yul\":19843:21238   */\n      pop\n      pop\n      jump\t// out\n        /* \"#utility.yul\":21244:21423   */\n    tag_363:\n        /* \"#utility.yul\":21384:21415   */\n      0x416d6f756e74206d7573742062652067726561746572207468616e2030000000\n        /* \"#utility.yul\":21380:21381   */\n      0x00\n        /* \"#utility.yul\":21372:21378   */\n      dup3\n        /* \"#utility.yul\":21368:21382   */\n      add\n        /* \"#utility.yul\":21361:21416   */\n      mstore\n        /* \"#utility.yul\":21244:21423   */\n      pop\n      jump\t// out\n        /* \"#utility.yul\":21429:21795   */\n    tag_364:\n        /* \"#utility.yul\":21571:21574   */\n      0x00\n        /* \"#utility.yul\":21592:21659   */\n      tag_588\n        /* \"#utility.yul\":21656:21658   */\n      0x1d\n        /* \"#utility.yul\":21651:21654   */\n      dup4\n        /* \"#utility.yul\":21592:21659   */\n      tag_311\n      jump\t// in\n    tag_588:\n        /* \"#utility.yul\":21585:21659   */\n      swap2\n      pop\n        /* \"#utility.yul\":21668:21761   */\n      tag_589\n        /* \"#utility.yul\":21757:21760   */\n      dup3\n        /* \"#utility.yul\":21668:21761   */\n      tag_363\n      jump\t// in\n    tag_589:\n        /* \"#utility.yul\":21786:21788   */\n      0x20\n        /* \"#utility.yul\":21781:21784   */\n      dup3\n        /* \"#utility.yul\":21777:21789   */\n      add\n        /* \"#utility.yul\":21770:21789   */\n      swap1\n      pop\n        /* \"#utility.yul\":21429:21795   */\n      swap2\n      swap1\n      pop\n      jump\t// out\n        /* \"#utility.yul\":21801:22220   */\n    tag_171:\n        /* \"#utility.yul\":21967:21971   */\n      0x00\n        /* \"#utility.yul\":22005:22007   */\n      0x20\n        /* \"#utility.yul\":21994:22003   */\n      dup3\n        /* \"#utility.yul\":21990:22008   */\n      add\n        /* \"#utility.yul\":21982:22008   */\n      swap1\n      pop\n        /* \"#utility.yul\":22054:22063   */\n      dup2\n        /* \"#utility.yul\":22048:22052   */\n      dup2\n        /* \"#utility.yul\":22044:22064   */\n      sub\n        /* \"#utility.yul\":22040:22041   */\n      0x00\n        /* \"#utility.yul\":22029:22038   */\n      dup4\n        /* \"#utility.yul\":22025:22042   */\n      add\n        /* \"#utility.yul\":22018:22065   */\n      mstore\n        /* \"#utility.yul\":22082:22213   */\n      tag_591\n        /* \"#utility.yul\":22208:22212   */\n      dup2\n        /* \"#utility.yul\":22082:22213   */\n      tag_364\n      jump\t// in\n    tag_591:\n        /* \"#utility.yul\":22074:22213   */\n      swap1\n      pop\n        /* \"#utility.yul\":21801:22220   */\n      swap2\n      swap1\n      pop\n      jump\t// out\n        /* \"#utility.yul\":22226:22402   */\n    tag_365:\n        /* \"#utility.yul\":22366:22394   */\n      0x496e73756666696369656e7420746f6b656e2062616c616e6365000000000000\n        /* \"#utility.yul\":22362:22363   */\n      0x00\n        /* \"#utility.yul\":22354:22360   */\n      dup3\n        /* \"#utility.yul\":22350:22364   */\n      add\n        /* \"#utility.yul\":22343:22395   */\n      mstore\n        /* \"#utility.yul\":22226:22402   */\n      pop\n      jump\t// out\n        /* \"#utility.yul\":22408:22774   */\n    tag_366:\n        /* \"#utility.yul\":22550:22553   */\n      0x00\n        /* \"#utility.yul\":22571:22638   */\n      tag_594\n        /* \"#utility.yul\":22635:22637   */\n      0x1a\n        /* \"#utility.yul\":22630:22633   */\n      dup4\n        /* \"#utility.yul\":22571:22638   */\n      tag_311\n      jump\t// in\n    tag_594:\n        /* \"#utility.yul\":22564:22638   */\n      swap2\n      pop\n        /* \"#utility.yul\":22647:22740   */\n      tag_595\n        /* \"#utility.yul\":22736:22739   */\n      dup3\n        /* \"#utility.yul\":22647:22740   */\n      tag_365\n      jump\t// in\n    tag_595:\n        /* \"#utility.yul\":22765:22767   */\n      0x20\n        /* \"#utility.yul\":22760:22763   */\n      dup3\n        /* \"#utility.yul\":22756:22768   */\n      add\n        /* \"#utility.yul\":22749:22768   */\n      swap1\n      pop\n        /* \"#utility.yul\":22408:22774   */\n      swap2\n      swap1\n      pop\n      jump\t// out\n        /* \"#utility.yul\":22780:23199   */\n    tag_178:\n        /* \"#utility.yul\":22946:22950   */\n      0x00\n        /* \"#utility.yul\":22984:22986   */\n      0x20\n        /* \"#utility.yul\":22973:22982   */\n      dup3\n        /* \"#utility.yul\":22969:22987   */\n      add\n        /* \"#utility.yul\":22961:22987   */\n      swap1\n      pop\n        /* \"#utility.yul\":23033:23042   */\n      dup2\n        /* \"#utility.yul\":23027:23031   */\n      dup2\n        /* \"#utility.yul\":23023:23043   */\n      sub\n        /* \"#utility.yul\":23019:23020   */\n      0x00\n        /* \"#utility.yul\":23008:23017   */\n      dup4\n        /* \"#utility.yul\":23004:23021   */\n      add\n        /* \"#utility.yul\":22997:23044   */\n      mstore\n        /* \"#utility.yul\":23061:23192   */\n      tag_597\n        /* \"#utility.yul\":23187:23191   */\n      dup2\n        /* \"#utility.yul\":23061:23192   */\n      tag_366\n      jump\t// in\n    tag_597:\n        /* \"#utility.yul\":23053:23192   */\n      swap1\n      pop\n        /* \"#utility.yul\":22780:23199   */\n      swap2\n      swap1\n      pop\n      jump\t// out\n        /* \"#utility.yul\":23205:23647   */\n    tag_180:\n        /* \"#utility.yul\":23354:23358   */\n      0x00\n        /* \"#utility.yul\":23392:23394   */\n      0x60\n        /* \"#utility.yul\":23381:23390   */\n      dup3\n        /* \"#utility.yul\":23377:23395   */\n      add\n        /* \"#utility.yul\":23369:23395   */\n      swap1\n      pop\n        /* \"#utility.yul\":23405:23476   */\n      tag_599\n        /* \"#utility.yul\":23473:23474   */\n      0x00\n        /* \"#utility.yul\":23462:23471   */\n      dup4\n        /* \"#utility.yul\":23458:23475   */\n      add\n        /* \"#utility.yul\":23449:23455   */\n      dup7\n        /* \"#utility.yul\":23405:23476   */\n      tag_315\n      jump\t// in\n    tag_599:\n        /* \"#utility.yul\":23486:23558   */\n      tag_600\n        /* \"#utility.yul\":23554:23556   */\n      0x20\n        /* \"#utility.yul\":23543:23552   */\n      dup4\n        /* \"#utility.yul\":23539:23557   */\n      add\n        /* \"#utility.yul\":23530:23536   */\n      dup6\n        /* \"#utility.yul\":23486:23558   */\n      tag_315\n      jump\t// in\n    tag_600:\n        /* \"#utility.yul\":23568:23640   */\n      tag_601\n        /* \"#utility.yul\":23636:23638   */\n      0x40\n        /* \"#utility.yul\":23625:23634   */\n      dup4\n        /* \"#utility.yul\":23621:23639   */\n      add\n        /* \"#utility.yul\":23612:23618   */\n      dup5\n        /* \"#utility.yul\":23568:23640   */\n      tag_305\n      jump\t// in\n    tag_601:\n        /* \"#utility.yul\":23205:23647   */\n      swap5\n      swap4\n      pop\n      pop\n      pop\n      pop\n      jump\t// out\n        /* \"#utility.yul\":23653:23769   */\n    tag_367:\n        /* \"#utility.yul\":23723:23744   */\n      tag_603\n        /* \"#utility.yul\":23738:23743   */\n      dup2\n        /* \"#utility.yul\":23723:23744   */\n      tag_325\n      jump\t// in\n    tag_603:\n        /* \"#utility.yul\":23716:23721   */\n      dup2\n        /* \"#utility.yul\":23713:23745   */\n      eq\n        /* \"#utility.yul\":23703:23763   */\n      tag_604\n      jumpi\n        /* \"#utility.yul\":23759:23760   */\n      0x00\n        /* \"#utility.yul\":23756:23757   */\n      dup1\n        /* \"#utility.yul\":23749:23761   */\n      revert\n        /* \"#utility.yul\":23703:23763   */\n    tag_604:\n        /* \"#utility.yul\":23653:23769   */\n      pop\n      jump\t// out\n        /* \"#utility.yul\":23775:23912   */\n    tag_368:\n        /* \"#utility.yul\":23829:23834   */\n      0x00\n        /* \"#utility.yul\":23860:23866   */\n      dup2\n        /* \"#utility.yul\":23854:23867   */\n      mload\n        /* \"#utility.yul\":23845:23867   */\n      swap1\n      pop\n        /* \"#utility.yul\":23876:23906   */\n      tag_606\n        /* \"#utility.yul\":23900:23905   */\n      dup2\n        /* \"#utility.yul\":23876:23906   */\n      tag_367\n      jump\t// in\n    tag_606:\n        /* \"#utility.yul\":23775:23912   */\n      swap3\n      swap2\n      pop\n      pop\n      jump\t// out\n        /* \"#utility.yul\":23918:24263   */\n    tag_184:\n        /* \"#utility.yul\":23985:23991   */\n      0x00\n        /* \"#utility.yul\":24034:24036   */\n      0x20\n        /* \"#utility.yul\":24022:24031   */\n      dup3\n        /* \"#utility.yul\":24013:24020   */\n      dup5\n        /* \"#utility.yul\":24009:24032   */\n      sub\n        /* \"#utility.yul\":24005:24037   */\n      slt\n        /* \"#utility.yul\":24002:24121   */\n      iszero\n      tag_608\n      jumpi\n        /* \"#utility.yul\":24040:24119   */\n      tag_609\n      tag_300\n      jump\t// in\n    tag_609:\n        /* \"#utility.yul\":24002:24121   */\n    tag_608:\n        /* \"#utility.yul\":24160:24161   */\n      0x00\n        /* \"#utility.yul\":24185:24246   */\n      tag_610\n        /* \"#utility.yul\":24238:24245   */\n      dup5\n        /* \"#utility.yul\":24229:24235   */\n      dup3\n        /* \"#utility.yul\":24218:24227   */\n      dup6\n        /* \"#utility.yul\":24214:24236   */\n      add\n        /* \"#utility.yul\":24185:24246   */\n      tag_368\n      jump\t// in\n    tag_610:\n        /* \"#utility.yul\":24175:24246   */\n      swap2\n      pop\n        /* \"#utility.yul\":24131:24256   */\n      pop\n        /* \"#utility.yul\":23918:24263   */\n      swap3\n      swap2\n      pop\n      pop\n      jump\t// out\n        /* \"#utility.yul\":24269:24437   */\n    tag_369:\n        /* \"#utility.yul\":24409:24429   */\n      0x7472616e73616374696f6e206661696c65640000000000000000000000000000\n        /* \"#utility.yul\":24405:24406   */\n      0x00\n        /* \"#utility.yul\":24397:24403   */\n      dup3\n        /* \"#utility.yul\":24393:24407   */\n      add\n        /* \"#utility.yul\":24386:24430   */\n      mstore\n        /* \"#utility.yul\":24269:24437   */\n      pop\n      jump\t// out\n        /* \"#utility.yul\":24443:24809   */\n    tag_370:\n        /* \"#utility.yul\":24585:24588   */\n      0x00\n        /* \"#utility.yul\":24606:24673   */\n      tag_613\n        /* \"#utility.yul\":24670:24672   */\n      0x12\n        /* \"#utility.yul\":24665:24668   */\n      dup4\n        /* \"#utility.yul\":24606:24673   */\n      tag_311\n      jump\t// in\n    tag_613:\n        /* \"#utility.yul\":24599:24673   */\n      swap2\n      pop\n        /* \"#utility.yul\":24682:24775   */\n      tag_614\n        /* \"#utility.yul\":24771:24774   */\n      dup3\n        /* \"#utility.yul\":24682:24775   */\n      tag_369\n      jump\t// in\n    tag_614:\n        /* \"#utility.yul\":24800:24802   */\n      0x20\n        /* \"#utility.yul\":24795:24798   */\n      dup3\n        /* \"#utility.yul\":24791:24803   */\n      add\n        /* \"#utility.yul\":24784:24803   */\n      swap1\n      pop\n        /* \"#utility.yul\":24443:24809   */\n      swap2\n      swap1\n      pop\n      jump\t// out\n        /* \"#utility.yul\":24815:25234   */\n    tag_187:\n        /* \"#utility.yul\":24981:24985   */\n      0x00\n        /* \"#utility.yul\":25019:25021   */\n      0x20\n        /* \"#utility.yul\":25008:25017   */\n      dup3\n        /* \"#utility.yul\":25004:25022   */\n      add\n        /* \"#utility.yul\":24996:25022   */\n      swap1\n      pop\n        /* \"#utility.yul\":25068:25077   */\n      dup2\n        /* \"#utility.yul\":25062:25066   */\n      dup2\n        /* \"#utility.yul\":25058:25078   */\n      sub\n        /* \"#utility.yul\":25054:25055   */\n      0x00\n        /* \"#utility.yul\":25043:25052   */\n      dup4\n        /* \"#utility.yul\":25039:25056   */\n      add\n        /* \"#utility.yul\":25032:25079   */\n      mstore\n        /* \"#utility.yul\":25096:25227   */\n      tag_616\n        /* \"#utility.yul\":25222:25226   */\n      dup2\n        /* \"#utility.yul\":25096:25227   */\n      tag_370\n      jump\t// in\n    tag_616:\n        /* \"#utility.yul\":25088:25227   */\n      swap1\n      pop\n        /* \"#utility.yul\":24815:25234   */\n      swap2\n      swap1\n      pop\n      jump\t// out\n        /* \"#utility.yul\":25240:25415   */\n    tag_371:\n        /* \"#utility.yul\":25380:25407   */\n      0x63616e7420636c61696d2077696e6e65722070726f6a65637400000000000000\n        /* \"#utility.yul\":25376:25377   */\n      0x00\n        /* \"#utility.yul\":25368:25374   */\n      dup3\n        /* \"#utility.yul\":25364:25378   */\n      add\n        /* \"#utility.yul\":25357:25408   */\n      mstore\n        /* \"#utility.yul\":25240:25415   */\n      pop\n      jump\t// out\n        /* \"#utility.yul\":25421:25787   */\n    tag_372:\n        /* \"#utility.yul\":25563:25566   */\n      0x00\n        /* \"#utility.yul\":25584:25651   */\n      tag_619\n        /* \"#utility.yul\":25648:25650   */\n      0x19\n        /* \"#utility.yul\":25643:25646   */\n      dup4\n        /* \"#utility.yul\":25584:25651   */\n      tag_311\n      jump\t// in\n    tag_619:\n        /* \"#utility.yul\":25577:25651   */\n      swap2\n      pop\n        /* \"#utility.yul\":25660:25753   */\n      tag_620\n        /* \"#utility.yul\":25749:25752   */\n      dup3\n        /* \"#utility.yul\":25660:25753   */\n      tag_371\n      jump\t// in\n    tag_620:\n        /* \"#utility.yul\":25778:25780   */\n      0x20\n        /* \"#utility.yul\":25773:25776   */\n      dup3\n        /* \"#utility.yul\":25769:25781   */\n      add\n        /* \"#utility.yul\":25762:25781   */\n      swap1\n      pop\n        /* \"#utility.yul\":25421:25787   */\n      swap2\n      swap1\n      pop\n      jump\t// out\n        /* \"#utility.yul\":25793:26212   */\n    tag_197:\n        /* \"#utility.yul\":25959:25963   */\n      0x00\n        /* \"#utility.yul\":25997:25999   */\n      0x20\n        /* \"#utility.yul\":25986:25995   */\n      dup3\n        /* \"#utility.yul\":25982:26000   */\n      add\n        /* \"#utility.yul\":25974:26000   */\n      swap1\n      pop\n        /* \"#utility.yul\":26046:26055   */\n      dup2\n        /* \"#utility.yul\":26040:26044   */\n      dup2\n        /* \"#utility.yul\":26036:26056   */\n      sub\n        /* \"#utility.yul\":26032:26033   */\n      0x00\n        /* \"#utility.yul\":26021:26030   */\n      dup4\n        /* \"#utility.yul\":26017:26034   */\n      add\n        /* \"#utility.yul\":26010:26057   */\n      mstore\n        /* \"#utility.yul\":26074:26205   */\n      tag_622\n        /* \"#utility.yul\":26200:26204   */\n      dup2\n        /* \"#utility.yul\":26074:26205   */\n      tag_372\n      jump\t// in\n    tag_622:\n        /* \"#utility.yul\":26066:26205   */\n      swap1\n      pop\n        /* \"#utility.yul\":25793:26212   */\n      swap2\n      swap1\n      pop\n      jump\t// out\n        /* \"#utility.yul\":26218:26398   */\n    tag_203:\n        /* \"#utility.yul\":26266:26343   */\n      0x4e487b7100000000000000000000000000000000000000000000000000000000\n        /* \"#utility.yul\":26263:26264   */\n      0x00\n        /* \"#utility.yul\":26256:26344   */\n      mstore\n        /* \"#utility.yul\":26363:26367   */\n      0x32\n        /* \"#utility.yul\":26360:26361   */\n      0x04\n        /* \"#utility.yul\":26353:26368   */\n      mstore\n        /* \"#utility.yul\":26387:26391   */\n      0x24\n        /* \"#utility.yul\":26384:26385   */\n      0x00\n        /* \"#utility.yul\":26377:26392   */\n      revert\n        /* \"#utility.yul\":26404:26736   */\n    tag_213:\n        /* \"#utility.yul\":26525:26529   */\n      0x00\n        /* \"#utility.yul\":26563:26565   */\n      0x40\n        /* \"#utility.yul\":26552:26561   */\n      dup3\n        /* \"#utility.yul\":26548:26566   */\n      add\n        /* \"#utility.yul\":26540:26566   */\n      swap1\n      pop\n        /* \"#utility.yul\":26576:26647   */\n      tag_625\n        /* \"#utility.yul\":26644:26645   */\n      0x00\n        /* \"#utility.yul\":26633:26642   */\n      dup4\n        /* \"#utility.yul\":26629:26646   */\n      add\n        /* \"#utility.yul\":26620:26626   */\n      dup6\n        /* \"#utility.yul\":26576:26647   */\n      tag_315\n      jump\t// in\n    tag_625:\n        /* \"#utility.yul\":26657:26729   */\n      tag_626\n        /* \"#utility.yul\":26725:26727   */\n      0x20\n        /* \"#utility.yul\":26714:26723   */\n      dup4\n        /* \"#utility.yul\":26710:26728   */\n      add\n        /* \"#utility.yul\":26701:26707   */\n      dup5\n        /* \"#utility.yul\":26657:26729   */\n      tag_305\n      jump\t// in\n    tag_626:\n        /* \"#utility.yul\":26404:26736   */\n      swap4\n      swap3\n      pop\n      pop\n      pop\n      jump\t// out\n        /* \"#utility.yul\":26742:26922   */\n    tag_240:\n        /* \"#utility.yul\":26790:26867   */\n      0x4e487b7100000000000000000000000000000000000000000000000000000000\n        /* \"#utility.yul\":26787:26788   */\n      0x00\n        /* \"#utility.yul\":26780:26868   */\n      mstore\n        /* \"#utility.yul\":26887:26891   */\n      0x21\n        /* \"#utility.yul\":26884:26885   */\n      0x04\n        /* \"#utility.yul\":26877:26892   */\n      mstore\n        /* \"#utility.yul\":26911:26915   */\n      0x24\n        /* \"#utility.yul\":26908:26909   */\n      0x00\n        /* \"#utility.yul\":26901:26916   */\n      revert\n\n    auxdata: 0xa2646970667358221220a984e667e4a569a9573093e34c44b9806c307d10537affae8a8564f8b2b8b5f564736f6c634300081a0033\n}\n",
				"bytecode": {
					"linkReferences": {},
					"object": "60806040525f6003555f600460146101000a81548160ff0219169083600281111561002d5761002c6101f0565b5b02179055505f600655600a600755348015610046575f80fd5b50604051612887380380612887833981810160405281019061006891906102ae565b825f73ffffffffffffffffffffffffffffffffffffffff168173ffffffffffffffffffffffffffffffffffffffff16036100d9575f6040517f1e4fbdf70000000000000000000000000000000000000000000000000000000081526004016100d0919061030d565b60405180910390fd5b6100e88161012f60201b60201c565b50603c826100f69190610353565b426101019190610394565b600181905550603c816101149190610353565b6001546101219190610394565b6002819055505050506103c7565b5f805f9054906101000a900473ffffffffffffffffffffffffffffffffffffffff169050815f806101000a81548173ffffffffffffffffffffffffffffffffffffffff021916908373ffffffffffffffffffffffffffffffffffffffff1602179055508173ffffffffffffffffffffffffffffffffffffffff168173ffffffffffffffffffffffffffffffffffffffff167f8be0079c531659141344cd1fd0a4f28419497f9722a3daafe3b4186f6b6457e060405160405180910390a35050565b7f4e487b71000000000000000000000000000000000000000000000000000000005f52602160045260245ffd5b5f80fd5b5f73ffffffffffffffffffffffffffffffffffffffff82169050919050565b5f61024a82610221565b9050919050565b61025a81610240565b8114610264575f80fd5b50565b5f8151905061027581610251565b92915050565b5f819050919050565b61028d8161027b565b8114610297575f80fd5b50565b5f815190506102a881610284565b92915050565b5f805f606084860312156102c5576102c461021d565b5b5f6102d286828701610267565b93505060206102e38682870161029a565b92505060406102f48682870161029a565b9150509250925092565b61030781610240565b82525050565b5f6020820190506103205f8301846102fe565b92915050565b7f4e487b71000000000000000000000000000000000000000000000000000000005f52601160045260245ffd5b5f61035d8261027b565b91506103688361027b565b92508282026103768161027b565b9150828204841483151761038d5761038c610326565b5b5092915050565b5f61039e8261027b565b91506103a98361027b565b92508282019050808211156103c1576103c0610326565b5b92915050565b6124b3806103d45f395ff3fe608060405234801561000f575f80fd5b506004361061014b575f3560e01c80634e69d560116100c1578063bfb906a71161007a578063bfb906a714610365578063cb06545c14610395578063d19ee357146103b1578063f2fde38b146103cd578063f4b1f501146103e9578063f84ddf0b146104075761014b565b80634e69d560146102b5578063715018a6146102d35780638da5cb5b146102dd578063a3ec138d146102fb578063aae282e11461032b578063b00741cb146103495761014b565b8063239ecf3511610113578063239ecf35146101f557806333b2decc1461021157806336fbad261461022d578063379607f51461024b57806338200702146102675780633885aed3146102975761014b565b80630121b93f1461014f57806302a251a31461016b5780630b102d1a146101895780630d15fd77146101a5578063107046bd146101c3575b5f80fd5b610169600480360381019061016491906117af565b610425565b005b610173610889565b60405161018091906117e9565b60405180910390f35b6101a3600480360381019061019e919061185c565b61088f565b005b6101ad6108da565b6040516101ba91906117e9565b60405180910390f35b6101dd60048036038101906101d891906117af565b6108e0565b6040516101ec93929190611906565b60405180910390f35b61020f600480360381019061020a9190611a6e565b6109ab565b005b61022b60048036038101906102269190611ab5565b610a85565b005b610235610ddf565b60405161024291906117e9565b60405180910390f35b610265600480360381019061026091906117af565b610de5565b005b610281600480360381019061027c91906117af565b61106e565b60405161028e9190611b1f565b60405180910390f35b61029f61108b565b6040516102ac91906117e9565b60405180910390f35b6102bd611091565b6040516102ca91906117e9565b60405180910390f35b6102db6110cd565b005b6102e56110e0565b6040516102f29190611b38565b60405180910390f35b6103156004803603810190610310919061185c565b611107565b60405161032291906117e9565b60405180910390f35b61033361111c565b6040516103409190611b38565b60405180910390f35b610363600480360381019061035e91906117af565b611141565b005b61037f600480360381019061037a91906117af565b6111e6565b60405161038c9190611c57565b60405180910390f35b6103af60048036038101906103aa91906117af565b611309565b005b6103cb60048036038101906103c6919061185c565b61131b565b005b6103e760048036038101906103e2919061185c565b6114f8565b005b6103f161157c565b6040516103fe91906117e9565b60405180910390f35b61040f6115cc565b60405161041c91906117e9565b60405180910390f35b600154421015801561043957506002544211155b610478576040517f08c379a000000000000000000000000000000000000000000000000000000000815260040161046f90611cc1565b60405180910390fd5b8060035410156104bd576040517f08c379a00000000000000000000000000000000000000000000000000000000081526004016104b490611d29565b60405180910390fd5b5f60045f9054906101000a900473ffffffffffffffffffffffffffffffffffffffff1673ffffffffffffffffffffffffffffffffffffffff166370a08231336040518263ffffffff1660e01b81526004016105189190611b38565b602060405180830381865afa158015610533573d5f803e3d5ffd5b505050506040513d601f19601f820116820180604052508101906105579190611d5b565b11610597576040517f08c379a000000000000000000000000000000000000000000000000000000000815260040161058e90611dd0565b60405180910390fd5b5f60095f8381526020019081526020015f20905060045f9054906101000a900473ffffffffffffffffffffffffffffffffffffffff1673ffffffffffffffffffffffffffffffffffffffff166370a08231336040518263ffffffff1660e01b81526004016106059190611b38565b602060405180830381865afa158015610620573d5f803e3d5ffd5b505050506040513d601f19601f820116820180604052508101906106449190611d5b565b60055f3373ffffffffffffffffffffffffffffffffffffffff1673ffffffffffffffffffffffffffffffffffffffff1681526020019081526020015f2054106106c2576040517f08c379a00000000000000000000000000000000000000000000000000000000081526004016106b990611e38565b60405180910390fd5b5f5b6007548111610884573373ffffffffffffffffffffffffffffffffffffffff1660045f9054906101000a900473ffffffffffffffffffffffffffffffffffffffff1673ffffffffffffffffffffffffffffffffffffffff16636352211e836040518263ffffffff1660e01b815260040161073e91906117e9565b602060405180830381865afa158015610759573d5f803e3d5ffd5b505050506040513d601f19601f8201168201806040525081019061077d9190611e6a565b73ffffffffffffffffffffffffffffffffffffffff1603610871575f151560085f8381526020019081526020015f205f9054906101000a900460ff161515036108705760055f3373ffffffffffffffffffffffffffffffffffffffff1673ffffffffffffffffffffffffffffffffffffffff1681526020019081526020015f205f81548092919061080d90611ec2565b9190505550816003015f81548092919061082690611ec2565b919050555060065f81548092919061083d90611ec2565b9190505550600160085f8381526020019081526020015f205f6101000a81548160ff021916908315150217905550610884565b5b808061087c90611ec2565b9150506106c4565b505050565b60025481565b6108976115d2565b8060045f6101000a81548173ffffffffffffffffffffffffffffffffffffffff021916908373ffffffffffffffffffffffffffffffffffffffff16021790555050565b60065481565b6009602052805f5260405f205f91509050805f0180546108ff90611f36565b80601f016020809104026020016040519081016040528092919081815260200182805461092b90611f36565b80156109765780601f1061094d57610100808354040283529160200191610976565b820191905f5260205f20905b81548152906001019060200180831161095957829003601f168201915b505050505090806001015f9054906101000a900473ffffffffffffffffffffffffffffffffffffffff16908060030154905083565b6109b36115d2565b6001544211156109f8576040517f08c379a00000000000000000000000000000000000000000000000000000000081526004016109ef90611cc1565b60405180910390fd5b60035f815480929190610a0a90611ec2565b91905055505f60095f60035481526020019081526020015f20905081815f019081610a359190612103565b5033816001015f6101000a81548173ffffffffffffffffffffffffffffffffffffffff021916908373ffffffffffffffffffffffffffffffffffffffff1602179055505f81600301819055505050565b600154421115610aca576040517f08c379a0000000000000000000000000000000000000000000000000000000008152600401610ac190611cc1565b60405180910390fd5b5f8111610b0c576040517f08c379a0000000000000000000000000000000000000000000000000000000008152600401610b039061221c565b60405180910390fd5b808273ffffffffffffffffffffffffffffffffffffffff166370a08231336040518263ffffffff1660e01b8152600401610b469190611b38565b602060405180830381865afa158015610b61573d5f803e3d5ffd5b505050506040513d601f19601f82011682018060405250810190610b859190611d5b565b1015610bc6576040517f08c379a0000000000000000000000000000000000000000000000000000000008152600401610bbd90612284565b60405180910390fd5b8173ffffffffffffffffffffffffffffffffffffffff166323b872dd3330846040518463ffffffff1660e01b8152600401610c03939291906122a2565b6020604051808303815f875af1158015610c1f573d5f803e3d5ffd5b505050506040513d601f19601f82011682018060405250810190610c439190612301565b610c82576040517f08c379a0000000000000000000000000000000000000000000000000000000008152600401610c7990612376565b60405180910390fd5b5f60095f8581526020019081526020015f209050610c9e611721565b33815f019073ffffffffffffffffffffffffffffffffffffffff16908173ffffffffffffffffffffffffffffffffffffffff168152505083816020019073ffffffffffffffffffffffffffffffffffffffff16908173ffffffffffffffffffffffffffffffffffffffff1681525050828160400181815250508160020181908060018154018082558091505060019003905f5260205f2090600302015f909190919091505f820151815f015f6101000a81548173ffffffffffffffffffffffffffffffffffffffff021916908373ffffffffffffffffffffffffffffffffffffffff1602179055506020820151816001015f6101000a81548173ffffffffffffffffffffffffffffffffffffffff021916908373ffffffffffffffffffffffffffffffffffffffff1602179055506040820151816002015550505050505050565b60035481565b600254421015610e2a576040517f08c379a0000000000000000000000000000000000000000000000000000000008152600401610e2190611cc1565b60405180910390fd5b610e3261157c565b8103610e73576040517f08c379a0000000000000000000000000000000000000000000000000000000008152600401610e6a906123de565b60405180910390fd5b5f60095f8381526020019081526020015f2090505f5b8160020180549050811015611069573373ffffffffffffffffffffffffffffffffffffffff16826002018281548110610ec557610ec46123fc565b5b905f5260205f2090600302015f015f9054906101000a900473ffffffffffffffffffffffffffffffffffffffff1673ffffffffffffffffffffffffffffffffffffffff160361105c57816002018181548110610f2457610f236123fc565b5b905f5260205f2090600302016001015f9054906101000a900473ffffffffffffffffffffffffffffffffffffffff1673ffffffffffffffffffffffffffffffffffffffff1663a9059cbb33846002018481548110610f8557610f846123fc565b5b905f5260205f209060030201600201546040518363ffffffff1660e01b8152600401610fb2929190612429565b6020604051808303815f875af1158015610fce573d5f803e3d5ffd5b505050506040513d601f19601f82011682018060405250810190610ff29190612301565b611031576040517f08c379a000000000000000000000000000000000000000000000000000000000815260040161102890612376565b60405180910390fd5b5f826002018281548110611048576110476123fc565b5b905f5260205f209060030201600201819055505b8080600101915050610e89565b505050565b6008602052805f5260405f205f915054906101000a900460ff1681565b60015481565b5f60015442116110a3575f90506110ca565b60015442101580156110b757506002544211155b156110c557600190506110ca565b600290505b90565b6110d56115d2565b6110de5f611659565b565b5f805f9054906101000a900473ffffffffffffffffffffffffffffffffffffffff16905090565b6005602052805f5260405f205f915090505481565b60045f9054906101000a900473ffffffffffffffffffffffffffffffffffffffff1681565b6111496115d2565b5f810361117b575f600460146101000a81548160ff0219169083600281111561117557611174612450565b5b02179055505b600181036111af576001600460146101000a81548160ff021916908360028111156111a9576111a8612450565b5b02179055505b600281036111e3576002600460146101000a81548160ff021916908360028111156111dd576111dc612450565b5b02179055505b50565b606060095f8381526020019081526020015f20600201805480602002602001604051908101604052809291908181526020015f905b828210156112fe578382905f5260205f2090600302016040518060600160405290815f82015f9054906101000a900473ffffffffffffffffffffffffffffffffffffffff1673ffffffffffffffffffffffffffffffffffffffff1673ffffffffffffffffffffffffffffffffffffffff168152602001600182015f9054906101000a900473ffffffffffffffffffffffffffffffffffffffff1673ffffffffffffffffffffffffffffffffffffffff1673ffffffffffffffffffffffffffffffffffffffff1681526020016002820154815250508152602001906001019061121b565b505050509050919050565b6113116115d2565b8060078190555050565b6113236115d2565b600254421015611368576040517f08c379a000000000000000000000000000000000000000000000000000000000815260040161135f90611cc1565b60405180910390fd5b5f61137161157c565b90505f60095f8381526020019081526020015f2090505f5b81600201805490508110156114f2578160020181815481106113ae576113ad6123fc565b5b905f5260205f2090600302016001015f9054906101000a900473ffffffffffffffffffffffffffffffffffffffff1673ffffffffffffffffffffffffffffffffffffffff1663a9059cbb8584600201848154811061140f5761140e6123fc565b5b905f5260205f209060030201600201546040518363ffffffff1660e01b815260040161143c929190612429565b6020604051808303815f875af1158015611458573d5f803e3d5ffd5b505050506040513d601f19601f8201168201806040525081019061147c9190612301565b6114bb576040517f08c379a00000000000000000000000000000000000000000000000000000000081526004016114b290612376565b60405180910390fd5b5f8260020182815481106114d2576114d16123fc565b5b905f5260205f209060030201600201819055508080600101915050611389565b50505050565b6115006115d2565b5f73ffffffffffffffffffffffffffffffffffffffff168173ffffffffffffffffffffffffffffffffffffffff1603611570575f6040517f1e4fbdf70000000000000000000000000000000000000000000000000000000081526004016115679190611b38565b60405180910390fd5b61157981611659565b50565b5f80600190505f600190505b60035481116115c4578160095f8381526020019081526020015f206003015411156115b1578091505b80806115bc90611ec2565b915050611588565b508091505090565b60075481565b6115da61171a565b73ffffffffffffffffffffffffffffffffffffffff166115f86110e0565b73ffffffffffffffffffffffffffffffffffffffff16146116575761161b61171a565b6040517f118cdaa700000000000000000000000000000000000000000000000000000000815260040161164e9190611b38565b60405180910390fd5b565b5f805f9054906101000a900473ffffffffffffffffffffffffffffffffffffffff169050815f806101000a81548173ffffffffffffffffffffffffffffffffffffffff021916908373ffffffffffffffffffffffffffffffffffffffff1602179055508173ffffffffffffffffffffffffffffffffffffffff168173ffffffffffffffffffffffffffffffffffffffff167f8be0079c531659141344cd1fd0a4f28419497f9722a3daafe3b4186f6b6457e060405160405180910390a35050565b5f33905090565b60405180606001604052805f73ffffffffffffffffffffffffffffffffffffffff1681526020015f73ffffffffffffffffffffffffffffffffffffffff1681526020015f81525090565b5f604051905090565b5f80fd5b5f80fd5b5f819050919050565b61178e8161177c565b8114611798575f80fd5b50565b5f813590506117a981611785565b92915050565b5f602082840312156117c4576117c3611774565b5b5f6117d18482850161179b565b91505092915050565b6117e38161177c565b82525050565b5f6020820190506117fc5f8301846117da565b92915050565b5f73ffffffffffffffffffffffffffffffffffffffff82169050919050565b5f61182b82611802565b9050919050565b61183b81611821565b8114611845575f80fd5b50565b5f8135905061185681611832565b92915050565b5f6020828403121561187157611870611774565b5b5f61187e84828501611848565b91505092915050565b5f81519050919050565b5f82825260208201905092915050565b8281835e5f83830152505050565b5f601f19601f8301169050919050565b5f6118c982611887565b6118d38185611891565b93506118e38185602086016118a1565b6118ec816118af565b840191505092915050565b61190081611821565b82525050565b5f6060820190508181035f83015261191e81866118bf565b905061192d60208301856118f7565b61193a60408301846117da565b949350505050565b5f80fd5b5f80fd5b7f4e487b71000000000000000000000000000000000000000000000000000000005f52604160045260245ffd5b611980826118af565b810181811067ffffffffffffffff8211171561199f5761199e61194a565b5b80604052505050565b5f6119b161176b565b90506119bd8282611977565b919050565b5f67ffffffffffffffff8211156119dc576119db61194a565b5b6119e5826118af565b9050602081019050919050565b828183375f83830152505050565b5f611a12611a0d846119c2565b6119a8565b905082815260208101848484011115611a2e57611a2d611946565b5b611a398482856119f2565b509392505050565b5f82601f830112611a5557611a54611942565b5b8135611a65848260208601611a00565b91505092915050565b5f60208284031215611a8357611a82611774565b5b5f82013567ffffffffffffffff811115611aa057611a9f611778565b5b611aac84828501611a41565b91505092915050565b5f805f60608486031215611acc57611acb611774565b5b5f611ad98682870161179b565b9350506020611aea86828701611848565b9250506040611afb8682870161179b565b9150509250925092565b5f8115159050919050565b611b1981611b05565b82525050565b5f602082019050611b325f830184611b10565b92915050565b5f602082019050611b4b5f8301846118f7565b92915050565b5f81519050919050565b5f82825260208201905092915050565b5f819050602082019050919050565b611b8381611821565b82525050565b611b928161177c565b82525050565b606082015f820151611bac5f850182611b7a565b506020820151611bbf6020850182611b7a565b506040820151611bd26040850182611b89565b50505050565b5f611be38383611b98565b60608301905092915050565b5f602082019050919050565b5f611c0582611b51565b611c0f8185611b5b565b9350611c1a83611b6b565b805f5b83811015611c4a578151611c318882611bd8565b9750611c3c83611bef565b925050600181019050611c1d565b5085935050505092915050565b5f6020820190508181035f830152611c6f8184611bfb565b905092915050565b7f63616e7420646f206974206e6f770000000000000000000000000000000000005f82015250565b5f611cab600e83611891565b9150611cb682611c77565b602082019050919050565b5f6020820190508181035f830152611cd881611c9f565b9050919050565b7f616f7574206f66206f72646572206e6f000000000000000000000000000000005f82015250565b5f611d13601083611891565b9150611d1e82611cdf565b602082019050919050565b5f6020820190508181035f830152611d4081611d07565b9050919050565b5f81519050611d5581611785565b92915050565b5f60208284031215611d7057611d6f611774565b5b5f611d7d84828501611d47565b91505092915050565b7f646f6e74206f776e20746865206e6674000000000000000000000000000000005f82015250565b5f611dba601083611891565b9150611dc582611d86565b602082019050919050565b5f6020820190508181035f830152611de781611dae565b9050919050565b7f63616e2063617374206d6f726520766f746500000000000000000000000000005f82015250565b5f611e22601283611891565b9150611e2d82611dee565b602082019050919050565b5f6020820190508181035f830152611e4f81611e16565b9050919050565b5f81519050611e6481611832565b92915050565b5f60208284031215611e7f57611e7e611774565b5b5f611e8c84828501611e56565b91505092915050565b7f4e487b71000000000000000000000000000000000000000000000000000000005f52601160045260245ffd5b5f611ecc8261177c565b91507fffffffffffffffffffffffffffffffffffffffffffffffffffffffffffffffff8203611efe57611efd611e95565b5b600182019050919050565b7f4e487b71000000000000000000000000000000000000000000000000000000005f52602260045260245ffd5b5f6002820490506001821680611f4d57607f821691505b602082108103611f6057611f5f611f09565b5b50919050565b5f819050815f5260205f209050919050565b5f6020601f8301049050919050565b5f82821b905092915050565b5f60088302611fc27fffffffffffffffffffffffffffffffffffffffffffffffffffffffffffffffff82611f87565b611fcc8683611f87565b95508019841693508086168417925050509392505050565b5f819050919050565b5f612007612002611ffd8461177c565b611fe4565b61177c565b9050919050565b5f819050919050565b61202083611fed565b61203461202c8261200e565b848454611f93565b825550505050565b5f90565b61204861203c565b612053818484612017565b505050565b5b818110156120765761206b5f82612040565b600181019050612059565b5050565b601f8211156120bb5761208c81611f66565b61209584611f78565b810160208510156120a4578190505b6120b86120b085611f78565b830182612058565b50505b505050565b5f82821c905092915050565b5f6120db5f19846008026120c0565b1980831691505092915050565b5f6120f383836120cc565b9150826002028217905092915050565b61210c82611887565b67ffffffffffffffff8111156121255761212461194a565b5b61212f8254611f36565b61213a82828561207a565b5f60209050601f83116001811461216b575f8415612159578287015190505b61216385826120e8565b8655506121ca565b601f19841661217986611f66565b5f5b828110156121a05784890151825560018201915060208501945060208101905061217b565b868310156121bd57848901516121b9601f8916826120cc565b8355505b6001600288020188555050505b505050505050565b7f416d6f756e74206d7573742062652067726561746572207468616e20300000005f82015250565b5f612206601d83611891565b9150612211826121d2565b602082019050919050565b5f6020820190508181035f830152612233816121fa565b9050919050565b7f496e73756666696369656e7420746f6b656e2062616c616e63650000000000005f82015250565b5f61226e601a83611891565b91506122798261223a565b602082019050919050565b5f6020820190508181035f83015261229b81612262565b9050919050565b5f6060820190506122b55f8301866118f7565b6122c260208301856118f7565b6122cf60408301846117da565b949350505050565b6122e081611b05565b81146122ea575f80fd5b50565b5f815190506122fb816122d7565b92915050565b5f6020828403121561231657612315611774565b5b5f612323848285016122ed565b91505092915050565b7f7472616e73616374696f6e206661696c656400000000000000000000000000005f82015250565b5f612360601283611891565b915061236b8261232c565b602082019050919050565b5f6020820190508181035f83015261238d81612354565b9050919050565b7f63616e7420636c61696d2077696e6e65722070726f6a656374000000000000005f82015250565b5f6123c8601983611891565b91506123d382612394565b602082019050919050565b5f6020820190508181035f8301526123f5816123bc565b9050919050565b7f4e487b71000000000000000000000000000000000000000000000000000000005f52603260045260245ffd5b5f60408201905061243c5f8301856118f7565b61244960208301846117da565b9392505050565b7f4e487b71000000000000000000000000000000000000000000000000000000005f52602160045260245ffdfea2646970667358221220a984e667e4a569a9573093e34c44b9806c307d10537affae8a8564f8b2b8b5f564736f6c634300081a0033",
					"opcodes": "PUSH1 0x80 PUSH1 0x40 MSTORE PUSH0 PUSH1 0x3 SSTORE PUSH0 PUSH1 0x4 PUSH1 0x14 PUSH2 0x100 EXP DUP2 SLOAD DUP2 PUSH1 0xFF MUL NOT AND SWAP1 DUP4 PUSH1 0x2 DUP2 GT ISZERO PUSH2 0x2D JUMPI PUSH2 0x2C PUSH2 0x1F0 JUMP JUMPDEST JUMPDEST MUL OR SWAP1 SSTORE POP PUSH0 PUSH1 0x6 SSTORE PUSH1 0xA PUSH1 0x7 SSTORE CALLVALUE DUP1 ISZERO PUSH2 0x46 JUMPI PUSH0 DUP1 REVERT JUMPDEST POP PUSH1 0x40 MLOAD PUSH2 0x2887 CODESIZE SUB DUP1 PUSH2 0x2887 DUP4 CODECOPY DUP2 DUP2 ADD PUSH1 0x40 MSTORE DUP2 ADD SWAP1 PUSH2 0x68 SWAP2 SWAP1 PUSH2 0x2AE JUMP JUMPDEST DUP3 PUSH0 PUSH20 0xFFFFFFFFFFFFFFFFFFFFFFFFFFFFFFFFFFFFFFFF AND DUP2 PUSH20 0xFFFFFFFFFFFFFFFFFFFFFFFFFFFFFFFFFFFFFFFF AND SUB PUSH2 0xD9 JUMPI PUSH0 PUSH1 0x40 MLOAD PUSH32 0x1E4FBDF700000000000000000000000000000000000000000000000000000000 DUP2 MSTORE PUSH1 0x4 ADD PUSH2 0xD0 SWAP2 SWAP1 PUSH2 0x30D JUMP JUMPDEST PUSH1 0x40 MLOAD DUP1 SWAP2 SUB SWAP1 REVERT JUMPDEST PUSH2 0xE8 DUP2 PUSH2 0x12F PUSH1 0x20 SHL PUSH1 0x20 SHR JUMP JUMPDEST POP PUSH1 0x3C DUP3 PUSH2 0xF6 SWAP2 SWAP1 PUSH2 0x353 JUMP JUMPDEST TIMESTAMP PUSH2 0x101 SWAP2 SWAP1 PUSH2 0x394 JUMP JUMPDEST PUSH1 0x1 DUP2 SWAP1 SSTORE POP PUSH1 0x3C DUP2 PUSH2 0x114 SWAP2 SWAP1 PUSH2 0x353 JUMP JUMPDEST PUSH1 0x1 SLOAD PUSH2 0x121 SWAP2 SWAP1 PUSH2 0x394 JUMP JUMPDEST PUSH1 0x2 DUP2 SWAP1 SSTORE POP POP POP POP PUSH2 0x3C7 JUMP JUMPDEST PUSH0 DUP1 PUSH0 SWAP1 SLOAD SWAP1 PUSH2 0x100 EXP SWAP1 DIV PUSH20 0xFFFFFFFFFFFFFFFFFFFFFFFFFFFFFFFFFFFFFFFF AND SWAP1 POP DUP2 PUSH0 DUP1 PUSH2 0x100 EXP DUP2 SLOAD DUP2 PUSH20 0xFFFFFFFFFFFFFFFFFFFFFFFFFFFFFFFFFFFFFFFF MUL NOT AND SWAP1 DUP4 PUSH20 0xFFFFFFFFFFFFFFFFFFFFFFFFFFFFFFFFFFFFFFFF AND MUL OR SWAP1 SSTORE POP DUP2 PUSH20 0xFFFFFFFFFFFFFFFFFFFFFFFFFFFFFFFFFFFFFFFF AND DUP2 PUSH20 0xFFFFFFFFFFFFFFFFFFFFFFFFFFFFFFFFFFFFFFFF AND PUSH32 0x8BE0079C531659141344CD1FD0A4F28419497F9722A3DAAFE3B4186F6B6457E0 PUSH1 0x40 MLOAD PUSH1 0x40 MLOAD DUP1 SWAP2 SUB SWAP1 LOG3 POP POP JUMP JUMPDEST PUSH32 0x4E487B7100000000000000000000000000000000000000000000000000000000 PUSH0 MSTORE PUSH1 0x21 PUSH1 0x4 MSTORE PUSH1 0x24 PUSH0 REVERT JUMPDEST PUSH0 DUP1 REVERT JUMPDEST PUSH0 PUSH20 0xFFFFFFFFFFFFFFFFFFFFFFFFFFFFFFFFFFFFFFFF DUP3 AND SWAP1 POP SWAP2 SWAP1 POP JUMP JUMPDEST PUSH0 PUSH2 0x24A DUP3 PUSH2 0x221 JUMP JUMPDEST SWAP1 POP SWAP2 SWAP1 POP JUMP JUMPDEST PUSH2 0x25A DUP2 PUSH2 0x240 JUMP JUMPDEST DUP2 EQ PUSH2 0x264 JUMPI PUSH0 DUP1 REVERT JUMPDEST POP JUMP JUMPDEST PUSH0 DUP2 MLOAD SWAP1 POP PUSH2 0x275 DUP2 PUSH2 0x251 JUMP JUMPDEST SWAP3 SWAP2 POP POP JUMP JUMPDEST PUSH0 DUP2 SWAP1 POP SWAP2 SWAP1 POP JUMP JUMPDEST PUSH2 0x28D DUP2 PUSH2 0x27B JUMP JUMPDEST DUP2 EQ PUSH2 0x297 JUMPI PUSH0 DUP1 REVERT JUMPDEST POP JUMP JUMPDEST PUSH0 DUP2 MLOAD SWAP1 POP PUSH2 0x2A8 DUP2 PUSH2 0x284 JUMP JUMPDEST SWAP3 SWAP2 POP POP JUMP JUMPDEST PUSH0 DUP1 PUSH0 PUSH1 0x60 DUP5 DUP7 SUB SLT ISZERO PUSH2 0x2C5 JUMPI PUSH2 0x2C4 PUSH2 0x21D JUMP JUMPDEST JUMPDEST PUSH0 PUSH2 0x2D2 DUP7 DUP3 DUP8 ADD PUSH2 0x267 JUMP JUMPDEST SWAP4 POP POP PUSH1 0x20 PUSH2 0x2E3 DUP7 DUP3 DUP8 ADD PUSH2 0x29A JUMP JUMPDEST SWAP3 POP POP PUSH1 0x40 PUSH2 0x2F4 DUP7 DUP3 DUP8 ADD PUSH2 0x29A JUMP JUMPDEST SWAP2 POP POP SWAP3 POP SWAP3 POP SWAP3 JUMP JUMPDEST PUSH2 0x307 DUP2 PUSH2 0x240 JUMP JUMPDEST DUP3 MSTORE POP POP JUMP JUMPDEST PUSH0 PUSH1 0x20 DUP3 ADD SWAP1 POP PUSH2 0x320 PUSH0 DUP4 ADD DUP5 PUSH2 0x2FE JUMP JUMPDEST SWAP3 SWAP2 POP POP JUMP JUMPDEST PUSH32 0x4E487B7100000000000000000000000000000000000000000000000000000000 PUSH0 MSTORE PUSH1 0x11 PUSH1 0x4 MSTORE PUSH1 0x24 PUSH0 REVERT JUMPDEST PUSH0 PUSH2 0x35D DUP3 PUSH2 0x27B JUMP JUMPDEST SWAP2 POP PUSH2 0x368 DUP4 PUSH2 0x27B JUMP JUMPDEST SWAP3 POP DUP3 DUP3 MUL PUSH2 0x376 DUP2 PUSH2 0x27B JUMP JUMPDEST SWAP2 POP DUP3 DUP3 DIV DUP5 EQ DUP4 ISZERO OR PUSH2 0x38D JUMPI PUSH2 0x38C PUSH2 0x326 JUMP JUMPDEST JUMPDEST POP SWAP3 SWAP2 POP POP JUMP JUMPDEST PUSH0 PUSH2 0x39E DUP3 PUSH2 0x27B JUMP JUMPDEST SWAP2 POP PUSH2 0x3A9 DUP4 PUSH2 0x27B JUMP JUMPDEST SWAP3 POP DUP3 DUP3 ADD SWAP1 POP DUP1 DUP3 GT ISZERO PUSH2 0x3C1 JUMPI PUSH2 0x3C0 PUSH2 0x326 JUMP JUMPDEST JUMPDEST SWAP3 SWAP2 POP POP JUMP JUMPDEST PUSH2 0x24B3 DUP1 PUSH2 0x3D4 PUSH0 CODECOPY PUSH0 RETURN INVALID PUSH1 0x80 PUSH1 0x40 MSTORE CALLVALUE DUP1 ISZERO PUSH2 0xF JUMPI PUSH0 DUP1 REVERT JUMPDEST POP PUSH1 0x4 CALLDATASIZE LT PUSH2 0x14B JUMPI PUSH0 CALLDATALOAD PUSH1 0xE0 SHR DUP1 PUSH4 0x4E69D560 GT PUSH2 0xC1 JUMPI DUP1 PUSH4 0xBFB906A7 GT PUSH2 0x7A JUMPI DUP1 PUSH4 0xBFB906A7 EQ PUSH2 0x365 JUMPI DUP1 PUSH4 0xCB06545C EQ PUSH2 0x395 JUMPI DUP1 PUSH4 0xD19EE357 EQ PUSH2 0x3B1 JUMPI DUP1 PUSH4 0xF2FDE38B EQ PUSH2 0x3CD JUMPI DUP1 PUSH4 0xF4B1F501 EQ PUSH2 0x3E9 JUMPI DUP1 PUSH4 0xF84DDF0B EQ PUSH2 0x407 JUMPI PUSH2 0x14B JUMP JUMPDEST DUP1 PUSH4 0x4E69D560 EQ PUSH2 0x2B5 JUMPI DUP1 PUSH4 0x715018A6 EQ PUSH2 0x2D3 JUMPI DUP1 PUSH4 0x8DA5CB5B EQ PUSH2 0x2DD JUMPI DUP1 PUSH4 0xA3EC138D EQ PUSH2 0x2FB JUMPI DUP1 PUSH4 0xAAE282E1 EQ PUSH2 0x32B JUMPI DUP1 PUSH4 0xB00741CB EQ PUSH2 0x349 JUMPI PUSH2 0x14B JUMP JUMPDEST DUP1 PUSH4 0x239ECF35 GT PUSH2 0x113 JUMPI DUP1 PUSH4 0x239ECF35 EQ PUSH2 0x1F5 JUMPI DUP1 PUSH4 0x33B2DECC EQ PUSH2 0x211 JUMPI DUP1 PUSH4 0x36FBAD26 EQ PUSH2 0x22D JUMPI DUP1 PUSH4 0x379607F5 EQ PUSH2 0x24B JUMPI DUP1 PUSH4 0x38200702 EQ PUSH2 0x267 JUMPI DUP1 PUSH4 0x3885AED3 EQ PUSH2 0x297 JUMPI PUSH2 0x14B JUMP JUMPDEST DUP1 PUSH4 0x121B93F EQ PUSH2 0x14F JUMPI DUP1 PUSH4 0x2A251A3 EQ PUSH2 0x16B JUMPI DUP1 PUSH4 0xB102D1A EQ PUSH2 0x189 JUMPI DUP1 PUSH4 0xD15FD77 EQ PUSH2 0x1A5 JUMPI DUP1 PUSH4 0x107046BD EQ PUSH2 0x1C3 JUMPI JUMPDEST PUSH0 DUP1 REVERT JUMPDEST PUSH2 0x169 PUSH1 0x4 DUP1 CALLDATASIZE SUB DUP2 ADD SWAP1 PUSH2 0x164 SWAP2 SWAP1 PUSH2 0x17AF JUMP JUMPDEST PUSH2 0x425 JUMP JUMPDEST STOP JUMPDEST PUSH2 0x173 PUSH2 0x889 JUMP JUMPDEST PUSH1 0x40 MLOAD PUSH2 0x180 SWAP2 SWAP1 PUSH2 0x17E9 JUMP JUMPDEST PUSH1 0x40 MLOAD DUP1 SWAP2 SUB SWAP1 RETURN JUMPDEST PUSH2 0x1A3 PUSH1 0x4 DUP1 CALLDATASIZE SUB DUP2 ADD SWAP1 PUSH2 0x19E SWAP2 SWAP1 PUSH2 0x185C JUMP JUMPDEST PUSH2 0x88F JUMP JUMPDEST STOP JUMPDEST PUSH2 0x1AD PUSH2 0x8DA JUMP JUMPDEST PUSH1 0x40 MLOAD PUSH2 0x1BA SWAP2 SWAP1 PUSH2 0x17E9 JUMP JUMPDEST PUSH1 0x40 MLOAD DUP1 SWAP2 SUB SWAP1 RETURN JUMPDEST PUSH2 0x1DD PUSH1 0x4 DUP1 CALLDATASIZE SUB DUP2 ADD SWAP1 PUSH2 0x1D8 SWAP2 SWAP1 PUSH2 0x17AF JUMP JUMPDEST PUSH2 0x8E0 JUMP JUMPDEST PUSH1 0x40 MLOAD PUSH2 0x1EC SWAP4 SWAP3 SWAP2 SWAP1 PUSH2 0x1906 JUMP JUMPDEST PUSH1 0x40 MLOAD DUP1 SWAP2 SUB SWAP1 RETURN JUMPDEST PUSH2 0x20F PUSH1 0x4 DUP1 CALLDATASIZE SUB DUP2 ADD SWAP1 PUSH2 0x20A SWAP2 SWAP1 PUSH2 0x1A6E JUMP JUMPDEST PUSH2 0x9AB JUMP JUMPDEST STOP JUMPDEST PUSH2 0x22B PUSH1 0x4 DUP1 CALLDATASIZE SUB DUP2 ADD SWAP1 PUSH2 0x226 SWAP2 SWAP1 PUSH2 0x1AB5 JUMP JUMPDEST PUSH2 0xA85 JUMP JUMPDEST STOP JUMPDEST PUSH2 0x235 PUSH2 0xDDF JUMP JUMPDEST PUSH1 0x40 MLOAD PUSH2 0x242 SWAP2 SWAP1 PUSH2 0x17E9 JUMP JUMPDEST PUSH1 0x40 MLOAD DUP1 SWAP2 SUB SWAP1 RETURN JUMPDEST PUSH2 0x265 PUSH1 0x4 DUP1 CALLDATASIZE SUB DUP2 ADD SWAP1 PUSH2 0x260 SWAP2 SWAP1 PUSH2 0x17AF JUMP JUMPDEST PUSH2 0xDE5 JUMP JUMPDEST STOP JUMPDEST PUSH2 0x281 PUSH1 0x4 DUP1 CALLDATASIZE SUB DUP2 ADD SWAP1 PUSH2 0x27C SWAP2 SWAP1 PUSH2 0x17AF JUMP JUMPDEST PUSH2 0x106E JUMP JUMPDEST PUSH1 0x40 MLOAD PUSH2 0x28E SWAP2 SWAP1 PUSH2 0x1B1F JUMP JUMPDEST PUSH1 0x40 MLOAD DUP1 SWAP2 SUB SWAP1 RETURN JUMPDEST PUSH2 0x29F PUSH2 0x108B JUMP JUMPDEST PUSH1 0x40 MLOAD PUSH2 0x2AC SWAP2 SWAP1 PUSH2 0x17E9 JUMP JUMPDEST PUSH1 0x40 MLOAD DUP1 SWAP2 SUB SWAP1 RETURN JUMPDEST PUSH2 0x2BD PUSH2 0x1091 JUMP JUMPDEST PUSH1 0x40 MLOAD PUSH2 0x2CA SWAP2 SWAP1 PUSH2 0x17E9 JUMP JUMPDEST PUSH1 0x40 MLOAD DUP1 SWAP2 SUB SWAP1 RETURN JUMPDEST PUSH2 0x2DB PUSH2 0x10CD JUMP JUMPDEST STOP JUMPDEST PUSH2 0x2E5 PUSH2 0x10E0 JUMP JUMPDEST PUSH1 0x40 MLOAD PUSH2 0x2F2 SWAP2 SWAP1 PUSH2 0x1B38 JUMP JUMPDEST PUSH1 0x40 MLOAD DUP1 SWAP2 SUB SWAP1 RETURN JUMPDEST PUSH2 0x315 PUSH1 0x4 DUP1 CALLDATASIZE SUB DUP2 ADD SWAP1 PUSH2 0x310 SWAP2 SWAP1 PUSH2 0x185C JUMP JUMPDEST PUSH2 0x1107 JUMP JUMPDEST PUSH1 0x40 MLOAD PUSH2 0x322 SWAP2 SWAP1 PUSH2 0x17E9 JUMP JUMPDEST PUSH1 0x40 MLOAD DUP1 SWAP2 SUB SWAP1 RETURN JUMPDEST PUSH2 0x333 PUSH2 0x111C JUMP JUMPDEST PUSH1 0x40 MLOAD PUSH2 0x340 SWAP2 SWAP1 PUSH2 0x1B38 JUMP JUMPDEST PUSH1 0x40 MLOAD DUP1 SWAP2 SUB SWAP1 RETURN JUMPDEST PUSH2 0x363 PUSH1 0x4 DUP1 CALLDATASIZE SUB DUP2 ADD SWAP1 PUSH2 0x35E SWAP2 SWAP1 PUSH2 0x17AF JUMP JUMPDEST PUSH2 0x1141 JUMP JUMPDEST STOP JUMPDEST PUSH2 0x37F PUSH1 0x4 DUP1 CALLDATASIZE SUB DUP2 ADD SWAP1 PUSH2 0x37A SWAP2 SWAP1 PUSH2 0x17AF JUMP JUMPDEST PUSH2 0x11E6 JUMP JUMPDEST PUSH1 0x40 MLOAD PUSH2 0x38C SWAP2 SWAP1 PUSH2 0x1C57 JUMP JUMPDEST PUSH1 0x40 MLOAD DUP1 SWAP2 SUB SWAP1 RETURN JUMPDEST PUSH2 0x3AF PUSH1 0x4 DUP1 CALLDATASIZE SUB DUP2 ADD SWAP1 PUSH2 0x3AA SWAP2 SWAP1 PUSH2 0x17AF JUMP JUMPDEST PUSH2 0x1309 JUMP JUMPDEST STOP JUMPDEST PUSH2 0x3CB PUSH1 0x4 DUP1 CALLDATASIZE SUB DUP2 ADD SWAP1 PUSH2 0x3C6 SWAP2 SWAP1 PUSH2 0x185C JUMP JUMPDEST PUSH2 0x131B JUMP JUMPDEST STOP JUMPDEST PUSH2 0x3E7 PUSH1 0x4 DUP1 CALLDATASIZE SUB DUP2 ADD SWAP1 PUSH2 0x3E2 SWAP2 SWAP1 PUSH2 0x185C JUMP JUMPDEST PUSH2 0x14F8 JUMP JUMPDEST STOP JUMPDEST PUSH2 0x3F1 PUSH2 0x157C JUMP JUMPDEST PUSH1 0x40 MLOAD PUSH2 0x3FE SWAP2 SWAP1 PUSH2 0x17E9 JUMP JUMPDEST PUSH1 0x40 MLOAD DUP1 SWAP2 SUB SWAP1 RETURN JUMPDEST PUSH2 0x40F PUSH2 0x15CC JUMP JUMPDEST PUSH1 0x40 MLOAD PUSH2 0x41C SWAP2 SWAP1 PUSH2 0x17E9 JUMP JUMPDEST PUSH1 0x40 MLOAD DUP1 SWAP2 SUB SWAP1 RETURN JUMPDEST PUSH1 0x1 SLOAD TIMESTAMP LT ISZERO DUP1 ISZERO PUSH2 0x439 JUMPI POP PUSH1 0x2 SLOAD TIMESTAMP GT ISZERO JUMPDEST PUSH2 0x478 JUMPI PUSH1 0x40 MLOAD PUSH32 0x8C379A000000000000000000000000000000000000000000000000000000000 DUP2 MSTORE PUSH1 0x4 ADD PUSH2 0x46F SWAP1 PUSH2 0x1CC1 JUMP JUMPDEST PUSH1 0x40 MLOAD DUP1 SWAP2 SUB SWAP1 REVERT JUMPDEST DUP1 PUSH1 0x3 SLOAD LT ISZERO PUSH2 0x4BD JUMPI PUSH1 0x40 MLOAD PUSH32 0x8C379A000000000000000000000000000000000000000000000000000000000 DUP2 MSTORE PUSH1 0x4 ADD PUSH2 0x4B4 SWAP1 PUSH2 0x1D29 JUMP JUMPDEST PUSH1 0x40 MLOAD DUP1 SWAP2 SUB SWAP1 REVERT JUMPDEST PUSH0 PUSH1 0x4 PUSH0 SWAP1 SLOAD SWAP1 PUSH2 0x100 EXP SWAP1 DIV PUSH20 0xFFFFFFFFFFFFFFFFFFFFFFFFFFFFFFFFFFFFFFFF AND PUSH20 0xFFFFFFFFFFFFFFFFFFFFFFFFFFFFFFFFFFFFFFFF AND PUSH4 0x70A08231 CALLER PUSH1 0x40 MLOAD DUP3 PUSH4 0xFFFFFFFF AND PUSH1 0xE0 SHL DUP2 MSTORE PUSH1 0x4 ADD PUSH2 0x518 SWAP2 SWAP1 PUSH2 0x1B38 JUMP JUMPDEST PUSH1 0x20 PUSH1 0x40 MLOAD DUP1 DUP4 SUB DUP2 DUP7 GAS STATICCALL ISZERO DUP1 ISZERO PUSH2 0x533 JUMPI RETURNDATASIZE PUSH0 DUP1 RETURNDATACOPY RETURNDATASIZE PUSH0 REVERT JUMPDEST POP POP POP POP PUSH1 0x40 MLOAD RETURNDATASIZE PUSH1 0x1F NOT PUSH1 0x1F DUP3 ADD AND DUP3 ADD DUP1 PUSH1 0x40 MSTORE POP DUP2 ADD SWAP1 PUSH2 0x557 SWAP2 SWAP1 PUSH2 0x1D5B JUMP JUMPDEST GT PUSH2 0x597 JUMPI PUSH1 0x40 MLOAD PUSH32 0x8C379A000000000000000000000000000000000000000000000000000000000 DUP2 MSTORE PUSH1 0x4 ADD PUSH2 0x58E SWAP1 PUSH2 0x1DD0 JUMP JUMPDEST PUSH1 0x40 MLOAD DUP1 SWAP2 SUB SWAP1 REVERT JUMPDEST PUSH0 PUSH1 0x9 PUSH0 DUP4 DUP2 MSTORE PUSH1 0x20 ADD SWAP1 DUP2 MSTORE PUSH1 0x20 ADD PUSH0 KECCAK256 SWAP1 POP PUSH1 0x4 PUSH0 SWAP1 SLOAD SWAP1 PUSH2 0x100 EXP SWAP1 DIV PUSH20 0xFFFFFFFFFFFFFFFFFFFFFFFFFFFFFFFFFFFFFFFF AND PUSH20 0xFFFFFFFFFFFFFFFFFFFFFFFFFFFFFFFFFFFFFFFF AND PUSH4 0x70A08231 CALLER PUSH1 0x40 MLOAD DUP3 PUSH4 0xFFFFFFFF AND PUSH1 0xE0 SHL DUP2 MSTORE PUSH1 0x4 ADD PUSH2 0x605 SWAP2 SWAP1 PUSH2 0x1B38 JUMP JUMPDEST PUSH1 0x20 PUSH1 0x40 MLOAD DUP1 DUP4 SUB DUP2 DUP7 GAS STATICCALL ISZERO DUP1 ISZERO PUSH2 0x620 JUMPI RETURNDATASIZE PUSH0 DUP1 RETURNDATACOPY RETURNDATASIZE PUSH0 REVERT JUMPDEST POP POP POP POP PUSH1 0x40 MLOAD RETURNDATASIZE PUSH1 0x1F NOT PUSH1 0x1F DUP3 ADD AND DUP3 ADD DUP1 PUSH1 0x40 MSTORE POP DUP2 ADD SWAP1 PUSH2 0x644 SWAP2 SWAP1 PUSH2 0x1D5B JUMP JUMPDEST PUSH1 0x5 PUSH0 CALLER PUSH20 0xFFFFFFFFFFFFFFFFFFFFFFFFFFFFFFFFFFFFFFFF AND PUSH20 0xFFFFFFFFFFFFFFFFFFFFFFFFFFFFFFFFFFFFFFFF AND DUP2 MSTORE PUSH1 0x20 ADD SWAP1 DUP2 MSTORE PUSH1 0x20 ADD PUSH0 KECCAK256 SLOAD LT PUSH2 0x6C2 JUMPI PUSH1 0x40 MLOAD PUSH32 0x8C379A000000000000000000000000000000000000000000000000000000000 DUP2 MSTORE PUSH1 0x4 ADD PUSH2 0x6B9 SWAP1 PUSH2 0x1E38 JUMP JUMPDEST PUSH1 0x40 MLOAD DUP1 SWAP2 SUB SWAP1 REVERT JUMPDEST PUSH0 JUMPDEST PUSH1 0x7 SLOAD DUP2 GT PUSH2 0x884 JUMPI CALLER PUSH20 0xFFFFFFFFFFFFFFFFFFFFFFFFFFFFFFFFFFFFFFFF AND PUSH1 0x4 PUSH0 SWAP1 SLOAD SWAP1 PUSH2 0x100 EXP SWAP1 DIV PUSH20 0xFFFFFFFFFFFFFFFFFFFFFFFFFFFFFFFFFFFFFFFF AND PUSH20 0xFFFFFFFFFFFFFFFFFFFFFFFFFFFFFFFFFFFFFFFF AND PUSH4 0x6352211E DUP4 PUSH1 0x40 MLOAD DUP3 PUSH4 0xFFFFFFFF AND PUSH1 0xE0 SHL DUP2 MSTORE PUSH1 0x4 ADD PUSH2 0x73E SWAP2 SWAP1 PUSH2 0x17E9 JUMP JUMPDEST PUSH1 0x20 PUSH1 0x40 MLOAD DUP1 DUP4 SUB DUP2 DUP7 GAS STATICCALL ISZERO DUP1 ISZERO PUSH2 0x759 JUMPI RETURNDATASIZE PUSH0 DUP1 RETURNDATACOPY RETURNDATASIZE PUSH0 REVERT JUMPDEST POP POP POP POP PUSH1 0x40 MLOAD RETURNDATASIZE PUSH1 0x1F NOT PUSH1 0x1F DUP3 ADD AND DUP3 ADD DUP1 PUSH1 0x40 MSTORE POP DUP2 ADD SWAP1 PUSH2 0x77D SWAP2 SWAP1 PUSH2 0x1E6A JUMP JUMPDEST PUSH20 0xFFFFFFFFFFFFFFFFFFFFFFFFFFFFFFFFFFFFFFFF AND SUB PUSH2 0x871 JUMPI PUSH0 ISZERO ISZERO PUSH1 0x8 PUSH0 DUP4 DUP2 MSTORE PUSH1 0x20 ADD SWAP1 DUP2 MSTORE PUSH1 0x20 ADD PUSH0 KECCAK256 PUSH0 SWAP1 SLOAD SWAP1 PUSH2 0x100 EXP SWAP1 DIV PUSH1 0xFF AND ISZERO ISZERO SUB PUSH2 0x870 JUMPI PUSH1 0x5 PUSH0 CALLER PUSH20 0xFFFFFFFFFFFFFFFFFFFFFFFFFFFFFFFFFFFFFFFF AND PUSH20 0xFFFFFFFFFFFFFFFFFFFFFFFFFFFFFFFFFFFFFFFF AND DUP2 MSTORE PUSH1 0x20 ADD SWAP1 DUP2 MSTORE PUSH1 0x20 ADD PUSH0 KECCAK256 PUSH0 DUP2 SLOAD DUP1 SWAP3 SWAP2 SWAP1 PUSH2 0x80D SWAP1 PUSH2 0x1EC2 JUMP JUMPDEST SWAP2 SWAP1 POP SSTORE POP DUP2 PUSH1 0x3 ADD PUSH0 DUP2 SLOAD DUP1 SWAP3 SWAP2 SWAP1 PUSH2 0x826 SWAP1 PUSH2 0x1EC2 JUMP JUMPDEST SWAP2 SWAP1 POP SSTORE POP PUSH1 0x6 PUSH0 DUP2 SLOAD DUP1 SWAP3 SWAP2 SWAP1 PUSH2 0x83D SWAP1 PUSH2 0x1EC2 JUMP JUMPDEST SWAP2 SWAP1 POP SSTORE POP PUSH1 0x1 PUSH1 0x8 PUSH0 DUP4 DUP2 MSTORE PUSH1 0x20 ADD SWAP1 DUP2 MSTORE PUSH1 0x20 ADD PUSH0 KECCAK256 PUSH0 PUSH2 0x100 EXP DUP2 SLOAD DUP2 PUSH1 0xFF MUL NOT AND SWAP1 DUP4 ISZERO ISZERO MUL OR SWAP1 SSTORE POP PUSH2 0x884 JUMP JUMPDEST JUMPDEST DUP1 DUP1 PUSH2 0x87C SWAP1 PUSH2 0x1EC2 JUMP JUMPDEST SWAP2 POP POP PUSH2 0x6C4 JUMP JUMPDEST POP POP POP JUMP JUMPDEST PUSH1 0x2 SLOAD DUP2 JUMP JUMPDEST PUSH2 0x897 PUSH2 0x15D2 JUMP JUMPDEST DUP1 PUSH1 0x4 PUSH0 PUSH2 0x100 EXP DUP2 SLOAD DUP2 PUSH20 0xFFFFFFFFFFFFFFFFFFFFFFFFFFFFFFFFFFFFFFFF MUL NOT AND SWAP1 DUP4 PUSH20 0xFFFFFFFFFFFFFFFFFFFFFFFFFFFFFFFFFFFFFFFF AND MUL OR SWAP1 SSTORE POP POP JUMP JUMPDEST PUSH1 0x6 SLOAD DUP2 JUMP JUMPDEST PUSH1 0x9 PUSH1 0x20 MSTORE DUP1 PUSH0 MSTORE PUSH1 0x40 PUSH0 KECCAK256 PUSH0 SWAP2 POP SWAP1 POP DUP1 PUSH0 ADD DUP1 SLOAD PUSH2 0x8FF SWAP1 PUSH2 0x1F36 JUMP JUMPDEST DUP1 PUSH1 0x1F ADD PUSH1 0x20 DUP1 SWAP2 DIV MUL PUSH1 0x20 ADD PUSH1 0x40 MLOAD SWAP1 DUP2 ADD PUSH1 0x40 MSTORE DUP1 SWAP3 SWAP2 SWAP1 DUP2 DUP2 MSTORE PUSH1 0x20 ADD DUP3 DUP1 SLOAD PUSH2 0x92B SWAP1 PUSH2 0x1F36 JUMP JUMPDEST DUP1 ISZERO PUSH2 0x976 JUMPI DUP1 PUSH1 0x1F LT PUSH2 0x94D JUMPI PUSH2 0x100 DUP1 DUP4 SLOAD DIV MUL DUP4 MSTORE SWAP2 PUSH1 0x20 ADD SWAP2 PUSH2 0x976 JUMP JUMPDEST DUP3 ADD SWAP2 SWAP1 PUSH0 MSTORE PUSH1 0x20 PUSH0 KECCAK256 SWAP1 JUMPDEST DUP2 SLOAD DUP2 MSTORE SWAP1 PUSH1 0x1 ADD SWAP1 PUSH1 0x20 ADD DUP1 DUP4 GT PUSH2 0x959 JUMPI DUP3 SWAP1 SUB PUSH1 0x1F AND DUP3 ADD SWAP2 JUMPDEST POP POP POP POP POP SWAP1 DUP1 PUSH1 0x1 ADD PUSH0 SWAP1 SLOAD SWAP1 PUSH2 0x100 EXP SWAP1 DIV PUSH20 0xFFFFFFFFFFFFFFFFFFFFFFFFFFFFFFFFFFFFFFFF AND SWAP1 DUP1 PUSH1 0x3 ADD SLOAD SWAP1 POP DUP4 JUMP JUMPDEST PUSH2 0x9B3 PUSH2 0x15D2 JUMP JUMPDEST PUSH1 0x1 SLOAD TIMESTAMP GT ISZERO PUSH2 0x9F8 JUMPI PUSH1 0x40 MLOAD PUSH32 0x8C379A000000000000000000000000000000000000000000000000000000000 DUP2 MSTORE PUSH1 0x4 ADD PUSH2 0x9EF SWAP1 PUSH2 0x1CC1 JUMP JUMPDEST PUSH1 0x40 MLOAD DUP1 SWAP2 SUB SWAP1 REVERT JUMPDEST PUSH1 0x3 PUSH0 DUP2 SLOAD DUP1 SWAP3 SWAP2 SWAP1 PUSH2 0xA0A SWAP1 PUSH2 0x1EC2 JUMP JUMPDEST SWAP2 SWAP1 POP SSTORE POP PUSH0 PUSH1 0x9 PUSH0 PUSH1 0x3 SLOAD DUP2 MSTORE PUSH1 0x20 ADD SWAP1 DUP2 MSTORE PUSH1 0x20 ADD PUSH0 KECCAK256 SWAP1 POP DUP2 DUP2 PUSH0 ADD SWAP1 DUP2 PUSH2 0xA35 SWAP2 SWAP1 PUSH2 0x2103 JUMP JUMPDEST POP CALLER DUP2 PUSH1 0x1 ADD PUSH0 PUSH2 0x100 EXP DUP2 SLOAD DUP2 PUSH20 0xFFFFFFFFFFFFFFFFFFFFFFFFFFFFFFFFFFFFFFFF MUL NOT AND SWAP1 DUP4 PUSH20 0xFFFFFFFFFFFFFFFFFFFFFFFFFFFFFFFFFFFFFFFF AND MUL OR SWAP1 SSTORE POP PUSH0 DUP2 PUSH1 0x3 ADD DUP2 SWAP1 SSTORE POP POP POP JUMP JUMPDEST PUSH1 0x1 SLOAD TIMESTAMP GT ISZERO PUSH2 0xACA JUMPI PUSH1 0x40 MLOAD PUSH32 0x8C379A000000000000000000000000000000000000000000000000000000000 DUP2 MSTORE PUSH1 0x4 ADD PUSH2 0xAC1 SWAP1 PUSH2 0x1CC1 JUMP JUMPDEST PUSH1 0x40 MLOAD DUP1 SWAP2 SUB SWAP1 REVERT JUMPDEST PUSH0 DUP2 GT PUSH2 0xB0C JUMPI PUSH1 0x40 MLOAD PUSH32 0x8C379A000000000000000000000000000000000000000000000000000000000 DUP2 MSTORE PUSH1 0x4 ADD PUSH2 0xB03 SWAP1 PUSH2 0x221C JUMP JUMPDEST PUSH1 0x40 MLOAD DUP1 SWAP2 SUB SWAP1 REVERT JUMPDEST DUP1 DUP3 PUSH20 0xFFFFFFFFFFFFFFFFFFFFFFFFFFFFFFFFFFFFFFFF AND PUSH4 0x70A08231 CALLER PUSH1 0x40 MLOAD DUP3 PUSH4 0xFFFFFFFF AND PUSH1 0xE0 SHL DUP2 MSTORE PUSH1 0x4 ADD PUSH2 0xB46 SWAP2 SWAP1 PUSH2 0x1B38 JUMP JUMPDEST PUSH1 0x20 PUSH1 0x40 MLOAD DUP1 DUP4 SUB DUP2 DUP7 GAS STATICCALL ISZERO DUP1 ISZERO PUSH2 0xB61 JUMPI RETURNDATASIZE PUSH0 DUP1 RETURNDATACOPY RETURNDATASIZE PUSH0 REVERT JUMPDEST POP POP POP POP PUSH1 0x40 MLOAD RETURNDATASIZE PUSH1 0x1F NOT PUSH1 0x1F DUP3 ADD AND DUP3 ADD DUP1 PUSH1 0x40 MSTORE POP DUP2 ADD SWAP1 PUSH2 0xB85 SWAP2 SWAP1 PUSH2 0x1D5B JUMP JUMPDEST LT ISZERO PUSH2 0xBC6 JUMPI PUSH1 0x40 MLOAD PUSH32 0x8C379A000000000000000000000000000000000000000000000000000000000 DUP2 MSTORE PUSH1 0x4 ADD PUSH2 0xBBD SWAP1 PUSH2 0x2284 JUMP JUMPDEST PUSH1 0x40 MLOAD DUP1 SWAP2 SUB SWAP1 REVERT JUMPDEST DUP2 PUSH20 0xFFFFFFFFFFFFFFFFFFFFFFFFFFFFFFFFFFFFFFFF AND PUSH4 0x23B872DD CALLER ADDRESS DUP5 PUSH1 0x40 MLOAD DUP5 PUSH4 0xFFFFFFFF AND PUSH1 0xE0 SHL DUP2 MSTORE PUSH1 0x4 ADD PUSH2 0xC03 SWAP4 SWAP3 SWAP2 SWAP1 PUSH2 0x22A2 JUMP JUMPDEST PUSH1 0x20 PUSH1 0x40 MLOAD DUP1 DUP4 SUB DUP2 PUSH0 DUP8 GAS CALL ISZERO DUP1 ISZERO PUSH2 0xC1F JUMPI RETURNDATASIZE PUSH0 DUP1 RETURNDATACOPY RETURNDATASIZE PUSH0 REVERT JUMPDEST POP POP POP POP PUSH1 0x40 MLOAD RETURNDATASIZE PUSH1 0x1F NOT PUSH1 0x1F DUP3 ADD AND DUP3 ADD DUP1 PUSH1 0x40 MSTORE POP DUP2 ADD SWAP1 PUSH2 0xC43 SWAP2 SWAP1 PUSH2 0x2301 JUMP JUMPDEST PUSH2 0xC82 JUMPI PUSH1 0x40 MLOAD PUSH32 0x8C379A000000000000000000000000000000000000000000000000000000000 DUP2 MSTORE PUSH1 0x4 ADD PUSH2 0xC79 SWAP1 PUSH2 0x2376 JUMP JUMPDEST PUSH1 0x40 MLOAD DUP1 SWAP2 SUB SWAP1 REVERT JUMPDEST PUSH0 PUSH1 0x9 PUSH0 DUP6 DUP2 MSTORE PUSH1 0x20 ADD SWAP1 DUP2 MSTORE PUSH1 0x20 ADD PUSH0 KECCAK256 SWAP1 POP PUSH2 0xC9E PUSH2 0x1721 JUMP JUMPDEST CALLER DUP2 PUSH0 ADD SWAP1 PUSH20 0xFFFFFFFFFFFFFFFFFFFFFFFFFFFFFFFFFFFFFFFF AND SWAP1 DUP2 PUSH20 0xFFFFFFFFFFFFFFFFFFFFFFFFFFFFFFFFFFFFFFFF AND DUP2 MSTORE POP POP DUP4 DUP2 PUSH1 0x20 ADD SWAP1 PUSH20 0xFFFFFFFFFFFFFFFFFFFFFFFFFFFFFFFFFFFFFFFF AND SWAP1 DUP2 PUSH20 0xFFFFFFFFFFFFFFFFFFFFFFFFFFFFFFFFFFFFFFFF AND DUP2 MSTORE POP POP DUP3 DUP2 PUSH1 0x40 ADD DUP2 DUP2 MSTORE POP POP DUP2 PUSH1 0x2 ADD DUP2 SWAP1 DUP1 PUSH1 0x1 DUP2 SLOAD ADD DUP1 DUP3 SSTORE DUP1 SWAP2 POP POP PUSH1 0x1 SWAP1 SUB SWAP1 PUSH0 MSTORE PUSH1 0x20 PUSH0 KECCAK256 SWAP1 PUSH1 0x3 MUL ADD PUSH0 SWAP1 SWAP2 SWAP1 SWAP2 SWAP1 SWAP2 POP PUSH0 DUP3 ADD MLOAD DUP2 PUSH0 ADD PUSH0 PUSH2 0x100 EXP DUP2 SLOAD DUP2 PUSH20 0xFFFFFFFFFFFFFFFFFFFFFFFFFFFFFFFFFFFFFFFF MUL NOT AND SWAP1 DUP4 PUSH20 0xFFFFFFFFFFFFFFFFFFFFFFFFFFFFFFFFFFFFFFFF AND MUL OR SWAP1 SSTORE POP PUSH1 0x20 DUP3 ADD MLOAD DUP2 PUSH1 0x1 ADD PUSH0 PUSH2 0x100 EXP DUP2 SLOAD DUP2 PUSH20 0xFFFFFFFFFFFFFFFFFFFFFFFFFFFFFFFFFFFFFFFF MUL NOT AND SWAP1 DUP4 PUSH20 0xFFFFFFFFFFFFFFFFFFFFFFFFFFFFFFFFFFFFFFFF AND MUL OR SWAP1 SSTORE POP PUSH1 0x40 DUP3 ADD MLOAD DUP2 PUSH1 0x2 ADD SSTORE POP POP POP POP POP POP POP JUMP JUMPDEST PUSH1 0x3 SLOAD DUP2 JUMP JUMPDEST PUSH1 0x2 SLOAD TIMESTAMP LT ISZERO PUSH2 0xE2A JUMPI PUSH1 0x40 MLOAD PUSH32 0x8C379A000000000000000000000000000000000000000000000000000000000 DUP2 MSTORE PUSH1 0x4 ADD PUSH2 0xE21 SWAP1 PUSH2 0x1CC1 JUMP JUMPDEST PUSH1 0x40 MLOAD DUP1 SWAP2 SUB SWAP1 REVERT JUMPDEST PUSH2 0xE32 PUSH2 0x157C JUMP JUMPDEST DUP2 SUB PUSH2 0xE73 JUMPI PUSH1 0x40 MLOAD PUSH32 0x8C379A000000000000000000000000000000000000000000000000000000000 DUP2 MSTORE PUSH1 0x4 ADD PUSH2 0xE6A SWAP1 PUSH2 0x23DE JUMP JUMPDEST PUSH1 0x40 MLOAD DUP1 SWAP2 SUB SWAP1 REVERT JUMPDEST PUSH0 PUSH1 0x9 PUSH0 DUP4 DUP2 MSTORE PUSH1 0x20 ADD SWAP1 DUP2 MSTORE PUSH1 0x20 ADD PUSH0 KECCAK256 SWAP1 POP PUSH0 JUMPDEST DUP2 PUSH1 0x2 ADD DUP1 SLOAD SWAP1 POP DUP2 LT ISZERO PUSH2 0x1069 JUMPI CALLER PUSH20 0xFFFFFFFFFFFFFFFFFFFFFFFFFFFFFFFFFFFFFFFF AND DUP3 PUSH1 0x2 ADD DUP3 DUP2 SLOAD DUP2 LT PUSH2 0xEC5 JUMPI PUSH2 0xEC4 PUSH2 0x23FC JUMP JUMPDEST JUMPDEST SWAP1 PUSH0 MSTORE PUSH1 0x20 PUSH0 KECCAK256 SWAP1 PUSH1 0x3 MUL ADD PUSH0 ADD PUSH0 SWAP1 SLOAD SWAP1 PUSH2 0x100 EXP SWAP1 DIV PUSH20 0xFFFFFFFFFFFFFFFFFFFFFFFFFFFFFFFFFFFFFFFF AND PUSH20 0xFFFFFFFFFFFFFFFFFFFFFFFFFFFFFFFFFFFFFFFF AND SUB PUSH2 0x105C JUMPI DUP2 PUSH1 0x2 ADD DUP2 DUP2 SLOAD DUP2 LT PUSH2 0xF24 JUMPI PUSH2 0xF23 PUSH2 0x23FC JUMP JUMPDEST JUMPDEST SWAP1 PUSH0 MSTORE PUSH1 0x20 PUSH0 KECCAK256 SWAP1 PUSH1 0x3 MUL ADD PUSH1 0x1 ADD PUSH0 SWAP1 SLOAD SWAP1 PUSH2 0x100 EXP SWAP1 DIV PUSH20 0xFFFFFFFFFFFFFFFFFFFFFFFFFFFFFFFFFFFFFFFF AND PUSH20 0xFFFFFFFFFFFFFFFFFFFFFFFFFFFFFFFFFFFFFFFF AND PUSH4 0xA9059CBB CALLER DUP5 PUSH1 0x2 ADD DUP5 DUP2 SLOAD DUP2 LT PUSH2 0xF85 JUMPI PUSH2 0xF84 PUSH2 0x23FC JUMP JUMPDEST JUMPDEST SWAP1 PUSH0 MSTORE PUSH1 0x20 PUSH0 KECCAK256 SWAP1 PUSH1 0x3 MUL ADD PUSH1 0x2 ADD SLOAD PUSH1 0x40 MLOAD DUP4 PUSH4 0xFFFFFFFF AND PUSH1 0xE0 SHL DUP2 MSTORE PUSH1 0x4 ADD PUSH2 0xFB2 SWAP3 SWAP2 SWAP1 PUSH2 0x2429 JUMP JUMPDEST PUSH1 0x20 PUSH1 0x40 MLOAD DUP1 DUP4 SUB DUP2 PUSH0 DUP8 GAS CALL ISZERO DUP1 ISZERO PUSH2 0xFCE JUMPI RETURNDATASIZE PUSH0 DUP1 RETURNDATACOPY RETURNDATASIZE PUSH0 REVERT JUMPDEST POP POP POP POP PUSH1 0x40 MLOAD RETURNDATASIZE PUSH1 0x1F NOT PUSH1 0x1F DUP3 ADD AND DUP3 ADD DUP1 PUSH1 0x40 MSTORE POP DUP2 ADD SWAP1 PUSH2 0xFF2 SWAP2 SWAP1 PUSH2 0x2301 JUMP JUMPDEST PUSH2 0x1031 JUMPI PUSH1 0x40 MLOAD PUSH32 0x8C379A000000000000000000000000000000000000000000000000000000000 DUP2 MSTORE PUSH1 0x4 ADD PUSH2 0x1028 SWAP1 PUSH2 0x2376 JUMP JUMPDEST PUSH1 0x40 MLOAD DUP1 SWAP2 SUB SWAP1 REVERT JUMPDEST PUSH0 DUP3 PUSH1 0x2 ADD DUP3 DUP2 SLOAD DUP2 LT PUSH2 0x1048 JUMPI PUSH2 0x1047 PUSH2 0x23FC JUMP JUMPDEST JUMPDEST SWAP1 PUSH0 MSTORE PUSH1 0x20 PUSH0 KECCAK256 SWAP1 PUSH1 0x3 MUL ADD PUSH1 0x2 ADD DUP2 SWAP1 SSTORE POP JUMPDEST DUP1 DUP1 PUSH1 0x1 ADD SWAP2 POP POP PUSH2 0xE89 JUMP JUMPDEST POP POP POP JUMP JUMPDEST PUSH1 0x8 PUSH1 0x20 MSTORE DUP1 PUSH0 MSTORE PUSH1 0x40 PUSH0 KECCAK256 PUSH0 SWAP2 POP SLOAD SWAP1 PUSH2 0x100 EXP SWAP1 DIV PUSH1 0xFF AND DUP2 JUMP JUMPDEST PUSH1 0x1 SLOAD DUP2 JUMP JUMPDEST PUSH0 PUSH1 0x1 SLOAD TIMESTAMP GT PUSH2 0x10A3 JUMPI PUSH0 SWAP1 POP PUSH2 0x10CA JUMP JUMPDEST PUSH1 0x1 SLOAD TIMESTAMP LT ISZERO DUP1 ISZERO PUSH2 0x10B7 JUMPI POP PUSH1 0x2 SLOAD TIMESTAMP GT ISZERO JUMPDEST ISZERO PUSH2 0x10C5 JUMPI PUSH1 0x1 SWAP1 POP PUSH2 0x10CA JUMP JUMPDEST PUSH1 0x2 SWAP1 POP JUMPDEST SWAP1 JUMP JUMPDEST PUSH2 0x10D5 PUSH2 0x15D2 JUMP JUMPDEST PUSH2 0x10DE PUSH0 PUSH2 0x1659 JUMP JUMPDEST JUMP JUMPDEST PUSH0 DUP1 PUSH0 SWAP1 SLOAD SWAP1 PUSH2 0x100 EXP SWAP1 DIV PUSH20 0xFFFFFFFFFFFFFFFFFFFFFFFFFFFFFFFFFFFFFFFF AND SWAP1 POP SWAP1 JUMP JUMPDEST PUSH1 0x5 PUSH1 0x20 MSTORE DUP1 PUSH0 MSTORE PUSH1 0x40 PUSH0 KECCAK256 PUSH0 SWAP2 POP SWAP1 POP SLOAD DUP2 JUMP JUMPDEST PUSH1 0x4 PUSH0 SWAP1 SLOAD SWAP1 PUSH2 0x100 EXP SWAP1 DIV PUSH20 0xFFFFFFFFFFFFFFFFFFFFFFFFFFFFFFFFFFFFFFFF AND DUP2 JUMP JUMPDEST PUSH2 0x1149 PUSH2 0x15D2 JUMP JUMPDEST PUSH0 DUP2 SUB PUSH2 0x117B JUMPI PUSH0 PUSH1 0x4 PUSH1 0x14 PUSH2 0x100 EXP DUP2 SLOAD DUP2 PUSH1 0xFF MUL NOT AND SWAP1 DUP4 PUSH1 0x2 DUP2 GT ISZERO PUSH2 0x1175 JUMPI PUSH2 0x1174 PUSH2 0x2450 JUMP JUMPDEST JUMPDEST MUL OR SWAP1 SSTORE POP JUMPDEST PUSH1 0x1 DUP2 SUB PUSH2 0x11AF JUMPI PUSH1 0x1 PUSH1 0x4 PUSH1 0x14 PUSH2 0x100 EXP DUP2 SLOAD DUP2 PUSH1 0xFF MUL NOT AND SWAP1 DUP4 PUSH1 0x2 DUP2 GT ISZERO PUSH2 0x11A9 JUMPI PUSH2 0x11A8 PUSH2 0x2450 JUMP JUMPDEST JUMPDEST MUL OR SWAP1 SSTORE POP JUMPDEST PUSH1 0x2 DUP2 SUB PUSH2 0x11E3 JUMPI PUSH1 0x2 PUSH1 0x4 PUSH1 0x14 PUSH2 0x100 EXP DUP2 SLOAD DUP2 PUSH1 0xFF MUL NOT AND SWAP1 DUP4 PUSH1 0x2 DUP2 GT ISZERO PUSH2 0x11DD JUMPI PUSH2 0x11DC PUSH2 0x2450 JUMP JUMPDEST JUMPDEST MUL OR SWAP1 SSTORE POP JUMPDEST POP JUMP JUMPDEST PUSH1 0x60 PUSH1 0x9 PUSH0 DUP4 DUP2 MSTORE PUSH1 0x20 ADD SWAP1 DUP2 MSTORE PUSH1 0x20 ADD PUSH0 KECCAK256 PUSH1 0x2 ADD DUP1 SLOAD DUP1 PUSH1 0x20 MUL PUSH1 0x20 ADD PUSH1 0x40 MLOAD SWAP1 DUP2 ADD PUSH1 0x40 MSTORE DUP1 SWAP3 SWAP2 SWAP1 DUP2 DUP2 MSTORE PUSH1 0x20 ADD PUSH0 SWAP1 JUMPDEST DUP3 DUP3 LT ISZERO PUSH2 0x12FE JUMPI DUP4 DUP3 SWAP1 PUSH0 MSTORE PUSH1 0x20 PUSH0 KECCAK256 SWAP1 PUSH1 0x3 MUL ADD PUSH1 0x40 MLOAD DUP1 PUSH1 0x60 ADD PUSH1 0x40 MSTORE SWAP1 DUP2 PUSH0 DUP3 ADD PUSH0 SWAP1 SLOAD SWAP1 PUSH2 0x100 EXP SWAP1 DIV PUSH20 0xFFFFFFFFFFFFFFFFFFFFFFFFFFFFFFFFFFFFFFFF AND PUSH20 0xFFFFFFFFFFFFFFFFFFFFFFFFFFFFFFFFFFFFFFFF AND PUSH20 0xFFFFFFFFFFFFFFFFFFFFFFFFFFFFFFFFFFFFFFFF AND DUP2 MSTORE PUSH1 0x20 ADD PUSH1 0x1 DUP3 ADD PUSH0 SWAP1 SLOAD SWAP1 PUSH2 0x100 EXP SWAP1 DIV PUSH20 0xFFFFFFFFFFFFFFFFFFFFFFFFFFFFFFFFFFFFFFFF AND PUSH20 0xFFFFFFFFFFFFFFFFFFFFFFFFFFFFFFFFFFFFFFFF AND PUSH20 0xFFFFFFFFFFFFFFFFFFFFFFFFFFFFFFFFFFFFFFFF AND DUP2 MSTORE PUSH1 0x20 ADD PUSH1 0x2 DUP3 ADD SLOAD DUP2 MSTORE POP POP DUP2 MSTORE PUSH1 0x20 ADD SWAP1 PUSH1 0x1 ADD SWAP1 PUSH2 0x121B JUMP JUMPDEST POP POP POP POP SWAP1 POP SWAP2 SWAP1 POP JUMP JUMPDEST PUSH2 0x1311 PUSH2 0x15D2 JUMP JUMPDEST DUP1 PUSH1 0x7 DUP2 SWAP1 SSTORE POP POP JUMP JUMPDEST PUSH2 0x1323 PUSH2 0x15D2 JUMP JUMPDEST PUSH1 0x2 SLOAD TIMESTAMP LT ISZERO PUSH2 0x1368 JUMPI PUSH1 0x40 MLOAD PUSH32 0x8C379A000000000000000000000000000000000000000000000000000000000 DUP2 MSTORE PUSH1 0x4 ADD PUSH2 0x135F SWAP1 PUSH2 0x1CC1 JUMP JUMPDEST PUSH1 0x40 MLOAD DUP1 SWAP2 SUB SWAP1 REVERT JUMPDEST PUSH0 PUSH2 0x1371 PUSH2 0x157C JUMP JUMPDEST SWAP1 POP PUSH0 PUSH1 0x9 PUSH0 DUP4 DUP2 MSTORE PUSH1 0x20 ADD SWAP1 DUP2 MSTORE PUSH1 0x20 ADD PUSH0 KECCAK256 SWAP1 POP PUSH0 JUMPDEST DUP2 PUSH1 0x2 ADD DUP1 SLOAD SWAP1 POP DUP2 LT ISZERO PUSH2 0x14F2 JUMPI DUP2 PUSH1 0x2 ADD DUP2 DUP2 SLOAD DUP2 LT PUSH2 0x13AE JUMPI PUSH2 0x13AD PUSH2 0x23FC JUMP JUMPDEST JUMPDEST SWAP1 PUSH0 MSTORE PUSH1 0x20 PUSH0 KECCAK256 SWAP1 PUSH1 0x3 MUL ADD PUSH1 0x1 ADD PUSH0 SWAP1 SLOAD SWAP1 PUSH2 0x100 EXP SWAP1 DIV PUSH20 0xFFFFFFFFFFFFFFFFFFFFFFFFFFFFFFFFFFFFFFFF AND PUSH20 0xFFFFFFFFFFFFFFFFFFFFFFFFFFFFFFFFFFFFFFFF AND PUSH4 0xA9059CBB DUP6 DUP5 PUSH1 0x2 ADD DUP5 DUP2 SLOAD DUP2 LT PUSH2 0x140F JUMPI PUSH2 0x140E PUSH2 0x23FC JUMP JUMPDEST JUMPDEST SWAP1 PUSH0 MSTORE PUSH1 0x20 PUSH0 KECCAK256 SWAP1 PUSH1 0x3 MUL ADD PUSH1 0x2 ADD SLOAD PUSH1 0x40 MLOAD DUP4 PUSH4 0xFFFFFFFF AND PUSH1 0xE0 SHL DUP2 MSTORE PUSH1 0x4 ADD PUSH2 0x143C SWAP3 SWAP2 SWAP1 PUSH2 0x2429 JUMP JUMPDEST PUSH1 0x20 PUSH1 0x40 MLOAD DUP1 DUP4 SUB DUP2 PUSH0 DUP8 GAS CALL ISZERO DUP1 ISZERO PUSH2 0x1458 JUMPI RETURNDATASIZE PUSH0 DUP1 RETURNDATACOPY RETURNDATASIZE PUSH0 REVERT JUMPDEST POP POP POP POP PUSH1 0x40 MLOAD RETURNDATASIZE PUSH1 0x1F NOT PUSH1 0x1F DUP3 ADD AND DUP3 ADD DUP1 PUSH1 0x40 MSTORE POP DUP2 ADD SWAP1 PUSH2 0x147C SWAP2 SWAP1 PUSH2 0x2301 JUMP JUMPDEST PUSH2 0x14BB JUMPI PUSH1 0x40 MLOAD PUSH32 0x8C379A000000000000000000000000000000000000000000000000000000000 DUP2 MSTORE PUSH1 0x4 ADD PUSH2 0x14B2 SWAP1 PUSH2 0x2376 JUMP JUMPDEST PUSH1 0x40 MLOAD DUP1 SWAP2 SUB SWAP1 REVERT JUMPDEST PUSH0 DUP3 PUSH1 0x2 ADD DUP3 DUP2 SLOAD DUP2 LT PUSH2 0x14D2 JUMPI PUSH2 0x14D1 PUSH2 0x23FC JUMP JUMPDEST JUMPDEST SWAP1 PUSH0 MSTORE PUSH1 0x20 PUSH0 KECCAK256 SWAP1 PUSH1 0x3 MUL ADD PUSH1 0x2 ADD DUP2 SWAP1 SSTORE POP DUP1 DUP1 PUSH1 0x1 ADD SWAP2 POP POP PUSH2 0x1389 JUMP JUMPDEST POP POP POP POP JUMP JUMPDEST PUSH2 0x1500 PUSH2 0x15D2 JUMP JUMPDEST PUSH0 PUSH20 0xFFFFFFFFFFFFFFFFFFFFFFFFFFFFFFFFFFFFFFFF AND DUP2 PUSH20 0xFFFFFFFFFFFFFFFFFFFFFFFFFFFFFFFFFFFFFFFF AND SUB PUSH2 0x1570 JUMPI PUSH0 PUSH1 0x40 MLOAD PUSH32 0x1E4FBDF700000000000000000000000000000000000000000000000000000000 DUP2 MSTORE PUSH1 0x4 ADD PUSH2 0x1567 SWAP2 SWAP1 PUSH2 0x1B38 JUMP JUMPDEST PUSH1 0x40 MLOAD DUP1 SWAP2 SUB SWAP1 REVERT JUMPDEST PUSH2 0x1579 DUP2 PUSH2 0x1659 JUMP JUMPDEST POP JUMP JUMPDEST PUSH0 DUP1 PUSH1 0x1 SWAP1 POP PUSH0 PUSH1 0x1 SWAP1 POP JUMPDEST PUSH1 0x3 SLOAD DUP2 GT PUSH2 0x15C4 JUMPI DUP2 PUSH1 0x9 PUSH0 DUP4 DUP2 MSTORE PUSH1 0x20 ADD SWAP1 DUP2 MSTORE PUSH1 0x20 ADD PUSH0 KECCAK256 PUSH1 0x3 ADD SLOAD GT ISZERO PUSH2 0x15B1 JUMPI DUP1 SWAP2 POP JUMPDEST DUP1 DUP1 PUSH2 0x15BC SWAP1 PUSH2 0x1EC2 JUMP JUMPDEST SWAP2 POP POP PUSH2 0x1588 JUMP JUMPDEST POP DUP1 SWAP2 POP POP SWAP1 JUMP JUMPDEST PUSH1 0x7 SLOAD DUP2 JUMP JUMPDEST PUSH2 0x15DA PUSH2 0x171A JUMP JUMPDEST PUSH20 0xFFFFFFFFFFFFFFFFFFFFFFFFFFFFFFFFFFFFFFFF AND PUSH2 0x15F8 PUSH2 0x10E0 JUMP JUMPDEST PUSH20 0xFFFFFFFFFFFFFFFFFFFFFFFFFFFFFFFFFFFFFFFF AND EQ PUSH2 0x1657 JUMPI PUSH2 0x161B PUSH2 0x171A JUMP JUMPDEST PUSH1 0x40 MLOAD PUSH32 0x118CDAA700000000000000000000000000000000000000000000000000000000 DUP2 MSTORE PUSH1 0x4 ADD PUSH2 0x164E SWAP2 SWAP1 PUSH2 0x1B38 JUMP JUMPDEST PUSH1 0x40 MLOAD DUP1 SWAP2 SUB SWAP1 REVERT JUMPDEST JUMP JUMPDEST PUSH0 DUP1 PUSH0 SWAP1 SLOAD SWAP1 PUSH2 0x100 EXP SWAP1 DIV PUSH20 0xFFFFFFFFFFFFFFFFFFFFFFFFFFFFFFFFFFFFFFFF AND SWAP1 POP DUP2 PUSH0 DUP1 PUSH2 0x100 EXP DUP2 SLOAD DUP2 PUSH20 0xFFFFFFFFFFFFFFFFFFFFFFFFFFFFFFFFFFFFFFFF MUL NOT AND SWAP1 DUP4 PUSH20 0xFFFFFFFFFFFFFFFFFFFFFFFFFFFFFFFFFFFFFFFF AND MUL OR SWAP1 SSTORE POP DUP2 PUSH20 0xFFFFFFFFFFFFFFFFFFFFFFFFFFFFFFFFFFFFFFFF AND DUP2 PUSH20 0xFFFFFFFFFFFFFFFFFFFFFFFFFFFFFFFFFFFFFFFF AND PUSH32 0x8BE0079C531659141344CD1FD0A4F28419497F9722A3DAAFE3B4186F6B6457E0 PUSH1 0x40 MLOAD PUSH1 0x40 MLOAD DUP1 SWAP2 SUB SWAP1 LOG3 POP POP JUMP JUMPDEST PUSH0 CALLER SWAP1 POP SWAP1 JUMP JUMPDEST PUSH1 0x40 MLOAD DUP1 PUSH1 0x60 ADD PUSH1 0x40 MSTORE DUP1 PUSH0 PUSH20 0xFFFFFFFFFFFFFFFFFFFFFFFFFFFFFFFFFFFFFFFF AND DUP2 MSTORE PUSH1 0x20 ADD PUSH0 PUSH20 0xFFFFFFFFFFFFFFFFFFFFFFFFFFFFFFFFFFFFFFFF AND DUP2 MSTORE PUSH1 0x20 ADD PUSH0 DUP2 MSTORE POP SWAP1 JUMP JUMPDEST PUSH0 PUSH1 0x40 MLOAD SWAP1 POP SWAP1 JUMP JUMPDEST PUSH0 DUP1 REVERT JUMPDEST PUSH0 DUP1 REVERT JUMPDEST PUSH0 DUP2 SWAP1 POP SWAP2 SWAP1 POP JUMP JUMPDEST PUSH2 0x178E DUP2 PUSH2 0x177C JUMP JUMPDEST DUP2 EQ PUSH2 0x1798 JUMPI PUSH0 DUP1 REVERT JUMPDEST POP JUMP JUMPDEST PUSH0 DUP2 CALLDATALOAD SWAP1 POP PUSH2 0x17A9 DUP2 PUSH2 0x1785 JUMP JUMPDEST SWAP3 SWAP2 POP POP JUMP JUMPDEST PUSH0 PUSH1 0x20 DUP3 DUP5 SUB SLT ISZERO PUSH2 0x17C4 JUMPI PUSH2 0x17C3 PUSH2 0x1774 JUMP JUMPDEST JUMPDEST PUSH0 PUSH2 0x17D1 DUP5 DUP3 DUP6 ADD PUSH2 0x179B JUMP JUMPDEST SWAP2 POP POP SWAP3 SWAP2 POP POP JUMP JUMPDEST PUSH2 0x17E3 DUP2 PUSH2 0x177C JUMP JUMPDEST DUP3 MSTORE POP POP JUMP JUMPDEST PUSH0 PUSH1 0x20 DUP3 ADD SWAP1 POP PUSH2 0x17FC PUSH0 DUP4 ADD DUP5 PUSH2 0x17DA JUMP JUMPDEST SWAP3 SWAP2 POP POP JUMP JUMPDEST PUSH0 PUSH20 0xFFFFFFFFFFFFFFFFFFFFFFFFFFFFFFFFFFFFFFFF DUP3 AND SWAP1 POP SWAP2 SWAP1 POP JUMP JUMPDEST PUSH0 PUSH2 0x182B DUP3 PUSH2 0x1802 JUMP JUMPDEST SWAP1 POP SWAP2 SWAP1 POP JUMP JUMPDEST PUSH2 0x183B DUP2 PUSH2 0x1821 JUMP JUMPDEST DUP2 EQ PUSH2 0x1845 JUMPI PUSH0 DUP1 REVERT JUMPDEST POP JUMP JUMPDEST PUSH0 DUP2 CALLDATALOAD SWAP1 POP PUSH2 0x1856 DUP2 PUSH2 0x1832 JUMP JUMPDEST SWAP3 SWAP2 POP POP JUMP JUMPDEST PUSH0 PUSH1 0x20 DUP3 DUP5 SUB SLT ISZERO PUSH2 0x1871 JUMPI PUSH2 0x1870 PUSH2 0x1774 JUMP JUMPDEST JUMPDEST PUSH0 PUSH2 0x187E DUP5 DUP3 DUP6 ADD PUSH2 0x1848 JUMP JUMPDEST SWAP2 POP POP SWAP3 SWAP2 POP POP JUMP JUMPDEST PUSH0 DUP2 MLOAD SWAP1 POP SWAP2 SWAP1 POP JUMP JUMPDEST PUSH0 DUP3 DUP3 MSTORE PUSH1 0x20 DUP3 ADD SWAP1 POP SWAP3 SWAP2 POP POP JUMP JUMPDEST DUP3 DUP2 DUP4 MCOPY PUSH0 DUP4 DUP4 ADD MSTORE POP POP POP JUMP JUMPDEST PUSH0 PUSH1 0x1F NOT PUSH1 0x1F DUP4 ADD AND SWAP1 POP SWAP2 SWAP1 POP JUMP JUMPDEST PUSH0 PUSH2 0x18C9 DUP3 PUSH2 0x1887 JUMP JUMPDEST PUSH2 0x18D3 DUP2 DUP6 PUSH2 0x1891 JUMP JUMPDEST SWAP4 POP PUSH2 0x18E3 DUP2 DUP6 PUSH1 0x20 DUP7 ADD PUSH2 0x18A1 JUMP JUMPDEST PUSH2 0x18EC DUP2 PUSH2 0x18AF JUMP JUMPDEST DUP5 ADD SWAP2 POP POP SWAP3 SWAP2 POP POP JUMP JUMPDEST PUSH2 0x1900 DUP2 PUSH2 0x1821 JUMP JUMPDEST DUP3 MSTORE POP POP JUMP JUMPDEST PUSH0 PUSH1 0x60 DUP3 ADD SWAP1 POP DUP2 DUP2 SUB PUSH0 DUP4 ADD MSTORE PUSH2 0x191E DUP2 DUP7 PUSH2 0x18BF JUMP JUMPDEST SWAP1 POP PUSH2 0x192D PUSH1 0x20 DUP4 ADD DUP6 PUSH2 0x18F7 JUMP JUMPDEST PUSH2 0x193A PUSH1 0x40 DUP4 ADD DUP5 PUSH2 0x17DA JUMP JUMPDEST SWAP5 SWAP4 POP POP POP POP JUMP JUMPDEST PUSH0 DUP1 REVERT JUMPDEST PUSH0 DUP1 REVERT JUMPDEST PUSH32 0x4E487B7100000000000000000000000000000000000000000000000000000000 PUSH0 MSTORE PUSH1 0x41 PUSH1 0x4 MSTORE PUSH1 0x24 PUSH0 REVERT JUMPDEST PUSH2 0x1980 DUP3 PUSH2 0x18AF JUMP JUMPDEST DUP2 ADD DUP2 DUP2 LT PUSH8 0xFFFFFFFFFFFFFFFF DUP3 GT OR ISZERO PUSH2 0x199F JUMPI PUSH2 0x199E PUSH2 0x194A JUMP JUMPDEST JUMPDEST DUP1 PUSH1 0x40 MSTORE POP POP POP JUMP JUMPDEST PUSH0 PUSH2 0x19B1 PUSH2 0x176B JUMP JUMPDEST SWAP1 POP PUSH2 0x19BD DUP3 DUP3 PUSH2 0x1977 JUMP JUMPDEST SWAP2 SWAP1 POP JUMP JUMPDEST PUSH0 PUSH8 0xFFFFFFFFFFFFFFFF DUP3 GT ISZERO PUSH2 0x19DC JUMPI PUSH2 0x19DB PUSH2 0x194A JUMP JUMPDEST JUMPDEST PUSH2 0x19E5 DUP3 PUSH2 0x18AF JUMP JUMPDEST SWAP1 POP PUSH1 0x20 DUP2 ADD SWAP1 POP SWAP2 SWAP1 POP JUMP JUMPDEST DUP3 DUP2 DUP4 CALLDATACOPY PUSH0 DUP4 DUP4 ADD MSTORE POP POP POP JUMP JUMPDEST PUSH0 PUSH2 0x1A12 PUSH2 0x1A0D DUP5 PUSH2 0x19C2 JUMP JUMPDEST PUSH2 0x19A8 JUMP JUMPDEST SWAP1 POP DUP3 DUP2 MSTORE PUSH1 0x20 DUP2 ADD DUP5 DUP5 DUP5 ADD GT ISZERO PUSH2 0x1A2E JUMPI PUSH2 0x1A2D PUSH2 0x1946 JUMP JUMPDEST JUMPDEST PUSH2 0x1A39 DUP5 DUP3 DUP6 PUSH2 0x19F2 JUMP JUMPDEST POP SWAP4 SWAP3 POP POP POP JUMP JUMPDEST PUSH0 DUP3 PUSH1 0x1F DUP4 ADD SLT PUSH2 0x1A55 JUMPI PUSH2 0x1A54 PUSH2 0x1942 JUMP JUMPDEST JUMPDEST DUP2 CALLDATALOAD PUSH2 0x1A65 DUP5 DUP3 PUSH1 0x20 DUP7 ADD PUSH2 0x1A00 JUMP JUMPDEST SWAP2 POP POP SWAP3 SWAP2 POP POP JUMP JUMPDEST PUSH0 PUSH1 0x20 DUP3 DUP5 SUB SLT ISZERO PUSH2 0x1A83 JUMPI PUSH2 0x1A82 PUSH2 0x1774 JUMP JUMPDEST JUMPDEST PUSH0 DUP3 ADD CALLDATALOAD PUSH8 0xFFFFFFFFFFFFFFFF DUP2 GT ISZERO PUSH2 0x1AA0 JUMPI PUSH2 0x1A9F PUSH2 0x1778 JUMP JUMPDEST JUMPDEST PUSH2 0x1AAC DUP5 DUP3 DUP6 ADD PUSH2 0x1A41 JUMP JUMPDEST SWAP2 POP POP SWAP3 SWAP2 POP POP JUMP JUMPDEST PUSH0 DUP1 PUSH0 PUSH1 0x60 DUP5 DUP7 SUB SLT ISZERO PUSH2 0x1ACC JUMPI PUSH2 0x1ACB PUSH2 0x1774 JUMP JUMPDEST JUMPDEST PUSH0 PUSH2 0x1AD9 DUP7 DUP3 DUP8 ADD PUSH2 0x179B JUMP JUMPDEST SWAP4 POP POP PUSH1 0x20 PUSH2 0x1AEA DUP7 DUP3 DUP8 ADD PUSH2 0x1848 JUMP JUMPDEST SWAP3 POP POP PUSH1 0x40 PUSH2 0x1AFB DUP7 DUP3 DUP8 ADD PUSH2 0x179B JUMP JUMPDEST SWAP2 POP POP SWAP3 POP SWAP3 POP SWAP3 JUMP JUMPDEST PUSH0 DUP2 ISZERO ISZERO SWAP1 POP SWAP2 SWAP1 POP JUMP JUMPDEST PUSH2 0x1B19 DUP2 PUSH2 0x1B05 JUMP JUMPDEST DUP3 MSTORE POP POP JUMP JUMPDEST PUSH0 PUSH1 0x20 DUP3 ADD SWAP1 POP PUSH2 0x1B32 PUSH0 DUP4 ADD DUP5 PUSH2 0x1B10 JUMP JUMPDEST SWAP3 SWAP2 POP POP JUMP JUMPDEST PUSH0 PUSH1 0x20 DUP3 ADD SWAP1 POP PUSH2 0x1B4B PUSH0 DUP4 ADD DUP5 PUSH2 0x18F7 JUMP JUMPDEST SWAP3 SWAP2 POP POP JUMP JUMPDEST PUSH0 DUP2 MLOAD SWAP1 POP SWAP2 SWAP1 POP JUMP JUMPDEST PUSH0 DUP3 DUP3 MSTORE PUSH1 0x20 DUP3 ADD SWAP1 POP SWAP3 SWAP2 POP POP JUMP JUMPDEST PUSH0 DUP2 SWAP1 POP PUSH1 0x20 DUP3 ADD SWAP1 POP SWAP2 SWAP1 POP JUMP JUMPDEST PUSH2 0x1B83 DUP2 PUSH2 0x1821 JUMP JUMPDEST DUP3 MSTORE POP POP JUMP JUMPDEST PUSH2 0x1B92 DUP2 PUSH2 0x177C JUMP JUMPDEST DUP3 MSTORE POP POP JUMP JUMPDEST PUSH1 0x60 DUP3 ADD PUSH0 DUP3 ADD MLOAD PUSH2 0x1BAC PUSH0 DUP6 ADD DUP3 PUSH2 0x1B7A JUMP JUMPDEST POP PUSH1 0x20 DUP3 ADD MLOAD PUSH2 0x1BBF PUSH1 0x20 DUP6 ADD DUP3 PUSH2 0x1B7A JUMP JUMPDEST POP PUSH1 0x40 DUP3 ADD MLOAD PUSH2 0x1BD2 PUSH1 0x40 DUP6 ADD DUP3 PUSH2 0x1B89 JUMP JUMPDEST POP POP POP POP JUMP JUMPDEST PUSH0 PUSH2 0x1BE3 DUP4 DUP4 PUSH2 0x1B98 JUMP JUMPDEST PUSH1 0x60 DUP4 ADD SWAP1 POP SWAP3 SWAP2 POP POP JUMP JUMPDEST PUSH0 PUSH1 0x20 DUP3 ADD SWAP1 POP SWAP2 SWAP1 POP JUMP JUMPDEST PUSH0 PUSH2 0x1C05 DUP3 PUSH2 0x1B51 JUMP JUMPDEST PUSH2 0x1C0F DUP2 DUP6 PUSH2 0x1B5B JUMP JUMPDEST SWAP4 POP PUSH2 0x1C1A DUP4 PUSH2 0x1B6B JUMP JUMPDEST DUP1 PUSH0 JUMPDEST DUP4 DUP2 LT ISZERO PUSH2 0x1C4A JUMPI DUP2 MLOAD PUSH2 0x1C31 DUP9 DUP3 PUSH2 0x1BD8 JUMP JUMPDEST SWAP8 POP PUSH2 0x1C3C DUP4 PUSH2 0x1BEF JUMP JUMPDEST SWAP3 POP POP PUSH1 0x1 DUP2 ADD SWAP1 POP PUSH2 0x1C1D JUMP JUMPDEST POP DUP6 SWAP4 POP POP POP POP SWAP3 SWAP2 POP POP JUMP JUMPDEST PUSH0 PUSH1 0x20 DUP3 ADD SWAP1 POP DUP2 DUP2 SUB PUSH0 DUP4 ADD MSTORE PUSH2 0x1C6F DUP2 DUP5 PUSH2 0x1BFB JUMP JUMPDEST SWAP1 POP SWAP3 SWAP2 POP POP JUMP JUMPDEST PUSH32 0x63616E7420646F206974206E6F77000000000000000000000000000000000000 PUSH0 DUP3 ADD MSTORE POP JUMP JUMPDEST PUSH0 PUSH2 0x1CAB PUSH1 0xE DUP4 PUSH2 0x1891 JUMP JUMPDEST SWAP2 POP PUSH2 0x1CB6 DUP3 PUSH2 0x1C77 JUMP JUMPDEST PUSH1 0x20 DUP3 ADD SWAP1 POP SWAP2 SWAP1 POP JUMP JUMPDEST PUSH0 PUSH1 0x20 DUP3 ADD SWAP1 POP DUP2 DUP2 SUB PUSH0 DUP4 ADD MSTORE PUSH2 0x1CD8 DUP2 PUSH2 0x1C9F JUMP JUMPDEST SWAP1 POP SWAP2 SWAP1 POP JUMP JUMPDEST PUSH32 0x616F7574206F66206F72646572206E6F00000000000000000000000000000000 PUSH0 DUP3 ADD MSTORE POP JUMP JUMPDEST PUSH0 PUSH2 0x1D13 PUSH1 0x10 DUP4 PUSH2 0x1891 JUMP JUMPDEST SWAP2 POP PUSH2 0x1D1E DUP3 PUSH2 0x1CDF JUMP JUMPDEST PUSH1 0x20 DUP3 ADD SWAP1 POP SWAP2 SWAP1 POP JUMP JUMPDEST PUSH0 PUSH1 0x20 DUP3 ADD SWAP1 POP DUP2 DUP2 SUB PUSH0 DUP4 ADD MSTORE PUSH2 0x1D40 DUP2 PUSH2 0x1D07 JUMP JUMPDEST SWAP1 POP SWAP2 SWAP1 POP JUMP JUMPDEST PUSH0 DUP2 MLOAD SWAP1 POP PUSH2 0x1D55 DUP2 PUSH2 0x1785 JUMP JUMPDEST SWAP3 SWAP2 POP POP JUMP JUMPDEST PUSH0 PUSH1 0x20 DUP3 DUP5 SUB SLT ISZERO PUSH2 0x1D70 JUMPI PUSH2 0x1D6F PUSH2 0x1774 JUMP JUMPDEST JUMPDEST PUSH0 PUSH2 0x1D7D DUP5 DUP3 DUP6 ADD PUSH2 0x1D47 JUMP JUMPDEST SWAP2 POP POP SWAP3 SWAP2 POP POP JUMP JUMPDEST PUSH32 0x646F6E74206F776E20746865206E667400000000000000000000000000000000 PUSH0 DUP3 ADD MSTORE POP JUMP JUMPDEST PUSH0 PUSH2 0x1DBA PUSH1 0x10 DUP4 PUSH2 0x1891 JUMP JUMPDEST SWAP2 POP PUSH2 0x1DC5 DUP3 PUSH2 0x1D86 JUMP JUMPDEST PUSH1 0x20 DUP3 ADD SWAP1 POP SWAP2 SWAP1 POP JUMP JUMPDEST PUSH0 PUSH1 0x20 DUP3 ADD SWAP1 POP DUP2 DUP2 SUB PUSH0 DUP4 ADD MSTORE PUSH2 0x1DE7 DUP2 PUSH2 0x1DAE JUMP JUMPDEST SWAP1 POP SWAP2 SWAP1 POP JUMP JUMPDEST PUSH32 0x63616E2063617374206D6F726520766F74650000000000000000000000000000 PUSH0 DUP3 ADD MSTORE POP JUMP JUMPDEST PUSH0 PUSH2 0x1E22 PUSH1 0x12 DUP4 PUSH2 0x1891 JUMP JUMPDEST SWAP2 POP PUSH2 0x1E2D DUP3 PUSH2 0x1DEE JUMP JUMPDEST PUSH1 0x20 DUP3 ADD SWAP1 POP SWAP2 SWAP1 POP JUMP JUMPDEST PUSH0 PUSH1 0x20 DUP3 ADD SWAP1 POP DUP2 DUP2 SUB PUSH0 DUP4 ADD MSTORE PUSH2 0x1E4F DUP2 PUSH2 0x1E16 JUMP JUMPDEST SWAP1 POP SWAP2 SWAP1 POP JUMP JUMPDEST PUSH0 DUP2 MLOAD SWAP1 POP PUSH2 0x1E64 DUP2 PUSH2 0x1832 JUMP JUMPDEST SWAP3 SWAP2 POP POP JUMP JUMPDEST PUSH0 PUSH1 0x20 DUP3 DUP5 SUB SLT ISZERO PUSH2 0x1E7F JUMPI PUSH2 0x1E7E PUSH2 0x1774 JUMP JUMPDEST JUMPDEST PUSH0 PUSH2 0x1E8C DUP5 DUP3 DUP6 ADD PUSH2 0x1E56 JUMP JUMPDEST SWAP2 POP POP SWAP3 SWAP2 POP POP JUMP JUMPDEST PUSH32 0x4E487B7100000000000000000000000000000000000000000000000000000000 PUSH0 MSTORE PUSH1 0x11 PUSH1 0x4 MSTORE PUSH1 0x24 PUSH0 REVERT JUMPDEST PUSH0 PUSH2 0x1ECC DUP3 PUSH2 0x177C JUMP JUMPDEST SWAP2 POP PUSH32 0xFFFFFFFFFFFFFFFFFFFFFFFFFFFFFFFFFFFFFFFFFFFFFFFFFFFFFFFFFFFFFFFF DUP3 SUB PUSH2 0x1EFE JUMPI PUSH2 0x1EFD PUSH2 0x1E95 JUMP JUMPDEST JUMPDEST PUSH1 0x1 DUP3 ADD SWAP1 POP SWAP2 SWAP1 POP JUMP JUMPDEST PUSH32 0x4E487B7100000000000000000000000000000000000000000000000000000000 PUSH0 MSTORE PUSH1 0x22 PUSH1 0x4 MSTORE PUSH1 0x24 PUSH0 REVERT JUMPDEST PUSH0 PUSH1 0x2 DUP3 DIV SWAP1 POP PUSH1 0x1 DUP3 AND DUP1 PUSH2 0x1F4D JUMPI PUSH1 0x7F DUP3 AND SWAP2 POP JUMPDEST PUSH1 0x20 DUP3 LT DUP2 SUB PUSH2 0x1F60 JUMPI PUSH2 0x1F5F PUSH2 0x1F09 JUMP JUMPDEST JUMPDEST POP SWAP2 SWAP1 POP JUMP JUMPDEST PUSH0 DUP2 SWAP1 POP DUP2 PUSH0 MSTORE PUSH1 0x20 PUSH0 KECCAK256 SWAP1 POP SWAP2 SWAP1 POP JUMP JUMPDEST PUSH0 PUSH1 0x20 PUSH1 0x1F DUP4 ADD DIV SWAP1 POP SWAP2 SWAP1 POP JUMP JUMPDEST PUSH0 DUP3 DUP3 SHL SWAP1 POP SWAP3 SWAP2 POP POP JUMP JUMPDEST PUSH0 PUSH1 0x8 DUP4 MUL PUSH2 0x1FC2 PUSH32 0xFFFFFFFFFFFFFFFFFFFFFFFFFFFFFFFFFFFFFFFFFFFFFFFFFFFFFFFFFFFFFFFF DUP3 PUSH2 0x1F87 JUMP JUMPDEST PUSH2 0x1FCC DUP7 DUP4 PUSH2 0x1F87 JUMP JUMPDEST SWAP6 POP DUP1 NOT DUP5 AND SWAP4 POP DUP1 DUP7 AND DUP5 OR SWAP3 POP POP POP SWAP4 SWAP3 POP POP POP JUMP JUMPDEST PUSH0 DUP2 SWAP1 POP SWAP2 SWAP1 POP JUMP JUMPDEST PUSH0 PUSH2 0x2007 PUSH2 0x2002 PUSH2 0x1FFD DUP5 PUSH2 0x177C JUMP JUMPDEST PUSH2 0x1FE4 JUMP JUMPDEST PUSH2 0x177C JUMP JUMPDEST SWAP1 POP SWAP2 SWAP1 POP JUMP JUMPDEST PUSH0 DUP2 SWAP1 POP SWAP2 SWAP1 POP JUMP JUMPDEST PUSH2 0x2020 DUP4 PUSH2 0x1FED JUMP JUMPDEST PUSH2 0x2034 PUSH2 0x202C DUP3 PUSH2 0x200E JUMP JUMPDEST DUP5 DUP5 SLOAD PUSH2 0x1F93 JUMP JUMPDEST DUP3 SSTORE POP POP POP POP JUMP JUMPDEST PUSH0 SWAP1 JUMP JUMPDEST PUSH2 0x2048 PUSH2 0x203C JUMP JUMPDEST PUSH2 0x2053 DUP2 DUP5 DUP5 PUSH2 0x2017 JUMP JUMPDEST POP POP POP JUMP JUMPDEST JUMPDEST DUP2 DUP2 LT ISZERO PUSH2 0x2076 JUMPI PUSH2 0x206B PUSH0 DUP3 PUSH2 0x2040 JUMP JUMPDEST PUSH1 0x1 DUP2 ADD SWAP1 POP PUSH2 0x2059 JUMP JUMPDEST POP POP JUMP JUMPDEST PUSH1 0x1F DUP3 GT ISZERO PUSH2 0x20BB JUMPI PUSH2 0x208C DUP2 PUSH2 0x1F66 JUMP JUMPDEST PUSH2 0x2095 DUP5 PUSH2 0x1F78 JUMP JUMPDEST DUP2 ADD PUSH1 0x20 DUP6 LT ISZERO PUSH2 0x20A4 JUMPI DUP2 SWAP1 POP JUMPDEST PUSH2 0x20B8 PUSH2 0x20B0 DUP6 PUSH2 0x1F78 JUMP JUMPDEST DUP4 ADD DUP3 PUSH2 0x2058 JUMP JUMPDEST POP POP JUMPDEST POP POP POP JUMP JUMPDEST PUSH0 DUP3 DUP3 SHR SWAP1 POP SWAP3 SWAP2 POP POP JUMP JUMPDEST PUSH0 PUSH2 0x20DB PUSH0 NOT DUP5 PUSH1 0x8 MUL PUSH2 0x20C0 JUMP JUMPDEST NOT DUP1 DUP4 AND SWAP2 POP POP SWAP3 SWAP2 POP POP JUMP JUMPDEST PUSH0 PUSH2 0x20F3 DUP4 DUP4 PUSH2 0x20CC JUMP JUMPDEST SWAP2 POP DUP3 PUSH1 0x2 MUL DUP3 OR SWAP1 POP SWAP3 SWAP2 POP POP JUMP JUMPDEST PUSH2 0x210C DUP3 PUSH2 0x1887 JUMP JUMPDEST PUSH8 0xFFFFFFFFFFFFFFFF DUP2 GT ISZERO PUSH2 0x2125 JUMPI PUSH2 0x2124 PUSH2 0x194A JUMP JUMPDEST JUMPDEST PUSH2 0x212F DUP3 SLOAD PUSH2 0x1F36 JUMP JUMPDEST PUSH2 0x213A DUP3 DUP3 DUP6 PUSH2 0x207A JUMP JUMPDEST PUSH0 PUSH1 0x20 SWAP1 POP PUSH1 0x1F DUP4 GT PUSH1 0x1 DUP2 EQ PUSH2 0x216B JUMPI PUSH0 DUP5 ISZERO PUSH2 0x2159 JUMPI DUP3 DUP8 ADD MLOAD SWAP1 POP JUMPDEST PUSH2 0x2163 DUP6 DUP3 PUSH2 0x20E8 JUMP JUMPDEST DUP7 SSTORE POP PUSH2 0x21CA JUMP JUMPDEST PUSH1 0x1F NOT DUP5 AND PUSH2 0x2179 DUP7 PUSH2 0x1F66 JUMP JUMPDEST PUSH0 JUMPDEST DUP3 DUP2 LT ISZERO PUSH2 0x21A0 JUMPI DUP5 DUP10 ADD MLOAD DUP3 SSTORE PUSH1 0x1 DUP3 ADD SWAP2 POP PUSH1 0x20 DUP6 ADD SWAP5 POP PUSH1 0x20 DUP2 ADD SWAP1 POP PUSH2 0x217B JUMP JUMPDEST DUP7 DUP4 LT ISZERO PUSH2 0x21BD JUMPI DUP5 DUP10 ADD MLOAD PUSH2 0x21B9 PUSH1 0x1F DUP10 AND DUP3 PUSH2 0x20CC JUMP JUMPDEST DUP4 SSTORE POP JUMPDEST PUSH1 0x1 PUSH1 0x2 DUP9 MUL ADD DUP9 SSTORE POP POP POP JUMPDEST POP POP POP POP POP POP JUMP JUMPDEST PUSH32 0x416D6F756E74206D7573742062652067726561746572207468616E2030000000 PUSH0 DUP3 ADD MSTORE POP JUMP JUMPDEST PUSH0 PUSH2 0x2206 PUSH1 0x1D DUP4 PUSH2 0x1891 JUMP JUMPDEST SWAP2 POP PUSH2 0x2211 DUP3 PUSH2 0x21D2 JUMP JUMPDEST PUSH1 0x20 DUP3 ADD SWAP1 POP SWAP2 SWAP1 POP JUMP JUMPDEST PUSH0 PUSH1 0x20 DUP3 ADD SWAP1 POP DUP2 DUP2 SUB PUSH0 DUP4 ADD MSTORE PUSH2 0x2233 DUP2 PUSH2 0x21FA JUMP JUMPDEST SWAP1 POP SWAP2 SWAP1 POP JUMP JUMPDEST PUSH32 0x496E73756666696369656E7420746F6B656E2062616C616E6365000000000000 PUSH0 DUP3 ADD MSTORE POP JUMP JUMPDEST PUSH0 PUSH2 0x226E PUSH1 0x1A DUP4 PUSH2 0x1891 JUMP JUMPDEST SWAP2 POP PUSH2 0x2279 DUP3 PUSH2 0x223A JUMP JUMPDEST PUSH1 0x20 DUP3 ADD SWAP1 POP SWAP2 SWAP1 POP JUMP JUMPDEST PUSH0 PUSH1 0x20 DUP3 ADD SWAP1 POP DUP2 DUP2 SUB PUSH0 DUP4 ADD MSTORE PUSH2 0x229B DUP2 PUSH2 0x2262 JUMP JUMPDEST SWAP1 POP SWAP2 SWAP1 POP JUMP JUMPDEST PUSH0 PUSH1 0x60 DUP3 ADD SWAP1 POP PUSH2 0x22B5 PUSH0 DUP4 ADD DUP7 PUSH2 0x18F7 JUMP JUMPDEST PUSH2 0x22C2 PUSH1 0x20 DUP4 ADD DUP6 PUSH2 0x18F7 JUMP JUMPDEST PUSH2 0x22CF PUSH1 0x40 DUP4 ADD DUP5 PUSH2 0x17DA JUMP JUMPDEST SWAP5 SWAP4 POP POP POP POP JUMP JUMPDEST PUSH2 0x22E0 DUP2 PUSH2 0x1B05 JUMP JUMPDEST DUP2 EQ PUSH2 0x22EA JUMPI PUSH0 DUP1 REVERT JUMPDEST POP JUMP JUMPDEST PUSH0 DUP2 MLOAD SWAP1 POP PUSH2 0x22FB DUP2 PUSH2 0x22D7 JUMP JUMPDEST SWAP3 SWAP2 POP POP JUMP JUMPDEST PUSH0 PUSH1 0x20 DUP3 DUP5 SUB SLT ISZERO PUSH2 0x2316 JUMPI PUSH2 0x2315 PUSH2 0x1774 JUMP JUMPDEST JUMPDEST PUSH0 PUSH2 0x2323 DUP5 DUP3 DUP6 ADD PUSH2 0x22ED JUMP JUMPDEST SWAP2 POP POP SWAP3 SWAP2 POP POP JUMP JUMPDEST PUSH32 0x7472616E73616374696F6E206661696C65640000000000000000000000000000 PUSH0 DUP3 ADD MSTORE POP JUMP JUMPDEST PUSH0 PUSH2 0x2360 PUSH1 0x12 DUP4 PUSH2 0x1891 JUMP JUMPDEST SWAP2 POP PUSH2 0x236B DUP3 PUSH2 0x232C JUMP JUMPDEST PUSH1 0x20 DUP3 ADD SWAP1 POP SWAP2 SWAP1 POP JUMP JUMPDEST PUSH0 PUSH1 0x20 DUP3 ADD SWAP1 POP DUP2 DUP2 SUB PUSH0 DUP4 ADD MSTORE PUSH2 0x238D DUP2 PUSH2 0x2354 JUMP JUMPDEST SWAP1 POP SWAP2 SWAP1 POP JUMP JUMPDEST PUSH32 0x63616E7420636C61696D2077696E6E65722070726F6A65637400000000000000 PUSH0 DUP3 ADD MSTORE POP JUMP JUMPDEST PUSH0 PUSH2 0x23C8 PUSH1 0x19 DUP4 PUSH2 0x1891 JUMP JUMPDEST SWAP2 POP PUSH2 0x23D3 DUP3 PUSH2 0x2394 JUMP JUMPDEST PUSH1 0x20 DUP3 ADD SWAP1 POP SWAP2 SWAP1 POP JUMP JUMPDEST PUSH0 PUSH1 0x20 DUP3 ADD SWAP1 POP DUP2 DUP2 SUB PUSH0 DUP4 ADD MSTORE PUSH2 0x23F5 DUP2 PUSH2 0x23BC JUMP JUMPDEST SWAP1 POP SWAP2 SWAP1 POP JUMP JUMPDEST PUSH32 0x4E487B7100000000000000000000000000000000000000000000000000000000 PUSH0 MSTORE PUSH1 0x32 PUSH1 0x4 MSTORE PUSH1 0x24 PUSH0 REVERT JUMPDEST PUSH0 PUSH1 0x40 DUP3 ADD SWAP1 POP PUSH2 0x243C PUSH0 DUP4 ADD DUP6 PUSH2 0x18F7 JUMP JUMPDEST PUSH2 0x2449 PUSH1 0x20 DUP4 ADD DUP5 PUSH2 0x17DA JUMP JUMPDEST SWAP4 SWAP3 POP POP POP JUMP JUMPDEST PUSH32 0x4E487B7100000000000000000000000000000000000000000000000000000000 PUSH0 MSTORE PUSH1 0x21 PUSH1 0x4 MSTORE PUSH1 0x24 PUSH0 REVERT INVALID LOG2 PUSH5 0x6970667358 0x22 SLT KECCAK256 0xA9 DUP5 0xE6 PUSH8 0xE4A569A9573093E3 0x4C PREVRANDAO 0xB9 DUP1 PUSH13 0x307D10537AFFAE8A8564F8B2B8 0xB5 CREATE2 PUSH5 0x736F6C6343 STOP ADDMOD BYTE STOP CALLER "
				},
				"gasEstimates": {
					"creation": {
						"codeDepositCost": "1879000",
						"executionCost": "infinite",
						"totalCost": "infinite"
					},
					"external": {
						"briberInfo(uint256)": "infinite",
						"changeState(uint256)": "infinite",
						"changelastTokenId(uint256)": "infinite",
						"claim(uint256)": "infinite",
						"getStatus()": "6749",
						"getWinnerProjectId()": "infinite",
						"incentiviseProject(uint256,address,uint256)": "infinite",
						"incentivizingPeriod()": "2558",
						"initializeProject(string)": "infinite",
						"lastTokenId()": "2557",
						"nftContractAddress()": "2619",
						"owner()": "2582",
						"projectCount()": "2492",
						"projects(uint256)": "infinite",
						"renounceOwnership()": "infinite",
						"setNftAddress(address)": "infinite",
						"tokenVoted(uint256)": "2896",
						"totalVotes()": "2515",
						"transferOwnership(address)": "infinite",
						"vote(uint256)": "infinite",
						"voters(address)": "2891",
						"votingPeriod()": "2471",
						"withdrawWinnerProject(address)": "infinite"
					}
				},
				"methodIdentifiers": {
					"briberInfo(uint256)": "bfb906a7",
					"changeState(uint256)": "b00741cb",
					"changelastTokenId(uint256)": "cb06545c",
					"claim(uint256)": "379607f5",
					"getStatus()": "4e69d560",
					"getWinnerProjectId()": "f4b1f501",
					"incentiviseProject(uint256,address,uint256)": "33b2decc",
					"incentivizingPeriod()": "3885aed3",
					"initializeProject(string)": "239ecf35",
					"lastTokenId()": "f84ddf0b",
					"nftContractAddress()": "aae282e1",
					"owner()": "8da5cb5b",
					"projectCount()": "36fbad26",
					"projects(uint256)": "107046bd",
					"renounceOwnership()": "715018a6",
					"setNftAddress(address)": "0b102d1a",
					"tokenVoted(uint256)": "38200702",
					"totalVotes()": "0d15fd77",
					"transferOwnership(address)": "f2fde38b",
					"vote(uint256)": "0121b93f",
					"voters(address)": "a3ec138d",
					"votingPeriod()": "02a251a3",
					"withdrawWinnerProject(address)": "d19ee357"
				}
			},
			"storageLayout": {
				"storage": [
					{
						"astId": 8,
						"contract": "DiscoCats.sol:DiscoCats",
						"label": "_owner",
						"offset": 0,
						"slot": "0",
						"type": "t_address"
					},
					{
						"astId": 394,
						"contract": "DiscoCats.sol:DiscoCats",
						"label": "incentivizingPeriod",
						"offset": 0,
						"slot": "1",
						"type": "t_uint256"
					},
					{
						"astId": 396,
						"contract": "DiscoCats.sol:DiscoCats",
						"label": "votingPeriod",
						"offset": 0,
						"slot": "2",
						"type": "t_uint256"
					},
					{
						"astId": 399,
						"contract": "DiscoCats.sol:DiscoCats",
						"label": "projectCount",
						"offset": 0,
						"slot": "3",
						"type": "t_uint256"
					},
					{
						"astId": 401,
						"contract": "DiscoCats.sol:DiscoCats",
						"label": "nftContractAddress",
						"offset": 0,
						"slot": "4",
						"type": "t_address"
					},
					{
						"astId": 428,
						"contract": "DiscoCats.sol:DiscoCats",
						"label": "status",
						"offset": 20,
						"slot": "4",
						"type": "t_enum(govtStatus)423"
					},
					{
						"astId": 432,
						"contract": "DiscoCats.sol:DiscoCats",
						"label": "voters",
						"offset": 0,
						"slot": "5",
						"type": "t_mapping(t_address,t_uint256)"
					},
					{
						"astId": 435,
						"contract": "DiscoCats.sol:DiscoCats",
						"label": "totalVotes",
						"offset": 0,
						"slot": "6",
						"type": "t_uint256"
					},
					{
						"astId": 438,
						"contract": "DiscoCats.sol:DiscoCats",
						"label": "lastTokenId",
						"offset": 0,
						"slot": "7",
						"type": "t_uint256"
					},
					{
						"astId": 442,
						"contract": "DiscoCats.sol:DiscoCats",
						"label": "tokenVoted",
						"offset": 0,
						"slot": "8",
						"type": "t_mapping(t_uint256,t_bool)"
					},
					{
						"astId": 447,
						"contract": "DiscoCats.sol:DiscoCats",
						"label": "projects",
						"offset": 0,
						"slot": "9",
						"type": "t_mapping(t_uint256,t_struct(Project)419_storage)"
					}
				],
				"types": {
					"t_address": {
						"encoding": "inplace",
						"label": "address",
						"numberOfBytes": "20"
					},
					"t_array(t_struct(Briber)408_storage)dyn_storage": {
						"base": "t_struct(Briber)408_storage",
						"encoding": "dynamic_array",
						"label": "struct DiscoCats.Briber[]",
						"numberOfBytes": "32"
					},
					"t_bool": {
						"encoding": "inplace",
						"label": "bool",
						"numberOfBytes": "1"
					},
					"t_enum(govtStatus)423": {
						"encoding": "inplace",
						"label": "enum DiscoCats.govtStatus",
						"numberOfBytes": "1"
					},
					"t_mapping(t_address,t_uint256)": {
						"encoding": "mapping",
						"key": "t_address",
						"label": "mapping(address => uint256)",
						"numberOfBytes": "32",
						"value": "t_uint256"
					},
					"t_mapping(t_uint256,t_bool)": {
						"encoding": "mapping",
						"key": "t_uint256",
						"label": "mapping(uint256 => bool)",
						"numberOfBytes": "32",
						"value": "t_bool"
					},
					"t_mapping(t_uint256,t_struct(Project)419_storage)": {
						"encoding": "mapping",
						"key": "t_uint256",
						"label": "mapping(uint256 => struct DiscoCats.Project)",
						"numberOfBytes": "32",
						"value": "t_struct(Project)419_storage"
					},
					"t_string_storage": {
						"encoding": "bytes",
						"label": "string",
						"numberOfBytes": "32"
					},
					"t_struct(Briber)408_storage": {
						"encoding": "inplace",
						"label": "struct DiscoCats.Briber",
						"members": [
							{
								"astId": 403,
								"contract": "DiscoCats.sol:DiscoCats",
								"label": "briberAddress",
								"offset": 0,
								"slot": "0",
								"type": "t_address"
							},
							{
								"astId": 405,
								"contract": "DiscoCats.sol:DiscoCats",
								"label": "tokenAddress",
								"offset": 0,
								"slot": "1",
								"type": "t_address"
							},
							{
								"astId": 407,
								"contract": "DiscoCats.sol:DiscoCats",
								"label": "tokenAmnt",
								"offset": 0,
								"slot": "2",
								"type": "t_uint256"
							}
						],
						"numberOfBytes": "96"
					},
					"t_struct(Project)419_storage": {
						"encoding": "inplace",
						"label": "struct DiscoCats.Project",
						"members": [
							{
								"astId": 410,
								"contract": "DiscoCats.sol:DiscoCats",
								"label": "name",
								"offset": 0,
								"slot": "0",
								"type": "t_string_storage"
							},
							{
								"astId": 412,
								"contract": "DiscoCats.sol:DiscoCats",
								"label": "projectOwner",
								"offset": 0,
								"slot": "1",
								"type": "t_address"
							},
							{
								"astId": 416,
								"contract": "DiscoCats.sol:DiscoCats",
								"label": "bribers",
								"offset": 0,
								"slot": "2",
								"type": "t_array(t_struct(Briber)408_storage)dyn_storage"
							},
							{
								"astId": 418,
								"contract": "DiscoCats.sol:DiscoCats",
								"label": "votes",
								"offset": 0,
								"slot": "3",
								"type": "t_uint256"
							}
						],
						"numberOfBytes": "128"
					},
					"t_uint256": {
						"encoding": "inplace",
						"label": "uint256",
						"numberOfBytes": "32"
					}
				}
			},
			"userdoc": {
				"kind": "user",
				"methods": {},
				"version": 1
			}
		}
	}
}