{
	"DiscoCats.sol": {
		"DiscoCats": {
			"abi": [
				{
					"inputs": [
						{
							"internalType": "address",
							"name": "initialOwner",
							"type": "address"
						},
						{
							"internalType": "uint256",
							"name": "_incentivizingPeriod",
							"type": "uint256"
						},
						{
							"internalType": "uint256",
							"name": "_votingPeriod",
							"type": "uint256"
						}
					],
					"stateMutability": "nonpayable",
					"type": "constructor"
				},
				{
					"inputs": [
						{
							"internalType": "address",
							"name": "owner",
							"type": "address"
						}
					],
					"name": "OwnableInvalidOwner",
					"type": "error"
				},
				{
					"inputs": [
						{
							"internalType": "address",
							"name": "account",
							"type": "address"
						}
					],
					"name": "OwnableUnauthorizedAccount",
					"type": "error"
				},
				{
					"anonymous": false,
					"inputs": [
						{
							"indexed": true,
							"internalType": "address",
							"name": "previousOwner",
							"type": "address"
						},
						{
							"indexed": true,
							"internalType": "address",
							"name": "newOwner",
							"type": "address"
						}
					],
					"name": "OwnershipTransferred",
					"type": "event"
				},
				{
					"inputs": [
						{
							"internalType": "uint256",
							"name": "_projectId",
							"type": "uint256"
						}
					],
					"name": "briberInfo",
					"outputs": [
						{
							"components": [
								{
									"internalType": "address",
									"name": "briberAddress",
									"type": "address"
								},
								{
									"internalType": "address",
									"name": "tokenAddress",
									"type": "address"
								},
								{
									"internalType": "uint256",
									"name": "tokenAmnt",
									"type": "uint256"
								}
							],
							"internalType": "struct DiscoCats.Briber[]",
							"name": "_bribers",
							"type": "tuple[]"
						}
					],
					"stateMutability": "view",
					"type": "function"
				},
				{
					"inputs": [
						{
							"internalType": "uint256",
							"name": "_projectId",
							"type": "uint256"
						},
						{
							"internalType": "address",
							"name": "_tokenAddress",
							"type": "address"
						}
					],
					"name": "briberTokenInfo",
					"outputs": [
						{
							"internalType": "uint256",
							"name": "number",
							"type": "uint256"
						}
					],
					"stateMutability": "view",
					"type": "function"
				},
				{
					"inputs": [
						{
							"internalType": "uint256",
							"name": "_stateNumber",
							"type": "uint256"
						}
					],
					"name": "changeState",
					"outputs": [],
					"stateMutability": "nonpayable",
					"type": "function"
				},
				{
					"inputs": [
						{
							"internalType": "uint256",
							"name": "_id",
							"type": "uint256"
						}
					],
					"name": "changelastTokenId",
					"outputs": [],
					"stateMutability": "nonpayable",
					"type": "function"
				},
				{
					"inputs": [
						{
							"internalType": "uint256",
							"name": "_projectId",
							"type": "uint256"
						}
					],
					"name": "claim",
					"outputs": [],
					"stateMutability": "nonpayable",
					"type": "function"
				},
				{
					"inputs": [],
					"name": "getStatus",
					"outputs": [
						{
							"internalType": "uint256",
							"name": "_status",
							"type": "uint256"
						}
					],
					"stateMutability": "view",
					"type": "function"
				},
				{
					"inputs": [],
					"name": "getWinnerProjectId",
					"outputs": [
						{
							"internalType": "uint256",
							"name": "_id",
							"type": "uint256"
						}
					],
					"stateMutability": "view",
					"type": "function"
				},
				{
					"inputs": [
						{
							"internalType": "uint256",
							"name": "id",
							"type": "uint256"
						},
						{
							"internalType": "address",
							"name": "_tokenAddress",
							"type": "address"
						},
						{
							"internalType": "uint256",
							"name": "_tokenAmount",
							"type": "uint256"
						}
					],
					"name": "incentiviseProject",
					"outputs": [],
					"stateMutability": "nonpayable",
					"type": "function"
				},
				{
					"inputs": [],
					"name": "incentivizingPeriod",
					"outputs": [
						{
							"internalType": "uint256",
							"name": "",
							"type": "uint256"
						}
					],
					"stateMutability": "view",
					"type": "function"
				},
				{
					"inputs": [
						{
							"internalType": "string",
							"name": "_name",
							"type": "string"
						}
					],
					"name": "initializeProject",
					"outputs": [],
					"stateMutability": "nonpayable",
					"type": "function"
				},
				{
					"inputs": [],
					"name": "lastTokenId",
					"outputs": [
						{
							"internalType": "uint256",
							"name": "",
							"type": "uint256"
						}
					],
					"stateMutability": "view",
					"type": "function"
				},
				{
					"inputs": [],
					"name": "nftContractAddress",
					"outputs": [
						{
							"internalType": "address",
							"name": "",
							"type": "address"
						}
					],
					"stateMutability": "view",
					"type": "function"
				},
				{
					"inputs": [],
					"name": "owner",
					"outputs": [
						{
							"internalType": "address",
							"name": "",
							"type": "address"
						}
					],
					"stateMutability": "view",
					"type": "function"
				},
				{
					"inputs": [],
					"name": "projectCount",
					"outputs": [
						{
							"internalType": "uint256",
							"name": "",
							"type": "uint256"
						}
					],
					"stateMutability": "view",
					"type": "function"
				},
				{
					"inputs": [
						{
							"internalType": "uint256",
							"name": "",
							"type": "uint256"
						}
					],
					"name": "projects",
					"outputs": [
						{
							"internalType": "string",
							"name": "name",
							"type": "string"
						},
						{
							"internalType": "address",
							"name": "projectOwner",
							"type": "address"
						},
						{
							"internalType": "uint256",
							"name": "votes",
							"type": "uint256"
						}
					],
					"stateMutability": "view",
					"type": "function"
				},
				{
					"inputs": [],
					"name": "renounceOwnership",
					"outputs": [],
					"stateMutability": "nonpayable",
					"type": "function"
				},
				{
					"inputs": [
						{
							"internalType": "address",
							"name": "_nftAddress",
							"type": "address"
						}
					],
					"name": "setNftAddress",
					"outputs": [],
					"stateMutability": "nonpayable",
					"type": "function"
				},
				{
					"inputs": [
						{
							"internalType": "uint256",
							"name": "",
							"type": "uint256"
						}
					],
					"name": "tokenVoted",
					"outputs": [
						{
							"internalType": "bool",
							"name": "",
							"type": "bool"
						}
					],
					"stateMutability": "view",
					"type": "function"
				},
				{
					"inputs": [],
					"name": "totalVotes",
					"outputs": [
						{
							"internalType": "uint256",
							"name": "",
							"type": "uint256"
						}
					],
					"stateMutability": "view",
					"type": "function"
				},
				{
					"inputs": [
						{
							"internalType": "address",
							"name": "newOwner",
							"type": "address"
						}
					],
					"name": "transferOwnership",
					"outputs": [],
					"stateMutability": "nonpayable",
					"type": "function"
				},
				{
					"inputs": [
						{
							"internalType": "uint256",
							"name": "_projectId",
							"type": "uint256"
						}
					],
					"name": "vote",
					"outputs": [],
					"stateMutability": "nonpayable",
					"type": "function"
				},
				{
					"inputs": [
						{
							"internalType": "address",
							"name": "",
							"type": "address"
						}
					],
					"name": "voters",
					"outputs": [
						{
							"internalType": "uint256",
							"name": "",
							"type": "uint256"
						}
					],
					"stateMutability": "view",
					"type": "function"
				},
				{
					"inputs": [],
					"name": "votingPeriod",
					"outputs": [
						{
							"internalType": "uint256",
							"name": "",
							"type": "uint256"
						}
					],
					"stateMutability": "view",
					"type": "function"
				},
				{
					"inputs": [
						{
							"internalType": "address",
							"name": "_receiver",
							"type": "address"
						}
					],
					"name": "withdrawWinnerProject",
					"outputs": [],
					"stateMutability": "nonpayable",
					"type": "function"
				}
			],
			"devdoc": {
				"errors": {
					"OwnableInvalidOwner(address)": [
						{
							"details": "The owner is not a valid owner account. (eg. `address(0)`)"
						}
					],
					"OwnableUnauthorizedAccount(address)": [
						{
							"details": "The caller account is not authorized to perform an operation."
						}
					]
				},
				"kind": "dev",
				"methods": {
					"owner()": {
						"details": "Returns the address of the current owner."
					},
					"renounceOwnership()": {
						"details": "Leaves the contract without owner. It will not be possible to call `onlyOwner` functions. Can only be called by the current owner. NOTE: Renouncing ownership will leave the contract without an owner, thereby disabling any functionality that is only available to the owner."
					},
					"transferOwnership(address)": {
						"details": "Transfers ownership of the contract to a new account (`newOwner`). Can only be called by the current owner."
					}
				},
				"version": 1
			},
			"evm": {
				"assembly": "    /* \"DiscoCats.sol\":292:8006  contract DiscoCats is Ownable {... */\n  mstore(0x40, 0x80)\n    /* \"DiscoCats.sol\":431:432  0 */\n  0x00\n    /* \"DiscoCats.sol\":401:432  uint256 public projectCount = 0 */\n  0x03\n  sstore\n    /* \"DiscoCats.sol\":870:894  govtStatus.incentivising */\n  0x00\n    /* \"DiscoCats.sol\":841:894  govtStatus internal status = govtStatus.incentivising */\n  0x04\n  exp(0x0100, 0x14)\n  dup2\n  sload\n  dup2\n  0xff\n  mul\n  not\n  and\n  swap1\n  dup4\n  0x02\n  dup2\n  gt\n  iszero\n  tag_1\n  jumpi\n  tag_2\n  tag_3\n  jump\t// in\ntag_2:\ntag_1:\n  mul\n  or\n  swap1\n  sstore\n  pop\n    /* \"DiscoCats.sol\":975:976  0 */\n  0x00\n    /* \"DiscoCats.sol\":947:976  uint256 public totalVotes = 0 */\n  0x06\n  sstore\n    /* \"DiscoCats.sol\":1011:1013  10 */\n  0x0a\n    /* \"DiscoCats.sol\":982:1013  uint256 public lastTokenId = 10 */\n  0x07\n  sstore\n    /* \"DiscoCats.sol\":1180:1518  constructor(... */\n  callvalue\n  dup1\n  iszero\n  tag_4\n  jumpi\n  0x00\n  dup1\n  revert\ntag_4:\n  pop\n  mload(0x40)\n  sub(codesize, bytecodeSize)\n  dup1\n  bytecodeSize\n  dup4\n  codecopy\n  dup2\n  dup2\n  add\n  0x40\n  mstore\n  dup2\n  add\n  swap1\n  tag_5\n  swap2\n  swap1\n  tag_6\n  jump\t// in\ntag_5:\n    /* \"DiscoCats.sol\":1305:1317  initialOwner */\n  dup3\n    /* \"@openzeppelin/contracts/access/Ownable.sol\":1297:1298  0 */\n  0x00\n    /* \"@openzeppelin/contracts/access/Ownable.sol\":1273:1299  initialOwner == address(0) */\n  0xffffffffffffffffffffffffffffffffffffffff\n  and\n    /* \"@openzeppelin/contracts/access/Ownable.sol\":1273:1285  initialOwner */\n  dup2\n    /* \"@openzeppelin/contracts/access/Ownable.sol\":1273:1299  initialOwner == address(0) */\n  0xffffffffffffffffffffffffffffffffffffffff\n  and\n  sub\n    /* \"@openzeppelin/contracts/access/Ownable.sol\":1269:1364  if (initialOwner == address(0)) {... */\n  tag_10\n  jumpi\n    /* \"@openzeppelin/contracts/access/Ownable.sol\":1350:1351  0 */\n  0x00\n    /* \"@openzeppelin/contracts/access/Ownable.sol\":1322:1353  OwnableInvalidOwner(address(0)) */\n  mload(0x40)\n  0x1e4fbdf700000000000000000000000000000000000000000000000000000000\n  dup2\n  mstore\n  0x04\n  add\n  tag_11\n  swap2\n  swap1\n  tag_12\n  jump\t// in\ntag_11:\n  mload(0x40)\n  dup1\n  swap2\n  sub\n  swap1\n  revert\n    /* \"@openzeppelin/contracts/access/Ownable.sol\":1269:1364  if (initialOwner == address(0)) {... */\ntag_10:\n    /* \"@openzeppelin/contracts/access/Ownable.sol\":1373:1405  _transferOwnership(initialOwner) */\n  tag_13\n    /* \"@openzeppelin/contracts/access/Ownable.sol\":1392:1404  initialOwner */\n  dup2\n    /* \"@openzeppelin/contracts/access/Ownable.sol\":1373:1391  _transferOwnership */\n  shl(0x20, tag_14)\n    /* \"@openzeppelin/contracts/access/Ownable.sol\":1373:1405  _transferOwnership(initialOwner) */\n  0x20\n  shr\n  jump\t// in\ntag_13:\n    /* \"@openzeppelin/contracts/access/Ownable.sol\":1225:1412  constructor(address initialOwner) {... */\n  pop\n    /* \"DiscoCats.sol\":1417:1419  60 */\n  0x3c\n    /* \"DiscoCats.sol\":1394:1414  _incentivizingPeriod */\n  dup3\n    /* \"DiscoCats.sol\":1394:1419  _incentivizingPeriod * 60 */\n  tag_16\n  swap2\n  swap1\n  tag_17\n  jump\t// in\ntag_16:\n    /* \"DiscoCats.sol\":1363:1378  block.timestamp */\n  timestamp\n    /* \"DiscoCats.sol\":1363:1421  block.timestamp +... */\n  tag_18\n  swap2\n  swap1\n  tag_19\n  jump\t// in\ntag_18:\n    /* \"DiscoCats.sol\":1329:1348  incentivizingPeriod */\n  0x01\n    /* \"DiscoCats.sol\":1329:1421  incentivizingPeriod =... */\n  dup2\n  swap1\n  sstore\n  pop\n    /* \"DiscoCats.sol\":1496:1498  60 */\n  0x3c\n    /* \"DiscoCats.sol\":1480:1493  _votingPeriod */\n  dup2\n    /* \"DiscoCats.sol\":1480:1498  _votingPeriod * 60 */\n  tag_20\n  swap2\n  swap1\n  tag_17\n  jump\t// in\ntag_20:\n    /* \"DiscoCats.sol\":1457:1476  incentivizingPeriod */\n  sload(0x01)\n    /* \"DiscoCats.sol\":1457:1500  incentivizingPeriod + (_votingPeriod * 60 ) */\n  tag_21\n  swap2\n  swap1\n  tag_19\n  jump\t// in\ntag_21:\n    /* \"DiscoCats.sol\":1442:1454  votingPeriod */\n  0x02\n    /* \"DiscoCats.sol\":1442:1500  votingPeriod = incentivizingPeriod + (_votingPeriod * 60 ) */\n  dup2\n  swap1\n  sstore\n  pop\n    /* \"DiscoCats.sol\":1180:1518  constructor(... */\n  pop\n  pop\n  pop\n    /* \"DiscoCats.sol\":292:8006  contract DiscoCats is Ownable {... */\n  jump(tag_22)\n    /* \"@openzeppelin/contracts/access/Ownable.sol\":2912:3099  function _transferOwnership(address newOwner) internal virtual {... */\ntag_14:\n    /* \"@openzeppelin/contracts/access/Ownable.sol\":2985:3001  address oldOwner */\n  0x00\n    /* \"@openzeppelin/contracts/access/Ownable.sol\":3004:3010  _owner */\n  dup1\n  0x00\n  swap1\n  sload\n  swap1\n  0x0100\n  exp\n  swap1\n  div\n  0xffffffffffffffffffffffffffffffffffffffff\n  and\n    /* \"@openzeppelin/contracts/access/Ownable.sol\":2985:3010  address oldOwner = _owner */\n  swap1\n  pop\n    /* \"@openzeppelin/contracts/access/Ownable.sol\":3029:3037  newOwner */\n  dup2\n    /* \"@openzeppelin/contracts/access/Ownable.sol\":3020:3026  _owner */\n  0x00\n  dup1\n    /* \"@openzeppelin/contracts/access/Ownable.sol\":3020:3037  _owner = newOwner */\n  0x0100\n  exp\n  dup2\n  sload\n  dup2\n  0xffffffffffffffffffffffffffffffffffffffff\n  mul\n  not\n  and\n  swap1\n  dup4\n  0xffffffffffffffffffffffffffffffffffffffff\n  and\n  mul\n  or\n  swap1\n  sstore\n  pop\n    /* \"@openzeppelin/contracts/access/Ownable.sol\":3083:3091  newOwner */\n  dup2\n    /* \"@openzeppelin/contracts/access/Ownable.sol\":3052:3092  OwnershipTransferred(oldOwner, newOwner) */\n  0xffffffffffffffffffffffffffffffffffffffff\n  and\n    /* \"@openzeppelin/contracts/access/Ownable.sol\":3073:3081  oldOwner */\n  dup2\n    /* \"@openzeppelin/contracts/access/Ownable.sol\":3052:3092  OwnershipTransferred(oldOwner, newOwner) */\n  0xffffffffffffffffffffffffffffffffffffffff\n  and\n  0x8be0079c531659141344cd1fd0a4f28419497f9722a3daafe3b4186f6b6457e0\n  mload(0x40)\n  mload(0x40)\n  dup1\n  swap2\n  sub\n  swap1\n  log3\n    /* \"@openzeppelin/contracts/access/Ownable.sol\":2975:3099  {... */\n  pop\n    /* \"@openzeppelin/contracts/access/Ownable.sol\":2912:3099  function _transferOwnership(address newOwner) internal virtual {... */\n  pop\n  jump\t// out\n    /* \"#utility.yul\":7:187   */\ntag_3:\n    /* \"#utility.yul\":55:132   */\n  0x4e487b7100000000000000000000000000000000000000000000000000000000\n    /* \"#utility.yul\":52:53   */\n  0x00\n    /* \"#utility.yul\":45:133   */\n  mstore\n    /* \"#utility.yul\":152:156   */\n  0x21\n    /* \"#utility.yul\":149:150   */\n  0x04\n    /* \"#utility.yul\":142:157   */\n  mstore\n    /* \"#utility.yul\":176:180   */\n  0x24\n    /* \"#utility.yul\":173:174   */\n  0x00\n    /* \"#utility.yul\":166:181   */\n  revert\n    /* \"#utility.yul\":274:391   */\ntag_25:\n    /* \"#utility.yul\":383:384   */\n  0x00\n    /* \"#utility.yul\":380:381   */\n  dup1\n    /* \"#utility.yul\":373:385   */\n  revert\n    /* \"#utility.yul\":520:646   */\ntag_27:\n    /* \"#utility.yul\":557:564   */\n  0x00\n    /* \"#utility.yul\":597:639   */\n  0xffffffffffffffffffffffffffffffffffffffff\n    /* \"#utility.yul\":590:595   */\n  dup3\n    /* \"#utility.yul\":586:640   */\n  and\n    /* \"#utility.yul\":575:640   */\n  swap1\n  pop\n    /* \"#utility.yul\":520:646   */\n  swap2\n  swap1\n  pop\n  jump\t// out\n    /* \"#utility.yul\":652:748   */\ntag_28:\n    /* \"#utility.yul\":689:696   */\n  0x00\n    /* \"#utility.yul\":718:742   */\n  tag_43\n    /* \"#utility.yul\":736:741   */\n  dup3\n    /* \"#utility.yul\":718:742   */\n  tag_27\n  jump\t// in\ntag_43:\n    /* \"#utility.yul\":707:742   */\n  swap1\n  pop\n    /* \"#utility.yul\":652:748   */\n  swap2\n  swap1\n  pop\n  jump\t// out\n    /* \"#utility.yul\":754:876   */\ntag_29:\n    /* \"#utility.yul\":827:851   */\n  tag_45\n    /* \"#utility.yul\":845:850   */\n  dup2\n    /* \"#utility.yul\":827:851   */\n  tag_28\n  jump\t// in\ntag_45:\n    /* \"#utility.yul\":820:825   */\n  dup2\n    /* \"#utility.yul\":817:852   */\n  eq\n    /* \"#utility.yul\":807:870   */\n  tag_46\n  jumpi\n    /* \"#utility.yul\":866:867   */\n  0x00\n    /* \"#utility.yul\":863:864   */\n  dup1\n    /* \"#utility.yul\":856:868   */\n  revert\n    /* \"#utility.yul\":807:870   */\ntag_46:\n    /* \"#utility.yul\":754:876   */\n  pop\n  jump\t// out\n    /* \"#utility.yul\":882:1025   */\ntag_30:\n    /* \"#utility.yul\":939:944   */\n  0x00\n    /* \"#utility.yul\":970:976   */\n  dup2\n    /* \"#utility.yul\":964:977   */\n  mload\n    /* \"#utility.yul\":955:977   */\n  swap1\n  pop\n    /* \"#utility.yul\":986:1019   */\n  tag_48\n    /* \"#utility.yul\":1013:1018   */\n  dup2\n    /* \"#utility.yul\":986:1019   */\n  tag_29\n  jump\t// in\ntag_48:\n    /* \"#utility.yul\":882:1025   */\n  swap3\n  swap2\n  pop\n  pop\n  jump\t// out\n    /* \"#utility.yul\":1031:1108   */\ntag_31:\n    /* \"#utility.yul\":1068:1075   */\n  0x00\n    /* \"#utility.yul\":1097:1102   */\n  dup2\n    /* \"#utility.yul\":1086:1102   */\n  swap1\n  pop\n    /* \"#utility.yul\":1031:1108   */\n  swap2\n  swap1\n  pop\n  jump\t// out\n    /* \"#utility.yul\":1114:1236   */\ntag_32:\n    /* \"#utility.yul\":1187:1211   */\n  tag_51\n    /* \"#utility.yul\":1205:1210   */\n  dup2\n    /* \"#utility.yul\":1187:1211   */\n  tag_31\n  jump\t// in\ntag_51:\n    /* \"#utility.yul\":1180:1185   */\n  dup2\n    /* \"#utility.yul\":1177:1212   */\n  eq\n    /* \"#utility.yul\":1167:1230   */\n  tag_52\n  jumpi\n    /* \"#utility.yul\":1226:1227   */\n  0x00\n    /* \"#utility.yul\":1223:1224   */\n  dup1\n    /* \"#utility.yul\":1216:1228   */\n  revert\n    /* \"#utility.yul\":1167:1230   */\ntag_52:\n    /* \"#utility.yul\":1114:1236   */\n  pop\n  jump\t// out\n    /* \"#utility.yul\":1242:1385   */\ntag_33:\n    /* \"#utility.yul\":1299:1304   */\n  0x00\n    /* \"#utility.yul\":1330:1336   */\n  dup2\n    /* \"#utility.yul\":1324:1337   */\n  mload\n    /* \"#utility.yul\":1315:1337   */\n  swap1\n  pop\n    /* \"#utility.yul\":1346:1379   */\n  tag_54\n    /* \"#utility.yul\":1373:1378   */\n  dup2\n    /* \"#utility.yul\":1346:1379   */\n  tag_32\n  jump\t// in\ntag_54:\n    /* \"#utility.yul\":1242:1385   */\n  swap3\n  swap2\n  pop\n  pop\n  jump\t// out\n    /* \"#utility.yul\":1391:2054   */\ntag_6:\n    /* \"#utility.yul\":1479:1485   */\n  0x00\n    /* \"#utility.yul\":1487:1493   */\n  dup1\n    /* \"#utility.yul\":1495:1501   */\n  0x00\n    /* \"#utility.yul\":1544:1546   */\n  0x60\n    /* \"#utility.yul\":1532:1541   */\n  dup5\n    /* \"#utility.yul\":1523:1530   */\n  dup7\n    /* \"#utility.yul\":1519:1542   */\n  sub\n    /* \"#utility.yul\":1515:1547   */\n  slt\n    /* \"#utility.yul\":1512:1631   */\n  iszero\n  tag_56\n  jumpi\n    /* \"#utility.yul\":1550:1629   */\n  tag_57\n  tag_25\n  jump\t// in\ntag_57:\n    /* \"#utility.yul\":1512:1631   */\ntag_56:\n    /* \"#utility.yul\":1670:1671   */\n  0x00\n    /* \"#utility.yul\":1695:1759   */\n  tag_58\n    /* \"#utility.yul\":1751:1758   */\n  dup7\n    /* \"#utility.yul\":1742:1748   */\n  dup3\n    /* \"#utility.yul\":1731:1740   */\n  dup8\n    /* \"#utility.yul\":1727:1749   */\n  add\n    /* \"#utility.yul\":1695:1759   */\n  tag_30\n  jump\t// in\ntag_58:\n    /* \"#utility.yul\":1685:1759   */\n  swap4\n  pop\n    /* \"#utility.yul\":1641:1769   */\n  pop\n    /* \"#utility.yul\":1808:1810   */\n  0x20\n    /* \"#utility.yul\":1834:1898   */\n  tag_59\n    /* \"#utility.yul\":1890:1897   */\n  dup7\n    /* \"#utility.yul\":1881:1887   */\n  dup3\n    /* \"#utility.yul\":1870:1879   */\n  dup8\n    /* \"#utility.yul\":1866:1888   */\n  add\n    /* \"#utility.yul\":1834:1898   */\n  tag_33\n  jump\t// in\ntag_59:\n    /* \"#utility.yul\":1824:1898   */\n  swap3\n  pop\n    /* \"#utility.yul\":1779:1908   */\n  pop\n    /* \"#utility.yul\":1947:1949   */\n  0x40\n    /* \"#utility.yul\":1973:2037   */\n  tag_60\n    /* \"#utility.yul\":2029:2036   */\n  dup7\n    /* \"#utility.yul\":2020:2026   */\n  dup3\n    /* \"#utility.yul\":2009:2018   */\n  dup8\n    /* \"#utility.yul\":2005:2027   */\n  add\n    /* \"#utility.yul\":1973:2037   */\n  tag_33\n  jump\t// in\ntag_60:\n    /* \"#utility.yul\":1963:2037   */\n  swap2\n  pop\n    /* \"#utility.yul\":1918:2047   */\n  pop\n    /* \"#utility.yul\":1391:2054   */\n  swap3\n  pop\n  swap3\n  pop\n  swap3\n  jump\t// out\n    /* \"#utility.yul\":2060:2178   */\ntag_34:\n    /* \"#utility.yul\":2147:2171   */\n  tag_62\n    /* \"#utility.yul\":2165:2170   */\n  dup2\n    /* \"#utility.yul\":2147:2171   */\n  tag_28\n  jump\t// in\ntag_62:\n    /* \"#utility.yul\":2142:2145   */\n  dup3\n    /* \"#utility.yul\":2135:2172   */\n  mstore\n    /* \"#utility.yul\":2060:2178   */\n  pop\n  pop\n  jump\t// out\n    /* \"#utility.yul\":2184:2406   */\ntag_12:\n    /* \"#utility.yul\":2277:2281   */\n  0x00\n    /* \"#utility.yul\":2315:2317   */\n  0x20\n    /* \"#utility.yul\":2304:2313   */\n  dup3\n    /* \"#utility.yul\":2300:2318   */\n  add\n    /* \"#utility.yul\":2292:2318   */\n  swap1\n  pop\n    /* \"#utility.yul\":2328:2399   */\n  tag_64\n    /* \"#utility.yul\":2396:2397   */\n  0x00\n    /* \"#utility.yul\":2385:2394   */\n  dup4\n    /* \"#utility.yul\":2381:2398   */\n  add\n    /* \"#utility.yul\":2372:2378   */\n  dup5\n    /* \"#utility.yul\":2328:2399   */\n  tag_34\n  jump\t// in\ntag_64:\n    /* \"#utility.yul\":2184:2406   */\n  swap3\n  swap2\n  pop\n  pop\n  jump\t// out\n    /* \"#utility.yul\":2412:2592   */\ntag_35:\n    /* \"#utility.yul\":2460:2537   */\n  0x4e487b7100000000000000000000000000000000000000000000000000000000\n    /* \"#utility.yul\":2457:2458   */\n  0x00\n    /* \"#utility.yul\":2450:2538   */\n  mstore\n    /* \"#utility.yul\":2557:2561   */\n  0x11\n    /* \"#utility.yul\":2554:2555   */\n  0x04\n    /* \"#utility.yul\":2547:2562   */\n  mstore\n    /* \"#utility.yul\":2581:2585   */\n  0x24\n    /* \"#utility.yul\":2578:2579   */\n  0x00\n    /* \"#utility.yul\":2571:2586   */\n  revert\n    /* \"#utility.yul\":2598:3008   */\ntag_17:\n    /* \"#utility.yul\":2638:2645   */\n  0x00\n    /* \"#utility.yul\":2661:2681   */\n  tag_67\n    /* \"#utility.yul\":2679:2680   */\n  dup3\n    /* \"#utility.yul\":2661:2681   */\n  tag_31\n  jump\t// in\ntag_67:\n    /* \"#utility.yul\":2656:2681   */\n  swap2\n  pop\n    /* \"#utility.yul\":2695:2715   */\n  tag_68\n    /* \"#utility.yul\":2713:2714   */\n  dup4\n    /* \"#utility.yul\":2695:2715   */\n  tag_31\n  jump\t// in\ntag_68:\n    /* \"#utility.yul\":2690:2715   */\n  swap3\n  pop\n    /* \"#utility.yul\":2750:2751   */\n  dup3\n    /* \"#utility.yul\":2747:2748   */\n  dup3\n    /* \"#utility.yul\":2743:2752   */\n  mul\n    /* \"#utility.yul\":2772:2802   */\n  tag_69\n    /* \"#utility.yul\":2790:2801   */\n  dup2\n    /* \"#utility.yul\":2772:2802   */\n  tag_31\n  jump\t// in\ntag_69:\n    /* \"#utility.yul\":2761:2802   */\n  swap2\n  pop\n    /* \"#utility.yul\":2951:2952   */\n  dup3\n    /* \"#utility.yul\":2942:2949   */\n  dup3\n    /* \"#utility.yul\":2938:2953   */\n  div\n    /* \"#utility.yul\":2935:2936   */\n  dup5\n    /* \"#utility.yul\":2932:2954   */\n  eq\n    /* \"#utility.yul\":2912:2913   */\n  dup4\n    /* \"#utility.yul\":2905:2914   */\n  iszero\n    /* \"#utility.yul\":2885:2968   */\n  or\n    /* \"#utility.yul\":2862:3001   */\n  tag_70\n  jumpi\n    /* \"#utility.yul\":2981:2999   */\n  tag_71\n  tag_35\n  jump\t// in\ntag_71:\n    /* \"#utility.yul\":2862:3001   */\ntag_70:\n    /* \"#utility.yul\":2646:3008   */\n  pop\n    /* \"#utility.yul\":2598:3008   */\n  swap3\n  swap2\n  pop\n  pop\n  jump\t// out\n    /* \"#utility.yul\":3014:3205   */\ntag_19:\n    /* \"#utility.yul\":3054:3057   */\n  0x00\n    /* \"#utility.yul\":3073:3093   */\n  tag_73\n    /* \"#utility.yul\":3091:3092   */\n  dup3\n    /* \"#utility.yul\":3073:3093   */\n  tag_31\n  jump\t// in\ntag_73:\n    /* \"#utility.yul\":3068:3093   */\n  swap2\n  pop\n    /* \"#utility.yul\":3107:3127   */\n  tag_74\n    /* \"#utility.yul\":3125:3126   */\n  dup4\n    /* \"#utility.yul\":3107:3127   */\n  tag_31\n  jump\t// in\ntag_74:\n    /* \"#utility.yul\":3102:3127   */\n  swap3\n  pop\n    /* \"#utility.yul\":3150:3151   */\n  dup3\n    /* \"#utility.yul\":3147:3148   */\n  dup3\n    /* \"#utility.yul\":3143:3152   */\n  add\n    /* \"#utility.yul\":3136:3152   */\n  swap1\n  pop\n    /* \"#utility.yul\":3171:3174   */\n  dup1\n    /* \"#utility.yul\":3168:3169   */\n  dup3\n    /* \"#utility.yul\":3165:3175   */\n  gt\n    /* \"#utility.yul\":3162:3198   */\n  iszero\n  tag_75\n  jumpi\n    /* \"#utility.yul\":3178:3196   */\n  tag_76\n  tag_35\n  jump\t// in\ntag_76:\n    /* \"#utility.yul\":3162:3198   */\ntag_75:\n    /* \"#utility.yul\":3014:3205   */\n  swap3\n  swap2\n  pop\n  pop\n  jump\t// out\n    /* \"DiscoCats.sol\":292:8006  contract DiscoCats is Ownable {... */\ntag_22:\n  dataSize(sub_0)\n  dup1\n  dataOffset(sub_0)\n  0x00\n  codecopy\n  0x00\n  return\nstop\n\nsub_0: assembly {\n        /* \"DiscoCats.sol\":292:8006  contract DiscoCats is Ownable {... */\n      mstore(0x40, 0x80)\n      callvalue\n      dup1\n      iszero\n      tag_1\n      jumpi\n      0x00\n      dup1\n      revert\n    tag_1:\n      pop\n      jumpi(tag_2, lt(calldatasize, 0x04))\n      shr(0xe0, calldataload(0x00))\n      dup1\n      0x715018a6\n      gt\n      tag_27\n      jumpi\n      dup1\n      0xbfb906a7\n      gt\n      tag_28\n      jumpi\n      dup1\n      0xbfb906a7\n      eq\n      tag_21\n      jumpi\n      dup1\n      0xcb06545c\n      eq\n      tag_22\n      jumpi\n      dup1\n      0xd19ee357\n      eq\n      tag_23\n      jumpi\n      dup1\n      0xf2fde38b\n      eq\n      tag_24\n      jumpi\n      dup1\n      0xf4b1f501\n      eq\n      tag_25\n      jumpi\n      dup1\n      0xf84ddf0b\n      eq\n      tag_26\n      jumpi\n      jump(tag_2)\n    tag_28:\n      dup1\n      0x715018a6\n      eq\n      tag_15\n      jumpi\n      dup1\n      0x8da5cb5b\n      eq\n      tag_16\n      jumpi\n      dup1\n      0x99b1760a\n      eq\n      tag_17\n      jumpi\n      dup1\n      0xa3ec138d\n      eq\n      tag_18\n      jumpi\n      dup1\n      0xaae282e1\n      eq\n      tag_19\n      jumpi\n      dup1\n      0xb00741cb\n      eq\n      tag_20\n      jumpi\n      jump(tag_2)\n    tag_27:\n      dup1\n      0x33b2decc\n      gt\n      tag_29\n      jumpi\n      dup1\n      0x33b2decc\n      eq\n      tag_9\n      jumpi\n      dup1\n      0x36fbad26\n      eq\n      tag_10\n      jumpi\n      dup1\n      0x379607f5\n      eq\n      tag_11\n      jumpi\n      dup1\n      0x38200702\n      eq\n      tag_12\n      jumpi\n      dup1\n      0x3885aed3\n      eq\n      tag_13\n      jumpi\n      dup1\n      0x4e69d560\n      eq\n      tag_14\n      jumpi\n      jump(tag_2)\n    tag_29:\n      dup1\n      0x0121b93f\n      eq\n      tag_3\n      jumpi\n      dup1\n      0x02a251a3\n      eq\n      tag_4\n      jumpi\n      dup1\n      0x0b102d1a\n      eq\n      tag_5\n      jumpi\n      dup1\n      0x0d15fd77\n      eq\n      tag_6\n      jumpi\n      dup1\n      0x107046bd\n      eq\n      tag_7\n      jumpi\n      dup1\n      0x239ecf35\n      eq\n      tag_8\n      jumpi\n    tag_2:\n      0x00\n      dup1\n      revert\n        /* \"DiscoCats.sol\":2976:4102  function vote(uint256 _projectId) public {... */\n    tag_3:\n      tag_30\n      0x04\n      dup1\n      calldatasize\n      sub\n      dup2\n      add\n      swap1\n      tag_31\n      swap2\n      swap1\n      tag_32\n      jump\t// in\n    tag_31:\n      tag_33\n      jump\t// in\n    tag_30:\n      stop\n        /* \"DiscoCats.sol\":368:395  uint256 public votingPeriod */\n    tag_4:\n      tag_34\n      tag_35\n      jump\t// in\n    tag_34:\n      mload(0x40)\n      tag_36\n      swap2\n      swap1\n      tag_37\n      jump\t// in\n    tag_36:\n      mload(0x40)\n      dup1\n      swap2\n      sub\n      swap1\n      return\n        /* \"DiscoCats.sol\":5387:5499  function setNftAddress(address _nftAddress) external onlyOwner {... */\n    tag_5:\n      tag_38\n      0x04\n      dup1\n      calldatasize\n      sub\n      dup2\n      add\n      swap1\n      tag_39\n      swap2\n      swap1\n      tag_40\n      jump\t// in\n    tag_39:\n      tag_41\n      jump\t// in\n    tag_38:\n      stop\n        /* \"DiscoCats.sol\":947:976  uint256 public totalVotes = 0 */\n    tag_6:\n      tag_42\n      tag_43\n      jump\t// in\n    tag_42:\n      mload(0x40)\n      tag_44\n      swap2\n      swap1\n      tag_37\n      jump\t// in\n    tag_44:\n      mload(0x40)\n      dup1\n      swap2\n      sub\n      swap1\n      return\n        /* \"DiscoCats.sol\":1130:1173  mapping(uint256 => Project) public projects */\n    tag_7:\n      tag_45\n      0x04\n      dup1\n      calldatasize\n      sub\n      dup2\n      add\n      swap1\n      tag_46\n      swap2\n      swap1\n      tag_32\n      jump\t// in\n    tag_46:\n      tag_47\n      jump\t// in\n    tag_45:\n      mload(0x40)\n      tag_48\n      swap4\n      swap3\n      swap2\n      swap1\n      tag_49\n      jump\t// in\n    tag_48:\n      mload(0x40)\n      dup1\n      swap2\n      sub\n      swap1\n      return\n        /* \"DiscoCats.sol\":1524:2012  function initializeProject(string memory _name) public onlyOwner {... */\n    tag_8:\n      tag_50\n      0x04\n      dup1\n      calldatasize\n      sub\n      dup2\n      add\n      swap1\n      tag_51\n      swap2\n      swap1\n      tag_52\n      jump\t// in\n    tag_51:\n      tag_53\n      jump\t// in\n    tag_50:\n      stop\n        /* \"DiscoCats.sol\":2018:2970  function incentiviseProject(... */\n    tag_9:\n      tag_54\n      0x04\n      dup1\n      calldatasize\n      sub\n      dup2\n      add\n      swap1\n      tag_55\n      swap2\n      swap1\n      tag_56\n      jump\t// in\n    tag_55:\n      tag_57\n      jump\t// in\n    tag_54:\n      stop\n        /* \"DiscoCats.sol\":401:432  uint256 public projectCount = 0 */\n    tag_10:\n      tag_58\n      tag_59\n      jump\t// in\n    tag_58:\n      mload(0x40)\n      tag_60\n      swap2\n      swap1\n      tag_37\n      jump\t// in\n    tag_60:\n      mload(0x40)\n      dup1\n      swap2\n      sub\n      swap1\n      return\n        /* \"DiscoCats.sol\":5505:6382  function claim(uint256 _projectId) public {... */\n    tag_11:\n      tag_61\n      0x04\n      dup1\n      calldatasize\n      sub\n      dup2\n      add\n      swap1\n      tag_62\n      swap2\n      swap1\n      tag_32\n      jump\t// in\n    tag_62:\n      tag_63\n      jump\t// in\n    tag_61:\n      stop\n        /* \"DiscoCats.sol\":1019:1061  mapping(uint256 => bool) public tokenVoted */\n    tag_12:\n      tag_64\n      0x04\n      dup1\n      calldatasize\n      sub\n      dup2\n      add\n      swap1\n      tag_65\n      swap2\n      swap1\n      tag_32\n      jump\t// in\n    tag_65:\n      tag_66\n      jump\t// in\n    tag_64:\n      mload(0x40)\n      tag_67\n      swap2\n      swap1\n      tag_68\n      jump\t// in\n    tag_67:\n      mload(0x40)\n      dup1\n      swap2\n      sub\n      swap1\n      return\n        /* \"DiscoCats.sol\":328:362  uint256 public incentivizingPeriod */\n    tag_13:\n      tag_69\n      tag_70\n      jump\t// in\n    tag_69:\n      mload(0x40)\n      tag_71\n      swap2\n      swap1\n      tag_37\n      jump\t// in\n    tag_71:\n      mload(0x40)\n      dup1\n      swap2\n      sub\n      swap1\n      return\n        /* \"DiscoCats.sol\":4207:4552  function getStatus() external view returns (uint256 _status) {... */\n    tag_14:\n      tag_72\n      tag_73\n      jump\t// in\n    tag_72:\n      mload(0x40)\n      tag_74\n      swap2\n      swap1\n      tag_37\n      jump\t// in\n    tag_74:\n      mload(0x40)\n      dup1\n      swap2\n      sub\n      swap1\n      return\n        /* \"@openzeppelin/contracts/access/Ownable.sol\":2293:2394  function renounceOwnership() public virtual onlyOwner {... */\n    tag_15:\n      tag_75\n      tag_76\n      jump\t// in\n    tag_75:\n      stop\n        /* \"@openzeppelin/contracts/access/Ownable.sol\":1638:1723  function owner() public view virtual returns (address) {... */\n    tag_16:\n      tag_77\n      tag_78\n      jump\t// in\n    tag_77:\n      mload(0x40)\n      tag_79\n      swap2\n      swap1\n      tag_80\n      jump\t// in\n    tag_79:\n      mload(0x40)\n      dup1\n      swap2\n      sub\n      swap1\n      return\n        /* \"DiscoCats.sol\":4732:5210  function briberTokenInfo(uint256 _projectId,address _tokenAddress)... */\n    tag_17:\n      tag_81\n      0x04\n      dup1\n      calldatasize\n      sub\n      dup2\n      add\n      swap1\n      tag_82\n      swap2\n      swap1\n      tag_83\n      jump\t// in\n    tag_82:\n      tag_84\n      jump\t// in\n    tag_81:\n      mload(0x40)\n      tag_85\n      swap2\n      swap1\n      tag_37\n      jump\t// in\n    tag_85:\n      mload(0x40)\n      dup1\n      swap2\n      sub\n      swap1\n      return\n        /* \"DiscoCats.sol\":900:941  mapping(address => uint256) public voters */\n    tag_18:\n      tag_86\n      0x04\n      dup1\n      calldatasize\n      sub\n      dup2\n      add\n      swap1\n      tag_87\n      swap2\n      swap1\n      tag_40\n      jump\t// in\n    tag_87:\n      tag_88\n      jump\t// in\n    tag_86:\n      mload(0x40)\n      tag_89\n      swap2\n      swap1\n      tag_37\n      jump\t// in\n    tag_89:\n      mload(0x40)\n      dup1\n      swap2\n      sub\n      swap1\n      return\n        /* \"DiscoCats.sol\":438:471  address public nftContractAddress */\n    tag_19:\n      tag_90\n      tag_91\n      jump\t// in\n    tag_90:\n      mload(0x40)\n      tag_92\n      swap2\n      swap1\n      tag_80\n      jump\t// in\n    tag_92:\n      mload(0x40)\n      dup1\n      swap2\n      sub\n      swap1\n      return\n        /* \"DiscoCats.sol\":7154:7684  function changeState(uint256 _stateNumber) public onlyOwner {... */\n    tag_20:\n      tag_93\n      0x04\n      dup1\n      calldatasize\n      sub\n      dup2\n      add\n      swap1\n      tag_94\n      swap2\n      swap1\n      tag_32\n      jump\t// in\n    tag_94:\n      tag_95\n      jump\t// in\n    tag_93:\n      stop\n        /* \"DiscoCats.sol\":4558:4727  function briberInfo(uint256 _projectId)... */\n    tag_21:\n      tag_96\n      0x04\n      dup1\n      calldatasize\n      sub\n      dup2\n      add\n      swap1\n      tag_97\n      swap2\n      swap1\n      tag_32\n      jump\t// in\n    tag_97:\n      tag_98\n      jump\t// in\n    tag_96:\n      mload(0x40)\n      tag_99\n      swap2\n      swap1\n      tag_100\n      jump\t// in\n    tag_99:\n      mload(0x40)\n      dup1\n      swap2\n      sub\n      swap1\n      return\n        /* \"DiscoCats.sol\":4108:4201  function changelastTokenId(uint256 _id) external onlyOwner {... */\n    tag_22:\n      tag_101\n      0x04\n      dup1\n      calldatasize\n      sub\n      dup2\n      add\n      swap1\n      tag_102\n      swap2\n      swap1\n      tag_32\n      jump\t// in\n    tag_102:\n      tag_103\n      jump\t// in\n    tag_101:\n      stop\n        /* \"DiscoCats.sol\":6388:7148  function withdrawWinnerProject(address _receiver) public onlyOwner {... */\n    tag_23:\n      tag_104\n      0x04\n      dup1\n      calldatasize\n      sub\n      dup2\n      add\n      swap1\n      tag_105\n      swap2\n      swap1\n      tag_40\n      jump\t// in\n    tag_105:\n      tag_106\n      jump\t// in\n    tag_104:\n      stop\n        /* \"@openzeppelin/contracts/access/Ownable.sol\":2543:2758  function transferOwnership(address newOwner) public virtual onlyOwner {... */\n    tag_24:\n      tag_107\n      0x04\n      dup1\n      calldatasize\n      sub\n      dup2\n      add\n      swap1\n      tag_108\n      swap2\n      swap1\n      tag_40\n      jump\t// in\n    tag_108:\n      tag_109\n      jump\t// in\n    tag_107:\n      stop\n        /* \"DiscoCats.sol\":7690:8004  function getWinnerProjectId() public view returns (uint256 _id) {... */\n    tag_25:\n      tag_110\n      tag_111\n      jump\t// in\n    tag_110:\n      mload(0x40)\n      tag_112\n      swap2\n      swap1\n      tag_37\n      jump\t// in\n    tag_112:\n      mload(0x40)\n      dup1\n      swap2\n      sub\n      swap1\n      return\n        /* \"DiscoCats.sol\":982:1013  uint256 public lastTokenId = 10 */\n    tag_26:\n      tag_113\n      tag_114\n      jump\t// in\n    tag_113:\n      mload(0x40)\n      tag_115\n      swap2\n      swap1\n      tag_37\n      jump\t// in\n    tag_115:\n      mload(0x40)\n      dup1\n      swap2\n      sub\n      swap1\n      return\n        /* \"DiscoCats.sol\":2976:4102  function vote(uint256 _projectId) public {... */\n    tag_33:\n        /* \"DiscoCats.sol\":3134:3153  incentivizingPeriod */\n      sload(0x01)\n        /* \"DiscoCats.sol\":3115:3130  block.timestamp */\n      timestamp\n        /* \"DiscoCats.sol\":3115:3153  block.timestamp >= incentivizingPeriod */\n      lt\n      iszero\n        /* \"DiscoCats.sol\":3115:3204  block.timestamp >= incentivizingPeriod &&... */\n      dup1\n      iszero\n      tag_117\n      jumpi\n      pop\n        /* \"DiscoCats.sol\":3192:3204  votingPeriod */\n      sload(0x02)\n        /* \"DiscoCats.sol\":3173:3188  block.timestamp */\n      timestamp\n        /* \"DiscoCats.sol\":3173:3204  block.timestamp <= votingPeriod */\n      gt\n      iszero\n        /* \"DiscoCats.sol\":3115:3204  block.timestamp >= incentivizingPeriod &&... */\n    tag_117:\n        /* \"DiscoCats.sol\":3094:3244  require(... */\n      tag_118\n      jumpi\n      mload(0x40)\n      0x08c379a000000000000000000000000000000000000000000000000000000000\n      dup2\n      mstore\n      0x04\n      add\n      tag_119\n      swap1\n      tag_120\n      jump\t// in\n    tag_119:\n      mload(0x40)\n      dup1\n      swap2\n      sub\n      swap1\n      revert\n    tag_118:\n        /* \"DiscoCats.sol\":3279:3289  _projectId */\n      dup1\n        /* \"DiscoCats.sol\":3263:3275  projectCount */\n      sload(0x03)\n        /* \"DiscoCats.sol\":3263:3289  projectCount >= _projectId */\n      lt\n      iszero\n        /* \"DiscoCats.sol\":3255:3310  require(projectCount >= _projectId, \"aout of order no\") */\n      tag_121\n      jumpi\n      mload(0x40)\n      0x08c379a000000000000000000000000000000000000000000000000000000000\n      dup2\n      mstore\n      0x04\n      add\n      tag_122\n      swap1\n      tag_123\n      jump\t// in\n    tag_122:\n      mload(0x40)\n      dup1\n      swap2\n      sub\n      swap1\n      revert\n    tag_121:\n        /* \"DiscoCats.sol\":3393:3394  0 */\n      0x00\n        /* \"DiscoCats.sol\":3349:3367  nftContractAddress */\n      0x04\n      0x00\n      swap1\n      sload\n      swap1\n      0x0100\n      exp\n      swap1\n      div\n      0xffffffffffffffffffffffffffffffffffffffff\n      and\n        /* \"DiscoCats.sol\":3341:3378  IERC721(nftContractAddress).balanceOf */\n      0xffffffffffffffffffffffffffffffffffffffff\n      and\n      0x70a08231\n        /* \"DiscoCats.sol\":3379:3389  msg.sender */\n      caller\n        /* \"DiscoCats.sol\":3341:3390  IERC721(nftContractAddress).balanceOf(msg.sender) */\n      mload(0x40)\n      dup3\n      0xffffffff\n      and\n      0xe0\n      shl\n      dup2\n      mstore\n      0x04\n      add\n      tag_124\n      swap2\n      swap1\n      tag_80\n      jump\t// in\n    tag_124:\n      0x20\n      mload(0x40)\n      dup1\n      dup4\n      sub\n      dup2\n      dup7\n      gas\n      staticcall\n      iszero\n      dup1\n      iszero\n      tag_126\n      jumpi\n      returndatasize\n      0x00\n      dup1\n      returndatacopy\n      revert(0x00, returndatasize)\n    tag_126:\n      pop\n      pop\n      pop\n      pop\n      mload(0x40)\n      returndatasize\n      not(0x1f)\n      0x1f\n      dup3\n      add\n      and\n      dup3\n      add\n      dup1\n      0x40\n      mstore\n      pop\n      dup2\n      add\n      swap1\n      tag_127\n      swap2\n      swap1\n      tag_128\n      jump\t// in\n    tag_127:\n        /* \"DiscoCats.sol\":3341:3394  IERC721(nftContractAddress).balanceOf(msg.sender) > 0 */\n      gt\n        /* \"DiscoCats.sol\":3320:3436  require(... */\n      tag_129\n      jumpi\n      mload(0x40)\n      0x08c379a000000000000000000000000000000000000000000000000000000000\n      dup2\n      mstore\n      0x04\n      add\n      tag_130\n      swap1\n      tag_131\n      jump\t// in\n    tag_130:\n      mload(0x40)\n      dup1\n      swap2\n      sub\n      swap1\n      revert\n    tag_129:\n        /* \"DiscoCats.sol\":3447:3473  Project storage newProject */\n      0x00\n        /* \"DiscoCats.sol\":3476:3484  projects */\n      0x09\n        /* \"DiscoCats.sol\":3476:3496  projects[_projectId] */\n      0x00\n        /* \"DiscoCats.sol\":3485:3495  _projectId */\n      dup4\n        /* \"DiscoCats.sol\":3476:3496  projects[_projectId] */\n      dup2\n      mstore\n      0x20\n      add\n      swap1\n      dup2\n      mstore\n      0x20\n      add\n      0x00\n      keccak256\n        /* \"DiscoCats.sol\":3447:3496  Project storage newProject = projects[_projectId] */\n      swap1\n      pop\n        /* \"DiscoCats.sol\":3572:3590  nftContractAddress */\n      0x04\n      0x00\n      swap1\n      sload\n      swap1\n      0x0100\n      exp\n      swap1\n      div\n      0xffffffffffffffffffffffffffffffffffffffff\n      and\n        /* \"DiscoCats.sol\":3564:3601  IERC721(nftContractAddress).balanceOf */\n      0xffffffffffffffffffffffffffffffffffffffff\n      and\n      0x70a08231\n        /* \"DiscoCats.sol\":3602:3612  msg.sender */\n      caller\n        /* \"DiscoCats.sol\":3564:3613  IERC721(nftContractAddress).balanceOf(msg.sender) */\n      mload(0x40)\n      dup3\n      0xffffffff\n      and\n      0xe0\n      shl\n      dup2\n      mstore\n      0x04\n      add\n      tag_132\n      swap2\n      swap1\n      tag_80\n      jump\t// in\n    tag_132:\n      0x20\n      mload(0x40)\n      dup1\n      dup4\n      sub\n      dup2\n      dup7\n      gas\n      staticcall\n      iszero\n      dup1\n      iszero\n      tag_134\n      jumpi\n      returndatasize\n      0x00\n      dup1\n      returndatacopy\n      revert(0x00, returndatasize)\n    tag_134:\n      pop\n      pop\n      pop\n      pop\n      mload(0x40)\n      returndatasize\n      not(0x1f)\n      0x1f\n      dup3\n      add\n      and\n      dup3\n      add\n      dup1\n      0x40\n      mstore\n      pop\n      dup2\n      add\n      swap1\n      tag_135\n      swap2\n      swap1\n      tag_128\n      jump\t// in\n    tag_135:\n        /* \"DiscoCats.sol\":3527:3533  voters */\n      0x05\n        /* \"DiscoCats.sol\":3527:3545  voters[msg.sender] */\n      0x00\n        /* \"DiscoCats.sol\":3534:3544  msg.sender */\n      caller\n        /* \"DiscoCats.sol\":3527:3545  voters[msg.sender] */\n      0xffffffffffffffffffffffffffffffffffffffff\n      and\n      0xffffffffffffffffffffffffffffffffffffffff\n      and\n      dup2\n      mstore\n      0x20\n      add\n      swap1\n      dup2\n      mstore\n      0x20\n      add\n      0x00\n      keccak256\n      sload\n        /* \"DiscoCats.sol\":3527:3613  voters[msg.sender] <... */\n      lt\n        /* \"DiscoCats.sol\":3506:3657  require(... */\n      tag_136\n      jumpi\n      mload(0x40)\n      0x08c379a000000000000000000000000000000000000000000000000000000000\n      dup2\n      mstore\n      0x04\n      add\n      tag_137\n      swap1\n      tag_138\n      jump\t// in\n    tag_137:\n      mload(0x40)\n      dup1\n      swap2\n      sub\n      swap1\n      revert\n    tag_136:\n        /* \"DiscoCats.sol\":3672:3681  uint256 i */\n      0x00\n        /* \"DiscoCats.sol\":3667:4096  for (uint256 i = 0; i <= lastTokenId; i++) {... */\n    tag_139:\n        /* \"DiscoCats.sol\":3692:3703  lastTokenId */\n      sload(0x07)\n        /* \"DiscoCats.sol\":3687:3688  i */\n      dup2\n        /* \"DiscoCats.sol\":3687:3703  i <= lastTokenId */\n      gt\n        /* \"DiscoCats.sol\":3667:4096  for (uint256 i = 0; i <= lastTokenId; i++) {... */\n      tag_140\n      jumpi\n        /* \"DiscoCats.sol\":3810:3820  msg.sender */\n      caller\n        /* \"DiscoCats.sol\":3768:3820  IERC721(nftContractAddress).ownerOf(i) == msg.sender */\n      0xffffffffffffffffffffffffffffffffffffffff\n      and\n        /* \"DiscoCats.sol\":3776:3794  nftContractAddress */\n      0x04\n      0x00\n      swap1\n      sload\n      swap1\n      0x0100\n      exp\n      swap1\n      div\n      0xffffffffffffffffffffffffffffffffffffffff\n      and\n        /* \"DiscoCats.sol\":3768:3803  IERC721(nftContractAddress).ownerOf */\n      0xffffffffffffffffffffffffffffffffffffffff\n      and\n      0x6352211e\n        /* \"DiscoCats.sol\":3804:3805  i */\n      dup4\n        /* \"DiscoCats.sol\":3768:3806  IERC721(nftContractAddress).ownerOf(i) */\n      mload(0x40)\n      dup3\n      0xffffffff\n      and\n      0xe0\n      shl\n      dup2\n      mstore\n      0x04\n      add\n      tag_142\n      swap2\n      swap1\n      tag_37\n      jump\t// in\n    tag_142:\n      0x20\n      mload(0x40)\n      dup1\n      dup4\n      sub\n      dup2\n      dup7\n      gas\n      staticcall\n      iszero\n      dup1\n      iszero\n      tag_144\n      jumpi\n      returndatasize\n      0x00\n      dup1\n      returndatacopy\n      revert(0x00, returndatasize)\n    tag_144:\n      pop\n      pop\n      pop\n      pop\n      mload(0x40)\n      returndatasize\n      not(0x1f)\n      0x1f\n      dup3\n      add\n      and\n      dup3\n      add\n      dup1\n      0x40\n      mstore\n      pop\n      dup2\n      add\n      swap1\n      tag_145\n      swap2\n      swap1\n      tag_146\n      jump\t// in\n    tag_145:\n        /* \"DiscoCats.sol\":3768:3820  IERC721(nftContractAddress).ownerOf(i) == msg.sender */\n      0xffffffffffffffffffffffffffffffffffffffff\n      and\n      sub\n        /* \"DiscoCats.sol\":3764:4086  if (IERC721(nftContractAddress).ownerOf(i) == msg.sender) {... */\n      tag_147\n      jumpi\n        /* \"DiscoCats.sol\":3861:3866  false */\n      0x00\n        /* \"DiscoCats.sol\":3844:3866  tokenVoted[i] == false */\n      iszero\n      iszero\n        /* \"DiscoCats.sol\":3844:3854  tokenVoted */\n      0x08\n        /* \"DiscoCats.sol\":3844:3857  tokenVoted[i] */\n      0x00\n        /* \"DiscoCats.sol\":3855:3856  i */\n      dup4\n        /* \"DiscoCats.sol\":3844:3857  tokenVoted[i] */\n      dup2\n      mstore\n      0x20\n      add\n      swap1\n      dup2\n      mstore\n      0x20\n      add\n      0x00\n      keccak256\n      0x00\n      swap1\n      sload\n      swap1\n      0x0100\n      exp\n      swap1\n      div\n      0xff\n      and\n        /* \"DiscoCats.sol\":3844:3866  tokenVoted[i] == false */\n      iszero\n      iszero\n      sub\n        /* \"DiscoCats.sol\":3840:4072  if (tokenVoted[i] == false) {... */\n      tag_148\n      jumpi\n        /* \"DiscoCats.sol\":3890:3896  voters */\n      0x05\n        /* \"DiscoCats.sol\":3890:3908  voters[msg.sender] */\n      0x00\n        /* \"DiscoCats.sol\":3897:3907  msg.sender */\n      caller\n        /* \"DiscoCats.sol\":3890:3908  voters[msg.sender] */\n      0xffffffffffffffffffffffffffffffffffffffff\n      and\n      0xffffffffffffffffffffffffffffffffffffffff\n      and\n      dup2\n      mstore\n      0x20\n      add\n      swap1\n      dup2\n      mstore\n      0x20\n      add\n      0x00\n      keccak256\n      0x00\n        /* \"DiscoCats.sol\":3890:3910  voters[msg.sender]++ */\n      dup2\n      sload\n      dup1\n      swap3\n      swap2\n      swap1\n      tag_149\n      swap1\n      tag_150\n      jump\t// in\n    tag_149:\n      swap2\n      swap1\n      pop\n      sstore\n      pop\n        /* \"DiscoCats.sol\":3932:3942  newProject */\n      dup2\n        /* \"DiscoCats.sol\":3932:3948  newProject.votes */\n      0x03\n      add\n      0x00\n        /* \"DiscoCats.sol\":3932:3950  newProject.votes++ */\n      dup2\n      sload\n      dup1\n      swap3\n      swap2\n      swap1\n      tag_151\n      swap1\n      tag_150\n      jump\t// in\n    tag_151:\n      swap2\n      swap1\n      pop\n      sstore\n      pop\n        /* \"DiscoCats.sol\":3972:3982  totalVotes */\n      0x06\n      0x00\n        /* \"DiscoCats.sol\":3972:3984  totalVotes++ */\n      dup2\n      sload\n      dup1\n      swap3\n      swap2\n      swap1\n      tag_152\n      swap1\n      tag_150\n      jump\t// in\n    tag_152:\n      swap2\n      swap1\n      pop\n      sstore\n      pop\n        /* \"DiscoCats.sol\":4022:4026  true */\n      0x01\n        /* \"DiscoCats.sol\":4006:4016  tokenVoted */\n      0x08\n        /* \"DiscoCats.sol\":4006:4019  tokenVoted[i] */\n      0x00\n        /* \"DiscoCats.sol\":4017:4018  i */\n      dup4\n        /* \"DiscoCats.sol\":4006:4019  tokenVoted[i] */\n      dup2\n      mstore\n      0x20\n      add\n      swap1\n      dup2\n      mstore\n      0x20\n      add\n      0x00\n      keccak256\n      0x00\n        /* \"DiscoCats.sol\":4006:4026  tokenVoted[i] = true */\n      0x0100\n      exp\n      dup2\n      sload\n      dup2\n      0xff\n      mul\n      not\n      and\n      swap1\n      dup4\n      iszero\n      iszero\n      mul\n      or\n      swap1\n      sstore\n      pop\n        /* \"DiscoCats.sol\":4048:4053  break */\n      jump(tag_140)\n        /* \"DiscoCats.sol\":3840:4072  if (tokenVoted[i] == false) {... */\n    tag_148:\n        /* \"DiscoCats.sol\":3764:4086  if (IERC721(nftContractAddress).ownerOf(i) == msg.sender) {... */\n    tag_147:\n        /* \"DiscoCats.sol\":3705:3708  i++ */\n      dup1\n      dup1\n      tag_153\n      swap1\n      tag_150\n      jump\t// in\n    tag_153:\n      swap2\n      pop\n      pop\n        /* \"DiscoCats.sol\":3667:4096  for (uint256 i = 0; i <= lastTokenId; i++) {... */\n      jump(tag_139)\n    tag_140:\n      pop\n        /* \"DiscoCats.sol\":3017:4102  {... */\n      pop\n        /* \"DiscoCats.sol\":2976:4102  function vote(uint256 _projectId) public {... */\n      pop\n      jump\t// out\n        /* \"DiscoCats.sol\":368:395  uint256 public votingPeriod */\n    tag_35:\n      sload(0x02)\n      dup2\n      jump\t// out\n        /* \"DiscoCats.sol\":5387:5499  function setNftAddress(address _nftAddress) external onlyOwner {... */\n    tag_41:\n        /* \"@openzeppelin/contracts/access/Ownable.sol\":1531:1544  _checkOwner() */\n      tag_155\n        /* \"@openzeppelin/contracts/access/Ownable.sol\":1531:1542  _checkOwner */\n      tag_156\n        /* \"@openzeppelin/contracts/access/Ownable.sol\":1531:1544  _checkOwner() */\n      jump\t// in\n    tag_155:\n        /* \"DiscoCats.sol\":5481:5492  _nftAddress */\n      dup1\n        /* \"DiscoCats.sol\":5460:5478  nftContractAddress */\n      0x04\n      0x00\n        /* \"DiscoCats.sol\":5460:5492  nftContractAddress = _nftAddress */\n      0x0100\n      exp\n      dup2\n      sload\n      dup2\n      0xffffffffffffffffffffffffffffffffffffffff\n      mul\n      not\n      and\n      swap1\n      dup4\n      0xffffffffffffffffffffffffffffffffffffffff\n      and\n      mul\n      or\n      swap1\n      sstore\n      pop\n        /* \"DiscoCats.sol\":5387:5499  function setNftAddress(address _nftAddress) external onlyOwner {... */\n      pop\n      jump\t// out\n        /* \"DiscoCats.sol\":947:976  uint256 public totalVotes = 0 */\n    tag_43:\n      sload(0x06)\n      dup2\n      jump\t// out\n        /* \"DiscoCats.sol\":1130:1173  mapping(uint256 => Project) public projects */\n    tag_47:\n      mstore(0x20, 0x09)\n      dup1\n      0x00\n      mstore\n      keccak256(0x00, 0x40)\n      0x00\n      swap2\n      pop\n      swap1\n      pop\n      dup1\n      0x00\n      add\n      dup1\n      sload\n      tag_158\n      swap1\n      tag_159\n      jump\t// in\n    tag_158:\n      dup1\n      0x1f\n      add\n      0x20\n      dup1\n      swap2\n      div\n      mul\n      0x20\n      add\n      mload(0x40)\n      swap1\n      dup2\n      add\n      0x40\n      mstore\n      dup1\n      swap3\n      swap2\n      swap1\n      dup2\n      dup2\n      mstore\n      0x20\n      add\n      dup3\n      dup1\n      sload\n      tag_160\n      swap1\n      tag_159\n      jump\t// in\n    tag_160:\n      dup1\n      iszero\n      tag_161\n      jumpi\n      dup1\n      0x1f\n      lt\n      tag_162\n      jumpi\n      0x0100\n      dup1\n      dup4\n      sload\n      div\n      mul\n      dup4\n      mstore\n      swap2\n      0x20\n      add\n      swap2\n      jump(tag_161)\n    tag_162:\n      dup3\n      add\n      swap2\n      swap1\n      0x00\n      mstore\n      keccak256(0x00, 0x20)\n      swap1\n    tag_163:\n      dup2\n      sload\n      dup2\n      mstore\n      swap1\n      0x01\n      add\n      swap1\n      0x20\n      add\n      dup1\n      dup4\n      gt\n      tag_163\n      jumpi\n      dup3\n      swap1\n      sub\n      0x1f\n      and\n      dup3\n      add\n      swap2\n    tag_161:\n      pop\n      pop\n      pop\n      pop\n      pop\n      swap1\n      dup1\n      0x01\n      add\n      0x00\n      swap1\n      sload\n      swap1\n      0x0100\n      exp\n      swap1\n      div\n      0xffffffffffffffffffffffffffffffffffffffff\n      and\n      swap1\n      dup1\n      0x03\n      add\n      sload\n      swap1\n      pop\n      dup4\n      jump\t// out\n        /* \"DiscoCats.sol\":1524:2012  function initializeProject(string memory _name) public onlyOwner {... */\n    tag_53:\n        /* \"@openzeppelin/contracts/access/Ownable.sol\":1531:1544  _checkOwner() */\n      tag_165\n        /* \"@openzeppelin/contracts/access/Ownable.sol\":1531:1542  _checkOwner */\n      tag_156\n        /* \"@openzeppelin/contracts/access/Ownable.sol\":1531:1544  _checkOwner() */\n      jump\t// in\n    tag_165:\n        /* \"DiscoCats.sol\":1740:1759  incentivizingPeriod */\n      sload(0x01)\n        /* \"DiscoCats.sol\":1721:1736  block.timestamp */\n      timestamp\n        /* \"DiscoCats.sol\":1721:1759  block.timestamp <= incentivizingPeriod */\n      gt\n      iszero\n        /* \"DiscoCats.sol\":1713:1778  require(block.timestamp <= incentivizingPeriod, \"cant do it now\") */\n      tag_167\n      jumpi\n      mload(0x40)\n      0x08c379a000000000000000000000000000000000000000000000000000000000\n      dup2\n      mstore\n      0x04\n      add\n      tag_168\n      swap1\n      tag_120\n      jump\t// in\n    tag_168:\n      mload(0x40)\n      dup1\n      swap2\n      sub\n      swap1\n      revert\n    tag_167:\n        /* \"DiscoCats.sol\":1788:1800  projectCount */\n      0x03\n      0x00\n        /* \"DiscoCats.sol\":1788:1802  projectCount++ */\n      dup2\n      sload\n      dup1\n      swap3\n      swap2\n      swap1\n      tag_169\n      swap1\n      tag_150\n      jump\t// in\n    tag_169:\n      swap2\n      swap1\n      pop\n      sstore\n      pop\n        /* \"DiscoCats.sol\":1845:1871  Project storage newProject */\n      0x00\n        /* \"DiscoCats.sol\":1874:1882  projects */\n      0x09\n        /* \"DiscoCats.sol\":1874:1896  projects[projectCount] */\n      0x00\n        /* \"DiscoCats.sol\":1883:1895  projectCount */\n      sload(0x03)\n        /* \"DiscoCats.sol\":1874:1896  projects[projectCount] */\n      dup2\n      mstore\n      0x20\n      add\n      swap1\n      dup2\n      mstore\n      0x20\n      add\n      0x00\n      keccak256\n        /* \"DiscoCats.sol\":1845:1896  Project storage newProject = projects[projectCount] */\n      swap1\n      pop\n        /* \"DiscoCats.sol\":1924:1929  _name */\n      dup2\n        /* \"DiscoCats.sol\":1906:1916  newProject */\n      dup2\n        /* \"DiscoCats.sol\":1906:1921  newProject.name */\n      0x00\n      add\n        /* \"DiscoCats.sol\":1906:1929  newProject.name = _name */\n      swap1\n      dup2\n      tag_170\n      swap2\n      swap1\n      tag_171\n      jump\t// in\n    tag_170:\n      pop\n        /* \"DiscoCats.sol\":1965:1975  msg.sender */\n      caller\n        /* \"DiscoCats.sol\":1939:1949  newProject */\n      dup2\n        /* \"DiscoCats.sol\":1939:1962  newProject.projectOwner */\n      0x01\n      add\n      0x00\n        /* \"DiscoCats.sol\":1939:1975  newProject.projectOwner = msg.sender */\n      0x0100\n      exp\n      dup2\n      sload\n      dup2\n      0xffffffffffffffffffffffffffffffffffffffff\n      mul\n      not\n      and\n      swap1\n      dup4\n      0xffffffffffffffffffffffffffffffffffffffff\n      and\n      mul\n      or\n      swap1\n      sstore\n      pop\n        /* \"DiscoCats.sol\":2004:2005  0 */\n      0x00\n        /* \"DiscoCats.sol\":1985:1995  newProject */\n      dup2\n        /* \"DiscoCats.sol\":1985:2001  newProject.votes */\n      0x03\n      add\n        /* \"DiscoCats.sol\":1985:2005  newProject.votes = 0 */\n      dup2\n      swap1\n      sstore\n      pop\n        /* \"DiscoCats.sol\":1589:2012  {... */\n      pop\n        /* \"DiscoCats.sol\":1524:2012  function initializeProject(string memory _name) public onlyOwner {... */\n      pop\n      jump\t// out\n        /* \"DiscoCats.sol\":2018:2970  function incentiviseProject(... */\n    tag_57:\n        /* \"DiscoCats.sol\":2251:2270  incentivizingPeriod */\n      sload(0x01)\n        /* \"DiscoCats.sol\":2232:2247  block.timestamp */\n      timestamp\n        /* \"DiscoCats.sol\":2232:2270  block.timestamp <= incentivizingPeriod */\n      gt\n      iszero\n        /* \"DiscoCats.sol\":2224:2289  require(block.timestamp <= incentivizingPeriod, \"cant do it now\") */\n      tag_173\n      jumpi\n      mload(0x40)\n      0x08c379a000000000000000000000000000000000000000000000000000000000\n      dup2\n      mstore\n      0x04\n      add\n      tag_174\n      swap1\n      tag_120\n      jump\t// in\n    tag_174:\n      mload(0x40)\n      dup1\n      swap2\n      sub\n      swap1\n      revert\n    tag_173:\n        /* \"DiscoCats.sol\":2323:2324  0 */\n      0x00\n        /* \"DiscoCats.sol\":2308:2320  _tokenAmount */\n      dup2\n        /* \"DiscoCats.sol\":2308:2324  _tokenAmount > 0 */\n      gt\n        /* \"DiscoCats.sol\":2300:2358  require(_tokenAmount > 0, \"Amount must be greater than 0\") */\n      tag_175\n      jumpi\n      mload(0x40)\n      0x08c379a000000000000000000000000000000000000000000000000000000000\n      dup2\n      mstore\n      0x04\n      add\n      tag_176\n      swap1\n      tag_177\n      jump\t// in\n    tag_176:\n      mload(0x40)\n      dup1\n      swap2\n      sub\n      swap1\n      revert\n    tag_175:\n        /* \"DiscoCats.sol\":2436:2448  _tokenAmount */\n      dup1\n        /* \"DiscoCats.sol\":2396:2409  _tokenAddress */\n      dup3\n        /* \"DiscoCats.sol\":2389:2420  IERC20(_tokenAddress).balanceOf */\n      0xffffffffffffffffffffffffffffffffffffffff\n      and\n      0x70a08231\n        /* \"DiscoCats.sol\":2421:2431  msg.sender */\n      caller\n        /* \"DiscoCats.sol\":2389:2432  IERC20(_tokenAddress).balanceOf(msg.sender) */\n      mload(0x40)\n      dup3\n      0xffffffff\n      and\n      0xe0\n      shl\n      dup2\n      mstore\n      0x04\n      add\n      tag_178\n      swap2\n      swap1\n      tag_80\n      jump\t// in\n    tag_178:\n      0x20\n      mload(0x40)\n      dup1\n      dup4\n      sub\n      dup2\n      dup7\n      gas\n      staticcall\n      iszero\n      dup1\n      iszero\n      tag_180\n      jumpi\n      returndatasize\n      0x00\n      dup1\n      returndatacopy\n      revert(0x00, returndatasize)\n    tag_180:\n      pop\n      pop\n      pop\n      pop\n      mload(0x40)\n      returndatasize\n      not(0x1f)\n      0x1f\n      dup3\n      add\n      and\n      dup3\n      add\n      dup1\n      0x40\n      mstore\n      pop\n      dup2\n      add\n      swap1\n      tag_181\n      swap2\n      swap1\n      tag_128\n      jump\t// in\n    tag_181:\n        /* \"DiscoCats.sol\":2389:2448  IERC20(_tokenAddress).balanceOf(msg.sender) >= _tokenAmount */\n      lt\n      iszero\n        /* \"DiscoCats.sol\":2368:2500  require(... */\n      tag_182\n      jumpi\n      mload(0x40)\n      0x08c379a000000000000000000000000000000000000000000000000000000000\n      dup2\n      mstore\n      0x04\n      add\n      tag_183\n      swap1\n      tag_184\n      jump\t// in\n    tag_183:\n      mload(0x40)\n      dup1\n      swap2\n      sub\n      swap1\n      revert\n    tag_182:\n        /* \"DiscoCats.sol\":2539:2552  _tokenAddress */\n      dup2\n        /* \"DiscoCats.sol\":2532:2566  IERC20(_tokenAddress).transferFrom */\n      0xffffffffffffffffffffffffffffffffffffffff\n      and\n      0x23b872dd\n        /* \"DiscoCats.sol\":2584:2594  msg.sender */\n      caller\n        /* \"DiscoCats.sol\":2620:2624  this */\n      address\n        /* \"DiscoCats.sol\":2643:2655  _tokenAmount */\n      dup5\n        /* \"DiscoCats.sol\":2532:2669  IERC20(_tokenAddress).transferFrom(... */\n      mload(0x40)\n      dup5\n      0xffffffff\n      and\n      0xe0\n      shl\n      dup2\n      mstore\n      0x04\n      add\n      tag_185\n      swap4\n      swap3\n      swap2\n      swap1\n      tag_186\n      jump\t// in\n    tag_185:\n      0x20\n      mload(0x40)\n      dup1\n      dup4\n      sub\n      dup2\n      0x00\n      dup8\n      gas\n      call\n      iszero\n      dup1\n      iszero\n      tag_188\n      jumpi\n      returndatasize\n      0x00\n      dup1\n      returndatacopy\n      revert(0x00, returndatasize)\n    tag_188:\n      pop\n      pop\n      pop\n      pop\n      mload(0x40)\n      returndatasize\n      not(0x1f)\n      0x1f\n      dup3\n      add\n      and\n      dup3\n      add\n      dup1\n      0x40\n      mstore\n      pop\n      dup2\n      add\n      swap1\n      tag_189\n      swap2\n      swap1\n      tag_190\n      jump\t// in\n    tag_189:\n        /* \"DiscoCats.sol\":2511:2713  require(... */\n      tag_191\n      jumpi\n      mload(0x40)\n      0x08c379a000000000000000000000000000000000000000000000000000000000\n      dup2\n      mstore\n      0x04\n      add\n      tag_192\n      swap1\n      tag_193\n      jump\t// in\n    tag_192:\n      mload(0x40)\n      dup1\n      swap2\n      sub\n      swap1\n      revert\n    tag_191:\n        /* \"DiscoCats.sol\":2723:2749  Project storage newProject */\n      0x00\n        /* \"DiscoCats.sol\":2752:2760  projects */\n      0x09\n        /* \"DiscoCats.sol\":2752:2764  projects[id] */\n      0x00\n        /* \"DiscoCats.sol\":2761:2763  id */\n      dup6\n        /* \"DiscoCats.sol\":2752:2764  projects[id] */\n      dup2\n      mstore\n      0x20\n      add\n      swap1\n      dup2\n      mstore\n      0x20\n      add\n      0x00\n      keccak256\n        /* \"DiscoCats.sol\":2723:2764  Project storage newProject = projects[id] */\n      swap1\n      pop\n        /* \"DiscoCats.sol\":2774:2792  Briber memory temp */\n      tag_194\n      tag_195\n      jump\t// in\n    tag_194:\n        /* \"DiscoCats.sol\":2823:2833  msg.sender */\n      caller\n        /* \"DiscoCats.sol\":2802:2806  temp */\n      dup2\n        /* \"DiscoCats.sol\":2802:2820  temp.briberAddress */\n      0x00\n      add\n        /* \"DiscoCats.sol\":2802:2833  temp.briberAddress = msg.sender */\n      swap1\n      0xffffffffffffffffffffffffffffffffffffffff\n      and\n      swap1\n      dup2\n      0xffffffffffffffffffffffffffffffffffffffff\n      and\n      dup2\n      mstore\n      pop\n      pop\n        /* \"DiscoCats.sol\":2863:2876  _tokenAddress */\n      dup4\n        /* \"DiscoCats.sol\":2843:2847  temp */\n      dup2\n        /* \"DiscoCats.sol\":2843:2860  temp.tokenAddress */\n      0x20\n      add\n        /* \"DiscoCats.sol\":2843:2876  temp.tokenAddress = _tokenAddress */\n      swap1\n      0xffffffffffffffffffffffffffffffffffffffff\n      and\n      swap1\n      dup2\n      0xffffffffffffffffffffffffffffffffffffffff\n      and\n      dup2\n      mstore\n      pop\n      pop\n        /* \"DiscoCats.sol\":2903:2915  _tokenAmount */\n      dup3\n        /* \"DiscoCats.sol\":2886:2890  temp */\n      dup2\n        /* \"DiscoCats.sol\":2886:2900  temp.tokenAmnt */\n      0x40\n      add\n        /* \"DiscoCats.sol\":2886:2915  temp.tokenAmnt = _tokenAmount */\n      dup2\n      dup2\n      mstore\n      pop\n      pop\n        /* \"DiscoCats.sol\":2925:2935  newProject */\n      dup2\n        /* \"DiscoCats.sol\":2925:2943  newProject.bribers */\n      0x02\n      add\n        /* \"DiscoCats.sol\":2949:2953  temp */\n      dup2\n        /* \"DiscoCats.sol\":2925:2954  newProject.bribers.push(temp) */\n      swap1\n      dup1\n      0x01\n      dup2\n      sload\n      add\n      dup1\n      dup3\n      sstore\n      dup1\n      swap2\n      pop\n      pop\n      0x01\n      swap1\n      sub\n      swap1\n      0x00\n      mstore\n      keccak256(0x00, 0x20)\n      swap1\n      0x03\n      mul\n      add\n      0x00\n      swap1\n      swap2\n      swap1\n      swap2\n      swap1\n      swap2\n      pop\n      0x00\n      dup3\n      add\n      mload\n      dup2\n      0x00\n      add\n      exp(0x0100, 0x00)\n      dup2\n      sload\n      dup2\n      0xffffffffffffffffffffffffffffffffffffffff\n      mul\n      not\n      and\n      swap1\n      dup4\n      0xffffffffffffffffffffffffffffffffffffffff\n      and\n      mul\n      or\n      swap1\n      sstore\n      pop\n      0x20\n      dup3\n      add\n      mload\n      dup2\n      0x01\n      add\n      exp(0x0100, 0x00)\n      dup2\n      sload\n      dup2\n      0xffffffffffffffffffffffffffffffffffffffff\n      mul\n      not\n      and\n      swap1\n      dup4\n      0xffffffffffffffffffffffffffffffffffffffff\n      and\n      mul\n      or\n      swap1\n      sstore\n      pop\n      0x40\n      dup3\n      add\n      mload\n      dup2\n      0x02\n      add\n      sstore\n      pop\n      pop\n        /* \"DiscoCats.sol\":2140:2970  {... */\n      pop\n      pop\n        /* \"DiscoCats.sol\":2018:2970  function incentiviseProject(... */\n      pop\n      pop\n      pop\n      jump\t// out\n        /* \"DiscoCats.sol\":401:432  uint256 public projectCount = 0 */\n    tag_59:\n      sload(0x03)\n      dup2\n      jump\t// out\n        /* \"DiscoCats.sol\":5505:6382  function claim(uint256 _projectId) public {... */\n    tag_63:\n        /* \"DiscoCats.sol\":5653:5665  votingPeriod */\n      sload(0x02)\n        /* \"DiscoCats.sol\":5634:5649  block.timestamp */\n      timestamp\n        /* \"DiscoCats.sol\":5634:5665  block.timestamp >= votingPeriod */\n      lt\n      iszero\n        /* \"DiscoCats.sol\":5626:5684  require(block.timestamp >= votingPeriod, \"cant do it now\") */\n      tag_198\n      jumpi\n      mload(0x40)\n      0x08c379a000000000000000000000000000000000000000000000000000000000\n      dup2\n      mstore\n      0x04\n      add\n      tag_199\n      swap1\n      tag_120\n      jump\t// in\n    tag_199:\n      mload(0x40)\n      dup1\n      swap2\n      sub\n      swap1\n      revert\n    tag_198:\n        /* \"DiscoCats.sol\":5730:5750  getWinnerProjectId() */\n      tag_200\n        /* \"DiscoCats.sol\":5730:5748  getWinnerProjectId */\n      tag_111\n        /* \"DiscoCats.sol\":5730:5750  getWinnerProjectId() */\n      jump\t// in\n    tag_200:\n        /* \"DiscoCats.sol\":5716:5726  _projectId */\n      dup2\n        /* \"DiscoCats.sol\":5716:5750  _projectId != getWinnerProjectId() */\n      sub\n        /* \"DiscoCats.sol\":5695:5801  require(... */\n      tag_201\n      jumpi\n      mload(0x40)\n      0x08c379a000000000000000000000000000000000000000000000000000000000\n      dup2\n      mstore\n      0x04\n      add\n      tag_202\n      swap1\n      tag_203\n      jump\t// in\n    tag_202:\n      mload(0x40)\n      dup1\n      swap2\n      sub\n      swap1\n      revert\n    tag_201:\n        /* \"DiscoCats.sol\":5843:5869  Project storage newProject */\n      0x00\n        /* \"DiscoCats.sol\":5872:5880  projects */\n      0x09\n        /* \"DiscoCats.sol\":5872:5892  projects[_projectId] */\n      0x00\n        /* \"DiscoCats.sol\":5881:5891  _projectId */\n      dup4\n        /* \"DiscoCats.sol\":5872:5892  projects[_projectId] */\n      dup2\n      mstore\n      0x20\n      add\n      swap1\n      dup2\n      mstore\n      0x20\n      add\n      0x00\n      keccak256\n        /* \"DiscoCats.sol\":5843:5892  Project storage newProject = projects[_projectId] */\n      swap1\n      pop\n        /* \"DiscoCats.sol\":5907:5916  uint256 i */\n      0x00\n        /* \"DiscoCats.sol\":5902:6376  for (uint256 i = 0; i < newProject.bribers.length; i++) {... */\n    tag_204:\n        /* \"DiscoCats.sol\":5926:5936  newProject */\n      dup2\n        /* \"DiscoCats.sol\":5926:5944  newProject.bribers */\n      0x02\n      add\n        /* \"DiscoCats.sol\":5926:5951  newProject.bribers.length */\n      dup1\n      sload\n      swap1\n      pop\n        /* \"DiscoCats.sol\":5922:5923  i */\n      dup2\n        /* \"DiscoCats.sol\":5922:5951  i < newProject.bribers.length */\n      lt\n        /* \"DiscoCats.sol\":5902:6376  for (uint256 i = 0; i < newProject.bribers.length; i++) {... */\n      iszero\n      tag_205\n      jumpi\n        /* \"DiscoCats.sol\":6015:6025  msg.sender */\n      caller\n        /* \"DiscoCats.sol\":5976:6025  newProject.bribers[i].briberAddress == msg.sender */\n      0xffffffffffffffffffffffffffffffffffffffff\n      and\n        /* \"DiscoCats.sol\":5976:5986  newProject */\n      dup3\n        /* \"DiscoCats.sol\":5976:5994  newProject.bribers */\n      0x02\n      add\n        /* \"DiscoCats.sol\":5995:5996  i */\n      dup3\n        /* \"DiscoCats.sol\":5976:5997  newProject.bribers[i] */\n      dup2\n      sload\n      dup2\n      lt\n      tag_207\n      jumpi\n      tag_208\n      tag_209\n      jump\t// in\n    tag_208:\n    tag_207:\n      swap1\n      0x00\n      mstore\n      keccak256(0x00, 0x20)\n      swap1\n      0x03\n      mul\n      add\n        /* \"DiscoCats.sol\":5976:6011  newProject.bribers[i].briberAddress */\n      0x00\n      add\n      0x00\n      swap1\n      sload\n      swap1\n      0x0100\n      exp\n      swap1\n      div\n      0xffffffffffffffffffffffffffffffffffffffff\n      and\n        /* \"DiscoCats.sol\":5976:6025  newProject.bribers[i].briberAddress == msg.sender */\n      0xffffffffffffffffffffffffffffffffffffffff\n      and\n      sub\n        /* \"DiscoCats.sol\":5972:6366  if (newProject.bribers[i].briberAddress == msg.sender) {... */\n      tag_211\n      jumpi\n        /* \"DiscoCats.sol\":6081:6091  newProject */\n      dup2\n        /* \"DiscoCats.sol\":6081:6099  newProject.bribers */\n      0x02\n      add\n        /* \"DiscoCats.sol\":6100:6101  i */\n      dup2\n        /* \"DiscoCats.sol\":6081:6102  newProject.bribers[i] */\n      dup2\n      sload\n      dup2\n      lt\n      tag_212\n      jumpi\n      tag_213\n      tag_209\n      jump\t// in\n    tag_213:\n    tag_212:\n      swap1\n      0x00\n      mstore\n      keccak256(0x00, 0x20)\n      swap1\n      0x03\n      mul\n      add\n        /* \"DiscoCats.sol\":6081:6115  newProject.bribers[i].tokenAddress */\n      0x01\n      add\n      0x00\n      swap1\n      sload\n      swap1\n      0x0100\n      exp\n      swap1\n      div\n      0xffffffffffffffffffffffffffffffffffffffff\n      and\n        /* \"DiscoCats.sol\":6074:6125  IERC20(newProject.bribers[i].tokenAddress).transfer */\n      0xffffffffffffffffffffffffffffffffffffffff\n      and\n      0xa9059cbb\n        /* \"DiscoCats.sol\":6151:6161  msg.sender */\n      caller\n        /* \"DiscoCats.sol\":6187:6197  newProject */\n      dup5\n        /* \"DiscoCats.sol\":6187:6205  newProject.bribers */\n      0x02\n      add\n        /* \"DiscoCats.sol\":6206:6207  i */\n      dup5\n        /* \"DiscoCats.sol\":6187:6208  newProject.bribers[i] */\n      dup2\n      sload\n      dup2\n      lt\n      tag_215\n      jumpi\n      tag_216\n      tag_209\n      jump\t// in\n    tag_216:\n    tag_215:\n      swap1\n      0x00\n      mstore\n      keccak256(0x00, 0x20)\n      swap1\n      0x03\n      mul\n      add\n        /* \"DiscoCats.sol\":6187:6218  newProject.bribers[i].tokenAmnt */\n      0x02\n      add\n      sload\n        /* \"DiscoCats.sol\":6074:6240  IERC20(newProject.bribers[i].tokenAddress).transfer(... */\n      mload(0x40)\n      dup4\n      0xffffffff\n      and\n      0xe0\n      shl\n      dup2\n      mstore\n      0x04\n      add\n      tag_218\n      swap3\n      swap2\n      swap1\n      tag_219\n      jump\t// in\n    tag_218:\n      0x20\n      mload(0x40)\n      dup1\n      dup4\n      sub\n      dup2\n      0x00\n      dup8\n      gas\n      call\n      iszero\n      dup1\n      iszero\n      tag_221\n      jumpi\n      returndatasize\n      0x00\n      dup1\n      returndatacopy\n      revert(0x00, returndatasize)\n    tag_221:\n      pop\n      pop\n      pop\n      pop\n      mload(0x40)\n      returndatasize\n      not(0x1f)\n      0x1f\n      dup3\n      add\n      and\n      dup3\n      add\n      dup1\n      0x40\n      mstore\n      pop\n      dup2\n      add\n      swap1\n      tag_222\n      swap2\n      swap1\n      tag_190\n      jump\t// in\n    tag_222:\n        /* \"DiscoCats.sol\":6045:6300  require(... */\n      tag_223\n      jumpi\n      mload(0x40)\n      0x08c379a000000000000000000000000000000000000000000000000000000000\n      dup2\n      mstore\n      0x04\n      add\n      tag_224\n      swap1\n      tag_193\n      jump\t// in\n    tag_224:\n      mload(0x40)\n      dup1\n      swap2\n      sub\n      swap1\n      revert\n    tag_223:\n        /* \"DiscoCats.sol\":6350:6351  0 */\n      0x00\n        /* \"DiscoCats.sol\":6318:6328  newProject */\n      dup3\n        /* \"DiscoCats.sol\":6318:6336  newProject.bribers */\n      0x02\n      add\n        /* \"DiscoCats.sol\":6337:6338  i */\n      dup3\n        /* \"DiscoCats.sol\":6318:6339  newProject.bribers[i] */\n      dup2\n      sload\n      dup2\n      lt\n      tag_225\n      jumpi\n      tag_226\n      tag_209\n      jump\t// in\n    tag_226:\n    tag_225:\n      swap1\n      0x00\n      mstore\n      keccak256(0x00, 0x20)\n      swap1\n      0x03\n      mul\n      add\n        /* \"DiscoCats.sol\":6318:6349  newProject.bribers[i].tokenAmnt */\n      0x02\n      add\n        /* \"DiscoCats.sol\":6318:6351  newProject.bribers[i].tokenAmnt=0 */\n      dup2\n      swap1\n      sstore\n      pop\n        /* \"DiscoCats.sol\":5972:6366  if (newProject.bribers[i].briberAddress == msg.sender) {... */\n    tag_211:\n        /* \"DiscoCats.sol\":5953:5956  i++ */\n      dup1\n      dup1\n      0x01\n      add\n      swap2\n      pop\n      pop\n        /* \"DiscoCats.sol\":5902:6376  for (uint256 i = 0; i < newProject.bribers.length; i++) {... */\n      jump(tag_204)\n    tag_205:\n      pop\n        /* \"DiscoCats.sol\":5547:6382  {... */\n      pop\n        /* \"DiscoCats.sol\":5505:6382  function claim(uint256 _projectId) public {... */\n      pop\n      jump\t// out\n        /* \"DiscoCats.sol\":1019:1061  mapping(uint256 => bool) public tokenVoted */\n    tag_66:\n      mstore(0x20, 0x08)\n      dup1\n      0x00\n      mstore\n      keccak256(0x00, 0x40)\n      0x00\n      swap2\n      pop\n      sload\n      swap1\n      0x0100\n      exp\n      swap1\n      div\n      0xff\n      and\n      dup2\n      jump\t// out\n        /* \"DiscoCats.sol\":328:362  uint256 public incentivizingPeriod */\n    tag_70:\n      sload(0x01)\n      dup2\n      jump\t// out\n        /* \"DiscoCats.sol\":4207:4552  function getStatus() external view returns (uint256 _status) {... */\n    tag_73:\n        /* \"DiscoCats.sol\":4251:4266  uint256 _status */\n      0x00\n        /* \"DiscoCats.sol\":4301:4320  incentivizingPeriod */\n      sload(0x01)\n        /* \"DiscoCats.sol\":4282:4297  block.timestamp */\n      timestamp\n        /* \"DiscoCats.sol\":4282:4320  block.timestamp <= incentivizingPeriod */\n      gt\n        /* \"DiscoCats.sol\":4278:4546  if (block.timestamp <= incentivizingPeriod) {... */\n      tag_229\n      jumpi\n        /* \"DiscoCats.sol\":4343:4344  0 */\n      0x00\n        /* \"DiscoCats.sol\":4336:4344  return 0 */\n      swap1\n      pop\n      jump(tag_228)\n        /* \"DiscoCats.sol\":4278:4546  if (block.timestamp <= incentivizingPeriod) {... */\n    tag_229:\n        /* \"DiscoCats.sol\":4397:4416  incentivizingPeriod */\n      sload(0x01)\n        /* \"DiscoCats.sol\":4378:4393  block.timestamp */\n      timestamp\n        /* \"DiscoCats.sol\":4378:4416  block.timestamp >= incentivizingPeriod */\n      lt\n      iszero\n        /* \"DiscoCats.sol\":4378:4463  block.timestamp >= incentivizingPeriod &&... */\n      dup1\n      iszero\n      tag_231\n      jumpi\n      pop\n        /* \"DiscoCats.sol\":4451:4463  votingPeriod */\n      sload(0x02)\n        /* \"DiscoCats.sol\":4432:4447  block.timestamp */\n      timestamp\n        /* \"DiscoCats.sol\":4432:4463  block.timestamp <= votingPeriod */\n      gt\n      iszero\n        /* \"DiscoCats.sol\":4378:4463  block.timestamp >= incentivizingPeriod &&... */\n    tag_231:\n        /* \"DiscoCats.sol\":4361:4546  if (... */\n      iszero\n      tag_232\n      jumpi\n        /* \"DiscoCats.sol\":4495:4496  1 */\n      0x01\n        /* \"DiscoCats.sol\":4488:4496  return 1 */\n      swap1\n      pop\n      jump(tag_228)\n        /* \"DiscoCats.sol\":4361:4546  if (... */\n    tag_232:\n        /* \"DiscoCats.sol\":4534:4535  2 */\n      0x02\n        /* \"DiscoCats.sol\":4527:4535  return 2 */\n      swap1\n      pop\n        /* \"DiscoCats.sol\":4207:4552  function getStatus() external view returns (uint256 _status) {... */\n    tag_228:\n      swap1\n      jump\t// out\n        /* \"@openzeppelin/contracts/access/Ownable.sol\":2293:2394  function renounceOwnership() public virtual onlyOwner {... */\n    tag_76:\n        /* \"@openzeppelin/contracts/access/Ownable.sol\":1531:1544  _checkOwner() */\n      tag_235\n        /* \"@openzeppelin/contracts/access/Ownable.sol\":1531:1542  _checkOwner */\n      tag_156\n        /* \"@openzeppelin/contracts/access/Ownable.sol\":1531:1544  _checkOwner() */\n      jump\t// in\n    tag_235:\n        /* \"@openzeppelin/contracts/access/Ownable.sol\":2357:2387  _transferOwnership(address(0)) */\n      tag_237\n        /* \"@openzeppelin/contracts/access/Ownable.sol\":2384:2385  0 */\n      0x00\n        /* \"@openzeppelin/contracts/access/Ownable.sol\":2357:2375  _transferOwnership */\n      tag_238\n        /* \"@openzeppelin/contracts/access/Ownable.sol\":2357:2387  _transferOwnership(address(0)) */\n      jump\t// in\n    tag_237:\n        /* \"@openzeppelin/contracts/access/Ownable.sol\":2293:2394  function renounceOwnership() public virtual onlyOwner {... */\n      jump\t// out\n        /* \"@openzeppelin/contracts/access/Ownable.sol\":1638:1723  function owner() public view virtual returns (address) {... */\n    tag_78:\n        /* \"@openzeppelin/contracts/access/Ownable.sol\":1684:1691  address */\n      0x00\n        /* \"@openzeppelin/contracts/access/Ownable.sol\":1710:1716  _owner */\n      dup1\n      0x00\n      swap1\n      sload\n      swap1\n      0x0100\n      exp\n      swap1\n      div\n      0xffffffffffffffffffffffffffffffffffffffff\n      and\n        /* \"@openzeppelin/contracts/access/Ownable.sol\":1703:1716  return _owner */\n      swap1\n      pop\n        /* \"@openzeppelin/contracts/access/Ownable.sol\":1638:1723  function owner() public view virtual returns (address) {... */\n      swap1\n      jump\t// out\n        /* \"DiscoCats.sol\":4732:5210  function briberTokenInfo(uint256 _projectId,address _tokenAddress)... */\n    tag_84:\n        /* \"DiscoCats.sol\":4846:4857  uint number */\n      0x00\n        /* \"DiscoCats.sol\":4867:4887  uint totalTokenCount */\n      dup1\n        /* \"DiscoCats.sol\":4888:4889  0 */\n      0x00\n        /* \"DiscoCats.sol\":4867:4889  uint totalTokenCount=0 */\n      swap1\n      pop\n        /* \"DiscoCats.sol\":4899:4925  Project storage newProject */\n      0x00\n        /* \"DiscoCats.sol\":4926:4934  projects */\n      0x09\n        /* \"DiscoCats.sol\":4926:4946  projects[_projectId] */\n      0x00\n        /* \"DiscoCats.sol\":4935:4945  _projectId */\n      dup7\n        /* \"DiscoCats.sol\":4926:4946  projects[_projectId] */\n      dup2\n      mstore\n      0x20\n      add\n      swap1\n      dup2\n      mstore\n      0x20\n      add\n      0x00\n      keccak256\n        /* \"DiscoCats.sol\":4899:4946  Project storage newProject=projects[_projectId] */\n      swap1\n      pop\n        /* \"DiscoCats.sol\":4961:4967  uint i */\n      0x00\n        /* \"DiscoCats.sol\":4956:5172  for (uint i=0; i<newProject.bribers.length; i++) ... */\n    tag_241:\n        /* \"DiscoCats.sol\":4973:4983  newProject */\n      dup2\n        /* \"DiscoCats.sol\":4973:4991  newProject.bribers */\n      0x02\n      add\n        /* \"DiscoCats.sol\":4973:4998  newProject.bribers.length */\n      dup1\n      sload\n      swap1\n      pop\n        /* \"DiscoCats.sol\":4971:4972  i */\n      dup2\n        /* \"DiscoCats.sol\":4971:4998  i<newProject.bribers.length */\n      lt\n        /* \"DiscoCats.sol\":4956:5172  for (uint i=0; i<newProject.bribers.length; i++) ... */\n      iszero\n      tag_242\n      jumpi\n        /* \"DiscoCats.sol\":5067:5080  _tokenAddress */\n      dup5\n        /* \"DiscoCats.sol\":5031:5080  newProject.bribers[i].tokenAddress==_tokenAddress */\n      0xffffffffffffffffffffffffffffffffffffffff\n      and\n        /* \"DiscoCats.sol\":5031:5041  newProject */\n      dup3\n        /* \"DiscoCats.sol\":5031:5049  newProject.bribers */\n      0x02\n      add\n        /* \"DiscoCats.sol\":5050:5051  i */\n      dup3\n        /* \"DiscoCats.sol\":5031:5052  newProject.bribers[i] */\n      dup2\n      sload\n      dup2\n      lt\n      tag_244\n      jumpi\n      tag_245\n      tag_209\n      jump\t// in\n    tag_245:\n    tag_244:\n      swap1\n      0x00\n      mstore\n      keccak256(0x00, 0x20)\n      swap1\n      0x03\n      mul\n      add\n        /* \"DiscoCats.sol\":5031:5065  newProject.bribers[i].tokenAddress */\n      0x01\n      add\n      0x00\n      swap1\n      sload\n      swap1\n      0x0100\n      exp\n      swap1\n      div\n      0xffffffffffffffffffffffffffffffffffffffff\n      and\n        /* \"DiscoCats.sol\":5031:5080  newProject.bribers[i].tokenAddress==_tokenAddress */\n      0xffffffffffffffffffffffffffffffffffffffff\n      and\n      sub\n        /* \"DiscoCats.sol\":5028:5162  if(newProject.bribers[i].tokenAddress==_tokenAddress){... */\n      tag_247\n      jumpi\n        /* \"DiscoCats.sol\":5116:5126  newProject */\n      dup2\n        /* \"DiscoCats.sol\":5116:5134  newProject.bribers */\n      0x02\n      add\n        /* \"DiscoCats.sol\":5135:5136  i */\n      dup2\n        /* \"DiscoCats.sol\":5116:5137  newProject.bribers[i] */\n      dup2\n      sload\n      dup2\n      lt\n      tag_248\n      jumpi\n      tag_249\n      tag_209\n      jump\t// in\n    tag_249:\n    tag_248:\n      swap1\n      0x00\n      mstore\n      keccak256(0x00, 0x20)\n      swap1\n      0x03\n      mul\n      add\n        /* \"DiscoCats.sol\":5116:5147  newProject.bribers[i].tokenAmnt */\n      0x02\n      add\n      sload\n        /* \"DiscoCats.sol\":5099:5147  totalTokenCount+=newProject.bribers[i].tokenAmnt */\n      dup4\n      tag_251\n      swap2\n      swap1\n      tag_252\n      jump\t// in\n    tag_251:\n      swap3\n      pop\n        /* \"DiscoCats.sol\":5028:5162  if(newProject.bribers[i].tokenAddress==_tokenAddress){... */\n    tag_247:\n        /* \"DiscoCats.sol\":5000:5003  i++ */\n      dup1\n      dup1\n      0x01\n      add\n      swap2\n      pop\n      pop\n        /* \"DiscoCats.sol\":4956:5172  for (uint i=0; i<newProject.bribers.length; i++) ... */\n      jump(tag_241)\n    tag_242:\n      pop\n        /* \"DiscoCats.sol\":5188:5203  totalTokenCount */\n      dup2\n        /* \"DiscoCats.sol\":5181:5203  return totalTokenCount */\n      swap3\n      pop\n      pop\n      pop\n        /* \"DiscoCats.sol\":4732:5210  function briberTokenInfo(uint256 _projectId,address _tokenAddress)... */\n      swap3\n      swap2\n      pop\n      pop\n      jump\t// out\n        /* \"DiscoCats.sol\":900:941  mapping(address => uint256) public voters */\n    tag_88:\n      mstore(0x20, 0x05)\n      dup1\n      0x00\n      mstore\n      keccak256(0x00, 0x40)\n      0x00\n      swap2\n      pop\n      swap1\n      pop\n      sload\n      dup2\n      jump\t// out\n        /* \"DiscoCats.sol\":438:471  address public nftContractAddress */\n    tag_91:\n      0x04\n      0x00\n      swap1\n      sload\n      swap1\n      0x0100\n      exp\n      swap1\n      div\n      0xffffffffffffffffffffffffffffffffffffffff\n      and\n      dup2\n      jump\t// out\n        /* \"DiscoCats.sol\":7154:7684  function changeState(uint256 _stateNumber) public onlyOwner {... */\n    tag_95:\n        /* \"@openzeppelin/contracts/access/Ownable.sol\":1531:1544  _checkOwner() */\n      tag_254\n        /* \"@openzeppelin/contracts/access/Ownable.sol\":1531:1542  _checkOwner */\n      tag_156\n        /* \"@openzeppelin/contracts/access/Ownable.sol\":1531:1544  _checkOwner() */\n      jump\t// in\n    tag_254:\n        /* \"DiscoCats.sol\":7244:7245  0 */\n      0x00\n        /* \"DiscoCats.sol\":7228:7240  _stateNumber */\n      dup2\n        /* \"DiscoCats.sol\":7228:7245  _stateNumber == 0 */\n      sub\n        /* \"DiscoCats.sol\":7224:7305  if (_stateNumber == 0) {... */\n      tag_256\n      jumpi\n        /* \"DiscoCats.sol\":7270:7294  govtStatus.incentivising */\n      0x00\n        /* \"DiscoCats.sol\":7261:7267  status */\n      0x04\n      0x14\n        /* \"DiscoCats.sol\":7261:7294  status = govtStatus.incentivising */\n      0x0100\n      exp\n      dup2\n      sload\n      dup2\n      0xff\n      mul\n      not\n      and\n      swap1\n      dup4\n      0x02\n      dup2\n      gt\n      iszero\n      tag_257\n      jumpi\n      tag_258\n      tag_259\n      jump\t// in\n    tag_258:\n    tag_257:\n      mul\n      or\n      swap1\n      sstore\n      pop\n        /* \"DiscoCats.sol\":7224:7305  if (_stateNumber == 0) {... */\n    tag_256:\n        /* \"DiscoCats.sol\":7334:7335  1 */\n      0x01\n        /* \"DiscoCats.sol\":7318:7330  _stateNumber */\n      dup2\n        /* \"DiscoCats.sol\":7318:7335  _stateNumber == 1 */\n      sub\n        /* \"DiscoCats.sol\":7314:7388  if (_stateNumber == 1) {... */\n      tag_260\n      jumpi\n        /* \"DiscoCats.sol\":7360:7377  govtStatus.voting */\n      0x01\n        /* \"DiscoCats.sol\":7351:7357  status */\n      0x04\n      0x14\n        /* \"DiscoCats.sol\":7351:7377  status = govtStatus.voting */\n      0x0100\n      exp\n      dup2\n      sload\n      dup2\n      0xff\n      mul\n      not\n      and\n      swap1\n      dup4\n      0x02\n      dup2\n      gt\n      iszero\n      tag_261\n      jumpi\n      tag_262\n      tag_259\n      jump\t// in\n    tag_262:\n    tag_261:\n      mul\n      or\n      swap1\n      sstore\n      pop\n        /* \"DiscoCats.sol\":7314:7388  if (_stateNumber == 1) {... */\n    tag_260:\n        /* \"DiscoCats.sol\":7417:7418  2 */\n      0x02\n        /* \"DiscoCats.sol\":7401:7413  _stateNumber */\n      dup2\n        /* \"DiscoCats.sol\":7401:7418  _stateNumber == 2 */\n      sub\n        /* \"DiscoCats.sol\":7397:7678  if (_stateNumber == 2) {... */\n      tag_263\n      jumpi\n        /* \"DiscoCats.sol\":7648:7667  govtStatus.claiming */\n      0x02\n        /* \"DiscoCats.sol\":7639:7645  status */\n      0x04\n      0x14\n        /* \"DiscoCats.sol\":7639:7667  status = govtStatus.claiming */\n      0x0100\n      exp\n      dup2\n      sload\n      dup2\n      0xff\n      mul\n      not\n      and\n      swap1\n      dup4\n      0x02\n      dup2\n      gt\n      iszero\n      tag_264\n      jumpi\n      tag_265\n      tag_259\n      jump\t// in\n    tag_265:\n    tag_264:\n      mul\n      or\n      swap1\n      sstore\n      pop\n        /* \"DiscoCats.sol\":7397:7678  if (_stateNumber == 2) {... */\n    tag_263:\n        /* \"DiscoCats.sol\":7154:7684  function changeState(uint256 _stateNumber) public onlyOwner {... */\n      pop\n      jump\t// out\n        /* \"DiscoCats.sol\":4558:4727  function briberInfo(uint256 _projectId)... */\n    tag_98:\n        /* \"DiscoCats.sol\":4645:4669  Briber[] memory _bribers */\n      0x60\n        /* \"DiscoCats.sol\":4692:4700  projects */\n      0x09\n        /* \"DiscoCats.sol\":4692:4712  projects[_projectId] */\n      0x00\n        /* \"DiscoCats.sol\":4701:4711  _projectId */\n      dup4\n        /* \"DiscoCats.sol\":4692:4712  projects[_projectId] */\n      dup2\n      mstore\n      0x20\n      add\n      swap1\n      dup2\n      mstore\n      0x20\n      add\n      0x00\n      keccak256\n        /* \"DiscoCats.sol\":4692:4720  projects[_projectId].bribers */\n      0x02\n      add\n        /* \"DiscoCats.sol\":4685:4720  return projects[_projectId].bribers */\n      dup1\n      sload\n      dup1\n      0x20\n      mul\n      0x20\n      add\n      mload(0x40)\n      swap1\n      dup2\n      add\n      0x40\n      mstore\n      dup1\n      swap3\n      swap2\n      swap1\n      dup2\n      dup2\n      mstore\n      0x20\n      add\n      0x00\n      swap1\n    tag_267:\n      dup3\n      dup3\n      lt\n      iszero\n      tag_268\n      jumpi\n      dup4\n      dup3\n      swap1\n      0x00\n      mstore\n      keccak256(0x00, 0x20)\n      swap1\n      0x03\n      mul\n      add\n      mload(0x40)\n      dup1\n      0x60\n      add\n      0x40\n      mstore\n      swap1\n      dup2\n      0x00\n      dup3\n      add\n      0x00\n      swap1\n      sload\n      swap1\n      0x0100\n      exp\n      swap1\n      div\n      0xffffffffffffffffffffffffffffffffffffffff\n      and\n      0xffffffffffffffffffffffffffffffffffffffff\n      and\n      0xffffffffffffffffffffffffffffffffffffffff\n      and\n      dup2\n      mstore\n      0x20\n      add\n      0x01\n      dup3\n      add\n      0x00\n      swap1\n      sload\n      swap1\n      0x0100\n      exp\n      swap1\n      div\n      0xffffffffffffffffffffffffffffffffffffffff\n      and\n      0xffffffffffffffffffffffffffffffffffffffff\n      and\n      0xffffffffffffffffffffffffffffffffffffffff\n      and\n      dup2\n      mstore\n      0x20\n      add\n      0x02\n      dup3\n      add\n      sload\n      dup2\n      mstore\n      pop\n      pop\n      dup2\n      mstore\n      0x20\n      add\n      swap1\n      0x01\n      add\n      swap1\n      jump(tag_267)\n    tag_268:\n      pop\n      pop\n      pop\n      pop\n      swap1\n      pop\n        /* \"DiscoCats.sol\":4558:4727  function briberInfo(uint256 _projectId)... */\n      swap2\n      swap1\n      pop\n      jump\t// out\n        /* \"DiscoCats.sol\":4108:4201  function changelastTokenId(uint256 _id) external onlyOwner {... */\n    tag_103:\n        /* \"@openzeppelin/contracts/access/Ownable.sol\":1531:1544  _checkOwner() */\n      tag_271\n        /* \"@openzeppelin/contracts/access/Ownable.sol\":1531:1542  _checkOwner */\n      tag_156\n        /* \"@openzeppelin/contracts/access/Ownable.sol\":1531:1544  _checkOwner() */\n      jump\t// in\n    tag_271:\n        /* \"DiscoCats.sol\":4191:4194  _id */\n      dup1\n        /* \"DiscoCats.sol\":4177:4188  lastTokenId */\n      0x07\n        /* \"DiscoCats.sol\":4177:4194  lastTokenId = _id */\n      dup2\n      swap1\n      sstore\n      pop\n        /* \"DiscoCats.sol\":4108:4201  function changelastTokenId(uint256 _id) external onlyOwner {... */\n      pop\n      jump\t// out\n        /* \"DiscoCats.sol\":6388:7148  function withdrawWinnerProject(address _receiver) public onlyOwner {... */\n    tag_106:\n        /* \"@openzeppelin/contracts/access/Ownable.sol\":1531:1544  _checkOwner() */\n      tag_274\n        /* \"@openzeppelin/contracts/access/Ownable.sol\":1531:1542  _checkOwner */\n      tag_156\n        /* \"@openzeppelin/contracts/access/Ownable.sol\":1531:1544  _checkOwner() */\n      jump\t// in\n    tag_274:\n        /* \"DiscoCats.sol\":6561:6573  votingPeriod */\n      sload(0x02)\n        /* \"DiscoCats.sol\":6542:6557  block.timestamp */\n      timestamp\n        /* \"DiscoCats.sol\":6542:6573  block.timestamp >= votingPeriod */\n      lt\n      iszero\n        /* \"DiscoCats.sol\":6534:6592  require(block.timestamp >= votingPeriod, \"cant do it now\") */\n      tag_276\n      jumpi\n      mload(0x40)\n      0x08c379a000000000000000000000000000000000000000000000000000000000\n      dup2\n      mstore\n      0x04\n      add\n      tag_277\n      swap1\n      tag_120\n      jump\t// in\n    tag_277:\n      mload(0x40)\n      dup1\n      swap2\n      sub\n      swap1\n      revert\n    tag_276:\n        /* \"DiscoCats.sol\":6678:6694  uint256 winnerId */\n      0x00\n        /* \"DiscoCats.sol\":6697:6717  getWinnerProjectId() */\n      tag_278\n        /* \"DiscoCats.sol\":6697:6715  getWinnerProjectId */\n      tag_111\n        /* \"DiscoCats.sol\":6697:6717  getWinnerProjectId() */\n      jump\t// in\n    tag_278:\n        /* \"DiscoCats.sol\":6678:6717  uint256 winnerId = getWinnerProjectId() */\n      swap1\n      pop\n        /* \"DiscoCats.sol\":6727:6753  Project storage newProject */\n      0x00\n        /* \"DiscoCats.sol\":6756:6764  projects */\n      0x09\n        /* \"DiscoCats.sol\":6756:6774  projects[winnerId] */\n      0x00\n        /* \"DiscoCats.sol\":6765:6773  winnerId */\n      dup4\n        /* \"DiscoCats.sol\":6756:6774  projects[winnerId] */\n      dup2\n      mstore\n      0x20\n      add\n      swap1\n      dup2\n      mstore\n      0x20\n      add\n      0x00\n      keccak256\n        /* \"DiscoCats.sol\":6727:6774  Project storage newProject = projects[winnerId] */\n      swap1\n      pop\n        /* \"DiscoCats.sol\":6789:6798  uint256 i */\n      0x00\n        /* \"DiscoCats.sol\":6784:7142  for (uint256 i = 0; i < newProject.bribers.length; i++) {... */\n    tag_279:\n        /* \"DiscoCats.sol\":6808:6818  newProject */\n      dup2\n        /* \"DiscoCats.sol\":6808:6826  newProject.bribers */\n      0x02\n      add\n        /* \"DiscoCats.sol\":6808:6833  newProject.bribers.length */\n      dup1\n      sload\n      swap1\n      pop\n        /* \"DiscoCats.sol\":6804:6805  i */\n      dup2\n        /* \"DiscoCats.sol\":6804:6833  i < newProject.bribers.length */\n      lt\n        /* \"DiscoCats.sol\":6784:7142  for (uint256 i = 0; i < newProject.bribers.length; i++) {... */\n      iszero\n      tag_280\n      jumpi\n        /* \"DiscoCats.sol\":6886:6896  newProject */\n      dup2\n        /* \"DiscoCats.sol\":6886:6904  newProject.bribers */\n      0x02\n      add\n        /* \"DiscoCats.sol\":6905:6906  i */\n      dup2\n        /* \"DiscoCats.sol\":6886:6907  newProject.bribers[i] */\n      dup2\n      sload\n      dup2\n      lt\n      tag_282\n      jumpi\n      tag_283\n      tag_209\n      jump\t// in\n    tag_283:\n    tag_282:\n      swap1\n      0x00\n      mstore\n      keccak256(0x00, 0x20)\n      swap1\n      0x03\n      mul\n      add\n        /* \"DiscoCats.sol\":6886:6920  newProject.bribers[i].tokenAddress */\n      0x01\n      add\n      0x00\n      swap1\n      sload\n      swap1\n      0x0100\n      exp\n      swap1\n      div\n      0xffffffffffffffffffffffffffffffffffffffff\n      and\n        /* \"DiscoCats.sol\":6879:6930  IERC20(newProject.bribers[i].tokenAddress).transfer */\n      0xffffffffffffffffffffffffffffffffffffffff\n      and\n      0xa9059cbb\n        /* \"DiscoCats.sol\":6952:6961  _receiver */\n      dup6\n        /* \"DiscoCats.sol\":6983:6993  newProject */\n      dup5\n        /* \"DiscoCats.sol\":6983:7001  newProject.bribers */\n      0x02\n      add\n        /* \"DiscoCats.sol\":7002:7003  i */\n      dup5\n        /* \"DiscoCats.sol\":6983:7004  newProject.bribers[i] */\n      dup2\n      sload\n      dup2\n      lt\n      tag_285\n      jumpi\n      tag_286\n      tag_209\n      jump\t// in\n    tag_286:\n    tag_285:\n      swap1\n      0x00\n      mstore\n      keccak256(0x00, 0x20)\n      swap1\n      0x03\n      mul\n      add\n        /* \"DiscoCats.sol\":6983:7014  newProject.bribers[i].tokenAmnt */\n      0x02\n      add\n      sload\n        /* \"DiscoCats.sol\":6879:7032  IERC20(newProject.bribers[i].tokenAddress).transfer(... */\n      mload(0x40)\n      dup4\n      0xffffffff\n      and\n      0xe0\n      shl\n      dup2\n      mstore\n      0x04\n      add\n      tag_288\n      swap3\n      swap2\n      swap1\n      tag_219\n      jump\t// in\n    tag_288:\n      0x20\n      mload(0x40)\n      dup1\n      dup4\n      sub\n      dup2\n      0x00\n      dup8\n      gas\n      call\n      iszero\n      dup1\n      iszero\n      tag_290\n      jumpi\n      returndatasize\n      0x00\n      dup1\n      returndatacopy\n      revert(0x00, returndatasize)\n    tag_290:\n      pop\n      pop\n      pop\n      pop\n      mload(0x40)\n      returndatasize\n      not(0x1f)\n      0x1f\n      dup3\n      add\n      and\n      dup3\n      add\n      dup1\n      0x40\n      mstore\n      pop\n      dup2\n      add\n      swap1\n      tag_291\n      swap2\n      swap1\n      tag_190\n      jump\t// in\n    tag_291:\n        /* \"DiscoCats.sol\":6854:7084  require(... */\n      tag_292\n      jumpi\n      mload(0x40)\n      0x08c379a000000000000000000000000000000000000000000000000000000000\n      dup2\n      mstore\n      0x04\n      add\n      tag_293\n      swap1\n      tag_193\n      jump\t// in\n    tag_293:\n      mload(0x40)\n      dup1\n      swap2\n      sub\n      swap1\n      revert\n    tag_292:\n        /* \"DiscoCats.sol\":7130:7131  0 */\n      0x00\n        /* \"DiscoCats.sol\":7098:7108  newProject */\n      dup3\n        /* \"DiscoCats.sol\":7098:7116  newProject.bribers */\n      0x02\n      add\n        /* \"DiscoCats.sol\":7117:7118  i */\n      dup3\n        /* \"DiscoCats.sol\":7098:7119  newProject.bribers[i] */\n      dup2\n      sload\n      dup2\n      lt\n      tag_294\n      jumpi\n      tag_295\n      tag_209\n      jump\t// in\n    tag_295:\n    tag_294:\n      swap1\n      0x00\n      mstore\n      keccak256(0x00, 0x20)\n      swap1\n      0x03\n      mul\n      add\n        /* \"DiscoCats.sol\":7098:7129  newProject.bribers[i].tokenAmnt */\n      0x02\n      add\n        /* \"DiscoCats.sol\":7098:7131  newProject.bribers[i].tokenAmnt=0 */\n      dup2\n      swap1\n      sstore\n      pop\n        /* \"DiscoCats.sol\":6835:6838  i++ */\n      dup1\n      dup1\n      0x01\n      add\n      swap2\n      pop\n      pop\n        /* \"DiscoCats.sol\":6784:7142  for (uint256 i = 0; i < newProject.bribers.length; i++) {... */\n      jump(tag_279)\n    tag_280:\n      pop\n        /* \"DiscoCats.sol\":6455:7148  {... */\n      pop\n      pop\n        /* \"DiscoCats.sol\":6388:7148  function withdrawWinnerProject(address _receiver) public onlyOwner {... */\n      pop\n      jump\t// out\n        /* \"@openzeppelin/contracts/access/Ownable.sol\":2543:2758  function transferOwnership(address newOwner) public virtual onlyOwner {... */\n    tag_109:\n        /* \"@openzeppelin/contracts/access/Ownable.sol\":1531:1544  _checkOwner() */\n      tag_298\n        /* \"@openzeppelin/contracts/access/Ownable.sol\":1531:1542  _checkOwner */\n      tag_156\n        /* \"@openzeppelin/contracts/access/Ownable.sol\":1531:1544  _checkOwner() */\n      jump\t// in\n    tag_298:\n        /* \"@openzeppelin/contracts/access/Ownable.sol\":2647:2648  0 */\n      0x00\n        /* \"@openzeppelin/contracts/access/Ownable.sol\":2627:2649  newOwner == address(0) */\n      0xffffffffffffffffffffffffffffffffffffffff\n      and\n        /* \"@openzeppelin/contracts/access/Ownable.sol\":2627:2635  newOwner */\n      dup2\n        /* \"@openzeppelin/contracts/access/Ownable.sol\":2627:2649  newOwner == address(0) */\n      0xffffffffffffffffffffffffffffffffffffffff\n      and\n      sub\n        /* \"@openzeppelin/contracts/access/Ownable.sol\":2623:2714  if (newOwner == address(0)) {... */\n      tag_300\n      jumpi\n        /* \"@openzeppelin/contracts/access/Ownable.sol\":2700:2701  0 */\n      0x00\n        /* \"@openzeppelin/contracts/access/Ownable.sol\":2672:2703  OwnableInvalidOwner(address(0)) */\n      mload(0x40)\n      0x1e4fbdf700000000000000000000000000000000000000000000000000000000\n      dup2\n      mstore\n      0x04\n      add\n      tag_301\n      swap2\n      swap1\n      tag_80\n      jump\t// in\n    tag_301:\n      mload(0x40)\n      dup1\n      swap2\n      sub\n      swap1\n      revert\n        /* \"@openzeppelin/contracts/access/Ownable.sol\":2623:2714  if (newOwner == address(0)) {... */\n    tag_300:\n        /* \"@openzeppelin/contracts/access/Ownable.sol\":2723:2751  _transferOwnership(newOwner) */\n      tag_302\n        /* \"@openzeppelin/contracts/access/Ownable.sol\":2742:2750  newOwner */\n      dup2\n        /* \"@openzeppelin/contracts/access/Ownable.sol\":2723:2741  _transferOwnership */\n      tag_238\n        /* \"@openzeppelin/contracts/access/Ownable.sol\":2723:2751  _transferOwnership(newOwner) */\n      jump\t// in\n    tag_302:\n        /* \"@openzeppelin/contracts/access/Ownable.sol\":2543:2758  function transferOwnership(address newOwner) public virtual onlyOwner {... */\n      pop\n      jump\t// out\n        /* \"DiscoCats.sol\":7690:8004  function getWinnerProjectId() public view returns (uint256 _id) {... */\n    tag_111:\n        /* \"DiscoCats.sol\":7741:7752  uint256 _id */\n      0x00\n        /* \"DiscoCats.sol\":7764:7788  uint256 _winnerProjectId */\n      dup1\n        /* \"DiscoCats.sol\":7791:7792  1 */\n      0x01\n        /* \"DiscoCats.sol\":7764:7792  uint256 _winnerProjectId = 1 */\n      swap1\n      pop\n        /* \"DiscoCats.sol\":7807:7816  uint256 i */\n      0x00\n        /* \"DiscoCats.sol\":7819:7820  1 */\n      0x01\n        /* \"DiscoCats.sol\":7807:7820  uint256 i = 1 */\n      swap1\n      pop\n        /* \"DiscoCats.sol\":7802:7965  for (uint256 i = 1; i <= projectCount; i++) {... */\n    tag_304:\n        /* \"DiscoCats.sol\":7827:7839  projectCount */\n      sload(0x03)\n        /* \"DiscoCats.sol\":7822:7823  i */\n      dup2\n        /* \"DiscoCats.sol\":7822:7839  i <= projectCount */\n      gt\n        /* \"DiscoCats.sol\":7802:7965  for (uint256 i = 1; i <= projectCount; i++) {... */\n      tag_305\n      jumpi\n        /* \"DiscoCats.sol\":7884:7900  _winnerProjectId */\n      dup2\n        /* \"DiscoCats.sol\":7864:7872  projects */\n      0x09\n        /* \"DiscoCats.sol\":7864:7875  projects[i] */\n      0x00\n        /* \"DiscoCats.sol\":7873:7874  i */\n      dup4\n        /* \"DiscoCats.sol\":7864:7875  projects[i] */\n      dup2\n      mstore\n      0x20\n      add\n      swap1\n      dup2\n      mstore\n      0x20\n      add\n      0x00\n      keccak256\n        /* \"DiscoCats.sol\":7864:7881  projects[i].votes */\n      0x03\n      add\n      sload\n        /* \"DiscoCats.sol\":7864:7900  projects[i].votes > _winnerProjectId */\n      gt\n        /* \"DiscoCats.sol\":7860:7955  if (projects[i].votes > _winnerProjectId) {... */\n      iszero\n      tag_307\n      jumpi\n        /* \"DiscoCats.sol\":7939:7940  i */\n      dup1\n        /* \"DiscoCats.sol\":7920:7940  _winnerProjectId = i */\n      swap2\n      pop\n        /* \"DiscoCats.sol\":7860:7955  if (projects[i].votes > _winnerProjectId) {... */\n    tag_307:\n        /* \"DiscoCats.sol\":7841:7844  i++ */\n      dup1\n      dup1\n      tag_308\n      swap1\n      tag_150\n      jump\t// in\n    tag_308:\n      swap2\n      pop\n      pop\n        /* \"DiscoCats.sol\":7802:7965  for (uint256 i = 1; i <= projectCount; i++) {... */\n      jump(tag_304)\n    tag_305:\n      pop\n        /* \"DiscoCats.sol\":7981:7997  _winnerProjectId */\n      dup1\n        /* \"DiscoCats.sol\":7974:7997  return _winnerProjectId */\n      swap2\n      pop\n      pop\n        /* \"DiscoCats.sol\":7690:8004  function getWinnerProjectId() public view returns (uint256 _id) {... */\n      swap1\n      jump\t// out\n        /* \"DiscoCats.sol\":982:1013  uint256 public lastTokenId = 10 */\n    tag_114:\n      sload(0x07)\n      dup2\n      jump\t// out\n        /* \"@openzeppelin/contracts/access/Ownable.sol\":1796:1958  function _checkOwner() internal view virtual {... */\n    tag_156:\n        /* \"@openzeppelin/contracts/access/Ownable.sol\":1866:1878  _msgSender() */\n      tag_310\n        /* \"@openzeppelin/contracts/access/Ownable.sol\":1866:1876  _msgSender */\n      tag_311\n        /* \"@openzeppelin/contracts/access/Ownable.sol\":1866:1878  _msgSender() */\n      jump\t// in\n    tag_310:\n        /* \"@openzeppelin/contracts/access/Ownable.sol\":1855:1878  owner() != _msgSender() */\n      0xffffffffffffffffffffffffffffffffffffffff\n      and\n        /* \"@openzeppelin/contracts/access/Ownable.sol\":1855:1862  owner() */\n      tag_312\n        /* \"@openzeppelin/contracts/access/Ownable.sol\":1855:1860  owner */\n      tag_78\n        /* \"@openzeppelin/contracts/access/Ownable.sol\":1855:1862  owner() */\n      jump\t// in\n    tag_312:\n        /* \"@openzeppelin/contracts/access/Ownable.sol\":1855:1878  owner() != _msgSender() */\n      0xffffffffffffffffffffffffffffffffffffffff\n      and\n      eq\n        /* \"@openzeppelin/contracts/access/Ownable.sol\":1851:1952  if (owner() != _msgSender()) {... */\n      tag_313\n      jumpi\n        /* \"@openzeppelin/contracts/access/Ownable.sol\":1928:1940  _msgSender() */\n      tag_314\n        /* \"@openzeppelin/contracts/access/Ownable.sol\":1928:1938  _msgSender */\n      tag_311\n        /* \"@openzeppelin/contracts/access/Ownable.sol\":1928:1940  _msgSender() */\n      jump\t// in\n    tag_314:\n        /* \"@openzeppelin/contracts/access/Ownable.sol\":1901:1941  OwnableUnauthorizedAccount(_msgSender()) */\n      mload(0x40)\n      0x118cdaa700000000000000000000000000000000000000000000000000000000\n      dup2\n      mstore\n      0x04\n      add\n      tag_315\n      swap2\n      swap1\n      tag_80\n      jump\t// in\n    tag_315:\n      mload(0x40)\n      dup1\n      swap2\n      sub\n      swap1\n      revert\n        /* \"@openzeppelin/contracts/access/Ownable.sol\":1851:1952  if (owner() != _msgSender()) {... */\n    tag_313:\n        /* \"@openzeppelin/contracts/access/Ownable.sol\":1796:1958  function _checkOwner() internal view virtual {... */\n      jump\t// out\n        /* \"@openzeppelin/contracts/access/Ownable.sol\":2912:3099  function _transferOwnership(address newOwner) internal virtual {... */\n    tag_238:\n        /* \"@openzeppelin/contracts/access/Ownable.sol\":2985:3001  address oldOwner */\n      0x00\n        /* \"@openzeppelin/contracts/access/Ownable.sol\":3004:3010  _owner */\n      dup1\n      0x00\n      swap1\n      sload\n      swap1\n      0x0100\n      exp\n      swap1\n      div\n      0xffffffffffffffffffffffffffffffffffffffff\n      and\n        /* \"@openzeppelin/contracts/access/Ownable.sol\":2985:3010  address oldOwner = _owner */\n      swap1\n      pop\n        /* \"@openzeppelin/contracts/access/Ownable.sol\":3029:3037  newOwner */\n      dup2\n        /* \"@openzeppelin/contracts/access/Ownable.sol\":3020:3026  _owner */\n      0x00\n      dup1\n        /* \"@openzeppelin/contracts/access/Ownable.sol\":3020:3037  _owner = newOwner */\n      0x0100\n      exp\n      dup2\n      sload\n      dup2\n      0xffffffffffffffffffffffffffffffffffffffff\n      mul\n      not\n      and\n      swap1\n      dup4\n      0xffffffffffffffffffffffffffffffffffffffff\n      and\n      mul\n      or\n      swap1\n      sstore\n      pop\n        /* \"@openzeppelin/contracts/access/Ownable.sol\":3083:3091  newOwner */\n      dup2\n        /* \"@openzeppelin/contracts/access/Ownable.sol\":3052:3092  OwnershipTransferred(oldOwner, newOwner) */\n      0xffffffffffffffffffffffffffffffffffffffff\n      and\n        /* \"@openzeppelin/contracts/access/Ownable.sol\":3073:3081  oldOwner */\n      dup2\n        /* \"@openzeppelin/contracts/access/Ownable.sol\":3052:3092  OwnershipTransferred(oldOwner, newOwner) */\n      0xffffffffffffffffffffffffffffffffffffffff\n      and\n      0x8be0079c531659141344cd1fd0a4f28419497f9722a3daafe3b4186f6b6457e0\n      mload(0x40)\n      mload(0x40)\n      dup1\n      swap2\n      sub\n      swap1\n      log3\n        /* \"@openzeppelin/contracts/access/Ownable.sol\":2975:3099  {... */\n      pop\n        /* \"@openzeppelin/contracts/access/Ownable.sol\":2912:3099  function _transferOwnership(address newOwner) internal virtual {... */\n      pop\n      jump\t// out\n        /* \"@openzeppelin/contracts/utils/Context.sol\":656:752  function _msgSender() internal view virtual returns (address) {... */\n    tag_311:\n        /* \"@openzeppelin/contracts/utils/Context.sol\":709:716  address */\n      0x00\n        /* \"@openzeppelin/contracts/utils/Context.sol\":735:745  msg.sender */\n      caller\n        /* \"@openzeppelin/contracts/utils/Context.sol\":728:745  return msg.sender */\n      swap1\n      pop\n        /* \"@openzeppelin/contracts/utils/Context.sol\":656:752  function _msgSender() internal view virtual returns (address) {... */\n      swap1\n      jump\t// out\n    tag_195:\n      mload(0x40)\n      dup1\n      0x60\n      add\n      0x40\n      mstore\n      dup1\n      and(0xffffffffffffffffffffffffffffffffffffffff, 0x00)\n      dup2\n      mstore\n      0x20\n      add\n      and(0xffffffffffffffffffffffffffffffffffffffff, 0x00)\n      dup2\n      mstore\n      0x20\n      add\n      0x00\n      dup2\n      mstore\n      pop\n      swap1\n      jump\t// out\n        /* \"#utility.yul\":7:82   */\n    tag_318:\n        /* \"#utility.yul\":40:46   */\n      0x00\n        /* \"#utility.yul\":73:75   */\n      0x40\n        /* \"#utility.yul\":67:76   */\n      mload\n        /* \"#utility.yul\":57:76   */\n      swap1\n      pop\n        /* \"#utility.yul\":7:82   */\n      swap1\n      jump\t// out\n        /* \"#utility.yul\":88:205   */\n    tag_319:\n        /* \"#utility.yul\":197:198   */\n      0x00\n        /* \"#utility.yul\":194:195   */\n      dup1\n        /* \"#utility.yul\":187:199   */\n      revert\n        /* \"#utility.yul\":211:328   */\n    tag_320:\n        /* \"#utility.yul\":320:321   */\n      0x00\n        /* \"#utility.yul\":317:318   */\n      dup1\n        /* \"#utility.yul\":310:322   */\n      revert\n        /* \"#utility.yul\":334:411   */\n    tag_321:\n        /* \"#utility.yul\":371:378   */\n      0x00\n        /* \"#utility.yul\":400:405   */\n      dup2\n        /* \"#utility.yul\":389:405   */\n      swap1\n      pop\n        /* \"#utility.yul\":334:411   */\n      swap2\n      swap1\n      pop\n      jump\t// out\n        /* \"#utility.yul\":417:539   */\n    tag_322:\n        /* \"#utility.yul\":490:514   */\n      tag_398\n        /* \"#utility.yul\":508:513   */\n      dup2\n        /* \"#utility.yul\":490:514   */\n      tag_321\n      jump\t// in\n    tag_398:\n        /* \"#utility.yul\":483:488   */\n      dup2\n        /* \"#utility.yul\":480:515   */\n      eq\n        /* \"#utility.yul\":470:533   */\n      tag_399\n      jumpi\n        /* \"#utility.yul\":529:530   */\n      0x00\n        /* \"#utility.yul\":526:527   */\n      dup1\n        /* \"#utility.yul\":519:531   */\n      revert\n        /* \"#utility.yul\":470:533   */\n    tag_399:\n        /* \"#utility.yul\":417:539   */\n      pop\n      jump\t// out\n        /* \"#utility.yul\":545:684   */\n    tag_323:\n        /* \"#utility.yul\":591:596   */\n      0x00\n        /* \"#utility.yul\":629:635   */\n      dup2\n        /* \"#utility.yul\":616:636   */\n      calldataload\n        /* \"#utility.yul\":607:636   */\n      swap1\n      pop\n        /* \"#utility.yul\":645:678   */\n      tag_401\n        /* \"#utility.yul\":672:677   */\n      dup2\n        /* \"#utility.yul\":645:678   */\n      tag_322\n      jump\t// in\n    tag_401:\n        /* \"#utility.yul\":545:684   */\n      swap3\n      swap2\n      pop\n      pop\n      jump\t// out\n        /* \"#utility.yul\":690:1019   */\n    tag_32:\n        /* \"#utility.yul\":749:755   */\n      0x00\n        /* \"#utility.yul\":798:800   */\n      0x20\n        /* \"#utility.yul\":786:795   */\n      dup3\n        /* \"#utility.yul\":777:784   */\n      dup5\n        /* \"#utility.yul\":773:796   */\n      sub\n        /* \"#utility.yul\":769:801   */\n      slt\n        /* \"#utility.yul\":766:885   */\n      iszero\n      tag_403\n      jumpi\n        /* \"#utility.yul\":804:883   */\n      tag_404\n      tag_319\n      jump\t// in\n    tag_404:\n        /* \"#utility.yul\":766:885   */\n    tag_403:\n        /* \"#utility.yul\":924:925   */\n      0x00\n        /* \"#utility.yul\":949:1002   */\n      tag_405\n        /* \"#utility.yul\":994:1001   */\n      dup5\n        /* \"#utility.yul\":985:991   */\n      dup3\n        /* \"#utility.yul\":974:983   */\n      dup6\n        /* \"#utility.yul\":970:992   */\n      add\n        /* \"#utility.yul\":949:1002   */\n      tag_323\n      jump\t// in\n    tag_405:\n        /* \"#utility.yul\":939:1002   */\n      swap2\n      pop\n        /* \"#utility.yul\":895:1012   */\n      pop\n        /* \"#utility.yul\":690:1019   */\n      swap3\n      swap2\n      pop\n      pop\n      jump\t// out\n        /* \"#utility.yul\":1025:1143   */\n    tag_324:\n        /* \"#utility.yul\":1112:1136   */\n      tag_407\n        /* \"#utility.yul\":1130:1135   */\n      dup2\n        /* \"#utility.yul\":1112:1136   */\n      tag_321\n      jump\t// in\n    tag_407:\n        /* \"#utility.yul\":1107:1110   */\n      dup3\n        /* \"#utility.yul\":1100:1137   */\n      mstore\n        /* \"#utility.yul\":1025:1143   */\n      pop\n      pop\n      jump\t// out\n        /* \"#utility.yul\":1149:1371   */\n    tag_37:\n        /* \"#utility.yul\":1242:1246   */\n      0x00\n        /* \"#utility.yul\":1280:1282   */\n      0x20\n        /* \"#utility.yul\":1269:1278   */\n      dup3\n        /* \"#utility.yul\":1265:1283   */\n      add\n        /* \"#utility.yul\":1257:1283   */\n      swap1\n      pop\n        /* \"#utility.yul\":1293:1364   */\n      tag_409\n        /* \"#utility.yul\":1361:1362   */\n      0x00\n        /* \"#utility.yul\":1350:1359   */\n      dup4\n        /* \"#utility.yul\":1346:1363   */\n      add\n        /* \"#utility.yul\":1337:1343   */\n      dup5\n        /* \"#utility.yul\":1293:1364   */\n      tag_324\n      jump\t// in\n    tag_409:\n        /* \"#utility.yul\":1149:1371   */\n      swap3\n      swap2\n      pop\n      pop\n      jump\t// out\n        /* \"#utility.yul\":1377:1503   */\n    tag_325:\n        /* \"#utility.yul\":1414:1421   */\n      0x00\n        /* \"#utility.yul\":1454:1496   */\n      0xffffffffffffffffffffffffffffffffffffffff\n        /* \"#utility.yul\":1447:1452   */\n      dup3\n        /* \"#utility.yul\":1443:1497   */\n      and\n        /* \"#utility.yul\":1432:1497   */\n      swap1\n      pop\n        /* \"#utility.yul\":1377:1503   */\n      swap2\n      swap1\n      pop\n      jump\t// out\n        /* \"#utility.yul\":1509:1605   */\n    tag_326:\n        /* \"#utility.yul\":1546:1553   */\n      0x00\n        /* \"#utility.yul\":1575:1599   */\n      tag_412\n        /* \"#utility.yul\":1593:1598   */\n      dup3\n        /* \"#utility.yul\":1575:1599   */\n      tag_325\n      jump\t// in\n    tag_412:\n        /* \"#utility.yul\":1564:1599   */\n      swap1\n      pop\n        /* \"#utility.yul\":1509:1605   */\n      swap2\n      swap1\n      pop\n      jump\t// out\n        /* \"#utility.yul\":1611:1733   */\n    tag_327:\n        /* \"#utility.yul\":1684:1708   */\n      tag_414\n        /* \"#utility.yul\":1702:1707   */\n      dup2\n        /* \"#utility.yul\":1684:1708   */\n      tag_326\n      jump\t// in\n    tag_414:\n        /* \"#utility.yul\":1677:1682   */\n      dup2\n        /* \"#utility.yul\":1674:1709   */\n      eq\n        /* \"#utility.yul\":1664:1727   */\n      tag_415\n      jumpi\n        /* \"#utility.yul\":1723:1724   */\n      0x00\n        /* \"#utility.yul\":1720:1721   */\n      dup1\n        /* \"#utility.yul\":1713:1725   */\n      revert\n        /* \"#utility.yul\":1664:1727   */\n    tag_415:\n        /* \"#utility.yul\":1611:1733   */\n      pop\n      jump\t// out\n        /* \"#utility.yul\":1739:1878   */\n    tag_328:\n        /* \"#utility.yul\":1785:1790   */\n      0x00\n        /* \"#utility.yul\":1823:1829   */\n      dup2\n        /* \"#utility.yul\":1810:1830   */\n      calldataload\n        /* \"#utility.yul\":1801:1830   */\n      swap1\n      pop\n        /* \"#utility.yul\":1839:1872   */\n      tag_417\n        /* \"#utility.yul\":1866:1871   */\n      dup2\n        /* \"#utility.yul\":1839:1872   */\n      tag_327\n      jump\t// in\n    tag_417:\n        /* \"#utility.yul\":1739:1878   */\n      swap3\n      swap2\n      pop\n      pop\n      jump\t// out\n        /* \"#utility.yul\":1884:2213   */\n    tag_40:\n        /* \"#utility.yul\":1943:1949   */\n      0x00\n        /* \"#utility.yul\":1992:1994   */\n      0x20\n        /* \"#utility.yul\":1980:1989   */\n      dup3\n        /* \"#utility.yul\":1971:1978   */\n      dup5\n        /* \"#utility.yul\":1967:1990   */\n      sub\n        /* \"#utility.yul\":1963:1995   */\n      slt\n        /* \"#utility.yul\":1960:2079   */\n      iszero\n      tag_419\n      jumpi\n        /* \"#utility.yul\":1998:2077   */\n      tag_420\n      tag_319\n      jump\t// in\n    tag_420:\n        /* \"#utility.yul\":1960:2079   */\n    tag_419:\n        /* \"#utility.yul\":2118:2119   */\n      0x00\n        /* \"#utility.yul\":2143:2196   */\n      tag_421\n        /* \"#utility.yul\":2188:2195   */\n      dup5\n        /* \"#utility.yul\":2179:2185   */\n      dup3\n        /* \"#utility.yul\":2168:2177   */\n      dup6\n        /* \"#utility.yul\":2164:2186   */\n      add\n        /* \"#utility.yul\":2143:2196   */\n      tag_328\n      jump\t// in\n    tag_421:\n        /* \"#utility.yul\":2133:2196   */\n      swap2\n      pop\n        /* \"#utility.yul\":2089:2206   */\n      pop\n        /* \"#utility.yul\":1884:2213   */\n      swap3\n      swap2\n      pop\n      pop\n      jump\t// out\n        /* \"#utility.yul\":2219:2318   */\n    tag_329:\n        /* \"#utility.yul\":2271:2277   */\n      0x00\n        /* \"#utility.yul\":2305:2310   */\n      dup2\n        /* \"#utility.yul\":2299:2311   */\n      mload\n        /* \"#utility.yul\":2289:2311   */\n      swap1\n      pop\n        /* \"#utility.yul\":2219:2318   */\n      swap2\n      swap1\n      pop\n      jump\t// out\n        /* \"#utility.yul\":2324:2493   */\n    tag_330:\n        /* \"#utility.yul\":2408:2419   */\n      0x00\n        /* \"#utility.yul\":2442:2448   */\n      dup3\n        /* \"#utility.yul\":2437:2440   */\n      dup3\n        /* \"#utility.yul\":2430:2449   */\n      mstore\n        /* \"#utility.yul\":2482:2486   */\n      0x20\n        /* \"#utility.yul\":2477:2480   */\n      dup3\n        /* \"#utility.yul\":2473:2487   */\n      add\n        /* \"#utility.yul\":2458:2487   */\n      swap1\n      pop\n        /* \"#utility.yul\":2324:2493   */\n      swap3\n      swap2\n      pop\n      pop\n      jump\t// out\n        /* \"#utility.yul\":2499:2638   */\n    tag_331:\n        /* \"#utility.yul\":2588:2594   */\n      dup3\n        /* \"#utility.yul\":2583:2586   */\n      dup2\n        /* \"#utility.yul\":2578:2581   */\n      dup4\n        /* \"#utility.yul\":2572:2595   */\n      mcopy\n        /* \"#utility.yul\":2629:2630   */\n      0x00\n        /* \"#utility.yul\":2620:2626   */\n      dup4\n        /* \"#utility.yul\":2615:2618   */\n      dup4\n        /* \"#utility.yul\":2611:2627   */\n      add\n        /* \"#utility.yul\":2604:2631   */\n      mstore\n        /* \"#utility.yul\":2499:2638   */\n      pop\n      pop\n      pop\n      jump\t// out\n        /* \"#utility.yul\":2644:2746   */\n    tag_332:\n        /* \"#utility.yul\":2685:2691   */\n      0x00\n        /* \"#utility.yul\":2736:2738   */\n      0x1f\n        /* \"#utility.yul\":2732:2739   */\n      not\n        /* \"#utility.yul\":2727:2729   */\n      0x1f\n        /* \"#utility.yul\":2720:2725   */\n      dup4\n        /* \"#utility.yul\":2716:2730   */\n      add\n        /* \"#utility.yul\":2712:2740   */\n      and\n        /* \"#utility.yul\":2702:2740   */\n      swap1\n      pop\n        /* \"#utility.yul\":2644:2746   */\n      swap2\n      swap1\n      pop\n      jump\t// out\n        /* \"#utility.yul\":2752:3129   */\n    tag_333:\n        /* \"#utility.yul\":2840:2843   */\n      0x00\n        /* \"#utility.yul\":2868:2907   */\n      tag_427\n        /* \"#utility.yul\":2901:2906   */\n      dup3\n        /* \"#utility.yul\":2868:2907   */\n      tag_329\n      jump\t// in\n    tag_427:\n        /* \"#utility.yul\":2923:2994   */\n      tag_428\n        /* \"#utility.yul\":2987:2993   */\n      dup2\n        /* \"#utility.yul\":2982:2985   */\n      dup6\n        /* \"#utility.yul\":2923:2994   */\n      tag_330\n      jump\t// in\n    tag_428:\n        /* \"#utility.yul\":2916:2994   */\n      swap4\n      pop\n        /* \"#utility.yul\":3003:3068   */\n      tag_429\n        /* \"#utility.yul\":3061:3067   */\n      dup2\n        /* \"#utility.yul\":3056:3059   */\n      dup6\n        /* \"#utility.yul\":3049:3053   */\n      0x20\n        /* \"#utility.yul\":3042:3047   */\n      dup7\n        /* \"#utility.yul\":3038:3054   */\n      add\n        /* \"#utility.yul\":3003:3068   */\n      tag_331\n      jump\t// in\n    tag_429:\n        /* \"#utility.yul\":3093:3122   */\n      tag_430\n        /* \"#utility.yul\":3115:3121   */\n      dup2\n        /* \"#utility.yul\":3093:3122   */\n      tag_332\n      jump\t// in\n    tag_430:\n        /* \"#utility.yul\":3088:3091   */\n      dup5\n        /* \"#utility.yul\":3084:3123   */\n      add\n        /* \"#utility.yul\":3077:3123   */\n      swap2\n      pop\n        /* \"#utility.yul\":2844:3129   */\n      pop\n        /* \"#utility.yul\":2752:3129   */\n      swap3\n      swap2\n      pop\n      pop\n      jump\t// out\n        /* \"#utility.yul\":3135:3253   */\n    tag_334:\n        /* \"#utility.yul\":3222:3246   */\n      tag_432\n        /* \"#utility.yul\":3240:3245   */\n      dup2\n        /* \"#utility.yul\":3222:3246   */\n      tag_326\n      jump\t// in\n    tag_432:\n        /* \"#utility.yul\":3217:3220   */\n      dup3\n        /* \"#utility.yul\":3210:3247   */\n      mstore\n        /* \"#utility.yul\":3135:3253   */\n      pop\n      pop\n      jump\t// out\n        /* \"#utility.yul\":3259:3792   */\n    tag_49:\n        /* \"#utility.yul\":3428:3432   */\n      0x00\n        /* \"#utility.yul\":3466:3468   */\n      0x60\n        /* \"#utility.yul\":3455:3464   */\n      dup3\n        /* \"#utility.yul\":3451:3469   */\n      add\n        /* \"#utility.yul\":3443:3469   */\n      swap1\n      pop\n        /* \"#utility.yul\":3515:3524   */\n      dup2\n        /* \"#utility.yul\":3509:3513   */\n      dup2\n        /* \"#utility.yul\":3505:3525   */\n      sub\n        /* \"#utility.yul\":3501:3502   */\n      0x00\n        /* \"#utility.yul\":3490:3499   */\n      dup4\n        /* \"#utility.yul\":3486:3503   */\n      add\n        /* \"#utility.yul\":3479:3526   */\n      mstore\n        /* \"#utility.yul\":3543:3621   */\n      tag_434\n        /* \"#utility.yul\":3616:3620   */\n      dup2\n        /* \"#utility.yul\":3607:3613   */\n      dup7\n        /* \"#utility.yul\":3543:3621   */\n      tag_333\n      jump\t// in\n    tag_434:\n        /* \"#utility.yul\":3535:3621   */\n      swap1\n      pop\n        /* \"#utility.yul\":3631:3703   */\n      tag_435\n        /* \"#utility.yul\":3699:3701   */\n      0x20\n        /* \"#utility.yul\":3688:3697   */\n      dup4\n        /* \"#utility.yul\":3684:3702   */\n      add\n        /* \"#utility.yul\":3675:3681   */\n      dup6\n        /* \"#utility.yul\":3631:3703   */\n      tag_334\n      jump\t// in\n    tag_435:\n        /* \"#utility.yul\":3713:3785   */\n      tag_436\n        /* \"#utility.yul\":3781:3783   */\n      0x40\n        /* \"#utility.yul\":3770:3779   */\n      dup4\n        /* \"#utility.yul\":3766:3784   */\n      add\n        /* \"#utility.yul\":3757:3763   */\n      dup5\n        /* \"#utility.yul\":3713:3785   */\n      tag_324\n      jump\t// in\n    tag_436:\n        /* \"#utility.yul\":3259:3792   */\n      swap5\n      swap4\n      pop\n      pop\n      pop\n      pop\n      jump\t// out\n        /* \"#utility.yul\":3798:3915   */\n    tag_335:\n        /* \"#utility.yul\":3907:3908   */\n      0x00\n        /* \"#utility.yul\":3904:3905   */\n      dup1\n        /* \"#utility.yul\":3897:3909   */\n      revert\n        /* \"#utility.yul\":3921:4038   */\n    tag_336:\n        /* \"#utility.yul\":4030:4031   */\n      0x00\n        /* \"#utility.yul\":4027:4028   */\n      dup1\n        /* \"#utility.yul\":4020:4032   */\n      revert\n        /* \"#utility.yul\":4044:4224   */\n    tag_337:\n        /* \"#utility.yul\":4092:4169   */\n      0x4e487b7100000000000000000000000000000000000000000000000000000000\n        /* \"#utility.yul\":4089:4090   */\n      0x00\n        /* \"#utility.yul\":4082:4170   */\n      mstore\n        /* \"#utility.yul\":4189:4193   */\n      0x41\n        /* \"#utility.yul\":4186:4187   */\n      0x04\n        /* \"#utility.yul\":4179:4194   */\n      mstore\n        /* \"#utility.yul\":4213:4217   */\n      0x24\n        /* \"#utility.yul\":4210:4211   */\n      0x00\n        /* \"#utility.yul\":4203:4218   */\n      revert\n        /* \"#utility.yul\":4230:4511   */\n    tag_338:\n        /* \"#utility.yul\":4313:4340   */\n      tag_441\n        /* \"#utility.yul\":4335:4339   */\n      dup3\n        /* \"#utility.yul\":4313:4340   */\n      tag_332\n      jump\t// in\n    tag_441:\n        /* \"#utility.yul\":4305:4311   */\n      dup2\n        /* \"#utility.yul\":4301:4341   */\n      add\n        /* \"#utility.yul\":4443:4449   */\n      dup2\n        /* \"#utility.yul\":4431:4441   */\n      dup2\n        /* \"#utility.yul\":4428:4450   */\n      lt\n        /* \"#utility.yul\":4407:4425   */\n      0xffffffffffffffff\n        /* \"#utility.yul\":4395:4405   */\n      dup3\n        /* \"#utility.yul\":4392:4426   */\n      gt\n        /* \"#utility.yul\":4389:4451   */\n      or\n        /* \"#utility.yul\":4386:4474   */\n      iszero\n      tag_442\n      jumpi\n        /* \"#utility.yul\":4454:4472   */\n      tag_443\n      tag_337\n      jump\t// in\n    tag_443:\n        /* \"#utility.yul\":4386:4474   */\n    tag_442:\n        /* \"#utility.yul\":4494:4504   */\n      dup1\n        /* \"#utility.yul\":4490:4492   */\n      0x40\n        /* \"#utility.yul\":4483:4505   */\n      mstore\n        /* \"#utility.yul\":4273:4511   */\n      pop\n        /* \"#utility.yul\":4230:4511   */\n      pop\n      pop\n      jump\t// out\n        /* \"#utility.yul\":4517:4646   */\n    tag_339:\n        /* \"#utility.yul\":4551:4557   */\n      0x00\n        /* \"#utility.yul\":4578:4598   */\n      tag_445\n      tag_318\n      jump\t// in\n    tag_445:\n        /* \"#utility.yul\":4568:4598   */\n      swap1\n      pop\n        /* \"#utility.yul\":4607:4640   */\n      tag_446\n        /* \"#utility.yul\":4635:4639   */\n      dup3\n        /* \"#utility.yul\":4627:4633   */\n      dup3\n        /* \"#utility.yul\":4607:4640   */\n      tag_338\n      jump\t// in\n    tag_446:\n        /* \"#utility.yul\":4517:4646   */\n      swap2\n      swap1\n      pop\n      jump\t// out\n        /* \"#utility.yul\":4652:4960   */\n    tag_340:\n        /* \"#utility.yul\":4714:4718   */\n      0x00\n        /* \"#utility.yul\":4804:4822   */\n      0xffffffffffffffff\n        /* \"#utility.yul\":4796:4802   */\n      dup3\n        /* \"#utility.yul\":4793:4823   */\n      gt\n        /* \"#utility.yul\":4790:4846   */\n      iszero\n      tag_448\n      jumpi\n        /* \"#utility.yul\":4826:4844   */\n      tag_449\n      tag_337\n      jump\t// in\n    tag_449:\n        /* \"#utility.yul\":4790:4846   */\n    tag_448:\n        /* \"#utility.yul\":4864:4893   */\n      tag_450\n        /* \"#utility.yul\":4886:4892   */\n      dup3\n        /* \"#utility.yul\":4864:4893   */\n      tag_332\n      jump\t// in\n    tag_450:\n        /* \"#utility.yul\":4856:4893   */\n      swap1\n      pop\n        /* \"#utility.yul\":4948:4952   */\n      0x20\n        /* \"#utility.yul\":4942:4946   */\n      dup2\n        /* \"#utility.yul\":4938:4953   */\n      add\n        /* \"#utility.yul\":4930:4953   */\n      swap1\n      pop\n        /* \"#utility.yul\":4652:4960   */\n      swap2\n      swap1\n      pop\n      jump\t// out\n        /* \"#utility.yul\":4966:5114   */\n    tag_341:\n        /* \"#utility.yul\":5064:5070   */\n      dup3\n        /* \"#utility.yul\":5059:5062   */\n      dup2\n        /* \"#utility.yul\":5054:5057   */\n      dup4\n        /* \"#utility.yul\":5041:5071   */\n      calldatacopy\n        /* \"#utility.yul\":5105:5106   */\n      0x00\n        /* \"#utility.yul\":5096:5102   */\n      dup4\n        /* \"#utility.yul\":5091:5094   */\n      dup4\n        /* \"#utility.yul\":5087:5103   */\n      add\n        /* \"#utility.yul\":5080:5107   */\n      mstore\n        /* \"#utility.yul\":4966:5114   */\n      pop\n      pop\n      pop\n      jump\t// out\n        /* \"#utility.yul\":5120:5545   */\n    tag_342:\n        /* \"#utility.yul\":5198:5203   */\n      0x00\n        /* \"#utility.yul\":5223:5289   */\n      tag_453\n        /* \"#utility.yul\":5239:5288   */\n      tag_454\n        /* \"#utility.yul\":5281:5287   */\n      dup5\n        /* \"#utility.yul\":5239:5288   */\n      tag_340\n      jump\t// in\n    tag_454:\n        /* \"#utility.yul\":5223:5289   */\n      tag_339\n      jump\t// in\n    tag_453:\n        /* \"#utility.yul\":5214:5289   */\n      swap1\n      pop\n        /* \"#utility.yul\":5312:5318   */\n      dup3\n        /* \"#utility.yul\":5305:5310   */\n      dup2\n        /* \"#utility.yul\":5298:5319   */\n      mstore\n        /* \"#utility.yul\":5350:5354   */\n      0x20\n        /* \"#utility.yul\":5343:5348   */\n      dup2\n        /* \"#utility.yul\":5339:5355   */\n      add\n        /* \"#utility.yul\":5388:5391   */\n      dup5\n        /* \"#utility.yul\":5379:5385   */\n      dup5\n        /* \"#utility.yul\":5374:5377   */\n      dup5\n        /* \"#utility.yul\":5370:5386   */\n      add\n        /* \"#utility.yul\":5367:5392   */\n      gt\n        /* \"#utility.yul\":5364:5476   */\n      iszero\n      tag_455\n      jumpi\n        /* \"#utility.yul\":5395:5474   */\n      tag_456\n      tag_336\n      jump\t// in\n    tag_456:\n        /* \"#utility.yul\":5364:5476   */\n    tag_455:\n        /* \"#utility.yul\":5485:5539   */\n      tag_457\n        /* \"#utility.yul\":5532:5538   */\n      dup5\n        /* \"#utility.yul\":5527:5530   */\n      dup3\n        /* \"#utility.yul\":5522:5525   */\n      dup6\n        /* \"#utility.yul\":5485:5539   */\n      tag_341\n      jump\t// in\n    tag_457:\n        /* \"#utility.yul\":5204:5545   */\n      pop\n        /* \"#utility.yul\":5120:5545   */\n      swap4\n      swap3\n      pop\n      pop\n      pop\n      jump\t// out\n        /* \"#utility.yul\":5565:5905   */\n    tag_343:\n        /* \"#utility.yul\":5621:5626   */\n      0x00\n        /* \"#utility.yul\":5670:5673   */\n      dup3\n        /* \"#utility.yul\":5663:5667   */\n      0x1f\n        /* \"#utility.yul\":5655:5661   */\n      dup4\n        /* \"#utility.yul\":5651:5668   */\n      add\n        /* \"#utility.yul\":5647:5674   */\n      slt\n        /* \"#utility.yul\":5637:5759   */\n      tag_459\n      jumpi\n        /* \"#utility.yul\":5678:5757   */\n      tag_460\n      tag_335\n      jump\t// in\n    tag_460:\n        /* \"#utility.yul\":5637:5759   */\n    tag_459:\n        /* \"#utility.yul\":5795:5801   */\n      dup2\n        /* \"#utility.yul\":5782:5802   */\n      calldataload\n        /* \"#utility.yul\":5820:5899   */\n      tag_461\n        /* \"#utility.yul\":5895:5898   */\n      dup5\n        /* \"#utility.yul\":5887:5893   */\n      dup3\n        /* \"#utility.yul\":5880:5884   */\n      0x20\n        /* \"#utility.yul\":5872:5878   */\n      dup7\n        /* \"#utility.yul\":5868:5885   */\n      add\n        /* \"#utility.yul\":5820:5899   */\n      tag_342\n      jump\t// in\n    tag_461:\n        /* \"#utility.yul\":5811:5899   */\n      swap2\n      pop\n        /* \"#utility.yul\":5627:5905   */\n      pop\n        /* \"#utility.yul\":5565:5905   */\n      swap3\n      swap2\n      pop\n      pop\n      jump\t// out\n        /* \"#utility.yul\":5911:6420   */\n    tag_52:\n        /* \"#utility.yul\":5980:5986   */\n      0x00\n        /* \"#utility.yul\":6029:6031   */\n      0x20\n        /* \"#utility.yul\":6017:6026   */\n      dup3\n        /* \"#utility.yul\":6008:6015   */\n      dup5\n        /* \"#utility.yul\":6004:6027   */\n      sub\n        /* \"#utility.yul\":6000:6032   */\n      slt\n        /* \"#utility.yul\":5997:6116   */\n      iszero\n      tag_463\n      jumpi\n        /* \"#utility.yul\":6035:6114   */\n      tag_464\n      tag_319\n      jump\t// in\n    tag_464:\n        /* \"#utility.yul\":5997:6116   */\n    tag_463:\n        /* \"#utility.yul\":6183:6184   */\n      0x00\n        /* \"#utility.yul\":6172:6181   */\n      dup3\n        /* \"#utility.yul\":6168:6185   */\n      add\n        /* \"#utility.yul\":6155:6186   */\n      calldataload\n        /* \"#utility.yul\":6213:6231   */\n      0xffffffffffffffff\n        /* \"#utility.yul\":6205:6211   */\n      dup2\n        /* \"#utility.yul\":6202:6232   */\n      gt\n        /* \"#utility.yul\":6199:6316   */\n      iszero\n      tag_465\n      jumpi\n        /* \"#utility.yul\":6235:6314   */\n      tag_466\n      tag_320\n      jump\t// in\n    tag_466:\n        /* \"#utility.yul\":6199:6316   */\n    tag_465:\n        /* \"#utility.yul\":6340:6403   */\n      tag_467\n        /* \"#utility.yul\":6395:6402   */\n      dup5\n        /* \"#utility.yul\":6386:6392   */\n      dup3\n        /* \"#utility.yul\":6375:6384   */\n      dup6\n        /* \"#utility.yul\":6371:6393   */\n      add\n        /* \"#utility.yul\":6340:6403   */\n      tag_343\n      jump\t// in\n    tag_467:\n        /* \"#utility.yul\":6330:6403   */\n      swap2\n      pop\n        /* \"#utility.yul\":6126:6413   */\n      pop\n        /* \"#utility.yul\":5911:6420   */\n      swap3\n      swap2\n      pop\n      pop\n      jump\t// out\n        /* \"#utility.yul\":6426:7045   */\n    tag_56:\n        /* \"#utility.yul\":6503:6509   */\n      0x00\n        /* \"#utility.yul\":6511:6517   */\n      dup1\n        /* \"#utility.yul\":6519:6525   */\n      0x00\n        /* \"#utility.yul\":6568:6570   */\n      0x60\n        /* \"#utility.yul\":6556:6565   */\n      dup5\n        /* \"#utility.yul\":6547:6554   */\n      dup7\n        /* \"#utility.yul\":6543:6566   */\n      sub\n        /* \"#utility.yul\":6539:6571   */\n      slt\n        /* \"#utility.yul\":6536:6655   */\n      iszero\n      tag_469\n      jumpi\n        /* \"#utility.yul\":6574:6653   */\n      tag_470\n      tag_319\n      jump\t// in\n    tag_470:\n        /* \"#utility.yul\":6536:6655   */\n    tag_469:\n        /* \"#utility.yul\":6694:6695   */\n      0x00\n        /* \"#utility.yul\":6719:6772   */\n      tag_471\n        /* \"#utility.yul\":6764:6771   */\n      dup7\n        /* \"#utility.yul\":6755:6761   */\n      dup3\n        /* \"#utility.yul\":6744:6753   */\n      dup8\n        /* \"#utility.yul\":6740:6762   */\n      add\n        /* \"#utility.yul\":6719:6772   */\n      tag_323\n      jump\t// in\n    tag_471:\n        /* \"#utility.yul\":6709:6772   */\n      swap4\n      pop\n        /* \"#utility.yul\":6665:6782   */\n      pop\n        /* \"#utility.yul\":6821:6823   */\n      0x20\n        /* \"#utility.yul\":6847:6900   */\n      tag_472\n        /* \"#utility.yul\":6892:6899   */\n      dup7\n        /* \"#utility.yul\":6883:6889   */\n      dup3\n        /* \"#utility.yul\":6872:6881   */\n      dup8\n        /* \"#utility.yul\":6868:6890   */\n      add\n        /* \"#utility.yul\":6847:6900   */\n      tag_328\n      jump\t// in\n    tag_472:\n        /* \"#utility.yul\":6837:6900   */\n      swap3\n      pop\n        /* \"#utility.yul\":6792:6910   */\n      pop\n        /* \"#utility.yul\":6949:6951   */\n      0x40\n        /* \"#utility.yul\":6975:7028   */\n      tag_473\n        /* \"#utility.yul\":7020:7027   */\n      dup7\n        /* \"#utility.yul\":7011:7017   */\n      dup3\n        /* \"#utility.yul\":7000:7009   */\n      dup8\n        /* \"#utility.yul\":6996:7018   */\n      add\n        /* \"#utility.yul\":6975:7028   */\n      tag_323\n      jump\t// in\n    tag_473:\n        /* \"#utility.yul\":6965:7028   */\n      swap2\n      pop\n        /* \"#utility.yul\":6920:7038   */\n      pop\n        /* \"#utility.yul\":6426:7045   */\n      swap3\n      pop\n      swap3\n      pop\n      swap3\n      jump\t// out\n        /* \"#utility.yul\":7051:7141   */\n    tag_344:\n        /* \"#utility.yul\":7085:7092   */\n      0x00\n        /* \"#utility.yul\":7128:7133   */\n      dup2\n        /* \"#utility.yul\":7121:7134   */\n      iszero\n        /* \"#utility.yul\":7114:7135   */\n      iszero\n        /* \"#utility.yul\":7103:7135   */\n      swap1\n      pop\n        /* \"#utility.yul\":7051:7141   */\n      swap2\n      swap1\n      pop\n      jump\t// out\n        /* \"#utility.yul\":7147:7256   */\n    tag_345:\n        /* \"#utility.yul\":7228:7249   */\n      tag_476\n        /* \"#utility.yul\":7243:7248   */\n      dup2\n        /* \"#utility.yul\":7228:7249   */\n      tag_344\n      jump\t// in\n    tag_476:\n        /* \"#utility.yul\":7223:7226   */\n      dup3\n        /* \"#utility.yul\":7216:7250   */\n      mstore\n        /* \"#utility.yul\":7147:7256   */\n      pop\n      pop\n      jump\t// out\n        /* \"#utility.yul\":7262:7472   */\n    tag_68:\n        /* \"#utility.yul\":7349:7353   */\n      0x00\n        /* \"#utility.yul\":7387:7389   */\n      0x20\n        /* \"#utility.yul\":7376:7385   */\n      dup3\n        /* \"#utility.yul\":7372:7390   */\n      add\n        /* \"#utility.yul\":7364:7390   */\n      swap1\n      pop\n        /* \"#utility.yul\":7400:7465   */\n      tag_478\n        /* \"#utility.yul\":7462:7463   */\n      0x00\n        /* \"#utility.yul\":7451:7460   */\n      dup4\n        /* \"#utility.yul\":7447:7464   */\n      add\n        /* \"#utility.yul\":7438:7444   */\n      dup5\n        /* \"#utility.yul\":7400:7465   */\n      tag_345\n      jump\t// in\n    tag_478:\n        /* \"#utility.yul\":7262:7472   */\n      swap3\n      swap2\n      pop\n      pop\n      jump\t// out\n        /* \"#utility.yul\":7478:7700   */\n    tag_80:\n        /* \"#utility.yul\":7571:7575   */\n      0x00\n        /* \"#utility.yul\":7609:7611   */\n      0x20\n        /* \"#utility.yul\":7598:7607   */\n      dup3\n        /* \"#utility.yul\":7594:7612   */\n      add\n        /* \"#utility.yul\":7586:7612   */\n      swap1\n      pop\n        /* \"#utility.yul\":7622:7693   */\n      tag_480\n        /* \"#utility.yul\":7690:7691   */\n      0x00\n        /* \"#utility.yul\":7679:7688   */\n      dup4\n        /* \"#utility.yul\":7675:7692   */\n      add\n        /* \"#utility.yul\":7666:7672   */\n      dup5\n        /* \"#utility.yul\":7622:7693   */\n      tag_334\n      jump\t// in\n    tag_480:\n        /* \"#utility.yul\":7478:7700   */\n      swap3\n      swap2\n      pop\n      pop\n      jump\t// out\n        /* \"#utility.yul\":7706:8180   */\n    tag_83:\n        /* \"#utility.yul\":7774:7780   */\n      0x00\n        /* \"#utility.yul\":7782:7788   */\n      dup1\n        /* \"#utility.yul\":7831:7833   */\n      0x40\n        /* \"#utility.yul\":7819:7828   */\n      dup4\n        /* \"#utility.yul\":7810:7817   */\n      dup6\n        /* \"#utility.yul\":7806:7829   */\n      sub\n        /* \"#utility.yul\":7802:7834   */\n      slt\n        /* \"#utility.yul\":7799:7918   */\n      iszero\n      tag_482\n      jumpi\n        /* \"#utility.yul\":7837:7916   */\n      tag_483\n      tag_319\n      jump\t// in\n    tag_483:\n        /* \"#utility.yul\":7799:7918   */\n    tag_482:\n        /* \"#utility.yul\":7957:7958   */\n      0x00\n        /* \"#utility.yul\":7982:8035   */\n      tag_484\n        /* \"#utility.yul\":8027:8034   */\n      dup6\n        /* \"#utility.yul\":8018:8024   */\n      dup3\n        /* \"#utility.yul\":8007:8016   */\n      dup7\n        /* \"#utility.yul\":8003:8025   */\n      add\n        /* \"#utility.yul\":7982:8035   */\n      tag_323\n      jump\t// in\n    tag_484:\n        /* \"#utility.yul\":7972:8035   */\n      swap3\n      pop\n        /* \"#utility.yul\":7928:8045   */\n      pop\n        /* \"#utility.yul\":8084:8086   */\n      0x20\n        /* \"#utility.yul\":8110:8163   */\n      tag_485\n        /* \"#utility.yul\":8155:8162   */\n      dup6\n        /* \"#utility.yul\":8146:8152   */\n      dup3\n        /* \"#utility.yul\":8135:8144   */\n      dup7\n        /* \"#utility.yul\":8131:8153   */\n      add\n        /* \"#utility.yul\":8110:8163   */\n      tag_328\n      jump\t// in\n    tag_485:\n        /* \"#utility.yul\":8100:8163   */\n      swap2\n      pop\n        /* \"#utility.yul\":8055:8173   */\n      pop\n        /* \"#utility.yul\":7706:8180   */\n      swap3\n      pop\n      swap3\n      swap1\n      pop\n      jump\t// out\n        /* \"#utility.yul\":8186:8323   */\n    tag_346:\n        /* \"#utility.yul\":8276:8282   */\n      0x00\n        /* \"#utility.yul\":8310:8315   */\n      dup2\n        /* \"#utility.yul\":8304:8316   */\n      mload\n        /* \"#utility.yul\":8294:8316   */\n      swap1\n      pop\n        /* \"#utility.yul\":8186:8323   */\n      swap2\n      swap1\n      pop\n      jump\t// out\n        /* \"#utility.yul\":8329:8536   */\n    tag_347:\n        /* \"#utility.yul\":8451:8462   */\n      0x00\n        /* \"#utility.yul\":8485:8491   */\n      dup3\n        /* \"#utility.yul\":8480:8483   */\n      dup3\n        /* \"#utility.yul\":8473:8492   */\n      mstore\n        /* \"#utility.yul\":8525:8529   */\n      0x20\n        /* \"#utility.yul\":8520:8523   */\n      dup3\n        /* \"#utility.yul\":8516:8530   */\n      add\n        /* \"#utility.yul\":8501:8530   */\n      swap1\n      pop\n        /* \"#utility.yul\":8329:8536   */\n      swap3\n      swap2\n      pop\n      pop\n      jump\t// out\n        /* \"#utility.yul\":8542:8697   */\n    tag_348:\n        /* \"#utility.yul\":8632:8636   */\n      0x00\n        /* \"#utility.yul\":8655:8658   */\n      dup2\n        /* \"#utility.yul\":8647:8658   */\n      swap1\n      pop\n        /* \"#utility.yul\":8685:8689   */\n      0x20\n        /* \"#utility.yul\":8680:8683   */\n      dup3\n        /* \"#utility.yul\":8676:8690   */\n      add\n        /* \"#utility.yul\":8668:8690   */\n      swap1\n      pop\n        /* \"#utility.yul\":8542:8697   */\n      swap2\n      swap1\n      pop\n      jump\t// out\n        /* \"#utility.yul\":8703:8811   */\n    tag_349:\n        /* \"#utility.yul\":8780:8804   */\n      tag_490\n        /* \"#utility.yul\":8798:8803   */\n      dup2\n        /* \"#utility.yul\":8780:8804   */\n      tag_326\n      jump\t// in\n    tag_490:\n        /* \"#utility.yul\":8775:8778   */\n      dup3\n        /* \"#utility.yul\":8768:8805   */\n      mstore\n        /* \"#utility.yul\":8703:8811   */\n      pop\n      pop\n      jump\t// out\n        /* \"#utility.yul\":8817:8925   */\n    tag_350:\n        /* \"#utility.yul\":8894:8918   */\n      tag_492\n        /* \"#utility.yul\":8912:8917   */\n      dup2\n        /* \"#utility.yul\":8894:8918   */\n      tag_321\n      jump\t// in\n    tag_492:\n        /* \"#utility.yul\":8889:8892   */\n      dup3\n        /* \"#utility.yul\":8882:8919   */\n      mstore\n        /* \"#utility.yul\":8817:8925   */\n      pop\n      pop\n      jump\t// out\n        /* \"#utility.yul\":8989:9678   */\n    tag_351:\n        /* \"#utility.yul\":9122:9126   */\n      0x60\n        /* \"#utility.yul\":9117:9120   */\n      dup3\n        /* \"#utility.yul\":9113:9127   */\n      add\n        /* \"#utility.yul\":9218:9222   */\n      0x00\n        /* \"#utility.yul\":9211:9216   */\n      dup3\n        /* \"#utility.yul\":9207:9223   */\n      add\n        /* \"#utility.yul\":9201:9224   */\n      mload\n        /* \"#utility.yul\":9237:9300   */\n      tag_494\n        /* \"#utility.yul\":9294:9298   */\n      0x00\n        /* \"#utility.yul\":9289:9292   */\n      dup6\n        /* \"#utility.yul\":9285:9299   */\n      add\n        /* \"#utility.yul\":9271:9283   */\n      dup3\n        /* \"#utility.yul\":9237:9300   */\n      tag_349\n      jump\t// in\n    tag_494:\n        /* \"#utility.yul\":9137:9310   */\n      pop\n        /* \"#utility.yul\":9400:9404   */\n      0x20\n        /* \"#utility.yul\":9393:9398   */\n      dup3\n        /* \"#utility.yul\":9389:9405   */\n      add\n        /* \"#utility.yul\":9383:9406   */\n      mload\n        /* \"#utility.yul\":9419:9482   */\n      tag_495\n        /* \"#utility.yul\":9476:9480   */\n      0x20\n        /* \"#utility.yul\":9471:9474   */\n      dup6\n        /* \"#utility.yul\":9467:9481   */\n      add\n        /* \"#utility.yul\":9453:9465   */\n      dup3\n        /* \"#utility.yul\":9419:9482   */\n      tag_349\n      jump\t// in\n    tag_495:\n        /* \"#utility.yul\":9320:9492   */\n      pop\n        /* \"#utility.yul\":9579:9583   */\n      0x40\n        /* \"#utility.yul\":9572:9577   */\n      dup3\n        /* \"#utility.yul\":9568:9584   */\n      add\n        /* \"#utility.yul\":9562:9585   */\n      mload\n        /* \"#utility.yul\":9598:9661   */\n      tag_496\n        /* \"#utility.yul\":9655:9659   */\n      0x40\n        /* \"#utility.yul\":9650:9653   */\n      dup6\n        /* \"#utility.yul\":9646:9660   */\n      add\n        /* \"#utility.yul\":9632:9644   */\n      dup3\n        /* \"#utility.yul\":9598:9661   */\n      tag_350\n      jump\t// in\n    tag_496:\n        /* \"#utility.yul\":9502:9671   */\n      pop\n        /* \"#utility.yul\":9091:9678   */\n      pop\n        /* \"#utility.yul\":8989:9678   */\n      pop\n      pop\n      jump\t// out\n        /* \"#utility.yul\":9684:9955   */\n    tag_352:\n        /* \"#utility.yul\":9799:9809   */\n      0x00\n        /* \"#utility.yul\":9820:9912   */\n      tag_498\n        /* \"#utility.yul\":9908:9911   */\n      dup4\n        /* \"#utility.yul\":9900:9906   */\n      dup4\n        /* \"#utility.yul\":9820:9912   */\n      tag_351\n      jump\t// in\n    tag_498:\n        /* \"#utility.yul\":9944:9948   */\n      0x60\n        /* \"#utility.yul\":9939:9942   */\n      dup4\n        /* \"#utility.yul\":9935:9949   */\n      add\n        /* \"#utility.yul\":9921:9949   */\n      swap1\n      pop\n        /* \"#utility.yul\":9684:9955   */\n      swap3\n      swap2\n      pop\n      pop\n      jump\t// out\n        /* \"#utility.yul\":9961:10097   */\n    tag_353:\n        /* \"#utility.yul\":10054:10058   */\n      0x00\n        /* \"#utility.yul\":10086:10090   */\n      0x20\n        /* \"#utility.yul\":10081:10084   */\n      dup3\n        /* \"#utility.yul\":10077:10091   */\n      add\n        /* \"#utility.yul\":10069:10091   */\n      swap1\n      pop\n        /* \"#utility.yul\":9961:10097   */\n      swap2\n      swap1\n      pop\n      jump\t// out\n        /* \"#utility.yul\":10165:11081   */\n    tag_354:\n        /* \"#utility.yul\":10330:10333   */\n      0x00\n        /* \"#utility.yul\":10359:10436   */\n      tag_501\n        /* \"#utility.yul\":10430:10435   */\n      dup3\n        /* \"#utility.yul\":10359:10436   */\n      tag_346\n      jump\t// in\n    tag_501:\n        /* \"#utility.yul\":10452:10561   */\n      tag_502\n        /* \"#utility.yul\":10554:10560   */\n      dup2\n        /* \"#utility.yul\":10549:10552   */\n      dup6\n        /* \"#utility.yul\":10452:10561   */\n      tag_347\n      jump\t// in\n    tag_502:\n        /* \"#utility.yul\":10445:10561   */\n      swap4\n      pop\n        /* \"#utility.yul\":10585:10664   */\n      tag_503\n        /* \"#utility.yul\":10658:10663   */\n      dup4\n        /* \"#utility.yul\":10585:10664   */\n      tag_348\n      jump\t// in\n    tag_503:\n        /* \"#utility.yul\":10687:10694   */\n      dup1\n        /* \"#utility.yul\":10718:10719   */\n      0x00\n        /* \"#utility.yul\":10703:11056   */\n    tag_504:\n        /* \"#utility.yul\":10728:10734   */\n      dup4\n        /* \"#utility.yul\":10725:10726   */\n      dup2\n        /* \"#utility.yul\":10722:10735   */\n      lt\n        /* \"#utility.yul\":10703:11056   */\n      iszero\n      tag_506\n      jumpi\n        /* \"#utility.yul\":10804:10810   */\n      dup2\n        /* \"#utility.yul\":10798:10811   */\n      mload\n        /* \"#utility.yul\":10831:10940   */\n      tag_507\n        /* \"#utility.yul\":10936:10939   */\n      dup9\n        /* \"#utility.yul\":10921:10934   */\n      dup3\n        /* \"#utility.yul\":10831:10940   */\n      tag_352\n      jump\t// in\n    tag_507:\n        /* \"#utility.yul\":10824:10940   */\n      swap8\n      pop\n        /* \"#utility.yul\":10963:11046   */\n      tag_508\n        /* \"#utility.yul\":11039:11045   */\n      dup4\n        /* \"#utility.yul\":10963:11046   */\n      tag_353\n      jump\t// in\n    tag_508:\n        /* \"#utility.yul\":10953:11046   */\n      swap3\n      pop\n        /* \"#utility.yul\":10763:11056   */\n      pop\n        /* \"#utility.yul\":10750:10751   */\n      0x01\n        /* \"#utility.yul\":10747:10748   */\n      dup2\n        /* \"#utility.yul\":10743:10752   */\n      add\n        /* \"#utility.yul\":10738:10752   */\n      swap1\n      pop\n        /* \"#utility.yul\":10703:11056   */\n      jump(tag_504)\n    tag_506:\n        /* \"#utility.yul\":10707:10721   */\n      pop\n        /* \"#utility.yul\":11072:11075   */\n      dup6\n        /* \"#utility.yul\":11065:11075   */\n      swap4\n      pop\n        /* \"#utility.yul\":10335:11081   */\n      pop\n      pop\n      pop\n        /* \"#utility.yul\":10165:11081   */\n      swap3\n      swap2\n      pop\n      pop\n      jump\t// out\n        /* \"#utility.yul\":11087:11552   */\n    tag_100:\n        /* \"#utility.yul\":11276:11280   */\n      0x00\n        /* \"#utility.yul\":11314:11316   */\n      0x20\n        /* \"#utility.yul\":11303:11312   */\n      dup3\n        /* \"#utility.yul\":11299:11317   */\n      add\n        /* \"#utility.yul\":11291:11317   */\n      swap1\n      pop\n        /* \"#utility.yul\":11363:11372   */\n      dup2\n        /* \"#utility.yul\":11357:11361   */\n      dup2\n        /* \"#utility.yul\":11353:11373   */\n      sub\n        /* \"#utility.yul\":11349:11350   */\n      0x00\n        /* \"#utility.yul\":11338:11347   */\n      dup4\n        /* \"#utility.yul\":11334:11351   */\n      add\n        /* \"#utility.yul\":11327:11374   */\n      mstore\n        /* \"#utility.yul\":11391:11545   */\n      tag_510\n        /* \"#utility.yul\":11540:11544   */\n      dup2\n        /* \"#utility.yul\":11531:11537   */\n      dup5\n        /* \"#utility.yul\":11391:11545   */\n      tag_354\n      jump\t// in\n    tag_510:\n        /* \"#utility.yul\":11383:11545   */\n      swap1\n      pop\n        /* \"#utility.yul\":11087:11552   */\n      swap3\n      swap2\n      pop\n      pop\n      jump\t// out\n        /* \"#utility.yul\":11558:11722   */\n    tag_355:\n        /* \"#utility.yul\":11698:11714   */\n      0x63616e7420646f206974206e6f77000000000000000000000000000000000000\n        /* \"#utility.yul\":11694:11695   */\n      0x00\n        /* \"#utility.yul\":11686:11692   */\n      dup3\n        /* \"#utility.yul\":11682:11696   */\n      add\n        /* \"#utility.yul\":11675:11715   */\n      mstore\n        /* \"#utility.yul\":11558:11722   */\n      pop\n      jump\t// out\n        /* \"#utility.yul\":11728:12094   */\n    tag_356:\n        /* \"#utility.yul\":11870:11873   */\n      0x00\n        /* \"#utility.yul\":11891:11958   */\n      tag_513\n        /* \"#utility.yul\":11955:11957   */\n      0x0e\n        /* \"#utility.yul\":11950:11953   */\n      dup4\n        /* \"#utility.yul\":11891:11958   */\n      tag_330\n      jump\t// in\n    tag_513:\n        /* \"#utility.yul\":11884:11958   */\n      swap2\n      pop\n        /* \"#utility.yul\":11967:12060   */\n      tag_514\n        /* \"#utility.yul\":12056:12059   */\n      dup3\n        /* \"#utility.yul\":11967:12060   */\n      tag_355\n      jump\t// in\n    tag_514:\n        /* \"#utility.yul\":12085:12087   */\n      0x20\n        /* \"#utility.yul\":12080:12083   */\n      dup3\n        /* \"#utility.yul\":12076:12088   */\n      add\n        /* \"#utility.yul\":12069:12088   */\n      swap1\n      pop\n        /* \"#utility.yul\":11728:12094   */\n      swap2\n      swap1\n      pop\n      jump\t// out\n        /* \"#utility.yul\":12100:12519   */\n    tag_120:\n        /* \"#utility.yul\":12266:12270   */\n      0x00\n        /* \"#utility.yul\":12304:12306   */\n      0x20\n        /* \"#utility.yul\":12293:12302   */\n      dup3\n        /* \"#utility.yul\":12289:12307   */\n      add\n        /* \"#utility.yul\":12281:12307   */\n      swap1\n      pop\n        /* \"#utility.yul\":12353:12362   */\n      dup2\n        /* \"#utility.yul\":12347:12351   */\n      dup2\n        /* \"#utility.yul\":12343:12363   */\n      sub\n        /* \"#utility.yul\":12339:12340   */\n      0x00\n        /* \"#utility.yul\":12328:12337   */\n      dup4\n        /* \"#utility.yul\":12324:12341   */\n      add\n        /* \"#utility.yul\":12317:12364   */\n      mstore\n        /* \"#utility.yul\":12381:12512   */\n      tag_516\n        /* \"#utility.yul\":12507:12511   */\n      dup2\n        /* \"#utility.yul\":12381:12512   */\n      tag_356\n      jump\t// in\n    tag_516:\n        /* \"#utility.yul\":12373:12512   */\n      swap1\n      pop\n        /* \"#utility.yul\":12100:12519   */\n      swap2\n      swap1\n      pop\n      jump\t// out\n        /* \"#utility.yul\":12525:12691   */\n    tag_357:\n        /* \"#utility.yul\":12665:12683   */\n      0x616f7574206f66206f72646572206e6f00000000000000000000000000000000\n        /* \"#utility.yul\":12661:12662   */\n      0x00\n        /* \"#utility.yul\":12653:12659   */\n      dup3\n        /* \"#utility.yul\":12649:12663   */\n      add\n        /* \"#utility.yul\":12642:12684   */\n      mstore\n        /* \"#utility.yul\":12525:12691   */\n      pop\n      jump\t// out\n        /* \"#utility.yul\":12697:13063   */\n    tag_358:\n        /* \"#utility.yul\":12839:12842   */\n      0x00\n        /* \"#utility.yul\":12860:12927   */\n      tag_519\n        /* \"#utility.yul\":12924:12926   */\n      0x10\n        /* \"#utility.yul\":12919:12922   */\n      dup4\n        /* \"#utility.yul\":12860:12927   */\n      tag_330\n      jump\t// in\n    tag_519:\n        /* \"#utility.yul\":12853:12927   */\n      swap2\n      pop\n        /* \"#utility.yul\":12936:13029   */\n      tag_520\n        /* \"#utility.yul\":13025:13028   */\n      dup3\n        /* \"#utility.yul\":12936:13029   */\n      tag_357\n      jump\t// in\n    tag_520:\n        /* \"#utility.yul\":13054:13056   */\n      0x20\n        /* \"#utility.yul\":13049:13052   */\n      dup3\n        /* \"#utility.yul\":13045:13057   */\n      add\n        /* \"#utility.yul\":13038:13057   */\n      swap1\n      pop\n        /* \"#utility.yul\":12697:13063   */\n      swap2\n      swap1\n      pop\n      jump\t// out\n        /* \"#utility.yul\":13069:13488   */\n    tag_123:\n        /* \"#utility.yul\":13235:13239   */\n      0x00\n        /* \"#utility.yul\":13273:13275   */\n      0x20\n        /* \"#utility.yul\":13262:13271   */\n      dup3\n        /* \"#utility.yul\":13258:13276   */\n      add\n        /* \"#utility.yul\":13250:13276   */\n      swap1\n      pop\n        /* \"#utility.yul\":13322:13331   */\n      dup2\n        /* \"#utility.yul\":13316:13320   */\n      dup2\n        /* \"#utility.yul\":13312:13332   */\n      sub\n        /* \"#utility.yul\":13308:13309   */\n      0x00\n        /* \"#utility.yul\":13297:13306   */\n      dup4\n        /* \"#utility.yul\":13293:13310   */\n      add\n        /* \"#utility.yul\":13286:13333   */\n      mstore\n        /* \"#utility.yul\":13350:13481   */\n      tag_522\n        /* \"#utility.yul\":13476:13480   */\n      dup2\n        /* \"#utility.yul\":13350:13481   */\n      tag_358\n      jump\t// in\n    tag_522:\n        /* \"#utility.yul\":13342:13481   */\n      swap1\n      pop\n        /* \"#utility.yul\":13069:13488   */\n      swap2\n      swap1\n      pop\n      jump\t// out\n        /* \"#utility.yul\":13494:13637   */\n    tag_359:\n        /* \"#utility.yul\":13551:13556   */\n      0x00\n        /* \"#utility.yul\":13582:13588   */\n      dup2\n        /* \"#utility.yul\":13576:13589   */\n      mload\n        /* \"#utility.yul\":13567:13589   */\n      swap1\n      pop\n        /* \"#utility.yul\":13598:13631   */\n      tag_524\n        /* \"#utility.yul\":13625:13630   */\n      dup2\n        /* \"#utility.yul\":13598:13631   */\n      tag_322\n      jump\t// in\n    tag_524:\n        /* \"#utility.yul\":13494:13637   */\n      swap3\n      swap2\n      pop\n      pop\n      jump\t// out\n        /* \"#utility.yul\":13643:13994   */\n    tag_128:\n        /* \"#utility.yul\":13713:13719   */\n      0x00\n        /* \"#utility.yul\":13762:13764   */\n      0x20\n        /* \"#utility.yul\":13750:13759   */\n      dup3\n        /* \"#utility.yul\":13741:13748   */\n      dup5\n        /* \"#utility.yul\":13737:13760   */\n      sub\n        /* \"#utility.yul\":13733:13765   */\n      slt\n        /* \"#utility.yul\":13730:13849   */\n      iszero\n      tag_526\n      jumpi\n        /* \"#utility.yul\":13768:13847   */\n      tag_527\n      tag_319\n      jump\t// in\n    tag_527:\n        /* \"#utility.yul\":13730:13849   */\n    tag_526:\n        /* \"#utility.yul\":13888:13889   */\n      0x00\n        /* \"#utility.yul\":13913:13977   */\n      tag_528\n        /* \"#utility.yul\":13969:13976   */\n      dup5\n        /* \"#utility.yul\":13960:13966   */\n      dup3\n        /* \"#utility.yul\":13949:13958   */\n      dup6\n        /* \"#utility.yul\":13945:13967   */\n      add\n        /* \"#utility.yul\":13913:13977   */\n      tag_359\n      jump\t// in\n    tag_528:\n        /* \"#utility.yul\":13903:13977   */\n      swap2\n      pop\n        /* \"#utility.yul\":13859:13987   */\n      pop\n        /* \"#utility.yul\":13643:13994   */\n      swap3\n      swap2\n      pop\n      pop\n      jump\t// out\n        /* \"#utility.yul\":14000:14166   */\n    tag_360:\n        /* \"#utility.yul\":14140:14158   */\n      0x646f6e74206f776e20746865206e667400000000000000000000000000000000\n        /* \"#utility.yul\":14136:14137   */\n      0x00\n        /* \"#utility.yul\":14128:14134   */\n      dup3\n        /* \"#utility.yul\":14124:14138   */\n      add\n        /* \"#utility.yul\":14117:14159   */\n      mstore\n        /* \"#utility.yul\":14000:14166   */\n      pop\n      jump\t// out\n        /* \"#utility.yul\":14172:14538   */\n    tag_361:\n        /* \"#utility.yul\":14314:14317   */\n      0x00\n        /* \"#utility.yul\":14335:14402   */\n      tag_531\n        /* \"#utility.yul\":14399:14401   */\n      0x10\n        /* \"#utility.yul\":14394:14397   */\n      dup4\n        /* \"#utility.yul\":14335:14402   */\n      tag_330\n      jump\t// in\n    tag_531:\n        /* \"#utility.yul\":14328:14402   */\n      swap2\n      pop\n        /* \"#utility.yul\":14411:14504   */\n      tag_532\n        /* \"#utility.yul\":14500:14503   */\n      dup3\n        /* \"#utility.yul\":14411:14504   */\n      tag_360\n      jump\t// in\n    tag_532:\n        /* \"#utility.yul\":14529:14531   */\n      0x20\n        /* \"#utility.yul\":14524:14527   */\n      dup3\n        /* \"#utility.yul\":14520:14532   */\n      add\n        /* \"#utility.yul\":14513:14532   */\n      swap1\n      pop\n        /* \"#utility.yul\":14172:14538   */\n      swap2\n      swap1\n      pop\n      jump\t// out\n        /* \"#utility.yul\":14544:14963   */\n    tag_131:\n        /* \"#utility.yul\":14710:14714   */\n      0x00\n        /* \"#utility.yul\":14748:14750   */\n      0x20\n        /* \"#utility.yul\":14737:14746   */\n      dup3\n        /* \"#utility.yul\":14733:14751   */\n      add\n        /* \"#utility.yul\":14725:14751   */\n      swap1\n      pop\n        /* \"#utility.yul\":14797:14806   */\n      dup2\n        /* \"#utility.yul\":14791:14795   */\n      dup2\n        /* \"#utility.yul\":14787:14807   */\n      sub\n        /* \"#utility.yul\":14783:14784   */\n      0x00\n        /* \"#utility.yul\":14772:14781   */\n      dup4\n        /* \"#utility.yul\":14768:14785   */\n      add\n        /* \"#utility.yul\":14761:14808   */\n      mstore\n        /* \"#utility.yul\":14825:14956   */\n      tag_534\n        /* \"#utility.yul\":14951:14955   */\n      dup2\n        /* \"#utility.yul\":14825:14956   */\n      tag_361\n      jump\t// in\n    tag_534:\n        /* \"#utility.yul\":14817:14956   */\n      swap1\n      pop\n        /* \"#utility.yul\":14544:14963   */\n      swap2\n      swap1\n      pop\n      jump\t// out\n        /* \"#utility.yul\":14969:15137   */\n    tag_362:\n        /* \"#utility.yul\":15109:15129   */\n      0x63616e2063617374206d6f726520766f74650000000000000000000000000000\n        /* \"#utility.yul\":15105:15106   */\n      0x00\n        /* \"#utility.yul\":15097:15103   */\n      dup3\n        /* \"#utility.yul\":15093:15107   */\n      add\n        /* \"#utility.yul\":15086:15130   */\n      mstore\n        /* \"#utility.yul\":14969:15137   */\n      pop\n      jump\t// out\n        /* \"#utility.yul\":15143:15509   */\n    tag_363:\n        /* \"#utility.yul\":15285:15288   */\n      0x00\n        /* \"#utility.yul\":15306:15373   */\n      tag_537\n        /* \"#utility.yul\":15370:15372   */\n      0x12\n        /* \"#utility.yul\":15365:15368   */\n      dup4\n        /* \"#utility.yul\":15306:15373   */\n      tag_330\n      jump\t// in\n    tag_537:\n        /* \"#utility.yul\":15299:15373   */\n      swap2\n      pop\n        /* \"#utility.yul\":15382:15475   */\n      tag_538\n        /* \"#utility.yul\":15471:15474   */\n      dup3\n        /* \"#utility.yul\":15382:15475   */\n      tag_362\n      jump\t// in\n    tag_538:\n        /* \"#utility.yul\":15500:15502   */\n      0x20\n        /* \"#utility.yul\":15495:15498   */\n      dup3\n        /* \"#utility.yul\":15491:15503   */\n      add\n        /* \"#utility.yul\":15484:15503   */\n      swap1\n      pop\n        /* \"#utility.yul\":15143:15509   */\n      swap2\n      swap1\n      pop\n      jump\t// out\n        /* \"#utility.yul\":15515:15934   */\n    tag_138:\n        /* \"#utility.yul\":15681:15685   */\n      0x00\n        /* \"#utility.yul\":15719:15721   */\n      0x20\n        /* \"#utility.yul\":15708:15717   */\n      dup3\n        /* \"#utility.yul\":15704:15722   */\n      add\n        /* \"#utility.yul\":15696:15722   */\n      swap1\n      pop\n        /* \"#utility.yul\":15768:15777   */\n      dup2\n        /* \"#utility.yul\":15762:15766   */\n      dup2\n        /* \"#utility.yul\":15758:15778   */\n      sub\n        /* \"#utility.yul\":15754:15755   */\n      0x00\n        /* \"#utility.yul\":15743:15752   */\n      dup4\n        /* \"#utility.yul\":15739:15756   */\n      add\n        /* \"#utility.yul\":15732:15779   */\n      mstore\n        /* \"#utility.yul\":15796:15927   */\n      tag_540\n        /* \"#utility.yul\":15922:15926   */\n      dup2\n        /* \"#utility.yul\":15796:15927   */\n      tag_363\n      jump\t// in\n    tag_540:\n        /* \"#utility.yul\":15788:15927   */\n      swap1\n      pop\n        /* \"#utility.yul\":15515:15934   */\n      swap2\n      swap1\n      pop\n      jump\t// out\n        /* \"#utility.yul\":15940:16083   */\n    tag_364:\n        /* \"#utility.yul\":15997:16002   */\n      0x00\n        /* \"#utility.yul\":16028:16034   */\n      dup2\n        /* \"#utility.yul\":16022:16035   */\n      mload\n        /* \"#utility.yul\":16013:16035   */\n      swap1\n      pop\n        /* \"#utility.yul\":16044:16077   */\n      tag_542\n        /* \"#utility.yul\":16071:16076   */\n      dup2\n        /* \"#utility.yul\":16044:16077   */\n      tag_327\n      jump\t// in\n    tag_542:\n        /* \"#utility.yul\":15940:16083   */\n      swap3\n      swap2\n      pop\n      pop\n      jump\t// out\n        /* \"#utility.yul\":16089:16440   */\n    tag_146:\n        /* \"#utility.yul\":16159:16165   */\n      0x00\n        /* \"#utility.yul\":16208:16210   */\n      0x20\n        /* \"#utility.yul\":16196:16205   */\n      dup3\n        /* \"#utility.yul\":16187:16194   */\n      dup5\n        /* \"#utility.yul\":16183:16206   */\n      sub\n        /* \"#utility.yul\":16179:16211   */\n      slt\n        /* \"#utility.yul\":16176:16295   */\n      iszero\n      tag_544\n      jumpi\n        /* \"#utility.yul\":16214:16293   */\n      tag_545\n      tag_319\n      jump\t// in\n    tag_545:\n        /* \"#utility.yul\":16176:16295   */\n    tag_544:\n        /* \"#utility.yul\":16334:16335   */\n      0x00\n        /* \"#utility.yul\":16359:16423   */\n      tag_546\n        /* \"#utility.yul\":16415:16422   */\n      dup5\n        /* \"#utility.yul\":16406:16412   */\n      dup3\n        /* \"#utility.yul\":16395:16404   */\n      dup6\n        /* \"#utility.yul\":16391:16413   */\n      add\n        /* \"#utility.yul\":16359:16423   */\n      tag_364\n      jump\t// in\n    tag_546:\n        /* \"#utility.yul\":16349:16423   */\n      swap2\n      pop\n        /* \"#utility.yul\":16305:16433   */\n      pop\n        /* \"#utility.yul\":16089:16440   */\n      swap3\n      swap2\n      pop\n      pop\n      jump\t// out\n        /* \"#utility.yul\":16446:16626   */\n    tag_365:\n        /* \"#utility.yul\":16494:16571   */\n      0x4e487b7100000000000000000000000000000000000000000000000000000000\n        /* \"#utility.yul\":16491:16492   */\n      0x00\n        /* \"#utility.yul\":16484:16572   */\n      mstore\n        /* \"#utility.yul\":16591:16595   */\n      0x11\n        /* \"#utility.yul\":16588:16589   */\n      0x04\n        /* \"#utility.yul\":16581:16596   */\n      mstore\n        /* \"#utility.yul\":16615:16619   */\n      0x24\n        /* \"#utility.yul\":16612:16613   */\n      0x00\n        /* \"#utility.yul\":16605:16620   */\n      revert\n        /* \"#utility.yul\":16632:16865   */\n    tag_150:\n        /* \"#utility.yul\":16671:16674   */\n      0x00\n        /* \"#utility.yul\":16694:16718   */\n      tag_549\n        /* \"#utility.yul\":16712:16717   */\n      dup3\n        /* \"#utility.yul\":16694:16718   */\n      tag_321\n      jump\t// in\n    tag_549:\n        /* \"#utility.yul\":16685:16718   */\n      swap2\n      pop\n        /* \"#utility.yul\":16740:16806   */\n      0xffffffffffffffffffffffffffffffffffffffffffffffffffffffffffffffff\n        /* \"#utility.yul\":16733:16738   */\n      dup3\n        /* \"#utility.yul\":16730:16807   */\n      sub\n        /* \"#utility.yul\":16727:16830   */\n      tag_550\n      jumpi\n        /* \"#utility.yul\":16810:16828   */\n      tag_551\n      tag_365\n      jump\t// in\n    tag_551:\n        /* \"#utility.yul\":16727:16830   */\n    tag_550:\n        /* \"#utility.yul\":16857:16858   */\n      0x01\n        /* \"#utility.yul\":16850:16855   */\n      dup3\n        /* \"#utility.yul\":16846:16859   */\n      add\n        /* \"#utility.yul\":16839:16859   */\n      swap1\n      pop\n        /* \"#utility.yul\":16632:16865   */\n      swap2\n      swap1\n      pop\n      jump\t// out\n        /* \"#utility.yul\":16871:17051   */\n    tag_366:\n        /* \"#utility.yul\":16919:16996   */\n      0x4e487b7100000000000000000000000000000000000000000000000000000000\n        /* \"#utility.yul\":16916:16917   */\n      0x00\n        /* \"#utility.yul\":16909:16997   */\n      mstore\n        /* \"#utility.yul\":17016:17020   */\n      0x22\n        /* \"#utility.yul\":17013:17014   */\n      0x04\n        /* \"#utility.yul\":17006:17021   */\n      mstore\n        /* \"#utility.yul\":17040:17044   */\n      0x24\n        /* \"#utility.yul\":17037:17038   */\n      0x00\n        /* \"#utility.yul\":17030:17045   */\n      revert\n        /* \"#utility.yul\":17057:17377   */\n    tag_159:\n        /* \"#utility.yul\":17101:17107   */\n      0x00\n        /* \"#utility.yul\":17138:17139   */\n      0x02\n        /* \"#utility.yul\":17132:17136   */\n      dup3\n        /* \"#utility.yul\":17128:17140   */\n      div\n        /* \"#utility.yul\":17118:17140   */\n      swap1\n      pop\n        /* \"#utility.yul\":17185:17186   */\n      0x01\n        /* \"#utility.yul\":17179:17183   */\n      dup3\n        /* \"#utility.yul\":17175:17187   */\n      and\n        /* \"#utility.yul\":17206:17224   */\n      dup1\n        /* \"#utility.yul\":17196:17277   */\n      tag_554\n      jumpi\n        /* \"#utility.yul\":17262:17266   */\n      0x7f\n        /* \"#utility.yul\":17254:17260   */\n      dup3\n        /* \"#utility.yul\":17250:17267   */\n      and\n        /* \"#utility.yul\":17240:17267   */\n      swap2\n      pop\n        /* \"#utility.yul\":17196:17277   */\n    tag_554:\n        /* \"#utility.yul\":17324:17326   */\n      0x20\n        /* \"#utility.yul\":17316:17322   */\n      dup3\n        /* \"#utility.yul\":17313:17327   */\n      lt\n        /* \"#utility.yul\":17293:17311   */\n      dup2\n        /* \"#utility.yul\":17290:17328   */\n      sub\n        /* \"#utility.yul\":17287:17371   */\n      tag_555\n      jumpi\n        /* \"#utility.yul\":17343:17361   */\n      tag_556\n      tag_366\n      jump\t// in\n    tag_556:\n        /* \"#utility.yul\":17287:17371   */\n    tag_555:\n        /* \"#utility.yul\":17108:17377   */\n      pop\n        /* \"#utility.yul\":17057:17377   */\n      swap2\n      swap1\n      pop\n      jump\t// out\n        /* \"#utility.yul\":17383:17524   */\n    tag_367:\n        /* \"#utility.yul\":17432:17436   */\n      0x00\n        /* \"#utility.yul\":17455:17458   */\n      dup2\n        /* \"#utility.yul\":17447:17458   */\n      swap1\n      pop\n        /* \"#utility.yul\":17478:17481   */\n      dup2\n        /* \"#utility.yul\":17475:17476   */\n      0x00\n        /* \"#utility.yul\":17468:17482   */\n      mstore\n        /* \"#utility.yul\":17512:17516   */\n      0x20\n        /* \"#utility.yul\":17509:17510   */\n      0x00\n        /* \"#utility.yul\":17499:17517   */\n      keccak256\n        /* \"#utility.yul\":17491:17517   */\n      swap1\n      pop\n        /* \"#utility.yul\":17383:17524   */\n      swap2\n      swap1\n      pop\n      jump\t// out\n        /* \"#utility.yul\":17530:17623   */\n    tag_368:\n        /* \"#utility.yul\":17567:17573   */\n      0x00\n        /* \"#utility.yul\":17614:17616   */\n      0x20\n        /* \"#utility.yul\":17609:17611   */\n      0x1f\n        /* \"#utility.yul\":17602:17607   */\n      dup4\n        /* \"#utility.yul\":17598:17612   */\n      add\n        /* \"#utility.yul\":17594:17617   */\n      div\n        /* \"#utility.yul\":17584:17617   */\n      swap1\n      pop\n        /* \"#utility.yul\":17530:17623   */\n      swap2\n      swap1\n      pop\n      jump\t// out\n        /* \"#utility.yul\":17629:17736   */\n    tag_369:\n        /* \"#utility.yul\":17673:17681   */\n      0x00\n        /* \"#utility.yul\":17723:17728   */\n      dup3\n        /* \"#utility.yul\":17717:17721   */\n      dup3\n        /* \"#utility.yul\":17713:17729   */\n      shl\n        /* \"#utility.yul\":17692:17729   */\n      swap1\n      pop\n        /* \"#utility.yul\":17629:17736   */\n      swap3\n      swap2\n      pop\n      pop\n      jump\t// out\n        /* \"#utility.yul\":17742:18135   */\n    tag_370:\n        /* \"#utility.yul\":17811:17817   */\n      0x00\n        /* \"#utility.yul\":17861:17862   */\n      0x08\n        /* \"#utility.yul\":17849:17859   */\n      dup4\n        /* \"#utility.yul\":17845:17863   */\n      mul\n        /* \"#utility.yul\":17884:17981   */\n      tag_561\n        /* \"#utility.yul\":17914:17980   */\n      0xffffffffffffffffffffffffffffffffffffffffffffffffffffffffffffffff\n        /* \"#utility.yul\":17903:17912   */\n      dup3\n        /* \"#utility.yul\":17884:17981   */\n      tag_369\n      jump\t// in\n    tag_561:\n        /* \"#utility.yul\":18002:18041   */\n      tag_562\n        /* \"#utility.yul\":18032:18040   */\n      dup7\n        /* \"#utility.yul\":18021:18030   */\n      dup4\n        /* \"#utility.yul\":18002:18041   */\n      tag_369\n      jump\t// in\n    tag_562:\n        /* \"#utility.yul\":17990:18041   */\n      swap6\n      pop\n        /* \"#utility.yul\":18074:18078   */\n      dup1\n        /* \"#utility.yul\":18070:18079   */\n      not\n        /* \"#utility.yul\":18063:18068   */\n      dup5\n        /* \"#utility.yul\":18059:18080   */\n      and\n        /* \"#utility.yul\":18050:18080   */\n      swap4\n      pop\n        /* \"#utility.yul\":18123:18127   */\n      dup1\n        /* \"#utility.yul\":18113:18121   */\n      dup7\n        /* \"#utility.yul\":18109:18128   */\n      and\n        /* \"#utility.yul\":18102:18107   */\n      dup5\n        /* \"#utility.yul\":18099:18129   */\n      or\n        /* \"#utility.yul\":18089:18129   */\n      swap3\n      pop\n        /* \"#utility.yul\":17818:18135   */\n      pop\n      pop\n        /* \"#utility.yul\":17742:18135   */\n      swap4\n      swap3\n      pop\n      pop\n      pop\n      jump\t// out\n        /* \"#utility.yul\":18141:18201   */\n    tag_371:\n        /* \"#utility.yul\":18169:18172   */\n      0x00\n        /* \"#utility.yul\":18190:18195   */\n      dup2\n        /* \"#utility.yul\":18183:18195   */\n      swap1\n      pop\n        /* \"#utility.yul\":18141:18201   */\n      swap2\n      swap1\n      pop\n      jump\t// out\n        /* \"#utility.yul\":18207:18349   */\n    tag_372:\n        /* \"#utility.yul\":18257:18266   */\n      0x00\n        /* \"#utility.yul\":18290:18343   */\n      tag_565\n        /* \"#utility.yul\":18308:18342   */\n      tag_566\n        /* \"#utility.yul\":18317:18341   */\n      tag_567\n        /* \"#utility.yul\":18335:18340   */\n      dup5\n        /* \"#utility.yul\":18317:18341   */\n      tag_321\n      jump\t// in\n    tag_567:\n        /* \"#utility.yul\":18308:18342   */\n      tag_371\n      jump\t// in\n    tag_566:\n        /* \"#utility.yul\":18290:18343   */\n      tag_321\n      jump\t// in\n    tag_565:\n        /* \"#utility.yul\":18277:18343   */\n      swap1\n      pop\n        /* \"#utility.yul\":18207:18349   */\n      swap2\n      swap1\n      pop\n      jump\t// out\n        /* \"#utility.yul\":18355:18430   */\n    tag_373:\n        /* \"#utility.yul\":18398:18401   */\n      0x00\n        /* \"#utility.yul\":18419:18424   */\n      dup2\n        /* \"#utility.yul\":18412:18424   */\n      swap1\n      pop\n        /* \"#utility.yul\":18355:18430   */\n      swap2\n      swap1\n      pop\n      jump\t// out\n        /* \"#utility.yul\":18436:18705   */\n    tag_374:\n        /* \"#utility.yul\":18546:18585   */\n      tag_570\n        /* \"#utility.yul\":18577:18584   */\n      dup4\n        /* \"#utility.yul\":18546:18585   */\n      tag_372\n      jump\t// in\n    tag_570:\n        /* \"#utility.yul\":18607:18698   */\n      tag_571\n        /* \"#utility.yul\":18656:18697   */\n      tag_572\n        /* \"#utility.yul\":18680:18696   */\n      dup3\n        /* \"#utility.yul\":18656:18697   */\n      tag_373\n      jump\t// in\n    tag_572:\n        /* \"#utility.yul\":18648:18654   */\n      dup5\n        /* \"#utility.yul\":18641:18645   */\n      dup5\n        /* \"#utility.yul\":18635:18646   */\n      sload\n        /* \"#utility.yul\":18607:18698   */\n      tag_370\n      jump\t// in\n    tag_571:\n        /* \"#utility.yul\":18601:18605   */\n      dup3\n        /* \"#utility.yul\":18594:18699   */\n      sstore\n        /* \"#utility.yul\":18512:18705   */\n      pop\n        /* \"#utility.yul\":18436:18705   */\n      pop\n      pop\n      pop\n      jump\t// out\n        /* \"#utility.yul\":18711:18784   */\n    tag_375:\n        /* \"#utility.yul\":18756:18759   */\n      0x00\n        /* \"#utility.yul\":18711:18784   */\n      swap1\n      jump\t// out\n        /* \"#utility.yul\":18790:18979   */\n    tag_376:\n        /* \"#utility.yul\":18867:18899   */\n      tag_575\n      tag_375\n      jump\t// in\n    tag_575:\n        /* \"#utility.yul\":18908:18973   */\n      tag_576\n        /* \"#utility.yul\":18966:18972   */\n      dup2\n        /* \"#utility.yul\":18958:18964   */\n      dup5\n        /* \"#utility.yul\":18952:18956   */\n      dup5\n        /* \"#utility.yul\":18908:18973   */\n      tag_374\n      jump\t// in\n    tag_576:\n        /* \"#utility.yul\":18843:18979   */\n      pop\n        /* \"#utility.yul\":18790:18979   */\n      pop\n      pop\n      jump\t// out\n        /* \"#utility.yul\":18985:19171   */\n    tag_377:\n        /* \"#utility.yul\":19045:19165   */\n    tag_578:\n        /* \"#utility.yul\":19062:19065   */\n      dup2\n        /* \"#utility.yul\":19055:19060   */\n      dup2\n        /* \"#utility.yul\":19052:19066   */\n      lt\n        /* \"#utility.yul\":19045:19165   */\n      iszero\n      tag_580\n      jumpi\n        /* \"#utility.yul\":19116:19155   */\n      tag_581\n        /* \"#utility.yul\":19153:19154   */\n      0x00\n        /* \"#utility.yul\":19146:19151   */\n      dup3\n        /* \"#utility.yul\":19116:19155   */\n      tag_376\n      jump\t// in\n    tag_581:\n        /* \"#utility.yul\":19089:19090   */\n      0x01\n        /* \"#utility.yul\":19082:19087   */\n      dup2\n        /* \"#utility.yul\":19078:19091   */\n      add\n        /* \"#utility.yul\":19069:19091   */\n      swap1\n      pop\n        /* \"#utility.yul\":19045:19165   */\n      jump(tag_578)\n    tag_580:\n        /* \"#utility.yul\":18985:19171   */\n      pop\n      pop\n      jump\t// out\n        /* \"#utility.yul\":19177:19720   */\n    tag_378:\n        /* \"#utility.yul\":19278:19280   */\n      0x1f\n        /* \"#utility.yul\":19273:19276   */\n      dup3\n        /* \"#utility.yul\":19270:19281   */\n      gt\n        /* \"#utility.yul\":19267:19713   */\n      iszero\n      tag_583\n      jumpi\n        /* \"#utility.yul\":19312:19350   */\n      tag_584\n        /* \"#utility.yul\":19344:19349   */\n      dup2\n        /* \"#utility.yul\":19312:19350   */\n      tag_367\n      jump\t// in\n    tag_584:\n        /* \"#utility.yul\":19396:19425   */\n      tag_585\n        /* \"#utility.yul\":19414:19424   */\n      dup5\n        /* \"#utility.yul\":19396:19425   */\n      tag_368\n      jump\t// in\n    tag_585:\n        /* \"#utility.yul\":19386:19394   */\n      dup2\n        /* \"#utility.yul\":19382:19426   */\n      add\n        /* \"#utility.yul\":19579:19581   */\n      0x20\n        /* \"#utility.yul\":19567:19577   */\n      dup6\n        /* \"#utility.yul\":19564:19582   */\n      lt\n        /* \"#utility.yul\":19561:19610   */\n      iszero\n      tag_586\n      jumpi\n        /* \"#utility.yul\":19600:19608   */\n      dup2\n        /* \"#utility.yul\":19585:19608   */\n      swap1\n      pop\n        /* \"#utility.yul\":19561:19610   */\n    tag_586:\n        /* \"#utility.yul\":19623:19703   */\n      tag_587\n        /* \"#utility.yul\":19679:19701   */\n      tag_588\n        /* \"#utility.yul\":19697:19700   */\n      dup6\n        /* \"#utility.yul\":19679:19701   */\n      tag_368\n      jump\t// in\n    tag_588:\n        /* \"#utility.yul\":19669:19677   */\n      dup4\n        /* \"#utility.yul\":19665:19702   */\n      add\n        /* \"#utility.yul\":19652:19663   */\n      dup3\n        /* \"#utility.yul\":19623:19703   */\n      tag_377\n      jump\t// in\n    tag_587:\n        /* \"#utility.yul\":19282:19713   */\n      pop\n      pop\n        /* \"#utility.yul\":19267:19713   */\n    tag_583:\n        /* \"#utility.yul\":19177:19720   */\n      pop\n      pop\n      pop\n      jump\t// out\n        /* \"#utility.yul\":19726:19843   */\n    tag_379:\n        /* \"#utility.yul\":19780:19788   */\n      0x00\n        /* \"#utility.yul\":19830:19835   */\n      dup3\n        /* \"#utility.yul\":19824:19828   */\n      dup3\n        /* \"#utility.yul\":19820:19836   */\n      shr\n        /* \"#utility.yul\":19799:19836   */\n      swap1\n      pop\n        /* \"#utility.yul\":19726:19843   */\n      swap3\n      swap2\n      pop\n      pop\n      jump\t// out\n        /* \"#utility.yul\":19849:20018   */\n    tag_380:\n        /* \"#utility.yul\":19893:19899   */\n      0x00\n        /* \"#utility.yul\":19926:19977   */\n      tag_591\n        /* \"#utility.yul\":19974:19975   */\n      0x00\n        /* \"#utility.yul\":19970:19976   */\n      not\n        /* \"#utility.yul\":19962:19967   */\n      dup5\n        /* \"#utility.yul\":19959:19960   */\n      0x08\n        /* \"#utility.yul\":19955:19968   */\n      mul\n        /* \"#utility.yul\":19926:19977   */\n      tag_379\n      jump\t// in\n    tag_591:\n        /* \"#utility.yul\":19922:19978   */\n      not\n        /* \"#utility.yul\":20007:20011   */\n      dup1\n        /* \"#utility.yul\":20001:20005   */\n      dup4\n        /* \"#utility.yul\":19997:20012   */\n      and\n        /* \"#utility.yul\":19987:20012   */\n      swap2\n      pop\n        /* \"#utility.yul\":19900:20018   */\n      pop\n        /* \"#utility.yul\":19849:20018   */\n      swap3\n      swap2\n      pop\n      pop\n      jump\t// out\n        /* \"#utility.yul\":20023:20318   */\n    tag_381:\n        /* \"#utility.yul\":20099:20103   */\n      0x00\n        /* \"#utility.yul\":20245:20274   */\n      tag_593\n        /* \"#utility.yul\":20270:20273   */\n      dup4\n        /* \"#utility.yul\":20264:20268   */\n      dup4\n        /* \"#utility.yul\":20245:20274   */\n      tag_380\n      jump\t// in\n    tag_593:\n        /* \"#utility.yul\":20237:20274   */\n      swap2\n      pop\n        /* \"#utility.yul\":20307:20310   */\n      dup3\n        /* \"#utility.yul\":20304:20305   */\n      0x02\n        /* \"#utility.yul\":20300:20311   */\n      mul\n        /* \"#utility.yul\":20294:20298   */\n      dup3\n        /* \"#utility.yul\":20291:20312   */\n      or\n        /* \"#utility.yul\":20283:20312   */\n      swap1\n      pop\n        /* \"#utility.yul\":20023:20318   */\n      swap3\n      swap2\n      pop\n      pop\n      jump\t// out\n        /* \"#utility.yul\":20323:21718   */\n    tag_171:\n        /* \"#utility.yul\":20440:20477   */\n      tag_595\n        /* \"#utility.yul\":20473:20476   */\n      dup3\n        /* \"#utility.yul\":20440:20477   */\n      tag_329\n      jump\t// in\n    tag_595:\n        /* \"#utility.yul\":20542:20560   */\n      0xffffffffffffffff\n        /* \"#utility.yul\":20534:20540   */\n      dup2\n        /* \"#utility.yul\":20531:20561   */\n      gt\n        /* \"#utility.yul\":20528:20584   */\n      iszero\n      tag_596\n      jumpi\n        /* \"#utility.yul\":20564:20582   */\n      tag_597\n      tag_337\n      jump\t// in\n    tag_597:\n        /* \"#utility.yul\":20528:20584   */\n    tag_596:\n        /* \"#utility.yul\":20608:20646   */\n      tag_598\n        /* \"#utility.yul\":20640:20644   */\n      dup3\n        /* \"#utility.yul\":20634:20645   */\n      sload\n        /* \"#utility.yul\":20608:20646   */\n      tag_159\n      jump\t// in\n    tag_598:\n        /* \"#utility.yul\":20693:20760   */\n      tag_599\n        /* \"#utility.yul\":20753:20759   */\n      dup3\n        /* \"#utility.yul\":20745:20751   */\n      dup3\n        /* \"#utility.yul\":20739:20743   */\n      dup6\n        /* \"#utility.yul\":20693:20760   */\n      tag_378\n      jump\t// in\n    tag_599:\n        /* \"#utility.yul\":20787:20788   */\n      0x00\n        /* \"#utility.yul\":20811:20815   */\n      0x20\n        /* \"#utility.yul\":20798:20815   */\n      swap1\n      pop\n        /* \"#utility.yul\":20843:20845   */\n      0x1f\n        /* \"#utility.yul\":20835:20841   */\n      dup4\n        /* \"#utility.yul\":20832:20846   */\n      gt\n        /* \"#utility.yul\":20860:20861   */\n      0x01\n        /* \"#utility.yul\":20855:21473   */\n      dup2\n      eq\n      tag_601\n      jumpi\n        /* \"#utility.yul\":21517:21518   */\n      0x00\n        /* \"#utility.yul\":21534:21540   */\n      dup5\n        /* \"#utility.yul\":21531:21608   */\n      iszero\n      tag_602\n      jumpi\n        /* \"#utility.yul\":21583:21592   */\n      dup3\n        /* \"#utility.yul\":21578:21581   */\n      dup8\n        /* \"#utility.yul\":21574:21593   */\n      add\n        /* \"#utility.yul\":21568:21594   */\n      mload\n        /* \"#utility.yul\":21559:21594   */\n      swap1\n      pop\n        /* \"#utility.yul\":21531:21608   */\n    tag_602:\n        /* \"#utility.yul\":21634:21701   */\n      tag_603\n        /* \"#utility.yul\":21694:21700   */\n      dup6\n        /* \"#utility.yul\":21687:21692   */\n      dup3\n        /* \"#utility.yul\":21634:21701   */\n      tag_381\n      jump\t// in\n    tag_603:\n        /* \"#utility.yul\":21628:21632   */\n      dup7\n        /* \"#utility.yul\":21621:21702   */\n      sstore\n        /* \"#utility.yul\":21490:21712   */\n      pop\n        /* \"#utility.yul\":20825:21712   */\n      jump(tag_600)\n        /* \"#utility.yul\":20855:21473   */\n    tag_601:\n        /* \"#utility.yul\":20907:20911   */\n      0x1f\n        /* \"#utility.yul\":20903:20912   */\n      not\n        /* \"#utility.yul\":20895:20901   */\n      dup5\n        /* \"#utility.yul\":20891:20913   */\n      and\n        /* \"#utility.yul\":20941:20978   */\n      tag_604\n        /* \"#utility.yul\":20973:20977   */\n      dup7\n        /* \"#utility.yul\":20941:20978   */\n      tag_367\n      jump\t// in\n    tag_604:\n        /* \"#utility.yul\":21000:21001   */\n      0x00\n        /* \"#utility.yul\":21014:21222   */\n    tag_605:\n        /* \"#utility.yul\":21028:21035   */\n      dup3\n        /* \"#utility.yul\":21025:21026   */\n      dup2\n        /* \"#utility.yul\":21022:21036   */\n      lt\n        /* \"#utility.yul\":21014:21222   */\n      iszero\n      tag_607\n      jumpi\n        /* \"#utility.yul\":21107:21116   */\n      dup5\n        /* \"#utility.yul\":21102:21105   */\n      dup10\n        /* \"#utility.yul\":21098:21117   */\n      add\n        /* \"#utility.yul\":21092:21118   */\n      mload\n        /* \"#utility.yul\":21084:21090   */\n      dup3\n        /* \"#utility.yul\":21077:21119   */\n      sstore\n        /* \"#utility.yul\":21158:21159   */\n      0x01\n        /* \"#utility.yul\":21150:21156   */\n      dup3\n        /* \"#utility.yul\":21146:21160   */\n      add\n        /* \"#utility.yul\":21136:21160   */\n      swap2\n      pop\n        /* \"#utility.yul\":21205:21207   */\n      0x20\n        /* \"#utility.yul\":21194:21203   */\n      dup6\n        /* \"#utility.yul\":21190:21208   */\n      add\n        /* \"#utility.yul\":21177:21208   */\n      swap5\n      pop\n        /* \"#utility.yul\":21051:21055   */\n      0x20\n        /* \"#utility.yul\":21048:21049   */\n      dup2\n        /* \"#utility.yul\":21044:21056   */\n      add\n        /* \"#utility.yul\":21039:21056   */\n      swap1\n      pop\n        /* \"#utility.yul\":21014:21222   */\n      jump(tag_605)\n    tag_607:\n        /* \"#utility.yul\":21250:21256   */\n      dup7\n        /* \"#utility.yul\":21241:21248   */\n      dup4\n        /* \"#utility.yul\":21238:21257   */\n      lt\n        /* \"#utility.yul\":21235:21414   */\n      iszero\n      tag_608\n      jumpi\n        /* \"#utility.yul\":21308:21317   */\n      dup5\n        /* \"#utility.yul\":21303:21306   */\n      dup10\n        /* \"#utility.yul\":21299:21318   */\n      add\n        /* \"#utility.yul\":21293:21319   */\n      mload\n        /* \"#utility.yul\":21351:21399   */\n      tag_609\n        /* \"#utility.yul\":21393:21397   */\n      0x1f\n        /* \"#utility.yul\":21385:21391   */\n      dup10\n        /* \"#utility.yul\":21381:21398   */\n      and\n        /* \"#utility.yul\":21370:21379   */\n      dup3\n        /* \"#utility.yul\":21351:21399   */\n      tag_380\n      jump\t// in\n    tag_609:\n        /* \"#utility.yul\":21343:21349   */\n      dup4\n        /* \"#utility.yul\":21336:21400   */\n      sstore\n        /* \"#utility.yul\":21258:21414   */\n      pop\n        /* \"#utility.yul\":21235:21414   */\n    tag_608:\n        /* \"#utility.yul\":21460:21461   */\n      0x01\n        /* \"#utility.yul\":21456:21457   */\n      0x02\n        /* \"#utility.yul\":21448:21454   */\n      dup9\n        /* \"#utility.yul\":21444:21458   */\n      mul\n        /* \"#utility.yul\":21440:21462   */\n      add\n        /* \"#utility.yul\":21434:21438   */\n      dup9\n        /* \"#utility.yul\":21427:21463   */\n      sstore\n        /* \"#utility.yul\":20862:21473   */\n      pop\n      pop\n      pop\n        /* \"#utility.yul\":20825:21712   */\n    tag_600:\n      pop\n        /* \"#utility.yul\":20415:21718   */\n      pop\n      pop\n      pop\n        /* \"#utility.yul\":20323:21718   */\n      pop\n      pop\n      jump\t// out\n        /* \"#utility.yul\":21724:21903   */\n    tag_382:\n        /* \"#utility.yul\":21864:21895   */\n      0x416d6f756e74206d7573742062652067726561746572207468616e2030000000\n        /* \"#utility.yul\":21860:21861   */\n      0x00\n        /* \"#utility.yul\":21852:21858   */\n      dup3\n        /* \"#utility.yul\":21848:21862   */\n      add\n        /* \"#utility.yul\":21841:21896   */\n      mstore\n        /* \"#utility.yul\":21724:21903   */\n      pop\n      jump\t// out\n        /* \"#utility.yul\":21909:22275   */\n    tag_383:\n        /* \"#utility.yul\":22051:22054   */\n      0x00\n        /* \"#utility.yul\":22072:22139   */\n      tag_612\n        /* \"#utility.yul\":22136:22138   */\n      0x1d\n        /* \"#utility.yul\":22131:22134   */\n      dup4\n        /* \"#utility.yul\":22072:22139   */\n      tag_330\n      jump\t// in\n    tag_612:\n        /* \"#utility.yul\":22065:22139   */\n      swap2\n      pop\n        /* \"#utility.yul\":22148:22241   */\n      tag_613\n        /* \"#utility.yul\":22237:22240   */\n      dup3\n        /* \"#utility.yul\":22148:22241   */\n      tag_382\n      jump\t// in\n    tag_613:\n        /* \"#utility.yul\":22266:22268   */\n      0x20\n        /* \"#utility.yul\":22261:22264   */\n      dup3\n        /* \"#utility.yul\":22257:22269   */\n      add\n        /* \"#utility.yul\":22250:22269   */\n      swap1\n      pop\n        /* \"#utility.yul\":21909:22275   */\n      swap2\n      swap1\n      pop\n      jump\t// out\n        /* \"#utility.yul\":22281:22700   */\n    tag_177:\n        /* \"#utility.yul\":22447:22451   */\n      0x00\n        /* \"#utility.yul\":22485:22487   */\n      0x20\n        /* \"#utility.yul\":22474:22483   */\n      dup3\n        /* \"#utility.yul\":22470:22488   */\n      add\n        /* \"#utility.yul\":22462:22488   */\n      swap1\n      pop\n        /* \"#utility.yul\":22534:22543   */\n      dup2\n        /* \"#utility.yul\":22528:22532   */\n      dup2\n        /* \"#utility.yul\":22524:22544   */\n      sub\n        /* \"#utility.yul\":22520:22521   */\n      0x00\n        /* \"#utility.yul\":22509:22518   */\n      dup4\n        /* \"#utility.yul\":22505:22522   */\n      add\n        /* \"#utility.yul\":22498:22545   */\n      mstore\n        /* \"#utility.yul\":22562:22693   */\n      tag_615\n        /* \"#utility.yul\":22688:22692   */\n      dup2\n        /* \"#utility.yul\":22562:22693   */\n      tag_383\n      jump\t// in\n    tag_615:\n        /* \"#utility.yul\":22554:22693   */\n      swap1\n      pop\n        /* \"#utility.yul\":22281:22700   */\n      swap2\n      swap1\n      pop\n      jump\t// out\n        /* \"#utility.yul\":22706:22882   */\n    tag_384:\n        /* \"#utility.yul\":22846:22874   */\n      0x496e73756666696369656e7420746f6b656e2062616c616e6365000000000000\n        /* \"#utility.yul\":22842:22843   */\n      0x00\n        /* \"#utility.yul\":22834:22840   */\n      dup3\n        /* \"#utility.yul\":22830:22844   */\n      add\n        /* \"#utility.yul\":22823:22875   */\n      mstore\n        /* \"#utility.yul\":22706:22882   */\n      pop\n      jump\t// out\n        /* \"#utility.yul\":22888:23254   */\n    tag_385:\n        /* \"#utility.yul\":23030:23033   */\n      0x00\n        /* \"#utility.yul\":23051:23118   */\n      tag_618\n        /* \"#utility.yul\":23115:23117   */\n      0x1a\n        /* \"#utility.yul\":23110:23113   */\n      dup4\n        /* \"#utility.yul\":23051:23118   */\n      tag_330\n      jump\t// in\n    tag_618:\n        /* \"#utility.yul\":23044:23118   */\n      swap2\n      pop\n        /* \"#utility.yul\":23127:23220   */\n      tag_619\n        /* \"#utility.yul\":23216:23219   */\n      dup3\n        /* \"#utility.yul\":23127:23220   */\n      tag_384\n      jump\t// in\n    tag_619:\n        /* \"#utility.yul\":23245:23247   */\n      0x20\n        /* \"#utility.yul\":23240:23243   */\n      dup3\n        /* \"#utility.yul\":23236:23248   */\n      add\n        /* \"#utility.yul\":23229:23248   */\n      swap1\n      pop\n        /* \"#utility.yul\":22888:23254   */\n      swap2\n      swap1\n      pop\n      jump\t// out\n        /* \"#utility.yul\":23260:23679   */\n    tag_184:\n        /* \"#utility.yul\":23426:23430   */\n      0x00\n        /* \"#utility.yul\":23464:23466   */\n      0x20\n        /* \"#utility.yul\":23453:23462   */\n      dup3\n        /* \"#utility.yul\":23449:23467   */\n      add\n        /* \"#utility.yul\":23441:23467   */\n      swap1\n      pop\n        /* \"#utility.yul\":23513:23522   */\n      dup2\n        /* \"#utility.yul\":23507:23511   */\n      dup2\n        /* \"#utility.yul\":23503:23523   */\n      sub\n        /* \"#utility.yul\":23499:23500   */\n      0x00\n        /* \"#utility.yul\":23488:23497   */\n      dup4\n        /* \"#utility.yul\":23484:23501   */\n      add\n        /* \"#utility.yul\":23477:23524   */\n      mstore\n        /* \"#utility.yul\":23541:23672   */\n      tag_621\n        /* \"#utility.yul\":23667:23671   */\n      dup2\n        /* \"#utility.yul\":23541:23672   */\n      tag_385\n      jump\t// in\n    tag_621:\n        /* \"#utility.yul\":23533:23672   */\n      swap1\n      pop\n        /* \"#utility.yul\":23260:23679   */\n      swap2\n      swap1\n      pop\n      jump\t// out\n        /* \"#utility.yul\":23685:24127   */\n    tag_186:\n        /* \"#utility.yul\":23834:23838   */\n      0x00\n        /* \"#utility.yul\":23872:23874   */\n      0x60\n        /* \"#utility.yul\":23861:23870   */\n      dup3\n        /* \"#utility.yul\":23857:23875   */\n      add\n        /* \"#utility.yul\":23849:23875   */\n      swap1\n      pop\n        /* \"#utility.yul\":23885:23956   */\n      tag_623\n        /* \"#utility.yul\":23953:23954   */\n      0x00\n        /* \"#utility.yul\":23942:23951   */\n      dup4\n        /* \"#utility.yul\":23938:23955   */\n      add\n        /* \"#utility.yul\":23929:23935   */\n      dup7\n        /* \"#utility.yul\":23885:23956   */\n      tag_334\n      jump\t// in\n    tag_623:\n        /* \"#utility.yul\":23966:24038   */\n      tag_624\n        /* \"#utility.yul\":24034:24036   */\n      0x20\n        /* \"#utility.yul\":24023:24032   */\n      dup4\n        /* \"#utility.yul\":24019:24037   */\n      add\n        /* \"#utility.yul\":24010:24016   */\n      dup6\n        /* \"#utility.yul\":23966:24038   */\n      tag_334\n      jump\t// in\n    tag_624:\n        /* \"#utility.yul\":24048:24120   */\n      tag_625\n        /* \"#utility.yul\":24116:24118   */\n      0x40\n        /* \"#utility.yul\":24105:24114   */\n      dup4\n        /* \"#utility.yul\":24101:24119   */\n      add\n        /* \"#utility.yul\":24092:24098   */\n      dup5\n        /* \"#utility.yul\":24048:24120   */\n      tag_324\n      jump\t// in\n    tag_625:\n        /* \"#utility.yul\":23685:24127   */\n      swap5\n      swap4\n      pop\n      pop\n      pop\n      pop\n      jump\t// out\n        /* \"#utility.yul\":24133:24249   */\n    tag_386:\n        /* \"#utility.yul\":24203:24224   */\n      tag_627\n        /* \"#utility.yul\":24218:24223   */\n      dup2\n        /* \"#utility.yul\":24203:24224   */\n      tag_344\n      jump\t// in\n    tag_627:\n        /* \"#utility.yul\":24196:24201   */\n      dup2\n        /* \"#utility.yul\":24193:24225   */\n      eq\n        /* \"#utility.yul\":24183:24243   */\n      tag_628\n      jumpi\n        /* \"#utility.yul\":24239:24240   */\n      0x00\n        /* \"#utility.yul\":24236:24237   */\n      dup1\n        /* \"#utility.yul\":24229:24241   */\n      revert\n        /* \"#utility.yul\":24183:24243   */\n    tag_628:\n        /* \"#utility.yul\":24133:24249   */\n      pop\n      jump\t// out\n        /* \"#utility.yul\":24255:24392   */\n    tag_387:\n        /* \"#utility.yul\":24309:24314   */\n      0x00\n        /* \"#utility.yul\":24340:24346   */\n      dup2\n        /* \"#utility.yul\":24334:24347   */\n      mload\n        /* \"#utility.yul\":24325:24347   */\n      swap1\n      pop\n        /* \"#utility.yul\":24356:24386   */\n      tag_630\n        /* \"#utility.yul\":24380:24385   */\n      dup2\n        /* \"#utility.yul\":24356:24386   */\n      tag_386\n      jump\t// in\n    tag_630:\n        /* \"#utility.yul\":24255:24392   */\n      swap3\n      swap2\n      pop\n      pop\n      jump\t// out\n        /* \"#utility.yul\":24398:24743   */\n    tag_190:\n        /* \"#utility.yul\":24465:24471   */\n      0x00\n        /* \"#utility.yul\":24514:24516   */\n      0x20\n        /* \"#utility.yul\":24502:24511   */\n      dup3\n        /* \"#utility.yul\":24493:24500   */\n      dup5\n        /* \"#utility.yul\":24489:24512   */\n      sub\n        /* \"#utility.yul\":24485:24517   */\n      slt\n        /* \"#utility.yul\":24482:24601   */\n      iszero\n      tag_632\n      jumpi\n        /* \"#utility.yul\":24520:24599   */\n      tag_633\n      tag_319\n      jump\t// in\n    tag_633:\n        /* \"#utility.yul\":24482:24601   */\n    tag_632:\n        /* \"#utility.yul\":24640:24641   */\n      0x00\n        /* \"#utility.yul\":24665:24726   */\n      tag_634\n        /* \"#utility.yul\":24718:24725   */\n      dup5\n        /* \"#utility.yul\":24709:24715   */\n      dup3\n        /* \"#utility.yul\":24698:24707   */\n      dup6\n        /* \"#utility.yul\":24694:24716   */\n      add\n        /* \"#utility.yul\":24665:24726   */\n      tag_387\n      jump\t// in\n    tag_634:\n        /* \"#utility.yul\":24655:24726   */\n      swap2\n      pop\n        /* \"#utility.yul\":24611:24736   */\n      pop\n        /* \"#utility.yul\":24398:24743   */\n      swap3\n      swap2\n      pop\n      pop\n      jump\t// out\n        /* \"#utility.yul\":24749:24917   */\n    tag_388:\n        /* \"#utility.yul\":24889:24909   */\n      0x7472616e73616374696f6e206661696c65640000000000000000000000000000\n        /* \"#utility.yul\":24885:24886   */\n      0x00\n        /* \"#utility.yul\":24877:24883   */\n      dup3\n        /* \"#utility.yul\":24873:24887   */\n      add\n        /* \"#utility.yul\":24866:24910   */\n      mstore\n        /* \"#utility.yul\":24749:24917   */\n      pop\n      jump\t// out\n        /* \"#utility.yul\":24923:25289   */\n    tag_389:\n        /* \"#utility.yul\":25065:25068   */\n      0x00\n        /* \"#utility.yul\":25086:25153   */\n      tag_637\n        /* \"#utility.yul\":25150:25152   */\n      0x12\n        /* \"#utility.yul\":25145:25148   */\n      dup4\n        /* \"#utility.yul\":25086:25153   */\n      tag_330\n      jump\t// in\n    tag_637:\n        /* \"#utility.yul\":25079:25153   */\n      swap2\n      pop\n        /* \"#utility.yul\":25162:25255   */\n      tag_638\n        /* \"#utility.yul\":25251:25254   */\n      dup3\n        /* \"#utility.yul\":25162:25255   */\n      tag_388\n      jump\t// in\n    tag_638:\n        /* \"#utility.yul\":25280:25282   */\n      0x20\n        /* \"#utility.yul\":25275:25278   */\n      dup3\n        /* \"#utility.yul\":25271:25283   */\n      add\n        /* \"#utility.yul\":25264:25283   */\n      swap1\n      pop\n        /* \"#utility.yul\":24923:25289   */\n      swap2\n      swap1\n      pop\n      jump\t// out\n        /* \"#utility.yul\":25295:25714   */\n    tag_193:\n        /* \"#utility.yul\":25461:25465   */\n      0x00\n        /* \"#utility.yul\":25499:25501   */\n      0x20\n        /* \"#utility.yul\":25488:25497   */\n      dup3\n        /* \"#utility.yul\":25484:25502   */\n      add\n        /* \"#utility.yul\":25476:25502   */\n      swap1\n      pop\n        /* \"#utility.yul\":25548:25557   */\n      dup2\n        /* \"#utility.yul\":25542:25546   */\n      dup2\n        /* \"#utility.yul\":25538:25558   */\n      sub\n        /* \"#utility.yul\":25534:25535   */\n      0x00\n        /* \"#utility.yul\":25523:25532   */\n      dup4\n        /* \"#utility.yul\":25519:25536   */\n      add\n        /* \"#utility.yul\":25512:25559   */\n      mstore\n        /* \"#utility.yul\":25576:25707   */\n      tag_640\n        /* \"#utility.yul\":25702:25706   */\n      dup2\n        /* \"#utility.yul\":25576:25707   */\n      tag_389\n      jump\t// in\n    tag_640:\n        /* \"#utility.yul\":25568:25707   */\n      swap1\n      pop\n        /* \"#utility.yul\":25295:25714   */\n      swap2\n      swap1\n      pop\n      jump\t// out\n        /* \"#utility.yul\":25720:25895   */\n    tag_390:\n        /* \"#utility.yul\":25860:25887   */\n      0x63616e7420636c61696d2077696e6e65722070726f6a65637400000000000000\n        /* \"#utility.yul\":25856:25857   */\n      0x00\n        /* \"#utility.yul\":25848:25854   */\n      dup3\n        /* \"#utility.yul\":25844:25858   */\n      add\n        /* \"#utility.yul\":25837:25888   */\n      mstore\n        /* \"#utility.yul\":25720:25895   */\n      pop\n      jump\t// out\n        /* \"#utility.yul\":25901:26267   */\n    tag_391:\n        /* \"#utility.yul\":26043:26046   */\n      0x00\n        /* \"#utility.yul\":26064:26131   */\n      tag_643\n        /* \"#utility.yul\":26128:26130   */\n      0x19\n        /* \"#utility.yul\":26123:26126   */\n      dup4\n        /* \"#utility.yul\":26064:26131   */\n      tag_330\n      jump\t// in\n    tag_643:\n        /* \"#utility.yul\":26057:26131   */\n      swap2\n      pop\n        /* \"#utility.yul\":26140:26233   */\n      tag_644\n        /* \"#utility.yul\":26229:26232   */\n      dup3\n        /* \"#utility.yul\":26140:26233   */\n      tag_390\n      jump\t// in\n    tag_644:\n        /* \"#utility.yul\":26258:26260   */\n      0x20\n        /* \"#utility.yul\":26253:26256   */\n      dup3\n        /* \"#utility.yul\":26249:26261   */\n      add\n        /* \"#utility.yul\":26242:26261   */\n      swap1\n      pop\n        /* \"#utility.yul\":25901:26267   */\n      swap2\n      swap1\n      pop\n      jump\t// out\n        /* \"#utility.yul\":26273:26692   */\n    tag_203:\n        /* \"#utility.yul\":26439:26443   */\n      0x00\n        /* \"#utility.yul\":26477:26479   */\n      0x20\n        /* \"#utility.yul\":26466:26475   */\n      dup3\n        /* \"#utility.yul\":26462:26480   */\n      add\n        /* \"#utility.yul\":26454:26480   */\n      swap1\n      pop\n        /* \"#utility.yul\":26526:26535   */\n      dup2\n        /* \"#utility.yul\":26520:26524   */\n      dup2\n        /* \"#utility.yul\":26516:26536   */\n      sub\n        /* \"#utility.yul\":26512:26513   */\n      0x00\n        /* \"#utility.yul\":26501:26510   */\n      dup4\n        /* \"#utility.yul\":26497:26514   */\n      add\n        /* \"#utility.yul\":26490:26537   */\n      mstore\n        /* \"#utility.yul\":26554:26685   */\n      tag_646\n        /* \"#utility.yul\":26680:26684   */\n      dup2\n        /* \"#utility.yul\":26554:26685   */\n      tag_391\n      jump\t// in\n    tag_646:\n        /* \"#utility.yul\":26546:26685   */\n      swap1\n      pop\n        /* \"#utility.yul\":26273:26692   */\n      swap2\n      swap1\n      pop\n      jump\t// out\n        /* \"#utility.yul\":26698:26878   */\n    tag_209:\n        /* \"#utility.yul\":26746:26823   */\n      0x4e487b7100000000000000000000000000000000000000000000000000000000\n        /* \"#utility.yul\":26743:26744   */\n      0x00\n        /* \"#utility.yul\":26736:26824   */\n      mstore\n        /* \"#utility.yul\":26843:26847   */\n      0x32\n        /* \"#utility.yul\":26840:26841   */\n      0x04\n        /* \"#utility.yul\":26833:26848   */\n      mstore\n        /* \"#utility.yul\":26867:26871   */\n      0x24\n        /* \"#utility.yul\":26864:26865   */\n      0x00\n        /* \"#utility.yul\":26857:26872   */\n      revert\n        /* \"#utility.yul\":26884:27216   */\n    tag_219:\n        /* \"#utility.yul\":27005:27009   */\n      0x00\n        /* \"#utility.yul\":27043:27045   */\n      0x40\n        /* \"#utility.yul\":27032:27041   */\n      dup3\n        /* \"#utility.yul\":27028:27046   */\n      add\n        /* \"#utility.yul\":27020:27046   */\n      swap1\n      pop\n        /* \"#utility.yul\":27056:27127   */\n      tag_649\n        /* \"#utility.yul\":27124:27125   */\n      0x00\n        /* \"#utility.yul\":27113:27122   */\n      dup4\n        /* \"#utility.yul\":27109:27126   */\n      add\n        /* \"#utility.yul\":27100:27106   */\n      dup6\n        /* \"#utility.yul\":27056:27127   */\n      tag_334\n      jump\t// in\n    tag_649:\n        /* \"#utility.yul\":27137:27209   */\n      tag_650\n        /* \"#utility.yul\":27205:27207   */\n      0x20\n        /* \"#utility.yul\":27194:27203   */\n      dup4\n        /* \"#utility.yul\":27190:27208   */\n      add\n        /* \"#utility.yul\":27181:27187   */\n      dup5\n        /* \"#utility.yul\":27137:27209   */\n      tag_324\n      jump\t// in\n    tag_650:\n        /* \"#utility.yul\":26884:27216   */\n      swap4\n      swap3\n      pop\n      pop\n      pop\n      jump\t// out\n        /* \"#utility.yul\":27222:27413   */\n    tag_252:\n        /* \"#utility.yul\":27262:27265   */\n      0x00\n        /* \"#utility.yul\":27281:27301   */\n      tag_652\n        /* \"#utility.yul\":27299:27300   */\n      dup3\n        /* \"#utility.yul\":27281:27301   */\n      tag_321\n      jump\t// in\n    tag_652:\n        /* \"#utility.yul\":27276:27301   */\n      swap2\n      pop\n        /* \"#utility.yul\":27315:27335   */\n      tag_653\n        /* \"#utility.yul\":27333:27334   */\n      dup4\n        /* \"#utility.yul\":27315:27335   */\n      tag_321\n      jump\t// in\n    tag_653:\n        /* \"#utility.yul\":27310:27335   */\n      swap3\n      pop\n        /* \"#utility.yul\":27358:27359   */\n      dup3\n        /* \"#utility.yul\":27355:27356   */\n      dup3\n        /* \"#utility.yul\":27351:27360   */\n      add\n        /* \"#utility.yul\":27344:27360   */\n      swap1\n      pop\n        /* \"#utility.yul\":27379:27382   */\n      dup1\n        /* \"#utility.yul\":27376:27377   */\n      dup3\n        /* \"#utility.yul\":27373:27383   */\n      gt\n        /* \"#utility.yul\":27370:27406   */\n      iszero\n      tag_654\n      jumpi\n        /* \"#utility.yul\":27386:27404   */\n      tag_655\n      tag_365\n      jump\t// in\n    tag_655:\n        /* \"#utility.yul\":27370:27406   */\n    tag_654:\n        /* \"#utility.yul\":27222:27413   */\n      swap3\n      swap2\n      pop\n      pop\n      jump\t// out\n        /* \"#utility.yul\":27419:27599   */\n    tag_259:\n        /* \"#utility.yul\":27467:27544   */\n      0x4e487b7100000000000000000000000000000000000000000000000000000000\n        /* \"#utility.yul\":27464:27465   */\n      0x00\n        /* \"#utility.yul\":27457:27545   */\n      mstore\n        /* \"#utility.yul\":27564:27568   */\n      0x21\n        /* \"#utility.yul\":27561:27562   */\n      0x04\n        /* \"#utility.yul\":27554:27569   */\n      mstore\n        /* \"#utility.yul\":27588:27592   */\n      0x24\n        /* \"#utility.yul\":27585:27586   */\n      0x00\n        /* \"#utility.yul\":27578:27593   */\n      revert\n\n    auxdata: 0xa264697066735822122000de1b6c2e9962c707825b6b676b458713d75025c845d855fe27c55c3b9ffa1464736f6c634300081a0033\n}\n",
				"bytecode": {
					"linkReferences": {},
					"object": "60806040525f6003555f600460146101000a81548160ff0219169083600281111561002d5761002c6101f0565b5b02179055505f600655600a600755348015610046575f80fd5b50604051612a21380380612a21833981810160405281019061006891906102ae565b825f73ffffffffffffffffffffffffffffffffffffffff168173ffffffffffffffffffffffffffffffffffffffff16036100d9575f6040517f1e4fbdf70000000000000000000000000000000000000000000000000000000081526004016100d0919061030d565b60405180910390fd5b6100e88161012f60201b60201c565b50603c826100f69190610353565b426101019190610394565b600181905550603c816101149190610353565b6001546101219190610394565b6002819055505050506103c7565b5f805f9054906101000a900473ffffffffffffffffffffffffffffffffffffffff169050815f806101000a81548173ffffffffffffffffffffffffffffffffffffffff021916908373ffffffffffffffffffffffffffffffffffffffff1602179055508173ffffffffffffffffffffffffffffffffffffffff168173ffffffffffffffffffffffffffffffffffffffff167f8be0079c531659141344cd1fd0a4f28419497f9722a3daafe3b4186f6b6457e060405160405180910390a35050565b7f4e487b71000000000000000000000000000000000000000000000000000000005f52602160045260245ffd5b5f80fd5b5f73ffffffffffffffffffffffffffffffffffffffff82169050919050565b5f61024a82610221565b9050919050565b61025a81610240565b8114610264575f80fd5b50565b5f8151905061027581610251565b92915050565b5f819050919050565b61028d8161027b565b8114610297575f80fd5b50565b5f815190506102a881610284565b92915050565b5f805f606084860312156102c5576102c461021d565b5b5f6102d286828701610267565b93505060206102e38682870161029a565b92505060406102f48682870161029a565b9150509250925092565b61030781610240565b82525050565b5f6020820190506103205f8301846102fe565b92915050565b7f4e487b71000000000000000000000000000000000000000000000000000000005f52601160045260245ffd5b5f61035d8261027b565b91506103688361027b565b92508282026103768161027b565b9150828204841483151761038d5761038c610326565b5b5092915050565b5f61039e8261027b565b91506103a98361027b565b92508282019050808211156103c1576103c0610326565b5b92915050565b61264d806103d45f395ff3fe608060405234801561000f575f80fd5b5060043610610156575f3560e01c8063715018a6116100c1578063bfb906a71161007a578063bfb906a7146103a0578063cb06545c146103d0578063d19ee357146103ec578063f2fde38b14610408578063f4b1f50114610424578063f84ddf0b1461044257610156565b8063715018a6146102de5780638da5cb5b146102e857806399b1760a14610306578063a3ec138d14610336578063aae282e114610366578063b00741cb1461038457610156565b806333b2decc1161011357806333b2decc1461021c57806336fbad2614610238578063379607f51461025657806338200702146102725780633885aed3146102a25780634e69d560146102c057610156565b80630121b93f1461015a57806302a251a3146101765780630b102d1a146101945780630d15fd77146101b0578063107046bd146101ce578063239ecf3514610200575b5f80fd5b610174600480360381019061016f91906118d8565b610460565b005b61017e6108c4565b60405161018b9190611912565b60405180910390f35b6101ae60048036038101906101a99190611985565b6108ca565b005b6101b8610915565b6040516101c59190611912565b60405180910390f35b6101e860048036038101906101e391906118d8565b61091b565b6040516101f793929190611a2f565b60405180910390f35b61021a60048036038101906102159190611b97565b6109e6565b005b61023660048036038101906102319190611bde565b610ac0565b005b610240610e1a565b60405161024d9190611912565b60405180910390f35b610270600480360381019061026b91906118d8565b610e20565b005b61028c600480360381019061028791906118d8565b6110a9565b6040516102999190611c48565b60405180910390f35b6102aa6110c6565b6040516102b79190611912565b60405180910390f35b6102c86110cc565b6040516102d59190611912565b60405180910390f35b6102e6611108565b005b6102f061111b565b6040516102fd9190611c61565b60405180910390f35b610320600480360381019061031b9190611c7a565b611142565b60405161032d9190611912565b60405180910390f35b610350600480360381019061034b9190611985565b611230565b60405161035d9190611912565b60405180910390f35b61036e611245565b60405161037b9190611c61565b60405180910390f35b61039e600480360381019061039991906118d8565b61126a565b005b6103ba60048036038101906103b591906118d8565b61130f565b6040516103c79190611dbe565b60405180910390f35b6103ea60048036038101906103e591906118d8565b611432565b005b61040660048036038101906104019190611985565b611444565b005b610422600480360381019061041d9190611985565b611621565b005b61042c6116a5565b6040516104399190611912565b60405180910390f35b61044a6116f5565b6040516104579190611912565b60405180910390f35b600154421015801561047457506002544211155b6104b3576040517f08c379a00000000000000000000000000000000000000000000000000000000081526004016104aa90611e28565b60405180910390fd5b8060035410156104f8576040517f08c379a00000000000000000000000000000000000000000000000000000000081526004016104ef90611e90565b60405180910390fd5b5f60045f9054906101000a900473ffffffffffffffffffffffffffffffffffffffff1673ffffffffffffffffffffffffffffffffffffffff166370a08231336040518263ffffffff1660e01b81526004016105539190611c61565b602060405180830381865afa15801561056e573d5f803e3d5ffd5b505050506040513d601f19601f820116820180604052508101906105929190611ec2565b116105d2576040517f08c379a00000000000000000000000000000000000000000000000000000000081526004016105c990611f37565b60405180910390fd5b5f60095f8381526020019081526020015f20905060045f9054906101000a900473ffffffffffffffffffffffffffffffffffffffff1673ffffffffffffffffffffffffffffffffffffffff166370a08231336040518263ffffffff1660e01b81526004016106409190611c61565b602060405180830381865afa15801561065b573d5f803e3d5ffd5b505050506040513d601f19601f8201168201806040525081019061067f9190611ec2565b60055f3373ffffffffffffffffffffffffffffffffffffffff1673ffffffffffffffffffffffffffffffffffffffff1681526020019081526020015f2054106106fd576040517f08c379a00000000000000000000000000000000000000000000000000000000081526004016106f490611f9f565b60405180910390fd5b5f5b60075481116108bf573373ffffffffffffffffffffffffffffffffffffffff1660045f9054906101000a900473ffffffffffffffffffffffffffffffffffffffff1673ffffffffffffffffffffffffffffffffffffffff16636352211e836040518263ffffffff1660e01b81526004016107799190611912565b602060405180830381865afa158015610794573d5f803e3d5ffd5b505050506040513d601f19601f820116820180604052508101906107b89190611fd1565b73ffffffffffffffffffffffffffffffffffffffff16036108ac575f151560085f8381526020019081526020015f205f9054906101000a900460ff161515036108ab5760055f3373ffffffffffffffffffffffffffffffffffffffff1673ffffffffffffffffffffffffffffffffffffffff1681526020019081526020015f205f81548092919061084890612029565b9190505550816003015f81548092919061086190612029565b919050555060065f81548092919061087890612029565b9190505550600160085f8381526020019081526020015f205f6101000a81548160ff0219169083151502179055506108bf565b5b80806108b790612029565b9150506106ff565b505050565b60025481565b6108d26116fb565b8060045f6101000a81548173ffffffffffffffffffffffffffffffffffffffff021916908373ffffffffffffffffffffffffffffffffffffffff16021790555050565b60065481565b6009602052805f5260405f205f91509050805f01805461093a9061209d565b80601f01602080910402602001604051908101604052809291908181526020018280546109669061209d565b80156109b15780601f10610988576101008083540402835291602001916109b1565b820191905f5260205f20905b81548152906001019060200180831161099457829003601f168201915b505050505090806001015f9054906101000a900473ffffffffffffffffffffffffffffffffffffffff16908060030154905083565b6109ee6116fb565b600154421115610a33576040517f08c379a0000000000000000000000000000000000000000000000000000000008152600401610a2a90611e28565b60405180910390fd5b60035f815480929190610a4590612029565b91905055505f60095f60035481526020019081526020015f20905081815f019081610a70919061226a565b5033816001015f6101000a81548173ffffffffffffffffffffffffffffffffffffffff021916908373ffffffffffffffffffffffffffffffffffffffff1602179055505f81600301819055505050565b600154421115610b05576040517f08c379a0000000000000000000000000000000000000000000000000000000008152600401610afc90611e28565b60405180910390fd5b5f8111610b47576040517f08c379a0000000000000000000000000000000000000000000000000000000008152600401610b3e90612383565b60405180910390fd5b808273ffffffffffffffffffffffffffffffffffffffff166370a08231336040518263ffffffff1660e01b8152600401610b819190611c61565b602060405180830381865afa158015610b9c573d5f803e3d5ffd5b505050506040513d601f19601f82011682018060405250810190610bc09190611ec2565b1015610c01576040517f08c379a0000000000000000000000000000000000000000000000000000000008152600401610bf8906123eb565b60405180910390fd5b8173ffffffffffffffffffffffffffffffffffffffff166323b872dd3330846040518463ffffffff1660e01b8152600401610c3e93929190612409565b6020604051808303815f875af1158015610c5a573d5f803e3d5ffd5b505050506040513d601f19601f82011682018060405250810190610c7e9190612468565b610cbd576040517f08c379a0000000000000000000000000000000000000000000000000000000008152600401610cb4906124dd565b60405180910390fd5b5f60095f8581526020019081526020015f209050610cd961184a565b33815f019073ffffffffffffffffffffffffffffffffffffffff16908173ffffffffffffffffffffffffffffffffffffffff168152505083816020019073ffffffffffffffffffffffffffffffffffffffff16908173ffffffffffffffffffffffffffffffffffffffff1681525050828160400181815250508160020181908060018154018082558091505060019003905f5260205f2090600302015f909190919091505f820151815f015f6101000a81548173ffffffffffffffffffffffffffffffffffffffff021916908373ffffffffffffffffffffffffffffffffffffffff1602179055506020820151816001015f6101000a81548173ffffffffffffffffffffffffffffffffffffffff021916908373ffffffffffffffffffffffffffffffffffffffff1602179055506040820151816002015550505050505050565b60035481565b600254421015610e65576040517f08c379a0000000000000000000000000000000000000000000000000000000008152600401610e5c90611e28565b60405180910390fd5b610e6d6116a5565b8103610eae576040517f08c379a0000000000000000000000000000000000000000000000000000000008152600401610ea590612545565b60405180910390fd5b5f60095f8381526020019081526020015f2090505f5b81600201805490508110156110a4573373ffffffffffffffffffffffffffffffffffffffff16826002018281548110610f0057610eff612563565b5b905f5260205f2090600302015f015f9054906101000a900473ffffffffffffffffffffffffffffffffffffffff1673ffffffffffffffffffffffffffffffffffffffff160361109757816002018181548110610f5f57610f5e612563565b5b905f5260205f2090600302016001015f9054906101000a900473ffffffffffffffffffffffffffffffffffffffff1673ffffffffffffffffffffffffffffffffffffffff1663a9059cbb33846002018481548110610fc057610fbf612563565b5b905f5260205f209060030201600201546040518363ffffffff1660e01b8152600401610fed929190612590565b6020604051808303815f875af1158015611009573d5f803e3d5ffd5b505050506040513d601f19601f8201168201806040525081019061102d9190612468565b61106c576040517f08c379a0000000000000000000000000000000000000000000000000000000008152600401611063906124dd565b60405180910390fd5b5f82600201828154811061108357611082612563565b5b905f5260205f209060030201600201819055505b8080600101915050610ec4565b505050565b6008602052805f5260405f205f915054906101000a900460ff1681565b60015481565b5f60015442116110de575f9050611105565b60015442101580156110f257506002544211155b156111005760019050611105565b600290505b90565b6111106116fb565b6111195f611782565b565b5f805f9054906101000a900473ffffffffffffffffffffffffffffffffffffffff16905090565b5f805f90505f60095f8681526020019081526020015f2090505f5b8160020180549050811015611224578473ffffffffffffffffffffffffffffffffffffffff1682600201828154811061119957611198612563565b5b905f5260205f2090600302016001015f9054906101000a900473ffffffffffffffffffffffffffffffffffffffff1673ffffffffffffffffffffffffffffffffffffffff1603611217578160020181815481106111f9576111f8612563565b5b905f5260205f209060030201600201548361121491906125b7565b92505b808060010191505061115d565b50819250505092915050565b6005602052805f5260405f205f915090505481565b60045f9054906101000a900473ffffffffffffffffffffffffffffffffffffffff1681565b6112726116fb565b5f81036112a4575f600460146101000a81548160ff0219169083600281111561129e5761129d6125ea565b5b02179055505b600181036112d8576001600460146101000a81548160ff021916908360028111156112d2576112d16125ea565b5b02179055505b6002810361130c576002600460146101000a81548160ff02191690836002811115611306576113056125ea565b5b02179055505b50565b606060095f8381526020019081526020015f20600201805480602002602001604051908101604052809291908181526020015f905b82821015611427578382905f5260205f2090600302016040518060600160405290815f82015f9054906101000a900473ffffffffffffffffffffffffffffffffffffffff1673ffffffffffffffffffffffffffffffffffffffff1673ffffffffffffffffffffffffffffffffffffffff168152602001600182015f9054906101000a900473ffffffffffffffffffffffffffffffffffffffff1673ffffffffffffffffffffffffffffffffffffffff1673ffffffffffffffffffffffffffffffffffffffff16815260200160028201548152505081526020019060010190611344565b505050509050919050565b61143a6116fb565b8060078190555050565b61144c6116fb565b600254421015611491576040517f08c379a000000000000000000000000000000000000000000000000000000000815260040161148890611e28565b60405180910390fd5b5f61149a6116a5565b90505f60095f8381526020019081526020015f2090505f5b816002018054905081101561161b578160020181815481106114d7576114d6612563565b5b905f5260205f2090600302016001015f9054906101000a900473ffffffffffffffffffffffffffffffffffffffff1673ffffffffffffffffffffffffffffffffffffffff1663a9059cbb8584600201848154811061153857611537612563565b5b905f5260205f209060030201600201546040518363ffffffff1660e01b8152600401611565929190612590565b6020604051808303815f875af1158015611581573d5f803e3d5ffd5b505050506040513d601f19601f820116820180604052508101906115a59190612468565b6115e4576040517f08c379a00000000000000000000000000000000000000000000000000000000081526004016115db906124dd565b60405180910390fd5b5f8260020182815481106115fb576115fa612563565b5b905f5260205f2090600302016002018190555080806001019150506114b2565b50505050565b6116296116fb565b5f73ffffffffffffffffffffffffffffffffffffffff168173ffffffffffffffffffffffffffffffffffffffff1603611699575f6040517f1e4fbdf70000000000000000000000000000000000000000000000000000000081526004016116909190611c61565b60405180910390fd5b6116a281611782565b50565b5f80600190505f600190505b60035481116116ed578160095f8381526020019081526020015f206003015411156116da578091505b80806116e590612029565b9150506116b1565b508091505090565b60075481565b611703611843565b73ffffffffffffffffffffffffffffffffffffffff1661172161111b565b73ffffffffffffffffffffffffffffffffffffffff161461178057611744611843565b6040517f118cdaa70000000000000000000000000000000000000000000000000000000081526004016117779190611c61565b60405180910390fd5b565b5f805f9054906101000a900473ffffffffffffffffffffffffffffffffffffffff169050815f806101000a81548173ffffffffffffffffffffffffffffffffffffffff021916908373ffffffffffffffffffffffffffffffffffffffff1602179055508173ffffffffffffffffffffffffffffffffffffffff168173ffffffffffffffffffffffffffffffffffffffff167f8be0079c531659141344cd1fd0a4f28419497f9722a3daafe3b4186f6b6457e060405160405180910390a35050565b5f33905090565b60405180606001604052805f73ffffffffffffffffffffffffffffffffffffffff1681526020015f73ffffffffffffffffffffffffffffffffffffffff1681526020015f81525090565b5f604051905090565b5f80fd5b5f80fd5b5f819050919050565b6118b7816118a5565b81146118c1575f80fd5b50565b5f813590506118d2816118ae565b92915050565b5f602082840312156118ed576118ec61189d565b5b5f6118fa848285016118c4565b91505092915050565b61190c816118a5565b82525050565b5f6020820190506119255f830184611903565b92915050565b5f73ffffffffffffffffffffffffffffffffffffffff82169050919050565b5f6119548261192b565b9050919050565b6119648161194a565b811461196e575f80fd5b50565b5f8135905061197f8161195b565b92915050565b5f6020828403121561199a5761199961189d565b5b5f6119a784828501611971565b91505092915050565b5f81519050919050565b5f82825260208201905092915050565b8281835e5f83830152505050565b5f601f19601f8301169050919050565b5f6119f2826119b0565b6119fc81856119ba565b9350611a0c8185602086016119ca565b611a15816119d8565b840191505092915050565b611a298161194a565b82525050565b5f6060820190508181035f830152611a4781866119e8565b9050611a566020830185611a20565b611a636040830184611903565b949350505050565b5f80fd5b5f80fd5b7f4e487b71000000000000000000000000000000000000000000000000000000005f52604160045260245ffd5b611aa9826119d8565b810181811067ffffffffffffffff82111715611ac857611ac7611a73565b5b80604052505050565b5f611ada611894565b9050611ae68282611aa0565b919050565b5f67ffffffffffffffff821115611b0557611b04611a73565b5b611b0e826119d8565b9050602081019050919050565b828183375f83830152505050565b5f611b3b611b3684611aeb565b611ad1565b905082815260208101848484011115611b5757611b56611a6f565b5b611b62848285611b1b565b509392505050565b5f82601f830112611b7e57611b7d611a6b565b5b8135611b8e848260208601611b29565b91505092915050565b5f60208284031215611bac57611bab61189d565b5b5f82013567ffffffffffffffff811115611bc957611bc86118a1565b5b611bd584828501611b6a565b91505092915050565b5f805f60608486031215611bf557611bf461189d565b5b5f611c02868287016118c4565b9350506020611c1386828701611971565b9250506040611c24868287016118c4565b9150509250925092565b5f8115159050919050565b611c4281611c2e565b82525050565b5f602082019050611c5b5f830184611c39565b92915050565b5f602082019050611c745f830184611a20565b92915050565b5f8060408385031215611c9057611c8f61189d565b5b5f611c9d858286016118c4565b9250506020611cae85828601611971565b9150509250929050565b5f81519050919050565b5f82825260208201905092915050565b5f819050602082019050919050565b611cea8161194a565b82525050565b611cf9816118a5565b82525050565b606082015f820151611d135f850182611ce1565b506020820151611d266020850182611ce1565b506040820151611d396040850182611cf0565b50505050565b5f611d4a8383611cff565b60608301905092915050565b5f602082019050919050565b5f611d6c82611cb8565b611d768185611cc2565b9350611d8183611cd2565b805f5b83811015611db1578151611d988882611d3f565b9750611da383611d56565b925050600181019050611d84565b5085935050505092915050565b5f6020820190508181035f830152611dd68184611d62565b905092915050565b7f63616e7420646f206974206e6f770000000000000000000000000000000000005f82015250565b5f611e12600e836119ba565b9150611e1d82611dde565b602082019050919050565b5f6020820190508181035f830152611e3f81611e06565b9050919050565b7f616f7574206f66206f72646572206e6f000000000000000000000000000000005f82015250565b5f611e7a6010836119ba565b9150611e8582611e46565b602082019050919050565b5f6020820190508181035f830152611ea781611e6e565b9050919050565b5f81519050611ebc816118ae565b92915050565b5f60208284031215611ed757611ed661189d565b5b5f611ee484828501611eae565b91505092915050565b7f646f6e74206f776e20746865206e6674000000000000000000000000000000005f82015250565b5f611f216010836119ba565b9150611f2c82611eed565b602082019050919050565b5f6020820190508181035f830152611f4e81611f15565b9050919050565b7f63616e2063617374206d6f726520766f746500000000000000000000000000005f82015250565b5f611f896012836119ba565b9150611f9482611f55565b602082019050919050565b5f6020820190508181035f830152611fb681611f7d565b9050919050565b5f81519050611fcb8161195b565b92915050565b5f60208284031215611fe657611fe561189d565b5b5f611ff384828501611fbd565b91505092915050565b7f4e487b71000000000000000000000000000000000000000000000000000000005f52601160045260245ffd5b5f612033826118a5565b91507fffffffffffffffffffffffffffffffffffffffffffffffffffffffffffffffff820361206557612064611ffc565b5b600182019050919050565b7f4e487b71000000000000000000000000000000000000000000000000000000005f52602260045260245ffd5b5f60028204905060018216806120b457607f821691505b6020821081036120c7576120c6612070565b5b50919050565b5f819050815f5260205f209050919050565b5f6020601f8301049050919050565b5f82821b905092915050565b5f600883026121297fffffffffffffffffffffffffffffffffffffffffffffffffffffffffffffffff826120ee565b61213386836120ee565b95508019841693508086168417925050509392505050565b5f819050919050565b5f61216e612169612164846118a5565b61214b565b6118a5565b9050919050565b5f819050919050565b61218783612154565b61219b61219382612175565b8484546120fa565b825550505050565b5f90565b6121af6121a3565b6121ba81848461217e565b505050565b5b818110156121dd576121d25f826121a7565b6001810190506121c0565b5050565b601f821115612222576121f3816120cd565b6121fc846120df565b8101602085101561220b578190505b61221f612217856120df565b8301826121bf565b50505b505050565b5f82821c905092915050565b5f6122425f1984600802612227565b1980831691505092915050565b5f61225a8383612233565b9150826002028217905092915050565b612273826119b0565b67ffffffffffffffff81111561228c5761228b611a73565b5b612296825461209d565b6122a18282856121e1565b5f60209050601f8311600181146122d2575f84156122c0578287015190505b6122ca858261224f565b865550612331565b601f1984166122e0866120cd565b5f5b82811015612307578489015182556001820191506020850194506020810190506122e2565b868310156123245784890151612320601f891682612233565b8355505b6001600288020188555050505b505050505050565b7f416d6f756e74206d7573742062652067726561746572207468616e20300000005f82015250565b5f61236d601d836119ba565b915061237882612339565b602082019050919050565b5f6020820190508181035f83015261239a81612361565b9050919050565b7f496e73756666696369656e7420746f6b656e2062616c616e63650000000000005f82015250565b5f6123d5601a836119ba565b91506123e0826123a1565b602082019050919050565b5f6020820190508181035f830152612402816123c9565b9050919050565b5f60608201905061241c5f830186611a20565b6124296020830185611a20565b6124366040830184611903565b949350505050565b61244781611c2e565b8114612451575f80fd5b50565b5f815190506124628161243e565b92915050565b5f6020828403121561247d5761247c61189d565b5b5f61248a84828501612454565b91505092915050565b7f7472616e73616374696f6e206661696c656400000000000000000000000000005f82015250565b5f6124c76012836119ba565b91506124d282612493565b602082019050919050565b5f6020820190508181035f8301526124f4816124bb565b9050919050565b7f63616e7420636c61696d2077696e6e65722070726f6a656374000000000000005f82015250565b5f61252f6019836119ba565b915061253a826124fb565b602082019050919050565b5f6020820190508181035f83015261255c81612523565b9050919050565b7f4e487b71000000000000000000000000000000000000000000000000000000005f52603260045260245ffd5b5f6040820190506125a35f830185611a20565b6125b06020830184611903565b9392505050565b5f6125c1826118a5565b91506125cc836118a5565b92508282019050808211156125e4576125e3611ffc565b5b92915050565b7f4e487b71000000000000000000000000000000000000000000000000000000005f52602160045260245ffdfea264697066735822122000de1b6c2e9962c707825b6b676b458713d75025c845d855fe27c55c3b9ffa1464736f6c634300081a0033",
					"opcodes": "PUSH1 0x80 PUSH1 0x40 MSTORE PUSH0 PUSH1 0x3 SSTORE PUSH0 PUSH1 0x4 PUSH1 0x14 PUSH2 0x100 EXP DUP2 SLOAD DUP2 PUSH1 0xFF MUL NOT AND SWAP1 DUP4 PUSH1 0x2 DUP2 GT ISZERO PUSH2 0x2D JUMPI PUSH2 0x2C PUSH2 0x1F0 JUMP JUMPDEST JUMPDEST MUL OR SWAP1 SSTORE POP PUSH0 PUSH1 0x6 SSTORE PUSH1 0xA PUSH1 0x7 SSTORE CALLVALUE DUP1 ISZERO PUSH2 0x46 JUMPI PUSH0 DUP1 REVERT JUMPDEST POP PUSH1 0x40 MLOAD PUSH2 0x2A21 CODESIZE SUB DUP1 PUSH2 0x2A21 DUP4 CODECOPY DUP2 DUP2 ADD PUSH1 0x40 MSTORE DUP2 ADD SWAP1 PUSH2 0x68 SWAP2 SWAP1 PUSH2 0x2AE JUMP JUMPDEST DUP3 PUSH0 PUSH20 0xFFFFFFFFFFFFFFFFFFFFFFFFFFFFFFFFFFFFFFFF AND DUP2 PUSH20 0xFFFFFFFFFFFFFFFFFFFFFFFFFFFFFFFFFFFFFFFF AND SUB PUSH2 0xD9 JUMPI PUSH0 PUSH1 0x40 MLOAD PUSH32 0x1E4FBDF700000000000000000000000000000000000000000000000000000000 DUP2 MSTORE PUSH1 0x4 ADD PUSH2 0xD0 SWAP2 SWAP1 PUSH2 0x30D JUMP JUMPDEST PUSH1 0x40 MLOAD DUP1 SWAP2 SUB SWAP1 REVERT JUMPDEST PUSH2 0xE8 DUP2 PUSH2 0x12F PUSH1 0x20 SHL PUSH1 0x20 SHR JUMP JUMPDEST POP PUSH1 0x3C DUP3 PUSH2 0xF6 SWAP2 SWAP1 PUSH2 0x353 JUMP JUMPDEST TIMESTAMP PUSH2 0x101 SWAP2 SWAP1 PUSH2 0x394 JUMP JUMPDEST PUSH1 0x1 DUP2 SWAP1 SSTORE POP PUSH1 0x3C DUP2 PUSH2 0x114 SWAP2 SWAP1 PUSH2 0x353 JUMP JUMPDEST PUSH1 0x1 SLOAD PUSH2 0x121 SWAP2 SWAP1 PUSH2 0x394 JUMP JUMPDEST PUSH1 0x2 DUP2 SWAP1 SSTORE POP POP POP POP PUSH2 0x3C7 JUMP JUMPDEST PUSH0 DUP1 PUSH0 SWAP1 SLOAD SWAP1 PUSH2 0x100 EXP SWAP1 DIV PUSH20 0xFFFFFFFFFFFFFFFFFFFFFFFFFFFFFFFFFFFFFFFF AND SWAP1 POP DUP2 PUSH0 DUP1 PUSH2 0x100 EXP DUP2 SLOAD DUP2 PUSH20 0xFFFFFFFFFFFFFFFFFFFFFFFFFFFFFFFFFFFFFFFF MUL NOT AND SWAP1 DUP4 PUSH20 0xFFFFFFFFFFFFFFFFFFFFFFFFFFFFFFFFFFFFFFFF AND MUL OR SWAP1 SSTORE POP DUP2 PUSH20 0xFFFFFFFFFFFFFFFFFFFFFFFFFFFFFFFFFFFFFFFF AND DUP2 PUSH20 0xFFFFFFFFFFFFFFFFFFFFFFFFFFFFFFFFFFFFFFFF AND PUSH32 0x8BE0079C531659141344CD1FD0A4F28419497F9722A3DAAFE3B4186F6B6457E0 PUSH1 0x40 MLOAD PUSH1 0x40 MLOAD DUP1 SWAP2 SUB SWAP1 LOG3 POP POP JUMP JUMPDEST PUSH32 0x4E487B7100000000000000000000000000000000000000000000000000000000 PUSH0 MSTORE PUSH1 0x21 PUSH1 0x4 MSTORE PUSH1 0x24 PUSH0 REVERT JUMPDEST PUSH0 DUP1 REVERT JUMPDEST PUSH0 PUSH20 0xFFFFFFFFFFFFFFFFFFFFFFFFFFFFFFFFFFFFFFFF DUP3 AND SWAP1 POP SWAP2 SWAP1 POP JUMP JUMPDEST PUSH0 PUSH2 0x24A DUP3 PUSH2 0x221 JUMP JUMPDEST SWAP1 POP SWAP2 SWAP1 POP JUMP JUMPDEST PUSH2 0x25A DUP2 PUSH2 0x240 JUMP JUMPDEST DUP2 EQ PUSH2 0x264 JUMPI PUSH0 DUP1 REVERT JUMPDEST POP JUMP JUMPDEST PUSH0 DUP2 MLOAD SWAP1 POP PUSH2 0x275 DUP2 PUSH2 0x251 JUMP JUMPDEST SWAP3 SWAP2 POP POP JUMP JUMPDEST PUSH0 DUP2 SWAP1 POP SWAP2 SWAP1 POP JUMP JUMPDEST PUSH2 0x28D DUP2 PUSH2 0x27B JUMP JUMPDEST DUP2 EQ PUSH2 0x297 JUMPI PUSH0 DUP1 REVERT JUMPDEST POP JUMP JUMPDEST PUSH0 DUP2 MLOAD SWAP1 POP PUSH2 0x2A8 DUP2 PUSH2 0x284 JUMP JUMPDEST SWAP3 SWAP2 POP POP JUMP JUMPDEST PUSH0 DUP1 PUSH0 PUSH1 0x60 DUP5 DUP7 SUB SLT ISZERO PUSH2 0x2C5 JUMPI PUSH2 0x2C4 PUSH2 0x21D JUMP JUMPDEST JUMPDEST PUSH0 PUSH2 0x2D2 DUP7 DUP3 DUP8 ADD PUSH2 0x267 JUMP JUMPDEST SWAP4 POP POP PUSH1 0x20 PUSH2 0x2E3 DUP7 DUP3 DUP8 ADD PUSH2 0x29A JUMP JUMPDEST SWAP3 POP POP PUSH1 0x40 PUSH2 0x2F4 DUP7 DUP3 DUP8 ADD PUSH2 0x29A JUMP JUMPDEST SWAP2 POP POP SWAP3 POP SWAP3 POP SWAP3 JUMP JUMPDEST PUSH2 0x307 DUP2 PUSH2 0x240 JUMP JUMPDEST DUP3 MSTORE POP POP JUMP JUMPDEST PUSH0 PUSH1 0x20 DUP3 ADD SWAP1 POP PUSH2 0x320 PUSH0 DUP4 ADD DUP5 PUSH2 0x2FE JUMP JUMPDEST SWAP3 SWAP2 POP POP JUMP JUMPDEST PUSH32 0x4E487B7100000000000000000000000000000000000000000000000000000000 PUSH0 MSTORE PUSH1 0x11 PUSH1 0x4 MSTORE PUSH1 0x24 PUSH0 REVERT JUMPDEST PUSH0 PUSH2 0x35D DUP3 PUSH2 0x27B JUMP JUMPDEST SWAP2 POP PUSH2 0x368 DUP4 PUSH2 0x27B JUMP JUMPDEST SWAP3 POP DUP3 DUP3 MUL PUSH2 0x376 DUP2 PUSH2 0x27B JUMP JUMPDEST SWAP2 POP DUP3 DUP3 DIV DUP5 EQ DUP4 ISZERO OR PUSH2 0x38D JUMPI PUSH2 0x38C PUSH2 0x326 JUMP JUMPDEST JUMPDEST POP SWAP3 SWAP2 POP POP JUMP JUMPDEST PUSH0 PUSH2 0x39E DUP3 PUSH2 0x27B JUMP JUMPDEST SWAP2 POP PUSH2 0x3A9 DUP4 PUSH2 0x27B JUMP JUMPDEST SWAP3 POP DUP3 DUP3 ADD SWAP1 POP DUP1 DUP3 GT ISZERO PUSH2 0x3C1 JUMPI PUSH2 0x3C0 PUSH2 0x326 JUMP JUMPDEST JUMPDEST SWAP3 SWAP2 POP POP JUMP JUMPDEST PUSH2 0x264D DUP1 PUSH2 0x3D4 PUSH0 CODECOPY PUSH0 RETURN INVALID PUSH1 0x80 PUSH1 0x40 MSTORE CALLVALUE DUP1 ISZERO PUSH2 0xF JUMPI PUSH0 DUP1 REVERT JUMPDEST POP PUSH1 0x4 CALLDATASIZE LT PUSH2 0x156 JUMPI PUSH0 CALLDATALOAD PUSH1 0xE0 SHR DUP1 PUSH4 0x715018A6 GT PUSH2 0xC1 JUMPI DUP1 PUSH4 0xBFB906A7 GT PUSH2 0x7A JUMPI DUP1 PUSH4 0xBFB906A7 EQ PUSH2 0x3A0 JUMPI DUP1 PUSH4 0xCB06545C EQ PUSH2 0x3D0 JUMPI DUP1 PUSH4 0xD19EE357 EQ PUSH2 0x3EC JUMPI DUP1 PUSH4 0xF2FDE38B EQ PUSH2 0x408 JUMPI DUP1 PUSH4 0xF4B1F501 EQ PUSH2 0x424 JUMPI DUP1 PUSH4 0xF84DDF0B EQ PUSH2 0x442 JUMPI PUSH2 0x156 JUMP JUMPDEST DUP1 PUSH4 0x715018A6 EQ PUSH2 0x2DE JUMPI DUP1 PUSH4 0x8DA5CB5B EQ PUSH2 0x2E8 JUMPI DUP1 PUSH4 0x99B1760A EQ PUSH2 0x306 JUMPI DUP1 PUSH4 0xA3EC138D EQ PUSH2 0x336 JUMPI DUP1 PUSH4 0xAAE282E1 EQ PUSH2 0x366 JUMPI DUP1 PUSH4 0xB00741CB EQ PUSH2 0x384 JUMPI PUSH2 0x156 JUMP JUMPDEST DUP1 PUSH4 0x33B2DECC GT PUSH2 0x113 JUMPI DUP1 PUSH4 0x33B2DECC EQ PUSH2 0x21C JUMPI DUP1 PUSH4 0x36FBAD26 EQ PUSH2 0x238 JUMPI DUP1 PUSH4 0x379607F5 EQ PUSH2 0x256 JUMPI DUP1 PUSH4 0x38200702 EQ PUSH2 0x272 JUMPI DUP1 PUSH4 0x3885AED3 EQ PUSH2 0x2A2 JUMPI DUP1 PUSH4 0x4E69D560 EQ PUSH2 0x2C0 JUMPI PUSH2 0x156 JUMP JUMPDEST DUP1 PUSH4 0x121B93F EQ PUSH2 0x15A JUMPI DUP1 PUSH4 0x2A251A3 EQ PUSH2 0x176 JUMPI DUP1 PUSH4 0xB102D1A EQ PUSH2 0x194 JUMPI DUP1 PUSH4 0xD15FD77 EQ PUSH2 0x1B0 JUMPI DUP1 PUSH4 0x107046BD EQ PUSH2 0x1CE JUMPI DUP1 PUSH4 0x239ECF35 EQ PUSH2 0x200 JUMPI JUMPDEST PUSH0 DUP1 REVERT JUMPDEST PUSH2 0x174 PUSH1 0x4 DUP1 CALLDATASIZE SUB DUP2 ADD SWAP1 PUSH2 0x16F SWAP2 SWAP1 PUSH2 0x18D8 JUMP JUMPDEST PUSH2 0x460 JUMP JUMPDEST STOP JUMPDEST PUSH2 0x17E PUSH2 0x8C4 JUMP JUMPDEST PUSH1 0x40 MLOAD PUSH2 0x18B SWAP2 SWAP1 PUSH2 0x1912 JUMP JUMPDEST PUSH1 0x40 MLOAD DUP1 SWAP2 SUB SWAP1 RETURN JUMPDEST PUSH2 0x1AE PUSH1 0x4 DUP1 CALLDATASIZE SUB DUP2 ADD SWAP1 PUSH2 0x1A9 SWAP2 SWAP1 PUSH2 0x1985 JUMP JUMPDEST PUSH2 0x8CA JUMP JUMPDEST STOP JUMPDEST PUSH2 0x1B8 PUSH2 0x915 JUMP JUMPDEST PUSH1 0x40 MLOAD PUSH2 0x1C5 SWAP2 SWAP1 PUSH2 0x1912 JUMP JUMPDEST PUSH1 0x40 MLOAD DUP1 SWAP2 SUB SWAP1 RETURN JUMPDEST PUSH2 0x1E8 PUSH1 0x4 DUP1 CALLDATASIZE SUB DUP2 ADD SWAP1 PUSH2 0x1E3 SWAP2 SWAP1 PUSH2 0x18D8 JUMP JUMPDEST PUSH2 0x91B JUMP JUMPDEST PUSH1 0x40 MLOAD PUSH2 0x1F7 SWAP4 SWAP3 SWAP2 SWAP1 PUSH2 0x1A2F JUMP JUMPDEST PUSH1 0x40 MLOAD DUP1 SWAP2 SUB SWAP1 RETURN JUMPDEST PUSH2 0x21A PUSH1 0x4 DUP1 CALLDATASIZE SUB DUP2 ADD SWAP1 PUSH2 0x215 SWAP2 SWAP1 PUSH2 0x1B97 JUMP JUMPDEST PUSH2 0x9E6 JUMP JUMPDEST STOP JUMPDEST PUSH2 0x236 PUSH1 0x4 DUP1 CALLDATASIZE SUB DUP2 ADD SWAP1 PUSH2 0x231 SWAP2 SWAP1 PUSH2 0x1BDE JUMP JUMPDEST PUSH2 0xAC0 JUMP JUMPDEST STOP JUMPDEST PUSH2 0x240 PUSH2 0xE1A JUMP JUMPDEST PUSH1 0x40 MLOAD PUSH2 0x24D SWAP2 SWAP1 PUSH2 0x1912 JUMP JUMPDEST PUSH1 0x40 MLOAD DUP1 SWAP2 SUB SWAP1 RETURN JUMPDEST PUSH2 0x270 PUSH1 0x4 DUP1 CALLDATASIZE SUB DUP2 ADD SWAP1 PUSH2 0x26B SWAP2 SWAP1 PUSH2 0x18D8 JUMP JUMPDEST PUSH2 0xE20 JUMP JUMPDEST STOP JUMPDEST PUSH2 0x28C PUSH1 0x4 DUP1 CALLDATASIZE SUB DUP2 ADD SWAP1 PUSH2 0x287 SWAP2 SWAP1 PUSH2 0x18D8 JUMP JUMPDEST PUSH2 0x10A9 JUMP JUMPDEST PUSH1 0x40 MLOAD PUSH2 0x299 SWAP2 SWAP1 PUSH2 0x1C48 JUMP JUMPDEST PUSH1 0x40 MLOAD DUP1 SWAP2 SUB SWAP1 RETURN JUMPDEST PUSH2 0x2AA PUSH2 0x10C6 JUMP JUMPDEST PUSH1 0x40 MLOAD PUSH2 0x2B7 SWAP2 SWAP1 PUSH2 0x1912 JUMP JUMPDEST PUSH1 0x40 MLOAD DUP1 SWAP2 SUB SWAP1 RETURN JUMPDEST PUSH2 0x2C8 PUSH2 0x10CC JUMP JUMPDEST PUSH1 0x40 MLOAD PUSH2 0x2D5 SWAP2 SWAP1 PUSH2 0x1912 JUMP JUMPDEST PUSH1 0x40 MLOAD DUP1 SWAP2 SUB SWAP1 RETURN JUMPDEST PUSH2 0x2E6 PUSH2 0x1108 JUMP JUMPDEST STOP JUMPDEST PUSH2 0x2F0 PUSH2 0x111B JUMP JUMPDEST PUSH1 0x40 MLOAD PUSH2 0x2FD SWAP2 SWAP1 PUSH2 0x1C61 JUMP JUMPDEST PUSH1 0x40 MLOAD DUP1 SWAP2 SUB SWAP1 RETURN JUMPDEST PUSH2 0x320 PUSH1 0x4 DUP1 CALLDATASIZE SUB DUP2 ADD SWAP1 PUSH2 0x31B SWAP2 SWAP1 PUSH2 0x1C7A JUMP JUMPDEST PUSH2 0x1142 JUMP JUMPDEST PUSH1 0x40 MLOAD PUSH2 0x32D SWAP2 SWAP1 PUSH2 0x1912 JUMP JUMPDEST PUSH1 0x40 MLOAD DUP1 SWAP2 SUB SWAP1 RETURN JUMPDEST PUSH2 0x350 PUSH1 0x4 DUP1 CALLDATASIZE SUB DUP2 ADD SWAP1 PUSH2 0x34B SWAP2 SWAP1 PUSH2 0x1985 JUMP JUMPDEST PUSH2 0x1230 JUMP JUMPDEST PUSH1 0x40 MLOAD PUSH2 0x35D SWAP2 SWAP1 PUSH2 0x1912 JUMP JUMPDEST PUSH1 0x40 MLOAD DUP1 SWAP2 SUB SWAP1 RETURN JUMPDEST PUSH2 0x36E PUSH2 0x1245 JUMP JUMPDEST PUSH1 0x40 MLOAD PUSH2 0x37B SWAP2 SWAP1 PUSH2 0x1C61 JUMP JUMPDEST PUSH1 0x40 MLOAD DUP1 SWAP2 SUB SWAP1 RETURN JUMPDEST PUSH2 0x39E PUSH1 0x4 DUP1 CALLDATASIZE SUB DUP2 ADD SWAP1 PUSH2 0x399 SWAP2 SWAP1 PUSH2 0x18D8 JUMP JUMPDEST PUSH2 0x126A JUMP JUMPDEST STOP JUMPDEST PUSH2 0x3BA PUSH1 0x4 DUP1 CALLDATASIZE SUB DUP2 ADD SWAP1 PUSH2 0x3B5 SWAP2 SWAP1 PUSH2 0x18D8 JUMP JUMPDEST PUSH2 0x130F JUMP JUMPDEST PUSH1 0x40 MLOAD PUSH2 0x3C7 SWAP2 SWAP1 PUSH2 0x1DBE JUMP JUMPDEST PUSH1 0x40 MLOAD DUP1 SWAP2 SUB SWAP1 RETURN JUMPDEST PUSH2 0x3EA PUSH1 0x4 DUP1 CALLDATASIZE SUB DUP2 ADD SWAP1 PUSH2 0x3E5 SWAP2 SWAP1 PUSH2 0x18D8 JUMP JUMPDEST PUSH2 0x1432 JUMP JUMPDEST STOP JUMPDEST PUSH2 0x406 PUSH1 0x4 DUP1 CALLDATASIZE SUB DUP2 ADD SWAP1 PUSH2 0x401 SWAP2 SWAP1 PUSH2 0x1985 JUMP JUMPDEST PUSH2 0x1444 JUMP JUMPDEST STOP JUMPDEST PUSH2 0x422 PUSH1 0x4 DUP1 CALLDATASIZE SUB DUP2 ADD SWAP1 PUSH2 0x41D SWAP2 SWAP1 PUSH2 0x1985 JUMP JUMPDEST PUSH2 0x1621 JUMP JUMPDEST STOP JUMPDEST PUSH2 0x42C PUSH2 0x16A5 JUMP JUMPDEST PUSH1 0x40 MLOAD PUSH2 0x439 SWAP2 SWAP1 PUSH2 0x1912 JUMP JUMPDEST PUSH1 0x40 MLOAD DUP1 SWAP2 SUB SWAP1 RETURN JUMPDEST PUSH2 0x44A PUSH2 0x16F5 JUMP JUMPDEST PUSH1 0x40 MLOAD PUSH2 0x457 SWAP2 SWAP1 PUSH2 0x1912 JUMP JUMPDEST PUSH1 0x40 MLOAD DUP1 SWAP2 SUB SWAP1 RETURN JUMPDEST PUSH1 0x1 SLOAD TIMESTAMP LT ISZERO DUP1 ISZERO PUSH2 0x474 JUMPI POP PUSH1 0x2 SLOAD TIMESTAMP GT ISZERO JUMPDEST PUSH2 0x4B3 JUMPI PUSH1 0x40 MLOAD PUSH32 0x8C379A000000000000000000000000000000000000000000000000000000000 DUP2 MSTORE PUSH1 0x4 ADD PUSH2 0x4AA SWAP1 PUSH2 0x1E28 JUMP JUMPDEST PUSH1 0x40 MLOAD DUP1 SWAP2 SUB SWAP1 REVERT JUMPDEST DUP1 PUSH1 0x3 SLOAD LT ISZERO PUSH2 0x4F8 JUMPI PUSH1 0x40 MLOAD PUSH32 0x8C379A000000000000000000000000000000000000000000000000000000000 DUP2 MSTORE PUSH1 0x4 ADD PUSH2 0x4EF SWAP1 PUSH2 0x1E90 JUMP JUMPDEST PUSH1 0x40 MLOAD DUP1 SWAP2 SUB SWAP1 REVERT JUMPDEST PUSH0 PUSH1 0x4 PUSH0 SWAP1 SLOAD SWAP1 PUSH2 0x100 EXP SWAP1 DIV PUSH20 0xFFFFFFFFFFFFFFFFFFFFFFFFFFFFFFFFFFFFFFFF AND PUSH20 0xFFFFFFFFFFFFFFFFFFFFFFFFFFFFFFFFFFFFFFFF AND PUSH4 0x70A08231 CALLER PUSH1 0x40 MLOAD DUP3 PUSH4 0xFFFFFFFF AND PUSH1 0xE0 SHL DUP2 MSTORE PUSH1 0x4 ADD PUSH2 0x553 SWAP2 SWAP1 PUSH2 0x1C61 JUMP JUMPDEST PUSH1 0x20 PUSH1 0x40 MLOAD DUP1 DUP4 SUB DUP2 DUP7 GAS STATICCALL ISZERO DUP1 ISZERO PUSH2 0x56E JUMPI RETURNDATASIZE PUSH0 DUP1 RETURNDATACOPY RETURNDATASIZE PUSH0 REVERT JUMPDEST POP POP POP POP PUSH1 0x40 MLOAD RETURNDATASIZE PUSH1 0x1F NOT PUSH1 0x1F DUP3 ADD AND DUP3 ADD DUP1 PUSH1 0x40 MSTORE POP DUP2 ADD SWAP1 PUSH2 0x592 SWAP2 SWAP1 PUSH2 0x1EC2 JUMP JUMPDEST GT PUSH2 0x5D2 JUMPI PUSH1 0x40 MLOAD PUSH32 0x8C379A000000000000000000000000000000000000000000000000000000000 DUP2 MSTORE PUSH1 0x4 ADD PUSH2 0x5C9 SWAP1 PUSH2 0x1F37 JUMP JUMPDEST PUSH1 0x40 MLOAD DUP1 SWAP2 SUB SWAP1 REVERT JUMPDEST PUSH0 PUSH1 0x9 PUSH0 DUP4 DUP2 MSTORE PUSH1 0x20 ADD SWAP1 DUP2 MSTORE PUSH1 0x20 ADD PUSH0 KECCAK256 SWAP1 POP PUSH1 0x4 PUSH0 SWAP1 SLOAD SWAP1 PUSH2 0x100 EXP SWAP1 DIV PUSH20 0xFFFFFFFFFFFFFFFFFFFFFFFFFFFFFFFFFFFFFFFF AND PUSH20 0xFFFFFFFFFFFFFFFFFFFFFFFFFFFFFFFFFFFFFFFF AND PUSH4 0x70A08231 CALLER PUSH1 0x40 MLOAD DUP3 PUSH4 0xFFFFFFFF AND PUSH1 0xE0 SHL DUP2 MSTORE PUSH1 0x4 ADD PUSH2 0x640 SWAP2 SWAP1 PUSH2 0x1C61 JUMP JUMPDEST PUSH1 0x20 PUSH1 0x40 MLOAD DUP1 DUP4 SUB DUP2 DUP7 GAS STATICCALL ISZERO DUP1 ISZERO PUSH2 0x65B JUMPI RETURNDATASIZE PUSH0 DUP1 RETURNDATACOPY RETURNDATASIZE PUSH0 REVERT JUMPDEST POP POP POP POP PUSH1 0x40 MLOAD RETURNDATASIZE PUSH1 0x1F NOT PUSH1 0x1F DUP3 ADD AND DUP3 ADD DUP1 PUSH1 0x40 MSTORE POP DUP2 ADD SWAP1 PUSH2 0x67F SWAP2 SWAP1 PUSH2 0x1EC2 JUMP JUMPDEST PUSH1 0x5 PUSH0 CALLER PUSH20 0xFFFFFFFFFFFFFFFFFFFFFFFFFFFFFFFFFFFFFFFF AND PUSH20 0xFFFFFFFFFFFFFFFFFFFFFFFFFFFFFFFFFFFFFFFF AND DUP2 MSTORE PUSH1 0x20 ADD SWAP1 DUP2 MSTORE PUSH1 0x20 ADD PUSH0 KECCAK256 SLOAD LT PUSH2 0x6FD JUMPI PUSH1 0x40 MLOAD PUSH32 0x8C379A000000000000000000000000000000000000000000000000000000000 DUP2 MSTORE PUSH1 0x4 ADD PUSH2 0x6F4 SWAP1 PUSH2 0x1F9F JUMP JUMPDEST PUSH1 0x40 MLOAD DUP1 SWAP2 SUB SWAP1 REVERT JUMPDEST PUSH0 JUMPDEST PUSH1 0x7 SLOAD DUP2 GT PUSH2 0x8BF JUMPI CALLER PUSH20 0xFFFFFFFFFFFFFFFFFFFFFFFFFFFFFFFFFFFFFFFF AND PUSH1 0x4 PUSH0 SWAP1 SLOAD SWAP1 PUSH2 0x100 EXP SWAP1 DIV PUSH20 0xFFFFFFFFFFFFFFFFFFFFFFFFFFFFFFFFFFFFFFFF AND PUSH20 0xFFFFFFFFFFFFFFFFFFFFFFFFFFFFFFFFFFFFFFFF AND PUSH4 0x6352211E DUP4 PUSH1 0x40 MLOAD DUP3 PUSH4 0xFFFFFFFF AND PUSH1 0xE0 SHL DUP2 MSTORE PUSH1 0x4 ADD PUSH2 0x779 SWAP2 SWAP1 PUSH2 0x1912 JUMP JUMPDEST PUSH1 0x20 PUSH1 0x40 MLOAD DUP1 DUP4 SUB DUP2 DUP7 GAS STATICCALL ISZERO DUP1 ISZERO PUSH2 0x794 JUMPI RETURNDATASIZE PUSH0 DUP1 RETURNDATACOPY RETURNDATASIZE PUSH0 REVERT JUMPDEST POP POP POP POP PUSH1 0x40 MLOAD RETURNDATASIZE PUSH1 0x1F NOT PUSH1 0x1F DUP3 ADD AND DUP3 ADD DUP1 PUSH1 0x40 MSTORE POP DUP2 ADD SWAP1 PUSH2 0x7B8 SWAP2 SWAP1 PUSH2 0x1FD1 JUMP JUMPDEST PUSH20 0xFFFFFFFFFFFFFFFFFFFFFFFFFFFFFFFFFFFFFFFF AND SUB PUSH2 0x8AC JUMPI PUSH0 ISZERO ISZERO PUSH1 0x8 PUSH0 DUP4 DUP2 MSTORE PUSH1 0x20 ADD SWAP1 DUP2 MSTORE PUSH1 0x20 ADD PUSH0 KECCAK256 PUSH0 SWAP1 SLOAD SWAP1 PUSH2 0x100 EXP SWAP1 DIV PUSH1 0xFF AND ISZERO ISZERO SUB PUSH2 0x8AB JUMPI PUSH1 0x5 PUSH0 CALLER PUSH20 0xFFFFFFFFFFFFFFFFFFFFFFFFFFFFFFFFFFFFFFFF AND PUSH20 0xFFFFFFFFFFFFFFFFFFFFFFFFFFFFFFFFFFFFFFFF AND DUP2 MSTORE PUSH1 0x20 ADD SWAP1 DUP2 MSTORE PUSH1 0x20 ADD PUSH0 KECCAK256 PUSH0 DUP2 SLOAD DUP1 SWAP3 SWAP2 SWAP1 PUSH2 0x848 SWAP1 PUSH2 0x2029 JUMP JUMPDEST SWAP2 SWAP1 POP SSTORE POP DUP2 PUSH1 0x3 ADD PUSH0 DUP2 SLOAD DUP1 SWAP3 SWAP2 SWAP1 PUSH2 0x861 SWAP1 PUSH2 0x2029 JUMP JUMPDEST SWAP2 SWAP1 POP SSTORE POP PUSH1 0x6 PUSH0 DUP2 SLOAD DUP1 SWAP3 SWAP2 SWAP1 PUSH2 0x878 SWAP1 PUSH2 0x2029 JUMP JUMPDEST SWAP2 SWAP1 POP SSTORE POP PUSH1 0x1 PUSH1 0x8 PUSH0 DUP4 DUP2 MSTORE PUSH1 0x20 ADD SWAP1 DUP2 MSTORE PUSH1 0x20 ADD PUSH0 KECCAK256 PUSH0 PUSH2 0x100 EXP DUP2 SLOAD DUP2 PUSH1 0xFF MUL NOT AND SWAP1 DUP4 ISZERO ISZERO MUL OR SWAP1 SSTORE POP PUSH2 0x8BF JUMP JUMPDEST JUMPDEST DUP1 DUP1 PUSH2 0x8B7 SWAP1 PUSH2 0x2029 JUMP JUMPDEST SWAP2 POP POP PUSH2 0x6FF JUMP JUMPDEST POP POP POP JUMP JUMPDEST PUSH1 0x2 SLOAD DUP2 JUMP JUMPDEST PUSH2 0x8D2 PUSH2 0x16FB JUMP JUMPDEST DUP1 PUSH1 0x4 PUSH0 PUSH2 0x100 EXP DUP2 SLOAD DUP2 PUSH20 0xFFFFFFFFFFFFFFFFFFFFFFFFFFFFFFFFFFFFFFFF MUL NOT AND SWAP1 DUP4 PUSH20 0xFFFFFFFFFFFFFFFFFFFFFFFFFFFFFFFFFFFFFFFF AND MUL OR SWAP1 SSTORE POP POP JUMP JUMPDEST PUSH1 0x6 SLOAD DUP2 JUMP JUMPDEST PUSH1 0x9 PUSH1 0x20 MSTORE DUP1 PUSH0 MSTORE PUSH1 0x40 PUSH0 KECCAK256 PUSH0 SWAP2 POP SWAP1 POP DUP1 PUSH0 ADD DUP1 SLOAD PUSH2 0x93A SWAP1 PUSH2 0x209D JUMP JUMPDEST DUP1 PUSH1 0x1F ADD PUSH1 0x20 DUP1 SWAP2 DIV MUL PUSH1 0x20 ADD PUSH1 0x40 MLOAD SWAP1 DUP2 ADD PUSH1 0x40 MSTORE DUP1 SWAP3 SWAP2 SWAP1 DUP2 DUP2 MSTORE PUSH1 0x20 ADD DUP3 DUP1 SLOAD PUSH2 0x966 SWAP1 PUSH2 0x209D JUMP JUMPDEST DUP1 ISZERO PUSH2 0x9B1 JUMPI DUP1 PUSH1 0x1F LT PUSH2 0x988 JUMPI PUSH2 0x100 DUP1 DUP4 SLOAD DIV MUL DUP4 MSTORE SWAP2 PUSH1 0x20 ADD SWAP2 PUSH2 0x9B1 JUMP JUMPDEST DUP3 ADD SWAP2 SWAP1 PUSH0 MSTORE PUSH1 0x20 PUSH0 KECCAK256 SWAP1 JUMPDEST DUP2 SLOAD DUP2 MSTORE SWAP1 PUSH1 0x1 ADD SWAP1 PUSH1 0x20 ADD DUP1 DUP4 GT PUSH2 0x994 JUMPI DUP3 SWAP1 SUB PUSH1 0x1F AND DUP3 ADD SWAP2 JUMPDEST POP POP POP POP POP SWAP1 DUP1 PUSH1 0x1 ADD PUSH0 SWAP1 SLOAD SWAP1 PUSH2 0x100 EXP SWAP1 DIV PUSH20 0xFFFFFFFFFFFFFFFFFFFFFFFFFFFFFFFFFFFFFFFF AND SWAP1 DUP1 PUSH1 0x3 ADD SLOAD SWAP1 POP DUP4 JUMP JUMPDEST PUSH2 0x9EE PUSH2 0x16FB JUMP JUMPDEST PUSH1 0x1 SLOAD TIMESTAMP GT ISZERO PUSH2 0xA33 JUMPI PUSH1 0x40 MLOAD PUSH32 0x8C379A000000000000000000000000000000000000000000000000000000000 DUP2 MSTORE PUSH1 0x4 ADD PUSH2 0xA2A SWAP1 PUSH2 0x1E28 JUMP JUMPDEST PUSH1 0x40 MLOAD DUP1 SWAP2 SUB SWAP1 REVERT JUMPDEST PUSH1 0x3 PUSH0 DUP2 SLOAD DUP1 SWAP3 SWAP2 SWAP1 PUSH2 0xA45 SWAP1 PUSH2 0x2029 JUMP JUMPDEST SWAP2 SWAP1 POP SSTORE POP PUSH0 PUSH1 0x9 PUSH0 PUSH1 0x3 SLOAD DUP2 MSTORE PUSH1 0x20 ADD SWAP1 DUP2 MSTORE PUSH1 0x20 ADD PUSH0 KECCAK256 SWAP1 POP DUP2 DUP2 PUSH0 ADD SWAP1 DUP2 PUSH2 0xA70 SWAP2 SWAP1 PUSH2 0x226A JUMP JUMPDEST POP CALLER DUP2 PUSH1 0x1 ADD PUSH0 PUSH2 0x100 EXP DUP2 SLOAD DUP2 PUSH20 0xFFFFFFFFFFFFFFFFFFFFFFFFFFFFFFFFFFFFFFFF MUL NOT AND SWAP1 DUP4 PUSH20 0xFFFFFFFFFFFFFFFFFFFFFFFFFFFFFFFFFFFFFFFF AND MUL OR SWAP1 SSTORE POP PUSH0 DUP2 PUSH1 0x3 ADD DUP2 SWAP1 SSTORE POP POP POP JUMP JUMPDEST PUSH1 0x1 SLOAD TIMESTAMP GT ISZERO PUSH2 0xB05 JUMPI PUSH1 0x40 MLOAD PUSH32 0x8C379A000000000000000000000000000000000000000000000000000000000 DUP2 MSTORE PUSH1 0x4 ADD PUSH2 0xAFC SWAP1 PUSH2 0x1E28 JUMP JUMPDEST PUSH1 0x40 MLOAD DUP1 SWAP2 SUB SWAP1 REVERT JUMPDEST PUSH0 DUP2 GT PUSH2 0xB47 JUMPI PUSH1 0x40 MLOAD PUSH32 0x8C379A000000000000000000000000000000000000000000000000000000000 DUP2 MSTORE PUSH1 0x4 ADD PUSH2 0xB3E SWAP1 PUSH2 0x2383 JUMP JUMPDEST PUSH1 0x40 MLOAD DUP1 SWAP2 SUB SWAP1 REVERT JUMPDEST DUP1 DUP3 PUSH20 0xFFFFFFFFFFFFFFFFFFFFFFFFFFFFFFFFFFFFFFFF AND PUSH4 0x70A08231 CALLER PUSH1 0x40 MLOAD DUP3 PUSH4 0xFFFFFFFF AND PUSH1 0xE0 SHL DUP2 MSTORE PUSH1 0x4 ADD PUSH2 0xB81 SWAP2 SWAP1 PUSH2 0x1C61 JUMP JUMPDEST PUSH1 0x20 PUSH1 0x40 MLOAD DUP1 DUP4 SUB DUP2 DUP7 GAS STATICCALL ISZERO DUP1 ISZERO PUSH2 0xB9C JUMPI RETURNDATASIZE PUSH0 DUP1 RETURNDATACOPY RETURNDATASIZE PUSH0 REVERT JUMPDEST POP POP POP POP PUSH1 0x40 MLOAD RETURNDATASIZE PUSH1 0x1F NOT PUSH1 0x1F DUP3 ADD AND DUP3 ADD DUP1 PUSH1 0x40 MSTORE POP DUP2 ADD SWAP1 PUSH2 0xBC0 SWAP2 SWAP1 PUSH2 0x1EC2 JUMP JUMPDEST LT ISZERO PUSH2 0xC01 JUMPI PUSH1 0x40 MLOAD PUSH32 0x8C379A000000000000000000000000000000000000000000000000000000000 DUP2 MSTORE PUSH1 0x4 ADD PUSH2 0xBF8 SWAP1 PUSH2 0x23EB JUMP JUMPDEST PUSH1 0x40 MLOAD DUP1 SWAP2 SUB SWAP1 REVERT JUMPDEST DUP2 PUSH20 0xFFFFFFFFFFFFFFFFFFFFFFFFFFFFFFFFFFFFFFFF AND PUSH4 0x23B872DD CALLER ADDRESS DUP5 PUSH1 0x40 MLOAD DUP5 PUSH4 0xFFFFFFFF AND PUSH1 0xE0 SHL DUP2 MSTORE PUSH1 0x4 ADD PUSH2 0xC3E SWAP4 SWAP3 SWAP2 SWAP1 PUSH2 0x2409 JUMP JUMPDEST PUSH1 0x20 PUSH1 0x40 MLOAD DUP1 DUP4 SUB DUP2 PUSH0 DUP8 GAS CALL ISZERO DUP1 ISZERO PUSH2 0xC5A JUMPI RETURNDATASIZE PUSH0 DUP1 RETURNDATACOPY RETURNDATASIZE PUSH0 REVERT JUMPDEST POP POP POP POP PUSH1 0x40 MLOAD RETURNDATASIZE PUSH1 0x1F NOT PUSH1 0x1F DUP3 ADD AND DUP3 ADD DUP1 PUSH1 0x40 MSTORE POP DUP2 ADD SWAP1 PUSH2 0xC7E SWAP2 SWAP1 PUSH2 0x2468 JUMP JUMPDEST PUSH2 0xCBD JUMPI PUSH1 0x40 MLOAD PUSH32 0x8C379A000000000000000000000000000000000000000000000000000000000 DUP2 MSTORE PUSH1 0x4 ADD PUSH2 0xCB4 SWAP1 PUSH2 0x24DD JUMP JUMPDEST PUSH1 0x40 MLOAD DUP1 SWAP2 SUB SWAP1 REVERT JUMPDEST PUSH0 PUSH1 0x9 PUSH0 DUP6 DUP2 MSTORE PUSH1 0x20 ADD SWAP1 DUP2 MSTORE PUSH1 0x20 ADD PUSH0 KECCAK256 SWAP1 POP PUSH2 0xCD9 PUSH2 0x184A JUMP JUMPDEST CALLER DUP2 PUSH0 ADD SWAP1 PUSH20 0xFFFFFFFFFFFFFFFFFFFFFFFFFFFFFFFFFFFFFFFF AND SWAP1 DUP2 PUSH20 0xFFFFFFFFFFFFFFFFFFFFFFFFFFFFFFFFFFFFFFFF AND DUP2 MSTORE POP POP DUP4 DUP2 PUSH1 0x20 ADD SWAP1 PUSH20 0xFFFFFFFFFFFFFFFFFFFFFFFFFFFFFFFFFFFFFFFF AND SWAP1 DUP2 PUSH20 0xFFFFFFFFFFFFFFFFFFFFFFFFFFFFFFFFFFFFFFFF AND DUP2 MSTORE POP POP DUP3 DUP2 PUSH1 0x40 ADD DUP2 DUP2 MSTORE POP POP DUP2 PUSH1 0x2 ADD DUP2 SWAP1 DUP1 PUSH1 0x1 DUP2 SLOAD ADD DUP1 DUP3 SSTORE DUP1 SWAP2 POP POP PUSH1 0x1 SWAP1 SUB SWAP1 PUSH0 MSTORE PUSH1 0x20 PUSH0 KECCAK256 SWAP1 PUSH1 0x3 MUL ADD PUSH0 SWAP1 SWAP2 SWAP1 SWAP2 SWAP1 SWAP2 POP PUSH0 DUP3 ADD MLOAD DUP2 PUSH0 ADD PUSH0 PUSH2 0x100 EXP DUP2 SLOAD DUP2 PUSH20 0xFFFFFFFFFFFFFFFFFFFFFFFFFFFFFFFFFFFFFFFF MUL NOT AND SWAP1 DUP4 PUSH20 0xFFFFFFFFFFFFFFFFFFFFFFFFFFFFFFFFFFFFFFFF AND MUL OR SWAP1 SSTORE POP PUSH1 0x20 DUP3 ADD MLOAD DUP2 PUSH1 0x1 ADD PUSH0 PUSH2 0x100 EXP DUP2 SLOAD DUP2 PUSH20 0xFFFFFFFFFFFFFFFFFFFFFFFFFFFFFFFFFFFFFFFF MUL NOT AND SWAP1 DUP4 PUSH20 0xFFFFFFFFFFFFFFFFFFFFFFFFFFFFFFFFFFFFFFFF AND MUL OR SWAP1 SSTORE POP PUSH1 0x40 DUP3 ADD MLOAD DUP2 PUSH1 0x2 ADD SSTORE POP POP POP POP POP POP POP JUMP JUMPDEST PUSH1 0x3 SLOAD DUP2 JUMP JUMPDEST PUSH1 0x2 SLOAD TIMESTAMP LT ISZERO PUSH2 0xE65 JUMPI PUSH1 0x40 MLOAD PUSH32 0x8C379A000000000000000000000000000000000000000000000000000000000 DUP2 MSTORE PUSH1 0x4 ADD PUSH2 0xE5C SWAP1 PUSH2 0x1E28 JUMP JUMPDEST PUSH1 0x40 MLOAD DUP1 SWAP2 SUB SWAP1 REVERT JUMPDEST PUSH2 0xE6D PUSH2 0x16A5 JUMP JUMPDEST DUP2 SUB PUSH2 0xEAE JUMPI PUSH1 0x40 MLOAD PUSH32 0x8C379A000000000000000000000000000000000000000000000000000000000 DUP2 MSTORE PUSH1 0x4 ADD PUSH2 0xEA5 SWAP1 PUSH2 0x2545 JUMP JUMPDEST PUSH1 0x40 MLOAD DUP1 SWAP2 SUB SWAP1 REVERT JUMPDEST PUSH0 PUSH1 0x9 PUSH0 DUP4 DUP2 MSTORE PUSH1 0x20 ADD SWAP1 DUP2 MSTORE PUSH1 0x20 ADD PUSH0 KECCAK256 SWAP1 POP PUSH0 JUMPDEST DUP2 PUSH1 0x2 ADD DUP1 SLOAD SWAP1 POP DUP2 LT ISZERO PUSH2 0x10A4 JUMPI CALLER PUSH20 0xFFFFFFFFFFFFFFFFFFFFFFFFFFFFFFFFFFFFFFFF AND DUP3 PUSH1 0x2 ADD DUP3 DUP2 SLOAD DUP2 LT PUSH2 0xF00 JUMPI PUSH2 0xEFF PUSH2 0x2563 JUMP JUMPDEST JUMPDEST SWAP1 PUSH0 MSTORE PUSH1 0x20 PUSH0 KECCAK256 SWAP1 PUSH1 0x3 MUL ADD PUSH0 ADD PUSH0 SWAP1 SLOAD SWAP1 PUSH2 0x100 EXP SWAP1 DIV PUSH20 0xFFFFFFFFFFFFFFFFFFFFFFFFFFFFFFFFFFFFFFFF AND PUSH20 0xFFFFFFFFFFFFFFFFFFFFFFFFFFFFFFFFFFFFFFFF AND SUB PUSH2 0x1097 JUMPI DUP2 PUSH1 0x2 ADD DUP2 DUP2 SLOAD DUP2 LT PUSH2 0xF5F JUMPI PUSH2 0xF5E PUSH2 0x2563 JUMP JUMPDEST JUMPDEST SWAP1 PUSH0 MSTORE PUSH1 0x20 PUSH0 KECCAK256 SWAP1 PUSH1 0x3 MUL ADD PUSH1 0x1 ADD PUSH0 SWAP1 SLOAD SWAP1 PUSH2 0x100 EXP SWAP1 DIV PUSH20 0xFFFFFFFFFFFFFFFFFFFFFFFFFFFFFFFFFFFFFFFF AND PUSH20 0xFFFFFFFFFFFFFFFFFFFFFFFFFFFFFFFFFFFFFFFF AND PUSH4 0xA9059CBB CALLER DUP5 PUSH1 0x2 ADD DUP5 DUP2 SLOAD DUP2 LT PUSH2 0xFC0 JUMPI PUSH2 0xFBF PUSH2 0x2563 JUMP JUMPDEST JUMPDEST SWAP1 PUSH0 MSTORE PUSH1 0x20 PUSH0 KECCAK256 SWAP1 PUSH1 0x3 MUL ADD PUSH1 0x2 ADD SLOAD PUSH1 0x40 MLOAD DUP4 PUSH4 0xFFFFFFFF AND PUSH1 0xE0 SHL DUP2 MSTORE PUSH1 0x4 ADD PUSH2 0xFED SWAP3 SWAP2 SWAP1 PUSH2 0x2590 JUMP JUMPDEST PUSH1 0x20 PUSH1 0x40 MLOAD DUP1 DUP4 SUB DUP2 PUSH0 DUP8 GAS CALL ISZERO DUP1 ISZERO PUSH2 0x1009 JUMPI RETURNDATASIZE PUSH0 DUP1 RETURNDATACOPY RETURNDATASIZE PUSH0 REVERT JUMPDEST POP POP POP POP PUSH1 0x40 MLOAD RETURNDATASIZE PUSH1 0x1F NOT PUSH1 0x1F DUP3 ADD AND DUP3 ADD DUP1 PUSH1 0x40 MSTORE POP DUP2 ADD SWAP1 PUSH2 0x102D SWAP2 SWAP1 PUSH2 0x2468 JUMP JUMPDEST PUSH2 0x106C JUMPI PUSH1 0x40 MLOAD PUSH32 0x8C379A000000000000000000000000000000000000000000000000000000000 DUP2 MSTORE PUSH1 0x4 ADD PUSH2 0x1063 SWAP1 PUSH2 0x24DD JUMP JUMPDEST PUSH1 0x40 MLOAD DUP1 SWAP2 SUB SWAP1 REVERT JUMPDEST PUSH0 DUP3 PUSH1 0x2 ADD DUP3 DUP2 SLOAD DUP2 LT PUSH2 0x1083 JUMPI PUSH2 0x1082 PUSH2 0x2563 JUMP JUMPDEST JUMPDEST SWAP1 PUSH0 MSTORE PUSH1 0x20 PUSH0 KECCAK256 SWAP1 PUSH1 0x3 MUL ADD PUSH1 0x2 ADD DUP2 SWAP1 SSTORE POP JUMPDEST DUP1 DUP1 PUSH1 0x1 ADD SWAP2 POP POP PUSH2 0xEC4 JUMP JUMPDEST POP POP POP JUMP JUMPDEST PUSH1 0x8 PUSH1 0x20 MSTORE DUP1 PUSH0 MSTORE PUSH1 0x40 PUSH0 KECCAK256 PUSH0 SWAP2 POP SLOAD SWAP1 PUSH2 0x100 EXP SWAP1 DIV PUSH1 0xFF AND DUP2 JUMP JUMPDEST PUSH1 0x1 SLOAD DUP2 JUMP JUMPDEST PUSH0 PUSH1 0x1 SLOAD TIMESTAMP GT PUSH2 0x10DE JUMPI PUSH0 SWAP1 POP PUSH2 0x1105 JUMP JUMPDEST PUSH1 0x1 SLOAD TIMESTAMP LT ISZERO DUP1 ISZERO PUSH2 0x10F2 JUMPI POP PUSH1 0x2 SLOAD TIMESTAMP GT ISZERO JUMPDEST ISZERO PUSH2 0x1100 JUMPI PUSH1 0x1 SWAP1 POP PUSH2 0x1105 JUMP JUMPDEST PUSH1 0x2 SWAP1 POP JUMPDEST SWAP1 JUMP JUMPDEST PUSH2 0x1110 PUSH2 0x16FB JUMP JUMPDEST PUSH2 0x1119 PUSH0 PUSH2 0x1782 JUMP JUMPDEST JUMP JUMPDEST PUSH0 DUP1 PUSH0 SWAP1 SLOAD SWAP1 PUSH2 0x100 EXP SWAP1 DIV PUSH20 0xFFFFFFFFFFFFFFFFFFFFFFFFFFFFFFFFFFFFFFFF AND SWAP1 POP SWAP1 JUMP JUMPDEST PUSH0 DUP1 PUSH0 SWAP1 POP PUSH0 PUSH1 0x9 PUSH0 DUP7 DUP2 MSTORE PUSH1 0x20 ADD SWAP1 DUP2 MSTORE PUSH1 0x20 ADD PUSH0 KECCAK256 SWAP1 POP PUSH0 JUMPDEST DUP2 PUSH1 0x2 ADD DUP1 SLOAD SWAP1 POP DUP2 LT ISZERO PUSH2 0x1224 JUMPI DUP5 PUSH20 0xFFFFFFFFFFFFFFFFFFFFFFFFFFFFFFFFFFFFFFFF AND DUP3 PUSH1 0x2 ADD DUP3 DUP2 SLOAD DUP2 LT PUSH2 0x1199 JUMPI PUSH2 0x1198 PUSH2 0x2563 JUMP JUMPDEST JUMPDEST SWAP1 PUSH0 MSTORE PUSH1 0x20 PUSH0 KECCAK256 SWAP1 PUSH1 0x3 MUL ADD PUSH1 0x1 ADD PUSH0 SWAP1 SLOAD SWAP1 PUSH2 0x100 EXP SWAP1 DIV PUSH20 0xFFFFFFFFFFFFFFFFFFFFFFFFFFFFFFFFFFFFFFFF AND PUSH20 0xFFFFFFFFFFFFFFFFFFFFFFFFFFFFFFFFFFFFFFFF AND SUB PUSH2 0x1217 JUMPI DUP2 PUSH1 0x2 ADD DUP2 DUP2 SLOAD DUP2 LT PUSH2 0x11F9 JUMPI PUSH2 0x11F8 PUSH2 0x2563 JUMP JUMPDEST JUMPDEST SWAP1 PUSH0 MSTORE PUSH1 0x20 PUSH0 KECCAK256 SWAP1 PUSH1 0x3 MUL ADD PUSH1 0x2 ADD SLOAD DUP4 PUSH2 0x1214 SWAP2 SWAP1 PUSH2 0x25B7 JUMP JUMPDEST SWAP3 POP JUMPDEST DUP1 DUP1 PUSH1 0x1 ADD SWAP2 POP POP PUSH2 0x115D JUMP JUMPDEST POP DUP2 SWAP3 POP POP POP SWAP3 SWAP2 POP POP JUMP JUMPDEST PUSH1 0x5 PUSH1 0x20 MSTORE DUP1 PUSH0 MSTORE PUSH1 0x40 PUSH0 KECCAK256 PUSH0 SWAP2 POP SWAP1 POP SLOAD DUP2 JUMP JUMPDEST PUSH1 0x4 PUSH0 SWAP1 SLOAD SWAP1 PUSH2 0x100 EXP SWAP1 DIV PUSH20 0xFFFFFFFFFFFFFFFFFFFFFFFFFFFFFFFFFFFFFFFF AND DUP2 JUMP JUMPDEST PUSH2 0x1272 PUSH2 0x16FB JUMP JUMPDEST PUSH0 DUP2 SUB PUSH2 0x12A4 JUMPI PUSH0 PUSH1 0x4 PUSH1 0x14 PUSH2 0x100 EXP DUP2 SLOAD DUP2 PUSH1 0xFF MUL NOT AND SWAP1 DUP4 PUSH1 0x2 DUP2 GT ISZERO PUSH2 0x129E JUMPI PUSH2 0x129D PUSH2 0x25EA JUMP JUMPDEST JUMPDEST MUL OR SWAP1 SSTORE POP JUMPDEST PUSH1 0x1 DUP2 SUB PUSH2 0x12D8 JUMPI PUSH1 0x1 PUSH1 0x4 PUSH1 0x14 PUSH2 0x100 EXP DUP2 SLOAD DUP2 PUSH1 0xFF MUL NOT AND SWAP1 DUP4 PUSH1 0x2 DUP2 GT ISZERO PUSH2 0x12D2 JUMPI PUSH2 0x12D1 PUSH2 0x25EA JUMP JUMPDEST JUMPDEST MUL OR SWAP1 SSTORE POP JUMPDEST PUSH1 0x2 DUP2 SUB PUSH2 0x130C JUMPI PUSH1 0x2 PUSH1 0x4 PUSH1 0x14 PUSH2 0x100 EXP DUP2 SLOAD DUP2 PUSH1 0xFF MUL NOT AND SWAP1 DUP4 PUSH1 0x2 DUP2 GT ISZERO PUSH2 0x1306 JUMPI PUSH2 0x1305 PUSH2 0x25EA JUMP JUMPDEST JUMPDEST MUL OR SWAP1 SSTORE POP JUMPDEST POP JUMP JUMPDEST PUSH1 0x60 PUSH1 0x9 PUSH0 DUP4 DUP2 MSTORE PUSH1 0x20 ADD SWAP1 DUP2 MSTORE PUSH1 0x20 ADD PUSH0 KECCAK256 PUSH1 0x2 ADD DUP1 SLOAD DUP1 PUSH1 0x20 MUL PUSH1 0x20 ADD PUSH1 0x40 MLOAD SWAP1 DUP2 ADD PUSH1 0x40 MSTORE DUP1 SWAP3 SWAP2 SWAP1 DUP2 DUP2 MSTORE PUSH1 0x20 ADD PUSH0 SWAP1 JUMPDEST DUP3 DUP3 LT ISZERO PUSH2 0x1427 JUMPI DUP4 DUP3 SWAP1 PUSH0 MSTORE PUSH1 0x20 PUSH0 KECCAK256 SWAP1 PUSH1 0x3 MUL ADD PUSH1 0x40 MLOAD DUP1 PUSH1 0x60 ADD PUSH1 0x40 MSTORE SWAP1 DUP2 PUSH0 DUP3 ADD PUSH0 SWAP1 SLOAD SWAP1 PUSH2 0x100 EXP SWAP1 DIV PUSH20 0xFFFFFFFFFFFFFFFFFFFFFFFFFFFFFFFFFFFFFFFF AND PUSH20 0xFFFFFFFFFFFFFFFFFFFFFFFFFFFFFFFFFFFFFFFF AND PUSH20 0xFFFFFFFFFFFFFFFFFFFFFFFFFFFFFFFFFFFFFFFF AND DUP2 MSTORE PUSH1 0x20 ADD PUSH1 0x1 DUP3 ADD PUSH0 SWAP1 SLOAD SWAP1 PUSH2 0x100 EXP SWAP1 DIV PUSH20 0xFFFFFFFFFFFFFFFFFFFFFFFFFFFFFFFFFFFFFFFF AND PUSH20 0xFFFFFFFFFFFFFFFFFFFFFFFFFFFFFFFFFFFFFFFF AND PUSH20 0xFFFFFFFFFFFFFFFFFFFFFFFFFFFFFFFFFFFFFFFF AND DUP2 MSTORE PUSH1 0x20 ADD PUSH1 0x2 DUP3 ADD SLOAD DUP2 MSTORE POP POP DUP2 MSTORE PUSH1 0x20 ADD SWAP1 PUSH1 0x1 ADD SWAP1 PUSH2 0x1344 JUMP JUMPDEST POP POP POP POP SWAP1 POP SWAP2 SWAP1 POP JUMP JUMPDEST PUSH2 0x143A PUSH2 0x16FB JUMP JUMPDEST DUP1 PUSH1 0x7 DUP2 SWAP1 SSTORE POP POP JUMP JUMPDEST PUSH2 0x144C PUSH2 0x16FB JUMP JUMPDEST PUSH1 0x2 SLOAD TIMESTAMP LT ISZERO PUSH2 0x1491 JUMPI PUSH1 0x40 MLOAD PUSH32 0x8C379A000000000000000000000000000000000000000000000000000000000 DUP2 MSTORE PUSH1 0x4 ADD PUSH2 0x1488 SWAP1 PUSH2 0x1E28 JUMP JUMPDEST PUSH1 0x40 MLOAD DUP1 SWAP2 SUB SWAP1 REVERT JUMPDEST PUSH0 PUSH2 0x149A PUSH2 0x16A5 JUMP JUMPDEST SWAP1 POP PUSH0 PUSH1 0x9 PUSH0 DUP4 DUP2 MSTORE PUSH1 0x20 ADD SWAP1 DUP2 MSTORE PUSH1 0x20 ADD PUSH0 KECCAK256 SWAP1 POP PUSH0 JUMPDEST DUP2 PUSH1 0x2 ADD DUP1 SLOAD SWAP1 POP DUP2 LT ISZERO PUSH2 0x161B JUMPI DUP2 PUSH1 0x2 ADD DUP2 DUP2 SLOAD DUP2 LT PUSH2 0x14D7 JUMPI PUSH2 0x14D6 PUSH2 0x2563 JUMP JUMPDEST JUMPDEST SWAP1 PUSH0 MSTORE PUSH1 0x20 PUSH0 KECCAK256 SWAP1 PUSH1 0x3 MUL ADD PUSH1 0x1 ADD PUSH0 SWAP1 SLOAD SWAP1 PUSH2 0x100 EXP SWAP1 DIV PUSH20 0xFFFFFFFFFFFFFFFFFFFFFFFFFFFFFFFFFFFFFFFF AND PUSH20 0xFFFFFFFFFFFFFFFFFFFFFFFFFFFFFFFFFFFFFFFF AND PUSH4 0xA9059CBB DUP6 DUP5 PUSH1 0x2 ADD DUP5 DUP2 SLOAD DUP2 LT PUSH2 0x1538 JUMPI PUSH2 0x1537 PUSH2 0x2563 JUMP JUMPDEST JUMPDEST SWAP1 PUSH0 MSTORE PUSH1 0x20 PUSH0 KECCAK256 SWAP1 PUSH1 0x3 MUL ADD PUSH1 0x2 ADD SLOAD PUSH1 0x40 MLOAD DUP4 PUSH4 0xFFFFFFFF AND PUSH1 0xE0 SHL DUP2 MSTORE PUSH1 0x4 ADD PUSH2 0x1565 SWAP3 SWAP2 SWAP1 PUSH2 0x2590 JUMP JUMPDEST PUSH1 0x20 PUSH1 0x40 MLOAD DUP1 DUP4 SUB DUP2 PUSH0 DUP8 GAS CALL ISZERO DUP1 ISZERO PUSH2 0x1581 JUMPI RETURNDATASIZE PUSH0 DUP1 RETURNDATACOPY RETURNDATASIZE PUSH0 REVERT JUMPDEST POP POP POP POP PUSH1 0x40 MLOAD RETURNDATASIZE PUSH1 0x1F NOT PUSH1 0x1F DUP3 ADD AND DUP3 ADD DUP1 PUSH1 0x40 MSTORE POP DUP2 ADD SWAP1 PUSH2 0x15A5 SWAP2 SWAP1 PUSH2 0x2468 JUMP JUMPDEST PUSH2 0x15E4 JUMPI PUSH1 0x40 MLOAD PUSH32 0x8C379A000000000000000000000000000000000000000000000000000000000 DUP2 MSTORE PUSH1 0x4 ADD PUSH2 0x15DB SWAP1 PUSH2 0x24DD JUMP JUMPDEST PUSH1 0x40 MLOAD DUP1 SWAP2 SUB SWAP1 REVERT JUMPDEST PUSH0 DUP3 PUSH1 0x2 ADD DUP3 DUP2 SLOAD DUP2 LT PUSH2 0x15FB JUMPI PUSH2 0x15FA PUSH2 0x2563 JUMP JUMPDEST JUMPDEST SWAP1 PUSH0 MSTORE PUSH1 0x20 PUSH0 KECCAK256 SWAP1 PUSH1 0x3 MUL ADD PUSH1 0x2 ADD DUP2 SWAP1 SSTORE POP DUP1 DUP1 PUSH1 0x1 ADD SWAP2 POP POP PUSH2 0x14B2 JUMP JUMPDEST POP POP POP POP JUMP JUMPDEST PUSH2 0x1629 PUSH2 0x16FB JUMP JUMPDEST PUSH0 PUSH20 0xFFFFFFFFFFFFFFFFFFFFFFFFFFFFFFFFFFFFFFFF AND DUP2 PUSH20 0xFFFFFFFFFFFFFFFFFFFFFFFFFFFFFFFFFFFFFFFF AND SUB PUSH2 0x1699 JUMPI PUSH0 PUSH1 0x40 MLOAD PUSH32 0x1E4FBDF700000000000000000000000000000000000000000000000000000000 DUP2 MSTORE PUSH1 0x4 ADD PUSH2 0x1690 SWAP2 SWAP1 PUSH2 0x1C61 JUMP JUMPDEST PUSH1 0x40 MLOAD DUP1 SWAP2 SUB SWAP1 REVERT JUMPDEST PUSH2 0x16A2 DUP2 PUSH2 0x1782 JUMP JUMPDEST POP JUMP JUMPDEST PUSH0 DUP1 PUSH1 0x1 SWAP1 POP PUSH0 PUSH1 0x1 SWAP1 POP JUMPDEST PUSH1 0x3 SLOAD DUP2 GT PUSH2 0x16ED JUMPI DUP2 PUSH1 0x9 PUSH0 DUP4 DUP2 MSTORE PUSH1 0x20 ADD SWAP1 DUP2 MSTORE PUSH1 0x20 ADD PUSH0 KECCAK256 PUSH1 0x3 ADD SLOAD GT ISZERO PUSH2 0x16DA JUMPI DUP1 SWAP2 POP JUMPDEST DUP1 DUP1 PUSH2 0x16E5 SWAP1 PUSH2 0x2029 JUMP JUMPDEST SWAP2 POP POP PUSH2 0x16B1 JUMP JUMPDEST POP DUP1 SWAP2 POP POP SWAP1 JUMP JUMPDEST PUSH1 0x7 SLOAD DUP2 JUMP JUMPDEST PUSH2 0x1703 PUSH2 0x1843 JUMP JUMPDEST PUSH20 0xFFFFFFFFFFFFFFFFFFFFFFFFFFFFFFFFFFFFFFFF AND PUSH2 0x1721 PUSH2 0x111B JUMP JUMPDEST PUSH20 0xFFFFFFFFFFFFFFFFFFFFFFFFFFFFFFFFFFFFFFFF AND EQ PUSH2 0x1780 JUMPI PUSH2 0x1744 PUSH2 0x1843 JUMP JUMPDEST PUSH1 0x40 MLOAD PUSH32 0x118CDAA700000000000000000000000000000000000000000000000000000000 DUP2 MSTORE PUSH1 0x4 ADD PUSH2 0x1777 SWAP2 SWAP1 PUSH2 0x1C61 JUMP JUMPDEST PUSH1 0x40 MLOAD DUP1 SWAP2 SUB SWAP1 REVERT JUMPDEST JUMP JUMPDEST PUSH0 DUP1 PUSH0 SWAP1 SLOAD SWAP1 PUSH2 0x100 EXP SWAP1 DIV PUSH20 0xFFFFFFFFFFFFFFFFFFFFFFFFFFFFFFFFFFFFFFFF AND SWAP1 POP DUP2 PUSH0 DUP1 PUSH2 0x100 EXP DUP2 SLOAD DUP2 PUSH20 0xFFFFFFFFFFFFFFFFFFFFFFFFFFFFFFFFFFFFFFFF MUL NOT AND SWAP1 DUP4 PUSH20 0xFFFFFFFFFFFFFFFFFFFFFFFFFFFFFFFFFFFFFFFF AND MUL OR SWAP1 SSTORE POP DUP2 PUSH20 0xFFFFFFFFFFFFFFFFFFFFFFFFFFFFFFFFFFFFFFFF AND DUP2 PUSH20 0xFFFFFFFFFFFFFFFFFFFFFFFFFFFFFFFFFFFFFFFF AND PUSH32 0x8BE0079C531659141344CD1FD0A4F28419497F9722A3DAAFE3B4186F6B6457E0 PUSH1 0x40 MLOAD PUSH1 0x40 MLOAD DUP1 SWAP2 SUB SWAP1 LOG3 POP POP JUMP JUMPDEST PUSH0 CALLER SWAP1 POP SWAP1 JUMP JUMPDEST PUSH1 0x40 MLOAD DUP1 PUSH1 0x60 ADD PUSH1 0x40 MSTORE DUP1 PUSH0 PUSH20 0xFFFFFFFFFFFFFFFFFFFFFFFFFFFFFFFFFFFFFFFF AND DUP2 MSTORE PUSH1 0x20 ADD PUSH0 PUSH20 0xFFFFFFFFFFFFFFFFFFFFFFFFFFFFFFFFFFFFFFFF AND DUP2 MSTORE PUSH1 0x20 ADD PUSH0 DUP2 MSTORE POP SWAP1 JUMP JUMPDEST PUSH0 PUSH1 0x40 MLOAD SWAP1 POP SWAP1 JUMP JUMPDEST PUSH0 DUP1 REVERT JUMPDEST PUSH0 DUP1 REVERT JUMPDEST PUSH0 DUP2 SWAP1 POP SWAP2 SWAP1 POP JUMP JUMPDEST PUSH2 0x18B7 DUP2 PUSH2 0x18A5 JUMP JUMPDEST DUP2 EQ PUSH2 0x18C1 JUMPI PUSH0 DUP1 REVERT JUMPDEST POP JUMP JUMPDEST PUSH0 DUP2 CALLDATALOAD SWAP1 POP PUSH2 0x18D2 DUP2 PUSH2 0x18AE JUMP JUMPDEST SWAP3 SWAP2 POP POP JUMP JUMPDEST PUSH0 PUSH1 0x20 DUP3 DUP5 SUB SLT ISZERO PUSH2 0x18ED JUMPI PUSH2 0x18EC PUSH2 0x189D JUMP JUMPDEST JUMPDEST PUSH0 PUSH2 0x18FA DUP5 DUP3 DUP6 ADD PUSH2 0x18C4 JUMP JUMPDEST SWAP2 POP POP SWAP3 SWAP2 POP POP JUMP JUMPDEST PUSH2 0x190C DUP2 PUSH2 0x18A5 JUMP JUMPDEST DUP3 MSTORE POP POP JUMP JUMPDEST PUSH0 PUSH1 0x20 DUP3 ADD SWAP1 POP PUSH2 0x1925 PUSH0 DUP4 ADD DUP5 PUSH2 0x1903 JUMP JUMPDEST SWAP3 SWAP2 POP POP JUMP JUMPDEST PUSH0 PUSH20 0xFFFFFFFFFFFFFFFFFFFFFFFFFFFFFFFFFFFFFFFF DUP3 AND SWAP1 POP SWAP2 SWAP1 POP JUMP JUMPDEST PUSH0 PUSH2 0x1954 DUP3 PUSH2 0x192B JUMP JUMPDEST SWAP1 POP SWAP2 SWAP1 POP JUMP JUMPDEST PUSH2 0x1964 DUP2 PUSH2 0x194A JUMP JUMPDEST DUP2 EQ PUSH2 0x196E JUMPI PUSH0 DUP1 REVERT JUMPDEST POP JUMP JUMPDEST PUSH0 DUP2 CALLDATALOAD SWAP1 POP PUSH2 0x197F DUP2 PUSH2 0x195B JUMP JUMPDEST SWAP3 SWAP2 POP POP JUMP JUMPDEST PUSH0 PUSH1 0x20 DUP3 DUP5 SUB SLT ISZERO PUSH2 0x199A JUMPI PUSH2 0x1999 PUSH2 0x189D JUMP JUMPDEST JUMPDEST PUSH0 PUSH2 0x19A7 DUP5 DUP3 DUP6 ADD PUSH2 0x1971 JUMP JUMPDEST SWAP2 POP POP SWAP3 SWAP2 POP POP JUMP JUMPDEST PUSH0 DUP2 MLOAD SWAP1 POP SWAP2 SWAP1 POP JUMP JUMPDEST PUSH0 DUP3 DUP3 MSTORE PUSH1 0x20 DUP3 ADD SWAP1 POP SWAP3 SWAP2 POP POP JUMP JUMPDEST DUP3 DUP2 DUP4 MCOPY PUSH0 DUP4 DUP4 ADD MSTORE POP POP POP JUMP JUMPDEST PUSH0 PUSH1 0x1F NOT PUSH1 0x1F DUP4 ADD AND SWAP1 POP SWAP2 SWAP1 POP JUMP JUMPDEST PUSH0 PUSH2 0x19F2 DUP3 PUSH2 0x19B0 JUMP JUMPDEST PUSH2 0x19FC DUP2 DUP6 PUSH2 0x19BA JUMP JUMPDEST SWAP4 POP PUSH2 0x1A0C DUP2 DUP6 PUSH1 0x20 DUP7 ADD PUSH2 0x19CA JUMP JUMPDEST PUSH2 0x1A15 DUP2 PUSH2 0x19D8 JUMP JUMPDEST DUP5 ADD SWAP2 POP POP SWAP3 SWAP2 POP POP JUMP JUMPDEST PUSH2 0x1A29 DUP2 PUSH2 0x194A JUMP JUMPDEST DUP3 MSTORE POP POP JUMP JUMPDEST PUSH0 PUSH1 0x60 DUP3 ADD SWAP1 POP DUP2 DUP2 SUB PUSH0 DUP4 ADD MSTORE PUSH2 0x1A47 DUP2 DUP7 PUSH2 0x19E8 JUMP JUMPDEST SWAP1 POP PUSH2 0x1A56 PUSH1 0x20 DUP4 ADD DUP6 PUSH2 0x1A20 JUMP JUMPDEST PUSH2 0x1A63 PUSH1 0x40 DUP4 ADD DUP5 PUSH2 0x1903 JUMP JUMPDEST SWAP5 SWAP4 POP POP POP POP JUMP JUMPDEST PUSH0 DUP1 REVERT JUMPDEST PUSH0 DUP1 REVERT JUMPDEST PUSH32 0x4E487B7100000000000000000000000000000000000000000000000000000000 PUSH0 MSTORE PUSH1 0x41 PUSH1 0x4 MSTORE PUSH1 0x24 PUSH0 REVERT JUMPDEST PUSH2 0x1AA9 DUP3 PUSH2 0x19D8 JUMP JUMPDEST DUP2 ADD DUP2 DUP2 LT PUSH8 0xFFFFFFFFFFFFFFFF DUP3 GT OR ISZERO PUSH2 0x1AC8 JUMPI PUSH2 0x1AC7 PUSH2 0x1A73 JUMP JUMPDEST JUMPDEST DUP1 PUSH1 0x40 MSTORE POP POP POP JUMP JUMPDEST PUSH0 PUSH2 0x1ADA PUSH2 0x1894 JUMP JUMPDEST SWAP1 POP PUSH2 0x1AE6 DUP3 DUP3 PUSH2 0x1AA0 JUMP JUMPDEST SWAP2 SWAP1 POP JUMP JUMPDEST PUSH0 PUSH8 0xFFFFFFFFFFFFFFFF DUP3 GT ISZERO PUSH2 0x1B05 JUMPI PUSH2 0x1B04 PUSH2 0x1A73 JUMP JUMPDEST JUMPDEST PUSH2 0x1B0E DUP3 PUSH2 0x19D8 JUMP JUMPDEST SWAP1 POP PUSH1 0x20 DUP2 ADD SWAP1 POP SWAP2 SWAP1 POP JUMP JUMPDEST DUP3 DUP2 DUP4 CALLDATACOPY PUSH0 DUP4 DUP4 ADD MSTORE POP POP POP JUMP JUMPDEST PUSH0 PUSH2 0x1B3B PUSH2 0x1B36 DUP5 PUSH2 0x1AEB JUMP JUMPDEST PUSH2 0x1AD1 JUMP JUMPDEST SWAP1 POP DUP3 DUP2 MSTORE PUSH1 0x20 DUP2 ADD DUP5 DUP5 DUP5 ADD GT ISZERO PUSH2 0x1B57 JUMPI PUSH2 0x1B56 PUSH2 0x1A6F JUMP JUMPDEST JUMPDEST PUSH2 0x1B62 DUP5 DUP3 DUP6 PUSH2 0x1B1B JUMP JUMPDEST POP SWAP4 SWAP3 POP POP POP JUMP JUMPDEST PUSH0 DUP3 PUSH1 0x1F DUP4 ADD SLT PUSH2 0x1B7E JUMPI PUSH2 0x1B7D PUSH2 0x1A6B JUMP JUMPDEST JUMPDEST DUP2 CALLDATALOAD PUSH2 0x1B8E DUP5 DUP3 PUSH1 0x20 DUP7 ADD PUSH2 0x1B29 JUMP JUMPDEST SWAP2 POP POP SWAP3 SWAP2 POP POP JUMP JUMPDEST PUSH0 PUSH1 0x20 DUP3 DUP5 SUB SLT ISZERO PUSH2 0x1BAC JUMPI PUSH2 0x1BAB PUSH2 0x189D JUMP JUMPDEST JUMPDEST PUSH0 DUP3 ADD CALLDATALOAD PUSH8 0xFFFFFFFFFFFFFFFF DUP2 GT ISZERO PUSH2 0x1BC9 JUMPI PUSH2 0x1BC8 PUSH2 0x18A1 JUMP JUMPDEST JUMPDEST PUSH2 0x1BD5 DUP5 DUP3 DUP6 ADD PUSH2 0x1B6A JUMP JUMPDEST SWAP2 POP POP SWAP3 SWAP2 POP POP JUMP JUMPDEST PUSH0 DUP1 PUSH0 PUSH1 0x60 DUP5 DUP7 SUB SLT ISZERO PUSH2 0x1BF5 JUMPI PUSH2 0x1BF4 PUSH2 0x189D JUMP JUMPDEST JUMPDEST PUSH0 PUSH2 0x1C02 DUP7 DUP3 DUP8 ADD PUSH2 0x18C4 JUMP JUMPDEST SWAP4 POP POP PUSH1 0x20 PUSH2 0x1C13 DUP7 DUP3 DUP8 ADD PUSH2 0x1971 JUMP JUMPDEST SWAP3 POP POP PUSH1 0x40 PUSH2 0x1C24 DUP7 DUP3 DUP8 ADD PUSH2 0x18C4 JUMP JUMPDEST SWAP2 POP POP SWAP3 POP SWAP3 POP SWAP3 JUMP JUMPDEST PUSH0 DUP2 ISZERO ISZERO SWAP1 POP SWAP2 SWAP1 POP JUMP JUMPDEST PUSH2 0x1C42 DUP2 PUSH2 0x1C2E JUMP JUMPDEST DUP3 MSTORE POP POP JUMP JUMPDEST PUSH0 PUSH1 0x20 DUP3 ADD SWAP1 POP PUSH2 0x1C5B PUSH0 DUP4 ADD DUP5 PUSH2 0x1C39 JUMP JUMPDEST SWAP3 SWAP2 POP POP JUMP JUMPDEST PUSH0 PUSH1 0x20 DUP3 ADD SWAP1 POP PUSH2 0x1C74 PUSH0 DUP4 ADD DUP5 PUSH2 0x1A20 JUMP JUMPDEST SWAP3 SWAP2 POP POP JUMP JUMPDEST PUSH0 DUP1 PUSH1 0x40 DUP4 DUP6 SUB SLT ISZERO PUSH2 0x1C90 JUMPI PUSH2 0x1C8F PUSH2 0x189D JUMP JUMPDEST JUMPDEST PUSH0 PUSH2 0x1C9D DUP6 DUP3 DUP7 ADD PUSH2 0x18C4 JUMP JUMPDEST SWAP3 POP POP PUSH1 0x20 PUSH2 0x1CAE DUP6 DUP3 DUP7 ADD PUSH2 0x1971 JUMP JUMPDEST SWAP2 POP POP SWAP3 POP SWAP3 SWAP1 POP JUMP JUMPDEST PUSH0 DUP2 MLOAD SWAP1 POP SWAP2 SWAP1 POP JUMP JUMPDEST PUSH0 DUP3 DUP3 MSTORE PUSH1 0x20 DUP3 ADD SWAP1 POP SWAP3 SWAP2 POP POP JUMP JUMPDEST PUSH0 DUP2 SWAP1 POP PUSH1 0x20 DUP3 ADD SWAP1 POP SWAP2 SWAP1 POP JUMP JUMPDEST PUSH2 0x1CEA DUP2 PUSH2 0x194A JUMP JUMPDEST DUP3 MSTORE POP POP JUMP JUMPDEST PUSH2 0x1CF9 DUP2 PUSH2 0x18A5 JUMP JUMPDEST DUP3 MSTORE POP POP JUMP JUMPDEST PUSH1 0x60 DUP3 ADD PUSH0 DUP3 ADD MLOAD PUSH2 0x1D13 PUSH0 DUP6 ADD DUP3 PUSH2 0x1CE1 JUMP JUMPDEST POP PUSH1 0x20 DUP3 ADD MLOAD PUSH2 0x1D26 PUSH1 0x20 DUP6 ADD DUP3 PUSH2 0x1CE1 JUMP JUMPDEST POP PUSH1 0x40 DUP3 ADD MLOAD PUSH2 0x1D39 PUSH1 0x40 DUP6 ADD DUP3 PUSH2 0x1CF0 JUMP JUMPDEST POP POP POP POP JUMP JUMPDEST PUSH0 PUSH2 0x1D4A DUP4 DUP4 PUSH2 0x1CFF JUMP JUMPDEST PUSH1 0x60 DUP4 ADD SWAP1 POP SWAP3 SWAP2 POP POP JUMP JUMPDEST PUSH0 PUSH1 0x20 DUP3 ADD SWAP1 POP SWAP2 SWAP1 POP JUMP JUMPDEST PUSH0 PUSH2 0x1D6C DUP3 PUSH2 0x1CB8 JUMP JUMPDEST PUSH2 0x1D76 DUP2 DUP6 PUSH2 0x1CC2 JUMP JUMPDEST SWAP4 POP PUSH2 0x1D81 DUP4 PUSH2 0x1CD2 JUMP JUMPDEST DUP1 PUSH0 JUMPDEST DUP4 DUP2 LT ISZERO PUSH2 0x1DB1 JUMPI DUP2 MLOAD PUSH2 0x1D98 DUP9 DUP3 PUSH2 0x1D3F JUMP JUMPDEST SWAP8 POP PUSH2 0x1DA3 DUP4 PUSH2 0x1D56 JUMP JUMPDEST SWAP3 POP POP PUSH1 0x1 DUP2 ADD SWAP1 POP PUSH2 0x1D84 JUMP JUMPDEST POP DUP6 SWAP4 POP POP POP POP SWAP3 SWAP2 POP POP JUMP JUMPDEST PUSH0 PUSH1 0x20 DUP3 ADD SWAP1 POP DUP2 DUP2 SUB PUSH0 DUP4 ADD MSTORE PUSH2 0x1DD6 DUP2 DUP5 PUSH2 0x1D62 JUMP JUMPDEST SWAP1 POP SWAP3 SWAP2 POP POP JUMP JUMPDEST PUSH32 0x63616E7420646F206974206E6F77000000000000000000000000000000000000 PUSH0 DUP3 ADD MSTORE POP JUMP JUMPDEST PUSH0 PUSH2 0x1E12 PUSH1 0xE DUP4 PUSH2 0x19BA JUMP JUMPDEST SWAP2 POP PUSH2 0x1E1D DUP3 PUSH2 0x1DDE JUMP JUMPDEST PUSH1 0x20 DUP3 ADD SWAP1 POP SWAP2 SWAP1 POP JUMP JUMPDEST PUSH0 PUSH1 0x20 DUP3 ADD SWAP1 POP DUP2 DUP2 SUB PUSH0 DUP4 ADD MSTORE PUSH2 0x1E3F DUP2 PUSH2 0x1E06 JUMP JUMPDEST SWAP1 POP SWAP2 SWAP1 POP JUMP JUMPDEST PUSH32 0x616F7574206F66206F72646572206E6F00000000000000000000000000000000 PUSH0 DUP3 ADD MSTORE POP JUMP JUMPDEST PUSH0 PUSH2 0x1E7A PUSH1 0x10 DUP4 PUSH2 0x19BA JUMP JUMPDEST SWAP2 POP PUSH2 0x1E85 DUP3 PUSH2 0x1E46 JUMP JUMPDEST PUSH1 0x20 DUP3 ADD SWAP1 POP SWAP2 SWAP1 POP JUMP JUMPDEST PUSH0 PUSH1 0x20 DUP3 ADD SWAP1 POP DUP2 DUP2 SUB PUSH0 DUP4 ADD MSTORE PUSH2 0x1EA7 DUP2 PUSH2 0x1E6E JUMP JUMPDEST SWAP1 POP SWAP2 SWAP1 POP JUMP JUMPDEST PUSH0 DUP2 MLOAD SWAP1 POP PUSH2 0x1EBC DUP2 PUSH2 0x18AE JUMP JUMPDEST SWAP3 SWAP2 POP POP JUMP JUMPDEST PUSH0 PUSH1 0x20 DUP3 DUP5 SUB SLT ISZERO PUSH2 0x1ED7 JUMPI PUSH2 0x1ED6 PUSH2 0x189D JUMP JUMPDEST JUMPDEST PUSH0 PUSH2 0x1EE4 DUP5 DUP3 DUP6 ADD PUSH2 0x1EAE JUMP JUMPDEST SWAP2 POP POP SWAP3 SWAP2 POP POP JUMP JUMPDEST PUSH32 0x646F6E74206F776E20746865206E667400000000000000000000000000000000 PUSH0 DUP3 ADD MSTORE POP JUMP JUMPDEST PUSH0 PUSH2 0x1F21 PUSH1 0x10 DUP4 PUSH2 0x19BA JUMP JUMPDEST SWAP2 POP PUSH2 0x1F2C DUP3 PUSH2 0x1EED JUMP JUMPDEST PUSH1 0x20 DUP3 ADD SWAP1 POP SWAP2 SWAP1 POP JUMP JUMPDEST PUSH0 PUSH1 0x20 DUP3 ADD SWAP1 POP DUP2 DUP2 SUB PUSH0 DUP4 ADD MSTORE PUSH2 0x1F4E DUP2 PUSH2 0x1F15 JUMP JUMPDEST SWAP1 POP SWAP2 SWAP1 POP JUMP JUMPDEST PUSH32 0x63616E2063617374206D6F726520766F74650000000000000000000000000000 PUSH0 DUP3 ADD MSTORE POP JUMP JUMPDEST PUSH0 PUSH2 0x1F89 PUSH1 0x12 DUP4 PUSH2 0x19BA JUMP JUMPDEST SWAP2 POP PUSH2 0x1F94 DUP3 PUSH2 0x1F55 JUMP JUMPDEST PUSH1 0x20 DUP3 ADD SWAP1 POP SWAP2 SWAP1 POP JUMP JUMPDEST PUSH0 PUSH1 0x20 DUP3 ADD SWAP1 POP DUP2 DUP2 SUB PUSH0 DUP4 ADD MSTORE PUSH2 0x1FB6 DUP2 PUSH2 0x1F7D JUMP JUMPDEST SWAP1 POP SWAP2 SWAP1 POP JUMP JUMPDEST PUSH0 DUP2 MLOAD SWAP1 POP PUSH2 0x1FCB DUP2 PUSH2 0x195B JUMP JUMPDEST SWAP3 SWAP2 POP POP JUMP JUMPDEST PUSH0 PUSH1 0x20 DUP3 DUP5 SUB SLT ISZERO PUSH2 0x1FE6 JUMPI PUSH2 0x1FE5 PUSH2 0x189D JUMP JUMPDEST JUMPDEST PUSH0 PUSH2 0x1FF3 DUP5 DUP3 DUP6 ADD PUSH2 0x1FBD JUMP JUMPDEST SWAP2 POP POP SWAP3 SWAP2 POP POP JUMP JUMPDEST PUSH32 0x4E487B7100000000000000000000000000000000000000000000000000000000 PUSH0 MSTORE PUSH1 0x11 PUSH1 0x4 MSTORE PUSH1 0x24 PUSH0 REVERT JUMPDEST PUSH0 PUSH2 0x2033 DUP3 PUSH2 0x18A5 JUMP JUMPDEST SWAP2 POP PUSH32 0xFFFFFFFFFFFFFFFFFFFFFFFFFFFFFFFFFFFFFFFFFFFFFFFFFFFFFFFFFFFFFFFF DUP3 SUB PUSH2 0x2065 JUMPI PUSH2 0x2064 PUSH2 0x1FFC JUMP JUMPDEST JUMPDEST PUSH1 0x1 DUP3 ADD SWAP1 POP SWAP2 SWAP1 POP JUMP JUMPDEST PUSH32 0x4E487B7100000000000000000000000000000000000000000000000000000000 PUSH0 MSTORE PUSH1 0x22 PUSH1 0x4 MSTORE PUSH1 0x24 PUSH0 REVERT JUMPDEST PUSH0 PUSH1 0x2 DUP3 DIV SWAP1 POP PUSH1 0x1 DUP3 AND DUP1 PUSH2 0x20B4 JUMPI PUSH1 0x7F DUP3 AND SWAP2 POP JUMPDEST PUSH1 0x20 DUP3 LT DUP2 SUB PUSH2 0x20C7 JUMPI PUSH2 0x20C6 PUSH2 0x2070 JUMP JUMPDEST JUMPDEST POP SWAP2 SWAP1 POP JUMP JUMPDEST PUSH0 DUP2 SWAP1 POP DUP2 PUSH0 MSTORE PUSH1 0x20 PUSH0 KECCAK256 SWAP1 POP SWAP2 SWAP1 POP JUMP JUMPDEST PUSH0 PUSH1 0x20 PUSH1 0x1F DUP4 ADD DIV SWAP1 POP SWAP2 SWAP1 POP JUMP JUMPDEST PUSH0 DUP3 DUP3 SHL SWAP1 POP SWAP3 SWAP2 POP POP JUMP JUMPDEST PUSH0 PUSH1 0x8 DUP4 MUL PUSH2 0x2129 PUSH32 0xFFFFFFFFFFFFFFFFFFFFFFFFFFFFFFFFFFFFFFFFFFFFFFFFFFFFFFFFFFFFFFFF DUP3 PUSH2 0x20EE JUMP JUMPDEST PUSH2 0x2133 DUP7 DUP4 PUSH2 0x20EE JUMP JUMPDEST SWAP6 POP DUP1 NOT DUP5 AND SWAP4 POP DUP1 DUP7 AND DUP5 OR SWAP3 POP POP POP SWAP4 SWAP3 POP POP POP JUMP JUMPDEST PUSH0 DUP2 SWAP1 POP SWAP2 SWAP1 POP JUMP JUMPDEST PUSH0 PUSH2 0x216E PUSH2 0x2169 PUSH2 0x2164 DUP5 PUSH2 0x18A5 JUMP JUMPDEST PUSH2 0x214B JUMP JUMPDEST PUSH2 0x18A5 JUMP JUMPDEST SWAP1 POP SWAP2 SWAP1 POP JUMP JUMPDEST PUSH0 DUP2 SWAP1 POP SWAP2 SWAP1 POP JUMP JUMPDEST PUSH2 0x2187 DUP4 PUSH2 0x2154 JUMP JUMPDEST PUSH2 0x219B PUSH2 0x2193 DUP3 PUSH2 0x2175 JUMP JUMPDEST DUP5 DUP5 SLOAD PUSH2 0x20FA JUMP JUMPDEST DUP3 SSTORE POP POP POP POP JUMP JUMPDEST PUSH0 SWAP1 JUMP JUMPDEST PUSH2 0x21AF PUSH2 0x21A3 JUMP JUMPDEST PUSH2 0x21BA DUP2 DUP5 DUP5 PUSH2 0x217E JUMP JUMPDEST POP POP POP JUMP JUMPDEST JUMPDEST DUP2 DUP2 LT ISZERO PUSH2 0x21DD JUMPI PUSH2 0x21D2 PUSH0 DUP3 PUSH2 0x21A7 JUMP JUMPDEST PUSH1 0x1 DUP2 ADD SWAP1 POP PUSH2 0x21C0 JUMP JUMPDEST POP POP JUMP JUMPDEST PUSH1 0x1F DUP3 GT ISZERO PUSH2 0x2222 JUMPI PUSH2 0x21F3 DUP2 PUSH2 0x20CD JUMP JUMPDEST PUSH2 0x21FC DUP5 PUSH2 0x20DF JUMP JUMPDEST DUP2 ADD PUSH1 0x20 DUP6 LT ISZERO PUSH2 0x220B JUMPI DUP2 SWAP1 POP JUMPDEST PUSH2 0x221F PUSH2 0x2217 DUP6 PUSH2 0x20DF JUMP JUMPDEST DUP4 ADD DUP3 PUSH2 0x21BF JUMP JUMPDEST POP POP JUMPDEST POP POP POP JUMP JUMPDEST PUSH0 DUP3 DUP3 SHR SWAP1 POP SWAP3 SWAP2 POP POP JUMP JUMPDEST PUSH0 PUSH2 0x2242 PUSH0 NOT DUP5 PUSH1 0x8 MUL PUSH2 0x2227 JUMP JUMPDEST NOT DUP1 DUP4 AND SWAP2 POP POP SWAP3 SWAP2 POP POP JUMP JUMPDEST PUSH0 PUSH2 0x225A DUP4 DUP4 PUSH2 0x2233 JUMP JUMPDEST SWAP2 POP DUP3 PUSH1 0x2 MUL DUP3 OR SWAP1 POP SWAP3 SWAP2 POP POP JUMP JUMPDEST PUSH2 0x2273 DUP3 PUSH2 0x19B0 JUMP JUMPDEST PUSH8 0xFFFFFFFFFFFFFFFF DUP2 GT ISZERO PUSH2 0x228C JUMPI PUSH2 0x228B PUSH2 0x1A73 JUMP JUMPDEST JUMPDEST PUSH2 0x2296 DUP3 SLOAD PUSH2 0x209D JUMP JUMPDEST PUSH2 0x22A1 DUP3 DUP3 DUP6 PUSH2 0x21E1 JUMP JUMPDEST PUSH0 PUSH1 0x20 SWAP1 POP PUSH1 0x1F DUP4 GT PUSH1 0x1 DUP2 EQ PUSH2 0x22D2 JUMPI PUSH0 DUP5 ISZERO PUSH2 0x22C0 JUMPI DUP3 DUP8 ADD MLOAD SWAP1 POP JUMPDEST PUSH2 0x22CA DUP6 DUP3 PUSH2 0x224F JUMP JUMPDEST DUP7 SSTORE POP PUSH2 0x2331 JUMP JUMPDEST PUSH1 0x1F NOT DUP5 AND PUSH2 0x22E0 DUP7 PUSH2 0x20CD JUMP JUMPDEST PUSH0 JUMPDEST DUP3 DUP2 LT ISZERO PUSH2 0x2307 JUMPI DUP5 DUP10 ADD MLOAD DUP3 SSTORE PUSH1 0x1 DUP3 ADD SWAP2 POP PUSH1 0x20 DUP6 ADD SWAP5 POP PUSH1 0x20 DUP2 ADD SWAP1 POP PUSH2 0x22E2 JUMP JUMPDEST DUP7 DUP4 LT ISZERO PUSH2 0x2324 JUMPI DUP5 DUP10 ADD MLOAD PUSH2 0x2320 PUSH1 0x1F DUP10 AND DUP3 PUSH2 0x2233 JUMP JUMPDEST DUP4 SSTORE POP JUMPDEST PUSH1 0x1 PUSH1 0x2 DUP9 MUL ADD DUP9 SSTORE POP POP POP JUMPDEST POP POP POP POP POP POP JUMP JUMPDEST PUSH32 0x416D6F756E74206D7573742062652067726561746572207468616E2030000000 PUSH0 DUP3 ADD MSTORE POP JUMP JUMPDEST PUSH0 PUSH2 0x236D PUSH1 0x1D DUP4 PUSH2 0x19BA JUMP JUMPDEST SWAP2 POP PUSH2 0x2378 DUP3 PUSH2 0x2339 JUMP JUMPDEST PUSH1 0x20 DUP3 ADD SWAP1 POP SWAP2 SWAP1 POP JUMP JUMPDEST PUSH0 PUSH1 0x20 DUP3 ADD SWAP1 POP DUP2 DUP2 SUB PUSH0 DUP4 ADD MSTORE PUSH2 0x239A DUP2 PUSH2 0x2361 JUMP JUMPDEST SWAP1 POP SWAP2 SWAP1 POP JUMP JUMPDEST PUSH32 0x496E73756666696369656E7420746F6B656E2062616C616E6365000000000000 PUSH0 DUP3 ADD MSTORE POP JUMP JUMPDEST PUSH0 PUSH2 0x23D5 PUSH1 0x1A DUP4 PUSH2 0x19BA JUMP JUMPDEST SWAP2 POP PUSH2 0x23E0 DUP3 PUSH2 0x23A1 JUMP JUMPDEST PUSH1 0x20 DUP3 ADD SWAP1 POP SWAP2 SWAP1 POP JUMP JUMPDEST PUSH0 PUSH1 0x20 DUP3 ADD SWAP1 POP DUP2 DUP2 SUB PUSH0 DUP4 ADD MSTORE PUSH2 0x2402 DUP2 PUSH2 0x23C9 JUMP JUMPDEST SWAP1 POP SWAP2 SWAP1 POP JUMP JUMPDEST PUSH0 PUSH1 0x60 DUP3 ADD SWAP1 POP PUSH2 0x241C PUSH0 DUP4 ADD DUP7 PUSH2 0x1A20 JUMP JUMPDEST PUSH2 0x2429 PUSH1 0x20 DUP4 ADD DUP6 PUSH2 0x1A20 JUMP JUMPDEST PUSH2 0x2436 PUSH1 0x40 DUP4 ADD DUP5 PUSH2 0x1903 JUMP JUMPDEST SWAP5 SWAP4 POP POP POP POP JUMP JUMPDEST PUSH2 0x2447 DUP2 PUSH2 0x1C2E JUMP JUMPDEST DUP2 EQ PUSH2 0x2451 JUMPI PUSH0 DUP1 REVERT JUMPDEST POP JUMP JUMPDEST PUSH0 DUP2 MLOAD SWAP1 POP PUSH2 0x2462 DUP2 PUSH2 0x243E JUMP JUMPDEST SWAP3 SWAP2 POP POP JUMP JUMPDEST PUSH0 PUSH1 0x20 DUP3 DUP5 SUB SLT ISZERO PUSH2 0x247D JUMPI PUSH2 0x247C PUSH2 0x189D JUMP JUMPDEST JUMPDEST PUSH0 PUSH2 0x248A DUP5 DUP3 DUP6 ADD PUSH2 0x2454 JUMP JUMPDEST SWAP2 POP POP SWAP3 SWAP2 POP POP JUMP JUMPDEST PUSH32 0x7472616E73616374696F6E206661696C65640000000000000000000000000000 PUSH0 DUP3 ADD MSTORE POP JUMP JUMPDEST PUSH0 PUSH2 0x24C7 PUSH1 0x12 DUP4 PUSH2 0x19BA JUMP JUMPDEST SWAP2 POP PUSH2 0x24D2 DUP3 PUSH2 0x2493 JUMP JUMPDEST PUSH1 0x20 DUP3 ADD SWAP1 POP SWAP2 SWAP1 POP JUMP JUMPDEST PUSH0 PUSH1 0x20 DUP3 ADD SWAP1 POP DUP2 DUP2 SUB PUSH0 DUP4 ADD MSTORE PUSH2 0x24F4 DUP2 PUSH2 0x24BB JUMP JUMPDEST SWAP1 POP SWAP2 SWAP1 POP JUMP JUMPDEST PUSH32 0x63616E7420636C61696D2077696E6E65722070726F6A65637400000000000000 PUSH0 DUP3 ADD MSTORE POP JUMP JUMPDEST PUSH0 PUSH2 0x252F PUSH1 0x19 DUP4 PUSH2 0x19BA JUMP JUMPDEST SWAP2 POP PUSH2 0x253A DUP3 PUSH2 0x24FB JUMP JUMPDEST PUSH1 0x20 DUP3 ADD SWAP1 POP SWAP2 SWAP1 POP JUMP JUMPDEST PUSH0 PUSH1 0x20 DUP3 ADD SWAP1 POP DUP2 DUP2 SUB PUSH0 DUP4 ADD MSTORE PUSH2 0x255C DUP2 PUSH2 0x2523 JUMP JUMPDEST SWAP1 POP SWAP2 SWAP1 POP JUMP JUMPDEST PUSH32 0x4E487B7100000000000000000000000000000000000000000000000000000000 PUSH0 MSTORE PUSH1 0x32 PUSH1 0x4 MSTORE PUSH1 0x24 PUSH0 REVERT JUMPDEST PUSH0 PUSH1 0x40 DUP3 ADD SWAP1 POP PUSH2 0x25A3 PUSH0 DUP4 ADD DUP6 PUSH2 0x1A20 JUMP JUMPDEST PUSH2 0x25B0 PUSH1 0x20 DUP4 ADD DUP5 PUSH2 0x1903 JUMP JUMPDEST SWAP4 SWAP3 POP POP POP JUMP JUMPDEST PUSH0 PUSH2 0x25C1 DUP3 PUSH2 0x18A5 JUMP JUMPDEST SWAP2 POP PUSH2 0x25CC DUP4 PUSH2 0x18A5 JUMP JUMPDEST SWAP3 POP DUP3 DUP3 ADD SWAP1 POP DUP1 DUP3 GT ISZERO PUSH2 0x25E4 JUMPI PUSH2 0x25E3 PUSH2 0x1FFC JUMP JUMPDEST JUMPDEST SWAP3 SWAP2 POP POP JUMP JUMPDEST PUSH32 0x4E487B7100000000000000000000000000000000000000000000000000000000 PUSH0 MSTORE PUSH1 0x21 PUSH1 0x4 MSTORE PUSH1 0x24 PUSH0 REVERT INVALID LOG2 PUSH5 0x6970667358 0x22 SLT KECCAK256 STOP 0xDE SHL PUSH13 0x2E9962C707825B6B676B458713 0xD7 POP 0x25 0xC8 GASLIMIT 0xD8 SSTORE INVALID 0x27 0xC5 TLOAD EXTCODESIZE SWAP16 STATICCALL EQ PUSH5 0x736F6C6343 STOP ADDMOD BYTE STOP CALLER "
				},
				"gasEstimates": {
					"creation": {
						"codeDepositCost": "1961000",
						"executionCost": "infinite",
						"totalCost": "infinite"
					},
					"external": {
						"briberInfo(uint256)": "infinite",
						"briberTokenInfo(uint256,address)": "infinite",
						"changeState(uint256)": "infinite",
						"changelastTokenId(uint256)": "infinite",
						"claim(uint256)": "infinite",
						"getStatus()": "6859",
						"getWinnerProjectId()": "infinite",
						"incentiviseProject(uint256,address,uint256)": "infinite",
						"incentivizingPeriod()": "2536",
						"initializeProject(string)": "infinite",
						"lastTokenId()": "2557",
						"nftContractAddress()": "2619",
						"owner()": "2560",
						"projectCount()": "2470",
						"projects(uint256)": "infinite",
						"renounceOwnership()": "infinite",
						"setNftAddress(address)": "infinite",
						"tokenVoted(uint256)": "2874",
						"totalVotes()": "2515",
						"transferOwnership(address)": "infinite",
						"vote(uint256)": "infinite",
						"voters(address)": "2891",
						"votingPeriod()": "2471",
						"withdrawWinnerProject(address)": "infinite"
					}
				},
				"methodIdentifiers": {
					"briberInfo(uint256)": "bfb906a7",
					"briberTokenInfo(uint256,address)": "99b1760a",
					"changeState(uint256)": "b00741cb",
					"changelastTokenId(uint256)": "cb06545c",
					"claim(uint256)": "379607f5",
					"getStatus()": "4e69d560",
					"getWinnerProjectId()": "f4b1f501",
					"incentiviseProject(uint256,address,uint256)": "33b2decc",
					"incentivizingPeriod()": "3885aed3",
					"initializeProject(string)": "239ecf35",
					"lastTokenId()": "f84ddf0b",
					"nftContractAddress()": "aae282e1",
					"owner()": "8da5cb5b",
					"projectCount()": "36fbad26",
					"projects(uint256)": "107046bd",
					"renounceOwnership()": "715018a6",
					"setNftAddress(address)": "0b102d1a",
					"tokenVoted(uint256)": "38200702",
					"totalVotes()": "0d15fd77",
					"transferOwnership(address)": "f2fde38b",
					"vote(uint256)": "0121b93f",
					"voters(address)": "a3ec138d",
					"votingPeriod()": "02a251a3",
					"withdrawWinnerProject(address)": "d19ee357"
				}
			},
			"storageLayout": {
				"storage": [
					{
						"astId": 8,
						"contract": "DiscoCats.sol:DiscoCats",
						"label": "_owner",
						"offset": 0,
						"slot": "0",
						"type": "t_address"
					},
					{
						"astId": 394,
						"contract": "DiscoCats.sol:DiscoCats",
						"label": "incentivizingPeriod",
						"offset": 0,
						"slot": "1",
						"type": "t_uint256"
					},
					{
						"astId": 396,
						"contract": "DiscoCats.sol:DiscoCats",
						"label": "votingPeriod",
						"offset": 0,
						"slot": "2",
						"type": "t_uint256"
					},
					{
						"astId": 399,
						"contract": "DiscoCats.sol:DiscoCats",
						"label": "projectCount",
						"offset": 0,
						"slot": "3",
						"type": "t_uint256"
					},
					{
						"astId": 401,
						"contract": "DiscoCats.sol:DiscoCats",
						"label": "nftContractAddress",
						"offset": 0,
						"slot": "4",
						"type": "t_address"
					},
					{
						"astId": 428,
						"contract": "DiscoCats.sol:DiscoCats",
						"label": "status",
						"offset": 20,
						"slot": "4",
						"type": "t_enum(govtStatus)423"
					},
					{
						"astId": 432,
						"contract": "DiscoCats.sol:DiscoCats",
						"label": "voters",
						"offset": 0,
						"slot": "5",
						"type": "t_mapping(t_address,t_uint256)"
					},
					{
						"astId": 435,
						"contract": "DiscoCats.sol:DiscoCats",
						"label": "totalVotes",
						"offset": 0,
						"slot": "6",
						"type": "t_uint256"
					},
					{
						"astId": 438,
						"contract": "DiscoCats.sol:DiscoCats",
						"label": "lastTokenId",
						"offset": 0,
						"slot": "7",
						"type": "t_uint256"
					},
					{
						"astId": 442,
						"contract": "DiscoCats.sol:DiscoCats",
						"label": "tokenVoted",
						"offset": 0,
						"slot": "8",
						"type": "t_mapping(t_uint256,t_bool)"
					},
					{
						"astId": 447,
						"contract": "DiscoCats.sol:DiscoCats",
						"label": "projects",
						"offset": 0,
						"slot": "9",
						"type": "t_mapping(t_uint256,t_struct(Project)419_storage)"
					}
				],
				"types": {
					"t_address": {
						"encoding": "inplace",
						"label": "address",
						"numberOfBytes": "20"
					},
					"t_array(t_struct(Briber)408_storage)dyn_storage": {
						"base": "t_struct(Briber)408_storage",
						"encoding": "dynamic_array",
						"label": "struct DiscoCats.Briber[]",
						"numberOfBytes": "32"
					},
					"t_bool": {
						"encoding": "inplace",
						"label": "bool",
						"numberOfBytes": "1"
					},
					"t_enum(govtStatus)423": {
						"encoding": "inplace",
						"label": "enum DiscoCats.govtStatus",
						"numberOfBytes": "1"
					},
					"t_mapping(t_address,t_uint256)": {
						"encoding": "mapping",
						"key": "t_address",
						"label": "mapping(address => uint256)",
						"numberOfBytes": "32",
						"value": "t_uint256"
					},
					"t_mapping(t_uint256,t_bool)": {
						"encoding": "mapping",
						"key": "t_uint256",
						"label": "mapping(uint256 => bool)",
						"numberOfBytes": "32",
						"value": "t_bool"
					},
					"t_mapping(t_uint256,t_struct(Project)419_storage)": {
						"encoding": "mapping",
						"key": "t_uint256",
						"label": "mapping(uint256 => struct DiscoCats.Project)",
						"numberOfBytes": "32",
						"value": "t_struct(Project)419_storage"
					},
					"t_string_storage": {
						"encoding": "bytes",
						"label": "string",
						"numberOfBytes": "32"
					},
					"t_struct(Briber)408_storage": {
						"encoding": "inplace",
						"label": "struct DiscoCats.Briber",
						"members": [
							{
								"astId": 403,
								"contract": "DiscoCats.sol:DiscoCats",
								"label": "briberAddress",
								"offset": 0,
								"slot": "0",
								"type": "t_address"
							},
							{
								"astId": 405,
								"contract": "DiscoCats.sol:DiscoCats",
								"label": "tokenAddress",
								"offset": 0,
								"slot": "1",
								"type": "t_address"
							},
							{
								"astId": 407,
								"contract": "DiscoCats.sol:DiscoCats",
								"label": "tokenAmnt",
								"offset": 0,
								"slot": "2",
								"type": "t_uint256"
							}
						],
						"numberOfBytes": "96"
					},
					"t_struct(Project)419_storage": {
						"encoding": "inplace",
						"label": "struct DiscoCats.Project",
						"members": [
							{
								"astId": 410,
								"contract": "DiscoCats.sol:DiscoCats",
								"label": "name",
								"offset": 0,
								"slot": "0",
								"type": "t_string_storage"
							},
							{
								"astId": 412,
								"contract": "DiscoCats.sol:DiscoCats",
								"label": "projectOwner",
								"offset": 0,
								"slot": "1",
								"type": "t_address"
							},
							{
								"astId": 416,
								"contract": "DiscoCats.sol:DiscoCats",
								"label": "bribers",
								"offset": 0,
								"slot": "2",
								"type": "t_array(t_struct(Briber)408_storage)dyn_storage"
							},
							{
								"astId": 418,
								"contract": "DiscoCats.sol:DiscoCats",
								"label": "votes",
								"offset": 0,
								"slot": "3",
								"type": "t_uint256"
							}
						],
						"numberOfBytes": "128"
					},
					"t_uint256": {
						"encoding": "inplace",
						"label": "uint256",
						"numberOfBytes": "32"
					}
				}
			},
			"userdoc": {
				"kind": "user",
				"methods": {},
				"version": 1
			}
		}
	}
}