{
	"data": {
		"bytecode": {
			"linkReferences": {},
			"object": "60806040525f6003555f600460146101000a81548160ff0219169083600281111561002d5761002c6101f0565b5b02179055505f600655600a600755348015610046575f80fd5b50604051612fc2380380612fc2833981810160405281019061006891906102ae565b825f73ffffffffffffffffffffffffffffffffffffffff168173ffffffffffffffffffffffffffffffffffffffff16036100d9575f6040517f1e4fbdf70000000000000000000000000000000000000000000000000000000081526004016100d0919061030d565b60405180910390fd5b6100e88161012f60201b60201c565b50603c826100f69190610353565b426101019190610394565b600181905550603c816101149190610353565b6001546101219190610394565b6002819055505050506103c7565b5f805f9054906101000a900473ffffffffffffffffffffffffffffffffffffffff169050815f806101000a81548173ffffffffffffffffffffffffffffffffffffffff021916908373ffffffffffffffffffffffffffffffffffffffff1602179055508173ffffffffffffffffffffffffffffffffffffffff168173ffffffffffffffffffffffffffffffffffffffff167f8be0079c531659141344cd1fd0a4f28419497f9722a3daafe3b4186f6b6457e060405160405180910390a35050565b7f4e487b71000000000000000000000000000000000000000000000000000000005f52602160045260245ffd5b5f80fd5b5f73ffffffffffffffffffffffffffffffffffffffff82169050919050565b5f61024a82610221565b9050919050565b61025a81610240565b8114610264575f80fd5b50565b5f8151905061027581610251565b92915050565b5f819050919050565b61028d8161027b565b8114610297575f80fd5b50565b5f815190506102a881610284565b92915050565b5f805f606084860312156102c5576102c461021d565b5b5f6102d286828701610267565b93505060206102e38682870161029a565b92505060406102f48682870161029a565b9150509250925092565b61030781610240565b82525050565b5f6020820190506103205f8301846102fe565b92915050565b7f4e487b71000000000000000000000000000000000000000000000000000000005f52601160045260245ffd5b5f61035d8261027b565b91506103688361027b565b92508282026103768161027b565b9150828204841483151761038d5761038c610326565b5b5092915050565b5f61039e8261027b565b91506103a98361027b565b92508282019050808211156103c1576103c0610326565b5b92915050565b612bee806103d45f395ff3fe608060405260043610610180575f3560e01c8063715018a6116100d0578063bae60c8811610089578063d19ee35711610063578063d19ee3571461055f578063f2fde38b14610587578063f4b1f501146105af578063f84ddf0b146105d957610180565b8063bae60c88146104de578063bfb906a7146104fa578063cb06545c1461053757610180565b8063715018a6146103d45780638da5cb5b146103ea57806399b1760a14610414578063a3ec138d14610450578063aae282e11461048c578063b00741cb146104b657610180565b806333b2decc1161013d578063382007021161011757806338200702146103085780633885aed3146103445780634e69d5601461036e5780636a460d411461039857610180565b806333b2decc1461028e57806336fbad26146102b6578063379607f5146102e057610180565b80630121b93f1461018457806302a251a3146101ac5780630b102d1a146101d65780630d15fd77146101fe578063107046bd14610228578063239ecf3514610266575b5f80fd5b34801561018f575f80fd5b506101aa60048036038101906101a59190611d51565b610603565b005b3480156101b7575f80fd5b506101c0610a67565b6040516101cd9190611d8b565b60405180910390f35b3480156101e1575f80fd5b506101fc60048036038101906101f79190611dfe565b610a6d565b005b348015610209575f80fd5b50610212610ab8565b60405161021f9190611d8b565b60405180910390f35b348015610233575f80fd5b5061024e60048036038101906102499190611d51565b610abe565b60405161025d93929190611ea8565b60405180910390f35b348015610271575f80fd5b5061028c60048036038101906102879190612010565b610b89565b005b348015610299575f80fd5b506102b460048036038101906102af9190612057565b610c63565b005b3480156102c1575f80fd5b506102ca610fbd565b6040516102d79190611d8b565b60405180910390f35b3480156102eb575f80fd5b5061030660048036038101906103019190611d51565b610fc3565b005b348015610313575f80fd5b5061032e60048036038101906103299190611d51565b61124c565b60405161033b91906120c1565b60405180910390f35b34801561034f575f80fd5b50610358611269565b6040516103659190611d8b565b60405180910390f35b348015610379575f80fd5b5061038261126f565b60405161038f9190611d8b565b60405180910390f35b3480156103a3575f80fd5b506103be60048036038101906103b99190611d51565b6112ab565b6040516103cb9190611d8b565b60405180910390f35b3480156103df575f80fd5b506103e8611320565b005b3480156103f5575f80fd5b506103fe611333565b60405161040b91906120da565b60405180910390f35b34801561041f575f80fd5b5061043a600480360381019061043591906120f3565b61135a565b6040516104479190611d8b565b60405180910390f35b34801561045b575f80fd5b5061047660048036038101906104719190611dfe565b611448565b6040516104839190611d8b565b60405180910390f35b348015610497575f80fd5b506104a061145d565b6040516104ad91906120da565b60405180910390f35b3480156104c1575f80fd5b506104dc60048036038101906104d79190611d51565b611482565b005b6104f860048036038101906104f39190612131565b611527565b005b348015610505575f80fd5b50610520600480360381019061051b9190611d51565b61168c565b60405161052e92919061234a565b60405180910390f35b348015610542575f80fd5b5061055d60048036038101906105589190611d51565b61187d565b005b34801561056a575f80fd5b5061058560048036038101906105809190611dfe565b61188f565b005b348015610592575f80fd5b506105ad60048036038101906105a89190611dfe565b611a6c565b005b3480156105ba575f80fd5b506105c3611af0565b6040516105d09190611d8b565b60405180910390f35b3480156105e4575f80fd5b506105ed611b40565b6040516105fa9190611d8b565b60405180910390f35b600154421015801561061757506002544211155b610656576040517f08c379a000000000000000000000000000000000000000000000000000000000815260040161064d906123c9565b60405180910390fd5b80600354101561069b576040517f08c379a000000000000000000000000000000000000000000000000000000000815260040161069290612431565b60405180910390fd5b5f60045f9054906101000a900473ffffffffffffffffffffffffffffffffffffffff1673ffffffffffffffffffffffffffffffffffffffff166370a08231336040518263ffffffff1660e01b81526004016106f691906120da565b602060405180830381865afa158015610711573d5f803e3d5ffd5b505050506040513d601f19601f820116820180604052508101906107359190612463565b11610775576040517f08c379a000000000000000000000000000000000000000000000000000000000815260040161076c906124d8565b60405180910390fd5b5f60095f8381526020019081526020015f20905060045f9054906101000a900473ffffffffffffffffffffffffffffffffffffffff1673ffffffffffffffffffffffffffffffffffffffff166370a08231336040518263ffffffff1660e01b81526004016107e391906120da565b602060405180830381865afa1580156107fe573d5f803e3d5ffd5b505050506040513d601f19601f820116820180604052508101906108229190612463565b60055f3373ffffffffffffffffffffffffffffffffffffffff1673ffffffffffffffffffffffffffffffffffffffff1681526020019081526020015f2054106108a0576040517f08c379a000000000000000000000000000000000000000000000000000000000815260040161089790612540565b60405180910390fd5b5f5b6007548111610a62573373ffffffffffffffffffffffffffffffffffffffff1660045f9054906101000a900473ffffffffffffffffffffffffffffffffffffffff1673ffffffffffffffffffffffffffffffffffffffff16636352211e836040518263ffffffff1660e01b815260040161091c9190611d8b565b602060405180830381865afa158015610937573d5f803e3d5ffd5b505050506040513d601f19601f8201168201806040525081019061095b9190612572565b73ffffffffffffffffffffffffffffffffffffffff1603610a4f575f151560085f8381526020019081526020015f205f9054906101000a900460ff16151503610a4e5760055f3373ffffffffffffffffffffffffffffffffffffffff1673ffffffffffffffffffffffffffffffffffffffff1681526020019081526020015f205f8154809291906109eb906125ca565b9190505550816004015f815480929190610a04906125ca565b919050555060065f815480929190610a1b906125ca565b9190505550600160085f8381526020019081526020015f205f6101000a81548160ff021916908315150217905550610a62565b5b8080610a5a906125ca565b9150506108a2565b505050565b60025481565b610a75611b46565b8060045f6101000a81548173ffffffffffffffffffffffffffffffffffffffff021916908373ffffffffffffffffffffffffffffffffffffffff16021790555050565b60065481565b6009602052805f5260405f205f91509050805f018054610add9061263e565b80601f0160208091040260200160405190810160405280929190818152602001828054610b099061263e565b8015610b545780601f10610b2b57610100808354040283529160200191610b54565b820191905f5260205f20905b815481529060010190602001808311610b3757829003601f168201915b505050505090806001015f9054906101000a900473ffffffffffffffffffffffffffffffffffffffff16908060040154905083565b610b91611b46565b600154421115610bd6576040517f08c379a0000000000000000000000000000000000000000000000000000000008152600401610bcd906123c9565b60405180910390fd5b60035f815480929190610be8906125ca565b91905055505f60095f60035481526020019081526020015f20905081815f019081610c13919061280b565b5033816001015f6101000a81548173ffffffffffffffffffffffffffffffffffffffff021916908373ffffffffffffffffffffffffffffffffffffffff1602179055505f81600401819055505050565b600154421115610ca8576040517f08c379a0000000000000000000000000000000000000000000000000000000008152600401610c9f906123c9565b60405180910390fd5b5f8111610cea576040517f08c379a0000000000000000000000000000000000000000000000000000000008152600401610ce190612924565b60405180910390fd5b808273ffffffffffffffffffffffffffffffffffffffff166370a08231336040518263ffffffff1660e01b8152600401610d2491906120da565b602060405180830381865afa158015610d3f573d5f803e3d5ffd5b505050506040513d601f19601f82011682018060405250810190610d639190612463565b1015610da4576040517f08c379a0000000000000000000000000000000000000000000000000000000008152600401610d9b9061298c565b60405180910390fd5b8173ffffffffffffffffffffffffffffffffffffffff166323b872dd3330846040518463ffffffff1660e01b8152600401610de1939291906129aa565b6020604051808303815f875af1158015610dfd573d5f803e3d5ffd5b505050506040513d601f19601f82011682018060405250810190610e219190612a09565b610e60576040517f08c379a0000000000000000000000000000000000000000000000000000000008152600401610e5790612a7e565b60405180910390fd5b5f60095f8581526020019081526020015f209050610e7c611c95565b33815f019073ffffffffffffffffffffffffffffffffffffffff16908173ffffffffffffffffffffffffffffffffffffffff168152505083816020019073ffffffffffffffffffffffffffffffffffffffff16908173ffffffffffffffffffffffffffffffffffffffff1681525050828160400181815250508160020181908060018154018082558091505060019003905f5260205f2090600302015f909190919091505f820151815f015f6101000a81548173ffffffffffffffffffffffffffffffffffffffff021916908373ffffffffffffffffffffffffffffffffffffffff1602179055506020820151816001015f6101000a81548173ffffffffffffffffffffffffffffffffffffffff021916908373ffffffffffffffffffffffffffffffffffffffff1602179055506040820151816002015550505050505050565b60035481565b600254421015611008576040517f08c379a0000000000000000000000000000000000000000000000000000000008152600401610fff906123c9565b60405180910390fd5b611010611af0565b8103611051576040517f08c379a000000000000000000000000000000000000000000000000000000000815260040161104890612ae6565b60405180910390fd5b5f60095f8381526020019081526020015f2090505f5b8160020180549050811015611247573373ffffffffffffffffffffffffffffffffffffffff168260020182815481106110a3576110a2612b04565b5b905f5260205f2090600302015f015f9054906101000a900473ffffffffffffffffffffffffffffffffffffffff1673ffffffffffffffffffffffffffffffffffffffff160361123a5781600201818154811061110257611101612b04565b5b905f5260205f2090600302016001015f9054906101000a900473ffffffffffffffffffffffffffffffffffffffff1673ffffffffffffffffffffffffffffffffffffffff1663a9059cbb3384600201848154811061116357611162612b04565b5b905f5260205f209060030201600201546040518363ffffffff1660e01b8152600401611190929190612b31565b6020604051808303815f875af11580156111ac573d5f803e3d5ffd5b505050506040513d601f19601f820116820180604052508101906111d09190612a09565b61120f576040517f08c379a000000000000000000000000000000000000000000000000000000000815260040161120690612a7e565b60405180910390fd5b5f82600201828154811061122657611225612b04565b5b905f5260205f209060030201600201819055505b8080600101915050611067565b505050565b6008602052805f5260405f205f915054906101000a900460ff1681565b60015481565b5f6001544211611281575f90506112a8565b600154421015801561129557506002544211155b156112a357600190506112a8565b600290505b90565b5f805f90505f60095f8581526020019081526020015f2090505f5b8160030180549050811015611315578160030181815481106112eb576112ea612b04565b5b905f5260205f20906002020160010154836113069190612b58565b925080806001019150506112c6565b508192505050919050565b611328611b46565b6113315f611bcd565b565b5f805f9054906101000a900473ffffffffffffffffffffffffffffffffffffffff16905090565b5f805f90505f60095f8681526020019081526020015f2090505f5b816002018054905081101561143c578473ffffffffffffffffffffffffffffffffffffffff168260020182815481106113b1576113b0612b04565b5b905f5260205f2090600302016001015f9054906101000a900473ffffffffffffffffffffffffffffffffffffffff1673ffffffffffffffffffffffffffffffffffffffff160361142f5781600201818154811061141157611410612b04565b5b905f5260205f209060030201600201548361142c9190612b58565b92505b8080600101915050611375565b50819250505092915050565b6005602052805f5260405f205f915090505481565b60045f9054906101000a900473ffffffffffffffffffffffffffffffffffffffff1681565b61148a611b46565b5f81036114bc575f600460146101000a81548160ff021916908360028111156114b6576114b5612b8b565b5b02179055505b600181036114f0576001600460146101000a81548160ff021916908360028111156114ea576114e9612b8b565b5b02179055505b60028103611524576002600460146101000a81548160ff0219169083600281111561151e5761151d612b8b565b5b02179055505b50565b60015442111561156c576040517f08c379a0000000000000000000000000000000000000000000000000000000008152600401611563906123c9565b60405180910390fd5b5f34116115ae576040517f08c379a00000000000000000000000000000000000000000000000000000000081526004016115a590612924565b60405180910390fd5b5f60095f8481526020019081526020015f2090506115ca611cdf565b33815f019073ffffffffffffffffffffffffffffffffffffffff16908173ffffffffffffffffffffffffffffffffffffffff1681525050828160200181815250508160030181908060018154018082558091505060019003905f5260205f2090600202015f909190919091505f820151815f015f6101000a81548173ffffffffffffffffffffffffffffffffffffffff021916908373ffffffffffffffffffffffffffffffffffffffff16021790555060208201518160010155505050505050565b60608060095f8481526020019081526020015f2060020160095f8581526020019081526020015f2060030181805480602002602001604051908101604052809291908181526020015f905b828210156117ba578382905f5260205f2090600302016040518060600160405290815f82015f9054906101000a900473ffffffffffffffffffffffffffffffffffffffff1673ffffffffffffffffffffffffffffffffffffffff1673ffffffffffffffffffffffffffffffffffffffff168152602001600182015f9054906101000a900473ffffffffffffffffffffffffffffffffffffffff1673ffffffffffffffffffffffffffffffffffffffff1673ffffffffffffffffffffffffffffffffffffffff168152602001600282015481525050815260200190600101906116d7565b50505050915080805480602002602001604051908101604052809291908181526020015f905b8282101561186e578382905f5260205f2090600202016040518060400160405290815f82015f9054906101000a900473ffffffffffffffffffffffffffffffffffffffff1673ffffffffffffffffffffffffffffffffffffffff1673ffffffffffffffffffffffffffffffffffffffff168152602001600182015481525050815260200190600101906117e0565b50505050905091509150915091565b611885611b46565b8060078190555050565b611897611b46565b6002544210156118dc576040517f08c379a00000000000000000000000000000000000000000000000000000000081526004016118d3906123c9565b60405180910390fd5b5f6118e5611af0565b90505f60095f8381526020019081526020015f2090505f5b8160020180549050811015611a665781600201818154811061192257611921612b04565b5b905f5260205f2090600302016001015f9054906101000a900473ffffffffffffffffffffffffffffffffffffffff1673ffffffffffffffffffffffffffffffffffffffff1663a9059cbb8584600201848154811061198357611982612b04565b5b905f5260205f209060030201600201546040518363ffffffff1660e01b81526004016119b0929190612b31565b6020604051808303815f875af11580156119cc573d5f803e3d5ffd5b505050506040513d601f19601f820116820180604052508101906119f09190612a09565b611a2f576040517f08c379a0000000000000000000000000000000000000000000000000000000008152600401611a2690612a7e565b60405180910390fd5b5f826002018281548110611a4657611a45612b04565b5b905f5260205f2090600302016002018190555080806001019150506118fd565b50505050565b611a74611b46565b5f73ffffffffffffffffffffffffffffffffffffffff168173ffffffffffffffffffffffffffffffffffffffff1603611ae4575f6040517f1e4fbdf7000000000000000000000000000000000000000000000000000000008152600401611adb91906120da565b60405180910390fd5b611aed81611bcd565b50565b5f80600190505f600190505b6003548111611b38578160095f8381526020019081526020015f20600401541115611b25578091505b8080611b30906125ca565b915050611afc565b508091505090565b60075481565b611b4e611c8e565b73ffffffffffffffffffffffffffffffffffffffff16611b6c611333565b73ffffffffffffffffffffffffffffffffffffffff1614611bcb57611b8f611c8e565b6040517f118cdaa7000000000000000000000000000000000000000000000000000000008152600401611bc291906120da565b60405180910390fd5b565b5f805f9054906101000a900473ffffffffffffffffffffffffffffffffffffffff169050815f806101000a81548173ffffffffffffffffffffffffffffffffffffffff021916908373ffffffffffffffffffffffffffffffffffffffff1602179055508173ffffffffffffffffffffffffffffffffffffffff168173ffffffffffffffffffffffffffffffffffffffff167f8be0079c531659141344cd1fd0a4f28419497f9722a3daafe3b4186f6b6457e060405160405180910390a35050565b5f33905090565b60405180606001604052805f73ffffffffffffffffffffffffffffffffffffffff1681526020015f73ffffffffffffffffffffffffffffffffffffffff1681526020015f81525090565b60405180604001604052805f73ffffffffffffffffffffffffffffffffffffffff1681526020015f81525090565b5f604051905090565b5f80fd5b5f80fd5b5f819050919050565b611d3081611d1e565b8114611d3a575f80fd5b50565b5f81359050611d4b81611d27565b92915050565b5f60208284031215611d6657611d65611d16565b5b5f611d7384828501611d3d565b91505092915050565b611d8581611d1e565b82525050565b5f602082019050611d9e5f830184611d7c565b92915050565b5f73ffffffffffffffffffffffffffffffffffffffff82169050919050565b5f611dcd82611da4565b9050919050565b611ddd81611dc3565b8114611de7575f80fd5b50565b5f81359050611df881611dd4565b92915050565b5f60208284031215611e1357611e12611d16565b5b5f611e2084828501611dea565b91505092915050565b5f81519050919050565b5f82825260208201905092915050565b8281835e5f83830152505050565b5f601f19601f8301169050919050565b5f611e6b82611e29565b611e758185611e33565b9350611e85818560208601611e43565b611e8e81611e51565b840191505092915050565b611ea281611dc3565b82525050565b5f6060820190508181035f830152611ec08186611e61565b9050611ecf6020830185611e99565b611edc6040830184611d7c565b949350505050565b5f80fd5b5f80fd5b7f4e487b71000000000000000000000000000000000000000000000000000000005f52604160045260245ffd5b611f2282611e51565b810181811067ffffffffffffffff82111715611f4157611f40611eec565b5b80604052505050565b5f611f53611d0d565b9050611f5f8282611f19565b919050565b5f67ffffffffffffffff821115611f7e57611f7d611eec565b5b611f8782611e51565b9050602081019050919050565b828183375f83830152505050565b5f611fb4611faf84611f64565b611f4a565b905082815260208101848484011115611fd057611fcf611ee8565b5b611fdb848285611f94565b509392505050565b5f82601f830112611ff757611ff6611ee4565b5b8135612007848260208601611fa2565b91505092915050565b5f6020828403121561202557612024611d16565b5b5f82013567ffffffffffffffff81111561204257612041611d1a565b5b61204e84828501611fe3565b91505092915050565b5f805f6060848603121561206e5761206d611d16565b5b5f61207b86828701611d3d565b935050602061208c86828701611dea565b925050604061209d86828701611d3d565b9150509250925092565b5f8115159050919050565b6120bb816120a7565b82525050565b5f6020820190506120d45f8301846120b2565b92915050565b5f6020820190506120ed5f830184611e99565b92915050565b5f806040838503121561210957612108611d16565b5b5f61211685828601611d3d565b925050602061212785828601611dea565b9150509250929050565b5f806040838503121561214757612146611d16565b5b5f61215485828601611d3d565b925050602061216585828601611d3d565b9150509250929050565b5f81519050919050565b5f82825260208201905092915050565b5f819050602082019050919050565b6121a181611dc3565b82525050565b6121b081611d1e565b82525050565b606082015f8201516121ca5f850182612198565b5060208201516121dd6020850182612198565b5060408201516121f060408501826121a7565b50505050565b5f61220183836121b6565b60608301905092915050565b5f602082019050919050565b5f6122238261216f565b61222d8185612179565b935061223883612189565b805f5b8381101561226857815161224f88826121f6565b975061225a8361220d565b92505060018101905061223b565b5085935050505092915050565b5f81519050919050565b5f82825260208201905092915050565b5f819050602082019050919050565b604082015f8201516122b25f850182612198565b5060208201516122c560208501826121a7565b50505050565b5f6122d6838361229e565b60408301905092915050565b5f602082019050919050565b5f6122f882612275565b612302818561227f565b935061230d8361228f565b805f5b8381101561233d57815161232488826122cb565b975061232f836122e2565b925050600181019050612310565b5085935050505092915050565b5f6040820190508181035f8301526123628185612219565b9050818103602083015261237681846122ee565b90509392505050565b7f63616e7420646f206974206e6f770000000000000000000000000000000000005f82015250565b5f6123b3600e83611e33565b91506123be8261237f565b602082019050919050565b5f6020820190508181035f8301526123e0816123a7565b9050919050565b7f616f7574206f66206f72646572206e6f000000000000000000000000000000005f82015250565b5f61241b601083611e33565b9150612426826123e7565b602082019050919050565b5f6020820190508181035f8301526124488161240f565b9050919050565b5f8151905061245d81611d27565b92915050565b5f6020828403121561247857612477611d16565b5b5f6124858482850161244f565b91505092915050565b7f646f6e74206f776e20746865206e6674000000000000000000000000000000005f82015250565b5f6124c2601083611e33565b91506124cd8261248e565b602082019050919050565b5f6020820190508181035f8301526124ef816124b6565b9050919050565b7f63616e2063617374206d6f726520766f746500000000000000000000000000005f82015250565b5f61252a601283611e33565b9150612535826124f6565b602082019050919050565b5f6020820190508181035f8301526125578161251e565b9050919050565b5f8151905061256c81611dd4565b92915050565b5f6020828403121561258757612586611d16565b5b5f6125948482850161255e565b91505092915050565b7f4e487b71000000000000000000000000000000000000000000000000000000005f52601160045260245ffd5b5f6125d482611d1e565b91507fffffffffffffffffffffffffffffffffffffffffffffffffffffffffffffffff82036126065761260561259d565b5b600182019050919050565b7f4e487b71000000000000000000000000000000000000000000000000000000005f52602260045260245ffd5b5f600282049050600182168061265557607f821691505b60208210810361266857612667612611565b5b50919050565b5f819050815f5260205f209050919050565b5f6020601f8301049050919050565b5f82821b905092915050565b5f600883026126ca7fffffffffffffffffffffffffffffffffffffffffffffffffffffffffffffffff8261268f565b6126d4868361268f565b95508019841693508086168417925050509392505050565b5f819050919050565b5f61270f61270a61270584611d1e565b6126ec565b611d1e565b9050919050565b5f819050919050565b612728836126f5565b61273c61273482612716565b84845461269b565b825550505050565b5f90565b612750612744565b61275b81848461271f565b505050565b5b8181101561277e576127735f82612748565b600181019050612761565b5050565b601f8211156127c3576127948161266e565b61279d84612680565b810160208510156127ac578190505b6127c06127b885612680565b830182612760565b50505b505050565b5f82821c905092915050565b5f6127e35f19846008026127c8565b1980831691505092915050565b5f6127fb83836127d4565b9150826002028217905092915050565b61281482611e29565b67ffffffffffffffff81111561282d5761282c611eec565b5b612837825461263e565b612842828285612782565b5f60209050601f831160018114612873575f8415612861578287015190505b61286b85826127f0565b8655506128d2565b601f1984166128818661266e565b5f5b828110156128a857848901518255600182019150602085019450602081019050612883565b868310156128c557848901516128c1601f8916826127d4565b8355505b6001600288020188555050505b505050505050565b7f416d6f756e74206d7573742062652067726561746572207468616e20300000005f82015250565b5f61290e601d83611e33565b9150612919826128da565b602082019050919050565b5f6020820190508181035f83015261293b81612902565b9050919050565b7f496e73756666696369656e7420746f6b656e2062616c616e63650000000000005f82015250565b5f612976601a83611e33565b915061298182612942565b602082019050919050565b5f6020820190508181035f8301526129a38161296a565b9050919050565b5f6060820190506129bd5f830186611e99565b6129ca6020830185611e99565b6129d76040830184611d7c565b949350505050565b6129e8816120a7565b81146129f2575f80fd5b50565b5f81519050612a03816129df565b92915050565b5f60208284031215612a1e57612a1d611d16565b5b5f612a2b848285016129f5565b91505092915050565b7f7472616e73616374696f6e206661696c656400000000000000000000000000005f82015250565b5f612a68601283611e33565b9150612a7382612a34565b602082019050919050565b5f6020820190508181035f830152612a9581612a5c565b9050919050565b7f63616e7420636c61696d2077696e6e65722070726f6a656374000000000000005f82015250565b5f612ad0601983611e33565b9150612adb82612a9c565b602082019050919050565b5f6020820190508181035f830152612afd81612ac4565b9050919050565b7f4e487b71000000000000000000000000000000000000000000000000000000005f52603260045260245ffd5b5f604082019050612b445f830185611e99565b612b516020830184611d7c565b9392505050565b5f612b6282611d1e565b9150612b6d83611d1e565b9250828201905080821115612b8557612b8461259d565b5b92915050565b7f4e487b71000000000000000000000000000000000000000000000000000000005f52602160045260245ffdfea2646970667358221220ba44d50ac3dbac11be59f28339ecd99da14b02766cd627ec971ba9cfbbb5e45864736f6c634300081a0033",
			"opcodes": "PUSH1 0x80 PUSH1 0x40 MSTORE PUSH0 PUSH1 0x3 SSTORE PUSH0 PUSH1 0x4 PUSH1 0x14 PUSH2 0x100 EXP DUP2 SLOAD DUP2 PUSH1 0xFF MUL NOT AND SWAP1 DUP4 PUSH1 0x2 DUP2 GT ISZERO PUSH2 0x2D JUMPI PUSH2 0x2C PUSH2 0x1F0 JUMP JUMPDEST JUMPDEST MUL OR SWAP1 SSTORE POP PUSH0 PUSH1 0x6 SSTORE PUSH1 0xA PUSH1 0x7 SSTORE CALLVALUE DUP1 ISZERO PUSH2 0x46 JUMPI PUSH0 DUP1 REVERT JUMPDEST POP PUSH1 0x40 MLOAD PUSH2 0x2FC2 CODESIZE SUB DUP1 PUSH2 0x2FC2 DUP4 CODECOPY DUP2 DUP2 ADD PUSH1 0x40 MSTORE DUP2 ADD SWAP1 PUSH2 0x68 SWAP2 SWAP1 PUSH2 0x2AE JUMP JUMPDEST DUP3 PUSH0 PUSH20 0xFFFFFFFFFFFFFFFFFFFFFFFFFFFFFFFFFFFFFFFF AND DUP2 PUSH20 0xFFFFFFFFFFFFFFFFFFFFFFFFFFFFFFFFFFFFFFFF AND SUB PUSH2 0xD9 JUMPI PUSH0 PUSH1 0x40 MLOAD PUSH32 0x1E4FBDF700000000000000000000000000000000000000000000000000000000 DUP2 MSTORE PUSH1 0x4 ADD PUSH2 0xD0 SWAP2 SWAP1 PUSH2 0x30D JUMP JUMPDEST PUSH1 0x40 MLOAD DUP1 SWAP2 SUB SWAP1 REVERT JUMPDEST PUSH2 0xE8 DUP2 PUSH2 0x12F PUSH1 0x20 SHL PUSH1 0x20 SHR JUMP JUMPDEST POP PUSH1 0x3C DUP3 PUSH2 0xF6 SWAP2 SWAP1 PUSH2 0x353 JUMP JUMPDEST TIMESTAMP PUSH2 0x101 SWAP2 SWAP1 PUSH2 0x394 JUMP JUMPDEST PUSH1 0x1 DUP2 SWAP1 SSTORE POP PUSH1 0x3C DUP2 PUSH2 0x114 SWAP2 SWAP1 PUSH2 0x353 JUMP JUMPDEST PUSH1 0x1 SLOAD PUSH2 0x121 SWAP2 SWAP1 PUSH2 0x394 JUMP JUMPDEST PUSH1 0x2 DUP2 SWAP1 SSTORE POP POP POP POP PUSH2 0x3C7 JUMP JUMPDEST PUSH0 DUP1 PUSH0 SWAP1 SLOAD SWAP1 PUSH2 0x100 EXP SWAP1 DIV PUSH20 0xFFFFFFFFFFFFFFFFFFFFFFFFFFFFFFFFFFFFFFFF AND SWAP1 POP DUP2 PUSH0 DUP1 PUSH2 0x100 EXP DUP2 SLOAD DUP2 PUSH20 0xFFFFFFFFFFFFFFFFFFFFFFFFFFFFFFFFFFFFFFFF MUL NOT AND SWAP1 DUP4 PUSH20 0xFFFFFFFFFFFFFFFFFFFFFFFFFFFFFFFFFFFFFFFF AND MUL OR SWAP1 SSTORE POP DUP2 PUSH20 0xFFFFFFFFFFFFFFFFFFFFFFFFFFFFFFFFFFFFFFFF AND DUP2 PUSH20 0xFFFFFFFFFFFFFFFFFFFFFFFFFFFFFFFFFFFFFFFF AND PUSH32 0x8BE0079C531659141344CD1FD0A4F28419497F9722A3DAAFE3B4186F6B6457E0 PUSH1 0x40 MLOAD PUSH1 0x40 MLOAD DUP1 SWAP2 SUB SWAP1 LOG3 POP POP JUMP JUMPDEST PUSH32 0x4E487B7100000000000000000000000000000000000000000000000000000000 PUSH0 MSTORE PUSH1 0x21 PUSH1 0x4 MSTORE PUSH1 0x24 PUSH0 REVERT JUMPDEST PUSH0 DUP1 REVERT JUMPDEST PUSH0 PUSH20 0xFFFFFFFFFFFFFFFFFFFFFFFFFFFFFFFFFFFFFFFF DUP3 AND SWAP1 POP SWAP2 SWAP1 POP JUMP JUMPDEST PUSH0 PUSH2 0x24A DUP3 PUSH2 0x221 JUMP JUMPDEST SWAP1 POP SWAP2 SWAP1 POP JUMP JUMPDEST PUSH2 0x25A DUP2 PUSH2 0x240 JUMP JUMPDEST DUP2 EQ PUSH2 0x264 JUMPI PUSH0 DUP1 REVERT JUMPDEST POP JUMP JUMPDEST PUSH0 DUP2 MLOAD SWAP1 POP PUSH2 0x275 DUP2 PUSH2 0x251 JUMP JUMPDEST SWAP3 SWAP2 POP POP JUMP JUMPDEST PUSH0 DUP2 SWAP1 POP SWAP2 SWAP1 POP JUMP JUMPDEST PUSH2 0x28D DUP2 PUSH2 0x27B JUMP JUMPDEST DUP2 EQ PUSH2 0x297 JUMPI PUSH0 DUP1 REVERT JUMPDEST POP JUMP JUMPDEST PUSH0 DUP2 MLOAD SWAP1 POP PUSH2 0x2A8 DUP2 PUSH2 0x284 JUMP JUMPDEST SWAP3 SWAP2 POP POP JUMP JUMPDEST PUSH0 DUP1 PUSH0 PUSH1 0x60 DUP5 DUP7 SUB SLT ISZERO PUSH2 0x2C5 JUMPI PUSH2 0x2C4 PUSH2 0x21D JUMP JUMPDEST JUMPDEST PUSH0 PUSH2 0x2D2 DUP7 DUP3 DUP8 ADD PUSH2 0x267 JUMP JUMPDEST SWAP4 POP POP PUSH1 0x20 PUSH2 0x2E3 DUP7 DUP3 DUP8 ADD PUSH2 0x29A JUMP JUMPDEST SWAP3 POP POP PUSH1 0x40 PUSH2 0x2F4 DUP7 DUP3 DUP8 ADD PUSH2 0x29A JUMP JUMPDEST SWAP2 POP POP SWAP3 POP SWAP3 POP SWAP3 JUMP JUMPDEST PUSH2 0x307 DUP2 PUSH2 0x240 JUMP JUMPDEST DUP3 MSTORE POP POP JUMP JUMPDEST PUSH0 PUSH1 0x20 DUP3 ADD SWAP1 POP PUSH2 0x320 PUSH0 DUP4 ADD DUP5 PUSH2 0x2FE JUMP JUMPDEST SWAP3 SWAP2 POP POP JUMP JUMPDEST PUSH32 0x4E487B7100000000000000000000000000000000000000000000000000000000 PUSH0 MSTORE PUSH1 0x11 PUSH1 0x4 MSTORE PUSH1 0x24 PUSH0 REVERT JUMPDEST PUSH0 PUSH2 0x35D DUP3 PUSH2 0x27B JUMP JUMPDEST SWAP2 POP PUSH2 0x368 DUP4 PUSH2 0x27B JUMP JUMPDEST SWAP3 POP DUP3 DUP3 MUL PUSH2 0x376 DUP2 PUSH2 0x27B JUMP JUMPDEST SWAP2 POP DUP3 DUP3 DIV DUP5 EQ DUP4 ISZERO OR PUSH2 0x38D JUMPI PUSH2 0x38C PUSH2 0x326 JUMP JUMPDEST JUMPDEST POP SWAP3 SWAP2 POP POP JUMP JUMPDEST PUSH0 PUSH2 0x39E DUP3 PUSH2 0x27B JUMP JUMPDEST SWAP2 POP PUSH2 0x3A9 DUP4 PUSH2 0x27B JUMP JUMPDEST SWAP3 POP DUP3 DUP3 ADD SWAP1 POP DUP1 DUP3 GT ISZERO PUSH2 0x3C1 JUMPI PUSH2 0x3C0 PUSH2 0x326 JUMP JUMPDEST JUMPDEST SWAP3 SWAP2 POP POP JUMP JUMPDEST PUSH2 0x2BEE DUP1 PUSH2 0x3D4 PUSH0 CODECOPY PUSH0 RETURN INVALID PUSH1 0x80 PUSH1 0x40 MSTORE PUSH1 0x4 CALLDATASIZE LT PUSH2 0x180 JUMPI PUSH0 CALLDATALOAD PUSH1 0xE0 SHR DUP1 PUSH4 0x715018A6 GT PUSH2 0xD0 JUMPI DUP1 PUSH4 0xBAE60C88 GT PUSH2 0x89 JUMPI DUP1 PUSH4 0xD19EE357 GT PUSH2 0x63 JUMPI DUP1 PUSH4 0xD19EE357 EQ PUSH2 0x55F JUMPI DUP1 PUSH4 0xF2FDE38B EQ PUSH2 0x587 JUMPI DUP1 PUSH4 0xF4B1F501 EQ PUSH2 0x5AF JUMPI DUP1 PUSH4 0xF84DDF0B EQ PUSH2 0x5D9 JUMPI PUSH2 0x180 JUMP JUMPDEST DUP1 PUSH4 0xBAE60C88 EQ PUSH2 0x4DE JUMPI DUP1 PUSH4 0xBFB906A7 EQ PUSH2 0x4FA JUMPI DUP1 PUSH4 0xCB06545C EQ PUSH2 0x537 JUMPI PUSH2 0x180 JUMP JUMPDEST DUP1 PUSH4 0x715018A6 EQ PUSH2 0x3D4 JUMPI DUP1 PUSH4 0x8DA5CB5B EQ PUSH2 0x3EA JUMPI DUP1 PUSH4 0x99B1760A EQ PUSH2 0x414 JUMPI DUP1 PUSH4 0xA3EC138D EQ PUSH2 0x450 JUMPI DUP1 PUSH4 0xAAE282E1 EQ PUSH2 0x48C JUMPI DUP1 PUSH4 0xB00741CB EQ PUSH2 0x4B6 JUMPI PUSH2 0x180 JUMP JUMPDEST DUP1 PUSH4 0x33B2DECC GT PUSH2 0x13D JUMPI DUP1 PUSH4 0x38200702 GT PUSH2 0x117 JUMPI DUP1 PUSH4 0x38200702 EQ PUSH2 0x308 JUMPI DUP1 PUSH4 0x3885AED3 EQ PUSH2 0x344 JUMPI DUP1 PUSH4 0x4E69D560 EQ PUSH2 0x36E JUMPI DUP1 PUSH4 0x6A460D41 EQ PUSH2 0x398 JUMPI PUSH2 0x180 JUMP JUMPDEST DUP1 PUSH4 0x33B2DECC EQ PUSH2 0x28E JUMPI DUP1 PUSH4 0x36FBAD26 EQ PUSH2 0x2B6 JUMPI DUP1 PUSH4 0x379607F5 EQ PUSH2 0x2E0 JUMPI PUSH2 0x180 JUMP JUMPDEST DUP1 PUSH4 0x121B93F EQ PUSH2 0x184 JUMPI DUP1 PUSH4 0x2A251A3 EQ PUSH2 0x1AC JUMPI DUP1 PUSH4 0xB102D1A EQ PUSH2 0x1D6 JUMPI DUP1 PUSH4 0xD15FD77 EQ PUSH2 0x1FE JUMPI DUP1 PUSH4 0x107046BD EQ PUSH2 0x228 JUMPI DUP1 PUSH4 0x239ECF35 EQ PUSH2 0x266 JUMPI JUMPDEST PUSH0 DUP1 REVERT JUMPDEST CALLVALUE DUP1 ISZERO PUSH2 0x18F JUMPI PUSH0 DUP1 REVERT JUMPDEST POP PUSH2 0x1AA PUSH1 0x4 DUP1 CALLDATASIZE SUB DUP2 ADD SWAP1 PUSH2 0x1A5 SWAP2 SWAP1 PUSH2 0x1D51 JUMP JUMPDEST PUSH2 0x603 JUMP JUMPDEST STOP JUMPDEST CALLVALUE DUP1 ISZERO PUSH2 0x1B7 JUMPI PUSH0 DUP1 REVERT JUMPDEST POP PUSH2 0x1C0 PUSH2 0xA67 JUMP JUMPDEST PUSH1 0x40 MLOAD PUSH2 0x1CD SWAP2 SWAP1 PUSH2 0x1D8B JUMP JUMPDEST PUSH1 0x40 MLOAD DUP1 SWAP2 SUB SWAP1 RETURN JUMPDEST CALLVALUE DUP1 ISZERO PUSH2 0x1E1 JUMPI PUSH0 DUP1 REVERT JUMPDEST POP PUSH2 0x1FC PUSH1 0x4 DUP1 CALLDATASIZE SUB DUP2 ADD SWAP1 PUSH2 0x1F7 SWAP2 SWAP1 PUSH2 0x1DFE JUMP JUMPDEST PUSH2 0xA6D JUMP JUMPDEST STOP JUMPDEST CALLVALUE DUP1 ISZERO PUSH2 0x209 JUMPI PUSH0 DUP1 REVERT JUMPDEST POP PUSH2 0x212 PUSH2 0xAB8 JUMP JUMPDEST PUSH1 0x40 MLOAD PUSH2 0x21F SWAP2 SWAP1 PUSH2 0x1D8B JUMP JUMPDEST PUSH1 0x40 MLOAD DUP1 SWAP2 SUB SWAP1 RETURN JUMPDEST CALLVALUE DUP1 ISZERO PUSH2 0x233 JUMPI PUSH0 DUP1 REVERT JUMPDEST POP PUSH2 0x24E PUSH1 0x4 DUP1 CALLDATASIZE SUB DUP2 ADD SWAP1 PUSH2 0x249 SWAP2 SWAP1 PUSH2 0x1D51 JUMP JUMPDEST PUSH2 0xABE JUMP JUMPDEST PUSH1 0x40 MLOAD PUSH2 0x25D SWAP4 SWAP3 SWAP2 SWAP1 PUSH2 0x1EA8 JUMP JUMPDEST PUSH1 0x40 MLOAD DUP1 SWAP2 SUB SWAP1 RETURN JUMPDEST CALLVALUE DUP1 ISZERO PUSH2 0x271 JUMPI PUSH0 DUP1 REVERT JUMPDEST POP PUSH2 0x28C PUSH1 0x4 DUP1 CALLDATASIZE SUB DUP2 ADD SWAP1 PUSH2 0x287 SWAP2 SWAP1 PUSH2 0x2010 JUMP JUMPDEST PUSH2 0xB89 JUMP JUMPDEST STOP JUMPDEST CALLVALUE DUP1 ISZERO PUSH2 0x299 JUMPI PUSH0 DUP1 REVERT JUMPDEST POP PUSH2 0x2B4 PUSH1 0x4 DUP1 CALLDATASIZE SUB DUP2 ADD SWAP1 PUSH2 0x2AF SWAP2 SWAP1 PUSH2 0x2057 JUMP JUMPDEST PUSH2 0xC63 JUMP JUMPDEST STOP JUMPDEST CALLVALUE DUP1 ISZERO PUSH2 0x2C1 JUMPI PUSH0 DUP1 REVERT JUMPDEST POP PUSH2 0x2CA PUSH2 0xFBD JUMP JUMPDEST PUSH1 0x40 MLOAD PUSH2 0x2D7 SWAP2 SWAP1 PUSH2 0x1D8B JUMP JUMPDEST PUSH1 0x40 MLOAD DUP1 SWAP2 SUB SWAP1 RETURN JUMPDEST CALLVALUE DUP1 ISZERO PUSH2 0x2EB JUMPI PUSH0 DUP1 REVERT JUMPDEST POP PUSH2 0x306 PUSH1 0x4 DUP1 CALLDATASIZE SUB DUP2 ADD SWAP1 PUSH2 0x301 SWAP2 SWAP1 PUSH2 0x1D51 JUMP JUMPDEST PUSH2 0xFC3 JUMP JUMPDEST STOP JUMPDEST CALLVALUE DUP1 ISZERO PUSH2 0x313 JUMPI PUSH0 DUP1 REVERT JUMPDEST POP PUSH2 0x32E PUSH1 0x4 DUP1 CALLDATASIZE SUB DUP2 ADD SWAP1 PUSH2 0x329 SWAP2 SWAP1 PUSH2 0x1D51 JUMP JUMPDEST PUSH2 0x124C JUMP JUMPDEST PUSH1 0x40 MLOAD PUSH2 0x33B SWAP2 SWAP1 PUSH2 0x20C1 JUMP JUMPDEST PUSH1 0x40 MLOAD DUP1 SWAP2 SUB SWAP1 RETURN JUMPDEST CALLVALUE DUP1 ISZERO PUSH2 0x34F JUMPI PUSH0 DUP1 REVERT JUMPDEST POP PUSH2 0x358 PUSH2 0x1269 JUMP JUMPDEST PUSH1 0x40 MLOAD PUSH2 0x365 SWAP2 SWAP1 PUSH2 0x1D8B JUMP JUMPDEST PUSH1 0x40 MLOAD DUP1 SWAP2 SUB SWAP1 RETURN JUMPDEST CALLVALUE DUP1 ISZERO PUSH2 0x379 JUMPI PUSH0 DUP1 REVERT JUMPDEST POP PUSH2 0x382 PUSH2 0x126F JUMP JUMPDEST PUSH1 0x40 MLOAD PUSH2 0x38F SWAP2 SWAP1 PUSH2 0x1D8B JUMP JUMPDEST PUSH1 0x40 MLOAD DUP1 SWAP2 SUB SWAP1 RETURN JUMPDEST CALLVALUE DUP1 ISZERO PUSH2 0x3A3 JUMPI PUSH0 DUP1 REVERT JUMPDEST POP PUSH2 0x3BE PUSH1 0x4 DUP1 CALLDATASIZE SUB DUP2 ADD SWAP1 PUSH2 0x3B9 SWAP2 SWAP1 PUSH2 0x1D51 JUMP JUMPDEST PUSH2 0x12AB JUMP JUMPDEST PUSH1 0x40 MLOAD PUSH2 0x3CB SWAP2 SWAP1 PUSH2 0x1D8B JUMP JUMPDEST PUSH1 0x40 MLOAD DUP1 SWAP2 SUB SWAP1 RETURN JUMPDEST CALLVALUE DUP1 ISZERO PUSH2 0x3DF JUMPI PUSH0 DUP1 REVERT JUMPDEST POP PUSH2 0x3E8 PUSH2 0x1320 JUMP JUMPDEST STOP JUMPDEST CALLVALUE DUP1 ISZERO PUSH2 0x3F5 JUMPI PUSH0 DUP1 REVERT JUMPDEST POP PUSH2 0x3FE PUSH2 0x1333 JUMP JUMPDEST PUSH1 0x40 MLOAD PUSH2 0x40B SWAP2 SWAP1 PUSH2 0x20DA JUMP JUMPDEST PUSH1 0x40 MLOAD DUP1 SWAP2 SUB SWAP1 RETURN JUMPDEST CALLVALUE DUP1 ISZERO PUSH2 0x41F JUMPI PUSH0 DUP1 REVERT JUMPDEST POP PUSH2 0x43A PUSH1 0x4 DUP1 CALLDATASIZE SUB DUP2 ADD SWAP1 PUSH2 0x435 SWAP2 SWAP1 PUSH2 0x20F3 JUMP JUMPDEST PUSH2 0x135A JUMP JUMPDEST PUSH1 0x40 MLOAD PUSH2 0x447 SWAP2 SWAP1 PUSH2 0x1D8B JUMP JUMPDEST PUSH1 0x40 MLOAD DUP1 SWAP2 SUB SWAP1 RETURN JUMPDEST CALLVALUE DUP1 ISZERO PUSH2 0x45B JUMPI PUSH0 DUP1 REVERT JUMPDEST POP PUSH2 0x476 PUSH1 0x4 DUP1 CALLDATASIZE SUB DUP2 ADD SWAP1 PUSH2 0x471 SWAP2 SWAP1 PUSH2 0x1DFE JUMP JUMPDEST PUSH2 0x1448 JUMP JUMPDEST PUSH1 0x40 MLOAD PUSH2 0x483 SWAP2 SWAP1 PUSH2 0x1D8B JUMP JUMPDEST PUSH1 0x40 MLOAD DUP1 SWAP2 SUB SWAP1 RETURN JUMPDEST CALLVALUE DUP1 ISZERO PUSH2 0x497 JUMPI PUSH0 DUP1 REVERT JUMPDEST POP PUSH2 0x4A0 PUSH2 0x145D JUMP JUMPDEST PUSH1 0x40 MLOAD PUSH2 0x4AD SWAP2 SWAP1 PUSH2 0x20DA JUMP JUMPDEST PUSH1 0x40 MLOAD DUP1 SWAP2 SUB SWAP1 RETURN JUMPDEST CALLVALUE DUP1 ISZERO PUSH2 0x4C1 JUMPI PUSH0 DUP1 REVERT JUMPDEST POP PUSH2 0x4DC PUSH1 0x4 DUP1 CALLDATASIZE SUB DUP2 ADD SWAP1 PUSH2 0x4D7 SWAP2 SWAP1 PUSH2 0x1D51 JUMP JUMPDEST PUSH2 0x1482 JUMP JUMPDEST STOP JUMPDEST PUSH2 0x4F8 PUSH1 0x4 DUP1 CALLDATASIZE SUB DUP2 ADD SWAP1 PUSH2 0x4F3 SWAP2 SWAP1 PUSH2 0x2131 JUMP JUMPDEST PUSH2 0x1527 JUMP JUMPDEST STOP JUMPDEST CALLVALUE DUP1 ISZERO PUSH2 0x505 JUMPI PUSH0 DUP1 REVERT JUMPDEST POP PUSH2 0x520 PUSH1 0x4 DUP1 CALLDATASIZE SUB DUP2 ADD SWAP1 PUSH2 0x51B SWAP2 SWAP1 PUSH2 0x1D51 JUMP JUMPDEST PUSH2 0x168C JUMP JUMPDEST PUSH1 0x40 MLOAD PUSH2 0x52E SWAP3 SWAP2 SWAP1 PUSH2 0x234A JUMP JUMPDEST PUSH1 0x40 MLOAD DUP1 SWAP2 SUB SWAP1 RETURN JUMPDEST CALLVALUE DUP1 ISZERO PUSH2 0x542 JUMPI PUSH0 DUP1 REVERT JUMPDEST POP PUSH2 0x55D PUSH1 0x4 DUP1 CALLDATASIZE SUB DUP2 ADD SWAP1 PUSH2 0x558 SWAP2 SWAP1 PUSH2 0x1D51 JUMP JUMPDEST PUSH2 0x187D JUMP JUMPDEST STOP JUMPDEST CALLVALUE DUP1 ISZERO PUSH2 0x56A JUMPI PUSH0 DUP1 REVERT JUMPDEST POP PUSH2 0x585 PUSH1 0x4 DUP1 CALLDATASIZE SUB DUP2 ADD SWAP1 PUSH2 0x580 SWAP2 SWAP1 PUSH2 0x1DFE JUMP JUMPDEST PUSH2 0x188F JUMP JUMPDEST STOP JUMPDEST CALLVALUE DUP1 ISZERO PUSH2 0x592 JUMPI PUSH0 DUP1 REVERT JUMPDEST POP PUSH2 0x5AD PUSH1 0x4 DUP1 CALLDATASIZE SUB DUP2 ADD SWAP1 PUSH2 0x5A8 SWAP2 SWAP1 PUSH2 0x1DFE JUMP JUMPDEST PUSH2 0x1A6C JUMP JUMPDEST STOP JUMPDEST CALLVALUE DUP1 ISZERO PUSH2 0x5BA JUMPI PUSH0 DUP1 REVERT JUMPDEST POP PUSH2 0x5C3 PUSH2 0x1AF0 JUMP JUMPDEST PUSH1 0x40 MLOAD PUSH2 0x5D0 SWAP2 SWAP1 PUSH2 0x1D8B JUMP JUMPDEST PUSH1 0x40 MLOAD DUP1 SWAP2 SUB SWAP1 RETURN JUMPDEST CALLVALUE DUP1 ISZERO PUSH2 0x5E4 JUMPI PUSH0 DUP1 REVERT JUMPDEST POP PUSH2 0x5ED PUSH2 0x1B40 JUMP JUMPDEST PUSH1 0x40 MLOAD PUSH2 0x5FA SWAP2 SWAP1 PUSH2 0x1D8B JUMP JUMPDEST PUSH1 0x40 MLOAD DUP1 SWAP2 SUB SWAP1 RETURN JUMPDEST PUSH1 0x1 SLOAD TIMESTAMP LT ISZERO DUP1 ISZERO PUSH2 0x617 JUMPI POP PUSH1 0x2 SLOAD TIMESTAMP GT ISZERO JUMPDEST PUSH2 0x656 JUMPI PUSH1 0x40 MLOAD PUSH32 0x8C379A000000000000000000000000000000000000000000000000000000000 DUP2 MSTORE PUSH1 0x4 ADD PUSH2 0x64D SWAP1 PUSH2 0x23C9 JUMP JUMPDEST PUSH1 0x40 MLOAD DUP1 SWAP2 SUB SWAP1 REVERT JUMPDEST DUP1 PUSH1 0x3 SLOAD LT ISZERO PUSH2 0x69B JUMPI PUSH1 0x40 MLOAD PUSH32 0x8C379A000000000000000000000000000000000000000000000000000000000 DUP2 MSTORE PUSH1 0x4 ADD PUSH2 0x692 SWAP1 PUSH2 0x2431 JUMP JUMPDEST PUSH1 0x40 MLOAD DUP1 SWAP2 SUB SWAP1 REVERT JUMPDEST PUSH0 PUSH1 0x4 PUSH0 SWAP1 SLOAD SWAP1 PUSH2 0x100 EXP SWAP1 DIV PUSH20 0xFFFFFFFFFFFFFFFFFFFFFFFFFFFFFFFFFFFFFFFF AND PUSH20 0xFFFFFFFFFFFFFFFFFFFFFFFFFFFFFFFFFFFFFFFF AND PUSH4 0x70A08231 CALLER PUSH1 0x40 MLOAD DUP3 PUSH4 0xFFFFFFFF AND PUSH1 0xE0 SHL DUP2 MSTORE PUSH1 0x4 ADD PUSH2 0x6F6 SWAP2 SWAP1 PUSH2 0x20DA JUMP JUMPDEST PUSH1 0x20 PUSH1 0x40 MLOAD DUP1 DUP4 SUB DUP2 DUP7 GAS STATICCALL ISZERO DUP1 ISZERO PUSH2 0x711 JUMPI RETURNDATASIZE PUSH0 DUP1 RETURNDATACOPY RETURNDATASIZE PUSH0 REVERT JUMPDEST POP POP POP POP PUSH1 0x40 MLOAD RETURNDATASIZE PUSH1 0x1F NOT PUSH1 0x1F DUP3 ADD AND DUP3 ADD DUP1 PUSH1 0x40 MSTORE POP DUP2 ADD SWAP1 PUSH2 0x735 SWAP2 SWAP1 PUSH2 0x2463 JUMP JUMPDEST GT PUSH2 0x775 JUMPI PUSH1 0x40 MLOAD PUSH32 0x8C379A000000000000000000000000000000000000000000000000000000000 DUP2 MSTORE PUSH1 0x4 ADD PUSH2 0x76C SWAP1 PUSH2 0x24D8 JUMP JUMPDEST PUSH1 0x40 MLOAD DUP1 SWAP2 SUB SWAP1 REVERT JUMPDEST PUSH0 PUSH1 0x9 PUSH0 DUP4 DUP2 MSTORE PUSH1 0x20 ADD SWAP1 DUP2 MSTORE PUSH1 0x20 ADD PUSH0 KECCAK256 SWAP1 POP PUSH1 0x4 PUSH0 SWAP1 SLOAD SWAP1 PUSH2 0x100 EXP SWAP1 DIV PUSH20 0xFFFFFFFFFFFFFFFFFFFFFFFFFFFFFFFFFFFFFFFF AND PUSH20 0xFFFFFFFFFFFFFFFFFFFFFFFFFFFFFFFFFFFFFFFF AND PUSH4 0x70A08231 CALLER PUSH1 0x40 MLOAD DUP3 PUSH4 0xFFFFFFFF AND PUSH1 0xE0 SHL DUP2 MSTORE PUSH1 0x4 ADD PUSH2 0x7E3 SWAP2 SWAP1 PUSH2 0x20DA JUMP JUMPDEST PUSH1 0x20 PUSH1 0x40 MLOAD DUP1 DUP4 SUB DUP2 DUP7 GAS STATICCALL ISZERO DUP1 ISZERO PUSH2 0x7FE JUMPI RETURNDATASIZE PUSH0 DUP1 RETURNDATACOPY RETURNDATASIZE PUSH0 REVERT JUMPDEST POP POP POP POP PUSH1 0x40 MLOAD RETURNDATASIZE PUSH1 0x1F NOT PUSH1 0x1F DUP3 ADD AND DUP3 ADD DUP1 PUSH1 0x40 MSTORE POP DUP2 ADD SWAP1 PUSH2 0x822 SWAP2 SWAP1 PUSH2 0x2463 JUMP JUMPDEST PUSH1 0x5 PUSH0 CALLER PUSH20 0xFFFFFFFFFFFFFFFFFFFFFFFFFFFFFFFFFFFFFFFF AND PUSH20 0xFFFFFFFFFFFFFFFFFFFFFFFFFFFFFFFFFFFFFFFF AND DUP2 MSTORE PUSH1 0x20 ADD SWAP1 DUP2 MSTORE PUSH1 0x20 ADD PUSH0 KECCAK256 SLOAD LT PUSH2 0x8A0 JUMPI PUSH1 0x40 MLOAD PUSH32 0x8C379A000000000000000000000000000000000000000000000000000000000 DUP2 MSTORE PUSH1 0x4 ADD PUSH2 0x897 SWAP1 PUSH2 0x2540 JUMP JUMPDEST PUSH1 0x40 MLOAD DUP1 SWAP2 SUB SWAP1 REVERT JUMPDEST PUSH0 JUMPDEST PUSH1 0x7 SLOAD DUP2 GT PUSH2 0xA62 JUMPI CALLER PUSH20 0xFFFFFFFFFFFFFFFFFFFFFFFFFFFFFFFFFFFFFFFF AND PUSH1 0x4 PUSH0 SWAP1 SLOAD SWAP1 PUSH2 0x100 EXP SWAP1 DIV PUSH20 0xFFFFFFFFFFFFFFFFFFFFFFFFFFFFFFFFFFFFFFFF AND PUSH20 0xFFFFFFFFFFFFFFFFFFFFFFFFFFFFFFFFFFFFFFFF AND PUSH4 0x6352211E DUP4 PUSH1 0x40 MLOAD DUP3 PUSH4 0xFFFFFFFF AND PUSH1 0xE0 SHL DUP2 MSTORE PUSH1 0x4 ADD PUSH2 0x91C SWAP2 SWAP1 PUSH2 0x1D8B JUMP JUMPDEST PUSH1 0x20 PUSH1 0x40 MLOAD DUP1 DUP4 SUB DUP2 DUP7 GAS STATICCALL ISZERO DUP1 ISZERO PUSH2 0x937 JUMPI RETURNDATASIZE PUSH0 DUP1 RETURNDATACOPY RETURNDATASIZE PUSH0 REVERT JUMPDEST POP POP POP POP PUSH1 0x40 MLOAD RETURNDATASIZE PUSH1 0x1F NOT PUSH1 0x1F DUP3 ADD AND DUP3 ADD DUP1 PUSH1 0x40 MSTORE POP DUP2 ADD SWAP1 PUSH2 0x95B SWAP2 SWAP1 PUSH2 0x2572 JUMP JUMPDEST PUSH20 0xFFFFFFFFFFFFFFFFFFFFFFFFFFFFFFFFFFFFFFFF AND SUB PUSH2 0xA4F JUMPI PUSH0 ISZERO ISZERO PUSH1 0x8 PUSH0 DUP4 DUP2 MSTORE PUSH1 0x20 ADD SWAP1 DUP2 MSTORE PUSH1 0x20 ADD PUSH0 KECCAK256 PUSH0 SWAP1 SLOAD SWAP1 PUSH2 0x100 EXP SWAP1 DIV PUSH1 0xFF AND ISZERO ISZERO SUB PUSH2 0xA4E JUMPI PUSH1 0x5 PUSH0 CALLER PUSH20 0xFFFFFFFFFFFFFFFFFFFFFFFFFFFFFFFFFFFFFFFF AND PUSH20 0xFFFFFFFFFFFFFFFFFFFFFFFFFFFFFFFFFFFFFFFF AND DUP2 MSTORE PUSH1 0x20 ADD SWAP1 DUP2 MSTORE PUSH1 0x20 ADD PUSH0 KECCAK256 PUSH0 DUP2 SLOAD DUP1 SWAP3 SWAP2 SWAP1 PUSH2 0x9EB SWAP1 PUSH2 0x25CA JUMP JUMPDEST SWAP2 SWAP1 POP SSTORE POP DUP2 PUSH1 0x4 ADD PUSH0 DUP2 SLOAD DUP1 SWAP3 SWAP2 SWAP1 PUSH2 0xA04 SWAP1 PUSH2 0x25CA JUMP JUMPDEST SWAP2 SWAP1 POP SSTORE POP PUSH1 0x6 PUSH0 DUP2 SLOAD DUP1 SWAP3 SWAP2 SWAP1 PUSH2 0xA1B SWAP1 PUSH2 0x25CA JUMP JUMPDEST SWAP2 SWAP1 POP SSTORE POP PUSH1 0x1 PUSH1 0x8 PUSH0 DUP4 DUP2 MSTORE PUSH1 0x20 ADD SWAP1 DUP2 MSTORE PUSH1 0x20 ADD PUSH0 KECCAK256 PUSH0 PUSH2 0x100 EXP DUP2 SLOAD DUP2 PUSH1 0xFF MUL NOT AND SWAP1 DUP4 ISZERO ISZERO MUL OR SWAP1 SSTORE POP PUSH2 0xA62 JUMP JUMPDEST JUMPDEST DUP1 DUP1 PUSH2 0xA5A SWAP1 PUSH2 0x25CA JUMP JUMPDEST SWAP2 POP POP PUSH2 0x8A2 JUMP JUMPDEST POP POP POP JUMP JUMPDEST PUSH1 0x2 SLOAD DUP2 JUMP JUMPDEST PUSH2 0xA75 PUSH2 0x1B46 JUMP JUMPDEST DUP1 PUSH1 0x4 PUSH0 PUSH2 0x100 EXP DUP2 SLOAD DUP2 PUSH20 0xFFFFFFFFFFFFFFFFFFFFFFFFFFFFFFFFFFFFFFFF MUL NOT AND SWAP1 DUP4 PUSH20 0xFFFFFFFFFFFFFFFFFFFFFFFFFFFFFFFFFFFFFFFF AND MUL OR SWAP1 SSTORE POP POP JUMP JUMPDEST PUSH1 0x6 SLOAD DUP2 JUMP JUMPDEST PUSH1 0x9 PUSH1 0x20 MSTORE DUP1 PUSH0 MSTORE PUSH1 0x40 PUSH0 KECCAK256 PUSH0 SWAP2 POP SWAP1 POP DUP1 PUSH0 ADD DUP1 SLOAD PUSH2 0xADD SWAP1 PUSH2 0x263E JUMP JUMPDEST DUP1 PUSH1 0x1F ADD PUSH1 0x20 DUP1 SWAP2 DIV MUL PUSH1 0x20 ADD PUSH1 0x40 MLOAD SWAP1 DUP2 ADD PUSH1 0x40 MSTORE DUP1 SWAP3 SWAP2 SWAP1 DUP2 DUP2 MSTORE PUSH1 0x20 ADD DUP3 DUP1 SLOAD PUSH2 0xB09 SWAP1 PUSH2 0x263E JUMP JUMPDEST DUP1 ISZERO PUSH2 0xB54 JUMPI DUP1 PUSH1 0x1F LT PUSH2 0xB2B JUMPI PUSH2 0x100 DUP1 DUP4 SLOAD DIV MUL DUP4 MSTORE SWAP2 PUSH1 0x20 ADD SWAP2 PUSH2 0xB54 JUMP JUMPDEST DUP3 ADD SWAP2 SWAP1 PUSH0 MSTORE PUSH1 0x20 PUSH0 KECCAK256 SWAP1 JUMPDEST DUP2 SLOAD DUP2 MSTORE SWAP1 PUSH1 0x1 ADD SWAP1 PUSH1 0x20 ADD DUP1 DUP4 GT PUSH2 0xB37 JUMPI DUP3 SWAP1 SUB PUSH1 0x1F AND DUP3 ADD SWAP2 JUMPDEST POP POP POP POP POP SWAP1 DUP1 PUSH1 0x1 ADD PUSH0 SWAP1 SLOAD SWAP1 PUSH2 0x100 EXP SWAP1 DIV PUSH20 0xFFFFFFFFFFFFFFFFFFFFFFFFFFFFFFFFFFFFFFFF AND SWAP1 DUP1 PUSH1 0x4 ADD SLOAD SWAP1 POP DUP4 JUMP JUMPDEST PUSH2 0xB91 PUSH2 0x1B46 JUMP JUMPDEST PUSH1 0x1 SLOAD TIMESTAMP GT ISZERO PUSH2 0xBD6 JUMPI PUSH1 0x40 MLOAD PUSH32 0x8C379A000000000000000000000000000000000000000000000000000000000 DUP2 MSTORE PUSH1 0x4 ADD PUSH2 0xBCD SWAP1 PUSH2 0x23C9 JUMP JUMPDEST PUSH1 0x40 MLOAD DUP1 SWAP2 SUB SWAP1 REVERT JUMPDEST PUSH1 0x3 PUSH0 DUP2 SLOAD DUP1 SWAP3 SWAP2 SWAP1 PUSH2 0xBE8 SWAP1 PUSH2 0x25CA JUMP JUMPDEST SWAP2 SWAP1 POP SSTORE POP PUSH0 PUSH1 0x9 PUSH0 PUSH1 0x3 SLOAD DUP2 MSTORE PUSH1 0x20 ADD SWAP1 DUP2 MSTORE PUSH1 0x20 ADD PUSH0 KECCAK256 SWAP1 POP DUP2 DUP2 PUSH0 ADD SWAP1 DUP2 PUSH2 0xC13 SWAP2 SWAP1 PUSH2 0x280B JUMP JUMPDEST POP CALLER DUP2 PUSH1 0x1 ADD PUSH0 PUSH2 0x100 EXP DUP2 SLOAD DUP2 PUSH20 0xFFFFFFFFFFFFFFFFFFFFFFFFFFFFFFFFFFFFFFFF MUL NOT AND SWAP1 DUP4 PUSH20 0xFFFFFFFFFFFFFFFFFFFFFFFFFFFFFFFFFFFFFFFF AND MUL OR SWAP1 SSTORE POP PUSH0 DUP2 PUSH1 0x4 ADD DUP2 SWAP1 SSTORE POP POP POP JUMP JUMPDEST PUSH1 0x1 SLOAD TIMESTAMP GT ISZERO PUSH2 0xCA8 JUMPI PUSH1 0x40 MLOAD PUSH32 0x8C379A000000000000000000000000000000000000000000000000000000000 DUP2 MSTORE PUSH1 0x4 ADD PUSH2 0xC9F SWAP1 PUSH2 0x23C9 JUMP JUMPDEST PUSH1 0x40 MLOAD DUP1 SWAP2 SUB SWAP1 REVERT JUMPDEST PUSH0 DUP2 GT PUSH2 0xCEA JUMPI PUSH1 0x40 MLOAD PUSH32 0x8C379A000000000000000000000000000000000000000000000000000000000 DUP2 MSTORE PUSH1 0x4 ADD PUSH2 0xCE1 SWAP1 PUSH2 0x2924 JUMP JUMPDEST PUSH1 0x40 MLOAD DUP1 SWAP2 SUB SWAP1 REVERT JUMPDEST DUP1 DUP3 PUSH20 0xFFFFFFFFFFFFFFFFFFFFFFFFFFFFFFFFFFFFFFFF AND PUSH4 0x70A08231 CALLER PUSH1 0x40 MLOAD DUP3 PUSH4 0xFFFFFFFF AND PUSH1 0xE0 SHL DUP2 MSTORE PUSH1 0x4 ADD PUSH2 0xD24 SWAP2 SWAP1 PUSH2 0x20DA JUMP JUMPDEST PUSH1 0x20 PUSH1 0x40 MLOAD DUP1 DUP4 SUB DUP2 DUP7 GAS STATICCALL ISZERO DUP1 ISZERO PUSH2 0xD3F JUMPI RETURNDATASIZE PUSH0 DUP1 RETURNDATACOPY RETURNDATASIZE PUSH0 REVERT JUMPDEST POP POP POP POP PUSH1 0x40 MLOAD RETURNDATASIZE PUSH1 0x1F NOT PUSH1 0x1F DUP3 ADD AND DUP3 ADD DUP1 PUSH1 0x40 MSTORE POP DUP2 ADD SWAP1 PUSH2 0xD63 SWAP2 SWAP1 PUSH2 0x2463 JUMP JUMPDEST LT ISZERO PUSH2 0xDA4 JUMPI PUSH1 0x40 MLOAD PUSH32 0x8C379A000000000000000000000000000000000000000000000000000000000 DUP2 MSTORE PUSH1 0x4 ADD PUSH2 0xD9B SWAP1 PUSH2 0x298C JUMP JUMPDEST PUSH1 0x40 MLOAD DUP1 SWAP2 SUB SWAP1 REVERT JUMPDEST DUP2 PUSH20 0xFFFFFFFFFFFFFFFFFFFFFFFFFFFFFFFFFFFFFFFF AND PUSH4 0x23B872DD CALLER ADDRESS DUP5 PUSH1 0x40 MLOAD DUP5 PUSH4 0xFFFFFFFF AND PUSH1 0xE0 SHL DUP2 MSTORE PUSH1 0x4 ADD PUSH2 0xDE1 SWAP4 SWAP3 SWAP2 SWAP1 PUSH2 0x29AA JUMP JUMPDEST PUSH1 0x20 PUSH1 0x40 MLOAD DUP1 DUP4 SUB DUP2 PUSH0 DUP8 GAS CALL ISZERO DUP1 ISZERO PUSH2 0xDFD JUMPI RETURNDATASIZE PUSH0 DUP1 RETURNDATACOPY RETURNDATASIZE PUSH0 REVERT JUMPDEST POP POP POP POP PUSH1 0x40 MLOAD RETURNDATASIZE PUSH1 0x1F NOT PUSH1 0x1F DUP3 ADD AND DUP3 ADD DUP1 PUSH1 0x40 MSTORE POP DUP2 ADD SWAP1 PUSH2 0xE21 SWAP2 SWAP1 PUSH2 0x2A09 JUMP JUMPDEST PUSH2 0xE60 JUMPI PUSH1 0x40 MLOAD PUSH32 0x8C379A000000000000000000000000000000000000000000000000000000000 DUP2 MSTORE PUSH1 0x4 ADD PUSH2 0xE57 SWAP1 PUSH2 0x2A7E JUMP JUMPDEST PUSH1 0x40 MLOAD DUP1 SWAP2 SUB SWAP1 REVERT JUMPDEST PUSH0 PUSH1 0x9 PUSH0 DUP6 DUP2 MSTORE PUSH1 0x20 ADD SWAP1 DUP2 MSTORE PUSH1 0x20 ADD PUSH0 KECCAK256 SWAP1 POP PUSH2 0xE7C PUSH2 0x1C95 JUMP JUMPDEST CALLER DUP2 PUSH0 ADD SWAP1 PUSH20 0xFFFFFFFFFFFFFFFFFFFFFFFFFFFFFFFFFFFFFFFF AND SWAP1 DUP2 PUSH20 0xFFFFFFFFFFFFFFFFFFFFFFFFFFFFFFFFFFFFFFFF AND DUP2 MSTORE POP POP DUP4 DUP2 PUSH1 0x20 ADD SWAP1 PUSH20 0xFFFFFFFFFFFFFFFFFFFFFFFFFFFFFFFFFFFFFFFF AND SWAP1 DUP2 PUSH20 0xFFFFFFFFFFFFFFFFFFFFFFFFFFFFFFFFFFFFFFFF AND DUP2 MSTORE POP POP DUP3 DUP2 PUSH1 0x40 ADD DUP2 DUP2 MSTORE POP POP DUP2 PUSH1 0x2 ADD DUP2 SWAP1 DUP1 PUSH1 0x1 DUP2 SLOAD ADD DUP1 DUP3 SSTORE DUP1 SWAP2 POP POP PUSH1 0x1 SWAP1 SUB SWAP1 PUSH0 MSTORE PUSH1 0x20 PUSH0 KECCAK256 SWAP1 PUSH1 0x3 MUL ADD PUSH0 SWAP1 SWAP2 SWAP1 SWAP2 SWAP1 SWAP2 POP PUSH0 DUP3 ADD MLOAD DUP2 PUSH0 ADD PUSH0 PUSH2 0x100 EXP DUP2 SLOAD DUP2 PUSH20 0xFFFFFFFFFFFFFFFFFFFFFFFFFFFFFFFFFFFFFFFF MUL NOT AND SWAP1 DUP4 PUSH20 0xFFFFFFFFFFFFFFFFFFFFFFFFFFFFFFFFFFFFFFFF AND MUL OR SWAP1 SSTORE POP PUSH1 0x20 DUP3 ADD MLOAD DUP2 PUSH1 0x1 ADD PUSH0 PUSH2 0x100 EXP DUP2 SLOAD DUP2 PUSH20 0xFFFFFFFFFFFFFFFFFFFFFFFFFFFFFFFFFFFFFFFF MUL NOT AND SWAP1 DUP4 PUSH20 0xFFFFFFFFFFFFFFFFFFFFFFFFFFFFFFFFFFFFFFFF AND MUL OR SWAP1 SSTORE POP PUSH1 0x40 DUP3 ADD MLOAD DUP2 PUSH1 0x2 ADD SSTORE POP POP POP POP POP POP POP JUMP JUMPDEST PUSH1 0x3 SLOAD DUP2 JUMP JUMPDEST PUSH1 0x2 SLOAD TIMESTAMP LT ISZERO PUSH2 0x1008 JUMPI PUSH1 0x40 MLOAD PUSH32 0x8C379A000000000000000000000000000000000000000000000000000000000 DUP2 MSTORE PUSH1 0x4 ADD PUSH2 0xFFF SWAP1 PUSH2 0x23C9 JUMP JUMPDEST PUSH1 0x40 MLOAD DUP1 SWAP2 SUB SWAP1 REVERT JUMPDEST PUSH2 0x1010 PUSH2 0x1AF0 JUMP JUMPDEST DUP2 SUB PUSH2 0x1051 JUMPI PUSH1 0x40 MLOAD PUSH32 0x8C379A000000000000000000000000000000000000000000000000000000000 DUP2 MSTORE PUSH1 0x4 ADD PUSH2 0x1048 SWAP1 PUSH2 0x2AE6 JUMP JUMPDEST PUSH1 0x40 MLOAD DUP1 SWAP2 SUB SWAP1 REVERT JUMPDEST PUSH0 PUSH1 0x9 PUSH0 DUP4 DUP2 MSTORE PUSH1 0x20 ADD SWAP1 DUP2 MSTORE PUSH1 0x20 ADD PUSH0 KECCAK256 SWAP1 POP PUSH0 JUMPDEST DUP2 PUSH1 0x2 ADD DUP1 SLOAD SWAP1 POP DUP2 LT ISZERO PUSH2 0x1247 JUMPI CALLER PUSH20 0xFFFFFFFFFFFFFFFFFFFFFFFFFFFFFFFFFFFFFFFF AND DUP3 PUSH1 0x2 ADD DUP3 DUP2 SLOAD DUP2 LT PUSH2 0x10A3 JUMPI PUSH2 0x10A2 PUSH2 0x2B04 JUMP JUMPDEST JUMPDEST SWAP1 PUSH0 MSTORE PUSH1 0x20 PUSH0 KECCAK256 SWAP1 PUSH1 0x3 MUL ADD PUSH0 ADD PUSH0 SWAP1 SLOAD SWAP1 PUSH2 0x100 EXP SWAP1 DIV PUSH20 0xFFFFFFFFFFFFFFFFFFFFFFFFFFFFFFFFFFFFFFFF AND PUSH20 0xFFFFFFFFFFFFFFFFFFFFFFFFFFFFFFFFFFFFFFFF AND SUB PUSH2 0x123A JUMPI DUP2 PUSH1 0x2 ADD DUP2 DUP2 SLOAD DUP2 LT PUSH2 0x1102 JUMPI PUSH2 0x1101 PUSH2 0x2B04 JUMP JUMPDEST JUMPDEST SWAP1 PUSH0 MSTORE PUSH1 0x20 PUSH0 KECCAK256 SWAP1 PUSH1 0x3 MUL ADD PUSH1 0x1 ADD PUSH0 SWAP1 SLOAD SWAP1 PUSH2 0x100 EXP SWAP1 DIV PUSH20 0xFFFFFFFFFFFFFFFFFFFFFFFFFFFFFFFFFFFFFFFF AND PUSH20 0xFFFFFFFFFFFFFFFFFFFFFFFFFFFFFFFFFFFFFFFF AND PUSH4 0xA9059CBB CALLER DUP5 PUSH1 0x2 ADD DUP5 DUP2 SLOAD DUP2 LT PUSH2 0x1163 JUMPI PUSH2 0x1162 PUSH2 0x2B04 JUMP JUMPDEST JUMPDEST SWAP1 PUSH0 MSTORE PUSH1 0x20 PUSH0 KECCAK256 SWAP1 PUSH1 0x3 MUL ADD PUSH1 0x2 ADD SLOAD PUSH1 0x40 MLOAD DUP4 PUSH4 0xFFFFFFFF AND PUSH1 0xE0 SHL DUP2 MSTORE PUSH1 0x4 ADD PUSH2 0x1190 SWAP3 SWAP2 SWAP1 PUSH2 0x2B31 JUMP JUMPDEST PUSH1 0x20 PUSH1 0x40 MLOAD DUP1 DUP4 SUB DUP2 PUSH0 DUP8 GAS CALL ISZERO DUP1 ISZERO PUSH2 0x11AC JUMPI RETURNDATASIZE PUSH0 DUP1 RETURNDATACOPY RETURNDATASIZE PUSH0 REVERT JUMPDEST POP POP POP POP PUSH1 0x40 MLOAD RETURNDATASIZE PUSH1 0x1F NOT PUSH1 0x1F DUP3 ADD AND DUP3 ADD DUP1 PUSH1 0x40 MSTORE POP DUP2 ADD SWAP1 PUSH2 0x11D0 SWAP2 SWAP1 PUSH2 0x2A09 JUMP JUMPDEST PUSH2 0x120F JUMPI PUSH1 0x40 MLOAD PUSH32 0x8C379A000000000000000000000000000000000000000000000000000000000 DUP2 MSTORE PUSH1 0x4 ADD PUSH2 0x1206 SWAP1 PUSH2 0x2A7E JUMP JUMPDEST PUSH1 0x40 MLOAD DUP1 SWAP2 SUB SWAP1 REVERT JUMPDEST PUSH0 DUP3 PUSH1 0x2 ADD DUP3 DUP2 SLOAD DUP2 LT PUSH2 0x1226 JUMPI PUSH2 0x1225 PUSH2 0x2B04 JUMP JUMPDEST JUMPDEST SWAP1 PUSH0 MSTORE PUSH1 0x20 PUSH0 KECCAK256 SWAP1 PUSH1 0x3 MUL ADD PUSH1 0x2 ADD DUP2 SWAP1 SSTORE POP JUMPDEST DUP1 DUP1 PUSH1 0x1 ADD SWAP2 POP POP PUSH2 0x1067 JUMP JUMPDEST POP POP POP JUMP JUMPDEST PUSH1 0x8 PUSH1 0x20 MSTORE DUP1 PUSH0 MSTORE PUSH1 0x40 PUSH0 KECCAK256 PUSH0 SWAP2 POP SLOAD SWAP1 PUSH2 0x100 EXP SWAP1 DIV PUSH1 0xFF AND DUP2 JUMP JUMPDEST PUSH1 0x1 SLOAD DUP2 JUMP JUMPDEST PUSH0 PUSH1 0x1 SLOAD TIMESTAMP GT PUSH2 0x1281 JUMPI PUSH0 SWAP1 POP PUSH2 0x12A8 JUMP JUMPDEST PUSH1 0x1 SLOAD TIMESTAMP LT ISZERO DUP1 ISZERO PUSH2 0x1295 JUMPI POP PUSH1 0x2 SLOAD TIMESTAMP GT ISZERO JUMPDEST ISZERO PUSH2 0x12A3 JUMPI PUSH1 0x1 SWAP1 POP PUSH2 0x12A8 JUMP JUMPDEST PUSH1 0x2 SWAP1 POP JUMPDEST SWAP1 JUMP JUMPDEST PUSH0 DUP1 PUSH0 SWAP1 POP PUSH0 PUSH1 0x9 PUSH0 DUP6 DUP2 MSTORE PUSH1 0x20 ADD SWAP1 DUP2 MSTORE PUSH1 0x20 ADD PUSH0 KECCAK256 SWAP1 POP PUSH0 JUMPDEST DUP2 PUSH1 0x3 ADD DUP1 SLOAD SWAP1 POP DUP2 LT ISZERO PUSH2 0x1315 JUMPI DUP2 PUSH1 0x3 ADD DUP2 DUP2 SLOAD DUP2 LT PUSH2 0x12EB JUMPI PUSH2 0x12EA PUSH2 0x2B04 JUMP JUMPDEST JUMPDEST SWAP1 PUSH0 MSTORE PUSH1 0x20 PUSH0 KECCAK256 SWAP1 PUSH1 0x2 MUL ADD PUSH1 0x1 ADD SLOAD DUP4 PUSH2 0x1306 SWAP2 SWAP1 PUSH2 0x2B58 JUMP JUMPDEST SWAP3 POP DUP1 DUP1 PUSH1 0x1 ADD SWAP2 POP POP PUSH2 0x12C6 JUMP JUMPDEST POP DUP2 SWAP3 POP POP POP SWAP2 SWAP1 POP JUMP JUMPDEST PUSH2 0x1328 PUSH2 0x1B46 JUMP JUMPDEST PUSH2 0x1331 PUSH0 PUSH2 0x1BCD JUMP JUMPDEST JUMP JUMPDEST PUSH0 DUP1 PUSH0 SWAP1 SLOAD SWAP1 PUSH2 0x100 EXP SWAP1 DIV PUSH20 0xFFFFFFFFFFFFFFFFFFFFFFFFFFFFFFFFFFFFFFFF AND SWAP1 POP SWAP1 JUMP JUMPDEST PUSH0 DUP1 PUSH0 SWAP1 POP PUSH0 PUSH1 0x9 PUSH0 DUP7 DUP2 MSTORE PUSH1 0x20 ADD SWAP1 DUP2 MSTORE PUSH1 0x20 ADD PUSH0 KECCAK256 SWAP1 POP PUSH0 JUMPDEST DUP2 PUSH1 0x2 ADD DUP1 SLOAD SWAP1 POP DUP2 LT ISZERO PUSH2 0x143C JUMPI DUP5 PUSH20 0xFFFFFFFFFFFFFFFFFFFFFFFFFFFFFFFFFFFFFFFF AND DUP3 PUSH1 0x2 ADD DUP3 DUP2 SLOAD DUP2 LT PUSH2 0x13B1 JUMPI PUSH2 0x13B0 PUSH2 0x2B04 JUMP JUMPDEST JUMPDEST SWAP1 PUSH0 MSTORE PUSH1 0x20 PUSH0 KECCAK256 SWAP1 PUSH1 0x3 MUL ADD PUSH1 0x1 ADD PUSH0 SWAP1 SLOAD SWAP1 PUSH2 0x100 EXP SWAP1 DIV PUSH20 0xFFFFFFFFFFFFFFFFFFFFFFFFFFFFFFFFFFFFFFFF AND PUSH20 0xFFFFFFFFFFFFFFFFFFFFFFFFFFFFFFFFFFFFFFFF AND SUB PUSH2 0x142F JUMPI DUP2 PUSH1 0x2 ADD DUP2 DUP2 SLOAD DUP2 LT PUSH2 0x1411 JUMPI PUSH2 0x1410 PUSH2 0x2B04 JUMP JUMPDEST JUMPDEST SWAP1 PUSH0 MSTORE PUSH1 0x20 PUSH0 KECCAK256 SWAP1 PUSH1 0x3 MUL ADD PUSH1 0x2 ADD SLOAD DUP4 PUSH2 0x142C SWAP2 SWAP1 PUSH2 0x2B58 JUMP JUMPDEST SWAP3 POP JUMPDEST DUP1 DUP1 PUSH1 0x1 ADD SWAP2 POP POP PUSH2 0x1375 JUMP JUMPDEST POP DUP2 SWAP3 POP POP POP SWAP3 SWAP2 POP POP JUMP JUMPDEST PUSH1 0x5 PUSH1 0x20 MSTORE DUP1 PUSH0 MSTORE PUSH1 0x40 PUSH0 KECCAK256 PUSH0 SWAP2 POP SWAP1 POP SLOAD DUP2 JUMP JUMPDEST PUSH1 0x4 PUSH0 SWAP1 SLOAD SWAP1 PUSH2 0x100 EXP SWAP1 DIV PUSH20 0xFFFFFFFFFFFFFFFFFFFFFFFFFFFFFFFFFFFFFFFF AND DUP2 JUMP JUMPDEST PUSH2 0x148A PUSH2 0x1B46 JUMP JUMPDEST PUSH0 DUP2 SUB PUSH2 0x14BC JUMPI PUSH0 PUSH1 0x4 PUSH1 0x14 PUSH2 0x100 EXP DUP2 SLOAD DUP2 PUSH1 0xFF MUL NOT AND SWAP1 DUP4 PUSH1 0x2 DUP2 GT ISZERO PUSH2 0x14B6 JUMPI PUSH2 0x14B5 PUSH2 0x2B8B JUMP JUMPDEST JUMPDEST MUL OR SWAP1 SSTORE POP JUMPDEST PUSH1 0x1 DUP2 SUB PUSH2 0x14F0 JUMPI PUSH1 0x1 PUSH1 0x4 PUSH1 0x14 PUSH2 0x100 EXP DUP2 SLOAD DUP2 PUSH1 0xFF MUL NOT AND SWAP1 DUP4 PUSH1 0x2 DUP2 GT ISZERO PUSH2 0x14EA JUMPI PUSH2 0x14E9 PUSH2 0x2B8B JUMP JUMPDEST JUMPDEST MUL OR SWAP1 SSTORE POP JUMPDEST PUSH1 0x2 DUP2 SUB PUSH2 0x1524 JUMPI PUSH1 0x2 PUSH1 0x4 PUSH1 0x14 PUSH2 0x100 EXP DUP2 SLOAD DUP2 PUSH1 0xFF MUL NOT AND SWAP1 DUP4 PUSH1 0x2 DUP2 GT ISZERO PUSH2 0x151E JUMPI PUSH2 0x151D PUSH2 0x2B8B JUMP JUMPDEST JUMPDEST MUL OR SWAP1 SSTORE POP JUMPDEST POP JUMP JUMPDEST PUSH1 0x1 SLOAD TIMESTAMP GT ISZERO PUSH2 0x156C JUMPI PUSH1 0x40 MLOAD PUSH32 0x8C379A000000000000000000000000000000000000000000000000000000000 DUP2 MSTORE PUSH1 0x4 ADD PUSH2 0x1563 SWAP1 PUSH2 0x23C9 JUMP JUMPDEST PUSH1 0x40 MLOAD DUP1 SWAP2 SUB SWAP1 REVERT JUMPDEST PUSH0 CALLVALUE GT PUSH2 0x15AE JUMPI PUSH1 0x40 MLOAD PUSH32 0x8C379A000000000000000000000000000000000000000000000000000000000 DUP2 MSTORE PUSH1 0x4 ADD PUSH2 0x15A5 SWAP1 PUSH2 0x2924 JUMP JUMPDEST PUSH1 0x40 MLOAD DUP1 SWAP2 SUB SWAP1 REVERT JUMPDEST PUSH0 PUSH1 0x9 PUSH0 DUP5 DUP2 MSTORE PUSH1 0x20 ADD SWAP1 DUP2 MSTORE PUSH1 0x20 ADD PUSH0 KECCAK256 SWAP1 POP PUSH2 0x15CA PUSH2 0x1CDF JUMP JUMPDEST CALLER DUP2 PUSH0 ADD SWAP1 PUSH20 0xFFFFFFFFFFFFFFFFFFFFFFFFFFFFFFFFFFFFFFFF AND SWAP1 DUP2 PUSH20 0xFFFFFFFFFFFFFFFFFFFFFFFFFFFFFFFFFFFFFFFF AND DUP2 MSTORE POP POP DUP3 DUP2 PUSH1 0x20 ADD DUP2 DUP2 MSTORE POP POP DUP2 PUSH1 0x3 ADD DUP2 SWAP1 DUP1 PUSH1 0x1 DUP2 SLOAD ADD DUP1 DUP3 SSTORE DUP1 SWAP2 POP POP PUSH1 0x1 SWAP1 SUB SWAP1 PUSH0 MSTORE PUSH1 0x20 PUSH0 KECCAK256 SWAP1 PUSH1 0x2 MUL ADD PUSH0 SWAP1 SWAP2 SWAP1 SWAP2 SWAP1 SWAP2 POP PUSH0 DUP3 ADD MLOAD DUP2 PUSH0 ADD PUSH0 PUSH2 0x100 EXP DUP2 SLOAD DUP2 PUSH20 0xFFFFFFFFFFFFFFFFFFFFFFFFFFFFFFFFFFFFFFFF MUL NOT AND SWAP1 DUP4 PUSH20 0xFFFFFFFFFFFFFFFFFFFFFFFFFFFFFFFFFFFFFFFF AND MUL OR SWAP1 SSTORE POP PUSH1 0x20 DUP3 ADD MLOAD DUP2 PUSH1 0x1 ADD SSTORE POP POP POP POP POP POP JUMP JUMPDEST PUSH1 0x60 DUP1 PUSH1 0x9 PUSH0 DUP5 DUP2 MSTORE PUSH1 0x20 ADD SWAP1 DUP2 MSTORE PUSH1 0x20 ADD PUSH0 KECCAK256 PUSH1 0x2 ADD PUSH1 0x9 PUSH0 DUP6 DUP2 MSTORE PUSH1 0x20 ADD SWAP1 DUP2 MSTORE PUSH1 0x20 ADD PUSH0 KECCAK256 PUSH1 0x3 ADD DUP2 DUP1 SLOAD DUP1 PUSH1 0x20 MUL PUSH1 0x20 ADD PUSH1 0x40 MLOAD SWAP1 DUP2 ADD PUSH1 0x40 MSTORE DUP1 SWAP3 SWAP2 SWAP1 DUP2 DUP2 MSTORE PUSH1 0x20 ADD PUSH0 SWAP1 JUMPDEST DUP3 DUP3 LT ISZERO PUSH2 0x17BA JUMPI DUP4 DUP3 SWAP1 PUSH0 MSTORE PUSH1 0x20 PUSH0 KECCAK256 SWAP1 PUSH1 0x3 MUL ADD PUSH1 0x40 MLOAD DUP1 PUSH1 0x60 ADD PUSH1 0x40 MSTORE SWAP1 DUP2 PUSH0 DUP3 ADD PUSH0 SWAP1 SLOAD SWAP1 PUSH2 0x100 EXP SWAP1 DIV PUSH20 0xFFFFFFFFFFFFFFFFFFFFFFFFFFFFFFFFFFFFFFFF AND PUSH20 0xFFFFFFFFFFFFFFFFFFFFFFFFFFFFFFFFFFFFFFFF AND PUSH20 0xFFFFFFFFFFFFFFFFFFFFFFFFFFFFFFFFFFFFFFFF AND DUP2 MSTORE PUSH1 0x20 ADD PUSH1 0x1 DUP3 ADD PUSH0 SWAP1 SLOAD SWAP1 PUSH2 0x100 EXP SWAP1 DIV PUSH20 0xFFFFFFFFFFFFFFFFFFFFFFFFFFFFFFFFFFFFFFFF AND PUSH20 0xFFFFFFFFFFFFFFFFFFFFFFFFFFFFFFFFFFFFFFFF AND PUSH20 0xFFFFFFFFFFFFFFFFFFFFFFFFFFFFFFFFFFFFFFFF AND DUP2 MSTORE PUSH1 0x20 ADD PUSH1 0x2 DUP3 ADD SLOAD DUP2 MSTORE POP POP DUP2 MSTORE PUSH1 0x20 ADD SWAP1 PUSH1 0x1 ADD SWAP1 PUSH2 0x16D7 JUMP JUMPDEST POP POP POP POP SWAP2 POP DUP1 DUP1 SLOAD DUP1 PUSH1 0x20 MUL PUSH1 0x20 ADD PUSH1 0x40 MLOAD SWAP1 DUP2 ADD PUSH1 0x40 MSTORE DUP1 SWAP3 SWAP2 SWAP1 DUP2 DUP2 MSTORE PUSH1 0x20 ADD PUSH0 SWAP1 JUMPDEST DUP3 DUP3 LT ISZERO PUSH2 0x186E JUMPI DUP4 DUP3 SWAP1 PUSH0 MSTORE PUSH1 0x20 PUSH0 KECCAK256 SWAP1 PUSH1 0x2 MUL ADD PUSH1 0x40 MLOAD DUP1 PUSH1 0x40 ADD PUSH1 0x40 MSTORE SWAP1 DUP2 PUSH0 DUP3 ADD PUSH0 SWAP1 SLOAD SWAP1 PUSH2 0x100 EXP SWAP1 DIV PUSH20 0xFFFFFFFFFFFFFFFFFFFFFFFFFFFFFFFFFFFFFFFF AND PUSH20 0xFFFFFFFFFFFFFFFFFFFFFFFFFFFFFFFFFFFFFFFF AND PUSH20 0xFFFFFFFFFFFFFFFFFFFFFFFFFFFFFFFFFFFFFFFF AND DUP2 MSTORE PUSH1 0x20 ADD PUSH1 0x1 DUP3 ADD SLOAD DUP2 MSTORE POP POP DUP2 MSTORE PUSH1 0x20 ADD SWAP1 PUSH1 0x1 ADD SWAP1 PUSH2 0x17E0 JUMP JUMPDEST POP POP POP POP SWAP1 POP SWAP2 POP SWAP2 POP SWAP2 POP SWAP2 JUMP JUMPDEST PUSH2 0x1885 PUSH2 0x1B46 JUMP JUMPDEST DUP1 PUSH1 0x7 DUP2 SWAP1 SSTORE POP POP JUMP JUMPDEST PUSH2 0x1897 PUSH2 0x1B46 JUMP JUMPDEST PUSH1 0x2 SLOAD TIMESTAMP LT ISZERO PUSH2 0x18DC JUMPI PUSH1 0x40 MLOAD PUSH32 0x8C379A000000000000000000000000000000000000000000000000000000000 DUP2 MSTORE PUSH1 0x4 ADD PUSH2 0x18D3 SWAP1 PUSH2 0x23C9 JUMP JUMPDEST PUSH1 0x40 MLOAD DUP1 SWAP2 SUB SWAP1 REVERT JUMPDEST PUSH0 PUSH2 0x18E5 PUSH2 0x1AF0 JUMP JUMPDEST SWAP1 POP PUSH0 PUSH1 0x9 PUSH0 DUP4 DUP2 MSTORE PUSH1 0x20 ADD SWAP1 DUP2 MSTORE PUSH1 0x20 ADD PUSH0 KECCAK256 SWAP1 POP PUSH0 JUMPDEST DUP2 PUSH1 0x2 ADD DUP1 SLOAD SWAP1 POP DUP2 LT ISZERO PUSH2 0x1A66 JUMPI DUP2 PUSH1 0x2 ADD DUP2 DUP2 SLOAD DUP2 LT PUSH2 0x1922 JUMPI PUSH2 0x1921 PUSH2 0x2B04 JUMP JUMPDEST JUMPDEST SWAP1 PUSH0 MSTORE PUSH1 0x20 PUSH0 KECCAK256 SWAP1 PUSH1 0x3 MUL ADD PUSH1 0x1 ADD PUSH0 SWAP1 SLOAD SWAP1 PUSH2 0x100 EXP SWAP1 DIV PUSH20 0xFFFFFFFFFFFFFFFFFFFFFFFFFFFFFFFFFFFFFFFF AND PUSH20 0xFFFFFFFFFFFFFFFFFFFFFFFFFFFFFFFFFFFFFFFF AND PUSH4 0xA9059CBB DUP6 DUP5 PUSH1 0x2 ADD DUP5 DUP2 SLOAD DUP2 LT PUSH2 0x1983 JUMPI PUSH2 0x1982 PUSH2 0x2B04 JUMP JUMPDEST JUMPDEST SWAP1 PUSH0 MSTORE PUSH1 0x20 PUSH0 KECCAK256 SWAP1 PUSH1 0x3 MUL ADD PUSH1 0x2 ADD SLOAD PUSH1 0x40 MLOAD DUP4 PUSH4 0xFFFFFFFF AND PUSH1 0xE0 SHL DUP2 MSTORE PUSH1 0x4 ADD PUSH2 0x19B0 SWAP3 SWAP2 SWAP1 PUSH2 0x2B31 JUMP JUMPDEST PUSH1 0x20 PUSH1 0x40 MLOAD DUP1 DUP4 SUB DUP2 PUSH0 DUP8 GAS CALL ISZERO DUP1 ISZERO PUSH2 0x19CC JUMPI RETURNDATASIZE PUSH0 DUP1 RETURNDATACOPY RETURNDATASIZE PUSH0 REVERT JUMPDEST POP POP POP POP PUSH1 0x40 MLOAD RETURNDATASIZE PUSH1 0x1F NOT PUSH1 0x1F DUP3 ADD AND DUP3 ADD DUP1 PUSH1 0x40 MSTORE POP DUP2 ADD SWAP1 PUSH2 0x19F0 SWAP2 SWAP1 PUSH2 0x2A09 JUMP JUMPDEST PUSH2 0x1A2F JUMPI PUSH1 0x40 MLOAD PUSH32 0x8C379A000000000000000000000000000000000000000000000000000000000 DUP2 MSTORE PUSH1 0x4 ADD PUSH2 0x1A26 SWAP1 PUSH2 0x2A7E JUMP JUMPDEST PUSH1 0x40 MLOAD DUP1 SWAP2 SUB SWAP1 REVERT JUMPDEST PUSH0 DUP3 PUSH1 0x2 ADD DUP3 DUP2 SLOAD DUP2 LT PUSH2 0x1A46 JUMPI PUSH2 0x1A45 PUSH2 0x2B04 JUMP JUMPDEST JUMPDEST SWAP1 PUSH0 MSTORE PUSH1 0x20 PUSH0 KECCAK256 SWAP1 PUSH1 0x3 MUL ADD PUSH1 0x2 ADD DUP2 SWAP1 SSTORE POP DUP1 DUP1 PUSH1 0x1 ADD SWAP2 POP POP PUSH2 0x18FD JUMP JUMPDEST POP POP POP POP JUMP JUMPDEST PUSH2 0x1A74 PUSH2 0x1B46 JUMP JUMPDEST PUSH0 PUSH20 0xFFFFFFFFFFFFFFFFFFFFFFFFFFFFFFFFFFFFFFFF AND DUP2 PUSH20 0xFFFFFFFFFFFFFFFFFFFFFFFFFFFFFFFFFFFFFFFF AND SUB PUSH2 0x1AE4 JUMPI PUSH0 PUSH1 0x40 MLOAD PUSH32 0x1E4FBDF700000000000000000000000000000000000000000000000000000000 DUP2 MSTORE PUSH1 0x4 ADD PUSH2 0x1ADB SWAP2 SWAP1 PUSH2 0x20DA JUMP JUMPDEST PUSH1 0x40 MLOAD DUP1 SWAP2 SUB SWAP1 REVERT JUMPDEST PUSH2 0x1AED DUP2 PUSH2 0x1BCD JUMP JUMPDEST POP JUMP JUMPDEST PUSH0 DUP1 PUSH1 0x1 SWAP1 POP PUSH0 PUSH1 0x1 SWAP1 POP JUMPDEST PUSH1 0x3 SLOAD DUP2 GT PUSH2 0x1B38 JUMPI DUP2 PUSH1 0x9 PUSH0 DUP4 DUP2 MSTORE PUSH1 0x20 ADD SWAP1 DUP2 MSTORE PUSH1 0x20 ADD PUSH0 KECCAK256 PUSH1 0x4 ADD SLOAD GT ISZERO PUSH2 0x1B25 JUMPI DUP1 SWAP2 POP JUMPDEST DUP1 DUP1 PUSH2 0x1B30 SWAP1 PUSH2 0x25CA JUMP JUMPDEST SWAP2 POP POP PUSH2 0x1AFC JUMP JUMPDEST POP DUP1 SWAP2 POP POP SWAP1 JUMP JUMPDEST PUSH1 0x7 SLOAD DUP2 JUMP JUMPDEST PUSH2 0x1B4E PUSH2 0x1C8E JUMP JUMPDEST PUSH20 0xFFFFFFFFFFFFFFFFFFFFFFFFFFFFFFFFFFFFFFFF AND PUSH2 0x1B6C PUSH2 0x1333 JUMP JUMPDEST PUSH20 0xFFFFFFFFFFFFFFFFFFFFFFFFFFFFFFFFFFFFFFFF AND EQ PUSH2 0x1BCB JUMPI PUSH2 0x1B8F PUSH2 0x1C8E JUMP JUMPDEST PUSH1 0x40 MLOAD PUSH32 0x118CDAA700000000000000000000000000000000000000000000000000000000 DUP2 MSTORE PUSH1 0x4 ADD PUSH2 0x1BC2 SWAP2 SWAP1 PUSH2 0x20DA JUMP JUMPDEST PUSH1 0x40 MLOAD DUP1 SWAP2 SUB SWAP1 REVERT JUMPDEST JUMP JUMPDEST PUSH0 DUP1 PUSH0 SWAP1 SLOAD SWAP1 PUSH2 0x100 EXP SWAP1 DIV PUSH20 0xFFFFFFFFFFFFFFFFFFFFFFFFFFFFFFFFFFFFFFFF AND SWAP1 POP DUP2 PUSH0 DUP1 PUSH2 0x100 EXP DUP2 SLOAD DUP2 PUSH20 0xFFFFFFFFFFFFFFFFFFFFFFFFFFFFFFFFFFFFFFFF MUL NOT AND SWAP1 DUP4 PUSH20 0xFFFFFFFFFFFFFFFFFFFFFFFFFFFFFFFFFFFFFFFF AND MUL OR SWAP1 SSTORE POP DUP2 PUSH20 0xFFFFFFFFFFFFFFFFFFFFFFFFFFFFFFFFFFFFFFFF AND DUP2 PUSH20 0xFFFFFFFFFFFFFFFFFFFFFFFFFFFFFFFFFFFFFFFF AND PUSH32 0x8BE0079C531659141344CD1FD0A4F28419497F9722A3DAAFE3B4186F6B6457E0 PUSH1 0x40 MLOAD PUSH1 0x40 MLOAD DUP1 SWAP2 SUB SWAP1 LOG3 POP POP JUMP JUMPDEST PUSH0 CALLER SWAP1 POP SWAP1 JUMP JUMPDEST PUSH1 0x40 MLOAD DUP1 PUSH1 0x60 ADD PUSH1 0x40 MSTORE DUP1 PUSH0 PUSH20 0xFFFFFFFFFFFFFFFFFFFFFFFFFFFFFFFFFFFFFFFF AND DUP2 MSTORE PUSH1 0x20 ADD PUSH0 PUSH20 0xFFFFFFFFFFFFFFFFFFFFFFFFFFFFFFFFFFFFFFFF AND DUP2 MSTORE PUSH1 0x20 ADD PUSH0 DUP2 MSTORE POP SWAP1 JUMP JUMPDEST PUSH1 0x40 MLOAD DUP1 PUSH1 0x40 ADD PUSH1 0x40 MSTORE DUP1 PUSH0 PUSH20 0xFFFFFFFFFFFFFFFFFFFFFFFFFFFFFFFFFFFFFFFF AND DUP2 MSTORE PUSH1 0x20 ADD PUSH0 DUP2 MSTORE POP SWAP1 JUMP JUMPDEST PUSH0 PUSH1 0x40 MLOAD SWAP1 POP SWAP1 JUMP JUMPDEST PUSH0 DUP1 REVERT JUMPDEST PUSH0 DUP1 REVERT JUMPDEST PUSH0 DUP2 SWAP1 POP SWAP2 SWAP1 POP JUMP JUMPDEST PUSH2 0x1D30 DUP2 PUSH2 0x1D1E JUMP JUMPDEST DUP2 EQ PUSH2 0x1D3A JUMPI PUSH0 DUP1 REVERT JUMPDEST POP JUMP JUMPDEST PUSH0 DUP2 CALLDATALOAD SWAP1 POP PUSH2 0x1D4B DUP2 PUSH2 0x1D27 JUMP JUMPDEST SWAP3 SWAP2 POP POP JUMP JUMPDEST PUSH0 PUSH1 0x20 DUP3 DUP5 SUB SLT ISZERO PUSH2 0x1D66 JUMPI PUSH2 0x1D65 PUSH2 0x1D16 JUMP JUMPDEST JUMPDEST PUSH0 PUSH2 0x1D73 DUP5 DUP3 DUP6 ADD PUSH2 0x1D3D JUMP JUMPDEST SWAP2 POP POP SWAP3 SWAP2 POP POP JUMP JUMPDEST PUSH2 0x1D85 DUP2 PUSH2 0x1D1E JUMP JUMPDEST DUP3 MSTORE POP POP JUMP JUMPDEST PUSH0 PUSH1 0x20 DUP3 ADD SWAP1 POP PUSH2 0x1D9E PUSH0 DUP4 ADD DUP5 PUSH2 0x1D7C JUMP JUMPDEST SWAP3 SWAP2 POP POP JUMP JUMPDEST PUSH0 PUSH20 0xFFFFFFFFFFFFFFFFFFFFFFFFFFFFFFFFFFFFFFFF DUP3 AND SWAP1 POP SWAP2 SWAP1 POP JUMP JUMPDEST PUSH0 PUSH2 0x1DCD DUP3 PUSH2 0x1DA4 JUMP JUMPDEST SWAP1 POP SWAP2 SWAP1 POP JUMP JUMPDEST PUSH2 0x1DDD DUP2 PUSH2 0x1DC3 JUMP JUMPDEST DUP2 EQ PUSH2 0x1DE7 JUMPI PUSH0 DUP1 REVERT JUMPDEST POP JUMP JUMPDEST PUSH0 DUP2 CALLDATALOAD SWAP1 POP PUSH2 0x1DF8 DUP2 PUSH2 0x1DD4 JUMP JUMPDEST SWAP3 SWAP2 POP POP JUMP JUMPDEST PUSH0 PUSH1 0x20 DUP3 DUP5 SUB SLT ISZERO PUSH2 0x1E13 JUMPI PUSH2 0x1E12 PUSH2 0x1D16 JUMP JUMPDEST JUMPDEST PUSH0 PUSH2 0x1E20 DUP5 DUP3 DUP6 ADD PUSH2 0x1DEA JUMP JUMPDEST SWAP2 POP POP SWAP3 SWAP2 POP POP JUMP JUMPDEST PUSH0 DUP2 MLOAD SWAP1 POP SWAP2 SWAP1 POP JUMP JUMPDEST PUSH0 DUP3 DUP3 MSTORE PUSH1 0x20 DUP3 ADD SWAP1 POP SWAP3 SWAP2 POP POP JUMP JUMPDEST DUP3 DUP2 DUP4 MCOPY PUSH0 DUP4 DUP4 ADD MSTORE POP POP POP JUMP JUMPDEST PUSH0 PUSH1 0x1F NOT PUSH1 0x1F DUP4 ADD AND SWAP1 POP SWAP2 SWAP1 POP JUMP JUMPDEST PUSH0 PUSH2 0x1E6B DUP3 PUSH2 0x1E29 JUMP JUMPDEST PUSH2 0x1E75 DUP2 DUP6 PUSH2 0x1E33 JUMP JUMPDEST SWAP4 POP PUSH2 0x1E85 DUP2 DUP6 PUSH1 0x20 DUP7 ADD PUSH2 0x1E43 JUMP JUMPDEST PUSH2 0x1E8E DUP2 PUSH2 0x1E51 JUMP JUMPDEST DUP5 ADD SWAP2 POP POP SWAP3 SWAP2 POP POP JUMP JUMPDEST PUSH2 0x1EA2 DUP2 PUSH2 0x1DC3 JUMP JUMPDEST DUP3 MSTORE POP POP JUMP JUMPDEST PUSH0 PUSH1 0x60 DUP3 ADD SWAP1 POP DUP2 DUP2 SUB PUSH0 DUP4 ADD MSTORE PUSH2 0x1EC0 DUP2 DUP7 PUSH2 0x1E61 JUMP JUMPDEST SWAP1 POP PUSH2 0x1ECF PUSH1 0x20 DUP4 ADD DUP6 PUSH2 0x1E99 JUMP JUMPDEST PUSH2 0x1EDC PUSH1 0x40 DUP4 ADD DUP5 PUSH2 0x1D7C JUMP JUMPDEST SWAP5 SWAP4 POP POP POP POP JUMP JUMPDEST PUSH0 DUP1 REVERT JUMPDEST PUSH0 DUP1 REVERT JUMPDEST PUSH32 0x4E487B7100000000000000000000000000000000000000000000000000000000 PUSH0 MSTORE PUSH1 0x41 PUSH1 0x4 MSTORE PUSH1 0x24 PUSH0 REVERT JUMPDEST PUSH2 0x1F22 DUP3 PUSH2 0x1E51 JUMP JUMPDEST DUP2 ADD DUP2 DUP2 LT PUSH8 0xFFFFFFFFFFFFFFFF DUP3 GT OR ISZERO PUSH2 0x1F41 JUMPI PUSH2 0x1F40 PUSH2 0x1EEC JUMP JUMPDEST JUMPDEST DUP1 PUSH1 0x40 MSTORE POP POP POP JUMP JUMPDEST PUSH0 PUSH2 0x1F53 PUSH2 0x1D0D JUMP JUMPDEST SWAP1 POP PUSH2 0x1F5F DUP3 DUP3 PUSH2 0x1F19 JUMP JUMPDEST SWAP2 SWAP1 POP JUMP JUMPDEST PUSH0 PUSH8 0xFFFFFFFFFFFFFFFF DUP3 GT ISZERO PUSH2 0x1F7E JUMPI PUSH2 0x1F7D PUSH2 0x1EEC JUMP JUMPDEST JUMPDEST PUSH2 0x1F87 DUP3 PUSH2 0x1E51 JUMP JUMPDEST SWAP1 POP PUSH1 0x20 DUP2 ADD SWAP1 POP SWAP2 SWAP1 POP JUMP JUMPDEST DUP3 DUP2 DUP4 CALLDATACOPY PUSH0 DUP4 DUP4 ADD MSTORE POP POP POP JUMP JUMPDEST PUSH0 PUSH2 0x1FB4 PUSH2 0x1FAF DUP5 PUSH2 0x1F64 JUMP JUMPDEST PUSH2 0x1F4A JUMP JUMPDEST SWAP1 POP DUP3 DUP2 MSTORE PUSH1 0x20 DUP2 ADD DUP5 DUP5 DUP5 ADD GT ISZERO PUSH2 0x1FD0 JUMPI PUSH2 0x1FCF PUSH2 0x1EE8 JUMP JUMPDEST JUMPDEST PUSH2 0x1FDB DUP5 DUP3 DUP6 PUSH2 0x1F94 JUMP JUMPDEST POP SWAP4 SWAP3 POP POP POP JUMP JUMPDEST PUSH0 DUP3 PUSH1 0x1F DUP4 ADD SLT PUSH2 0x1FF7 JUMPI PUSH2 0x1FF6 PUSH2 0x1EE4 JUMP JUMPDEST JUMPDEST DUP2 CALLDATALOAD PUSH2 0x2007 DUP5 DUP3 PUSH1 0x20 DUP7 ADD PUSH2 0x1FA2 JUMP JUMPDEST SWAP2 POP POP SWAP3 SWAP2 POP POP JUMP JUMPDEST PUSH0 PUSH1 0x20 DUP3 DUP5 SUB SLT ISZERO PUSH2 0x2025 JUMPI PUSH2 0x2024 PUSH2 0x1D16 JUMP JUMPDEST JUMPDEST PUSH0 DUP3 ADD CALLDATALOAD PUSH8 0xFFFFFFFFFFFFFFFF DUP2 GT ISZERO PUSH2 0x2042 JUMPI PUSH2 0x2041 PUSH2 0x1D1A JUMP JUMPDEST JUMPDEST PUSH2 0x204E DUP5 DUP3 DUP6 ADD PUSH2 0x1FE3 JUMP JUMPDEST SWAP2 POP POP SWAP3 SWAP2 POP POP JUMP JUMPDEST PUSH0 DUP1 PUSH0 PUSH1 0x60 DUP5 DUP7 SUB SLT ISZERO PUSH2 0x206E JUMPI PUSH2 0x206D PUSH2 0x1D16 JUMP JUMPDEST JUMPDEST PUSH0 PUSH2 0x207B DUP7 DUP3 DUP8 ADD PUSH2 0x1D3D JUMP JUMPDEST SWAP4 POP POP PUSH1 0x20 PUSH2 0x208C DUP7 DUP3 DUP8 ADD PUSH2 0x1DEA JUMP JUMPDEST SWAP3 POP POP PUSH1 0x40 PUSH2 0x209D DUP7 DUP3 DUP8 ADD PUSH2 0x1D3D JUMP JUMPDEST SWAP2 POP POP SWAP3 POP SWAP3 POP SWAP3 JUMP JUMPDEST PUSH0 DUP2 ISZERO ISZERO SWAP1 POP SWAP2 SWAP1 POP JUMP JUMPDEST PUSH2 0x20BB DUP2 PUSH2 0x20A7 JUMP JUMPDEST DUP3 MSTORE POP POP JUMP JUMPDEST PUSH0 PUSH1 0x20 DUP3 ADD SWAP1 POP PUSH2 0x20D4 PUSH0 DUP4 ADD DUP5 PUSH2 0x20B2 JUMP JUMPDEST SWAP3 SWAP2 POP POP JUMP JUMPDEST PUSH0 PUSH1 0x20 DUP3 ADD SWAP1 POP PUSH2 0x20ED PUSH0 DUP4 ADD DUP5 PUSH2 0x1E99 JUMP JUMPDEST SWAP3 SWAP2 POP POP JUMP JUMPDEST PUSH0 DUP1 PUSH1 0x40 DUP4 DUP6 SUB SLT ISZERO PUSH2 0x2109 JUMPI PUSH2 0x2108 PUSH2 0x1D16 JUMP JUMPDEST JUMPDEST PUSH0 PUSH2 0x2116 DUP6 DUP3 DUP7 ADD PUSH2 0x1D3D JUMP JUMPDEST SWAP3 POP POP PUSH1 0x20 PUSH2 0x2127 DUP6 DUP3 DUP7 ADD PUSH2 0x1DEA JUMP JUMPDEST SWAP2 POP POP SWAP3 POP SWAP3 SWAP1 POP JUMP JUMPDEST PUSH0 DUP1 PUSH1 0x40 DUP4 DUP6 SUB SLT ISZERO PUSH2 0x2147 JUMPI PUSH2 0x2146 PUSH2 0x1D16 JUMP JUMPDEST JUMPDEST PUSH0 PUSH2 0x2154 DUP6 DUP3 DUP7 ADD PUSH2 0x1D3D JUMP JUMPDEST SWAP3 POP POP PUSH1 0x20 PUSH2 0x2165 DUP6 DUP3 DUP7 ADD PUSH2 0x1D3D JUMP JUMPDEST SWAP2 POP POP SWAP3 POP SWAP3 SWAP1 POP JUMP JUMPDEST PUSH0 DUP2 MLOAD SWAP1 POP SWAP2 SWAP1 POP JUMP JUMPDEST PUSH0 DUP3 DUP3 MSTORE PUSH1 0x20 DUP3 ADD SWAP1 POP SWAP3 SWAP2 POP POP JUMP JUMPDEST PUSH0 DUP2 SWAP1 POP PUSH1 0x20 DUP3 ADD SWAP1 POP SWAP2 SWAP1 POP JUMP JUMPDEST PUSH2 0x21A1 DUP2 PUSH2 0x1DC3 JUMP JUMPDEST DUP3 MSTORE POP POP JUMP JUMPDEST PUSH2 0x21B0 DUP2 PUSH2 0x1D1E JUMP JUMPDEST DUP3 MSTORE POP POP JUMP JUMPDEST PUSH1 0x60 DUP3 ADD PUSH0 DUP3 ADD MLOAD PUSH2 0x21CA PUSH0 DUP6 ADD DUP3 PUSH2 0x2198 JUMP JUMPDEST POP PUSH1 0x20 DUP3 ADD MLOAD PUSH2 0x21DD PUSH1 0x20 DUP6 ADD DUP3 PUSH2 0x2198 JUMP JUMPDEST POP PUSH1 0x40 DUP3 ADD MLOAD PUSH2 0x21F0 PUSH1 0x40 DUP6 ADD DUP3 PUSH2 0x21A7 JUMP JUMPDEST POP POP POP POP JUMP JUMPDEST PUSH0 PUSH2 0x2201 DUP4 DUP4 PUSH2 0x21B6 JUMP JUMPDEST PUSH1 0x60 DUP4 ADD SWAP1 POP SWAP3 SWAP2 POP POP JUMP JUMPDEST PUSH0 PUSH1 0x20 DUP3 ADD SWAP1 POP SWAP2 SWAP1 POP JUMP JUMPDEST PUSH0 PUSH2 0x2223 DUP3 PUSH2 0x216F JUMP JUMPDEST PUSH2 0x222D DUP2 DUP6 PUSH2 0x2179 JUMP JUMPDEST SWAP4 POP PUSH2 0x2238 DUP4 PUSH2 0x2189 JUMP JUMPDEST DUP1 PUSH0 JUMPDEST DUP4 DUP2 LT ISZERO PUSH2 0x2268 JUMPI DUP2 MLOAD PUSH2 0x224F DUP9 DUP3 PUSH2 0x21F6 JUMP JUMPDEST SWAP8 POP PUSH2 0x225A DUP4 PUSH2 0x220D JUMP JUMPDEST SWAP3 POP POP PUSH1 0x1 DUP2 ADD SWAP1 POP PUSH2 0x223B JUMP JUMPDEST POP DUP6 SWAP4 POP POP POP POP SWAP3 SWAP2 POP POP JUMP JUMPDEST PUSH0 DUP2 MLOAD SWAP1 POP SWAP2 SWAP1 POP JUMP JUMPDEST PUSH0 DUP3 DUP3 MSTORE PUSH1 0x20 DUP3 ADD SWAP1 POP SWAP3 SWAP2 POP POP JUMP JUMPDEST PUSH0 DUP2 SWAP1 POP PUSH1 0x20 DUP3 ADD SWAP1 POP SWAP2 SWAP1 POP JUMP JUMPDEST PUSH1 0x40 DUP3 ADD PUSH0 DUP3 ADD MLOAD PUSH2 0x22B2 PUSH0 DUP6 ADD DUP3 PUSH2 0x2198 JUMP JUMPDEST POP PUSH1 0x20 DUP3 ADD MLOAD PUSH2 0x22C5 PUSH1 0x20 DUP6 ADD DUP3 PUSH2 0x21A7 JUMP JUMPDEST POP POP POP POP JUMP JUMPDEST PUSH0 PUSH2 0x22D6 DUP4 DUP4 PUSH2 0x229E JUMP JUMPDEST PUSH1 0x40 DUP4 ADD SWAP1 POP SWAP3 SWAP2 POP POP JUMP JUMPDEST PUSH0 PUSH1 0x20 DUP3 ADD SWAP1 POP SWAP2 SWAP1 POP JUMP JUMPDEST PUSH0 PUSH2 0x22F8 DUP3 PUSH2 0x2275 JUMP JUMPDEST PUSH2 0x2302 DUP2 DUP6 PUSH2 0x227F JUMP JUMPDEST SWAP4 POP PUSH2 0x230D DUP4 PUSH2 0x228F JUMP JUMPDEST DUP1 PUSH0 JUMPDEST DUP4 DUP2 LT ISZERO PUSH2 0x233D JUMPI DUP2 MLOAD PUSH2 0x2324 DUP9 DUP3 PUSH2 0x22CB JUMP JUMPDEST SWAP8 POP PUSH2 0x232F DUP4 PUSH2 0x22E2 JUMP JUMPDEST SWAP3 POP POP PUSH1 0x1 DUP2 ADD SWAP1 POP PUSH2 0x2310 JUMP JUMPDEST POP DUP6 SWAP4 POP POP POP POP SWAP3 SWAP2 POP POP JUMP JUMPDEST PUSH0 PUSH1 0x40 DUP3 ADD SWAP1 POP DUP2 DUP2 SUB PUSH0 DUP4 ADD MSTORE PUSH2 0x2362 DUP2 DUP6 PUSH2 0x2219 JUMP JUMPDEST SWAP1 POP DUP2 DUP2 SUB PUSH1 0x20 DUP4 ADD MSTORE PUSH2 0x2376 DUP2 DUP5 PUSH2 0x22EE JUMP JUMPDEST SWAP1 POP SWAP4 SWAP3 POP POP POP JUMP JUMPDEST PUSH32 0x63616E7420646F206974206E6F77000000000000000000000000000000000000 PUSH0 DUP3 ADD MSTORE POP JUMP JUMPDEST PUSH0 PUSH2 0x23B3 PUSH1 0xE DUP4 PUSH2 0x1E33 JUMP JUMPDEST SWAP2 POP PUSH2 0x23BE DUP3 PUSH2 0x237F JUMP JUMPDEST PUSH1 0x20 DUP3 ADD SWAP1 POP SWAP2 SWAP1 POP JUMP JUMPDEST PUSH0 PUSH1 0x20 DUP3 ADD SWAP1 POP DUP2 DUP2 SUB PUSH0 DUP4 ADD MSTORE PUSH2 0x23E0 DUP2 PUSH2 0x23A7 JUMP JUMPDEST SWAP1 POP SWAP2 SWAP1 POP JUMP JUMPDEST PUSH32 0x616F7574206F66206F72646572206E6F00000000000000000000000000000000 PUSH0 DUP3 ADD MSTORE POP JUMP JUMPDEST PUSH0 PUSH2 0x241B PUSH1 0x10 DUP4 PUSH2 0x1E33 JUMP JUMPDEST SWAP2 POP PUSH2 0x2426 DUP3 PUSH2 0x23E7 JUMP JUMPDEST PUSH1 0x20 DUP3 ADD SWAP1 POP SWAP2 SWAP1 POP JUMP JUMPDEST PUSH0 PUSH1 0x20 DUP3 ADD SWAP1 POP DUP2 DUP2 SUB PUSH0 DUP4 ADD MSTORE PUSH2 0x2448 DUP2 PUSH2 0x240F JUMP JUMPDEST SWAP1 POP SWAP2 SWAP1 POP JUMP JUMPDEST PUSH0 DUP2 MLOAD SWAP1 POP PUSH2 0x245D DUP2 PUSH2 0x1D27 JUMP JUMPDEST SWAP3 SWAP2 POP POP JUMP JUMPDEST PUSH0 PUSH1 0x20 DUP3 DUP5 SUB SLT ISZERO PUSH2 0x2478 JUMPI PUSH2 0x2477 PUSH2 0x1D16 JUMP JUMPDEST JUMPDEST PUSH0 PUSH2 0x2485 DUP5 DUP3 DUP6 ADD PUSH2 0x244F JUMP JUMPDEST SWAP2 POP POP SWAP3 SWAP2 POP POP JUMP JUMPDEST PUSH32 0x646F6E74206F776E20746865206E667400000000000000000000000000000000 PUSH0 DUP3 ADD MSTORE POP JUMP JUMPDEST PUSH0 PUSH2 0x24C2 PUSH1 0x10 DUP4 PUSH2 0x1E33 JUMP JUMPDEST SWAP2 POP PUSH2 0x24CD DUP3 PUSH2 0x248E JUMP JUMPDEST PUSH1 0x20 DUP3 ADD SWAP1 POP SWAP2 SWAP1 POP JUMP JUMPDEST PUSH0 PUSH1 0x20 DUP3 ADD SWAP1 POP DUP2 DUP2 SUB PUSH0 DUP4 ADD MSTORE PUSH2 0x24EF DUP2 PUSH2 0x24B6 JUMP JUMPDEST SWAP1 POP SWAP2 SWAP1 POP JUMP JUMPDEST PUSH32 0x63616E2063617374206D6F726520766F74650000000000000000000000000000 PUSH0 DUP3 ADD MSTORE POP JUMP JUMPDEST PUSH0 PUSH2 0x252A PUSH1 0x12 DUP4 PUSH2 0x1E33 JUMP JUMPDEST SWAP2 POP PUSH2 0x2535 DUP3 PUSH2 0x24F6 JUMP JUMPDEST PUSH1 0x20 DUP3 ADD SWAP1 POP SWAP2 SWAP1 POP JUMP JUMPDEST PUSH0 PUSH1 0x20 DUP3 ADD SWAP1 POP DUP2 DUP2 SUB PUSH0 DUP4 ADD MSTORE PUSH2 0x2557 DUP2 PUSH2 0x251E JUMP JUMPDEST SWAP1 POP SWAP2 SWAP1 POP JUMP JUMPDEST PUSH0 DUP2 MLOAD SWAP1 POP PUSH2 0x256C DUP2 PUSH2 0x1DD4 JUMP JUMPDEST SWAP3 SWAP2 POP POP JUMP JUMPDEST PUSH0 PUSH1 0x20 DUP3 DUP5 SUB SLT ISZERO PUSH2 0x2587 JUMPI PUSH2 0x2586 PUSH2 0x1D16 JUMP JUMPDEST JUMPDEST PUSH0 PUSH2 0x2594 DUP5 DUP3 DUP6 ADD PUSH2 0x255E JUMP JUMPDEST SWAP2 POP POP SWAP3 SWAP2 POP POP JUMP JUMPDEST PUSH32 0x4E487B7100000000000000000000000000000000000000000000000000000000 PUSH0 MSTORE PUSH1 0x11 PUSH1 0x4 MSTORE PUSH1 0x24 PUSH0 REVERT JUMPDEST PUSH0 PUSH2 0x25D4 DUP3 PUSH2 0x1D1E JUMP JUMPDEST SWAP2 POP PUSH32 0xFFFFFFFFFFFFFFFFFFFFFFFFFFFFFFFFFFFFFFFFFFFFFFFFFFFFFFFFFFFFFFFF DUP3 SUB PUSH2 0x2606 JUMPI PUSH2 0x2605 PUSH2 0x259D JUMP JUMPDEST JUMPDEST PUSH1 0x1 DUP3 ADD SWAP1 POP SWAP2 SWAP1 POP JUMP JUMPDEST PUSH32 0x4E487B7100000000000000000000000000000000000000000000000000000000 PUSH0 MSTORE PUSH1 0x22 PUSH1 0x4 MSTORE PUSH1 0x24 PUSH0 REVERT JUMPDEST PUSH0 PUSH1 0x2 DUP3 DIV SWAP1 POP PUSH1 0x1 DUP3 AND DUP1 PUSH2 0x2655 JUMPI PUSH1 0x7F DUP3 AND SWAP2 POP JUMPDEST PUSH1 0x20 DUP3 LT DUP2 SUB PUSH2 0x2668 JUMPI PUSH2 0x2667 PUSH2 0x2611 JUMP JUMPDEST JUMPDEST POP SWAP2 SWAP1 POP JUMP JUMPDEST PUSH0 DUP2 SWAP1 POP DUP2 PUSH0 MSTORE PUSH1 0x20 PUSH0 KECCAK256 SWAP1 POP SWAP2 SWAP1 POP JUMP JUMPDEST PUSH0 PUSH1 0x20 PUSH1 0x1F DUP4 ADD DIV SWAP1 POP SWAP2 SWAP1 POP JUMP JUMPDEST PUSH0 DUP3 DUP3 SHL SWAP1 POP SWAP3 SWAP2 POP POP JUMP JUMPDEST PUSH0 PUSH1 0x8 DUP4 MUL PUSH2 0x26CA PUSH32 0xFFFFFFFFFFFFFFFFFFFFFFFFFFFFFFFFFFFFFFFFFFFFFFFFFFFFFFFFFFFFFFFF DUP3 PUSH2 0x268F JUMP JUMPDEST PUSH2 0x26D4 DUP7 DUP4 PUSH2 0x268F JUMP JUMPDEST SWAP6 POP DUP1 NOT DUP5 AND SWAP4 POP DUP1 DUP7 AND DUP5 OR SWAP3 POP POP POP SWAP4 SWAP3 POP POP POP JUMP JUMPDEST PUSH0 DUP2 SWAP1 POP SWAP2 SWAP1 POP JUMP JUMPDEST PUSH0 PUSH2 0x270F PUSH2 0x270A PUSH2 0x2705 DUP5 PUSH2 0x1D1E JUMP JUMPDEST PUSH2 0x26EC JUMP JUMPDEST PUSH2 0x1D1E JUMP JUMPDEST SWAP1 POP SWAP2 SWAP1 POP JUMP JUMPDEST PUSH0 DUP2 SWAP1 POP SWAP2 SWAP1 POP JUMP JUMPDEST PUSH2 0x2728 DUP4 PUSH2 0x26F5 JUMP JUMPDEST PUSH2 0x273C PUSH2 0x2734 DUP3 PUSH2 0x2716 JUMP JUMPDEST DUP5 DUP5 SLOAD PUSH2 0x269B JUMP JUMPDEST DUP3 SSTORE POP POP POP POP JUMP JUMPDEST PUSH0 SWAP1 JUMP JUMPDEST PUSH2 0x2750 PUSH2 0x2744 JUMP JUMPDEST PUSH2 0x275B DUP2 DUP5 DUP5 PUSH2 0x271F JUMP JUMPDEST POP POP POP JUMP JUMPDEST JUMPDEST DUP2 DUP2 LT ISZERO PUSH2 0x277E JUMPI PUSH2 0x2773 PUSH0 DUP3 PUSH2 0x2748 JUMP JUMPDEST PUSH1 0x1 DUP2 ADD SWAP1 POP PUSH2 0x2761 JUMP JUMPDEST POP POP JUMP JUMPDEST PUSH1 0x1F DUP3 GT ISZERO PUSH2 0x27C3 JUMPI PUSH2 0x2794 DUP2 PUSH2 0x266E JUMP JUMPDEST PUSH2 0x279D DUP5 PUSH2 0x2680 JUMP JUMPDEST DUP2 ADD PUSH1 0x20 DUP6 LT ISZERO PUSH2 0x27AC JUMPI DUP2 SWAP1 POP JUMPDEST PUSH2 0x27C0 PUSH2 0x27B8 DUP6 PUSH2 0x2680 JUMP JUMPDEST DUP4 ADD DUP3 PUSH2 0x2760 JUMP JUMPDEST POP POP JUMPDEST POP POP POP JUMP JUMPDEST PUSH0 DUP3 DUP3 SHR SWAP1 POP SWAP3 SWAP2 POP POP JUMP JUMPDEST PUSH0 PUSH2 0x27E3 PUSH0 NOT DUP5 PUSH1 0x8 MUL PUSH2 0x27C8 JUMP JUMPDEST NOT DUP1 DUP4 AND SWAP2 POP POP SWAP3 SWAP2 POP POP JUMP JUMPDEST PUSH0 PUSH2 0x27FB DUP4 DUP4 PUSH2 0x27D4 JUMP JUMPDEST SWAP2 POP DUP3 PUSH1 0x2 MUL DUP3 OR SWAP1 POP SWAP3 SWAP2 POP POP JUMP JUMPDEST PUSH2 0x2814 DUP3 PUSH2 0x1E29 JUMP JUMPDEST PUSH8 0xFFFFFFFFFFFFFFFF DUP2 GT ISZERO PUSH2 0x282D JUMPI PUSH2 0x282C PUSH2 0x1EEC JUMP JUMPDEST JUMPDEST PUSH2 0x2837 DUP3 SLOAD PUSH2 0x263E JUMP JUMPDEST PUSH2 0x2842 DUP3 DUP3 DUP6 PUSH2 0x2782 JUMP JUMPDEST PUSH0 PUSH1 0x20 SWAP1 POP PUSH1 0x1F DUP4 GT PUSH1 0x1 DUP2 EQ PUSH2 0x2873 JUMPI PUSH0 DUP5 ISZERO PUSH2 0x2861 JUMPI DUP3 DUP8 ADD MLOAD SWAP1 POP JUMPDEST PUSH2 0x286B DUP6 DUP3 PUSH2 0x27F0 JUMP JUMPDEST DUP7 SSTORE POP PUSH2 0x28D2 JUMP JUMPDEST PUSH1 0x1F NOT DUP5 AND PUSH2 0x2881 DUP7 PUSH2 0x266E JUMP JUMPDEST PUSH0 JUMPDEST DUP3 DUP2 LT ISZERO PUSH2 0x28A8 JUMPI DUP5 DUP10 ADD MLOAD DUP3 SSTORE PUSH1 0x1 DUP3 ADD SWAP2 POP PUSH1 0x20 DUP6 ADD SWAP5 POP PUSH1 0x20 DUP2 ADD SWAP1 POP PUSH2 0x2883 JUMP JUMPDEST DUP7 DUP4 LT ISZERO PUSH2 0x28C5 JUMPI DUP5 DUP10 ADD MLOAD PUSH2 0x28C1 PUSH1 0x1F DUP10 AND DUP3 PUSH2 0x27D4 JUMP JUMPDEST DUP4 SSTORE POP JUMPDEST PUSH1 0x1 PUSH1 0x2 DUP9 MUL ADD DUP9 SSTORE POP POP POP JUMPDEST POP POP POP POP POP POP JUMP JUMPDEST PUSH32 0x416D6F756E74206D7573742062652067726561746572207468616E2030000000 PUSH0 DUP3 ADD MSTORE POP JUMP JUMPDEST PUSH0 PUSH2 0x290E PUSH1 0x1D DUP4 PUSH2 0x1E33 JUMP JUMPDEST SWAP2 POP PUSH2 0x2919 DUP3 PUSH2 0x28DA JUMP JUMPDEST PUSH1 0x20 DUP3 ADD SWAP1 POP SWAP2 SWAP1 POP JUMP JUMPDEST PUSH0 PUSH1 0x20 DUP3 ADD SWAP1 POP DUP2 DUP2 SUB PUSH0 DUP4 ADD MSTORE PUSH2 0x293B DUP2 PUSH2 0x2902 JUMP JUMPDEST SWAP1 POP SWAP2 SWAP1 POP JUMP JUMPDEST PUSH32 0x496E73756666696369656E7420746F6B656E2062616C616E6365000000000000 PUSH0 DUP3 ADD MSTORE POP JUMP JUMPDEST PUSH0 PUSH2 0x2976 PUSH1 0x1A DUP4 PUSH2 0x1E33 JUMP JUMPDEST SWAP2 POP PUSH2 0x2981 DUP3 PUSH2 0x2942 JUMP JUMPDEST PUSH1 0x20 DUP3 ADD SWAP1 POP SWAP2 SWAP1 POP JUMP JUMPDEST PUSH0 PUSH1 0x20 DUP3 ADD SWAP1 POP DUP2 DUP2 SUB PUSH0 DUP4 ADD MSTORE PUSH2 0x29A3 DUP2 PUSH2 0x296A JUMP JUMPDEST SWAP1 POP SWAP2 SWAP1 POP JUMP JUMPDEST PUSH0 PUSH1 0x60 DUP3 ADD SWAP1 POP PUSH2 0x29BD PUSH0 DUP4 ADD DUP7 PUSH2 0x1E99 JUMP JUMPDEST PUSH2 0x29CA PUSH1 0x20 DUP4 ADD DUP6 PUSH2 0x1E99 JUMP JUMPDEST PUSH2 0x29D7 PUSH1 0x40 DUP4 ADD DUP5 PUSH2 0x1D7C JUMP JUMPDEST SWAP5 SWAP4 POP POP POP POP JUMP JUMPDEST PUSH2 0x29E8 DUP2 PUSH2 0x20A7 JUMP JUMPDEST DUP2 EQ PUSH2 0x29F2 JUMPI PUSH0 DUP1 REVERT JUMPDEST POP JUMP JUMPDEST PUSH0 DUP2 MLOAD SWAP1 POP PUSH2 0x2A03 DUP2 PUSH2 0x29DF JUMP JUMPDEST SWAP3 SWAP2 POP POP JUMP JUMPDEST PUSH0 PUSH1 0x20 DUP3 DUP5 SUB SLT ISZERO PUSH2 0x2A1E JUMPI PUSH2 0x2A1D PUSH2 0x1D16 JUMP JUMPDEST JUMPDEST PUSH0 PUSH2 0x2A2B DUP5 DUP3 DUP6 ADD PUSH2 0x29F5 JUMP JUMPDEST SWAP2 POP POP SWAP3 SWAP2 POP POP JUMP JUMPDEST PUSH32 0x7472616E73616374696F6E206661696C65640000000000000000000000000000 PUSH0 DUP3 ADD MSTORE POP JUMP JUMPDEST PUSH0 PUSH2 0x2A68 PUSH1 0x12 DUP4 PUSH2 0x1E33 JUMP JUMPDEST SWAP2 POP PUSH2 0x2A73 DUP3 PUSH2 0x2A34 JUMP JUMPDEST PUSH1 0x20 DUP3 ADD SWAP1 POP SWAP2 SWAP1 POP JUMP JUMPDEST PUSH0 PUSH1 0x20 DUP3 ADD SWAP1 POP DUP2 DUP2 SUB PUSH0 DUP4 ADD MSTORE PUSH2 0x2A95 DUP2 PUSH2 0x2A5C JUMP JUMPDEST SWAP1 POP SWAP2 SWAP1 POP JUMP JUMPDEST PUSH32 0x63616E7420636C61696D2077696E6E65722070726F6A65637400000000000000 PUSH0 DUP3 ADD MSTORE POP JUMP JUMPDEST PUSH0 PUSH2 0x2AD0 PUSH1 0x19 DUP4 PUSH2 0x1E33 JUMP JUMPDEST SWAP2 POP PUSH2 0x2ADB DUP3 PUSH2 0x2A9C JUMP JUMPDEST PUSH1 0x20 DUP3 ADD SWAP1 POP SWAP2 SWAP1 POP JUMP JUMPDEST PUSH0 PUSH1 0x20 DUP3 ADD SWAP1 POP DUP2 DUP2 SUB PUSH0 DUP4 ADD MSTORE PUSH2 0x2AFD DUP2 PUSH2 0x2AC4 JUMP JUMPDEST SWAP1 POP SWAP2 SWAP1 POP JUMP JUMPDEST PUSH32 0x4E487B7100000000000000000000000000000000000000000000000000000000 PUSH0 MSTORE PUSH1 0x32 PUSH1 0x4 MSTORE PUSH1 0x24 PUSH0 REVERT JUMPDEST PUSH0 PUSH1 0x40 DUP3 ADD SWAP1 POP PUSH2 0x2B44 PUSH0 DUP4 ADD DUP6 PUSH2 0x1E99 JUMP JUMPDEST PUSH2 0x2B51 PUSH1 0x20 DUP4 ADD DUP5 PUSH2 0x1D7C JUMP JUMPDEST SWAP4 SWAP3 POP POP POP JUMP JUMPDEST PUSH0 PUSH2 0x2B62 DUP3 PUSH2 0x1D1E JUMP JUMPDEST SWAP2 POP PUSH2 0x2B6D DUP4 PUSH2 0x1D1E JUMP JUMPDEST SWAP3 POP DUP3 DUP3 ADD SWAP1 POP DUP1 DUP3 GT ISZERO PUSH2 0x2B85 JUMPI PUSH2 0x2B84 PUSH2 0x259D JUMP JUMPDEST JUMPDEST SWAP3 SWAP2 POP POP JUMP JUMPDEST PUSH32 0x4E487B7100000000000000000000000000000000000000000000000000000000 PUSH0 MSTORE PUSH1 0x21 PUSH1 0x4 MSTORE PUSH1 0x24 PUSH0 REVERT INVALID LOG2 PUSH5 0x6970667358 0x22 SLT KECCAK256 0xBA PREVRANDAO 0xD5 EXP 0xC3 0xDB 0xAC GT 0xBE MSIZE CALLCODE DUP4 CODECOPY 0xEC 0xD9 SWAP14 LOG1 0x4B MUL PUSH23 0x6CD627EC971BA9CFBBB5E45864736F6C634300081A0033 "
		},
		"gasEstimates": {
			"creation": {
				"codeDepositCost": "2249200",
				"executionCost": "infinite",
				"totalCost": "infinite"
			},
			"external": {
				"briberInfo(uint256)": "infinite",
				"briberTokenInfo(uint256,address)": "infinite",
				"changeState(uint256)": "infinite",
				"changelastTokenId(uint256)": "infinite",
				"claim(uint256)": "infinite",
				"getStatus()": "6815",
				"getWinnerProjectId()": "infinite",
				"incentiviseProject(uint256,address,uint256)": "infinite",
				"incentiviseProject(uint256,uint256)": "infinite",
				"incentivizingPeriod()": "2492",
				"initializeProject(string)": "infinite",
				"lastTokenId()": "2535",
				"nativebriberInfo(uint256)": "infinite",
				"nftContractAddress()": "2619",
				"owner()": "2560",
				"projectCount()": "2493",
				"projects(uint256)": "infinite",
				"renounceOwnership()": "infinite",
				"setNftAddress(address)": "infinite",
				"tokenVoted(uint256)": "2830",
				"totalVotes()": "2515",
				"transferOwnership(address)": "infinite",
				"vote(uint256)": "infinite",
				"voters(address)": "2891",
				"votingPeriod()": "2471",
				"withdrawWinnerProject(address)": "infinite"
			}
		},
		"methodIdentifiers": {
			"briberInfo(uint256)": "bfb906a7",
			"briberTokenInfo(uint256,address)": "99b1760a",
			"changeState(uint256)": "b00741cb",
			"changelastTokenId(uint256)": "cb06545c",
			"claim(uint256)": "379607f5",
			"getStatus()": "4e69d560",
			"getWinnerProjectId()": "f4b1f501",
			"incentiviseProject(uint256,address,uint256)": "33b2decc",
			"incentiviseProject(uint256,uint256)": "bae60c88",
			"incentivizingPeriod()": "3885aed3",
			"initializeProject(string)": "239ecf35",
			"lastTokenId()": "f84ddf0b",
			"nativebriberInfo(uint256)": "6a460d41",
			"nftContractAddress()": "aae282e1",
			"owner()": "8da5cb5b",
			"projectCount()": "36fbad26",
			"projects(uint256)": "107046bd",
			"renounceOwnership()": "715018a6",
			"setNftAddress(address)": "0b102d1a",
			"tokenVoted(uint256)": "38200702",
			"totalVotes()": "0d15fd77",
			"transferOwnership(address)": "f2fde38b",
			"vote(uint256)": "0121b93f",
			"voters(address)": "a3ec138d",
			"votingPeriod()": "02a251a3",
			"withdrawWinnerProject(address)": "d19ee357"
		}
	},
	"abi": [
		{
			"inputs": [
				{
					"internalType": "address",
					"name": "initialOwner",
					"type": "address"
				},
				{
					"internalType": "uint256",
					"name": "_incentivizingPeriod",
					"type": "uint256"
				},
				{
					"internalType": "uint256",
					"name": "_votingPeriod",
					"type": "uint256"
				}
			],
			"stateMutability": "nonpayable",
			"type": "constructor"
		},
		{
			"inputs": [
				{
					"internalType": "address",
					"name": "owner",
					"type": "address"
				}
			],
			"name": "OwnableInvalidOwner",
			"type": "error"
		},
		{
			"inputs": [
				{
					"internalType": "address",
					"name": "account",
					"type": "address"
				}
			],
			"name": "OwnableUnauthorizedAccount",
			"type": "error"
		},
		{
			"anonymous": false,
			"inputs": [
				{
					"indexed": true,
					"internalType": "address",
					"name": "previousOwner",
					"type": "address"
				},
				{
					"indexed": true,
					"internalType": "address",
					"name": "newOwner",
					"type": "address"
				}
			],
			"name": "OwnershipTransferred",
			"type": "event"
		},
		{
			"inputs": [
				{
					"internalType": "uint256",
					"name": "_projectId",
					"type": "uint256"
				}
			],
			"name": "briberInfo",
			"outputs": [
				{
					"components": [
						{
							"internalType": "address",
							"name": "briberAddress",
							"type": "address"
						},
						{
							"internalType": "address",
							"name": "tokenAddress",
							"type": "address"
						},
						{
							"internalType": "uint256",
							"name": "tokenAmnt",
							"type": "uint256"
						}
					],
					"internalType": "struct DiscoCats.Briber[]",
					"name": "_bribers",
					"type": "tuple[]"
				},
				{
					"components": [
						{
							"internalType": "address",
							"name": "briberAddress",
							"type": "address"
						},
						{
							"internalType": "uint256",
							"name": "tokenAmnt",
							"type": "uint256"
						}
					],
					"internalType": "struct DiscoCats.NativeBriber[]",
					"name": "_nativebribers",
					"type": "tuple[]"
				}
			],
			"stateMutability": "view",
			"type": "function"
		},
		{
			"inputs": [
				{
					"internalType": "uint256",
					"name": "_projectId",
					"type": "uint256"
				},
				{
					"internalType": "address",
					"name": "_tokenAddress",
					"type": "address"
				}
			],
			"name": "briberTokenInfo",
			"outputs": [
				{
					"internalType": "uint256",
					"name": "number",
					"type": "uint256"
				}
			],
			"stateMutability": "view",
			"type": "function"
		},
		{
			"inputs": [
				{
					"internalType": "uint256",
					"name": "_stateNumber",
					"type": "uint256"
				}
			],
			"name": "changeState",
			"outputs": [],
			"stateMutability": "nonpayable",
			"type": "function"
		},
		{
			"inputs": [
				{
					"internalType": "uint256",
					"name": "_id",
					"type": "uint256"
				}
			],
			"name": "changelastTokenId",
			"outputs": [],
			"stateMutability": "nonpayable",
			"type": "function"
		},
		{
			"inputs": [
				{
					"internalType": "uint256",
					"name": "_projectId",
					"type": "uint256"
				}
			],
			"name": "claim",
			"outputs": [],
			"stateMutability": "nonpayable",
			"type": "function"
		},
		{
			"inputs": [],
			"name": "getStatus",
			"outputs": [
				{
					"internalType": "uint256",
					"name": "_status",
					"type": "uint256"
				}
			],
			"stateMutability": "view",
			"type": "function"
		},
		{
			"inputs": [],
			"name": "getWinnerProjectId",
			"outputs": [
				{
					"internalType": "uint256",
					"name": "_id",
					"type": "uint256"
				}
			],
			"stateMutability": "view",
			"type": "function"
		},
		{
			"inputs": [
				{
					"internalType": "uint256",
					"name": "id",
					"type": "uint256"
				},
				{
					"internalType": "address",
					"name": "_tokenAddress",
					"type": "address"
				},
				{
					"internalType": "uint256",
					"name": "_tokenAmount",
					"type": "uint256"
				}
			],
			"name": "incentiviseProject",
			"outputs": [],
			"stateMutability": "nonpayable",
			"type": "function"
		},
		{
			"inputs": [
				{
					"internalType": "uint256",
					"name": "id",
					"type": "uint256"
				},
				{
					"internalType": "uint256",
					"name": "_tokenAmount",
					"type": "uint256"
				}
			],
			"name": "incentiviseProject",
			"outputs": [],
			"stateMutability": "payable",
			"type": "function"
		},
		{
			"inputs": [],
			"name": "incentivizingPeriod",
			"outputs": [
				{
					"internalType": "uint256",
					"name": "",
					"type": "uint256"
				}
			],
			"stateMutability": "view",
			"type": "function"
		},
		{
			"inputs": [
				{
					"internalType": "string",
					"name": "_name",
					"type": "string"
				}
			],
			"name": "initializeProject",
			"outputs": [],
			"stateMutability": "nonpayable",
			"type": "function"
		},
		{
			"inputs": [],
			"name": "lastTokenId",
			"outputs": [
				{
					"internalType": "uint256",
					"name": "",
					"type": "uint256"
				}
			],
			"stateMutability": "view",
			"type": "function"
		},
		{
			"inputs": [
				{
					"internalType": "uint256",
					"name": "_projectId",
					"type": "uint256"
				}
			],
			"name": "nativebriberInfo",
			"outputs": [
				{
					"internalType": "uint256",
					"name": "_total",
					"type": "uint256"
				}
			],
			"stateMutability": "view",
			"type": "function"
		},
		{
			"inputs": [],
			"name": "nftContractAddress",
			"outputs": [
				{
					"internalType": "address",
					"name": "",
					"type": "address"
				}
			],
			"stateMutability": "view",
			"type": "function"
		},
		{
			"inputs": [],
			"name": "owner",
			"outputs": [
				{
					"internalType": "address",
					"name": "",
					"type": "address"
				}
			],
			"stateMutability": "view",
			"type": "function"
		},
		{
			"inputs": [],
			"name": "projectCount",
			"outputs": [
				{
					"internalType": "uint256",
					"name": "",
					"type": "uint256"
				}
			],
			"stateMutability": "view",
			"type": "function"
		},
		{
			"inputs": [
				{
					"internalType": "uint256",
					"name": "",
					"type": "uint256"
				}
			],
			"name": "projects",
			"outputs": [
				{
					"internalType": "string",
					"name": "name",
					"type": "string"
				},
				{
					"internalType": "address",
					"name": "projectOwner",
					"type": "address"
				},
				{
					"internalType": "uint256",
					"name": "votes",
					"type": "uint256"
				}
			],
			"stateMutability": "view",
			"type": "function"
		},
		{
			"inputs": [],
			"name": "renounceOwnership",
			"outputs": [],
			"stateMutability": "nonpayable",
			"type": "function"
		},
		{
			"inputs": [
				{
					"internalType": "address",
					"name": "_nftAddress",
					"type": "address"
				}
			],
			"name": "setNftAddress",
			"outputs": [],
			"stateMutability": "nonpayable",
			"type": "function"
		},
		{
			"inputs": [
				{
					"internalType": "uint256",
					"name": "",
					"type": "uint256"
				}
			],
			"name": "tokenVoted",
			"outputs": [
				{
					"internalType": "bool",
					"name": "",
					"type": "bool"
				}
			],
			"stateMutability": "view",
			"type": "function"
		},
		{
			"inputs": [],
			"name": "totalVotes",
			"outputs": [
				{
					"internalType": "uint256",
					"name": "",
					"type": "uint256"
				}
			],
			"stateMutability": "view",
			"type": "function"
		},
		{
			"inputs": [
				{
					"internalType": "address",
					"name": "newOwner",
					"type": "address"
				}
			],
			"name": "transferOwnership",
			"outputs": [],
			"stateMutability": "nonpayable",
			"type": "function"
		},
		{
			"inputs": [
				{
					"internalType": "uint256",
					"name": "_projectId",
					"type": "uint256"
				}
			],
			"name": "vote",
			"outputs": [],
			"stateMutability": "nonpayable",
			"type": "function"
		},
		{
			"inputs": [
				{
					"internalType": "address",
					"name": "",
					"type": "address"
				}
			],
			"name": "voters",
			"outputs": [
				{
					"internalType": "uint256",
					"name": "",
					"type": "uint256"
				}
			],
			"stateMutability": "view",
			"type": "function"
		},
		{
			"inputs": [],
			"name": "votingPeriod",
			"outputs": [
				{
					"internalType": "uint256",
					"name": "",
					"type": "uint256"
				}
			],
			"stateMutability": "view",
			"type": "function"
		},
		{
			"inputs": [
				{
					"internalType": "address",
					"name": "_receiver",
					"type": "address"
				}
			],
			"name": "withdrawWinnerProject",
			"outputs": [],
			"stateMutability": "nonpayable",
			"type": "function"
		}
	]
}