{
	"data": {
		"bytecode": {
			"linkReferences": {},
			"object": "60806040525f6003555f600460146101000a81548160ff0219169083600281111561002d5761002c6101f0565b5b02179055505f600655600a600755348015610046575f80fd5b50604051612887380380612887833981810160405281019061006891906102ae565b825f73ffffffffffffffffffffffffffffffffffffffff168173ffffffffffffffffffffffffffffffffffffffff16036100d9575f6040517f1e4fbdf70000000000000000000000000000000000000000000000000000000081526004016100d0919061030d565b60405180910390fd5b6100e88161012f60201b60201c565b50603c826100f69190610353565b426101019190610394565b600181905550603c816101149190610353565b6001546101219190610394565b6002819055505050506103c7565b5f805f9054906101000a900473ffffffffffffffffffffffffffffffffffffffff169050815f806101000a81548173ffffffffffffffffffffffffffffffffffffffff021916908373ffffffffffffffffffffffffffffffffffffffff1602179055508173ffffffffffffffffffffffffffffffffffffffff168173ffffffffffffffffffffffffffffffffffffffff167f8be0079c531659141344cd1fd0a4f28419497f9722a3daafe3b4186f6b6457e060405160405180910390a35050565b7f4e487b71000000000000000000000000000000000000000000000000000000005f52602160045260245ffd5b5f80fd5b5f73ffffffffffffffffffffffffffffffffffffffff82169050919050565b5f61024a82610221565b9050919050565b61025a81610240565b8114610264575f80fd5b50565b5f8151905061027581610251565b92915050565b5f819050919050565b61028d8161027b565b8114610297575f80fd5b50565b5f815190506102a881610284565b92915050565b5f805f606084860312156102c5576102c461021d565b5b5f6102d286828701610267565b93505060206102e38682870161029a565b92505060406102f48682870161029a565b9150509250925092565b61030781610240565b82525050565b5f6020820190506103205f8301846102fe565b92915050565b7f4e487b71000000000000000000000000000000000000000000000000000000005f52601160045260245ffd5b5f61035d8261027b565b91506103688361027b565b92508282026103768161027b565b9150828204841483151761038d5761038c610326565b5b5092915050565b5f61039e8261027b565b91506103a98361027b565b92508282019050808211156103c1576103c0610326565b5b92915050565b6124b3806103d45f395ff3fe608060405234801561000f575f80fd5b506004361061014b575f3560e01c80634e69d560116100c1578063bfb906a71161007a578063bfb906a714610365578063cb06545c14610395578063d19ee357146103b1578063f2fde38b146103cd578063f4b1f501146103e9578063f84ddf0b146104075761014b565b80634e69d560146102b5578063715018a6146102d35780638da5cb5b146102dd578063a3ec138d146102fb578063aae282e11461032b578063b00741cb146103495761014b565b8063239ecf3511610113578063239ecf35146101f557806333b2decc1461021157806336fbad261461022d578063379607f51461024b57806338200702146102675780633885aed3146102975761014b565b80630121b93f1461014f57806302a251a31461016b5780630b102d1a146101895780630d15fd77146101a5578063107046bd146101c3575b5f80fd5b610169600480360381019061016491906117af565b610425565b005b610173610889565b60405161018091906117e9565b60405180910390f35b6101a3600480360381019061019e919061185c565b61088f565b005b6101ad6108da565b6040516101ba91906117e9565b60405180910390f35b6101dd60048036038101906101d891906117af565b6108e0565b6040516101ec93929190611906565b60405180910390f35b61020f600480360381019061020a9190611a6e565b6109ab565b005b61022b60048036038101906102269190611ab5565b610a85565b005b610235610ddf565b60405161024291906117e9565b60405180910390f35b610265600480360381019061026091906117af565b610de5565b005b610281600480360381019061027c91906117af565b61106e565b60405161028e9190611b1f565b60405180910390f35b61029f61108b565b6040516102ac91906117e9565b60405180910390f35b6102bd611091565b6040516102ca91906117e9565b60405180910390f35b6102db6110cd565b005b6102e56110e0565b6040516102f29190611b38565b60405180910390f35b6103156004803603810190610310919061185c565b611107565b60405161032291906117e9565b60405180910390f35b61033361111c565b6040516103409190611b38565b60405180910390f35b610363600480360381019061035e91906117af565b611141565b005b61037f600480360381019061037a91906117af565b6111e6565b60405161038c9190611c57565b60405180910390f35b6103af60048036038101906103aa91906117af565b611309565b005b6103cb60048036038101906103c6919061185c565b61131b565b005b6103e760048036038101906103e2919061185c565b6114f8565b005b6103f161157c565b6040516103fe91906117e9565b60405180910390f35b61040f6115cc565b60405161041c91906117e9565b60405180910390f35b600154421015801561043957506002544211155b610478576040517f08c379a000000000000000000000000000000000000000000000000000000000815260040161046f90611cc1565b60405180910390fd5b8060035410156104bd576040517f08c379a00000000000000000000000000000000000000000000000000000000081526004016104b490611d29565b60405180910390fd5b5f60045f9054906101000a900473ffffffffffffffffffffffffffffffffffffffff1673ffffffffffffffffffffffffffffffffffffffff166370a08231336040518263ffffffff1660e01b81526004016105189190611b38565b602060405180830381865afa158015610533573d5f803e3d5ffd5b505050506040513d601f19601f820116820180604052508101906105579190611d5b565b11610597576040517f08c379a000000000000000000000000000000000000000000000000000000000815260040161058e90611dd0565b60405180910390fd5b5f60095f8381526020019081526020015f20905060045f9054906101000a900473ffffffffffffffffffffffffffffffffffffffff1673ffffffffffffffffffffffffffffffffffffffff166370a08231336040518263ffffffff1660e01b81526004016106059190611b38565b602060405180830381865afa158015610620573d5f803e3d5ffd5b505050506040513d601f19601f820116820180604052508101906106449190611d5b565b60055f3373ffffffffffffffffffffffffffffffffffffffff1673ffffffffffffffffffffffffffffffffffffffff1681526020019081526020015f2054106106c2576040517f08c379a00000000000000000000000000000000000000000000000000000000081526004016106b990611e38565b60405180910390fd5b5f5b6007548111610884573373ffffffffffffffffffffffffffffffffffffffff1660045f9054906101000a900473ffffffffffffffffffffffffffffffffffffffff1673ffffffffffffffffffffffffffffffffffffffff16636352211e836040518263ffffffff1660e01b815260040161073e91906117e9565b602060405180830381865afa158015610759573d5f803e3d5ffd5b505050506040513d601f19601f8201168201806040525081019061077d9190611e6a565b73ffffffffffffffffffffffffffffffffffffffff1603610871575f151560085f8381526020019081526020015f205f9054906101000a900460ff161515036108705760055f3373ffffffffffffffffffffffffffffffffffffffff1673ffffffffffffffffffffffffffffffffffffffff1681526020019081526020015f205f81548092919061080d90611ec2565b9190505550816003015f81548092919061082690611ec2565b919050555060065f81548092919061083d90611ec2565b9190505550600160085f8381526020019081526020015f205f6101000a81548160ff021916908315150217905550610884565b5b808061087c90611ec2565b9150506106c4565b505050565b60025481565b6108976115d2565b8060045f6101000a81548173ffffffffffffffffffffffffffffffffffffffff021916908373ffffffffffffffffffffffffffffffffffffffff16021790555050565b60065481565b6009602052805f5260405f205f91509050805f0180546108ff90611f36565b80601f016020809104026020016040519081016040528092919081815260200182805461092b90611f36565b80156109765780601f1061094d57610100808354040283529160200191610976565b820191905f5260205f20905b81548152906001019060200180831161095957829003601f168201915b505050505090806001015f9054906101000a900473ffffffffffffffffffffffffffffffffffffffff16908060030154905083565b6109b36115d2565b6001544211156109f8576040517f08c379a00000000000000000000000000000000000000000000000000000000081526004016109ef90611cc1565b60405180910390fd5b60035f815480929190610a0a90611ec2565b91905055505f60095f60035481526020019081526020015f20905081815f019081610a359190612103565b5033816001015f6101000a81548173ffffffffffffffffffffffffffffffffffffffff021916908373ffffffffffffffffffffffffffffffffffffffff1602179055505f81600301819055505050565b600154421115610aca576040517f08c379a0000000000000000000000000000000000000000000000000000000008152600401610ac190611cc1565b60405180910390fd5b5f8111610b0c576040517f08c379a0000000000000000000000000000000000000000000000000000000008152600401610b039061221c565b60405180910390fd5b808273ffffffffffffffffffffffffffffffffffffffff166370a08231336040518263ffffffff1660e01b8152600401610b469190611b38565b602060405180830381865afa158015610b61573d5f803e3d5ffd5b505050506040513d601f19601f82011682018060405250810190610b859190611d5b565b1015610bc6576040517f08c379a0000000000000000000000000000000000000000000000000000000008152600401610bbd90612284565b60405180910390fd5b8173ffffffffffffffffffffffffffffffffffffffff166323b872dd3330846040518463ffffffff1660e01b8152600401610c03939291906122a2565b6020604051808303815f875af1158015610c1f573d5f803e3d5ffd5b505050506040513d601f19601f82011682018060405250810190610c439190612301565b610c82576040517f08c379a0000000000000000000000000000000000000000000000000000000008152600401610c7990612376565b60405180910390fd5b5f60095f8581526020019081526020015f209050610c9e611721565b33815f019073ffffffffffffffffffffffffffffffffffffffff16908173ffffffffffffffffffffffffffffffffffffffff168152505083816020019073ffffffffffffffffffffffffffffffffffffffff16908173ffffffffffffffffffffffffffffffffffffffff1681525050828160400181815250508160020181908060018154018082558091505060019003905f5260205f2090600302015f909190919091505f820151815f015f6101000a81548173ffffffffffffffffffffffffffffffffffffffff021916908373ffffffffffffffffffffffffffffffffffffffff1602179055506020820151816001015f6101000a81548173ffffffffffffffffffffffffffffffffffffffff021916908373ffffffffffffffffffffffffffffffffffffffff1602179055506040820151816002015550505050505050565b60035481565b600254421015610e2a576040517f08c379a0000000000000000000000000000000000000000000000000000000008152600401610e2190611cc1565b60405180910390fd5b610e3261157c565b8103610e73576040517f08c379a0000000000000000000000000000000000000000000000000000000008152600401610e6a906123de565b60405180910390fd5b5f60095f8381526020019081526020015f2090505f5b8160020180549050811015611069573373ffffffffffffffffffffffffffffffffffffffff16826002018281548110610ec557610ec46123fc565b5b905f5260205f2090600302015f015f9054906101000a900473ffffffffffffffffffffffffffffffffffffffff1673ffffffffffffffffffffffffffffffffffffffff160361105c57816002018181548110610f2457610f236123fc565b5b905f5260205f2090600302016001015f9054906101000a900473ffffffffffffffffffffffffffffffffffffffff1673ffffffffffffffffffffffffffffffffffffffff1663a9059cbb33846002018481548110610f8557610f846123fc565b5b905f5260205f209060030201600201546040518363ffffffff1660e01b8152600401610fb2929190612429565b6020604051808303815f875af1158015610fce573d5f803e3d5ffd5b505050506040513d601f19601f82011682018060405250810190610ff29190612301565b611031576040517f08c379a000000000000000000000000000000000000000000000000000000000815260040161102890612376565b60405180910390fd5b5f826002018281548110611048576110476123fc565b5b905f5260205f209060030201600201819055505b8080600101915050610e89565b505050565b6008602052805f5260405f205f915054906101000a900460ff1681565b60015481565b5f60015442116110a3575f90506110ca565b60015442101580156110b757506002544211155b156110c557600190506110ca565b600290505b90565b6110d56115d2565b6110de5f611659565b565b5f805f9054906101000a900473ffffffffffffffffffffffffffffffffffffffff16905090565b6005602052805f5260405f205f915090505481565b60045f9054906101000a900473ffffffffffffffffffffffffffffffffffffffff1681565b6111496115d2565b5f810361117b575f600460146101000a81548160ff0219169083600281111561117557611174612450565b5b02179055505b600181036111af576001600460146101000a81548160ff021916908360028111156111a9576111a8612450565b5b02179055505b600281036111e3576002600460146101000a81548160ff021916908360028111156111dd576111dc612450565b5b02179055505b50565b606060095f8381526020019081526020015f20600201805480602002602001604051908101604052809291908181526020015f905b828210156112fe578382905f5260205f2090600302016040518060600160405290815f82015f9054906101000a900473ffffffffffffffffffffffffffffffffffffffff1673ffffffffffffffffffffffffffffffffffffffff1673ffffffffffffffffffffffffffffffffffffffff168152602001600182015f9054906101000a900473ffffffffffffffffffffffffffffffffffffffff1673ffffffffffffffffffffffffffffffffffffffff1673ffffffffffffffffffffffffffffffffffffffff1681526020016002820154815250508152602001906001019061121b565b505050509050919050565b6113116115d2565b8060078190555050565b6113236115d2565b600254421015611368576040517f08c379a000000000000000000000000000000000000000000000000000000000815260040161135f90611cc1565b60405180910390fd5b5f61137161157c565b90505f60095f8381526020019081526020015f2090505f5b81600201805490508110156114f2578160020181815481106113ae576113ad6123fc565b5b905f5260205f2090600302016001015f9054906101000a900473ffffffffffffffffffffffffffffffffffffffff1673ffffffffffffffffffffffffffffffffffffffff1663a9059cbb8584600201848154811061140f5761140e6123fc565b5b905f5260205f209060030201600201546040518363ffffffff1660e01b815260040161143c929190612429565b6020604051808303815f875af1158015611458573d5f803e3d5ffd5b505050506040513d601f19601f8201168201806040525081019061147c9190612301565b6114bb576040517f08c379a00000000000000000000000000000000000000000000000000000000081526004016114b290612376565b60405180910390fd5b5f8260020182815481106114d2576114d16123fc565b5b905f5260205f209060030201600201819055508080600101915050611389565b50505050565b6115006115d2565b5f73ffffffffffffffffffffffffffffffffffffffff168173ffffffffffffffffffffffffffffffffffffffff1603611570575f6040517f1e4fbdf70000000000000000000000000000000000000000000000000000000081526004016115679190611b38565b60405180910390fd5b61157981611659565b50565b5f80600190505f600190505b60035481116115c4578160095f8381526020019081526020015f206003015411156115b1578091505b80806115bc90611ec2565b915050611588565b508091505090565b60075481565b6115da61171a565b73ffffffffffffffffffffffffffffffffffffffff166115f86110e0565b73ffffffffffffffffffffffffffffffffffffffff16146116575761161b61171a565b6040517f118cdaa700000000000000000000000000000000000000000000000000000000815260040161164e9190611b38565b60405180910390fd5b565b5f805f9054906101000a900473ffffffffffffffffffffffffffffffffffffffff169050815f806101000a81548173ffffffffffffffffffffffffffffffffffffffff021916908373ffffffffffffffffffffffffffffffffffffffff1602179055508173ffffffffffffffffffffffffffffffffffffffff168173ffffffffffffffffffffffffffffffffffffffff167f8be0079c531659141344cd1fd0a4f28419497f9722a3daafe3b4186f6b6457e060405160405180910390a35050565b5f33905090565b60405180606001604052805f73ffffffffffffffffffffffffffffffffffffffff1681526020015f73ffffffffffffffffffffffffffffffffffffffff1681526020015f81525090565b5f604051905090565b5f80fd5b5f80fd5b5f819050919050565b61178e8161177c565b8114611798575f80fd5b50565b5f813590506117a981611785565b92915050565b5f602082840312156117c4576117c3611774565b5b5f6117d18482850161179b565b91505092915050565b6117e38161177c565b82525050565b5f6020820190506117fc5f8301846117da565b92915050565b5f73ffffffffffffffffffffffffffffffffffffffff82169050919050565b5f61182b82611802565b9050919050565b61183b81611821565b8114611845575f80fd5b50565b5f8135905061185681611832565b92915050565b5f6020828403121561187157611870611774565b5b5f61187e84828501611848565b91505092915050565b5f81519050919050565b5f82825260208201905092915050565b8281835e5f83830152505050565b5f601f19601f8301169050919050565b5f6118c982611887565b6118d38185611891565b93506118e38185602086016118a1565b6118ec816118af565b840191505092915050565b61190081611821565b82525050565b5f6060820190508181035f83015261191e81866118bf565b905061192d60208301856118f7565b61193a60408301846117da565b949350505050565b5f80fd5b5f80fd5b7f4e487b71000000000000000000000000000000000000000000000000000000005f52604160045260245ffd5b611980826118af565b810181811067ffffffffffffffff8211171561199f5761199e61194a565b5b80604052505050565b5f6119b161176b565b90506119bd8282611977565b919050565b5f67ffffffffffffffff8211156119dc576119db61194a565b5b6119e5826118af565b9050602081019050919050565b828183375f83830152505050565b5f611a12611a0d846119c2565b6119a8565b905082815260208101848484011115611a2e57611a2d611946565b5b611a398482856119f2565b509392505050565b5f82601f830112611a5557611a54611942565b5b8135611a65848260208601611a00565b91505092915050565b5f60208284031215611a8357611a82611774565b5b5f82013567ffffffffffffffff811115611aa057611a9f611778565b5b611aac84828501611a41565b91505092915050565b5f805f60608486031215611acc57611acb611774565b5b5f611ad98682870161179b565b9350506020611aea86828701611848565b9250506040611afb8682870161179b565b9150509250925092565b5f8115159050919050565b611b1981611b05565b82525050565b5f602082019050611b325f830184611b10565b92915050565b5f602082019050611b4b5f8301846118f7565b92915050565b5f81519050919050565b5f82825260208201905092915050565b5f819050602082019050919050565b611b8381611821565b82525050565b611b928161177c565b82525050565b606082015f820151611bac5f850182611b7a565b506020820151611bbf6020850182611b7a565b506040820151611bd26040850182611b89565b50505050565b5f611be38383611b98565b60608301905092915050565b5f602082019050919050565b5f611c0582611b51565b611c0f8185611b5b565b9350611c1a83611b6b565b805f5b83811015611c4a578151611c318882611bd8565b9750611c3c83611bef565b925050600181019050611c1d565b5085935050505092915050565b5f6020820190508181035f830152611c6f8184611bfb565b905092915050565b7f63616e7420646f206974206e6f770000000000000000000000000000000000005f82015250565b5f611cab600e83611891565b9150611cb682611c77565b602082019050919050565b5f6020820190508181035f830152611cd881611c9f565b9050919050565b7f616f7574206f66206f72646572206e6f000000000000000000000000000000005f82015250565b5f611d13601083611891565b9150611d1e82611cdf565b602082019050919050565b5f6020820190508181035f830152611d4081611d07565b9050919050565b5f81519050611d5581611785565b92915050565b5f60208284031215611d7057611d6f611774565b5b5f611d7d84828501611d47565b91505092915050565b7f646f6e74206f776e20746865206e6674000000000000000000000000000000005f82015250565b5f611dba601083611891565b9150611dc582611d86565b602082019050919050565b5f6020820190508181035f830152611de781611dae565b9050919050565b7f63616e2063617374206d6f726520766f746500000000000000000000000000005f82015250565b5f611e22601283611891565b9150611e2d82611dee565b602082019050919050565b5f6020820190508181035f830152611e4f81611e16565b9050919050565b5f81519050611e6481611832565b92915050565b5f60208284031215611e7f57611e7e611774565b5b5f611e8c84828501611e56565b91505092915050565b7f4e487b71000000000000000000000000000000000000000000000000000000005f52601160045260245ffd5b5f611ecc8261177c565b91507fffffffffffffffffffffffffffffffffffffffffffffffffffffffffffffffff8203611efe57611efd611e95565b5b600182019050919050565b7f4e487b71000000000000000000000000000000000000000000000000000000005f52602260045260245ffd5b5f6002820490506001821680611f4d57607f821691505b602082108103611f6057611f5f611f09565b5b50919050565b5f819050815f5260205f209050919050565b5f6020601f8301049050919050565b5f82821b905092915050565b5f60088302611fc27fffffffffffffffffffffffffffffffffffffffffffffffffffffffffffffffff82611f87565b611fcc8683611f87565b95508019841693508086168417925050509392505050565b5f819050919050565b5f612007612002611ffd8461177c565b611fe4565b61177c565b9050919050565b5f819050919050565b61202083611fed565b61203461202c8261200e565b848454611f93565b825550505050565b5f90565b61204861203c565b612053818484612017565b505050565b5b818110156120765761206b5f82612040565b600181019050612059565b5050565b601f8211156120bb5761208c81611f66565b61209584611f78565b810160208510156120a4578190505b6120b86120b085611f78565b830182612058565b50505b505050565b5f82821c905092915050565b5f6120db5f19846008026120c0565b1980831691505092915050565b5f6120f383836120cc565b9150826002028217905092915050565b61210c82611887565b67ffffffffffffffff8111156121255761212461194a565b5b61212f8254611f36565b61213a82828561207a565b5f60209050601f83116001811461216b575f8415612159578287015190505b61216385826120e8565b8655506121ca565b601f19841661217986611f66565b5f5b828110156121a05784890151825560018201915060208501945060208101905061217b565b868310156121bd57848901516121b9601f8916826120cc565b8355505b6001600288020188555050505b505050505050565b7f416d6f756e74206d7573742062652067726561746572207468616e20300000005f82015250565b5f612206601d83611891565b9150612211826121d2565b602082019050919050565b5f6020820190508181035f830152612233816121fa565b9050919050565b7f496e73756666696369656e7420746f6b656e2062616c616e63650000000000005f82015250565b5f61226e601a83611891565b91506122798261223a565b602082019050919050565b5f6020820190508181035f83015261229b81612262565b9050919050565b5f6060820190506122b55f8301866118f7565b6122c260208301856118f7565b6122cf60408301846117da565b949350505050565b6122e081611b05565b81146122ea575f80fd5b50565b5f815190506122fb816122d7565b92915050565b5f6020828403121561231657612315611774565b5b5f612323848285016122ed565b91505092915050565b7f7472616e73616374696f6e206661696c656400000000000000000000000000005f82015250565b5f612360601283611891565b915061236b8261232c565b602082019050919050565b5f6020820190508181035f83015261238d81612354565b9050919050565b7f63616e7420636c61696d2077696e6e65722070726f6a656374000000000000005f82015250565b5f6123c8601983611891565b91506123d382612394565b602082019050919050565b5f6020820190508181035f8301526123f5816123bc565b9050919050565b7f4e487b71000000000000000000000000000000000000000000000000000000005f52603260045260245ffd5b5f60408201905061243c5f8301856118f7565b61244960208301846117da565b9392505050565b7f4e487b71000000000000000000000000000000000000000000000000000000005f52602160045260245ffdfea2646970667358221220a984e667e4a569a9573093e34c44b9806c307d10537affae8a8564f8b2b8b5f564736f6c634300081a0033",
			"opcodes": "PUSH1 0x80 PUSH1 0x40 MSTORE PUSH0 PUSH1 0x3 SSTORE PUSH0 PUSH1 0x4 PUSH1 0x14 PUSH2 0x100 EXP DUP2 SLOAD DUP2 PUSH1 0xFF MUL NOT AND SWAP1 DUP4 PUSH1 0x2 DUP2 GT ISZERO PUSH2 0x2D JUMPI PUSH2 0x2C PUSH2 0x1F0 JUMP JUMPDEST JUMPDEST MUL OR SWAP1 SSTORE POP PUSH0 PUSH1 0x6 SSTORE PUSH1 0xA PUSH1 0x7 SSTORE CALLVALUE DUP1 ISZERO PUSH2 0x46 JUMPI PUSH0 DUP1 REVERT JUMPDEST POP PUSH1 0x40 MLOAD PUSH2 0x2887 CODESIZE SUB DUP1 PUSH2 0x2887 DUP4 CODECOPY DUP2 DUP2 ADD PUSH1 0x40 MSTORE DUP2 ADD SWAP1 PUSH2 0x68 SWAP2 SWAP1 PUSH2 0x2AE JUMP JUMPDEST DUP3 PUSH0 PUSH20 0xFFFFFFFFFFFFFFFFFFFFFFFFFFFFFFFFFFFFFFFF AND DUP2 PUSH20 0xFFFFFFFFFFFFFFFFFFFFFFFFFFFFFFFFFFFFFFFF AND SUB PUSH2 0xD9 JUMPI PUSH0 PUSH1 0x40 MLOAD PUSH32 0x1E4FBDF700000000000000000000000000000000000000000000000000000000 DUP2 MSTORE PUSH1 0x4 ADD PUSH2 0xD0 SWAP2 SWAP1 PUSH2 0x30D JUMP JUMPDEST PUSH1 0x40 MLOAD DUP1 SWAP2 SUB SWAP1 REVERT JUMPDEST PUSH2 0xE8 DUP2 PUSH2 0x12F PUSH1 0x20 SHL PUSH1 0x20 SHR JUMP JUMPDEST POP PUSH1 0x3C DUP3 PUSH2 0xF6 SWAP2 SWAP1 PUSH2 0x353 JUMP JUMPDEST TIMESTAMP PUSH2 0x101 SWAP2 SWAP1 PUSH2 0x394 JUMP JUMPDEST PUSH1 0x1 DUP2 SWAP1 SSTORE POP PUSH1 0x3C DUP2 PUSH2 0x114 SWAP2 SWAP1 PUSH2 0x353 JUMP JUMPDEST PUSH1 0x1 SLOAD PUSH2 0x121 SWAP2 SWAP1 PUSH2 0x394 JUMP JUMPDEST PUSH1 0x2 DUP2 SWAP1 SSTORE POP POP POP POP PUSH2 0x3C7 JUMP JUMPDEST PUSH0 DUP1 PUSH0 SWAP1 SLOAD SWAP1 PUSH2 0x100 EXP SWAP1 DIV PUSH20 0xFFFFFFFFFFFFFFFFFFFFFFFFFFFFFFFFFFFFFFFF AND SWAP1 POP DUP2 PUSH0 DUP1 PUSH2 0x100 EXP DUP2 SLOAD DUP2 PUSH20 0xFFFFFFFFFFFFFFFFFFFFFFFFFFFFFFFFFFFFFFFF MUL NOT AND SWAP1 DUP4 PUSH20 0xFFFFFFFFFFFFFFFFFFFFFFFFFFFFFFFFFFFFFFFF AND MUL OR SWAP1 SSTORE POP DUP2 PUSH20 0xFFFFFFFFFFFFFFFFFFFFFFFFFFFFFFFFFFFFFFFF AND DUP2 PUSH20 0xFFFFFFFFFFFFFFFFFFFFFFFFFFFFFFFFFFFFFFFF AND PUSH32 0x8BE0079C531659141344CD1FD0A4F28419497F9722A3DAAFE3B4186F6B6457E0 PUSH1 0x40 MLOAD PUSH1 0x40 MLOAD DUP1 SWAP2 SUB SWAP1 LOG3 POP POP JUMP JUMPDEST PUSH32 0x4E487B7100000000000000000000000000000000000000000000000000000000 PUSH0 MSTORE PUSH1 0x21 PUSH1 0x4 MSTORE PUSH1 0x24 PUSH0 REVERT JUMPDEST PUSH0 DUP1 REVERT JUMPDEST PUSH0 PUSH20 0xFFFFFFFFFFFFFFFFFFFFFFFFFFFFFFFFFFFFFFFF DUP3 AND SWAP1 POP SWAP2 SWAP1 POP JUMP JUMPDEST PUSH0 PUSH2 0x24A DUP3 PUSH2 0x221 JUMP JUMPDEST SWAP1 POP SWAP2 SWAP1 POP JUMP JUMPDEST PUSH2 0x25A DUP2 PUSH2 0x240 JUMP JUMPDEST DUP2 EQ PUSH2 0x264 JUMPI PUSH0 DUP1 REVERT JUMPDEST POP JUMP JUMPDEST PUSH0 DUP2 MLOAD SWAP1 POP PUSH2 0x275 DUP2 PUSH2 0x251 JUMP JUMPDEST SWAP3 SWAP2 POP POP JUMP JUMPDEST PUSH0 DUP2 SWAP1 POP SWAP2 SWAP1 POP JUMP JUMPDEST PUSH2 0x28D DUP2 PUSH2 0x27B JUMP JUMPDEST DUP2 EQ PUSH2 0x297 JUMPI PUSH0 DUP1 REVERT JUMPDEST POP JUMP JUMPDEST PUSH0 DUP2 MLOAD SWAP1 POP PUSH2 0x2A8 DUP2 PUSH2 0x284 JUMP JUMPDEST SWAP3 SWAP2 POP POP JUMP JUMPDEST PUSH0 DUP1 PUSH0 PUSH1 0x60 DUP5 DUP7 SUB SLT ISZERO PUSH2 0x2C5 JUMPI PUSH2 0x2C4 PUSH2 0x21D JUMP JUMPDEST JUMPDEST PUSH0 PUSH2 0x2D2 DUP7 DUP3 DUP8 ADD PUSH2 0x267 JUMP JUMPDEST SWAP4 POP POP PUSH1 0x20 PUSH2 0x2E3 DUP7 DUP3 DUP8 ADD PUSH2 0x29A JUMP JUMPDEST SWAP3 POP POP PUSH1 0x40 PUSH2 0x2F4 DUP7 DUP3 DUP8 ADD PUSH2 0x29A JUMP JUMPDEST SWAP2 POP POP SWAP3 POP SWAP3 POP SWAP3 JUMP JUMPDEST PUSH2 0x307 DUP2 PUSH2 0x240 JUMP JUMPDEST DUP3 MSTORE POP POP JUMP JUMPDEST PUSH0 PUSH1 0x20 DUP3 ADD SWAP1 POP PUSH2 0x320 PUSH0 DUP4 ADD DUP5 PUSH2 0x2FE JUMP JUMPDEST SWAP3 SWAP2 POP POP JUMP JUMPDEST PUSH32 0x4E487B7100000000000000000000000000000000000000000000000000000000 PUSH0 MSTORE PUSH1 0x11 PUSH1 0x4 MSTORE PUSH1 0x24 PUSH0 REVERT JUMPDEST PUSH0 PUSH2 0x35D DUP3 PUSH2 0x27B JUMP JUMPDEST SWAP2 POP PUSH2 0x368 DUP4 PUSH2 0x27B JUMP JUMPDEST SWAP3 POP DUP3 DUP3 MUL PUSH2 0x376 DUP2 PUSH2 0x27B JUMP JUMPDEST SWAP2 POP DUP3 DUP3 DIV DUP5 EQ DUP4 ISZERO OR PUSH2 0x38D JUMPI PUSH2 0x38C PUSH2 0x326 JUMP JUMPDEST JUMPDEST POP SWAP3 SWAP2 POP POP JUMP JUMPDEST PUSH0 PUSH2 0x39E DUP3 PUSH2 0x27B JUMP JUMPDEST SWAP2 POP PUSH2 0x3A9 DUP4 PUSH2 0x27B JUMP JUMPDEST SWAP3 POP DUP3 DUP3 ADD SWAP1 POP DUP1 DUP3 GT ISZERO PUSH2 0x3C1 JUMPI PUSH2 0x3C0 PUSH2 0x326 JUMP JUMPDEST JUMPDEST SWAP3 SWAP2 POP POP JUMP JUMPDEST PUSH2 0x24B3 DUP1 PUSH2 0x3D4 PUSH0 CODECOPY PUSH0 RETURN INVALID PUSH1 0x80 PUSH1 0x40 MSTORE CALLVALUE DUP1 ISZERO PUSH2 0xF JUMPI PUSH0 DUP1 REVERT JUMPDEST POP PUSH1 0x4 CALLDATASIZE LT PUSH2 0x14B JUMPI PUSH0 CALLDATALOAD PUSH1 0xE0 SHR DUP1 PUSH4 0x4E69D560 GT PUSH2 0xC1 JUMPI DUP1 PUSH4 0xBFB906A7 GT PUSH2 0x7A JUMPI DUP1 PUSH4 0xBFB906A7 EQ PUSH2 0x365 JUMPI DUP1 PUSH4 0xCB06545C EQ PUSH2 0x395 JUMPI DUP1 PUSH4 0xD19EE357 EQ PUSH2 0x3B1 JUMPI DUP1 PUSH4 0xF2FDE38B EQ PUSH2 0x3CD JUMPI DUP1 PUSH4 0xF4B1F501 EQ PUSH2 0x3E9 JUMPI DUP1 PUSH4 0xF84DDF0B EQ PUSH2 0x407 JUMPI PUSH2 0x14B JUMP JUMPDEST DUP1 PUSH4 0x4E69D560 EQ PUSH2 0x2B5 JUMPI DUP1 PUSH4 0x715018A6 EQ PUSH2 0x2D3 JUMPI DUP1 PUSH4 0x8DA5CB5B EQ PUSH2 0x2DD JUMPI DUP1 PUSH4 0xA3EC138D EQ PUSH2 0x2FB JUMPI DUP1 PUSH4 0xAAE282E1 EQ PUSH2 0x32B JUMPI DUP1 PUSH4 0xB00741CB EQ PUSH2 0x349 JUMPI PUSH2 0x14B JUMP JUMPDEST DUP1 PUSH4 0x239ECF35 GT PUSH2 0x113 JUMPI DUP1 PUSH4 0x239ECF35 EQ PUSH2 0x1F5 JUMPI DUP1 PUSH4 0x33B2DECC EQ PUSH2 0x211 JUMPI DUP1 PUSH4 0x36FBAD26 EQ PUSH2 0x22D JUMPI DUP1 PUSH4 0x379607F5 EQ PUSH2 0x24B JUMPI DUP1 PUSH4 0x38200702 EQ PUSH2 0x267 JUMPI DUP1 PUSH4 0x3885AED3 EQ PUSH2 0x297 JUMPI PUSH2 0x14B JUMP JUMPDEST DUP1 PUSH4 0x121B93F EQ PUSH2 0x14F JUMPI DUP1 PUSH4 0x2A251A3 EQ PUSH2 0x16B JUMPI DUP1 PUSH4 0xB102D1A EQ PUSH2 0x189 JUMPI DUP1 PUSH4 0xD15FD77 EQ PUSH2 0x1A5 JUMPI DUP1 PUSH4 0x107046BD EQ PUSH2 0x1C3 JUMPI JUMPDEST PUSH0 DUP1 REVERT JUMPDEST PUSH2 0x169 PUSH1 0x4 DUP1 CALLDATASIZE SUB DUP2 ADD SWAP1 PUSH2 0x164 SWAP2 SWAP1 PUSH2 0x17AF JUMP JUMPDEST PUSH2 0x425 JUMP JUMPDEST STOP JUMPDEST PUSH2 0x173 PUSH2 0x889 JUMP JUMPDEST PUSH1 0x40 MLOAD PUSH2 0x180 SWAP2 SWAP1 PUSH2 0x17E9 JUMP JUMPDEST PUSH1 0x40 MLOAD DUP1 SWAP2 SUB SWAP1 RETURN JUMPDEST PUSH2 0x1A3 PUSH1 0x4 DUP1 CALLDATASIZE SUB DUP2 ADD SWAP1 PUSH2 0x19E SWAP2 SWAP1 PUSH2 0x185C JUMP JUMPDEST PUSH2 0x88F JUMP JUMPDEST STOP JUMPDEST PUSH2 0x1AD PUSH2 0x8DA JUMP JUMPDEST PUSH1 0x40 MLOAD PUSH2 0x1BA SWAP2 SWAP1 PUSH2 0x17E9 JUMP JUMPDEST PUSH1 0x40 MLOAD DUP1 SWAP2 SUB SWAP1 RETURN JUMPDEST PUSH2 0x1DD PUSH1 0x4 DUP1 CALLDATASIZE SUB DUP2 ADD SWAP1 PUSH2 0x1D8 SWAP2 SWAP1 PUSH2 0x17AF JUMP JUMPDEST PUSH2 0x8E0 JUMP JUMPDEST PUSH1 0x40 MLOAD PUSH2 0x1EC SWAP4 SWAP3 SWAP2 SWAP1 PUSH2 0x1906 JUMP JUMPDEST PUSH1 0x40 MLOAD DUP1 SWAP2 SUB SWAP1 RETURN JUMPDEST PUSH2 0x20F PUSH1 0x4 DUP1 CALLDATASIZE SUB DUP2 ADD SWAP1 PUSH2 0x20A SWAP2 SWAP1 PUSH2 0x1A6E JUMP JUMPDEST PUSH2 0x9AB JUMP JUMPDEST STOP JUMPDEST PUSH2 0x22B PUSH1 0x4 DUP1 CALLDATASIZE SUB DUP2 ADD SWAP1 PUSH2 0x226 SWAP2 SWAP1 PUSH2 0x1AB5 JUMP JUMPDEST PUSH2 0xA85 JUMP JUMPDEST STOP JUMPDEST PUSH2 0x235 PUSH2 0xDDF JUMP JUMPDEST PUSH1 0x40 MLOAD PUSH2 0x242 SWAP2 SWAP1 PUSH2 0x17E9 JUMP JUMPDEST PUSH1 0x40 MLOAD DUP1 SWAP2 SUB SWAP1 RETURN JUMPDEST PUSH2 0x265 PUSH1 0x4 DUP1 CALLDATASIZE SUB DUP2 ADD SWAP1 PUSH2 0x260 SWAP2 SWAP1 PUSH2 0x17AF JUMP JUMPDEST PUSH2 0xDE5 JUMP JUMPDEST STOP JUMPDEST PUSH2 0x281 PUSH1 0x4 DUP1 CALLDATASIZE SUB DUP2 ADD SWAP1 PUSH2 0x27C SWAP2 SWAP1 PUSH2 0x17AF JUMP JUMPDEST PUSH2 0x106E JUMP JUMPDEST PUSH1 0x40 MLOAD PUSH2 0x28E SWAP2 SWAP1 PUSH2 0x1B1F JUMP JUMPDEST PUSH1 0x40 MLOAD DUP1 SWAP2 SUB SWAP1 RETURN JUMPDEST PUSH2 0x29F PUSH2 0x108B JUMP JUMPDEST PUSH1 0x40 MLOAD PUSH2 0x2AC SWAP2 SWAP1 PUSH2 0x17E9 JUMP JUMPDEST PUSH1 0x40 MLOAD DUP1 SWAP2 SUB SWAP1 RETURN JUMPDEST PUSH2 0x2BD PUSH2 0x1091 JUMP JUMPDEST PUSH1 0x40 MLOAD PUSH2 0x2CA SWAP2 SWAP1 PUSH2 0x17E9 JUMP JUMPDEST PUSH1 0x40 MLOAD DUP1 SWAP2 SUB SWAP1 RETURN JUMPDEST PUSH2 0x2DB PUSH2 0x10CD JUMP JUMPDEST STOP JUMPDEST PUSH2 0x2E5 PUSH2 0x10E0 JUMP JUMPDEST PUSH1 0x40 MLOAD PUSH2 0x2F2 SWAP2 SWAP1 PUSH2 0x1B38 JUMP JUMPDEST PUSH1 0x40 MLOAD DUP1 SWAP2 SUB SWAP1 RETURN JUMPDEST PUSH2 0x315 PUSH1 0x4 DUP1 CALLDATASIZE SUB DUP2 ADD SWAP1 PUSH2 0x310 SWAP2 SWAP1 PUSH2 0x185C JUMP JUMPDEST PUSH2 0x1107 JUMP JUMPDEST PUSH1 0x40 MLOAD PUSH2 0x322 SWAP2 SWAP1 PUSH2 0x17E9 JUMP JUMPDEST PUSH1 0x40 MLOAD DUP1 SWAP2 SUB SWAP1 RETURN JUMPDEST PUSH2 0x333 PUSH2 0x111C JUMP JUMPDEST PUSH1 0x40 MLOAD PUSH2 0x340 SWAP2 SWAP1 PUSH2 0x1B38 JUMP JUMPDEST PUSH1 0x40 MLOAD DUP1 SWAP2 SUB SWAP1 RETURN JUMPDEST PUSH2 0x363 PUSH1 0x4 DUP1 CALLDATASIZE SUB DUP2 ADD SWAP1 PUSH2 0x35E SWAP2 SWAP1 PUSH2 0x17AF JUMP JUMPDEST PUSH2 0x1141 JUMP JUMPDEST STOP JUMPDEST PUSH2 0x37F PUSH1 0x4 DUP1 CALLDATASIZE SUB DUP2 ADD SWAP1 PUSH2 0x37A SWAP2 SWAP1 PUSH2 0x17AF JUMP JUMPDEST PUSH2 0x11E6 JUMP JUMPDEST PUSH1 0x40 MLOAD PUSH2 0x38C SWAP2 SWAP1 PUSH2 0x1C57 JUMP JUMPDEST PUSH1 0x40 MLOAD DUP1 SWAP2 SUB SWAP1 RETURN JUMPDEST PUSH2 0x3AF PUSH1 0x4 DUP1 CALLDATASIZE SUB DUP2 ADD SWAP1 PUSH2 0x3AA SWAP2 SWAP1 PUSH2 0x17AF JUMP JUMPDEST PUSH2 0x1309 JUMP JUMPDEST STOP JUMPDEST PUSH2 0x3CB PUSH1 0x4 DUP1 CALLDATASIZE SUB DUP2 ADD SWAP1 PUSH2 0x3C6 SWAP2 SWAP1 PUSH2 0x185C JUMP JUMPDEST PUSH2 0x131B JUMP JUMPDEST STOP JUMPDEST PUSH2 0x3E7 PUSH1 0x4 DUP1 CALLDATASIZE SUB DUP2 ADD SWAP1 PUSH2 0x3E2 SWAP2 SWAP1 PUSH2 0x185C JUMP JUMPDEST PUSH2 0x14F8 JUMP JUMPDEST STOP JUMPDEST PUSH2 0x3F1 PUSH2 0x157C JUMP JUMPDEST PUSH1 0x40 MLOAD PUSH2 0x3FE SWAP2 SWAP1 PUSH2 0x17E9 JUMP JUMPDEST PUSH1 0x40 MLOAD DUP1 SWAP2 SUB SWAP1 RETURN JUMPDEST PUSH2 0x40F PUSH2 0x15CC JUMP JUMPDEST PUSH1 0x40 MLOAD PUSH2 0x41C SWAP2 SWAP1 PUSH2 0x17E9 JUMP JUMPDEST PUSH1 0x40 MLOAD DUP1 SWAP2 SUB SWAP1 RETURN JUMPDEST PUSH1 0x1 SLOAD TIMESTAMP LT ISZERO DUP1 ISZERO PUSH2 0x439 JUMPI POP PUSH1 0x2 SLOAD TIMESTAMP GT ISZERO JUMPDEST PUSH2 0x478 JUMPI PUSH1 0x40 MLOAD PUSH32 0x8C379A000000000000000000000000000000000000000000000000000000000 DUP2 MSTORE PUSH1 0x4 ADD PUSH2 0x46F SWAP1 PUSH2 0x1CC1 JUMP JUMPDEST PUSH1 0x40 MLOAD DUP1 SWAP2 SUB SWAP1 REVERT JUMPDEST DUP1 PUSH1 0x3 SLOAD LT ISZERO PUSH2 0x4BD JUMPI PUSH1 0x40 MLOAD PUSH32 0x8C379A000000000000000000000000000000000000000000000000000000000 DUP2 MSTORE PUSH1 0x4 ADD PUSH2 0x4B4 SWAP1 PUSH2 0x1D29 JUMP JUMPDEST PUSH1 0x40 MLOAD DUP1 SWAP2 SUB SWAP1 REVERT JUMPDEST PUSH0 PUSH1 0x4 PUSH0 SWAP1 SLOAD SWAP1 PUSH2 0x100 EXP SWAP1 DIV PUSH20 0xFFFFFFFFFFFFFFFFFFFFFFFFFFFFFFFFFFFFFFFF AND PUSH20 0xFFFFFFFFFFFFFFFFFFFFFFFFFFFFFFFFFFFFFFFF AND PUSH4 0x70A08231 CALLER PUSH1 0x40 MLOAD DUP3 PUSH4 0xFFFFFFFF AND PUSH1 0xE0 SHL DUP2 MSTORE PUSH1 0x4 ADD PUSH2 0x518 SWAP2 SWAP1 PUSH2 0x1B38 JUMP JUMPDEST PUSH1 0x20 PUSH1 0x40 MLOAD DUP1 DUP4 SUB DUP2 DUP7 GAS STATICCALL ISZERO DUP1 ISZERO PUSH2 0x533 JUMPI RETURNDATASIZE PUSH0 DUP1 RETURNDATACOPY RETURNDATASIZE PUSH0 REVERT JUMPDEST POP POP POP POP PUSH1 0x40 MLOAD RETURNDATASIZE PUSH1 0x1F NOT PUSH1 0x1F DUP3 ADD AND DUP3 ADD DUP1 PUSH1 0x40 MSTORE POP DUP2 ADD SWAP1 PUSH2 0x557 SWAP2 SWAP1 PUSH2 0x1D5B JUMP JUMPDEST GT PUSH2 0x597 JUMPI PUSH1 0x40 MLOAD PUSH32 0x8C379A000000000000000000000000000000000000000000000000000000000 DUP2 MSTORE PUSH1 0x4 ADD PUSH2 0x58E SWAP1 PUSH2 0x1DD0 JUMP JUMPDEST PUSH1 0x40 MLOAD DUP1 SWAP2 SUB SWAP1 REVERT JUMPDEST PUSH0 PUSH1 0x9 PUSH0 DUP4 DUP2 MSTORE PUSH1 0x20 ADD SWAP1 DUP2 MSTORE PUSH1 0x20 ADD PUSH0 KECCAK256 SWAP1 POP PUSH1 0x4 PUSH0 SWAP1 SLOAD SWAP1 PUSH2 0x100 EXP SWAP1 DIV PUSH20 0xFFFFFFFFFFFFFFFFFFFFFFFFFFFFFFFFFFFFFFFF AND PUSH20 0xFFFFFFFFFFFFFFFFFFFFFFFFFFFFFFFFFFFFFFFF AND PUSH4 0x70A08231 CALLER PUSH1 0x40 MLOAD DUP3 PUSH4 0xFFFFFFFF AND PUSH1 0xE0 SHL DUP2 MSTORE PUSH1 0x4 ADD PUSH2 0x605 SWAP2 SWAP1 PUSH2 0x1B38 JUMP JUMPDEST PUSH1 0x20 PUSH1 0x40 MLOAD DUP1 DUP4 SUB DUP2 DUP7 GAS STATICCALL ISZERO DUP1 ISZERO PUSH2 0x620 JUMPI RETURNDATASIZE PUSH0 DUP1 RETURNDATACOPY RETURNDATASIZE PUSH0 REVERT JUMPDEST POP POP POP POP PUSH1 0x40 MLOAD RETURNDATASIZE PUSH1 0x1F NOT PUSH1 0x1F DUP3 ADD AND DUP3 ADD DUP1 PUSH1 0x40 MSTORE POP DUP2 ADD SWAP1 PUSH2 0x644 SWAP2 SWAP1 PUSH2 0x1D5B JUMP JUMPDEST PUSH1 0x5 PUSH0 CALLER PUSH20 0xFFFFFFFFFFFFFFFFFFFFFFFFFFFFFFFFFFFFFFFF AND PUSH20 0xFFFFFFFFFFFFFFFFFFFFFFFFFFFFFFFFFFFFFFFF AND DUP2 MSTORE PUSH1 0x20 ADD SWAP1 DUP2 MSTORE PUSH1 0x20 ADD PUSH0 KECCAK256 SLOAD LT PUSH2 0x6C2 JUMPI PUSH1 0x40 MLOAD PUSH32 0x8C379A000000000000000000000000000000000000000000000000000000000 DUP2 MSTORE PUSH1 0x4 ADD PUSH2 0x6B9 SWAP1 PUSH2 0x1E38 JUMP JUMPDEST PUSH1 0x40 MLOAD DUP1 SWAP2 SUB SWAP1 REVERT JUMPDEST PUSH0 JUMPDEST PUSH1 0x7 SLOAD DUP2 GT PUSH2 0x884 JUMPI CALLER PUSH20 0xFFFFFFFFFFFFFFFFFFFFFFFFFFFFFFFFFFFFFFFF AND PUSH1 0x4 PUSH0 SWAP1 SLOAD SWAP1 PUSH2 0x100 EXP SWAP1 DIV PUSH20 0xFFFFFFFFFFFFFFFFFFFFFFFFFFFFFFFFFFFFFFFF AND PUSH20 0xFFFFFFFFFFFFFFFFFFFFFFFFFFFFFFFFFFFFFFFF AND PUSH4 0x6352211E DUP4 PUSH1 0x40 MLOAD DUP3 PUSH4 0xFFFFFFFF AND PUSH1 0xE0 SHL DUP2 MSTORE PUSH1 0x4 ADD PUSH2 0x73E SWAP2 SWAP1 PUSH2 0x17E9 JUMP JUMPDEST PUSH1 0x20 PUSH1 0x40 MLOAD DUP1 DUP4 SUB DUP2 DUP7 GAS STATICCALL ISZERO DUP1 ISZERO PUSH2 0x759 JUMPI RETURNDATASIZE PUSH0 DUP1 RETURNDATACOPY RETURNDATASIZE PUSH0 REVERT JUMPDEST POP POP POP POP PUSH1 0x40 MLOAD RETURNDATASIZE PUSH1 0x1F NOT PUSH1 0x1F DUP3 ADD AND DUP3 ADD DUP1 PUSH1 0x40 MSTORE POP DUP2 ADD SWAP1 PUSH2 0x77D SWAP2 SWAP1 PUSH2 0x1E6A JUMP JUMPDEST PUSH20 0xFFFFFFFFFFFFFFFFFFFFFFFFFFFFFFFFFFFFFFFF AND SUB PUSH2 0x871 JUMPI PUSH0 ISZERO ISZERO PUSH1 0x8 PUSH0 DUP4 DUP2 MSTORE PUSH1 0x20 ADD SWAP1 DUP2 MSTORE PUSH1 0x20 ADD PUSH0 KECCAK256 PUSH0 SWAP1 SLOAD SWAP1 PUSH2 0x100 EXP SWAP1 DIV PUSH1 0xFF AND ISZERO ISZERO SUB PUSH2 0x870 JUMPI PUSH1 0x5 PUSH0 CALLER PUSH20 0xFFFFFFFFFFFFFFFFFFFFFFFFFFFFFFFFFFFFFFFF AND PUSH20 0xFFFFFFFFFFFFFFFFFFFFFFFFFFFFFFFFFFFFFFFF AND DUP2 MSTORE PUSH1 0x20 ADD SWAP1 DUP2 MSTORE PUSH1 0x20 ADD PUSH0 KECCAK256 PUSH0 DUP2 SLOAD DUP1 SWAP3 SWAP2 SWAP1 PUSH2 0x80D SWAP1 PUSH2 0x1EC2 JUMP JUMPDEST SWAP2 SWAP1 POP SSTORE POP DUP2 PUSH1 0x3 ADD PUSH0 DUP2 SLOAD DUP1 SWAP3 SWAP2 SWAP1 PUSH2 0x826 SWAP1 PUSH2 0x1EC2 JUMP JUMPDEST SWAP2 SWAP1 POP SSTORE POP PUSH1 0x6 PUSH0 DUP2 SLOAD DUP1 SWAP3 SWAP2 SWAP1 PUSH2 0x83D SWAP1 PUSH2 0x1EC2 JUMP JUMPDEST SWAP2 SWAP1 POP SSTORE POP PUSH1 0x1 PUSH1 0x8 PUSH0 DUP4 DUP2 MSTORE PUSH1 0x20 ADD SWAP1 DUP2 MSTORE PUSH1 0x20 ADD PUSH0 KECCAK256 PUSH0 PUSH2 0x100 EXP DUP2 SLOAD DUP2 PUSH1 0xFF MUL NOT AND SWAP1 DUP4 ISZERO ISZERO MUL OR SWAP1 SSTORE POP PUSH2 0x884 JUMP JUMPDEST JUMPDEST DUP1 DUP1 PUSH2 0x87C SWAP1 PUSH2 0x1EC2 JUMP JUMPDEST SWAP2 POP POP PUSH2 0x6C4 JUMP JUMPDEST POP POP POP JUMP JUMPDEST PUSH1 0x2 SLOAD DUP2 JUMP JUMPDEST PUSH2 0x897 PUSH2 0x15D2 JUMP JUMPDEST DUP1 PUSH1 0x4 PUSH0 PUSH2 0x100 EXP DUP2 SLOAD DUP2 PUSH20 0xFFFFFFFFFFFFFFFFFFFFFFFFFFFFFFFFFFFFFFFF MUL NOT AND SWAP1 DUP4 PUSH20 0xFFFFFFFFFFFFFFFFFFFFFFFFFFFFFFFFFFFFFFFF AND MUL OR SWAP1 SSTORE POP POP JUMP JUMPDEST PUSH1 0x6 SLOAD DUP2 JUMP JUMPDEST PUSH1 0x9 PUSH1 0x20 MSTORE DUP1 PUSH0 MSTORE PUSH1 0x40 PUSH0 KECCAK256 PUSH0 SWAP2 POP SWAP1 POP DUP1 PUSH0 ADD DUP1 SLOAD PUSH2 0x8FF SWAP1 PUSH2 0x1F36 JUMP JUMPDEST DUP1 PUSH1 0x1F ADD PUSH1 0x20 DUP1 SWAP2 DIV MUL PUSH1 0x20 ADD PUSH1 0x40 MLOAD SWAP1 DUP2 ADD PUSH1 0x40 MSTORE DUP1 SWAP3 SWAP2 SWAP1 DUP2 DUP2 MSTORE PUSH1 0x20 ADD DUP3 DUP1 SLOAD PUSH2 0x92B SWAP1 PUSH2 0x1F36 JUMP JUMPDEST DUP1 ISZERO PUSH2 0x976 JUMPI DUP1 PUSH1 0x1F LT PUSH2 0x94D JUMPI PUSH2 0x100 DUP1 DUP4 SLOAD DIV MUL DUP4 MSTORE SWAP2 PUSH1 0x20 ADD SWAP2 PUSH2 0x976 JUMP JUMPDEST DUP3 ADD SWAP2 SWAP1 PUSH0 MSTORE PUSH1 0x20 PUSH0 KECCAK256 SWAP1 JUMPDEST DUP2 SLOAD DUP2 MSTORE SWAP1 PUSH1 0x1 ADD SWAP1 PUSH1 0x20 ADD DUP1 DUP4 GT PUSH2 0x959 JUMPI DUP3 SWAP1 SUB PUSH1 0x1F AND DUP3 ADD SWAP2 JUMPDEST POP POP POP POP POP SWAP1 DUP1 PUSH1 0x1 ADD PUSH0 SWAP1 SLOAD SWAP1 PUSH2 0x100 EXP SWAP1 DIV PUSH20 0xFFFFFFFFFFFFFFFFFFFFFFFFFFFFFFFFFFFFFFFF AND SWAP1 DUP1 PUSH1 0x3 ADD SLOAD SWAP1 POP DUP4 JUMP JUMPDEST PUSH2 0x9B3 PUSH2 0x15D2 JUMP JUMPDEST PUSH1 0x1 SLOAD TIMESTAMP GT ISZERO PUSH2 0x9F8 JUMPI PUSH1 0x40 MLOAD PUSH32 0x8C379A000000000000000000000000000000000000000000000000000000000 DUP2 MSTORE PUSH1 0x4 ADD PUSH2 0x9EF SWAP1 PUSH2 0x1CC1 JUMP JUMPDEST PUSH1 0x40 MLOAD DUP1 SWAP2 SUB SWAP1 REVERT JUMPDEST PUSH1 0x3 PUSH0 DUP2 SLOAD DUP1 SWAP3 SWAP2 SWAP1 PUSH2 0xA0A SWAP1 PUSH2 0x1EC2 JUMP JUMPDEST SWAP2 SWAP1 POP SSTORE POP PUSH0 PUSH1 0x9 PUSH0 PUSH1 0x3 SLOAD DUP2 MSTORE PUSH1 0x20 ADD SWAP1 DUP2 MSTORE PUSH1 0x20 ADD PUSH0 KECCAK256 SWAP1 POP DUP2 DUP2 PUSH0 ADD SWAP1 DUP2 PUSH2 0xA35 SWAP2 SWAP1 PUSH2 0x2103 JUMP JUMPDEST POP CALLER DUP2 PUSH1 0x1 ADD PUSH0 PUSH2 0x100 EXP DUP2 SLOAD DUP2 PUSH20 0xFFFFFFFFFFFFFFFFFFFFFFFFFFFFFFFFFFFFFFFF MUL NOT AND SWAP1 DUP4 PUSH20 0xFFFFFFFFFFFFFFFFFFFFFFFFFFFFFFFFFFFFFFFF AND MUL OR SWAP1 SSTORE POP PUSH0 DUP2 PUSH1 0x3 ADD DUP2 SWAP1 SSTORE POP POP POP JUMP JUMPDEST PUSH1 0x1 SLOAD TIMESTAMP GT ISZERO PUSH2 0xACA JUMPI PUSH1 0x40 MLOAD PUSH32 0x8C379A000000000000000000000000000000000000000000000000000000000 DUP2 MSTORE PUSH1 0x4 ADD PUSH2 0xAC1 SWAP1 PUSH2 0x1CC1 JUMP JUMPDEST PUSH1 0x40 MLOAD DUP1 SWAP2 SUB SWAP1 REVERT JUMPDEST PUSH0 DUP2 GT PUSH2 0xB0C JUMPI PUSH1 0x40 MLOAD PUSH32 0x8C379A000000000000000000000000000000000000000000000000000000000 DUP2 MSTORE PUSH1 0x4 ADD PUSH2 0xB03 SWAP1 PUSH2 0x221C JUMP JUMPDEST PUSH1 0x40 MLOAD DUP1 SWAP2 SUB SWAP1 REVERT JUMPDEST DUP1 DUP3 PUSH20 0xFFFFFFFFFFFFFFFFFFFFFFFFFFFFFFFFFFFFFFFF AND PUSH4 0x70A08231 CALLER PUSH1 0x40 MLOAD DUP3 PUSH4 0xFFFFFFFF AND PUSH1 0xE0 SHL DUP2 MSTORE PUSH1 0x4 ADD PUSH2 0xB46 SWAP2 SWAP1 PUSH2 0x1B38 JUMP JUMPDEST PUSH1 0x20 PUSH1 0x40 MLOAD DUP1 DUP4 SUB DUP2 DUP7 GAS STATICCALL ISZERO DUP1 ISZERO PUSH2 0xB61 JUMPI RETURNDATASIZE PUSH0 DUP1 RETURNDATACOPY RETURNDATASIZE PUSH0 REVERT JUMPDEST POP POP POP POP PUSH1 0x40 MLOAD RETURNDATASIZE PUSH1 0x1F NOT PUSH1 0x1F DUP3 ADD AND DUP3 ADD DUP1 PUSH1 0x40 MSTORE POP DUP2 ADD SWAP1 PUSH2 0xB85 SWAP2 SWAP1 PUSH2 0x1D5B JUMP JUMPDEST LT ISZERO PUSH2 0xBC6 JUMPI PUSH1 0x40 MLOAD PUSH32 0x8C379A000000000000000000000000000000000000000000000000000000000 DUP2 MSTORE PUSH1 0x4 ADD PUSH2 0xBBD SWAP1 PUSH2 0x2284 JUMP JUMPDEST PUSH1 0x40 MLOAD DUP1 SWAP2 SUB SWAP1 REVERT JUMPDEST DUP2 PUSH20 0xFFFFFFFFFFFFFFFFFFFFFFFFFFFFFFFFFFFFFFFF AND PUSH4 0x23B872DD CALLER ADDRESS DUP5 PUSH1 0x40 MLOAD DUP5 PUSH4 0xFFFFFFFF AND PUSH1 0xE0 SHL DUP2 MSTORE PUSH1 0x4 ADD PUSH2 0xC03 SWAP4 SWAP3 SWAP2 SWAP1 PUSH2 0x22A2 JUMP JUMPDEST PUSH1 0x20 PUSH1 0x40 MLOAD DUP1 DUP4 SUB DUP2 PUSH0 DUP8 GAS CALL ISZERO DUP1 ISZERO PUSH2 0xC1F JUMPI RETURNDATASIZE PUSH0 DUP1 RETURNDATACOPY RETURNDATASIZE PUSH0 REVERT JUMPDEST POP POP POP POP PUSH1 0x40 MLOAD RETURNDATASIZE PUSH1 0x1F NOT PUSH1 0x1F DUP3 ADD AND DUP3 ADD DUP1 PUSH1 0x40 MSTORE POP DUP2 ADD SWAP1 PUSH2 0xC43 SWAP2 SWAP1 PUSH2 0x2301 JUMP JUMPDEST PUSH2 0xC82 JUMPI PUSH1 0x40 MLOAD PUSH32 0x8C379A000000000000000000000000000000000000000000000000000000000 DUP2 MSTORE PUSH1 0x4 ADD PUSH2 0xC79 SWAP1 PUSH2 0x2376 JUMP JUMPDEST PUSH1 0x40 MLOAD DUP1 SWAP2 SUB SWAP1 REVERT JUMPDEST PUSH0 PUSH1 0x9 PUSH0 DUP6 DUP2 MSTORE PUSH1 0x20 ADD SWAP1 DUP2 MSTORE PUSH1 0x20 ADD PUSH0 KECCAK256 SWAP1 POP PUSH2 0xC9E PUSH2 0x1721 JUMP JUMPDEST CALLER DUP2 PUSH0 ADD SWAP1 PUSH20 0xFFFFFFFFFFFFFFFFFFFFFFFFFFFFFFFFFFFFFFFF AND SWAP1 DUP2 PUSH20 0xFFFFFFFFFFFFFFFFFFFFFFFFFFFFFFFFFFFFFFFF AND DUP2 MSTORE POP POP DUP4 DUP2 PUSH1 0x20 ADD SWAP1 PUSH20 0xFFFFFFFFFFFFFFFFFFFFFFFFFFFFFFFFFFFFFFFF AND SWAP1 DUP2 PUSH20 0xFFFFFFFFFFFFFFFFFFFFFFFFFFFFFFFFFFFFFFFF AND DUP2 MSTORE POP POP DUP3 DUP2 PUSH1 0x40 ADD DUP2 DUP2 MSTORE POP POP DUP2 PUSH1 0x2 ADD DUP2 SWAP1 DUP1 PUSH1 0x1 DUP2 SLOAD ADD DUP1 DUP3 SSTORE DUP1 SWAP2 POP POP PUSH1 0x1 SWAP1 SUB SWAP1 PUSH0 MSTORE PUSH1 0x20 PUSH0 KECCAK256 SWAP1 PUSH1 0x3 MUL ADD PUSH0 SWAP1 SWAP2 SWAP1 SWAP2 SWAP1 SWAP2 POP PUSH0 DUP3 ADD MLOAD DUP2 PUSH0 ADD PUSH0 PUSH2 0x100 EXP DUP2 SLOAD DUP2 PUSH20 0xFFFFFFFFFFFFFFFFFFFFFFFFFFFFFFFFFFFFFFFF MUL NOT AND SWAP1 DUP4 PUSH20 0xFFFFFFFFFFFFFFFFFFFFFFFFFFFFFFFFFFFFFFFF AND MUL OR SWAP1 SSTORE POP PUSH1 0x20 DUP3 ADD MLOAD DUP2 PUSH1 0x1 ADD PUSH0 PUSH2 0x100 EXP DUP2 SLOAD DUP2 PUSH20 0xFFFFFFFFFFFFFFFFFFFFFFFFFFFFFFFFFFFFFFFF MUL NOT AND SWAP1 DUP4 PUSH20 0xFFFFFFFFFFFFFFFFFFFFFFFFFFFFFFFFFFFFFFFF AND MUL OR SWAP1 SSTORE POP PUSH1 0x40 DUP3 ADD MLOAD DUP2 PUSH1 0x2 ADD SSTORE POP POP POP POP POP POP POP JUMP JUMPDEST PUSH1 0x3 SLOAD DUP2 JUMP JUMPDEST PUSH1 0x2 SLOAD TIMESTAMP LT ISZERO PUSH2 0xE2A JUMPI PUSH1 0x40 MLOAD PUSH32 0x8C379A000000000000000000000000000000000000000000000000000000000 DUP2 MSTORE PUSH1 0x4 ADD PUSH2 0xE21 SWAP1 PUSH2 0x1CC1 JUMP JUMPDEST PUSH1 0x40 MLOAD DUP1 SWAP2 SUB SWAP1 REVERT JUMPDEST PUSH2 0xE32 PUSH2 0x157C JUMP JUMPDEST DUP2 SUB PUSH2 0xE73 JUMPI PUSH1 0x40 MLOAD PUSH32 0x8C379A000000000000000000000000000000000000000000000000000000000 DUP2 MSTORE PUSH1 0x4 ADD PUSH2 0xE6A SWAP1 PUSH2 0x23DE JUMP JUMPDEST PUSH1 0x40 MLOAD DUP1 SWAP2 SUB SWAP1 REVERT JUMPDEST PUSH0 PUSH1 0x9 PUSH0 DUP4 DUP2 MSTORE PUSH1 0x20 ADD SWAP1 DUP2 MSTORE PUSH1 0x20 ADD PUSH0 KECCAK256 SWAP1 POP PUSH0 JUMPDEST DUP2 PUSH1 0x2 ADD DUP1 SLOAD SWAP1 POP DUP2 LT ISZERO PUSH2 0x1069 JUMPI CALLER PUSH20 0xFFFFFFFFFFFFFFFFFFFFFFFFFFFFFFFFFFFFFFFF AND DUP3 PUSH1 0x2 ADD DUP3 DUP2 SLOAD DUP2 LT PUSH2 0xEC5 JUMPI PUSH2 0xEC4 PUSH2 0x23FC JUMP JUMPDEST JUMPDEST SWAP1 PUSH0 MSTORE PUSH1 0x20 PUSH0 KECCAK256 SWAP1 PUSH1 0x3 MUL ADD PUSH0 ADD PUSH0 SWAP1 SLOAD SWAP1 PUSH2 0x100 EXP SWAP1 DIV PUSH20 0xFFFFFFFFFFFFFFFFFFFFFFFFFFFFFFFFFFFFFFFF AND PUSH20 0xFFFFFFFFFFFFFFFFFFFFFFFFFFFFFFFFFFFFFFFF AND SUB PUSH2 0x105C JUMPI DUP2 PUSH1 0x2 ADD DUP2 DUP2 SLOAD DUP2 LT PUSH2 0xF24 JUMPI PUSH2 0xF23 PUSH2 0x23FC JUMP JUMPDEST JUMPDEST SWAP1 PUSH0 MSTORE PUSH1 0x20 PUSH0 KECCAK256 SWAP1 PUSH1 0x3 MUL ADD PUSH1 0x1 ADD PUSH0 SWAP1 SLOAD SWAP1 PUSH2 0x100 EXP SWAP1 DIV PUSH20 0xFFFFFFFFFFFFFFFFFFFFFFFFFFFFFFFFFFFFFFFF AND PUSH20 0xFFFFFFFFFFFFFFFFFFFFFFFFFFFFFFFFFFFFFFFF AND PUSH4 0xA9059CBB CALLER DUP5 PUSH1 0x2 ADD DUP5 DUP2 SLOAD DUP2 LT PUSH2 0xF85 JUMPI PUSH2 0xF84 PUSH2 0x23FC JUMP JUMPDEST JUMPDEST SWAP1 PUSH0 MSTORE PUSH1 0x20 PUSH0 KECCAK256 SWAP1 PUSH1 0x3 MUL ADD PUSH1 0x2 ADD SLOAD PUSH1 0x40 MLOAD DUP4 PUSH4 0xFFFFFFFF AND PUSH1 0xE0 SHL DUP2 MSTORE PUSH1 0x4 ADD PUSH2 0xFB2 SWAP3 SWAP2 SWAP1 PUSH2 0x2429 JUMP JUMPDEST PUSH1 0x20 PUSH1 0x40 MLOAD DUP1 DUP4 SUB DUP2 PUSH0 DUP8 GAS CALL ISZERO DUP1 ISZERO PUSH2 0xFCE JUMPI RETURNDATASIZE PUSH0 DUP1 RETURNDATACOPY RETURNDATASIZE PUSH0 REVERT JUMPDEST POP POP POP POP PUSH1 0x40 MLOAD RETURNDATASIZE PUSH1 0x1F NOT PUSH1 0x1F DUP3 ADD AND DUP3 ADD DUP1 PUSH1 0x40 MSTORE POP DUP2 ADD SWAP1 PUSH2 0xFF2 SWAP2 SWAP1 PUSH2 0x2301 JUMP JUMPDEST PUSH2 0x1031 JUMPI PUSH1 0x40 MLOAD PUSH32 0x8C379A000000000000000000000000000000000000000000000000000000000 DUP2 MSTORE PUSH1 0x4 ADD PUSH2 0x1028 SWAP1 PUSH2 0x2376 JUMP JUMPDEST PUSH1 0x40 MLOAD DUP1 SWAP2 SUB SWAP1 REVERT JUMPDEST PUSH0 DUP3 PUSH1 0x2 ADD DUP3 DUP2 SLOAD DUP2 LT PUSH2 0x1048 JUMPI PUSH2 0x1047 PUSH2 0x23FC JUMP JUMPDEST JUMPDEST SWAP1 PUSH0 MSTORE PUSH1 0x20 PUSH0 KECCAK256 SWAP1 PUSH1 0x3 MUL ADD PUSH1 0x2 ADD DUP2 SWAP1 SSTORE POP JUMPDEST DUP1 DUP1 PUSH1 0x1 ADD SWAP2 POP POP PUSH2 0xE89 JUMP JUMPDEST POP POP POP JUMP JUMPDEST PUSH1 0x8 PUSH1 0x20 MSTORE DUP1 PUSH0 MSTORE PUSH1 0x40 PUSH0 KECCAK256 PUSH0 SWAP2 POP SLOAD SWAP1 PUSH2 0x100 EXP SWAP1 DIV PUSH1 0xFF AND DUP2 JUMP JUMPDEST PUSH1 0x1 SLOAD DUP2 JUMP JUMPDEST PUSH0 PUSH1 0x1 SLOAD TIMESTAMP GT PUSH2 0x10A3 JUMPI PUSH0 SWAP1 POP PUSH2 0x10CA JUMP JUMPDEST PUSH1 0x1 SLOAD TIMESTAMP LT ISZERO DUP1 ISZERO PUSH2 0x10B7 JUMPI POP PUSH1 0x2 SLOAD TIMESTAMP GT ISZERO JUMPDEST ISZERO PUSH2 0x10C5 JUMPI PUSH1 0x1 SWAP1 POP PUSH2 0x10CA JUMP JUMPDEST PUSH1 0x2 SWAP1 POP JUMPDEST SWAP1 JUMP JUMPDEST PUSH2 0x10D5 PUSH2 0x15D2 JUMP JUMPDEST PUSH2 0x10DE PUSH0 PUSH2 0x1659 JUMP JUMPDEST JUMP JUMPDEST PUSH0 DUP1 PUSH0 SWAP1 SLOAD SWAP1 PUSH2 0x100 EXP SWAP1 DIV PUSH20 0xFFFFFFFFFFFFFFFFFFFFFFFFFFFFFFFFFFFFFFFF AND SWAP1 POP SWAP1 JUMP JUMPDEST PUSH1 0x5 PUSH1 0x20 MSTORE DUP1 PUSH0 MSTORE PUSH1 0x40 PUSH0 KECCAK256 PUSH0 SWAP2 POP SWAP1 POP SLOAD DUP2 JUMP JUMPDEST PUSH1 0x4 PUSH0 SWAP1 SLOAD SWAP1 PUSH2 0x100 EXP SWAP1 DIV PUSH20 0xFFFFFFFFFFFFFFFFFFFFFFFFFFFFFFFFFFFFFFFF AND DUP2 JUMP JUMPDEST PUSH2 0x1149 PUSH2 0x15D2 JUMP JUMPDEST PUSH0 DUP2 SUB PUSH2 0x117B JUMPI PUSH0 PUSH1 0x4 PUSH1 0x14 PUSH2 0x100 EXP DUP2 SLOAD DUP2 PUSH1 0xFF MUL NOT AND SWAP1 DUP4 PUSH1 0x2 DUP2 GT ISZERO PUSH2 0x1175 JUMPI PUSH2 0x1174 PUSH2 0x2450 JUMP JUMPDEST JUMPDEST MUL OR SWAP1 SSTORE POP JUMPDEST PUSH1 0x1 DUP2 SUB PUSH2 0x11AF JUMPI PUSH1 0x1 PUSH1 0x4 PUSH1 0x14 PUSH2 0x100 EXP DUP2 SLOAD DUP2 PUSH1 0xFF MUL NOT AND SWAP1 DUP4 PUSH1 0x2 DUP2 GT ISZERO PUSH2 0x11A9 JUMPI PUSH2 0x11A8 PUSH2 0x2450 JUMP JUMPDEST JUMPDEST MUL OR SWAP1 SSTORE POP JUMPDEST PUSH1 0x2 DUP2 SUB PUSH2 0x11E3 JUMPI PUSH1 0x2 PUSH1 0x4 PUSH1 0x14 PUSH2 0x100 EXP DUP2 SLOAD DUP2 PUSH1 0xFF MUL NOT AND SWAP1 DUP4 PUSH1 0x2 DUP2 GT ISZERO PUSH2 0x11DD JUMPI PUSH2 0x11DC PUSH2 0x2450 JUMP JUMPDEST JUMPDEST MUL OR SWAP1 SSTORE POP JUMPDEST POP JUMP JUMPDEST PUSH1 0x60 PUSH1 0x9 PUSH0 DUP4 DUP2 MSTORE PUSH1 0x20 ADD SWAP1 DUP2 MSTORE PUSH1 0x20 ADD PUSH0 KECCAK256 PUSH1 0x2 ADD DUP1 SLOAD DUP1 PUSH1 0x20 MUL PUSH1 0x20 ADD PUSH1 0x40 MLOAD SWAP1 DUP2 ADD PUSH1 0x40 MSTORE DUP1 SWAP3 SWAP2 SWAP1 DUP2 DUP2 MSTORE PUSH1 0x20 ADD PUSH0 SWAP1 JUMPDEST DUP3 DUP3 LT ISZERO PUSH2 0x12FE JUMPI DUP4 DUP3 SWAP1 PUSH0 MSTORE PUSH1 0x20 PUSH0 KECCAK256 SWAP1 PUSH1 0x3 MUL ADD PUSH1 0x40 MLOAD DUP1 PUSH1 0x60 ADD PUSH1 0x40 MSTORE SWAP1 DUP2 PUSH0 DUP3 ADD PUSH0 SWAP1 SLOAD SWAP1 PUSH2 0x100 EXP SWAP1 DIV PUSH20 0xFFFFFFFFFFFFFFFFFFFFFFFFFFFFFFFFFFFFFFFF AND PUSH20 0xFFFFFFFFFFFFFFFFFFFFFFFFFFFFFFFFFFFFFFFF AND PUSH20 0xFFFFFFFFFFFFFFFFFFFFFFFFFFFFFFFFFFFFFFFF AND DUP2 MSTORE PUSH1 0x20 ADD PUSH1 0x1 DUP3 ADD PUSH0 SWAP1 SLOAD SWAP1 PUSH2 0x100 EXP SWAP1 DIV PUSH20 0xFFFFFFFFFFFFFFFFFFFFFFFFFFFFFFFFFFFFFFFF AND PUSH20 0xFFFFFFFFFFFFFFFFFFFFFFFFFFFFFFFFFFFFFFFF AND PUSH20 0xFFFFFFFFFFFFFFFFFFFFFFFFFFFFFFFFFFFFFFFF AND DUP2 MSTORE PUSH1 0x20 ADD PUSH1 0x2 DUP3 ADD SLOAD DUP2 MSTORE POP POP DUP2 MSTORE PUSH1 0x20 ADD SWAP1 PUSH1 0x1 ADD SWAP1 PUSH2 0x121B JUMP JUMPDEST POP POP POP POP SWAP1 POP SWAP2 SWAP1 POP JUMP JUMPDEST PUSH2 0x1311 PUSH2 0x15D2 JUMP JUMPDEST DUP1 PUSH1 0x7 DUP2 SWAP1 SSTORE POP POP JUMP JUMPDEST PUSH2 0x1323 PUSH2 0x15D2 JUMP JUMPDEST PUSH1 0x2 SLOAD TIMESTAMP LT ISZERO PUSH2 0x1368 JUMPI PUSH1 0x40 MLOAD PUSH32 0x8C379A000000000000000000000000000000000000000000000000000000000 DUP2 MSTORE PUSH1 0x4 ADD PUSH2 0x135F SWAP1 PUSH2 0x1CC1 JUMP JUMPDEST PUSH1 0x40 MLOAD DUP1 SWAP2 SUB SWAP1 REVERT JUMPDEST PUSH0 PUSH2 0x1371 PUSH2 0x157C JUMP JUMPDEST SWAP1 POP PUSH0 PUSH1 0x9 PUSH0 DUP4 DUP2 MSTORE PUSH1 0x20 ADD SWAP1 DUP2 MSTORE PUSH1 0x20 ADD PUSH0 KECCAK256 SWAP1 POP PUSH0 JUMPDEST DUP2 PUSH1 0x2 ADD DUP1 SLOAD SWAP1 POP DUP2 LT ISZERO PUSH2 0x14F2 JUMPI DUP2 PUSH1 0x2 ADD DUP2 DUP2 SLOAD DUP2 LT PUSH2 0x13AE JUMPI PUSH2 0x13AD PUSH2 0x23FC JUMP JUMPDEST JUMPDEST SWAP1 PUSH0 MSTORE PUSH1 0x20 PUSH0 KECCAK256 SWAP1 PUSH1 0x3 MUL ADD PUSH1 0x1 ADD PUSH0 SWAP1 SLOAD SWAP1 PUSH2 0x100 EXP SWAP1 DIV PUSH20 0xFFFFFFFFFFFFFFFFFFFFFFFFFFFFFFFFFFFFFFFF AND PUSH20 0xFFFFFFFFFFFFFFFFFFFFFFFFFFFFFFFFFFFFFFFF AND PUSH4 0xA9059CBB DUP6 DUP5 PUSH1 0x2 ADD DUP5 DUP2 SLOAD DUP2 LT PUSH2 0x140F JUMPI PUSH2 0x140E PUSH2 0x23FC JUMP JUMPDEST JUMPDEST SWAP1 PUSH0 MSTORE PUSH1 0x20 PUSH0 KECCAK256 SWAP1 PUSH1 0x3 MUL ADD PUSH1 0x2 ADD SLOAD PUSH1 0x40 MLOAD DUP4 PUSH4 0xFFFFFFFF AND PUSH1 0xE0 SHL DUP2 MSTORE PUSH1 0x4 ADD PUSH2 0x143C SWAP3 SWAP2 SWAP1 PUSH2 0x2429 JUMP JUMPDEST PUSH1 0x20 PUSH1 0x40 MLOAD DUP1 DUP4 SUB DUP2 PUSH0 DUP8 GAS CALL ISZERO DUP1 ISZERO PUSH2 0x1458 JUMPI RETURNDATASIZE PUSH0 DUP1 RETURNDATACOPY RETURNDATASIZE PUSH0 REVERT JUMPDEST POP POP POP POP PUSH1 0x40 MLOAD RETURNDATASIZE PUSH1 0x1F NOT PUSH1 0x1F DUP3 ADD AND DUP3 ADD DUP1 PUSH1 0x40 MSTORE POP DUP2 ADD SWAP1 PUSH2 0x147C SWAP2 SWAP1 PUSH2 0x2301 JUMP JUMPDEST PUSH2 0x14BB JUMPI PUSH1 0x40 MLOAD PUSH32 0x8C379A000000000000000000000000000000000000000000000000000000000 DUP2 MSTORE PUSH1 0x4 ADD PUSH2 0x14B2 SWAP1 PUSH2 0x2376 JUMP JUMPDEST PUSH1 0x40 MLOAD DUP1 SWAP2 SUB SWAP1 REVERT JUMPDEST PUSH0 DUP3 PUSH1 0x2 ADD DUP3 DUP2 SLOAD DUP2 LT PUSH2 0x14D2 JUMPI PUSH2 0x14D1 PUSH2 0x23FC JUMP JUMPDEST JUMPDEST SWAP1 PUSH0 MSTORE PUSH1 0x20 PUSH0 KECCAK256 SWAP1 PUSH1 0x3 MUL ADD PUSH1 0x2 ADD DUP2 SWAP1 SSTORE POP DUP1 DUP1 PUSH1 0x1 ADD SWAP2 POP POP PUSH2 0x1389 JUMP JUMPDEST POP POP POP POP JUMP JUMPDEST PUSH2 0x1500 PUSH2 0x15D2 JUMP JUMPDEST PUSH0 PUSH20 0xFFFFFFFFFFFFFFFFFFFFFFFFFFFFFFFFFFFFFFFF AND DUP2 PUSH20 0xFFFFFFFFFFFFFFFFFFFFFFFFFFFFFFFFFFFFFFFF AND SUB PUSH2 0x1570 JUMPI PUSH0 PUSH1 0x40 MLOAD PUSH32 0x1E4FBDF700000000000000000000000000000000000000000000000000000000 DUP2 MSTORE PUSH1 0x4 ADD PUSH2 0x1567 SWAP2 SWAP1 PUSH2 0x1B38 JUMP JUMPDEST PUSH1 0x40 MLOAD DUP1 SWAP2 SUB SWAP1 REVERT JUMPDEST PUSH2 0x1579 DUP2 PUSH2 0x1659 JUMP JUMPDEST POP JUMP JUMPDEST PUSH0 DUP1 PUSH1 0x1 SWAP1 POP PUSH0 PUSH1 0x1 SWAP1 POP JUMPDEST PUSH1 0x3 SLOAD DUP2 GT PUSH2 0x15C4 JUMPI DUP2 PUSH1 0x9 PUSH0 DUP4 DUP2 MSTORE PUSH1 0x20 ADD SWAP1 DUP2 MSTORE PUSH1 0x20 ADD PUSH0 KECCAK256 PUSH1 0x3 ADD SLOAD GT ISZERO PUSH2 0x15B1 JUMPI DUP1 SWAP2 POP JUMPDEST DUP1 DUP1 PUSH2 0x15BC SWAP1 PUSH2 0x1EC2 JUMP JUMPDEST SWAP2 POP POP PUSH2 0x1588 JUMP JUMPDEST POP DUP1 SWAP2 POP POP SWAP1 JUMP JUMPDEST PUSH1 0x7 SLOAD DUP2 JUMP JUMPDEST PUSH2 0x15DA PUSH2 0x171A JUMP JUMPDEST PUSH20 0xFFFFFFFFFFFFFFFFFFFFFFFFFFFFFFFFFFFFFFFF AND PUSH2 0x15F8 PUSH2 0x10E0 JUMP JUMPDEST PUSH20 0xFFFFFFFFFFFFFFFFFFFFFFFFFFFFFFFFFFFFFFFF AND EQ PUSH2 0x1657 JUMPI PUSH2 0x161B PUSH2 0x171A JUMP JUMPDEST PUSH1 0x40 MLOAD PUSH32 0x118CDAA700000000000000000000000000000000000000000000000000000000 DUP2 MSTORE PUSH1 0x4 ADD PUSH2 0x164E SWAP2 SWAP1 PUSH2 0x1B38 JUMP JUMPDEST PUSH1 0x40 MLOAD DUP1 SWAP2 SUB SWAP1 REVERT JUMPDEST JUMP JUMPDEST PUSH0 DUP1 PUSH0 SWAP1 SLOAD SWAP1 PUSH2 0x100 EXP SWAP1 DIV PUSH20 0xFFFFFFFFFFFFFFFFFFFFFFFFFFFFFFFFFFFFFFFF AND SWAP1 POP DUP2 PUSH0 DUP1 PUSH2 0x100 EXP DUP2 SLOAD DUP2 PUSH20 0xFFFFFFFFFFFFFFFFFFFFFFFFFFFFFFFFFFFFFFFF MUL NOT AND SWAP1 DUP4 PUSH20 0xFFFFFFFFFFFFFFFFFFFFFFFFFFFFFFFFFFFFFFFF AND MUL OR SWAP1 SSTORE POP DUP2 PUSH20 0xFFFFFFFFFFFFFFFFFFFFFFFFFFFFFFFFFFFFFFFF AND DUP2 PUSH20 0xFFFFFFFFFFFFFFFFFFFFFFFFFFFFFFFFFFFFFFFF AND PUSH32 0x8BE0079C531659141344CD1FD0A4F28419497F9722A3DAAFE3B4186F6B6457E0 PUSH1 0x40 MLOAD PUSH1 0x40 MLOAD DUP1 SWAP2 SUB SWAP1 LOG3 POP POP JUMP JUMPDEST PUSH0 CALLER SWAP1 POP SWAP1 JUMP JUMPDEST PUSH1 0x40 MLOAD DUP1 PUSH1 0x60 ADD PUSH1 0x40 MSTORE DUP1 PUSH0 PUSH20 0xFFFFFFFFFFFFFFFFFFFFFFFFFFFFFFFFFFFFFFFF AND DUP2 MSTORE PUSH1 0x20 ADD PUSH0 PUSH20 0xFFFFFFFFFFFFFFFFFFFFFFFFFFFFFFFFFFFFFFFF AND DUP2 MSTORE PUSH1 0x20 ADD PUSH0 DUP2 MSTORE POP SWAP1 JUMP JUMPDEST PUSH0 PUSH1 0x40 MLOAD SWAP1 POP SWAP1 JUMP JUMPDEST PUSH0 DUP1 REVERT JUMPDEST PUSH0 DUP1 REVERT JUMPDEST PUSH0 DUP2 SWAP1 POP SWAP2 SWAP1 POP JUMP JUMPDEST PUSH2 0x178E DUP2 PUSH2 0x177C JUMP JUMPDEST DUP2 EQ PUSH2 0x1798 JUMPI PUSH0 DUP1 REVERT JUMPDEST POP JUMP JUMPDEST PUSH0 DUP2 CALLDATALOAD SWAP1 POP PUSH2 0x17A9 DUP2 PUSH2 0x1785 JUMP JUMPDEST SWAP3 SWAP2 POP POP JUMP JUMPDEST PUSH0 PUSH1 0x20 DUP3 DUP5 SUB SLT ISZERO PUSH2 0x17C4 JUMPI PUSH2 0x17C3 PUSH2 0x1774 JUMP JUMPDEST JUMPDEST PUSH0 PUSH2 0x17D1 DUP5 DUP3 DUP6 ADD PUSH2 0x179B JUMP JUMPDEST SWAP2 POP POP SWAP3 SWAP2 POP POP JUMP JUMPDEST PUSH2 0x17E3 DUP2 PUSH2 0x177C JUMP JUMPDEST DUP3 MSTORE POP POP JUMP JUMPDEST PUSH0 PUSH1 0x20 DUP3 ADD SWAP1 POP PUSH2 0x17FC PUSH0 DUP4 ADD DUP5 PUSH2 0x17DA JUMP JUMPDEST SWAP3 SWAP2 POP POP JUMP JUMPDEST PUSH0 PUSH20 0xFFFFFFFFFFFFFFFFFFFFFFFFFFFFFFFFFFFFFFFF DUP3 AND SWAP1 POP SWAP2 SWAP1 POP JUMP JUMPDEST PUSH0 PUSH2 0x182B DUP3 PUSH2 0x1802 JUMP JUMPDEST SWAP1 POP SWAP2 SWAP1 POP JUMP JUMPDEST PUSH2 0x183B DUP2 PUSH2 0x1821 JUMP JUMPDEST DUP2 EQ PUSH2 0x1845 JUMPI PUSH0 DUP1 REVERT JUMPDEST POP JUMP JUMPDEST PUSH0 DUP2 CALLDATALOAD SWAP1 POP PUSH2 0x1856 DUP2 PUSH2 0x1832 JUMP JUMPDEST SWAP3 SWAP2 POP POP JUMP JUMPDEST PUSH0 PUSH1 0x20 DUP3 DUP5 SUB SLT ISZERO PUSH2 0x1871 JUMPI PUSH2 0x1870 PUSH2 0x1774 JUMP JUMPDEST JUMPDEST PUSH0 PUSH2 0x187E DUP5 DUP3 DUP6 ADD PUSH2 0x1848 JUMP JUMPDEST SWAP2 POP POP SWAP3 SWAP2 POP POP JUMP JUMPDEST PUSH0 DUP2 MLOAD SWAP1 POP SWAP2 SWAP1 POP JUMP JUMPDEST PUSH0 DUP3 DUP3 MSTORE PUSH1 0x20 DUP3 ADD SWAP1 POP SWAP3 SWAP2 POP POP JUMP JUMPDEST DUP3 DUP2 DUP4 MCOPY PUSH0 DUP4 DUP4 ADD MSTORE POP POP POP JUMP JUMPDEST PUSH0 PUSH1 0x1F NOT PUSH1 0x1F DUP4 ADD AND SWAP1 POP SWAP2 SWAP1 POP JUMP JUMPDEST PUSH0 PUSH2 0x18C9 DUP3 PUSH2 0x1887 JUMP JUMPDEST PUSH2 0x18D3 DUP2 DUP6 PUSH2 0x1891 JUMP JUMPDEST SWAP4 POP PUSH2 0x18E3 DUP2 DUP6 PUSH1 0x20 DUP7 ADD PUSH2 0x18A1 JUMP JUMPDEST PUSH2 0x18EC DUP2 PUSH2 0x18AF JUMP JUMPDEST DUP5 ADD SWAP2 POP POP SWAP3 SWAP2 POP POP JUMP JUMPDEST PUSH2 0x1900 DUP2 PUSH2 0x1821 JUMP JUMPDEST DUP3 MSTORE POP POP JUMP JUMPDEST PUSH0 PUSH1 0x60 DUP3 ADD SWAP1 POP DUP2 DUP2 SUB PUSH0 DUP4 ADD MSTORE PUSH2 0x191E DUP2 DUP7 PUSH2 0x18BF JUMP JUMPDEST SWAP1 POP PUSH2 0x192D PUSH1 0x20 DUP4 ADD DUP6 PUSH2 0x18F7 JUMP JUMPDEST PUSH2 0x193A PUSH1 0x40 DUP4 ADD DUP5 PUSH2 0x17DA JUMP JUMPDEST SWAP5 SWAP4 POP POP POP POP JUMP JUMPDEST PUSH0 DUP1 REVERT JUMPDEST PUSH0 DUP1 REVERT JUMPDEST PUSH32 0x4E487B7100000000000000000000000000000000000000000000000000000000 PUSH0 MSTORE PUSH1 0x41 PUSH1 0x4 MSTORE PUSH1 0x24 PUSH0 REVERT JUMPDEST PUSH2 0x1980 DUP3 PUSH2 0x18AF JUMP JUMPDEST DUP2 ADD DUP2 DUP2 LT PUSH8 0xFFFFFFFFFFFFFFFF DUP3 GT OR ISZERO PUSH2 0x199F JUMPI PUSH2 0x199E PUSH2 0x194A JUMP JUMPDEST JUMPDEST DUP1 PUSH1 0x40 MSTORE POP POP POP JUMP JUMPDEST PUSH0 PUSH2 0x19B1 PUSH2 0x176B JUMP JUMPDEST SWAP1 POP PUSH2 0x19BD DUP3 DUP3 PUSH2 0x1977 JUMP JUMPDEST SWAP2 SWAP1 POP JUMP JUMPDEST PUSH0 PUSH8 0xFFFFFFFFFFFFFFFF DUP3 GT ISZERO PUSH2 0x19DC JUMPI PUSH2 0x19DB PUSH2 0x194A JUMP JUMPDEST JUMPDEST PUSH2 0x19E5 DUP3 PUSH2 0x18AF JUMP JUMPDEST SWAP1 POP PUSH1 0x20 DUP2 ADD SWAP1 POP SWAP2 SWAP1 POP JUMP JUMPDEST DUP3 DUP2 DUP4 CALLDATACOPY PUSH0 DUP4 DUP4 ADD MSTORE POP POP POP JUMP JUMPDEST PUSH0 PUSH2 0x1A12 PUSH2 0x1A0D DUP5 PUSH2 0x19C2 JUMP JUMPDEST PUSH2 0x19A8 JUMP JUMPDEST SWAP1 POP DUP3 DUP2 MSTORE PUSH1 0x20 DUP2 ADD DUP5 DUP5 DUP5 ADD GT ISZERO PUSH2 0x1A2E JUMPI PUSH2 0x1A2D PUSH2 0x1946 JUMP JUMPDEST JUMPDEST PUSH2 0x1A39 DUP5 DUP3 DUP6 PUSH2 0x19F2 JUMP JUMPDEST POP SWAP4 SWAP3 POP POP POP JUMP JUMPDEST PUSH0 DUP3 PUSH1 0x1F DUP4 ADD SLT PUSH2 0x1A55 JUMPI PUSH2 0x1A54 PUSH2 0x1942 JUMP JUMPDEST JUMPDEST DUP2 CALLDATALOAD PUSH2 0x1A65 DUP5 DUP3 PUSH1 0x20 DUP7 ADD PUSH2 0x1A00 JUMP JUMPDEST SWAP2 POP POP SWAP3 SWAP2 POP POP JUMP JUMPDEST PUSH0 PUSH1 0x20 DUP3 DUP5 SUB SLT ISZERO PUSH2 0x1A83 JUMPI PUSH2 0x1A82 PUSH2 0x1774 JUMP JUMPDEST JUMPDEST PUSH0 DUP3 ADD CALLDATALOAD PUSH8 0xFFFFFFFFFFFFFFFF DUP2 GT ISZERO PUSH2 0x1AA0 JUMPI PUSH2 0x1A9F PUSH2 0x1778 JUMP JUMPDEST JUMPDEST PUSH2 0x1AAC DUP5 DUP3 DUP6 ADD PUSH2 0x1A41 JUMP JUMPDEST SWAP2 POP POP SWAP3 SWAP2 POP POP JUMP JUMPDEST PUSH0 DUP1 PUSH0 PUSH1 0x60 DUP5 DUP7 SUB SLT ISZERO PUSH2 0x1ACC JUMPI PUSH2 0x1ACB PUSH2 0x1774 JUMP JUMPDEST JUMPDEST PUSH0 PUSH2 0x1AD9 DUP7 DUP3 DUP8 ADD PUSH2 0x179B JUMP JUMPDEST SWAP4 POP POP PUSH1 0x20 PUSH2 0x1AEA DUP7 DUP3 DUP8 ADD PUSH2 0x1848 JUMP JUMPDEST SWAP3 POP POP PUSH1 0x40 PUSH2 0x1AFB DUP7 DUP3 DUP8 ADD PUSH2 0x179B JUMP JUMPDEST SWAP2 POP POP SWAP3 POP SWAP3 POP SWAP3 JUMP JUMPDEST PUSH0 DUP2 ISZERO ISZERO SWAP1 POP SWAP2 SWAP1 POP JUMP JUMPDEST PUSH2 0x1B19 DUP2 PUSH2 0x1B05 JUMP JUMPDEST DUP3 MSTORE POP POP JUMP JUMPDEST PUSH0 PUSH1 0x20 DUP3 ADD SWAP1 POP PUSH2 0x1B32 PUSH0 DUP4 ADD DUP5 PUSH2 0x1B10 JUMP JUMPDEST SWAP3 SWAP2 POP POP JUMP JUMPDEST PUSH0 PUSH1 0x20 DUP3 ADD SWAP1 POP PUSH2 0x1B4B PUSH0 DUP4 ADD DUP5 PUSH2 0x18F7 JUMP JUMPDEST SWAP3 SWAP2 POP POP JUMP JUMPDEST PUSH0 DUP2 MLOAD SWAP1 POP SWAP2 SWAP1 POP JUMP JUMPDEST PUSH0 DUP3 DUP3 MSTORE PUSH1 0x20 DUP3 ADD SWAP1 POP SWAP3 SWAP2 POP POP JUMP JUMPDEST PUSH0 DUP2 SWAP1 POP PUSH1 0x20 DUP3 ADD SWAP1 POP SWAP2 SWAP1 POP JUMP JUMPDEST PUSH2 0x1B83 DUP2 PUSH2 0x1821 JUMP JUMPDEST DUP3 MSTORE POP POP JUMP JUMPDEST PUSH2 0x1B92 DUP2 PUSH2 0x177C JUMP JUMPDEST DUP3 MSTORE POP POP JUMP JUMPDEST PUSH1 0x60 DUP3 ADD PUSH0 DUP3 ADD MLOAD PUSH2 0x1BAC PUSH0 DUP6 ADD DUP3 PUSH2 0x1B7A JUMP JUMPDEST POP PUSH1 0x20 DUP3 ADD MLOAD PUSH2 0x1BBF PUSH1 0x20 DUP6 ADD DUP3 PUSH2 0x1B7A JUMP JUMPDEST POP PUSH1 0x40 DUP3 ADD MLOAD PUSH2 0x1BD2 PUSH1 0x40 DUP6 ADD DUP3 PUSH2 0x1B89 JUMP JUMPDEST POP POP POP POP JUMP JUMPDEST PUSH0 PUSH2 0x1BE3 DUP4 DUP4 PUSH2 0x1B98 JUMP JUMPDEST PUSH1 0x60 DUP4 ADD SWAP1 POP SWAP3 SWAP2 POP POP JUMP JUMPDEST PUSH0 PUSH1 0x20 DUP3 ADD SWAP1 POP SWAP2 SWAP1 POP JUMP JUMPDEST PUSH0 PUSH2 0x1C05 DUP3 PUSH2 0x1B51 JUMP JUMPDEST PUSH2 0x1C0F DUP2 DUP6 PUSH2 0x1B5B JUMP JUMPDEST SWAP4 POP PUSH2 0x1C1A DUP4 PUSH2 0x1B6B JUMP JUMPDEST DUP1 PUSH0 JUMPDEST DUP4 DUP2 LT ISZERO PUSH2 0x1C4A JUMPI DUP2 MLOAD PUSH2 0x1C31 DUP9 DUP3 PUSH2 0x1BD8 JUMP JUMPDEST SWAP8 POP PUSH2 0x1C3C DUP4 PUSH2 0x1BEF JUMP JUMPDEST SWAP3 POP POP PUSH1 0x1 DUP2 ADD SWAP1 POP PUSH2 0x1C1D JUMP JUMPDEST POP DUP6 SWAP4 POP POP POP POP SWAP3 SWAP2 POP POP JUMP JUMPDEST PUSH0 PUSH1 0x20 DUP3 ADD SWAP1 POP DUP2 DUP2 SUB PUSH0 DUP4 ADD MSTORE PUSH2 0x1C6F DUP2 DUP5 PUSH2 0x1BFB JUMP JUMPDEST SWAP1 POP SWAP3 SWAP2 POP POP JUMP JUMPDEST PUSH32 0x63616E7420646F206974206E6F77000000000000000000000000000000000000 PUSH0 DUP3 ADD MSTORE POP JUMP JUMPDEST PUSH0 PUSH2 0x1CAB PUSH1 0xE DUP4 PUSH2 0x1891 JUMP JUMPDEST SWAP2 POP PUSH2 0x1CB6 DUP3 PUSH2 0x1C77 JUMP JUMPDEST PUSH1 0x20 DUP3 ADD SWAP1 POP SWAP2 SWAP1 POP JUMP JUMPDEST PUSH0 PUSH1 0x20 DUP3 ADD SWAP1 POP DUP2 DUP2 SUB PUSH0 DUP4 ADD MSTORE PUSH2 0x1CD8 DUP2 PUSH2 0x1C9F JUMP JUMPDEST SWAP1 POP SWAP2 SWAP1 POP JUMP JUMPDEST PUSH32 0x616F7574206F66206F72646572206E6F00000000000000000000000000000000 PUSH0 DUP3 ADD MSTORE POP JUMP JUMPDEST PUSH0 PUSH2 0x1D13 PUSH1 0x10 DUP4 PUSH2 0x1891 JUMP JUMPDEST SWAP2 POP PUSH2 0x1D1E DUP3 PUSH2 0x1CDF JUMP JUMPDEST PUSH1 0x20 DUP3 ADD SWAP1 POP SWAP2 SWAP1 POP JUMP JUMPDEST PUSH0 PUSH1 0x20 DUP3 ADD SWAP1 POP DUP2 DUP2 SUB PUSH0 DUP4 ADD MSTORE PUSH2 0x1D40 DUP2 PUSH2 0x1D07 JUMP JUMPDEST SWAP1 POP SWAP2 SWAP1 POP JUMP JUMPDEST PUSH0 DUP2 MLOAD SWAP1 POP PUSH2 0x1D55 DUP2 PUSH2 0x1785 JUMP JUMPDEST SWAP3 SWAP2 POP POP JUMP JUMPDEST PUSH0 PUSH1 0x20 DUP3 DUP5 SUB SLT ISZERO PUSH2 0x1D70 JUMPI PUSH2 0x1D6F PUSH2 0x1774 JUMP JUMPDEST JUMPDEST PUSH0 PUSH2 0x1D7D DUP5 DUP3 DUP6 ADD PUSH2 0x1D47 JUMP JUMPDEST SWAP2 POP POP SWAP3 SWAP2 POP POP JUMP JUMPDEST PUSH32 0x646F6E74206F776E20746865206E667400000000000000000000000000000000 PUSH0 DUP3 ADD MSTORE POP JUMP JUMPDEST PUSH0 PUSH2 0x1DBA PUSH1 0x10 DUP4 PUSH2 0x1891 JUMP JUMPDEST SWAP2 POP PUSH2 0x1DC5 DUP3 PUSH2 0x1D86 JUMP JUMPDEST PUSH1 0x20 DUP3 ADD SWAP1 POP SWAP2 SWAP1 POP JUMP JUMPDEST PUSH0 PUSH1 0x20 DUP3 ADD SWAP1 POP DUP2 DUP2 SUB PUSH0 DUP4 ADD MSTORE PUSH2 0x1DE7 DUP2 PUSH2 0x1DAE JUMP JUMPDEST SWAP1 POP SWAP2 SWAP1 POP JUMP JUMPDEST PUSH32 0x63616E2063617374206D6F726520766F74650000000000000000000000000000 PUSH0 DUP3 ADD MSTORE POP JUMP JUMPDEST PUSH0 PUSH2 0x1E22 PUSH1 0x12 DUP4 PUSH2 0x1891 JUMP JUMPDEST SWAP2 POP PUSH2 0x1E2D DUP3 PUSH2 0x1DEE JUMP JUMPDEST PUSH1 0x20 DUP3 ADD SWAP1 POP SWAP2 SWAP1 POP JUMP JUMPDEST PUSH0 PUSH1 0x20 DUP3 ADD SWAP1 POP DUP2 DUP2 SUB PUSH0 DUP4 ADD MSTORE PUSH2 0x1E4F DUP2 PUSH2 0x1E16 JUMP JUMPDEST SWAP1 POP SWAP2 SWAP1 POP JUMP JUMPDEST PUSH0 DUP2 MLOAD SWAP1 POP PUSH2 0x1E64 DUP2 PUSH2 0x1832 JUMP JUMPDEST SWAP3 SWAP2 POP POP JUMP JUMPDEST PUSH0 PUSH1 0x20 DUP3 DUP5 SUB SLT ISZERO PUSH2 0x1E7F JUMPI PUSH2 0x1E7E PUSH2 0x1774 JUMP JUMPDEST JUMPDEST PUSH0 PUSH2 0x1E8C DUP5 DUP3 DUP6 ADD PUSH2 0x1E56 JUMP JUMPDEST SWAP2 POP POP SWAP3 SWAP2 POP POP JUMP JUMPDEST PUSH32 0x4E487B7100000000000000000000000000000000000000000000000000000000 PUSH0 MSTORE PUSH1 0x11 PUSH1 0x4 MSTORE PUSH1 0x24 PUSH0 REVERT JUMPDEST PUSH0 PUSH2 0x1ECC DUP3 PUSH2 0x177C JUMP JUMPDEST SWAP2 POP PUSH32 0xFFFFFFFFFFFFFFFFFFFFFFFFFFFFFFFFFFFFFFFFFFFFFFFFFFFFFFFFFFFFFFFF DUP3 SUB PUSH2 0x1EFE JUMPI PUSH2 0x1EFD PUSH2 0x1E95 JUMP JUMPDEST JUMPDEST PUSH1 0x1 DUP3 ADD SWAP1 POP SWAP2 SWAP1 POP JUMP JUMPDEST PUSH32 0x4E487B7100000000000000000000000000000000000000000000000000000000 PUSH0 MSTORE PUSH1 0x22 PUSH1 0x4 MSTORE PUSH1 0x24 PUSH0 REVERT JUMPDEST PUSH0 PUSH1 0x2 DUP3 DIV SWAP1 POP PUSH1 0x1 DUP3 AND DUP1 PUSH2 0x1F4D JUMPI PUSH1 0x7F DUP3 AND SWAP2 POP JUMPDEST PUSH1 0x20 DUP3 LT DUP2 SUB PUSH2 0x1F60 JUMPI PUSH2 0x1F5F PUSH2 0x1F09 JUMP JUMPDEST JUMPDEST POP SWAP2 SWAP1 POP JUMP JUMPDEST PUSH0 DUP2 SWAP1 POP DUP2 PUSH0 MSTORE PUSH1 0x20 PUSH0 KECCAK256 SWAP1 POP SWAP2 SWAP1 POP JUMP JUMPDEST PUSH0 PUSH1 0x20 PUSH1 0x1F DUP4 ADD DIV SWAP1 POP SWAP2 SWAP1 POP JUMP JUMPDEST PUSH0 DUP3 DUP3 SHL SWAP1 POP SWAP3 SWAP2 POP POP JUMP JUMPDEST PUSH0 PUSH1 0x8 DUP4 MUL PUSH2 0x1FC2 PUSH32 0xFFFFFFFFFFFFFFFFFFFFFFFFFFFFFFFFFFFFFFFFFFFFFFFFFFFFFFFFFFFFFFFF DUP3 PUSH2 0x1F87 JUMP JUMPDEST PUSH2 0x1FCC DUP7 DUP4 PUSH2 0x1F87 JUMP JUMPDEST SWAP6 POP DUP1 NOT DUP5 AND SWAP4 POP DUP1 DUP7 AND DUP5 OR SWAP3 POP POP POP SWAP4 SWAP3 POP POP POP JUMP JUMPDEST PUSH0 DUP2 SWAP1 POP SWAP2 SWAP1 POP JUMP JUMPDEST PUSH0 PUSH2 0x2007 PUSH2 0x2002 PUSH2 0x1FFD DUP5 PUSH2 0x177C JUMP JUMPDEST PUSH2 0x1FE4 JUMP JUMPDEST PUSH2 0x177C JUMP JUMPDEST SWAP1 POP SWAP2 SWAP1 POP JUMP JUMPDEST PUSH0 DUP2 SWAP1 POP SWAP2 SWAP1 POP JUMP JUMPDEST PUSH2 0x2020 DUP4 PUSH2 0x1FED JUMP JUMPDEST PUSH2 0x2034 PUSH2 0x202C DUP3 PUSH2 0x200E JUMP JUMPDEST DUP5 DUP5 SLOAD PUSH2 0x1F93 JUMP JUMPDEST DUP3 SSTORE POP POP POP POP JUMP JUMPDEST PUSH0 SWAP1 JUMP JUMPDEST PUSH2 0x2048 PUSH2 0x203C JUMP JUMPDEST PUSH2 0x2053 DUP2 DUP5 DUP5 PUSH2 0x2017 JUMP JUMPDEST POP POP POP JUMP JUMPDEST JUMPDEST DUP2 DUP2 LT ISZERO PUSH2 0x2076 JUMPI PUSH2 0x206B PUSH0 DUP3 PUSH2 0x2040 JUMP JUMPDEST PUSH1 0x1 DUP2 ADD SWAP1 POP PUSH2 0x2059 JUMP JUMPDEST POP POP JUMP JUMPDEST PUSH1 0x1F DUP3 GT ISZERO PUSH2 0x20BB JUMPI PUSH2 0x208C DUP2 PUSH2 0x1F66 JUMP JUMPDEST PUSH2 0x2095 DUP5 PUSH2 0x1F78 JUMP JUMPDEST DUP2 ADD PUSH1 0x20 DUP6 LT ISZERO PUSH2 0x20A4 JUMPI DUP2 SWAP1 POP JUMPDEST PUSH2 0x20B8 PUSH2 0x20B0 DUP6 PUSH2 0x1F78 JUMP JUMPDEST DUP4 ADD DUP3 PUSH2 0x2058 JUMP JUMPDEST POP POP JUMPDEST POP POP POP JUMP JUMPDEST PUSH0 DUP3 DUP3 SHR SWAP1 POP SWAP3 SWAP2 POP POP JUMP JUMPDEST PUSH0 PUSH2 0x20DB PUSH0 NOT DUP5 PUSH1 0x8 MUL PUSH2 0x20C0 JUMP JUMPDEST NOT DUP1 DUP4 AND SWAP2 POP POP SWAP3 SWAP2 POP POP JUMP JUMPDEST PUSH0 PUSH2 0x20F3 DUP4 DUP4 PUSH2 0x20CC JUMP JUMPDEST SWAP2 POP DUP3 PUSH1 0x2 MUL DUP3 OR SWAP1 POP SWAP3 SWAP2 POP POP JUMP JUMPDEST PUSH2 0x210C DUP3 PUSH2 0x1887 JUMP JUMPDEST PUSH8 0xFFFFFFFFFFFFFFFF DUP2 GT ISZERO PUSH2 0x2125 JUMPI PUSH2 0x2124 PUSH2 0x194A JUMP JUMPDEST JUMPDEST PUSH2 0x212F DUP3 SLOAD PUSH2 0x1F36 JUMP JUMPDEST PUSH2 0x213A DUP3 DUP3 DUP6 PUSH2 0x207A JUMP JUMPDEST PUSH0 PUSH1 0x20 SWAP1 POP PUSH1 0x1F DUP4 GT PUSH1 0x1 DUP2 EQ PUSH2 0x216B JUMPI PUSH0 DUP5 ISZERO PUSH2 0x2159 JUMPI DUP3 DUP8 ADD MLOAD SWAP1 POP JUMPDEST PUSH2 0x2163 DUP6 DUP3 PUSH2 0x20E8 JUMP JUMPDEST DUP7 SSTORE POP PUSH2 0x21CA JUMP JUMPDEST PUSH1 0x1F NOT DUP5 AND PUSH2 0x2179 DUP7 PUSH2 0x1F66 JUMP JUMPDEST PUSH0 JUMPDEST DUP3 DUP2 LT ISZERO PUSH2 0x21A0 JUMPI DUP5 DUP10 ADD MLOAD DUP3 SSTORE PUSH1 0x1 DUP3 ADD SWAP2 POP PUSH1 0x20 DUP6 ADD SWAP5 POP PUSH1 0x20 DUP2 ADD SWAP1 POP PUSH2 0x217B JUMP JUMPDEST DUP7 DUP4 LT ISZERO PUSH2 0x21BD JUMPI DUP5 DUP10 ADD MLOAD PUSH2 0x21B9 PUSH1 0x1F DUP10 AND DUP3 PUSH2 0x20CC JUMP JUMPDEST DUP4 SSTORE POP JUMPDEST PUSH1 0x1 PUSH1 0x2 DUP9 MUL ADD DUP9 SSTORE POP POP POP JUMPDEST POP POP POP POP POP POP JUMP JUMPDEST PUSH32 0x416D6F756E74206D7573742062652067726561746572207468616E2030000000 PUSH0 DUP3 ADD MSTORE POP JUMP JUMPDEST PUSH0 PUSH2 0x2206 PUSH1 0x1D DUP4 PUSH2 0x1891 JUMP JUMPDEST SWAP2 POP PUSH2 0x2211 DUP3 PUSH2 0x21D2 JUMP JUMPDEST PUSH1 0x20 DUP3 ADD SWAP1 POP SWAP2 SWAP1 POP JUMP JUMPDEST PUSH0 PUSH1 0x20 DUP3 ADD SWAP1 POP DUP2 DUP2 SUB PUSH0 DUP4 ADD MSTORE PUSH2 0x2233 DUP2 PUSH2 0x21FA JUMP JUMPDEST SWAP1 POP SWAP2 SWAP1 POP JUMP JUMPDEST PUSH32 0x496E73756666696369656E7420746F6B656E2062616C616E6365000000000000 PUSH0 DUP3 ADD MSTORE POP JUMP JUMPDEST PUSH0 PUSH2 0x226E PUSH1 0x1A DUP4 PUSH2 0x1891 JUMP JUMPDEST SWAP2 POP PUSH2 0x2279 DUP3 PUSH2 0x223A JUMP JUMPDEST PUSH1 0x20 DUP3 ADD SWAP1 POP SWAP2 SWAP1 POP JUMP JUMPDEST PUSH0 PUSH1 0x20 DUP3 ADD SWAP1 POP DUP2 DUP2 SUB PUSH0 DUP4 ADD MSTORE PUSH2 0x229B DUP2 PUSH2 0x2262 JUMP JUMPDEST SWAP1 POP SWAP2 SWAP1 POP JUMP JUMPDEST PUSH0 PUSH1 0x60 DUP3 ADD SWAP1 POP PUSH2 0x22B5 PUSH0 DUP4 ADD DUP7 PUSH2 0x18F7 JUMP JUMPDEST PUSH2 0x22C2 PUSH1 0x20 DUP4 ADD DUP6 PUSH2 0x18F7 JUMP JUMPDEST PUSH2 0x22CF PUSH1 0x40 DUP4 ADD DUP5 PUSH2 0x17DA JUMP JUMPDEST SWAP5 SWAP4 POP POP POP POP JUMP JUMPDEST PUSH2 0x22E0 DUP2 PUSH2 0x1B05 JUMP JUMPDEST DUP2 EQ PUSH2 0x22EA JUMPI PUSH0 DUP1 REVERT JUMPDEST POP JUMP JUMPDEST PUSH0 DUP2 MLOAD SWAP1 POP PUSH2 0x22FB DUP2 PUSH2 0x22D7 JUMP JUMPDEST SWAP3 SWAP2 POP POP JUMP JUMPDEST PUSH0 PUSH1 0x20 DUP3 DUP5 SUB SLT ISZERO PUSH2 0x2316 JUMPI PUSH2 0x2315 PUSH2 0x1774 JUMP JUMPDEST JUMPDEST PUSH0 PUSH2 0x2323 DUP5 DUP3 DUP6 ADD PUSH2 0x22ED JUMP JUMPDEST SWAP2 POP POP SWAP3 SWAP2 POP POP JUMP JUMPDEST PUSH32 0x7472616E73616374696F6E206661696C65640000000000000000000000000000 PUSH0 DUP3 ADD MSTORE POP JUMP JUMPDEST PUSH0 PUSH2 0x2360 PUSH1 0x12 DUP4 PUSH2 0x1891 JUMP JUMPDEST SWAP2 POP PUSH2 0x236B DUP3 PUSH2 0x232C JUMP JUMPDEST PUSH1 0x20 DUP3 ADD SWAP1 POP SWAP2 SWAP1 POP JUMP JUMPDEST PUSH0 PUSH1 0x20 DUP3 ADD SWAP1 POP DUP2 DUP2 SUB PUSH0 DUP4 ADD MSTORE PUSH2 0x238D DUP2 PUSH2 0x2354 JUMP JUMPDEST SWAP1 POP SWAP2 SWAP1 POP JUMP JUMPDEST PUSH32 0x63616E7420636C61696D2077696E6E65722070726F6A65637400000000000000 PUSH0 DUP3 ADD MSTORE POP JUMP JUMPDEST PUSH0 PUSH2 0x23C8 PUSH1 0x19 DUP4 PUSH2 0x1891 JUMP JUMPDEST SWAP2 POP PUSH2 0x23D3 DUP3 PUSH2 0x2394 JUMP JUMPDEST PUSH1 0x20 DUP3 ADD SWAP1 POP SWAP2 SWAP1 POP JUMP JUMPDEST PUSH0 PUSH1 0x20 DUP3 ADD SWAP1 POP DUP2 DUP2 SUB PUSH0 DUP4 ADD MSTORE PUSH2 0x23F5 DUP2 PUSH2 0x23BC JUMP JUMPDEST SWAP1 POP SWAP2 SWAP1 POP JUMP JUMPDEST PUSH32 0x4E487B7100000000000000000000000000000000000000000000000000000000 PUSH0 MSTORE PUSH1 0x32 PUSH1 0x4 MSTORE PUSH1 0x24 PUSH0 REVERT JUMPDEST PUSH0 PUSH1 0x40 DUP3 ADD SWAP1 POP PUSH2 0x243C PUSH0 DUP4 ADD DUP6 PUSH2 0x18F7 JUMP JUMPDEST PUSH2 0x2449 PUSH1 0x20 DUP4 ADD DUP5 PUSH2 0x17DA JUMP JUMPDEST SWAP4 SWAP3 POP POP POP JUMP JUMPDEST PUSH32 0x4E487B7100000000000000000000000000000000000000000000000000000000 PUSH0 MSTORE PUSH1 0x21 PUSH1 0x4 MSTORE PUSH1 0x24 PUSH0 REVERT INVALID LOG2 PUSH5 0x6970667358 0x22 SLT KECCAK256 0xA9 DUP5 0xE6 PUSH8 0xE4A569A9573093E3 0x4C PREVRANDAO 0xB9 DUP1 PUSH13 0x307D10537AFFAE8A8564F8B2B8 0xB5 CREATE2 PUSH5 0x736F6C6343 STOP ADDMOD BYTE STOP CALLER "
		},
		"gasEstimates": {
			"creation": {
				"codeDepositCost": "1879000",
				"executionCost": "infinite",
				"totalCost": "infinite"
			},
			"external": {
				"briberInfo(uint256)": "infinite",
				"changeState(uint256)": "infinite",
				"changelastTokenId(uint256)": "infinite",
				"claim(uint256)": "infinite",
				"getStatus()": "6749",
				"getWinnerProjectId()": "infinite",
				"incentiviseProject(uint256,address,uint256)": "infinite",
				"incentivizingPeriod()": "2558",
				"initializeProject(string)": "infinite",
				"lastTokenId()": "2557",
				"nftContractAddress()": "2619",
				"owner()": "2582",
				"projectCount()": "2492",
				"projects(uint256)": "infinite",
				"renounceOwnership()": "infinite",
				"setNftAddress(address)": "infinite",
				"tokenVoted(uint256)": "2896",
				"totalVotes()": "2515",
				"transferOwnership(address)": "infinite",
				"vote(uint256)": "infinite",
				"voters(address)": "2891",
				"votingPeriod()": "2471",
				"withdrawWinnerProject(address)": "infinite"
			}
		},
		"methodIdentifiers": {
			"briberInfo(uint256)": "bfb906a7",
			"changeState(uint256)": "b00741cb",
			"changelastTokenId(uint256)": "cb06545c",
			"claim(uint256)": "379607f5",
			"getStatus()": "4e69d560",
			"getWinnerProjectId()": "f4b1f501",
			"incentiviseProject(uint256,address,uint256)": "33b2decc",
			"incentivizingPeriod()": "3885aed3",
			"initializeProject(string)": "239ecf35",
			"lastTokenId()": "f84ddf0b",
			"nftContractAddress()": "aae282e1",
			"owner()": "8da5cb5b",
			"projectCount()": "36fbad26",
			"projects(uint256)": "107046bd",
			"renounceOwnership()": "715018a6",
			"setNftAddress(address)": "0b102d1a",
			"tokenVoted(uint256)": "38200702",
			"totalVotes()": "0d15fd77",
			"transferOwnership(address)": "f2fde38b",
			"vote(uint256)": "0121b93f",
			"voters(address)": "a3ec138d",
			"votingPeriod()": "02a251a3",
			"withdrawWinnerProject(address)": "d19ee357"
		}
	},
	"abi": [
		{
			"inputs": [
				{
					"internalType": "address",
					"name": "initialOwner",
					"type": "address"
				},
				{
					"internalType": "uint256",
					"name": "_incentivizingPeriod",
					"type": "uint256"
				},
				{
					"internalType": "uint256",
					"name": "_votingPeriod",
					"type": "uint256"
				}
			],
			"stateMutability": "nonpayable",
			"type": "constructor"
		},
		{
			"inputs": [
				{
					"internalType": "address",
					"name": "owner",
					"type": "address"
				}
			],
			"name": "OwnableInvalidOwner",
			"type": "error"
		},
		{
			"inputs": [
				{
					"internalType": "address",
					"name": "account",
					"type": "address"
				}
			],
			"name": "OwnableUnauthorizedAccount",
			"type": "error"
		},
		{
			"anonymous": false,
			"inputs": [
				{
					"indexed": true,
					"internalType": "address",
					"name": "previousOwner",
					"type": "address"
				},
				{
					"indexed": true,
					"internalType": "address",
					"name": "newOwner",
					"type": "address"
				}
			],
			"name": "OwnershipTransferred",
			"type": "event"
		},
		{
			"inputs": [
				{
					"internalType": "uint256",
					"name": "_projectId",
					"type": "uint256"
				}
			],
			"name": "briberInfo",
			"outputs": [
				{
					"components": [
						{
							"internalType": "address",
							"name": "briberAddress",
							"type": "address"
						},
						{
							"internalType": "address",
							"name": "tokenAddress",
							"type": "address"
						},
						{
							"internalType": "uint256",
							"name": "tokenAmnt",
							"type": "uint256"
						}
					],
					"internalType": "struct DiscoCats.Briber[]",
					"name": "_bribers",
					"type": "tuple[]"
				}
			],
			"stateMutability": "view",
			"type": "function"
		},
		{
			"inputs": [
				{
					"internalType": "uint256",
					"name": "_stateNumber",
					"type": "uint256"
				}
			],
			"name": "changeState",
			"outputs": [],
			"stateMutability": "nonpayable",
			"type": "function"
		},
		{
			"inputs": [
				{
					"internalType": "uint256",
					"name": "_id",
					"type": "uint256"
				}
			],
			"name": "changelastTokenId",
			"outputs": [],
			"stateMutability": "nonpayable",
			"type": "function"
		},
		{
			"inputs": [
				{
					"internalType": "uint256",
					"name": "_projectId",
					"type": "uint256"
				}
			],
			"name": "claim",
			"outputs": [],
			"stateMutability": "nonpayable",
			"type": "function"
		},
		{
			"inputs": [],
			"name": "getStatus",
			"outputs": [
				{
					"internalType": "uint256",
					"name": "_status",
					"type": "uint256"
				}
			],
			"stateMutability": "view",
			"type": "function"
		},
		{
			"inputs": [],
			"name": "getWinnerProjectId",
			"outputs": [
				{
					"internalType": "uint256",
					"name": "_id",
					"type": "uint256"
				}
			],
			"stateMutability": "view",
			"type": "function"
		},
		{
			"inputs": [
				{
					"internalType": "uint256",
					"name": "id",
					"type": "uint256"
				},
				{
					"internalType": "address",
					"name": "_tokenAddress",
					"type": "address"
				},
				{
					"internalType": "uint256",
					"name": "_tokenAmount",
					"type": "uint256"
				}
			],
			"name": "incentiviseProject",
			"outputs": [],
			"stateMutability": "nonpayable",
			"type": "function"
		},
		{
			"inputs": [],
			"name": "incentivizingPeriod",
			"outputs": [
				{
					"internalType": "uint256",
					"name": "",
					"type": "uint256"
				}
			],
			"stateMutability": "view",
			"type": "function"
		},
		{
			"inputs": [
				{
					"internalType": "string",
					"name": "_name",
					"type": "string"
				}
			],
			"name": "initializeProject",
			"outputs": [],
			"stateMutability": "nonpayable",
			"type": "function"
		},
		{
			"inputs": [],
			"name": "lastTokenId",
			"outputs": [
				{
					"internalType": "uint256",
					"name": "",
					"type": "uint256"
				}
			],
			"stateMutability": "view",
			"type": "function"
		},
		{
			"inputs": [],
			"name": "nftContractAddress",
			"outputs": [
				{
					"internalType": "address",
					"name": "",
					"type": "address"
				}
			],
			"stateMutability": "view",
			"type": "function"
		},
		{
			"inputs": [],
			"name": "owner",
			"outputs": [
				{
					"internalType": "address",
					"name": "",
					"type": "address"
				}
			],
			"stateMutability": "view",
			"type": "function"
		},
		{
			"inputs": [],
			"name": "projectCount",
			"outputs": [
				{
					"internalType": "uint256",
					"name": "",
					"type": "uint256"
				}
			],
			"stateMutability": "view",
			"type": "function"
		},
		{
			"inputs": [
				{
					"internalType": "uint256",
					"name": "",
					"type": "uint256"
				}
			],
			"name": "projects",
			"outputs": [
				{
					"internalType": "string",
					"name": "name",
					"type": "string"
				},
				{
					"internalType": "address",
					"name": "projectOwner",
					"type": "address"
				},
				{
					"internalType": "uint256",
					"name": "votes",
					"type": "uint256"
				}
			],
			"stateMutability": "view",
			"type": "function"
		},
		{
			"inputs": [],
			"name": "renounceOwnership",
			"outputs": [],
			"stateMutability": "nonpayable",
			"type": "function"
		},
		{
			"inputs": [
				{
					"internalType": "address",
					"name": "_nftAddress",
					"type": "address"
				}
			],
			"name": "setNftAddress",
			"outputs": [],
			"stateMutability": "nonpayable",
			"type": "function"
		},
		{
			"inputs": [
				{
					"internalType": "uint256",
					"name": "",
					"type": "uint256"
				}
			],
			"name": "tokenVoted",
			"outputs": [
				{
					"internalType": "bool",
					"name": "",
					"type": "bool"
				}
			],
			"stateMutability": "view",
			"type": "function"
		},
		{
			"inputs": [],
			"name": "totalVotes",
			"outputs": [
				{
					"internalType": "uint256",
					"name": "",
					"type": "uint256"
				}
			],
			"stateMutability": "view",
			"type": "function"
		},
		{
			"inputs": [
				{
					"internalType": "address",
					"name": "newOwner",
					"type": "address"
				}
			],
			"name": "transferOwnership",
			"outputs": [],
			"stateMutability": "nonpayable",
			"type": "function"
		},
		{
			"inputs": [
				{
					"internalType": "uint256",
					"name": "_projectId",
					"type": "uint256"
				}
			],
			"name": "vote",
			"outputs": [],
			"stateMutability": "nonpayable",
			"type": "function"
		},
		{
			"inputs": [
				{
					"internalType": "address",
					"name": "",
					"type": "address"
				}
			],
			"name": "voters",
			"outputs": [
				{
					"internalType": "uint256",
					"name": "",
					"type": "uint256"
				}
			],
			"stateMutability": "view",
			"type": "function"
		},
		{
			"inputs": [],
			"name": "votingPeriod",
			"outputs": [
				{
					"internalType": "uint256",
					"name": "",
					"type": "uint256"
				}
			],
			"stateMutability": "view",
			"type": "function"
		},
		{
			"inputs": [
				{
					"internalType": "address",
					"name": "_receiver",
					"type": "address"
				}
			],
			"name": "withdrawWinnerProject",
			"outputs": [],
			"stateMutability": "nonpayable",
			"type": "function"
		}
	]
}