{
	"data": {
		"bytecode": {
			"linkReferences": {},
			"object": "60806040526001600c55348015610014575f80fd5b5060405161341d38038061341d83398181016040528101906100369190610419565b826040518060400160405280600781526020017f54696d654e6674000000000000000000000000000000000000000000000000008152506040518060400160405280600481526020017f544e465400000000000000000000000000000000000000000000000000000000815250815f90816100b19190610689565b5080600190816100c19190610689565b5050505f60065f6101000a81548160ff0219169083151502179055505f73ffffffffffffffffffffffffffffffffffffffff168173ffffffffffffffffffffffffffffffffffffffff160361014d575f6040517f1e4fbdf70000000000000000000000000000000000000000000000000000000081526004016101449190610767565b60405180910390fd5b61015c8161017c60201b60201c565b5081600d908161016c9190610689565b5080600f81905550505050610780565b5f600b5f9054906101000a900473ffffffffffffffffffffffffffffffffffffffff16905081600b5f6101000a81548173ffffffffffffffffffffffffffffffffffffffff021916908373ffffffffffffffffffffffffffffffffffffffff1602179055508173ffffffffffffffffffffffffffffffffffffffff168173ffffffffffffffffffffffffffffffffffffffff167f8be0079c531659141344cd1fd0a4f28419497f9722a3daafe3b4186f6b6457e060405160405180910390a35050565b5f604051905090565b5f80fd5b5f80fd5b5f73ffffffffffffffffffffffffffffffffffffffff82169050919050565b5f61027982610250565b9050919050565b6102898161026f565b8114610293575f80fd5b50565b5f815190506102a481610280565b92915050565b5f80fd5b5f80fd5b5f601f19601f8301169050919050565b7f4e487b71000000000000000000000000000000000000000000000000000000005f52604160045260245ffd5b6102f8826102b2565b810181811067ffffffffffffffff82111715610317576103166102c2565b5b80604052505050565b5f61032961023f565b905061033582826102ef565b919050565b5f67ffffffffffffffff821115610354576103536102c2565b5b61035d826102b2565b9050602081019050919050565b8281835e5f83830152505050565b5f61038a6103858461033a565b610320565b9050828152602081018484840111156103a6576103a56102ae565b5b6103b184828561036a565b509392505050565b5f82601f8301126103cd576103cc6102aa565b5b81516103dd848260208601610378565b91505092915050565b5f819050919050565b6103f8816103e6565b8114610402575f80fd5b50565b5f81519050610413816103ef565b92915050565b5f805f606084860312156104305761042f610248565b5b5f61043d86828701610296565b935050602084015167ffffffffffffffff81111561045e5761045d61024c565b5b61046a868287016103b9565b925050604061047b86828701610405565b9150509250925092565b5f81519050919050565b7f4e487b71000000000000000000000000000000000000000000000000000000005f52602260045260245ffd5b5f60028204905060018216806104d357607f821691505b6020821081036104e6576104e561048f565b5b50919050565b5f819050815f5260205f209050919050565b5f6020601f8301049050919050565b5f82821b905092915050565b5f600883026105487fffffffffffffffffffffffffffffffffffffffffffffffffffffffffffffffff8261050d565b610552868361050d565b95508019841693508086168417925050509392505050565b5f819050919050565b5f61058d610588610583846103e6565b61056a565b6103e6565b9050919050565b5f819050919050565b6105a683610573565b6105ba6105b282610594565b848454610519565b825550505050565b5f90565b6105ce6105c2565b6105d981848461059d565b505050565b5b818110156105fc576105f15f826105c6565b6001810190506105df565b5050565b601f82111561064157610612816104ec565b61061b846104fe565b8101602085101561062a578190505b61063e610636856104fe565b8301826105de565b50505b505050565b5f82821c905092915050565b5f6106615f1984600802610646565b1980831691505092915050565b5f6106798383610652565b9150826002028217905092915050565b61069282610485565b67ffffffffffffffff8111156106ab576106aa6102c2565b5b6106b582546104bc565b6106c0828285610600565b5f60209050601f8311600181146106f1575f84156106df578287015190505b6106e9858261066e565b865550610750565b601f1984166106ff866104ec565b5f5b8281101561072657848901518255600182019150602085019450602081019050610701565b86831015610743578489015161073f601f891682610652565b8355505b6001600288020188555050505b505050505050565b6107618161026f565b82525050565b5f60208201905061077a5f830184610758565b92915050565b612c908061078d5f395ff3fe608060405234801561000f575f80fd5b50600436106101c2575f3560e01c80635c975abb116100f757806395d89b4111610095578063b88d4fde1161006f578063b88d4fde146104b8578063c87b56dd146104d4578063e985e9c514610504578063f2fde38b14610534576101c2565b806395d89b4114610462578063a144819414610480578063a22cb4651461049c576101c2565b8063715018a6116100d1578063715018a6146104145780638456cb591461041e57806385535cc5146104285780638da5cb5b14610444576101c2565b80635c975abb146103965780636352211e146103b457806370a08231146103e4576101c2565b80632a7065ea1161016457806342842e0e1161013e57806342842e0e14610310578063430bf08a1461032c5780634f6ccce71461034a57806355f804b31461037a576101c2565b80632a7065ea146102b85780632f745c59146102d65780633f4ba83a14610306576101c2565b8063095ea7b3116101a0578063095ea7b3146102445780630af2c6ca1461026057806318160ddd1461027e57806323b872dd1461029c576101c2565b806301ffc9a7146101c657806306fdde03146101f6578063081812fc14610214575b5f80fd5b6101e060048036038101906101db91906120d8565b610550565b6040516101ed919061211d565b60405180910390f35b6101fe610561565b60405161020b91906121a6565b60405180910390f35b61022e600480360381019061022991906121f9565b6105f0565b60405161023b9190612263565b60405180910390f35b61025e600480360381019061025991906122a6565b61060b565b005b610268610621565b60405161027591906122f3565b60405180910390f35b61028661062a565b60405161029391906122f3565b60405180910390f35b6102b660048036038101906102b1919061230c565b610636565b005b6102c0610735565b6040516102cd91906122f3565b60405180910390f35b6102f060048036038101906102eb91906122a6565b61073b565b6040516102fd91906122f3565b60405180910390f35b61030e6107df565b005b61032a6004803603810190610325919061230c565b6107f1565b005b610334610810565b6040516103419190612263565b60405180910390f35b610364600480360381019061035f91906121f9565b610835565b60405161037191906122f3565b60405180910390f35b610394600480360381019061038f9190612488565b6108a7565b005b61039e6108c2565b6040516103ab919061211d565b60405180910390f35b6103ce60048036038101906103c991906121f9565b6108d7565b6040516103db9190612263565b60405180910390f35b6103fe60048036038101906103f991906124cf565b6108e8565b60405161040b91906122f3565b60405180910390f35b61041c61099e565b005b6104266109b1565b005b610442600480360381019061043d91906124cf565b6109c3565b005b61044c610a0e565b6040516104599190612263565b60405180910390f35b61046a610a36565b60405161047791906121a6565b60405180910390f35b61049a600480360381019061049591906122a6565b610ac6565b005b6104b660048036038101906104b19190612524565b610bf1565b005b6104d260048036038101906104cd9190612600565b610c07565b005b6104ee60048036038101906104e991906121f9565b610c2c565b6040516104fb91906121a6565b60405180910390f35b61051e60048036038101906105199190612680565b610cbe565b60405161052b919061211d565b60405180910390f35b61054e600480360381019061054991906124cf565b610d4c565b005b5f61055a82610dd0565b9050919050565b60605f805461056f906126eb565b80601f016020809104026020016040519081016040528092919081815260200182805461059b906126eb565b80156105e65780601f106105bd576101008083540402835291602001916105e6565b820191905f5260205f20905b8154815290600101906020018083116105c957829003601f168201915b5050505050905090565b5f6105fa82610e49565b5061060482610ecf565b9050919050565b61061d8282610618610f08565b610f0f565b5050565b5f600c54905090565b5f600980549050905090565b5f73ffffffffffffffffffffffffffffffffffffffff168273ffffffffffffffffffffffffffffffffffffffff16036106a6575f6040517f64a0ae9200000000000000000000000000000000000000000000000000000000815260040161069d9190612263565b60405180910390fd5b5f6106b983836106b4610f08565b610f21565b90508373ffffffffffffffffffffffffffffffffffffffff168173ffffffffffffffffffffffffffffffffffffffff161461072f578382826040517f64283d7b0000000000000000000000000000000000000000000000000000000081526004016107269392919061271b565b60405180910390fd5b50505050565b600f5481565b5f610745836108e8565b821061078a5782826040517fa57d13dc000000000000000000000000000000000000000000000000000000008152600401610781929190612750565b60405180910390fd5b60075f8473ffffffffffffffffffffffffffffffffffffffff1673ffffffffffffffffffffffffffffffffffffffff1681526020019081526020015f205f8381526020019081526020015f2054905092915050565b6107e7610f36565b6107ef610fbd565b565b61080b83838360405180602001604052805f815250610c07565b505050565b600e5f9054906101000a900473ffffffffffffffffffffffffffffffffffffffff1681565b5f61083e61062a565b8210610883575f826040517fa57d13dc00000000000000000000000000000000000000000000000000000000815260040161087a929190612750565b60405180910390fd5b6009828154811061089757610896612777565b5b905f5260205f2001549050919050565b6108af610f36565b80600d90816108be9190612941565b5050565b5f60065f9054906101000a900460ff16905090565b5f6108e182610e49565b9050919050565b5f8073ffffffffffffffffffffffffffffffffffffffff168273ffffffffffffffffffffffffffffffffffffffff1603610959575f6040517f89c62b640000000000000000000000000000000000000000000000000000000081526004016109509190612263565b60405180910390fd5b60035f8373ffffffffffffffffffffffffffffffffffffffff1673ffffffffffffffffffffffffffffffffffffffff1681526020019081526020015f20549050919050565b6109a6610f36565b6109af5f61101e565b565b6109b9610f36565b6109c16110e1565b565b6109cb610f36565b80600e5f6101000a81548173ffffffffffffffffffffffffffffffffffffffff021916908373ffffffffffffffffffffffffffffffffffffffff16021790555050565b5f600b5f9054906101000a900473ffffffffffffffffffffffffffffffffffffffff16905090565b606060018054610a45906126eb565b80601f0160208091040260200160405190810160405280929190818152602001828054610a71906126eb565b8015610abc5780601f10610a9357610100808354040283529160200191610abc565b820191905f5260205f20905b815481529060010190602001808311610a9f57829003601f168201915b5050505050905090565b80600c54610ad49190612a3d565b600f541015610ae1575f80fd5b610ae9610a0e565b73ffffffffffffffffffffffffffffffffffffffff163373ffffffffffffffffffffffffffffffffffffffff161480610b6e5750600e5f9054906101000a900473ffffffffffffffffffffffffffffffffffffffff1673ffffffffffffffffffffffffffffffffffffffff163373ffffffffffffffffffffffffffffffffffffffff16145b610bad576040517f08c379a0000000000000000000000000000000000000000000000000000000008152600401610ba490612aba565b60405180910390fd5b5f5b81811015610bec575f600c549050610bc78482611143565b600c5f815480929190610bd990612ad8565b9190505550508080600101915050610baf565b505050565b610c03610bfc610f08565b8383611160565b5050565b610c12848484610636565b610c26610c1d610f08565b858585856112c9565b50505050565b6060600d8054610c3b906126eb565b80601f0160208091040260200160405190810160405280929190818152602001828054610c67906126eb565b8015610cb25780601f10610c8957610100808354040283529160200191610cb2565b820191905f5260205f20905b815481529060010190602001808311610c9557829003601f168201915b50505050509050919050565b5f60055f8473ffffffffffffffffffffffffffffffffffffffff1673ffffffffffffffffffffffffffffffffffffffff1681526020019081526020015f205f8373ffffffffffffffffffffffffffffffffffffffff1673ffffffffffffffffffffffffffffffffffffffff1681526020019081526020015f205f9054906101000a900460ff16905092915050565b610d54610f36565b5f73ffffffffffffffffffffffffffffffffffffffff168173ffffffffffffffffffffffffffffffffffffffff1603610dc4575f6040517f1e4fbdf7000000000000000000000000000000000000000000000000000000008152600401610dbb9190612263565b60405180910390fd5b610dcd8161101e565b50565b5f7f780e9d63000000000000000000000000000000000000000000000000000000007bffffffffffffffffffffffffffffffffffffffffffffffffffffffff1916827bffffffffffffffffffffffffffffffffffffffffffffffffffffffff19161480610e425750610e4182611475565b5b9050919050565b5f80610e5483611556565b90505f73ffffffffffffffffffffffffffffffffffffffff168173ffffffffffffffffffffffffffffffffffffffff1603610ec657826040517f7e273289000000000000000000000000000000000000000000000000000000008152600401610ebd91906122f3565b60405180910390fd5b80915050919050565b5f60045f8381526020019081526020015f205f9054906101000a900473ffffffffffffffffffffffffffffffffffffffff169050919050565b5f33905090565b610f1c838383600161158f565b505050565b5f610f2d84848461174e565b90509392505050565b610f3e610f08565b73ffffffffffffffffffffffffffffffffffffffff16610f5c610a0e565b73ffffffffffffffffffffffffffffffffffffffff1614610fbb57610f7f610f08565b6040517f118cdaa7000000000000000000000000000000000000000000000000000000008152600401610fb29190612263565b60405180910390fd5b565b610fc5611868565b5f60065f6101000a81548160ff0219169083151502179055507f5db9ee0a495bf2e6ff9c91a7834c1ba4fdd244a5e8aa4e537bd38aeae4b073aa611007610f08565b6040516110149190612263565b60405180910390a1565b5f600b5f9054906101000a900473ffffffffffffffffffffffffffffffffffffffff16905081600b5f6101000a81548173ffffffffffffffffffffffffffffffffffffffff021916908373ffffffffffffffffffffffffffffffffffffffff1602179055508173ffffffffffffffffffffffffffffffffffffffff168173ffffffffffffffffffffffffffffffffffffffff167f8be0079c531659141344cd1fd0a4f28419497f9722a3daafe3b4186f6b6457e060405160405180910390a35050565b6110e96118a8565b600160065f6101000a81548160ff0219169083151502179055507f62e78cea01bee320cd4e420270b5ea74000d11b0c9f74754ebdbfc544b05a25861112c610f08565b6040516111399190612263565b60405180910390a1565b61115c828260405180602001604052805f8152506118e9565b5050565b5f73ffffffffffffffffffffffffffffffffffffffff168273ffffffffffffffffffffffffffffffffffffffff16036111d057816040517f5b08ba180000000000000000000000000000000000000000000000000000000081526004016111c79190612263565b60405180910390fd5b8060055f8573ffffffffffffffffffffffffffffffffffffffff1673ffffffffffffffffffffffffffffffffffffffff1681526020019081526020015f205f8473ffffffffffffffffffffffffffffffffffffffff1673ffffffffffffffffffffffffffffffffffffffff1681526020019081526020015f205f6101000a81548160ff0219169083151502179055508173ffffffffffffffffffffffffffffffffffffffff168373ffffffffffffffffffffffffffffffffffffffff167f17307eab39ab6107e8899845ad3d59bd9653f200f220920489ca2b5937696c31836040516112bc919061211d565b60405180910390a3505050565b5f8373ffffffffffffffffffffffffffffffffffffffff163b111561146e578273ffffffffffffffffffffffffffffffffffffffff1663150b7a02868685856040518563ffffffff1660e01b81526004016113279493929190612b71565b6020604051808303815f875af192505050801561136257506040513d601f19601f8201168201806040525081019061135f9190612bcf565b60015b6113e3573d805f8114611390576040519150601f19603f3d011682016040523d82523d5f602084013e611395565b606091505b505f8151036113db57836040517f64a0ae920000000000000000000000000000000000000000000000000000000081526004016113d29190612263565b60405180910390fd5b805181602001fd5b63150b7a0260e01b7bffffffffffffffffffffffffffffffffffffffffffffffffffffffff1916817bffffffffffffffffffffffffffffffffffffffffffffffffffffffff19161461146c57836040517f64a0ae920000000000000000000000000000000000000000000000000000000081526004016114639190612263565b60405180910390fd5b505b5050505050565b5f7f80ac58cd000000000000000000000000000000000000000000000000000000007bffffffffffffffffffffffffffffffffffffffffffffffffffffffff1916827bffffffffffffffffffffffffffffffffffffffffffffffffffffffff1916148061153f57507f5b5e139f000000000000000000000000000000000000000000000000000000007bffffffffffffffffffffffffffffffffffffffffffffffffffffffff1916827bffffffffffffffffffffffffffffffffffffffffffffffffffffffff1916145b8061154f575061154e8261190c565b5b9050919050565b5f60025f8381526020019081526020015f205f9054906101000a900473ffffffffffffffffffffffffffffffffffffffff169050919050565b80806115c757505f73ffffffffffffffffffffffffffffffffffffffff168273ffffffffffffffffffffffffffffffffffffffff1614155b156116f9575f6115d684610e49565b90505f73ffffffffffffffffffffffffffffffffffffffff168373ffffffffffffffffffffffffffffffffffffffff161415801561164057508273ffffffffffffffffffffffffffffffffffffffff168173ffffffffffffffffffffffffffffffffffffffff1614155b801561165357506116518184610cbe565b155b1561169557826040517fa9fbf51f00000000000000000000000000000000000000000000000000000000815260040161168c9190612263565b60405180910390fd5b81156116f757838573ffffffffffffffffffffffffffffffffffffffff168273ffffffffffffffffffffffffffffffffffffffff167f8c5be1e5ebec7d5bd14f71427d1e84f3dd0314c0f7b2291e5b200ac8c7c3b92560405160405180910390a45b505b8360045f8581526020019081526020015f205f6101000a81548173ffffffffffffffffffffffffffffffffffffffff021916908373ffffffffffffffffffffffffffffffffffffffff16021790555050505050565b5f8061175b858585611975565b90505f73ffffffffffffffffffffffffffffffffffffffff168173ffffffffffffffffffffffffffffffffffffffff160361179e5761179984611992565b6117dd565b8473ffffffffffffffffffffffffffffffffffffffff168173ffffffffffffffffffffffffffffffffffffffff16146117dc576117db81856119d6565b5b5b5f73ffffffffffffffffffffffffffffffffffffffff168573ffffffffffffffffffffffffffffffffffffffff160361181e5761181984611aad565b61185d565b8473ffffffffffffffffffffffffffffffffffffffff168173ffffffffffffffffffffffffffffffffffffffff161461185c5761185b8585611b6d565b5b5b809150509392505050565b6118706108c2565b6118a6576040517f8dfc202b00000000000000000000000000000000000000000000000000000000815260040160405180910390fd5b565b6118b06108c2565b156118e7576040517fd93c066500000000000000000000000000000000000000000000000000000000815260040160405180910390fd5b565b6118f38383611bf1565b6119076118fe610f08565b5f8585856112c9565b505050565b5f7f01ffc9a7000000000000000000000000000000000000000000000000000000007bffffffffffffffffffffffffffffffffffffffffffffffffffffffff1916827bffffffffffffffffffffffffffffffffffffffffffffffffffffffff1916149050919050565b5f61197e6118a8565b611989848484611ce4565b90509392505050565b600980549050600a5f8381526020019081526020015f2081905550600981908060018154018082558091505060019003905f5260205f20015f909190919091505550565b5f6119e0836108e8565b90505f60085f8481526020019081526020015f205490505f60075f8673ffffffffffffffffffffffffffffffffffffffff1673ffffffffffffffffffffffffffffffffffffffff1681526020019081526020015f209050828214611a7f575f815f8581526020019081526020015f2054905080825f8581526020019081526020015f20819055508260085f8381526020019081526020015f2081905550505b60085f8581526020019081526020015f205f9055805f8481526020019081526020015f205f90555050505050565b5f6001600980549050611ac09190612bfa565b90505f600a5f8481526020019081526020015f205490505f60098381548110611aec57611aeb612777565b5b905f5260205f20015490508060098381548110611b0c57611b0b612777565b5b905f5260205f20018190555081600a5f8381526020019081526020015f2081905550600a5f8581526020019081526020015f205f90556009805480611b5457611b53612c2d565b5b600190038181905f5260205f20015f9055905550505050565b5f6001611b79846108e8565b611b839190612bfa565b90508160075f8573ffffffffffffffffffffffffffffffffffffffff1673ffffffffffffffffffffffffffffffffffffffff1681526020019081526020015f205f8381526020019081526020015f20819055508060085f8481526020019081526020015f2081905550505050565b5f73ffffffffffffffffffffffffffffffffffffffff168273ffffffffffffffffffffffffffffffffffffffff1603611c61575f6040517f64a0ae92000000000000000000000000000000000000000000000000000000008152600401611c589190612263565b60405180910390fd5b5f611c6d83835f610f21565b90505f73ffffffffffffffffffffffffffffffffffffffff168173ffffffffffffffffffffffffffffffffffffffff1614611cdf575f6040517f73c6ac6e000000000000000000000000000000000000000000000000000000008152600401611cd69190612263565b60405180910390fd5b505050565b5f80611cef84611556565b90505f73ffffffffffffffffffffffffffffffffffffffff168373ffffffffffffffffffffffffffffffffffffffff1614611d3057611d2f818486611eef565b5b5f73ffffffffffffffffffffffffffffffffffffffff168173ffffffffffffffffffffffffffffffffffffffff1614611dbb57611d6f5f855f8061158f565b600160035f8373ffffffffffffffffffffffffffffffffffffffff1673ffffffffffffffffffffffffffffffffffffffff1681526020019081526020015f205f82825403925050819055505b5f73ffffffffffffffffffffffffffffffffffffffff168573ffffffffffffffffffffffffffffffffffffffff1614611e3a57600160035f8773ffffffffffffffffffffffffffffffffffffffff1673ffffffffffffffffffffffffffffffffffffffff1681526020019081526020015f205f82825401925050819055505b8460025f8681526020019081526020015f205f6101000a81548173ffffffffffffffffffffffffffffffffffffffff021916908373ffffffffffffffffffffffffffffffffffffffff160217905550838573ffffffffffffffffffffffffffffffffffffffff168273ffffffffffffffffffffffffffffffffffffffff167fddf252ad1be2c89b69c2b068fc378daa952ba7f163c4a11628f55a4df523b3ef60405160405180910390a4809150509392505050565b611efa838383611fb2565b611fad575f73ffffffffffffffffffffffffffffffffffffffff168373ffffffffffffffffffffffffffffffffffffffff1603611f6e57806040517f7e273289000000000000000000000000000000000000000000000000000000008152600401611f6591906122f3565b60405180910390fd5b81816040517f177e802f000000000000000000000000000000000000000000000000000000008152600401611fa4929190612750565b60405180910390fd5b505050565b5f8073ffffffffffffffffffffffffffffffffffffffff168373ffffffffffffffffffffffffffffffffffffffff161415801561206957508273ffffffffffffffffffffffffffffffffffffffff168473ffffffffffffffffffffffffffffffffffffffff16148061202a57506120298484610cbe565b5b8061206857508273ffffffffffffffffffffffffffffffffffffffff1661205083610ecf565b73ffffffffffffffffffffffffffffffffffffffff16145b5b90509392505050565b5f604051905090565b5f80fd5b5f80fd5b5f7fffffffff0000000000000000000000000000000000000000000000000000000082169050919050565b6120b781612083565b81146120c1575f80fd5b50565b5f813590506120d2816120ae565b92915050565b5f602082840312156120ed576120ec61207b565b5b5f6120fa848285016120c4565b91505092915050565b5f8115159050919050565b61211781612103565b82525050565b5f6020820190506121305f83018461210e565b92915050565b5f81519050919050565b5f82825260208201905092915050565b8281835e5f83830152505050565b5f601f19601f8301169050919050565b5f61217882612136565b6121828185612140565b9350612192818560208601612150565b61219b8161215e565b840191505092915050565b5f6020820190508181035f8301526121be818461216e565b905092915050565b5f819050919050565b6121d8816121c6565b81146121e2575f80fd5b50565b5f813590506121f3816121cf565b92915050565b5f6020828403121561220e5761220d61207b565b5b5f61221b848285016121e5565b91505092915050565b5f73ffffffffffffffffffffffffffffffffffffffff82169050919050565b5f61224d82612224565b9050919050565b61225d81612243565b82525050565b5f6020820190506122765f830184612254565b92915050565b61228581612243565b811461228f575f80fd5b50565b5f813590506122a08161227c565b92915050565b5f80604083850312156122bc576122bb61207b565b5b5f6122c985828601612292565b92505060206122da858286016121e5565b9150509250929050565b6122ed816121c6565b82525050565b5f6020820190506123065f8301846122e4565b92915050565b5f805f606084860312156123235761232261207b565b5b5f61233086828701612292565b935050602061234186828701612292565b9250506040612352868287016121e5565b9150509250925092565b5f80fd5b5f80fd5b7f4e487b71000000000000000000000000000000000000000000000000000000005f52604160045260245ffd5b61239a8261215e565b810181811067ffffffffffffffff821117156123b9576123b8612364565b5b80604052505050565b5f6123cb612072565b90506123d78282612391565b919050565b5f67ffffffffffffffff8211156123f6576123f5612364565b5b6123ff8261215e565b9050602081019050919050565b828183375f83830152505050565b5f61242c612427846123dc565b6123c2565b90508281526020810184848401111561244857612447612360565b5b61245384828561240c565b509392505050565b5f82601f83011261246f5761246e61235c565b5b813561247f84826020860161241a565b91505092915050565b5f6020828403121561249d5761249c61207b565b5b5f82013567ffffffffffffffff8111156124ba576124b961207f565b5b6124c68482850161245b565b91505092915050565b5f602082840312156124e4576124e361207b565b5b5f6124f184828501612292565b91505092915050565b61250381612103565b811461250d575f80fd5b50565b5f8135905061251e816124fa565b92915050565b5f806040838503121561253a5761253961207b565b5b5f61254785828601612292565b925050602061255885828601612510565b9150509250929050565b5f67ffffffffffffffff82111561257c5761257b612364565b5b6125858261215e565b9050602081019050919050565b5f6125a461259f84612562565b6123c2565b9050828152602081018484840111156125c0576125bf612360565b5b6125cb84828561240c565b509392505050565b5f82601f8301126125e7576125e661235c565b5b81356125f7848260208601612592565b91505092915050565b5f805f80608085870312156126185761261761207b565b5b5f61262587828801612292565b945050602061263687828801612292565b9350506040612647878288016121e5565b925050606085013567ffffffffffffffff8111156126685761266761207f565b5b612674878288016125d3565b91505092959194509250565b5f80604083850312156126965761269561207b565b5b5f6126a385828601612292565b92505060206126b485828601612292565b9150509250929050565b7f4e487b71000000000000000000000000000000000000000000000000000000005f52602260045260245ffd5b5f600282049050600182168061270257607f821691505b602082108103612715576127146126be565b5b50919050565b5f60608201905061272e5f830186612254565b61273b60208301856122e4565b6127486040830184612254565b949350505050565b5f6040820190506127635f830185612254565b61277060208301846122e4565b9392505050565b7f4e487b71000000000000000000000000000000000000000000000000000000005f52603260045260245ffd5b5f819050815f5260205f209050919050565b5f6020601f8301049050919050565b5f82821b905092915050565b5f600883026128007fffffffffffffffffffffffffffffffffffffffffffffffffffffffffffffffff826127c5565b61280a86836127c5565b95508019841693508086168417925050509392505050565b5f819050919050565b5f61284561284061283b846121c6565b612822565b6121c6565b9050919050565b5f819050919050565b61285e8361282b565b61287261286a8261284c565b8484546127d1565b825550505050565b5f90565b61288661287a565b612891818484612855565b505050565b5b818110156128b4576128a95f8261287e565b600181019050612897565b5050565b601f8211156128f9576128ca816127a4565b6128d3846127b6565b810160208510156128e2578190505b6128f66128ee856127b6565b830182612896565b50505b505050565b5f82821c905092915050565b5f6129195f19846008026128fe565b1980831691505092915050565b5f612931838361290a565b9150826002028217905092915050565b61294a82612136565b67ffffffffffffffff81111561296357612962612364565b5b61296d82546126eb565b6129788282856128b8565b5f60209050601f8311600181146129a9575f8415612997578287015190505b6129a18582612926565b865550612a08565b601f1984166129b7866127a4565b5f5b828110156129de578489015182556001820191506020850194506020810190506129b9565b868310156129fb57848901516129f7601f89168261290a565b8355505b6001600288020188555050505b505050505050565b7f4e487b71000000000000000000000000000000000000000000000000000000005f52601160045260245ffd5b5f612a47826121c6565b9150612a52836121c6565b9250828201905080821115612a6a57612a69612a10565b5b92915050565b7f63616e206d696e740000000000000000000000000000000000000000000000005f82015250565b5f612aa4600883612140565b9150612aaf82612a70565b602082019050919050565b5f6020820190508181035f830152612ad181612a98565b9050919050565b5f612ae2826121c6565b91507fffffffffffffffffffffffffffffffffffffffffffffffffffffffffffffffff8203612b1457612b13612a10565b5b600182019050919050565b5f81519050919050565b5f82825260208201905092915050565b5f612b4382612b1f565b612b4d8185612b29565b9350612b5d818560208601612150565b612b668161215e565b840191505092915050565b5f608082019050612b845f830187612254565b612b916020830186612254565b612b9e60408301856122e4565b8181036060830152612bb08184612b39565b905095945050505050565b5f81519050612bc9816120ae565b92915050565b5f60208284031215612be457612be361207b565b5b5f612bf184828501612bbb565b91505092915050565b5f612c04826121c6565b9150612c0f836121c6565b9250828203905081811115612c2757612c26612a10565b5b92915050565b7f4e487b71000000000000000000000000000000000000000000000000000000005f52603160045260245ffdfea2646970667358221220fa7d337bdebb9e8c2843e5bcc8422cec654409d7575d543750e6db6e5e17f4ed64736f6c634300081a0033",
			"opcodes": "PUSH1 0x80 PUSH1 0x40 MSTORE PUSH1 0x1 PUSH1 0xC SSTORE CALLVALUE DUP1 ISZERO PUSH2 0x14 JUMPI PUSH0 DUP1 REVERT JUMPDEST POP PUSH1 0x40 MLOAD PUSH2 0x341D CODESIZE SUB DUP1 PUSH2 0x341D DUP4 CODECOPY DUP2 DUP2 ADD PUSH1 0x40 MSTORE DUP2 ADD SWAP1 PUSH2 0x36 SWAP2 SWAP1 PUSH2 0x419 JUMP JUMPDEST DUP3 PUSH1 0x40 MLOAD DUP1 PUSH1 0x40 ADD PUSH1 0x40 MSTORE DUP1 PUSH1 0x7 DUP2 MSTORE PUSH1 0x20 ADD PUSH32 0x54696D654E667400000000000000000000000000000000000000000000000000 DUP2 MSTORE POP PUSH1 0x40 MLOAD DUP1 PUSH1 0x40 ADD PUSH1 0x40 MSTORE DUP1 PUSH1 0x4 DUP2 MSTORE PUSH1 0x20 ADD PUSH32 0x544E465400000000000000000000000000000000000000000000000000000000 DUP2 MSTORE POP DUP2 PUSH0 SWAP1 DUP2 PUSH2 0xB1 SWAP2 SWAP1 PUSH2 0x689 JUMP JUMPDEST POP DUP1 PUSH1 0x1 SWAP1 DUP2 PUSH2 0xC1 SWAP2 SWAP1 PUSH2 0x689 JUMP JUMPDEST POP POP POP PUSH0 PUSH1 0x6 PUSH0 PUSH2 0x100 EXP DUP2 SLOAD DUP2 PUSH1 0xFF MUL NOT AND SWAP1 DUP4 ISZERO ISZERO MUL OR SWAP1 SSTORE POP PUSH0 PUSH20 0xFFFFFFFFFFFFFFFFFFFFFFFFFFFFFFFFFFFFFFFF AND DUP2 PUSH20 0xFFFFFFFFFFFFFFFFFFFFFFFFFFFFFFFFFFFFFFFF AND SUB PUSH2 0x14D JUMPI PUSH0 PUSH1 0x40 MLOAD PUSH32 0x1E4FBDF700000000000000000000000000000000000000000000000000000000 DUP2 MSTORE PUSH1 0x4 ADD PUSH2 0x144 SWAP2 SWAP1 PUSH2 0x767 JUMP JUMPDEST PUSH1 0x40 MLOAD DUP1 SWAP2 SUB SWAP1 REVERT JUMPDEST PUSH2 0x15C DUP2 PUSH2 0x17C PUSH1 0x20 SHL PUSH1 0x20 SHR JUMP JUMPDEST POP DUP2 PUSH1 0xD SWAP1 DUP2 PUSH2 0x16C SWAP2 SWAP1 PUSH2 0x689 JUMP JUMPDEST POP DUP1 PUSH1 0xF DUP2 SWAP1 SSTORE POP POP POP POP PUSH2 0x780 JUMP JUMPDEST PUSH0 PUSH1 0xB PUSH0 SWAP1 SLOAD SWAP1 PUSH2 0x100 EXP SWAP1 DIV PUSH20 0xFFFFFFFFFFFFFFFFFFFFFFFFFFFFFFFFFFFFFFFF AND SWAP1 POP DUP2 PUSH1 0xB PUSH0 PUSH2 0x100 EXP DUP2 SLOAD DUP2 PUSH20 0xFFFFFFFFFFFFFFFFFFFFFFFFFFFFFFFFFFFFFFFF MUL NOT AND SWAP1 DUP4 PUSH20 0xFFFFFFFFFFFFFFFFFFFFFFFFFFFFFFFFFFFFFFFF AND MUL OR SWAP1 SSTORE POP DUP2 PUSH20 0xFFFFFFFFFFFFFFFFFFFFFFFFFFFFFFFFFFFFFFFF AND DUP2 PUSH20 0xFFFFFFFFFFFFFFFFFFFFFFFFFFFFFFFFFFFFFFFF AND PUSH32 0x8BE0079C531659141344CD1FD0A4F28419497F9722A3DAAFE3B4186F6B6457E0 PUSH1 0x40 MLOAD PUSH1 0x40 MLOAD DUP1 SWAP2 SUB SWAP1 LOG3 POP POP JUMP JUMPDEST PUSH0 PUSH1 0x40 MLOAD SWAP1 POP SWAP1 JUMP JUMPDEST PUSH0 DUP1 REVERT JUMPDEST PUSH0 DUP1 REVERT JUMPDEST PUSH0 PUSH20 0xFFFFFFFFFFFFFFFFFFFFFFFFFFFFFFFFFFFFFFFF DUP3 AND SWAP1 POP SWAP2 SWAP1 POP JUMP JUMPDEST PUSH0 PUSH2 0x279 DUP3 PUSH2 0x250 JUMP JUMPDEST SWAP1 POP SWAP2 SWAP1 POP JUMP JUMPDEST PUSH2 0x289 DUP2 PUSH2 0x26F JUMP JUMPDEST DUP2 EQ PUSH2 0x293 JUMPI PUSH0 DUP1 REVERT JUMPDEST POP JUMP JUMPDEST PUSH0 DUP2 MLOAD SWAP1 POP PUSH2 0x2A4 DUP2 PUSH2 0x280 JUMP JUMPDEST SWAP3 SWAP2 POP POP JUMP JUMPDEST PUSH0 DUP1 REVERT JUMPDEST PUSH0 DUP1 REVERT JUMPDEST PUSH0 PUSH1 0x1F NOT PUSH1 0x1F DUP4 ADD AND SWAP1 POP SWAP2 SWAP1 POP JUMP JUMPDEST PUSH32 0x4E487B7100000000000000000000000000000000000000000000000000000000 PUSH0 MSTORE PUSH1 0x41 PUSH1 0x4 MSTORE PUSH1 0x24 PUSH0 REVERT JUMPDEST PUSH2 0x2F8 DUP3 PUSH2 0x2B2 JUMP JUMPDEST DUP2 ADD DUP2 DUP2 LT PUSH8 0xFFFFFFFFFFFFFFFF DUP3 GT OR ISZERO PUSH2 0x317 JUMPI PUSH2 0x316 PUSH2 0x2C2 JUMP JUMPDEST JUMPDEST DUP1 PUSH1 0x40 MSTORE POP POP POP JUMP JUMPDEST PUSH0 PUSH2 0x329 PUSH2 0x23F JUMP JUMPDEST SWAP1 POP PUSH2 0x335 DUP3 DUP3 PUSH2 0x2EF JUMP JUMPDEST SWAP2 SWAP1 POP JUMP JUMPDEST PUSH0 PUSH8 0xFFFFFFFFFFFFFFFF DUP3 GT ISZERO PUSH2 0x354 JUMPI PUSH2 0x353 PUSH2 0x2C2 JUMP JUMPDEST JUMPDEST PUSH2 0x35D DUP3 PUSH2 0x2B2 JUMP JUMPDEST SWAP1 POP PUSH1 0x20 DUP2 ADD SWAP1 POP SWAP2 SWAP1 POP JUMP JUMPDEST DUP3 DUP2 DUP4 MCOPY PUSH0 DUP4 DUP4 ADD MSTORE POP POP POP JUMP JUMPDEST PUSH0 PUSH2 0x38A PUSH2 0x385 DUP5 PUSH2 0x33A JUMP JUMPDEST PUSH2 0x320 JUMP JUMPDEST SWAP1 POP DUP3 DUP2 MSTORE PUSH1 0x20 DUP2 ADD DUP5 DUP5 DUP5 ADD GT ISZERO PUSH2 0x3A6 JUMPI PUSH2 0x3A5 PUSH2 0x2AE JUMP JUMPDEST JUMPDEST PUSH2 0x3B1 DUP5 DUP3 DUP6 PUSH2 0x36A JUMP JUMPDEST POP SWAP4 SWAP3 POP POP POP JUMP JUMPDEST PUSH0 DUP3 PUSH1 0x1F DUP4 ADD SLT PUSH2 0x3CD JUMPI PUSH2 0x3CC PUSH2 0x2AA JUMP JUMPDEST JUMPDEST DUP2 MLOAD PUSH2 0x3DD DUP5 DUP3 PUSH1 0x20 DUP7 ADD PUSH2 0x378 JUMP JUMPDEST SWAP2 POP POP SWAP3 SWAP2 POP POP JUMP JUMPDEST PUSH0 DUP2 SWAP1 POP SWAP2 SWAP1 POP JUMP JUMPDEST PUSH2 0x3F8 DUP2 PUSH2 0x3E6 JUMP JUMPDEST DUP2 EQ PUSH2 0x402 JUMPI PUSH0 DUP1 REVERT JUMPDEST POP JUMP JUMPDEST PUSH0 DUP2 MLOAD SWAP1 POP PUSH2 0x413 DUP2 PUSH2 0x3EF JUMP JUMPDEST SWAP3 SWAP2 POP POP JUMP JUMPDEST PUSH0 DUP1 PUSH0 PUSH1 0x60 DUP5 DUP7 SUB SLT ISZERO PUSH2 0x430 JUMPI PUSH2 0x42F PUSH2 0x248 JUMP JUMPDEST JUMPDEST PUSH0 PUSH2 0x43D DUP7 DUP3 DUP8 ADD PUSH2 0x296 JUMP JUMPDEST SWAP4 POP POP PUSH1 0x20 DUP5 ADD MLOAD PUSH8 0xFFFFFFFFFFFFFFFF DUP2 GT ISZERO PUSH2 0x45E JUMPI PUSH2 0x45D PUSH2 0x24C JUMP JUMPDEST JUMPDEST PUSH2 0x46A DUP7 DUP3 DUP8 ADD PUSH2 0x3B9 JUMP JUMPDEST SWAP3 POP POP PUSH1 0x40 PUSH2 0x47B DUP7 DUP3 DUP8 ADD PUSH2 0x405 JUMP JUMPDEST SWAP2 POP POP SWAP3 POP SWAP3 POP SWAP3 JUMP JUMPDEST PUSH0 DUP2 MLOAD SWAP1 POP SWAP2 SWAP1 POP JUMP JUMPDEST PUSH32 0x4E487B7100000000000000000000000000000000000000000000000000000000 PUSH0 MSTORE PUSH1 0x22 PUSH1 0x4 MSTORE PUSH1 0x24 PUSH0 REVERT JUMPDEST PUSH0 PUSH1 0x2 DUP3 DIV SWAP1 POP PUSH1 0x1 DUP3 AND DUP1 PUSH2 0x4D3 JUMPI PUSH1 0x7F DUP3 AND SWAP2 POP JUMPDEST PUSH1 0x20 DUP3 LT DUP2 SUB PUSH2 0x4E6 JUMPI PUSH2 0x4E5 PUSH2 0x48F JUMP JUMPDEST JUMPDEST POP SWAP2 SWAP1 POP JUMP JUMPDEST PUSH0 DUP2 SWAP1 POP DUP2 PUSH0 MSTORE PUSH1 0x20 PUSH0 KECCAK256 SWAP1 POP SWAP2 SWAP1 POP JUMP JUMPDEST PUSH0 PUSH1 0x20 PUSH1 0x1F DUP4 ADD DIV SWAP1 POP SWAP2 SWAP1 POP JUMP JUMPDEST PUSH0 DUP3 DUP3 SHL SWAP1 POP SWAP3 SWAP2 POP POP JUMP JUMPDEST PUSH0 PUSH1 0x8 DUP4 MUL PUSH2 0x548 PUSH32 0xFFFFFFFFFFFFFFFFFFFFFFFFFFFFFFFFFFFFFFFFFFFFFFFFFFFFFFFFFFFFFFFF DUP3 PUSH2 0x50D JUMP JUMPDEST PUSH2 0x552 DUP7 DUP4 PUSH2 0x50D JUMP JUMPDEST SWAP6 POP DUP1 NOT DUP5 AND SWAP4 POP DUP1 DUP7 AND DUP5 OR SWAP3 POP POP POP SWAP4 SWAP3 POP POP POP JUMP JUMPDEST PUSH0 DUP2 SWAP1 POP SWAP2 SWAP1 POP JUMP JUMPDEST PUSH0 PUSH2 0x58D PUSH2 0x588 PUSH2 0x583 DUP5 PUSH2 0x3E6 JUMP JUMPDEST PUSH2 0x56A JUMP JUMPDEST PUSH2 0x3E6 JUMP JUMPDEST SWAP1 POP SWAP2 SWAP1 POP JUMP JUMPDEST PUSH0 DUP2 SWAP1 POP SWAP2 SWAP1 POP JUMP JUMPDEST PUSH2 0x5A6 DUP4 PUSH2 0x573 JUMP JUMPDEST PUSH2 0x5BA PUSH2 0x5B2 DUP3 PUSH2 0x594 JUMP JUMPDEST DUP5 DUP5 SLOAD PUSH2 0x519 JUMP JUMPDEST DUP3 SSTORE POP POP POP POP JUMP JUMPDEST PUSH0 SWAP1 JUMP JUMPDEST PUSH2 0x5CE PUSH2 0x5C2 JUMP JUMPDEST PUSH2 0x5D9 DUP2 DUP5 DUP5 PUSH2 0x59D JUMP JUMPDEST POP POP POP JUMP JUMPDEST JUMPDEST DUP2 DUP2 LT ISZERO PUSH2 0x5FC JUMPI PUSH2 0x5F1 PUSH0 DUP3 PUSH2 0x5C6 JUMP JUMPDEST PUSH1 0x1 DUP2 ADD SWAP1 POP PUSH2 0x5DF JUMP JUMPDEST POP POP JUMP JUMPDEST PUSH1 0x1F DUP3 GT ISZERO PUSH2 0x641 JUMPI PUSH2 0x612 DUP2 PUSH2 0x4EC JUMP JUMPDEST PUSH2 0x61B DUP5 PUSH2 0x4FE JUMP JUMPDEST DUP2 ADD PUSH1 0x20 DUP6 LT ISZERO PUSH2 0x62A JUMPI DUP2 SWAP1 POP JUMPDEST PUSH2 0x63E PUSH2 0x636 DUP6 PUSH2 0x4FE JUMP JUMPDEST DUP4 ADD DUP3 PUSH2 0x5DE JUMP JUMPDEST POP POP JUMPDEST POP POP POP JUMP JUMPDEST PUSH0 DUP3 DUP3 SHR SWAP1 POP SWAP3 SWAP2 POP POP JUMP JUMPDEST PUSH0 PUSH2 0x661 PUSH0 NOT DUP5 PUSH1 0x8 MUL PUSH2 0x646 JUMP JUMPDEST NOT DUP1 DUP4 AND SWAP2 POP POP SWAP3 SWAP2 POP POP JUMP JUMPDEST PUSH0 PUSH2 0x679 DUP4 DUP4 PUSH2 0x652 JUMP JUMPDEST SWAP2 POP DUP3 PUSH1 0x2 MUL DUP3 OR SWAP1 POP SWAP3 SWAP2 POP POP JUMP JUMPDEST PUSH2 0x692 DUP3 PUSH2 0x485 JUMP JUMPDEST PUSH8 0xFFFFFFFFFFFFFFFF DUP2 GT ISZERO PUSH2 0x6AB JUMPI PUSH2 0x6AA PUSH2 0x2C2 JUMP JUMPDEST JUMPDEST PUSH2 0x6B5 DUP3 SLOAD PUSH2 0x4BC JUMP JUMPDEST PUSH2 0x6C0 DUP3 DUP3 DUP6 PUSH2 0x600 JUMP JUMPDEST PUSH0 PUSH1 0x20 SWAP1 POP PUSH1 0x1F DUP4 GT PUSH1 0x1 DUP2 EQ PUSH2 0x6F1 JUMPI PUSH0 DUP5 ISZERO PUSH2 0x6DF JUMPI DUP3 DUP8 ADD MLOAD SWAP1 POP JUMPDEST PUSH2 0x6E9 DUP6 DUP3 PUSH2 0x66E JUMP JUMPDEST DUP7 SSTORE POP PUSH2 0x750 JUMP JUMPDEST PUSH1 0x1F NOT DUP5 AND PUSH2 0x6FF DUP7 PUSH2 0x4EC JUMP JUMPDEST PUSH0 JUMPDEST DUP3 DUP2 LT ISZERO PUSH2 0x726 JUMPI DUP5 DUP10 ADD MLOAD DUP3 SSTORE PUSH1 0x1 DUP3 ADD SWAP2 POP PUSH1 0x20 DUP6 ADD SWAP5 POP PUSH1 0x20 DUP2 ADD SWAP1 POP PUSH2 0x701 JUMP JUMPDEST DUP7 DUP4 LT ISZERO PUSH2 0x743 JUMPI DUP5 DUP10 ADD MLOAD PUSH2 0x73F PUSH1 0x1F DUP10 AND DUP3 PUSH2 0x652 JUMP JUMPDEST DUP4 SSTORE POP JUMPDEST PUSH1 0x1 PUSH1 0x2 DUP9 MUL ADD DUP9 SSTORE POP POP POP JUMPDEST POP POP POP POP POP POP JUMP JUMPDEST PUSH2 0x761 DUP2 PUSH2 0x26F JUMP JUMPDEST DUP3 MSTORE POP POP JUMP JUMPDEST PUSH0 PUSH1 0x20 DUP3 ADD SWAP1 POP PUSH2 0x77A PUSH0 DUP4 ADD DUP5 PUSH2 0x758 JUMP JUMPDEST SWAP3 SWAP2 POP POP JUMP JUMPDEST PUSH2 0x2C90 DUP1 PUSH2 0x78D PUSH0 CODECOPY PUSH0 RETURN INVALID PUSH1 0x80 PUSH1 0x40 MSTORE CALLVALUE DUP1 ISZERO PUSH2 0xF JUMPI PUSH0 DUP1 REVERT JUMPDEST POP PUSH1 0x4 CALLDATASIZE LT PUSH2 0x1C2 JUMPI PUSH0 CALLDATALOAD PUSH1 0xE0 SHR DUP1 PUSH4 0x5C975ABB GT PUSH2 0xF7 JUMPI DUP1 PUSH4 0x95D89B41 GT PUSH2 0x95 JUMPI DUP1 PUSH4 0xB88D4FDE GT PUSH2 0x6F JUMPI DUP1 PUSH4 0xB88D4FDE EQ PUSH2 0x4B8 JUMPI DUP1 PUSH4 0xC87B56DD EQ PUSH2 0x4D4 JUMPI DUP1 PUSH4 0xE985E9C5 EQ PUSH2 0x504 JUMPI DUP1 PUSH4 0xF2FDE38B EQ PUSH2 0x534 JUMPI PUSH2 0x1C2 JUMP JUMPDEST DUP1 PUSH4 0x95D89B41 EQ PUSH2 0x462 JUMPI DUP1 PUSH4 0xA1448194 EQ PUSH2 0x480 JUMPI DUP1 PUSH4 0xA22CB465 EQ PUSH2 0x49C JUMPI PUSH2 0x1C2 JUMP JUMPDEST DUP1 PUSH4 0x715018A6 GT PUSH2 0xD1 JUMPI DUP1 PUSH4 0x715018A6 EQ PUSH2 0x414 JUMPI DUP1 PUSH4 0x8456CB59 EQ PUSH2 0x41E JUMPI DUP1 PUSH4 0x85535CC5 EQ PUSH2 0x428 JUMPI DUP1 PUSH4 0x8DA5CB5B EQ PUSH2 0x444 JUMPI PUSH2 0x1C2 JUMP JUMPDEST DUP1 PUSH4 0x5C975ABB EQ PUSH2 0x396 JUMPI DUP1 PUSH4 0x6352211E EQ PUSH2 0x3B4 JUMPI DUP1 PUSH4 0x70A08231 EQ PUSH2 0x3E4 JUMPI PUSH2 0x1C2 JUMP JUMPDEST DUP1 PUSH4 0x2A7065EA GT PUSH2 0x164 JUMPI DUP1 PUSH4 0x42842E0E GT PUSH2 0x13E JUMPI DUP1 PUSH4 0x42842E0E EQ PUSH2 0x310 JUMPI DUP1 PUSH4 0x430BF08A EQ PUSH2 0x32C JUMPI DUP1 PUSH4 0x4F6CCCE7 EQ PUSH2 0x34A JUMPI DUP1 PUSH4 0x55F804B3 EQ PUSH2 0x37A JUMPI PUSH2 0x1C2 JUMP JUMPDEST DUP1 PUSH4 0x2A7065EA EQ PUSH2 0x2B8 JUMPI DUP1 PUSH4 0x2F745C59 EQ PUSH2 0x2D6 JUMPI DUP1 PUSH4 0x3F4BA83A EQ PUSH2 0x306 JUMPI PUSH2 0x1C2 JUMP JUMPDEST DUP1 PUSH4 0x95EA7B3 GT PUSH2 0x1A0 JUMPI DUP1 PUSH4 0x95EA7B3 EQ PUSH2 0x244 JUMPI DUP1 PUSH4 0xAF2C6CA EQ PUSH2 0x260 JUMPI DUP1 PUSH4 0x18160DDD EQ PUSH2 0x27E JUMPI DUP1 PUSH4 0x23B872DD EQ PUSH2 0x29C JUMPI PUSH2 0x1C2 JUMP JUMPDEST DUP1 PUSH4 0x1FFC9A7 EQ PUSH2 0x1C6 JUMPI DUP1 PUSH4 0x6FDDE03 EQ PUSH2 0x1F6 JUMPI DUP1 PUSH4 0x81812FC EQ PUSH2 0x214 JUMPI JUMPDEST PUSH0 DUP1 REVERT JUMPDEST PUSH2 0x1E0 PUSH1 0x4 DUP1 CALLDATASIZE SUB DUP2 ADD SWAP1 PUSH2 0x1DB SWAP2 SWAP1 PUSH2 0x20D8 JUMP JUMPDEST PUSH2 0x550 JUMP JUMPDEST PUSH1 0x40 MLOAD PUSH2 0x1ED SWAP2 SWAP1 PUSH2 0x211D JUMP JUMPDEST PUSH1 0x40 MLOAD DUP1 SWAP2 SUB SWAP1 RETURN JUMPDEST PUSH2 0x1FE PUSH2 0x561 JUMP JUMPDEST PUSH1 0x40 MLOAD PUSH2 0x20B SWAP2 SWAP1 PUSH2 0x21A6 JUMP JUMPDEST PUSH1 0x40 MLOAD DUP1 SWAP2 SUB SWAP1 RETURN JUMPDEST PUSH2 0x22E PUSH1 0x4 DUP1 CALLDATASIZE SUB DUP2 ADD SWAP1 PUSH2 0x229 SWAP2 SWAP1 PUSH2 0x21F9 JUMP JUMPDEST PUSH2 0x5F0 JUMP JUMPDEST PUSH1 0x40 MLOAD PUSH2 0x23B SWAP2 SWAP1 PUSH2 0x2263 JUMP JUMPDEST PUSH1 0x40 MLOAD DUP1 SWAP2 SUB SWAP1 RETURN JUMPDEST PUSH2 0x25E PUSH1 0x4 DUP1 CALLDATASIZE SUB DUP2 ADD SWAP1 PUSH2 0x259 SWAP2 SWAP1 PUSH2 0x22A6 JUMP JUMPDEST PUSH2 0x60B JUMP JUMPDEST STOP JUMPDEST PUSH2 0x268 PUSH2 0x621 JUMP JUMPDEST PUSH1 0x40 MLOAD PUSH2 0x275 SWAP2 SWAP1 PUSH2 0x22F3 JUMP JUMPDEST PUSH1 0x40 MLOAD DUP1 SWAP2 SUB SWAP1 RETURN JUMPDEST PUSH2 0x286 PUSH2 0x62A JUMP JUMPDEST PUSH1 0x40 MLOAD PUSH2 0x293 SWAP2 SWAP1 PUSH2 0x22F3 JUMP JUMPDEST PUSH1 0x40 MLOAD DUP1 SWAP2 SUB SWAP1 RETURN JUMPDEST PUSH2 0x2B6 PUSH1 0x4 DUP1 CALLDATASIZE SUB DUP2 ADD SWAP1 PUSH2 0x2B1 SWAP2 SWAP1 PUSH2 0x230C JUMP JUMPDEST PUSH2 0x636 JUMP JUMPDEST STOP JUMPDEST PUSH2 0x2C0 PUSH2 0x735 JUMP JUMPDEST PUSH1 0x40 MLOAD PUSH2 0x2CD SWAP2 SWAP1 PUSH2 0x22F3 JUMP JUMPDEST PUSH1 0x40 MLOAD DUP1 SWAP2 SUB SWAP1 RETURN JUMPDEST PUSH2 0x2F0 PUSH1 0x4 DUP1 CALLDATASIZE SUB DUP2 ADD SWAP1 PUSH2 0x2EB SWAP2 SWAP1 PUSH2 0x22A6 JUMP JUMPDEST PUSH2 0x73B JUMP JUMPDEST PUSH1 0x40 MLOAD PUSH2 0x2FD SWAP2 SWAP1 PUSH2 0x22F3 JUMP JUMPDEST PUSH1 0x40 MLOAD DUP1 SWAP2 SUB SWAP1 RETURN JUMPDEST PUSH2 0x30E PUSH2 0x7DF JUMP JUMPDEST STOP JUMPDEST PUSH2 0x32A PUSH1 0x4 DUP1 CALLDATASIZE SUB DUP2 ADD SWAP1 PUSH2 0x325 SWAP2 SWAP1 PUSH2 0x230C JUMP JUMPDEST PUSH2 0x7F1 JUMP JUMPDEST STOP JUMPDEST PUSH2 0x334 PUSH2 0x810 JUMP JUMPDEST PUSH1 0x40 MLOAD PUSH2 0x341 SWAP2 SWAP1 PUSH2 0x2263 JUMP JUMPDEST PUSH1 0x40 MLOAD DUP1 SWAP2 SUB SWAP1 RETURN JUMPDEST PUSH2 0x364 PUSH1 0x4 DUP1 CALLDATASIZE SUB DUP2 ADD SWAP1 PUSH2 0x35F SWAP2 SWAP1 PUSH2 0x21F9 JUMP JUMPDEST PUSH2 0x835 JUMP JUMPDEST PUSH1 0x40 MLOAD PUSH2 0x371 SWAP2 SWAP1 PUSH2 0x22F3 JUMP JUMPDEST PUSH1 0x40 MLOAD DUP1 SWAP2 SUB SWAP1 RETURN JUMPDEST PUSH2 0x394 PUSH1 0x4 DUP1 CALLDATASIZE SUB DUP2 ADD SWAP1 PUSH2 0x38F SWAP2 SWAP1 PUSH2 0x2488 JUMP JUMPDEST PUSH2 0x8A7 JUMP JUMPDEST STOP JUMPDEST PUSH2 0x39E PUSH2 0x8C2 JUMP JUMPDEST PUSH1 0x40 MLOAD PUSH2 0x3AB SWAP2 SWAP1 PUSH2 0x211D JUMP JUMPDEST PUSH1 0x40 MLOAD DUP1 SWAP2 SUB SWAP1 RETURN JUMPDEST PUSH2 0x3CE PUSH1 0x4 DUP1 CALLDATASIZE SUB DUP2 ADD SWAP1 PUSH2 0x3C9 SWAP2 SWAP1 PUSH2 0x21F9 JUMP JUMPDEST PUSH2 0x8D7 JUMP JUMPDEST PUSH1 0x40 MLOAD PUSH2 0x3DB SWAP2 SWAP1 PUSH2 0x2263 JUMP JUMPDEST PUSH1 0x40 MLOAD DUP1 SWAP2 SUB SWAP1 RETURN JUMPDEST PUSH2 0x3FE PUSH1 0x4 DUP1 CALLDATASIZE SUB DUP2 ADD SWAP1 PUSH2 0x3F9 SWAP2 SWAP1 PUSH2 0x24CF JUMP JUMPDEST PUSH2 0x8E8 JUMP JUMPDEST PUSH1 0x40 MLOAD PUSH2 0x40B SWAP2 SWAP1 PUSH2 0x22F3 JUMP JUMPDEST PUSH1 0x40 MLOAD DUP1 SWAP2 SUB SWAP1 RETURN JUMPDEST PUSH2 0x41C PUSH2 0x99E JUMP JUMPDEST STOP JUMPDEST PUSH2 0x426 PUSH2 0x9B1 JUMP JUMPDEST STOP JUMPDEST PUSH2 0x442 PUSH1 0x4 DUP1 CALLDATASIZE SUB DUP2 ADD SWAP1 PUSH2 0x43D SWAP2 SWAP1 PUSH2 0x24CF JUMP JUMPDEST PUSH2 0x9C3 JUMP JUMPDEST STOP JUMPDEST PUSH2 0x44C PUSH2 0xA0E JUMP JUMPDEST PUSH1 0x40 MLOAD PUSH2 0x459 SWAP2 SWAP1 PUSH2 0x2263 JUMP JUMPDEST PUSH1 0x40 MLOAD DUP1 SWAP2 SUB SWAP1 RETURN JUMPDEST PUSH2 0x46A PUSH2 0xA36 JUMP JUMPDEST PUSH1 0x40 MLOAD PUSH2 0x477 SWAP2 SWAP1 PUSH2 0x21A6 JUMP JUMPDEST PUSH1 0x40 MLOAD DUP1 SWAP2 SUB SWAP1 RETURN JUMPDEST PUSH2 0x49A PUSH1 0x4 DUP1 CALLDATASIZE SUB DUP2 ADD SWAP1 PUSH2 0x495 SWAP2 SWAP1 PUSH2 0x22A6 JUMP JUMPDEST PUSH2 0xAC6 JUMP JUMPDEST STOP JUMPDEST PUSH2 0x4B6 PUSH1 0x4 DUP1 CALLDATASIZE SUB DUP2 ADD SWAP1 PUSH2 0x4B1 SWAP2 SWAP1 PUSH2 0x2524 JUMP JUMPDEST PUSH2 0xBF1 JUMP JUMPDEST STOP JUMPDEST PUSH2 0x4D2 PUSH1 0x4 DUP1 CALLDATASIZE SUB DUP2 ADD SWAP1 PUSH2 0x4CD SWAP2 SWAP1 PUSH2 0x2600 JUMP JUMPDEST PUSH2 0xC07 JUMP JUMPDEST STOP JUMPDEST PUSH2 0x4EE PUSH1 0x4 DUP1 CALLDATASIZE SUB DUP2 ADD SWAP1 PUSH2 0x4E9 SWAP2 SWAP1 PUSH2 0x21F9 JUMP JUMPDEST PUSH2 0xC2C JUMP JUMPDEST PUSH1 0x40 MLOAD PUSH2 0x4FB SWAP2 SWAP1 PUSH2 0x21A6 JUMP JUMPDEST PUSH1 0x40 MLOAD DUP1 SWAP2 SUB SWAP1 RETURN JUMPDEST PUSH2 0x51E PUSH1 0x4 DUP1 CALLDATASIZE SUB DUP2 ADD SWAP1 PUSH2 0x519 SWAP2 SWAP1 PUSH2 0x2680 JUMP JUMPDEST PUSH2 0xCBE JUMP JUMPDEST PUSH1 0x40 MLOAD PUSH2 0x52B SWAP2 SWAP1 PUSH2 0x211D JUMP JUMPDEST PUSH1 0x40 MLOAD DUP1 SWAP2 SUB SWAP1 RETURN JUMPDEST PUSH2 0x54E PUSH1 0x4 DUP1 CALLDATASIZE SUB DUP2 ADD SWAP1 PUSH2 0x549 SWAP2 SWAP1 PUSH2 0x24CF JUMP JUMPDEST PUSH2 0xD4C JUMP JUMPDEST STOP JUMPDEST PUSH0 PUSH2 0x55A DUP3 PUSH2 0xDD0 JUMP JUMPDEST SWAP1 POP SWAP2 SWAP1 POP JUMP JUMPDEST PUSH1 0x60 PUSH0 DUP1 SLOAD PUSH2 0x56F SWAP1 PUSH2 0x26EB JUMP JUMPDEST DUP1 PUSH1 0x1F ADD PUSH1 0x20 DUP1 SWAP2 DIV MUL PUSH1 0x20 ADD PUSH1 0x40 MLOAD SWAP1 DUP2 ADD PUSH1 0x40 MSTORE DUP1 SWAP3 SWAP2 SWAP1 DUP2 DUP2 MSTORE PUSH1 0x20 ADD DUP3 DUP1 SLOAD PUSH2 0x59B SWAP1 PUSH2 0x26EB JUMP JUMPDEST DUP1 ISZERO PUSH2 0x5E6 JUMPI DUP1 PUSH1 0x1F LT PUSH2 0x5BD JUMPI PUSH2 0x100 DUP1 DUP4 SLOAD DIV MUL DUP4 MSTORE SWAP2 PUSH1 0x20 ADD SWAP2 PUSH2 0x5E6 JUMP JUMPDEST DUP3 ADD SWAP2 SWAP1 PUSH0 MSTORE PUSH1 0x20 PUSH0 KECCAK256 SWAP1 JUMPDEST DUP2 SLOAD DUP2 MSTORE SWAP1 PUSH1 0x1 ADD SWAP1 PUSH1 0x20 ADD DUP1 DUP4 GT PUSH2 0x5C9 JUMPI DUP3 SWAP1 SUB PUSH1 0x1F AND DUP3 ADD SWAP2 JUMPDEST POP POP POP POP POP SWAP1 POP SWAP1 JUMP JUMPDEST PUSH0 PUSH2 0x5FA DUP3 PUSH2 0xE49 JUMP JUMPDEST POP PUSH2 0x604 DUP3 PUSH2 0xECF JUMP JUMPDEST SWAP1 POP SWAP2 SWAP1 POP JUMP JUMPDEST PUSH2 0x61D DUP3 DUP3 PUSH2 0x618 PUSH2 0xF08 JUMP JUMPDEST PUSH2 0xF0F JUMP JUMPDEST POP POP JUMP JUMPDEST PUSH0 PUSH1 0xC SLOAD SWAP1 POP SWAP1 JUMP JUMPDEST PUSH0 PUSH1 0x9 DUP1 SLOAD SWAP1 POP SWAP1 POP SWAP1 JUMP JUMPDEST PUSH0 PUSH20 0xFFFFFFFFFFFFFFFFFFFFFFFFFFFFFFFFFFFFFFFF AND DUP3 PUSH20 0xFFFFFFFFFFFFFFFFFFFFFFFFFFFFFFFFFFFFFFFF AND SUB PUSH2 0x6A6 JUMPI PUSH0 PUSH1 0x40 MLOAD PUSH32 0x64A0AE9200000000000000000000000000000000000000000000000000000000 DUP2 MSTORE PUSH1 0x4 ADD PUSH2 0x69D SWAP2 SWAP1 PUSH2 0x2263 JUMP JUMPDEST PUSH1 0x40 MLOAD DUP1 SWAP2 SUB SWAP1 REVERT JUMPDEST PUSH0 PUSH2 0x6B9 DUP4 DUP4 PUSH2 0x6B4 PUSH2 0xF08 JUMP JUMPDEST PUSH2 0xF21 JUMP JUMPDEST SWAP1 POP DUP4 PUSH20 0xFFFFFFFFFFFFFFFFFFFFFFFFFFFFFFFFFFFFFFFF AND DUP2 PUSH20 0xFFFFFFFFFFFFFFFFFFFFFFFFFFFFFFFFFFFFFFFF AND EQ PUSH2 0x72F JUMPI DUP4 DUP3 DUP3 PUSH1 0x40 MLOAD PUSH32 0x64283D7B00000000000000000000000000000000000000000000000000000000 DUP2 MSTORE PUSH1 0x4 ADD PUSH2 0x726 SWAP4 SWAP3 SWAP2 SWAP1 PUSH2 0x271B JUMP JUMPDEST PUSH1 0x40 MLOAD DUP1 SWAP2 SUB SWAP1 REVERT JUMPDEST POP POP POP POP JUMP JUMPDEST PUSH1 0xF SLOAD DUP2 JUMP JUMPDEST PUSH0 PUSH2 0x745 DUP4 PUSH2 0x8E8 JUMP JUMPDEST DUP3 LT PUSH2 0x78A JUMPI DUP3 DUP3 PUSH1 0x40 MLOAD PUSH32 0xA57D13DC00000000000000000000000000000000000000000000000000000000 DUP2 MSTORE PUSH1 0x4 ADD PUSH2 0x781 SWAP3 SWAP2 SWAP1 PUSH2 0x2750 JUMP JUMPDEST PUSH1 0x40 MLOAD DUP1 SWAP2 SUB SWAP1 REVERT JUMPDEST PUSH1 0x7 PUSH0 DUP5 PUSH20 0xFFFFFFFFFFFFFFFFFFFFFFFFFFFFFFFFFFFFFFFF AND PUSH20 0xFFFFFFFFFFFFFFFFFFFFFFFFFFFFFFFFFFFFFFFF AND DUP2 MSTORE PUSH1 0x20 ADD SWAP1 DUP2 MSTORE PUSH1 0x20 ADD PUSH0 KECCAK256 PUSH0 DUP4 DUP2 MSTORE PUSH1 0x20 ADD SWAP1 DUP2 MSTORE PUSH1 0x20 ADD PUSH0 KECCAK256 SLOAD SWAP1 POP SWAP3 SWAP2 POP POP JUMP JUMPDEST PUSH2 0x7E7 PUSH2 0xF36 JUMP JUMPDEST PUSH2 0x7EF PUSH2 0xFBD JUMP JUMPDEST JUMP JUMPDEST PUSH2 0x80B DUP4 DUP4 DUP4 PUSH1 0x40 MLOAD DUP1 PUSH1 0x20 ADD PUSH1 0x40 MSTORE DUP1 PUSH0 DUP2 MSTORE POP PUSH2 0xC07 JUMP JUMPDEST POP POP POP JUMP JUMPDEST PUSH1 0xE PUSH0 SWAP1 SLOAD SWAP1 PUSH2 0x100 EXP SWAP1 DIV PUSH20 0xFFFFFFFFFFFFFFFFFFFFFFFFFFFFFFFFFFFFFFFF AND DUP2 JUMP JUMPDEST PUSH0 PUSH2 0x83E PUSH2 0x62A JUMP JUMPDEST DUP3 LT PUSH2 0x883 JUMPI PUSH0 DUP3 PUSH1 0x40 MLOAD PUSH32 0xA57D13DC00000000000000000000000000000000000000000000000000000000 DUP2 MSTORE PUSH1 0x4 ADD PUSH2 0x87A SWAP3 SWAP2 SWAP1 PUSH2 0x2750 JUMP JUMPDEST PUSH1 0x40 MLOAD DUP1 SWAP2 SUB SWAP1 REVERT JUMPDEST PUSH1 0x9 DUP3 DUP2 SLOAD DUP2 LT PUSH2 0x897 JUMPI PUSH2 0x896 PUSH2 0x2777 JUMP JUMPDEST JUMPDEST SWAP1 PUSH0 MSTORE PUSH1 0x20 PUSH0 KECCAK256 ADD SLOAD SWAP1 POP SWAP2 SWAP1 POP JUMP JUMPDEST PUSH2 0x8AF PUSH2 0xF36 JUMP JUMPDEST DUP1 PUSH1 0xD SWAP1 DUP2 PUSH2 0x8BE SWAP2 SWAP1 PUSH2 0x2941 JUMP JUMPDEST POP POP JUMP JUMPDEST PUSH0 PUSH1 0x6 PUSH0 SWAP1 SLOAD SWAP1 PUSH2 0x100 EXP SWAP1 DIV PUSH1 0xFF AND SWAP1 POP SWAP1 JUMP JUMPDEST PUSH0 PUSH2 0x8E1 DUP3 PUSH2 0xE49 JUMP JUMPDEST SWAP1 POP SWAP2 SWAP1 POP JUMP JUMPDEST PUSH0 DUP1 PUSH20 0xFFFFFFFFFFFFFFFFFFFFFFFFFFFFFFFFFFFFFFFF AND DUP3 PUSH20 0xFFFFFFFFFFFFFFFFFFFFFFFFFFFFFFFFFFFFFFFF AND SUB PUSH2 0x959 JUMPI PUSH0 PUSH1 0x40 MLOAD PUSH32 0x89C62B6400000000000000000000000000000000000000000000000000000000 DUP2 MSTORE PUSH1 0x4 ADD PUSH2 0x950 SWAP2 SWAP1 PUSH2 0x2263 JUMP JUMPDEST PUSH1 0x40 MLOAD DUP1 SWAP2 SUB SWAP1 REVERT JUMPDEST PUSH1 0x3 PUSH0 DUP4 PUSH20 0xFFFFFFFFFFFFFFFFFFFFFFFFFFFFFFFFFFFFFFFF AND PUSH20 0xFFFFFFFFFFFFFFFFFFFFFFFFFFFFFFFFFFFFFFFF AND DUP2 MSTORE PUSH1 0x20 ADD SWAP1 DUP2 MSTORE PUSH1 0x20 ADD PUSH0 KECCAK256 SLOAD SWAP1 POP SWAP2 SWAP1 POP JUMP JUMPDEST PUSH2 0x9A6 PUSH2 0xF36 JUMP JUMPDEST PUSH2 0x9AF PUSH0 PUSH2 0x101E JUMP JUMPDEST JUMP JUMPDEST PUSH2 0x9B9 PUSH2 0xF36 JUMP JUMPDEST PUSH2 0x9C1 PUSH2 0x10E1 JUMP JUMPDEST JUMP JUMPDEST PUSH2 0x9CB PUSH2 0xF36 JUMP JUMPDEST DUP1 PUSH1 0xE PUSH0 PUSH2 0x100 EXP DUP2 SLOAD DUP2 PUSH20 0xFFFFFFFFFFFFFFFFFFFFFFFFFFFFFFFFFFFFFFFF MUL NOT AND SWAP1 DUP4 PUSH20 0xFFFFFFFFFFFFFFFFFFFFFFFFFFFFFFFFFFFFFFFF AND MUL OR SWAP1 SSTORE POP POP JUMP JUMPDEST PUSH0 PUSH1 0xB PUSH0 SWAP1 SLOAD SWAP1 PUSH2 0x100 EXP SWAP1 DIV PUSH20 0xFFFFFFFFFFFFFFFFFFFFFFFFFFFFFFFFFFFFFFFF AND SWAP1 POP SWAP1 JUMP JUMPDEST PUSH1 0x60 PUSH1 0x1 DUP1 SLOAD PUSH2 0xA45 SWAP1 PUSH2 0x26EB JUMP JUMPDEST DUP1 PUSH1 0x1F ADD PUSH1 0x20 DUP1 SWAP2 DIV MUL PUSH1 0x20 ADD PUSH1 0x40 MLOAD SWAP1 DUP2 ADD PUSH1 0x40 MSTORE DUP1 SWAP3 SWAP2 SWAP1 DUP2 DUP2 MSTORE PUSH1 0x20 ADD DUP3 DUP1 SLOAD PUSH2 0xA71 SWAP1 PUSH2 0x26EB JUMP JUMPDEST DUP1 ISZERO PUSH2 0xABC JUMPI DUP1 PUSH1 0x1F LT PUSH2 0xA93 JUMPI PUSH2 0x100 DUP1 DUP4 SLOAD DIV MUL DUP4 MSTORE SWAP2 PUSH1 0x20 ADD SWAP2 PUSH2 0xABC JUMP JUMPDEST DUP3 ADD SWAP2 SWAP1 PUSH0 MSTORE PUSH1 0x20 PUSH0 KECCAK256 SWAP1 JUMPDEST DUP2 SLOAD DUP2 MSTORE SWAP1 PUSH1 0x1 ADD SWAP1 PUSH1 0x20 ADD DUP1 DUP4 GT PUSH2 0xA9F JUMPI DUP3 SWAP1 SUB PUSH1 0x1F AND DUP3 ADD SWAP2 JUMPDEST POP POP POP POP POP SWAP1 POP SWAP1 JUMP JUMPDEST DUP1 PUSH1 0xC SLOAD PUSH2 0xAD4 SWAP2 SWAP1 PUSH2 0x2A3D JUMP JUMPDEST PUSH1 0xF SLOAD LT ISZERO PUSH2 0xAE1 JUMPI PUSH0 DUP1 REVERT JUMPDEST PUSH2 0xAE9 PUSH2 0xA0E JUMP JUMPDEST PUSH20 0xFFFFFFFFFFFFFFFFFFFFFFFFFFFFFFFFFFFFFFFF AND CALLER PUSH20 0xFFFFFFFFFFFFFFFFFFFFFFFFFFFFFFFFFFFFFFFF AND EQ DUP1 PUSH2 0xB6E JUMPI POP PUSH1 0xE PUSH0 SWAP1 SLOAD SWAP1 PUSH2 0x100 EXP SWAP1 DIV PUSH20 0xFFFFFFFFFFFFFFFFFFFFFFFFFFFFFFFFFFFFFFFF AND PUSH20 0xFFFFFFFFFFFFFFFFFFFFFFFFFFFFFFFFFFFFFFFF AND CALLER PUSH20 0xFFFFFFFFFFFFFFFFFFFFFFFFFFFFFFFFFFFFFFFF AND EQ JUMPDEST PUSH2 0xBAD JUMPI PUSH1 0x40 MLOAD PUSH32 0x8C379A000000000000000000000000000000000000000000000000000000000 DUP2 MSTORE PUSH1 0x4 ADD PUSH2 0xBA4 SWAP1 PUSH2 0x2ABA JUMP JUMPDEST PUSH1 0x40 MLOAD DUP1 SWAP2 SUB SWAP1 REVERT JUMPDEST PUSH0 JUMPDEST DUP2 DUP2 LT ISZERO PUSH2 0xBEC JUMPI PUSH0 PUSH1 0xC SLOAD SWAP1 POP PUSH2 0xBC7 DUP5 DUP3 PUSH2 0x1143 JUMP JUMPDEST PUSH1 0xC PUSH0 DUP2 SLOAD DUP1 SWAP3 SWAP2 SWAP1 PUSH2 0xBD9 SWAP1 PUSH2 0x2AD8 JUMP JUMPDEST SWAP2 SWAP1 POP SSTORE POP POP DUP1 DUP1 PUSH1 0x1 ADD SWAP2 POP POP PUSH2 0xBAF JUMP JUMPDEST POP POP POP JUMP JUMPDEST PUSH2 0xC03 PUSH2 0xBFC PUSH2 0xF08 JUMP JUMPDEST DUP4 DUP4 PUSH2 0x1160 JUMP JUMPDEST POP POP JUMP JUMPDEST PUSH2 0xC12 DUP5 DUP5 DUP5 PUSH2 0x636 JUMP JUMPDEST PUSH2 0xC26 PUSH2 0xC1D PUSH2 0xF08 JUMP JUMPDEST DUP6 DUP6 DUP6 DUP6 PUSH2 0x12C9 JUMP JUMPDEST POP POP POP POP JUMP JUMPDEST PUSH1 0x60 PUSH1 0xD DUP1 SLOAD PUSH2 0xC3B SWAP1 PUSH2 0x26EB JUMP JUMPDEST DUP1 PUSH1 0x1F ADD PUSH1 0x20 DUP1 SWAP2 DIV MUL PUSH1 0x20 ADD PUSH1 0x40 MLOAD SWAP1 DUP2 ADD PUSH1 0x40 MSTORE DUP1 SWAP3 SWAP2 SWAP1 DUP2 DUP2 MSTORE PUSH1 0x20 ADD DUP3 DUP1 SLOAD PUSH2 0xC67 SWAP1 PUSH2 0x26EB JUMP JUMPDEST DUP1 ISZERO PUSH2 0xCB2 JUMPI DUP1 PUSH1 0x1F LT PUSH2 0xC89 JUMPI PUSH2 0x100 DUP1 DUP4 SLOAD DIV MUL DUP4 MSTORE SWAP2 PUSH1 0x20 ADD SWAP2 PUSH2 0xCB2 JUMP JUMPDEST DUP3 ADD SWAP2 SWAP1 PUSH0 MSTORE PUSH1 0x20 PUSH0 KECCAK256 SWAP1 JUMPDEST DUP2 SLOAD DUP2 MSTORE SWAP1 PUSH1 0x1 ADD SWAP1 PUSH1 0x20 ADD DUP1 DUP4 GT PUSH2 0xC95 JUMPI DUP3 SWAP1 SUB PUSH1 0x1F AND DUP3 ADD SWAP2 JUMPDEST POP POP POP POP POP SWAP1 POP SWAP2 SWAP1 POP JUMP JUMPDEST PUSH0 PUSH1 0x5 PUSH0 DUP5 PUSH20 0xFFFFFFFFFFFFFFFFFFFFFFFFFFFFFFFFFFFFFFFF AND PUSH20 0xFFFFFFFFFFFFFFFFFFFFFFFFFFFFFFFFFFFFFFFF AND DUP2 MSTORE PUSH1 0x20 ADD SWAP1 DUP2 MSTORE PUSH1 0x20 ADD PUSH0 KECCAK256 PUSH0 DUP4 PUSH20 0xFFFFFFFFFFFFFFFFFFFFFFFFFFFFFFFFFFFFFFFF AND PUSH20 0xFFFFFFFFFFFFFFFFFFFFFFFFFFFFFFFFFFFFFFFF AND DUP2 MSTORE PUSH1 0x20 ADD SWAP1 DUP2 MSTORE PUSH1 0x20 ADD PUSH0 KECCAK256 PUSH0 SWAP1 SLOAD SWAP1 PUSH2 0x100 EXP SWAP1 DIV PUSH1 0xFF AND SWAP1 POP SWAP3 SWAP2 POP POP JUMP JUMPDEST PUSH2 0xD54 PUSH2 0xF36 JUMP JUMPDEST PUSH0 PUSH20 0xFFFFFFFFFFFFFFFFFFFFFFFFFFFFFFFFFFFFFFFF AND DUP2 PUSH20 0xFFFFFFFFFFFFFFFFFFFFFFFFFFFFFFFFFFFFFFFF AND SUB PUSH2 0xDC4 JUMPI PUSH0 PUSH1 0x40 MLOAD PUSH32 0x1E4FBDF700000000000000000000000000000000000000000000000000000000 DUP2 MSTORE PUSH1 0x4 ADD PUSH2 0xDBB SWAP2 SWAP1 PUSH2 0x2263 JUMP JUMPDEST PUSH1 0x40 MLOAD DUP1 SWAP2 SUB SWAP1 REVERT JUMPDEST PUSH2 0xDCD DUP2 PUSH2 0x101E JUMP JUMPDEST POP JUMP JUMPDEST PUSH0 PUSH32 0x780E9D6300000000000000000000000000000000000000000000000000000000 PUSH28 0xFFFFFFFFFFFFFFFFFFFFFFFFFFFFFFFFFFFFFFFFFFFFFFFFFFFFFFFF NOT AND DUP3 PUSH28 0xFFFFFFFFFFFFFFFFFFFFFFFFFFFFFFFFFFFFFFFFFFFFFFFFFFFFFFFF NOT AND EQ DUP1 PUSH2 0xE42 JUMPI POP PUSH2 0xE41 DUP3 PUSH2 0x1475 JUMP JUMPDEST JUMPDEST SWAP1 POP SWAP2 SWAP1 POP JUMP JUMPDEST PUSH0 DUP1 PUSH2 0xE54 DUP4 PUSH2 0x1556 JUMP JUMPDEST SWAP1 POP PUSH0 PUSH20 0xFFFFFFFFFFFFFFFFFFFFFFFFFFFFFFFFFFFFFFFF AND DUP2 PUSH20 0xFFFFFFFFFFFFFFFFFFFFFFFFFFFFFFFFFFFFFFFF AND SUB PUSH2 0xEC6 JUMPI DUP3 PUSH1 0x40 MLOAD PUSH32 0x7E27328900000000000000000000000000000000000000000000000000000000 DUP2 MSTORE PUSH1 0x4 ADD PUSH2 0xEBD SWAP2 SWAP1 PUSH2 0x22F3 JUMP JUMPDEST PUSH1 0x40 MLOAD DUP1 SWAP2 SUB SWAP1 REVERT JUMPDEST DUP1 SWAP2 POP POP SWAP2 SWAP1 POP JUMP JUMPDEST PUSH0 PUSH1 0x4 PUSH0 DUP4 DUP2 MSTORE PUSH1 0x20 ADD SWAP1 DUP2 MSTORE PUSH1 0x20 ADD PUSH0 KECCAK256 PUSH0 SWAP1 SLOAD SWAP1 PUSH2 0x100 EXP SWAP1 DIV PUSH20 0xFFFFFFFFFFFFFFFFFFFFFFFFFFFFFFFFFFFFFFFF AND SWAP1 POP SWAP2 SWAP1 POP JUMP JUMPDEST PUSH0 CALLER SWAP1 POP SWAP1 JUMP JUMPDEST PUSH2 0xF1C DUP4 DUP4 DUP4 PUSH1 0x1 PUSH2 0x158F JUMP JUMPDEST POP POP POP JUMP JUMPDEST PUSH0 PUSH2 0xF2D DUP5 DUP5 DUP5 PUSH2 0x174E JUMP JUMPDEST SWAP1 POP SWAP4 SWAP3 POP POP POP JUMP JUMPDEST PUSH2 0xF3E PUSH2 0xF08 JUMP JUMPDEST PUSH20 0xFFFFFFFFFFFFFFFFFFFFFFFFFFFFFFFFFFFFFFFF AND PUSH2 0xF5C PUSH2 0xA0E JUMP JUMPDEST PUSH20 0xFFFFFFFFFFFFFFFFFFFFFFFFFFFFFFFFFFFFFFFF AND EQ PUSH2 0xFBB JUMPI PUSH2 0xF7F PUSH2 0xF08 JUMP JUMPDEST PUSH1 0x40 MLOAD PUSH32 0x118CDAA700000000000000000000000000000000000000000000000000000000 DUP2 MSTORE PUSH1 0x4 ADD PUSH2 0xFB2 SWAP2 SWAP1 PUSH2 0x2263 JUMP JUMPDEST PUSH1 0x40 MLOAD DUP1 SWAP2 SUB SWAP1 REVERT JUMPDEST JUMP JUMPDEST PUSH2 0xFC5 PUSH2 0x1868 JUMP JUMPDEST PUSH0 PUSH1 0x6 PUSH0 PUSH2 0x100 EXP DUP2 SLOAD DUP2 PUSH1 0xFF MUL NOT AND SWAP1 DUP4 ISZERO ISZERO MUL OR SWAP1 SSTORE POP PUSH32 0x5DB9EE0A495BF2E6FF9C91A7834C1BA4FDD244A5E8AA4E537BD38AEAE4B073AA PUSH2 0x1007 PUSH2 0xF08 JUMP JUMPDEST PUSH1 0x40 MLOAD PUSH2 0x1014 SWAP2 SWAP1 PUSH2 0x2263 JUMP JUMPDEST PUSH1 0x40 MLOAD DUP1 SWAP2 SUB SWAP1 LOG1 JUMP JUMPDEST PUSH0 PUSH1 0xB PUSH0 SWAP1 SLOAD SWAP1 PUSH2 0x100 EXP SWAP1 DIV PUSH20 0xFFFFFFFFFFFFFFFFFFFFFFFFFFFFFFFFFFFFFFFF AND SWAP1 POP DUP2 PUSH1 0xB PUSH0 PUSH2 0x100 EXP DUP2 SLOAD DUP2 PUSH20 0xFFFFFFFFFFFFFFFFFFFFFFFFFFFFFFFFFFFFFFFF MUL NOT AND SWAP1 DUP4 PUSH20 0xFFFFFFFFFFFFFFFFFFFFFFFFFFFFFFFFFFFFFFFF AND MUL OR SWAP1 SSTORE POP DUP2 PUSH20 0xFFFFFFFFFFFFFFFFFFFFFFFFFFFFFFFFFFFFFFFF AND DUP2 PUSH20 0xFFFFFFFFFFFFFFFFFFFFFFFFFFFFFFFFFFFFFFFF AND PUSH32 0x8BE0079C531659141344CD1FD0A4F28419497F9722A3DAAFE3B4186F6B6457E0 PUSH1 0x40 MLOAD PUSH1 0x40 MLOAD DUP1 SWAP2 SUB SWAP1 LOG3 POP POP JUMP JUMPDEST PUSH2 0x10E9 PUSH2 0x18A8 JUMP JUMPDEST PUSH1 0x1 PUSH1 0x6 PUSH0 PUSH2 0x100 EXP DUP2 SLOAD DUP2 PUSH1 0xFF MUL NOT AND SWAP1 DUP4 ISZERO ISZERO MUL OR SWAP1 SSTORE POP PUSH32 0x62E78CEA01BEE320CD4E420270B5EA74000D11B0C9F74754EBDBFC544B05A258 PUSH2 0x112C PUSH2 0xF08 JUMP JUMPDEST PUSH1 0x40 MLOAD PUSH2 0x1139 SWAP2 SWAP1 PUSH2 0x2263 JUMP JUMPDEST PUSH1 0x40 MLOAD DUP1 SWAP2 SUB SWAP1 LOG1 JUMP JUMPDEST PUSH2 0x115C DUP3 DUP3 PUSH1 0x40 MLOAD DUP1 PUSH1 0x20 ADD PUSH1 0x40 MSTORE DUP1 PUSH0 DUP2 MSTORE POP PUSH2 0x18E9 JUMP JUMPDEST POP POP JUMP JUMPDEST PUSH0 PUSH20 0xFFFFFFFFFFFFFFFFFFFFFFFFFFFFFFFFFFFFFFFF AND DUP3 PUSH20 0xFFFFFFFFFFFFFFFFFFFFFFFFFFFFFFFFFFFFFFFF AND SUB PUSH2 0x11D0 JUMPI DUP2 PUSH1 0x40 MLOAD PUSH32 0x5B08BA1800000000000000000000000000000000000000000000000000000000 DUP2 MSTORE PUSH1 0x4 ADD PUSH2 0x11C7 SWAP2 SWAP1 PUSH2 0x2263 JUMP JUMPDEST PUSH1 0x40 MLOAD DUP1 SWAP2 SUB SWAP1 REVERT JUMPDEST DUP1 PUSH1 0x5 PUSH0 DUP6 PUSH20 0xFFFFFFFFFFFFFFFFFFFFFFFFFFFFFFFFFFFFFFFF AND PUSH20 0xFFFFFFFFFFFFFFFFFFFFFFFFFFFFFFFFFFFFFFFF AND DUP2 MSTORE PUSH1 0x20 ADD SWAP1 DUP2 MSTORE PUSH1 0x20 ADD PUSH0 KECCAK256 PUSH0 DUP5 PUSH20 0xFFFFFFFFFFFFFFFFFFFFFFFFFFFFFFFFFFFFFFFF AND PUSH20 0xFFFFFFFFFFFFFFFFFFFFFFFFFFFFFFFFFFFFFFFF AND DUP2 MSTORE PUSH1 0x20 ADD SWAP1 DUP2 MSTORE PUSH1 0x20 ADD PUSH0 KECCAK256 PUSH0 PUSH2 0x100 EXP DUP2 SLOAD DUP2 PUSH1 0xFF MUL NOT AND SWAP1 DUP4 ISZERO ISZERO MUL OR SWAP1 SSTORE POP DUP2 PUSH20 0xFFFFFFFFFFFFFFFFFFFFFFFFFFFFFFFFFFFFFFFF AND DUP4 PUSH20 0xFFFFFFFFFFFFFFFFFFFFFFFFFFFFFFFFFFFFFFFF AND PUSH32 0x17307EAB39AB6107E8899845AD3D59BD9653F200F220920489CA2B5937696C31 DUP4 PUSH1 0x40 MLOAD PUSH2 0x12BC SWAP2 SWAP1 PUSH2 0x211D JUMP JUMPDEST PUSH1 0x40 MLOAD DUP1 SWAP2 SUB SWAP1 LOG3 POP POP POP JUMP JUMPDEST PUSH0 DUP4 PUSH20 0xFFFFFFFFFFFFFFFFFFFFFFFFFFFFFFFFFFFFFFFF AND EXTCODESIZE GT ISZERO PUSH2 0x146E JUMPI DUP3 PUSH20 0xFFFFFFFFFFFFFFFFFFFFFFFFFFFFFFFFFFFFFFFF AND PUSH4 0x150B7A02 DUP7 DUP7 DUP6 DUP6 PUSH1 0x40 MLOAD DUP6 PUSH4 0xFFFFFFFF AND PUSH1 0xE0 SHL DUP2 MSTORE PUSH1 0x4 ADD PUSH2 0x1327 SWAP5 SWAP4 SWAP3 SWAP2 SWAP1 PUSH2 0x2B71 JUMP JUMPDEST PUSH1 0x20 PUSH1 0x40 MLOAD DUP1 DUP4 SUB DUP2 PUSH0 DUP8 GAS CALL SWAP3 POP POP POP DUP1 ISZERO PUSH2 0x1362 JUMPI POP PUSH1 0x40 MLOAD RETURNDATASIZE PUSH1 0x1F NOT PUSH1 0x1F DUP3 ADD AND DUP3 ADD DUP1 PUSH1 0x40 MSTORE POP DUP2 ADD SWAP1 PUSH2 0x135F SWAP2 SWAP1 PUSH2 0x2BCF JUMP JUMPDEST PUSH1 0x1 JUMPDEST PUSH2 0x13E3 JUMPI RETURNDATASIZE DUP1 PUSH0 DUP2 EQ PUSH2 0x1390 JUMPI PUSH1 0x40 MLOAD SWAP2 POP PUSH1 0x1F NOT PUSH1 0x3F RETURNDATASIZE ADD AND DUP3 ADD PUSH1 0x40 MSTORE RETURNDATASIZE DUP3 MSTORE RETURNDATASIZE PUSH0 PUSH1 0x20 DUP5 ADD RETURNDATACOPY PUSH2 0x1395 JUMP JUMPDEST PUSH1 0x60 SWAP2 POP JUMPDEST POP PUSH0 DUP2 MLOAD SUB PUSH2 0x13DB JUMPI DUP4 PUSH1 0x40 MLOAD PUSH32 0x64A0AE9200000000000000000000000000000000000000000000000000000000 DUP2 MSTORE PUSH1 0x4 ADD PUSH2 0x13D2 SWAP2 SWAP1 PUSH2 0x2263 JUMP JUMPDEST PUSH1 0x40 MLOAD DUP1 SWAP2 SUB SWAP1 REVERT JUMPDEST DUP1 MLOAD DUP2 PUSH1 0x20 ADD REVERT JUMPDEST PUSH4 0x150B7A02 PUSH1 0xE0 SHL PUSH28 0xFFFFFFFFFFFFFFFFFFFFFFFFFFFFFFFFFFFFFFFFFFFFFFFFFFFFFFFF NOT AND DUP2 PUSH28 0xFFFFFFFFFFFFFFFFFFFFFFFFFFFFFFFFFFFFFFFFFFFFFFFFFFFFFFFF NOT AND EQ PUSH2 0x146C JUMPI DUP4 PUSH1 0x40 MLOAD PUSH32 0x64A0AE9200000000000000000000000000000000000000000000000000000000 DUP2 MSTORE PUSH1 0x4 ADD PUSH2 0x1463 SWAP2 SWAP1 PUSH2 0x2263 JUMP JUMPDEST PUSH1 0x40 MLOAD DUP1 SWAP2 SUB SWAP1 REVERT JUMPDEST POP JUMPDEST POP POP POP POP POP JUMP JUMPDEST PUSH0 PUSH32 0x80AC58CD00000000000000000000000000000000000000000000000000000000 PUSH28 0xFFFFFFFFFFFFFFFFFFFFFFFFFFFFFFFFFFFFFFFFFFFFFFFFFFFFFFFF NOT AND DUP3 PUSH28 0xFFFFFFFFFFFFFFFFFFFFFFFFFFFFFFFFFFFFFFFFFFFFFFFFFFFFFFFF NOT AND EQ DUP1 PUSH2 0x153F JUMPI POP PUSH32 0x5B5E139F00000000000000000000000000000000000000000000000000000000 PUSH28 0xFFFFFFFFFFFFFFFFFFFFFFFFFFFFFFFFFFFFFFFFFFFFFFFFFFFFFFFF NOT AND DUP3 PUSH28 0xFFFFFFFFFFFFFFFFFFFFFFFFFFFFFFFFFFFFFFFFFFFFFFFFFFFFFFFF NOT AND EQ JUMPDEST DUP1 PUSH2 0x154F JUMPI POP PUSH2 0x154E DUP3 PUSH2 0x190C JUMP JUMPDEST JUMPDEST SWAP1 POP SWAP2 SWAP1 POP JUMP JUMPDEST PUSH0 PUSH1 0x2 PUSH0 DUP4 DUP2 MSTORE PUSH1 0x20 ADD SWAP1 DUP2 MSTORE PUSH1 0x20 ADD PUSH0 KECCAK256 PUSH0 SWAP1 SLOAD SWAP1 PUSH2 0x100 EXP SWAP1 DIV PUSH20 0xFFFFFFFFFFFFFFFFFFFFFFFFFFFFFFFFFFFFFFFF AND SWAP1 POP SWAP2 SWAP1 POP JUMP JUMPDEST DUP1 DUP1 PUSH2 0x15C7 JUMPI POP PUSH0 PUSH20 0xFFFFFFFFFFFFFFFFFFFFFFFFFFFFFFFFFFFFFFFF AND DUP3 PUSH20 0xFFFFFFFFFFFFFFFFFFFFFFFFFFFFFFFFFFFFFFFF AND EQ ISZERO JUMPDEST ISZERO PUSH2 0x16F9 JUMPI PUSH0 PUSH2 0x15D6 DUP5 PUSH2 0xE49 JUMP JUMPDEST SWAP1 POP PUSH0 PUSH20 0xFFFFFFFFFFFFFFFFFFFFFFFFFFFFFFFFFFFFFFFF AND DUP4 PUSH20 0xFFFFFFFFFFFFFFFFFFFFFFFFFFFFFFFFFFFFFFFF AND EQ ISZERO DUP1 ISZERO PUSH2 0x1640 JUMPI POP DUP3 PUSH20 0xFFFFFFFFFFFFFFFFFFFFFFFFFFFFFFFFFFFFFFFF AND DUP2 PUSH20 0xFFFFFFFFFFFFFFFFFFFFFFFFFFFFFFFFFFFFFFFF AND EQ ISZERO JUMPDEST DUP1 ISZERO PUSH2 0x1653 JUMPI POP PUSH2 0x1651 DUP2 DUP5 PUSH2 0xCBE JUMP JUMPDEST ISZERO JUMPDEST ISZERO PUSH2 0x1695 JUMPI DUP3 PUSH1 0x40 MLOAD PUSH32 0xA9FBF51F00000000000000000000000000000000000000000000000000000000 DUP2 MSTORE PUSH1 0x4 ADD PUSH2 0x168C SWAP2 SWAP1 PUSH2 0x2263 JUMP JUMPDEST PUSH1 0x40 MLOAD DUP1 SWAP2 SUB SWAP1 REVERT JUMPDEST DUP2 ISZERO PUSH2 0x16F7 JUMPI DUP4 DUP6 PUSH20 0xFFFFFFFFFFFFFFFFFFFFFFFFFFFFFFFFFFFFFFFF AND DUP3 PUSH20 0xFFFFFFFFFFFFFFFFFFFFFFFFFFFFFFFFFFFFFFFF AND PUSH32 0x8C5BE1E5EBEC7D5BD14F71427D1E84F3DD0314C0F7B2291E5B200AC8C7C3B925 PUSH1 0x40 MLOAD PUSH1 0x40 MLOAD DUP1 SWAP2 SUB SWAP1 LOG4 JUMPDEST POP JUMPDEST DUP4 PUSH1 0x4 PUSH0 DUP6 DUP2 MSTORE PUSH1 0x20 ADD SWAP1 DUP2 MSTORE PUSH1 0x20 ADD PUSH0 KECCAK256 PUSH0 PUSH2 0x100 EXP DUP2 SLOAD DUP2 PUSH20 0xFFFFFFFFFFFFFFFFFFFFFFFFFFFFFFFFFFFFFFFF MUL NOT AND SWAP1 DUP4 PUSH20 0xFFFFFFFFFFFFFFFFFFFFFFFFFFFFFFFFFFFFFFFF AND MUL OR SWAP1 SSTORE POP POP POP POP POP JUMP JUMPDEST PUSH0 DUP1 PUSH2 0x175B DUP6 DUP6 DUP6 PUSH2 0x1975 JUMP JUMPDEST SWAP1 POP PUSH0 PUSH20 0xFFFFFFFFFFFFFFFFFFFFFFFFFFFFFFFFFFFFFFFF AND DUP2 PUSH20 0xFFFFFFFFFFFFFFFFFFFFFFFFFFFFFFFFFFFFFFFF AND SUB PUSH2 0x179E JUMPI PUSH2 0x1799 DUP5 PUSH2 0x1992 JUMP JUMPDEST PUSH2 0x17DD JUMP JUMPDEST DUP5 PUSH20 0xFFFFFFFFFFFFFFFFFFFFFFFFFFFFFFFFFFFFFFFF AND DUP2 PUSH20 0xFFFFFFFFFFFFFFFFFFFFFFFFFFFFFFFFFFFFFFFF AND EQ PUSH2 0x17DC JUMPI PUSH2 0x17DB DUP2 DUP6 PUSH2 0x19D6 JUMP JUMPDEST JUMPDEST JUMPDEST PUSH0 PUSH20 0xFFFFFFFFFFFFFFFFFFFFFFFFFFFFFFFFFFFFFFFF AND DUP6 PUSH20 0xFFFFFFFFFFFFFFFFFFFFFFFFFFFFFFFFFFFFFFFF AND SUB PUSH2 0x181E JUMPI PUSH2 0x1819 DUP5 PUSH2 0x1AAD JUMP JUMPDEST PUSH2 0x185D JUMP JUMPDEST DUP5 PUSH20 0xFFFFFFFFFFFFFFFFFFFFFFFFFFFFFFFFFFFFFFFF AND DUP2 PUSH20 0xFFFFFFFFFFFFFFFFFFFFFFFFFFFFFFFFFFFFFFFF AND EQ PUSH2 0x185C JUMPI PUSH2 0x185B DUP6 DUP6 PUSH2 0x1B6D JUMP JUMPDEST JUMPDEST JUMPDEST DUP1 SWAP2 POP POP SWAP4 SWAP3 POP POP POP JUMP JUMPDEST PUSH2 0x1870 PUSH2 0x8C2 JUMP JUMPDEST PUSH2 0x18A6 JUMPI PUSH1 0x40 MLOAD PUSH32 0x8DFC202B00000000000000000000000000000000000000000000000000000000 DUP2 MSTORE PUSH1 0x4 ADD PUSH1 0x40 MLOAD DUP1 SWAP2 SUB SWAP1 REVERT JUMPDEST JUMP JUMPDEST PUSH2 0x18B0 PUSH2 0x8C2 JUMP JUMPDEST ISZERO PUSH2 0x18E7 JUMPI PUSH1 0x40 MLOAD PUSH32 0xD93C066500000000000000000000000000000000000000000000000000000000 DUP2 MSTORE PUSH1 0x4 ADD PUSH1 0x40 MLOAD DUP1 SWAP2 SUB SWAP1 REVERT JUMPDEST JUMP JUMPDEST PUSH2 0x18F3 DUP4 DUP4 PUSH2 0x1BF1 JUMP JUMPDEST PUSH2 0x1907 PUSH2 0x18FE PUSH2 0xF08 JUMP JUMPDEST PUSH0 DUP6 DUP6 DUP6 PUSH2 0x12C9 JUMP JUMPDEST POP POP POP JUMP JUMPDEST PUSH0 PUSH32 0x1FFC9A700000000000000000000000000000000000000000000000000000000 PUSH28 0xFFFFFFFFFFFFFFFFFFFFFFFFFFFFFFFFFFFFFFFFFFFFFFFFFFFFFFFF NOT AND DUP3 PUSH28 0xFFFFFFFFFFFFFFFFFFFFFFFFFFFFFFFFFFFFFFFFFFFFFFFFFFFFFFFF NOT AND EQ SWAP1 POP SWAP2 SWAP1 POP JUMP JUMPDEST PUSH0 PUSH2 0x197E PUSH2 0x18A8 JUMP JUMPDEST PUSH2 0x1989 DUP5 DUP5 DUP5 PUSH2 0x1CE4 JUMP JUMPDEST SWAP1 POP SWAP4 SWAP3 POP POP POP JUMP JUMPDEST PUSH1 0x9 DUP1 SLOAD SWAP1 POP PUSH1 0xA PUSH0 DUP4 DUP2 MSTORE PUSH1 0x20 ADD SWAP1 DUP2 MSTORE PUSH1 0x20 ADD PUSH0 KECCAK256 DUP2 SWAP1 SSTORE POP PUSH1 0x9 DUP2 SWAP1 DUP1 PUSH1 0x1 DUP2 SLOAD ADD DUP1 DUP3 SSTORE DUP1 SWAP2 POP POP PUSH1 0x1 SWAP1 SUB SWAP1 PUSH0 MSTORE PUSH1 0x20 PUSH0 KECCAK256 ADD PUSH0 SWAP1 SWAP2 SWAP1 SWAP2 SWAP1 SWAP2 POP SSTORE POP JUMP JUMPDEST PUSH0 PUSH2 0x19E0 DUP4 PUSH2 0x8E8 JUMP JUMPDEST SWAP1 POP PUSH0 PUSH1 0x8 PUSH0 DUP5 DUP2 MSTORE PUSH1 0x20 ADD SWAP1 DUP2 MSTORE PUSH1 0x20 ADD PUSH0 KECCAK256 SLOAD SWAP1 POP PUSH0 PUSH1 0x7 PUSH0 DUP7 PUSH20 0xFFFFFFFFFFFFFFFFFFFFFFFFFFFFFFFFFFFFFFFF AND PUSH20 0xFFFFFFFFFFFFFFFFFFFFFFFFFFFFFFFFFFFFFFFF AND DUP2 MSTORE PUSH1 0x20 ADD SWAP1 DUP2 MSTORE PUSH1 0x20 ADD PUSH0 KECCAK256 SWAP1 POP DUP3 DUP3 EQ PUSH2 0x1A7F JUMPI PUSH0 DUP2 PUSH0 DUP6 DUP2 MSTORE PUSH1 0x20 ADD SWAP1 DUP2 MSTORE PUSH1 0x20 ADD PUSH0 KECCAK256 SLOAD SWAP1 POP DUP1 DUP3 PUSH0 DUP6 DUP2 MSTORE PUSH1 0x20 ADD SWAP1 DUP2 MSTORE PUSH1 0x20 ADD PUSH0 KECCAK256 DUP2 SWAP1 SSTORE POP DUP3 PUSH1 0x8 PUSH0 DUP4 DUP2 MSTORE PUSH1 0x20 ADD SWAP1 DUP2 MSTORE PUSH1 0x20 ADD PUSH0 KECCAK256 DUP2 SWAP1 SSTORE POP POP JUMPDEST PUSH1 0x8 PUSH0 DUP6 DUP2 MSTORE PUSH1 0x20 ADD SWAP1 DUP2 MSTORE PUSH1 0x20 ADD PUSH0 KECCAK256 PUSH0 SWAP1 SSTORE DUP1 PUSH0 DUP5 DUP2 MSTORE PUSH1 0x20 ADD SWAP1 DUP2 MSTORE PUSH1 0x20 ADD PUSH0 KECCAK256 PUSH0 SWAP1 SSTORE POP POP POP POP POP JUMP JUMPDEST PUSH0 PUSH1 0x1 PUSH1 0x9 DUP1 SLOAD SWAP1 POP PUSH2 0x1AC0 SWAP2 SWAP1 PUSH2 0x2BFA JUMP JUMPDEST SWAP1 POP PUSH0 PUSH1 0xA PUSH0 DUP5 DUP2 MSTORE PUSH1 0x20 ADD SWAP1 DUP2 MSTORE PUSH1 0x20 ADD PUSH0 KECCAK256 SLOAD SWAP1 POP PUSH0 PUSH1 0x9 DUP4 DUP2 SLOAD DUP2 LT PUSH2 0x1AEC JUMPI PUSH2 0x1AEB PUSH2 0x2777 JUMP JUMPDEST JUMPDEST SWAP1 PUSH0 MSTORE PUSH1 0x20 PUSH0 KECCAK256 ADD SLOAD SWAP1 POP DUP1 PUSH1 0x9 DUP4 DUP2 SLOAD DUP2 LT PUSH2 0x1B0C JUMPI PUSH2 0x1B0B PUSH2 0x2777 JUMP JUMPDEST JUMPDEST SWAP1 PUSH0 MSTORE PUSH1 0x20 PUSH0 KECCAK256 ADD DUP2 SWAP1 SSTORE POP DUP2 PUSH1 0xA PUSH0 DUP4 DUP2 MSTORE PUSH1 0x20 ADD SWAP1 DUP2 MSTORE PUSH1 0x20 ADD PUSH0 KECCAK256 DUP2 SWAP1 SSTORE POP PUSH1 0xA PUSH0 DUP6 DUP2 MSTORE PUSH1 0x20 ADD SWAP1 DUP2 MSTORE PUSH1 0x20 ADD PUSH0 KECCAK256 PUSH0 SWAP1 SSTORE PUSH1 0x9 DUP1 SLOAD DUP1 PUSH2 0x1B54 JUMPI PUSH2 0x1B53 PUSH2 0x2C2D JUMP JUMPDEST JUMPDEST PUSH1 0x1 SWAP1 SUB DUP2 DUP2 SWAP1 PUSH0 MSTORE PUSH1 0x20 PUSH0 KECCAK256 ADD PUSH0 SWAP1 SSTORE SWAP1 SSTORE POP POP POP POP JUMP JUMPDEST PUSH0 PUSH1 0x1 PUSH2 0x1B79 DUP5 PUSH2 0x8E8 JUMP JUMPDEST PUSH2 0x1B83 SWAP2 SWAP1 PUSH2 0x2BFA JUMP JUMPDEST SWAP1 POP DUP2 PUSH1 0x7 PUSH0 DUP6 PUSH20 0xFFFFFFFFFFFFFFFFFFFFFFFFFFFFFFFFFFFFFFFF AND PUSH20 0xFFFFFFFFFFFFFFFFFFFFFFFFFFFFFFFFFFFFFFFF AND DUP2 MSTORE PUSH1 0x20 ADD SWAP1 DUP2 MSTORE PUSH1 0x20 ADD PUSH0 KECCAK256 PUSH0 DUP4 DUP2 MSTORE PUSH1 0x20 ADD SWAP1 DUP2 MSTORE PUSH1 0x20 ADD PUSH0 KECCAK256 DUP2 SWAP1 SSTORE POP DUP1 PUSH1 0x8 PUSH0 DUP5 DUP2 MSTORE PUSH1 0x20 ADD SWAP1 DUP2 MSTORE PUSH1 0x20 ADD PUSH0 KECCAK256 DUP2 SWAP1 SSTORE POP POP POP POP JUMP JUMPDEST PUSH0 PUSH20 0xFFFFFFFFFFFFFFFFFFFFFFFFFFFFFFFFFFFFFFFF AND DUP3 PUSH20 0xFFFFFFFFFFFFFFFFFFFFFFFFFFFFFFFFFFFFFFFF AND SUB PUSH2 0x1C61 JUMPI PUSH0 PUSH1 0x40 MLOAD PUSH32 0x64A0AE9200000000000000000000000000000000000000000000000000000000 DUP2 MSTORE PUSH1 0x4 ADD PUSH2 0x1C58 SWAP2 SWAP1 PUSH2 0x2263 JUMP JUMPDEST PUSH1 0x40 MLOAD DUP1 SWAP2 SUB SWAP1 REVERT JUMPDEST PUSH0 PUSH2 0x1C6D DUP4 DUP4 PUSH0 PUSH2 0xF21 JUMP JUMPDEST SWAP1 POP PUSH0 PUSH20 0xFFFFFFFFFFFFFFFFFFFFFFFFFFFFFFFFFFFFFFFF AND DUP2 PUSH20 0xFFFFFFFFFFFFFFFFFFFFFFFFFFFFFFFFFFFFFFFF AND EQ PUSH2 0x1CDF JUMPI PUSH0 PUSH1 0x40 MLOAD PUSH32 0x73C6AC6E00000000000000000000000000000000000000000000000000000000 DUP2 MSTORE PUSH1 0x4 ADD PUSH2 0x1CD6 SWAP2 SWAP1 PUSH2 0x2263 JUMP JUMPDEST PUSH1 0x40 MLOAD DUP1 SWAP2 SUB SWAP1 REVERT JUMPDEST POP POP POP JUMP JUMPDEST PUSH0 DUP1 PUSH2 0x1CEF DUP5 PUSH2 0x1556 JUMP JUMPDEST SWAP1 POP PUSH0 PUSH20 0xFFFFFFFFFFFFFFFFFFFFFFFFFFFFFFFFFFFFFFFF AND DUP4 PUSH20 0xFFFFFFFFFFFFFFFFFFFFFFFFFFFFFFFFFFFFFFFF AND EQ PUSH2 0x1D30 JUMPI PUSH2 0x1D2F DUP2 DUP5 DUP7 PUSH2 0x1EEF JUMP JUMPDEST JUMPDEST PUSH0 PUSH20 0xFFFFFFFFFFFFFFFFFFFFFFFFFFFFFFFFFFFFFFFF AND DUP2 PUSH20 0xFFFFFFFFFFFFFFFFFFFFFFFFFFFFFFFFFFFFFFFF AND EQ PUSH2 0x1DBB JUMPI PUSH2 0x1D6F PUSH0 DUP6 PUSH0 DUP1 PUSH2 0x158F JUMP JUMPDEST PUSH1 0x1 PUSH1 0x3 PUSH0 DUP4 PUSH20 0xFFFFFFFFFFFFFFFFFFFFFFFFFFFFFFFFFFFFFFFF AND PUSH20 0xFFFFFFFFFFFFFFFFFFFFFFFFFFFFFFFFFFFFFFFF AND DUP2 MSTORE PUSH1 0x20 ADD SWAP1 DUP2 MSTORE PUSH1 0x20 ADD PUSH0 KECCAK256 PUSH0 DUP3 DUP3 SLOAD SUB SWAP3 POP POP DUP2 SWAP1 SSTORE POP JUMPDEST PUSH0 PUSH20 0xFFFFFFFFFFFFFFFFFFFFFFFFFFFFFFFFFFFFFFFF AND DUP6 PUSH20 0xFFFFFFFFFFFFFFFFFFFFFFFFFFFFFFFFFFFFFFFF AND EQ PUSH2 0x1E3A JUMPI PUSH1 0x1 PUSH1 0x3 PUSH0 DUP8 PUSH20 0xFFFFFFFFFFFFFFFFFFFFFFFFFFFFFFFFFFFFFFFF AND PUSH20 0xFFFFFFFFFFFFFFFFFFFFFFFFFFFFFFFFFFFFFFFF AND DUP2 MSTORE PUSH1 0x20 ADD SWAP1 DUP2 MSTORE PUSH1 0x20 ADD PUSH0 KECCAK256 PUSH0 DUP3 DUP3 SLOAD ADD SWAP3 POP POP DUP2 SWAP1 SSTORE POP JUMPDEST DUP5 PUSH1 0x2 PUSH0 DUP7 DUP2 MSTORE PUSH1 0x20 ADD SWAP1 DUP2 MSTORE PUSH1 0x20 ADD PUSH0 KECCAK256 PUSH0 PUSH2 0x100 EXP DUP2 SLOAD DUP2 PUSH20 0xFFFFFFFFFFFFFFFFFFFFFFFFFFFFFFFFFFFFFFFF MUL NOT AND SWAP1 DUP4 PUSH20 0xFFFFFFFFFFFFFFFFFFFFFFFFFFFFFFFFFFFFFFFF AND MUL OR SWAP1 SSTORE POP DUP4 DUP6 PUSH20 0xFFFFFFFFFFFFFFFFFFFFFFFFFFFFFFFFFFFFFFFF AND DUP3 PUSH20 0xFFFFFFFFFFFFFFFFFFFFFFFFFFFFFFFFFFFFFFFF AND PUSH32 0xDDF252AD1BE2C89B69C2B068FC378DAA952BA7F163C4A11628F55A4DF523B3EF PUSH1 0x40 MLOAD PUSH1 0x40 MLOAD DUP1 SWAP2 SUB SWAP1 LOG4 DUP1 SWAP2 POP POP SWAP4 SWAP3 POP POP POP JUMP JUMPDEST PUSH2 0x1EFA DUP4 DUP4 DUP4 PUSH2 0x1FB2 JUMP JUMPDEST PUSH2 0x1FAD JUMPI PUSH0 PUSH20 0xFFFFFFFFFFFFFFFFFFFFFFFFFFFFFFFFFFFFFFFF AND DUP4 PUSH20 0xFFFFFFFFFFFFFFFFFFFFFFFFFFFFFFFFFFFFFFFF AND SUB PUSH2 0x1F6E JUMPI DUP1 PUSH1 0x40 MLOAD PUSH32 0x7E27328900000000000000000000000000000000000000000000000000000000 DUP2 MSTORE PUSH1 0x4 ADD PUSH2 0x1F65 SWAP2 SWAP1 PUSH2 0x22F3 JUMP JUMPDEST PUSH1 0x40 MLOAD DUP1 SWAP2 SUB SWAP1 REVERT JUMPDEST DUP2 DUP2 PUSH1 0x40 MLOAD PUSH32 0x177E802F00000000000000000000000000000000000000000000000000000000 DUP2 MSTORE PUSH1 0x4 ADD PUSH2 0x1FA4 SWAP3 SWAP2 SWAP1 PUSH2 0x2750 JUMP JUMPDEST PUSH1 0x40 MLOAD DUP1 SWAP2 SUB SWAP1 REVERT JUMPDEST POP POP POP JUMP JUMPDEST PUSH0 DUP1 PUSH20 0xFFFFFFFFFFFFFFFFFFFFFFFFFFFFFFFFFFFFFFFF AND DUP4 PUSH20 0xFFFFFFFFFFFFFFFFFFFFFFFFFFFFFFFFFFFFFFFF AND EQ ISZERO DUP1 ISZERO PUSH2 0x2069 JUMPI POP DUP3 PUSH20 0xFFFFFFFFFFFFFFFFFFFFFFFFFFFFFFFFFFFFFFFF AND DUP5 PUSH20 0xFFFFFFFFFFFFFFFFFFFFFFFFFFFFFFFFFFFFFFFF AND EQ DUP1 PUSH2 0x202A JUMPI POP PUSH2 0x2029 DUP5 DUP5 PUSH2 0xCBE JUMP JUMPDEST JUMPDEST DUP1 PUSH2 0x2068 JUMPI POP DUP3 PUSH20 0xFFFFFFFFFFFFFFFFFFFFFFFFFFFFFFFFFFFFFFFF AND PUSH2 0x2050 DUP4 PUSH2 0xECF JUMP JUMPDEST PUSH20 0xFFFFFFFFFFFFFFFFFFFFFFFFFFFFFFFFFFFFFFFF AND EQ JUMPDEST JUMPDEST SWAP1 POP SWAP4 SWAP3 POP POP POP JUMP JUMPDEST PUSH0 PUSH1 0x40 MLOAD SWAP1 POP SWAP1 JUMP JUMPDEST PUSH0 DUP1 REVERT JUMPDEST PUSH0 DUP1 REVERT JUMPDEST PUSH0 PUSH32 0xFFFFFFFF00000000000000000000000000000000000000000000000000000000 DUP3 AND SWAP1 POP SWAP2 SWAP1 POP JUMP JUMPDEST PUSH2 0x20B7 DUP2 PUSH2 0x2083 JUMP JUMPDEST DUP2 EQ PUSH2 0x20C1 JUMPI PUSH0 DUP1 REVERT JUMPDEST POP JUMP JUMPDEST PUSH0 DUP2 CALLDATALOAD SWAP1 POP PUSH2 0x20D2 DUP2 PUSH2 0x20AE JUMP JUMPDEST SWAP3 SWAP2 POP POP JUMP JUMPDEST PUSH0 PUSH1 0x20 DUP3 DUP5 SUB SLT ISZERO PUSH2 0x20ED JUMPI PUSH2 0x20EC PUSH2 0x207B JUMP JUMPDEST JUMPDEST PUSH0 PUSH2 0x20FA DUP5 DUP3 DUP6 ADD PUSH2 0x20C4 JUMP JUMPDEST SWAP2 POP POP SWAP3 SWAP2 POP POP JUMP JUMPDEST PUSH0 DUP2 ISZERO ISZERO SWAP1 POP SWAP2 SWAP1 POP JUMP JUMPDEST PUSH2 0x2117 DUP2 PUSH2 0x2103 JUMP JUMPDEST DUP3 MSTORE POP POP JUMP JUMPDEST PUSH0 PUSH1 0x20 DUP3 ADD SWAP1 POP PUSH2 0x2130 PUSH0 DUP4 ADD DUP5 PUSH2 0x210E JUMP JUMPDEST SWAP3 SWAP2 POP POP JUMP JUMPDEST PUSH0 DUP2 MLOAD SWAP1 POP SWAP2 SWAP1 POP JUMP JUMPDEST PUSH0 DUP3 DUP3 MSTORE PUSH1 0x20 DUP3 ADD SWAP1 POP SWAP3 SWAP2 POP POP JUMP JUMPDEST DUP3 DUP2 DUP4 MCOPY PUSH0 DUP4 DUP4 ADD MSTORE POP POP POP JUMP JUMPDEST PUSH0 PUSH1 0x1F NOT PUSH1 0x1F DUP4 ADD AND SWAP1 POP SWAP2 SWAP1 POP JUMP JUMPDEST PUSH0 PUSH2 0x2178 DUP3 PUSH2 0x2136 JUMP JUMPDEST PUSH2 0x2182 DUP2 DUP6 PUSH2 0x2140 JUMP JUMPDEST SWAP4 POP PUSH2 0x2192 DUP2 DUP6 PUSH1 0x20 DUP7 ADD PUSH2 0x2150 JUMP JUMPDEST PUSH2 0x219B DUP2 PUSH2 0x215E JUMP JUMPDEST DUP5 ADD SWAP2 POP POP SWAP3 SWAP2 POP POP JUMP JUMPDEST PUSH0 PUSH1 0x20 DUP3 ADD SWAP1 POP DUP2 DUP2 SUB PUSH0 DUP4 ADD MSTORE PUSH2 0x21BE DUP2 DUP5 PUSH2 0x216E JUMP JUMPDEST SWAP1 POP SWAP3 SWAP2 POP POP JUMP JUMPDEST PUSH0 DUP2 SWAP1 POP SWAP2 SWAP1 POP JUMP JUMPDEST PUSH2 0x21D8 DUP2 PUSH2 0x21C6 JUMP JUMPDEST DUP2 EQ PUSH2 0x21E2 JUMPI PUSH0 DUP1 REVERT JUMPDEST POP JUMP JUMPDEST PUSH0 DUP2 CALLDATALOAD SWAP1 POP PUSH2 0x21F3 DUP2 PUSH2 0x21CF JUMP JUMPDEST SWAP3 SWAP2 POP POP JUMP JUMPDEST PUSH0 PUSH1 0x20 DUP3 DUP5 SUB SLT ISZERO PUSH2 0x220E JUMPI PUSH2 0x220D PUSH2 0x207B JUMP JUMPDEST JUMPDEST PUSH0 PUSH2 0x221B DUP5 DUP3 DUP6 ADD PUSH2 0x21E5 JUMP JUMPDEST SWAP2 POP POP SWAP3 SWAP2 POP POP JUMP JUMPDEST PUSH0 PUSH20 0xFFFFFFFFFFFFFFFFFFFFFFFFFFFFFFFFFFFFFFFF DUP3 AND SWAP1 POP SWAP2 SWAP1 POP JUMP JUMPDEST PUSH0 PUSH2 0x224D DUP3 PUSH2 0x2224 JUMP JUMPDEST SWAP1 POP SWAP2 SWAP1 POP JUMP JUMPDEST PUSH2 0x225D DUP2 PUSH2 0x2243 JUMP JUMPDEST DUP3 MSTORE POP POP JUMP JUMPDEST PUSH0 PUSH1 0x20 DUP3 ADD SWAP1 POP PUSH2 0x2276 PUSH0 DUP4 ADD DUP5 PUSH2 0x2254 JUMP JUMPDEST SWAP3 SWAP2 POP POP JUMP JUMPDEST PUSH2 0x2285 DUP2 PUSH2 0x2243 JUMP JUMPDEST DUP2 EQ PUSH2 0x228F JUMPI PUSH0 DUP1 REVERT JUMPDEST POP JUMP JUMPDEST PUSH0 DUP2 CALLDATALOAD SWAP1 POP PUSH2 0x22A0 DUP2 PUSH2 0x227C JUMP JUMPDEST SWAP3 SWAP2 POP POP JUMP JUMPDEST PUSH0 DUP1 PUSH1 0x40 DUP4 DUP6 SUB SLT ISZERO PUSH2 0x22BC JUMPI PUSH2 0x22BB PUSH2 0x207B JUMP JUMPDEST JUMPDEST PUSH0 PUSH2 0x22C9 DUP6 DUP3 DUP7 ADD PUSH2 0x2292 JUMP JUMPDEST SWAP3 POP POP PUSH1 0x20 PUSH2 0x22DA DUP6 DUP3 DUP7 ADD PUSH2 0x21E5 JUMP JUMPDEST SWAP2 POP POP SWAP3 POP SWAP3 SWAP1 POP JUMP JUMPDEST PUSH2 0x22ED DUP2 PUSH2 0x21C6 JUMP JUMPDEST DUP3 MSTORE POP POP JUMP JUMPDEST PUSH0 PUSH1 0x20 DUP3 ADD SWAP1 POP PUSH2 0x2306 PUSH0 DUP4 ADD DUP5 PUSH2 0x22E4 JUMP JUMPDEST SWAP3 SWAP2 POP POP JUMP JUMPDEST PUSH0 DUP1 PUSH0 PUSH1 0x60 DUP5 DUP7 SUB SLT ISZERO PUSH2 0x2323 JUMPI PUSH2 0x2322 PUSH2 0x207B JUMP JUMPDEST JUMPDEST PUSH0 PUSH2 0x2330 DUP7 DUP3 DUP8 ADD PUSH2 0x2292 JUMP JUMPDEST SWAP4 POP POP PUSH1 0x20 PUSH2 0x2341 DUP7 DUP3 DUP8 ADD PUSH2 0x2292 JUMP JUMPDEST SWAP3 POP POP PUSH1 0x40 PUSH2 0x2352 DUP7 DUP3 DUP8 ADD PUSH2 0x21E5 JUMP JUMPDEST SWAP2 POP POP SWAP3 POP SWAP3 POP SWAP3 JUMP JUMPDEST PUSH0 DUP1 REVERT JUMPDEST PUSH0 DUP1 REVERT JUMPDEST PUSH32 0x4E487B7100000000000000000000000000000000000000000000000000000000 PUSH0 MSTORE PUSH1 0x41 PUSH1 0x4 MSTORE PUSH1 0x24 PUSH0 REVERT JUMPDEST PUSH2 0x239A DUP3 PUSH2 0x215E JUMP JUMPDEST DUP2 ADD DUP2 DUP2 LT PUSH8 0xFFFFFFFFFFFFFFFF DUP3 GT OR ISZERO PUSH2 0x23B9 JUMPI PUSH2 0x23B8 PUSH2 0x2364 JUMP JUMPDEST JUMPDEST DUP1 PUSH1 0x40 MSTORE POP POP POP JUMP JUMPDEST PUSH0 PUSH2 0x23CB PUSH2 0x2072 JUMP JUMPDEST SWAP1 POP PUSH2 0x23D7 DUP3 DUP3 PUSH2 0x2391 JUMP JUMPDEST SWAP2 SWAP1 POP JUMP JUMPDEST PUSH0 PUSH8 0xFFFFFFFFFFFFFFFF DUP3 GT ISZERO PUSH2 0x23F6 JUMPI PUSH2 0x23F5 PUSH2 0x2364 JUMP JUMPDEST JUMPDEST PUSH2 0x23FF DUP3 PUSH2 0x215E JUMP JUMPDEST SWAP1 POP PUSH1 0x20 DUP2 ADD SWAP1 POP SWAP2 SWAP1 POP JUMP JUMPDEST DUP3 DUP2 DUP4 CALLDATACOPY PUSH0 DUP4 DUP4 ADD MSTORE POP POP POP JUMP JUMPDEST PUSH0 PUSH2 0x242C PUSH2 0x2427 DUP5 PUSH2 0x23DC JUMP JUMPDEST PUSH2 0x23C2 JUMP JUMPDEST SWAP1 POP DUP3 DUP2 MSTORE PUSH1 0x20 DUP2 ADD DUP5 DUP5 DUP5 ADD GT ISZERO PUSH2 0x2448 JUMPI PUSH2 0x2447 PUSH2 0x2360 JUMP JUMPDEST JUMPDEST PUSH2 0x2453 DUP5 DUP3 DUP6 PUSH2 0x240C JUMP JUMPDEST POP SWAP4 SWAP3 POP POP POP JUMP JUMPDEST PUSH0 DUP3 PUSH1 0x1F DUP4 ADD SLT PUSH2 0x246F JUMPI PUSH2 0x246E PUSH2 0x235C JUMP JUMPDEST JUMPDEST DUP2 CALLDATALOAD PUSH2 0x247F DUP5 DUP3 PUSH1 0x20 DUP7 ADD PUSH2 0x241A JUMP JUMPDEST SWAP2 POP POP SWAP3 SWAP2 POP POP JUMP JUMPDEST PUSH0 PUSH1 0x20 DUP3 DUP5 SUB SLT ISZERO PUSH2 0x249D JUMPI PUSH2 0x249C PUSH2 0x207B JUMP JUMPDEST JUMPDEST PUSH0 DUP3 ADD CALLDATALOAD PUSH8 0xFFFFFFFFFFFFFFFF DUP2 GT ISZERO PUSH2 0x24BA JUMPI PUSH2 0x24B9 PUSH2 0x207F JUMP JUMPDEST JUMPDEST PUSH2 0x24C6 DUP5 DUP3 DUP6 ADD PUSH2 0x245B JUMP JUMPDEST SWAP2 POP POP SWAP3 SWAP2 POP POP JUMP JUMPDEST PUSH0 PUSH1 0x20 DUP3 DUP5 SUB SLT ISZERO PUSH2 0x24E4 JUMPI PUSH2 0x24E3 PUSH2 0x207B JUMP JUMPDEST JUMPDEST PUSH0 PUSH2 0x24F1 DUP5 DUP3 DUP6 ADD PUSH2 0x2292 JUMP JUMPDEST SWAP2 POP POP SWAP3 SWAP2 POP POP JUMP JUMPDEST PUSH2 0x2503 DUP2 PUSH2 0x2103 JUMP JUMPDEST DUP2 EQ PUSH2 0x250D JUMPI PUSH0 DUP1 REVERT JUMPDEST POP JUMP JUMPDEST PUSH0 DUP2 CALLDATALOAD SWAP1 POP PUSH2 0x251E DUP2 PUSH2 0x24FA JUMP JUMPDEST SWAP3 SWAP2 POP POP JUMP JUMPDEST PUSH0 DUP1 PUSH1 0x40 DUP4 DUP6 SUB SLT ISZERO PUSH2 0x253A JUMPI PUSH2 0x2539 PUSH2 0x207B JUMP JUMPDEST JUMPDEST PUSH0 PUSH2 0x2547 DUP6 DUP3 DUP7 ADD PUSH2 0x2292 JUMP JUMPDEST SWAP3 POP POP PUSH1 0x20 PUSH2 0x2558 DUP6 DUP3 DUP7 ADD PUSH2 0x2510 JUMP JUMPDEST SWAP2 POP POP SWAP3 POP SWAP3 SWAP1 POP JUMP JUMPDEST PUSH0 PUSH8 0xFFFFFFFFFFFFFFFF DUP3 GT ISZERO PUSH2 0x257C JUMPI PUSH2 0x257B PUSH2 0x2364 JUMP JUMPDEST JUMPDEST PUSH2 0x2585 DUP3 PUSH2 0x215E JUMP JUMPDEST SWAP1 POP PUSH1 0x20 DUP2 ADD SWAP1 POP SWAP2 SWAP1 POP JUMP JUMPDEST PUSH0 PUSH2 0x25A4 PUSH2 0x259F DUP5 PUSH2 0x2562 JUMP JUMPDEST PUSH2 0x23C2 JUMP JUMPDEST SWAP1 POP DUP3 DUP2 MSTORE PUSH1 0x20 DUP2 ADD DUP5 DUP5 DUP5 ADD GT ISZERO PUSH2 0x25C0 JUMPI PUSH2 0x25BF PUSH2 0x2360 JUMP JUMPDEST JUMPDEST PUSH2 0x25CB DUP5 DUP3 DUP6 PUSH2 0x240C JUMP JUMPDEST POP SWAP4 SWAP3 POP POP POP JUMP JUMPDEST PUSH0 DUP3 PUSH1 0x1F DUP4 ADD SLT PUSH2 0x25E7 JUMPI PUSH2 0x25E6 PUSH2 0x235C JUMP JUMPDEST JUMPDEST DUP2 CALLDATALOAD PUSH2 0x25F7 DUP5 DUP3 PUSH1 0x20 DUP7 ADD PUSH2 0x2592 JUMP JUMPDEST SWAP2 POP POP SWAP3 SWAP2 POP POP JUMP JUMPDEST PUSH0 DUP1 PUSH0 DUP1 PUSH1 0x80 DUP6 DUP8 SUB SLT ISZERO PUSH2 0x2618 JUMPI PUSH2 0x2617 PUSH2 0x207B JUMP JUMPDEST JUMPDEST PUSH0 PUSH2 0x2625 DUP8 DUP3 DUP9 ADD PUSH2 0x2292 JUMP JUMPDEST SWAP5 POP POP PUSH1 0x20 PUSH2 0x2636 DUP8 DUP3 DUP9 ADD PUSH2 0x2292 JUMP JUMPDEST SWAP4 POP POP PUSH1 0x40 PUSH2 0x2647 DUP8 DUP3 DUP9 ADD PUSH2 0x21E5 JUMP JUMPDEST SWAP3 POP POP PUSH1 0x60 DUP6 ADD CALLDATALOAD PUSH8 0xFFFFFFFFFFFFFFFF DUP2 GT ISZERO PUSH2 0x2668 JUMPI PUSH2 0x2667 PUSH2 0x207F JUMP JUMPDEST JUMPDEST PUSH2 0x2674 DUP8 DUP3 DUP9 ADD PUSH2 0x25D3 JUMP JUMPDEST SWAP2 POP POP SWAP3 SWAP6 SWAP2 SWAP5 POP SWAP3 POP JUMP JUMPDEST PUSH0 DUP1 PUSH1 0x40 DUP4 DUP6 SUB SLT ISZERO PUSH2 0x2696 JUMPI PUSH2 0x2695 PUSH2 0x207B JUMP JUMPDEST JUMPDEST PUSH0 PUSH2 0x26A3 DUP6 DUP3 DUP7 ADD PUSH2 0x2292 JUMP JUMPDEST SWAP3 POP POP PUSH1 0x20 PUSH2 0x26B4 DUP6 DUP3 DUP7 ADD PUSH2 0x2292 JUMP JUMPDEST SWAP2 POP POP SWAP3 POP SWAP3 SWAP1 POP JUMP JUMPDEST PUSH32 0x4E487B7100000000000000000000000000000000000000000000000000000000 PUSH0 MSTORE PUSH1 0x22 PUSH1 0x4 MSTORE PUSH1 0x24 PUSH0 REVERT JUMPDEST PUSH0 PUSH1 0x2 DUP3 DIV SWAP1 POP PUSH1 0x1 DUP3 AND DUP1 PUSH2 0x2702 JUMPI PUSH1 0x7F DUP3 AND SWAP2 POP JUMPDEST PUSH1 0x20 DUP3 LT DUP2 SUB PUSH2 0x2715 JUMPI PUSH2 0x2714 PUSH2 0x26BE JUMP JUMPDEST JUMPDEST POP SWAP2 SWAP1 POP JUMP JUMPDEST PUSH0 PUSH1 0x60 DUP3 ADD SWAP1 POP PUSH2 0x272E PUSH0 DUP4 ADD DUP7 PUSH2 0x2254 JUMP JUMPDEST PUSH2 0x273B PUSH1 0x20 DUP4 ADD DUP6 PUSH2 0x22E4 JUMP JUMPDEST PUSH2 0x2748 PUSH1 0x40 DUP4 ADD DUP5 PUSH2 0x2254 JUMP JUMPDEST SWAP5 SWAP4 POP POP POP POP JUMP JUMPDEST PUSH0 PUSH1 0x40 DUP3 ADD SWAP1 POP PUSH2 0x2763 PUSH0 DUP4 ADD DUP6 PUSH2 0x2254 JUMP JUMPDEST PUSH2 0x2770 PUSH1 0x20 DUP4 ADD DUP5 PUSH2 0x22E4 JUMP JUMPDEST SWAP4 SWAP3 POP POP POP JUMP JUMPDEST PUSH32 0x4E487B7100000000000000000000000000000000000000000000000000000000 PUSH0 MSTORE PUSH1 0x32 PUSH1 0x4 MSTORE PUSH1 0x24 PUSH0 REVERT JUMPDEST PUSH0 DUP2 SWAP1 POP DUP2 PUSH0 MSTORE PUSH1 0x20 PUSH0 KECCAK256 SWAP1 POP SWAP2 SWAP1 POP JUMP JUMPDEST PUSH0 PUSH1 0x20 PUSH1 0x1F DUP4 ADD DIV SWAP1 POP SWAP2 SWAP1 POP JUMP JUMPDEST PUSH0 DUP3 DUP3 SHL SWAP1 POP SWAP3 SWAP2 POP POP JUMP JUMPDEST PUSH0 PUSH1 0x8 DUP4 MUL PUSH2 0x2800 PUSH32 0xFFFFFFFFFFFFFFFFFFFFFFFFFFFFFFFFFFFFFFFFFFFFFFFFFFFFFFFFFFFFFFFF DUP3 PUSH2 0x27C5 JUMP JUMPDEST PUSH2 0x280A DUP7 DUP4 PUSH2 0x27C5 JUMP JUMPDEST SWAP6 POP DUP1 NOT DUP5 AND SWAP4 POP DUP1 DUP7 AND DUP5 OR SWAP3 POP POP POP SWAP4 SWAP3 POP POP POP JUMP JUMPDEST PUSH0 DUP2 SWAP1 POP SWAP2 SWAP1 POP JUMP JUMPDEST PUSH0 PUSH2 0x2845 PUSH2 0x2840 PUSH2 0x283B DUP5 PUSH2 0x21C6 JUMP JUMPDEST PUSH2 0x2822 JUMP JUMPDEST PUSH2 0x21C6 JUMP JUMPDEST SWAP1 POP SWAP2 SWAP1 POP JUMP JUMPDEST PUSH0 DUP2 SWAP1 POP SWAP2 SWAP1 POP JUMP JUMPDEST PUSH2 0x285E DUP4 PUSH2 0x282B JUMP JUMPDEST PUSH2 0x2872 PUSH2 0x286A DUP3 PUSH2 0x284C JUMP JUMPDEST DUP5 DUP5 SLOAD PUSH2 0x27D1 JUMP JUMPDEST DUP3 SSTORE POP POP POP POP JUMP JUMPDEST PUSH0 SWAP1 JUMP JUMPDEST PUSH2 0x2886 PUSH2 0x287A JUMP JUMPDEST PUSH2 0x2891 DUP2 DUP5 DUP5 PUSH2 0x2855 JUMP JUMPDEST POP POP POP JUMP JUMPDEST JUMPDEST DUP2 DUP2 LT ISZERO PUSH2 0x28B4 JUMPI PUSH2 0x28A9 PUSH0 DUP3 PUSH2 0x287E JUMP JUMPDEST PUSH1 0x1 DUP2 ADD SWAP1 POP PUSH2 0x2897 JUMP JUMPDEST POP POP JUMP JUMPDEST PUSH1 0x1F DUP3 GT ISZERO PUSH2 0x28F9 JUMPI PUSH2 0x28CA DUP2 PUSH2 0x27A4 JUMP JUMPDEST PUSH2 0x28D3 DUP5 PUSH2 0x27B6 JUMP JUMPDEST DUP2 ADD PUSH1 0x20 DUP6 LT ISZERO PUSH2 0x28E2 JUMPI DUP2 SWAP1 POP JUMPDEST PUSH2 0x28F6 PUSH2 0x28EE DUP6 PUSH2 0x27B6 JUMP JUMPDEST DUP4 ADD DUP3 PUSH2 0x2896 JUMP JUMPDEST POP POP JUMPDEST POP POP POP JUMP JUMPDEST PUSH0 DUP3 DUP3 SHR SWAP1 POP SWAP3 SWAP2 POP POP JUMP JUMPDEST PUSH0 PUSH2 0x2919 PUSH0 NOT DUP5 PUSH1 0x8 MUL PUSH2 0x28FE JUMP JUMPDEST NOT DUP1 DUP4 AND SWAP2 POP POP SWAP3 SWAP2 POP POP JUMP JUMPDEST PUSH0 PUSH2 0x2931 DUP4 DUP4 PUSH2 0x290A JUMP JUMPDEST SWAP2 POP DUP3 PUSH1 0x2 MUL DUP3 OR SWAP1 POP SWAP3 SWAP2 POP POP JUMP JUMPDEST PUSH2 0x294A DUP3 PUSH2 0x2136 JUMP JUMPDEST PUSH8 0xFFFFFFFFFFFFFFFF DUP2 GT ISZERO PUSH2 0x2963 JUMPI PUSH2 0x2962 PUSH2 0x2364 JUMP JUMPDEST JUMPDEST PUSH2 0x296D DUP3 SLOAD PUSH2 0x26EB JUMP JUMPDEST PUSH2 0x2978 DUP3 DUP3 DUP6 PUSH2 0x28B8 JUMP JUMPDEST PUSH0 PUSH1 0x20 SWAP1 POP PUSH1 0x1F DUP4 GT PUSH1 0x1 DUP2 EQ PUSH2 0x29A9 JUMPI PUSH0 DUP5 ISZERO PUSH2 0x2997 JUMPI DUP3 DUP8 ADD MLOAD SWAP1 POP JUMPDEST PUSH2 0x29A1 DUP6 DUP3 PUSH2 0x2926 JUMP JUMPDEST DUP7 SSTORE POP PUSH2 0x2A08 JUMP JUMPDEST PUSH1 0x1F NOT DUP5 AND PUSH2 0x29B7 DUP7 PUSH2 0x27A4 JUMP JUMPDEST PUSH0 JUMPDEST DUP3 DUP2 LT ISZERO PUSH2 0x29DE JUMPI DUP5 DUP10 ADD MLOAD DUP3 SSTORE PUSH1 0x1 DUP3 ADD SWAP2 POP PUSH1 0x20 DUP6 ADD SWAP5 POP PUSH1 0x20 DUP2 ADD SWAP1 POP PUSH2 0x29B9 JUMP JUMPDEST DUP7 DUP4 LT ISZERO PUSH2 0x29FB JUMPI DUP5 DUP10 ADD MLOAD PUSH2 0x29F7 PUSH1 0x1F DUP10 AND DUP3 PUSH2 0x290A JUMP JUMPDEST DUP4 SSTORE POP JUMPDEST PUSH1 0x1 PUSH1 0x2 DUP9 MUL ADD DUP9 SSTORE POP POP POP JUMPDEST POP POP POP POP POP POP JUMP JUMPDEST PUSH32 0x4E487B7100000000000000000000000000000000000000000000000000000000 PUSH0 MSTORE PUSH1 0x11 PUSH1 0x4 MSTORE PUSH1 0x24 PUSH0 REVERT JUMPDEST PUSH0 PUSH2 0x2A47 DUP3 PUSH2 0x21C6 JUMP JUMPDEST SWAP2 POP PUSH2 0x2A52 DUP4 PUSH2 0x21C6 JUMP JUMPDEST SWAP3 POP DUP3 DUP3 ADD SWAP1 POP DUP1 DUP3 GT ISZERO PUSH2 0x2A6A JUMPI PUSH2 0x2A69 PUSH2 0x2A10 JUMP JUMPDEST JUMPDEST SWAP3 SWAP2 POP POP JUMP JUMPDEST PUSH32 0x63616E206D696E74000000000000000000000000000000000000000000000000 PUSH0 DUP3 ADD MSTORE POP JUMP JUMPDEST PUSH0 PUSH2 0x2AA4 PUSH1 0x8 DUP4 PUSH2 0x2140 JUMP JUMPDEST SWAP2 POP PUSH2 0x2AAF DUP3 PUSH2 0x2A70 JUMP JUMPDEST PUSH1 0x20 DUP3 ADD SWAP1 POP SWAP2 SWAP1 POP JUMP JUMPDEST PUSH0 PUSH1 0x20 DUP3 ADD SWAP1 POP DUP2 DUP2 SUB PUSH0 DUP4 ADD MSTORE PUSH2 0x2AD1 DUP2 PUSH2 0x2A98 JUMP JUMPDEST SWAP1 POP SWAP2 SWAP1 POP JUMP JUMPDEST PUSH0 PUSH2 0x2AE2 DUP3 PUSH2 0x21C6 JUMP JUMPDEST SWAP2 POP PUSH32 0xFFFFFFFFFFFFFFFFFFFFFFFFFFFFFFFFFFFFFFFFFFFFFFFFFFFFFFFFFFFFFFFF DUP3 SUB PUSH2 0x2B14 JUMPI PUSH2 0x2B13 PUSH2 0x2A10 JUMP JUMPDEST JUMPDEST PUSH1 0x1 DUP3 ADD SWAP1 POP SWAP2 SWAP1 POP JUMP JUMPDEST PUSH0 DUP2 MLOAD SWAP1 POP SWAP2 SWAP1 POP JUMP JUMPDEST PUSH0 DUP3 DUP3 MSTORE PUSH1 0x20 DUP3 ADD SWAP1 POP SWAP3 SWAP2 POP POP JUMP JUMPDEST PUSH0 PUSH2 0x2B43 DUP3 PUSH2 0x2B1F JUMP JUMPDEST PUSH2 0x2B4D DUP2 DUP6 PUSH2 0x2B29 JUMP JUMPDEST SWAP4 POP PUSH2 0x2B5D DUP2 DUP6 PUSH1 0x20 DUP7 ADD PUSH2 0x2150 JUMP JUMPDEST PUSH2 0x2B66 DUP2 PUSH2 0x215E JUMP JUMPDEST DUP5 ADD SWAP2 POP POP SWAP3 SWAP2 POP POP JUMP JUMPDEST PUSH0 PUSH1 0x80 DUP3 ADD SWAP1 POP PUSH2 0x2B84 PUSH0 DUP4 ADD DUP8 PUSH2 0x2254 JUMP JUMPDEST PUSH2 0x2B91 PUSH1 0x20 DUP4 ADD DUP7 PUSH2 0x2254 JUMP JUMPDEST PUSH2 0x2B9E PUSH1 0x40 DUP4 ADD DUP6 PUSH2 0x22E4 JUMP JUMPDEST DUP2 DUP2 SUB PUSH1 0x60 DUP4 ADD MSTORE PUSH2 0x2BB0 DUP2 DUP5 PUSH2 0x2B39 JUMP JUMPDEST SWAP1 POP SWAP6 SWAP5 POP POP POP POP POP JUMP JUMPDEST PUSH0 DUP2 MLOAD SWAP1 POP PUSH2 0x2BC9 DUP2 PUSH2 0x20AE JUMP JUMPDEST SWAP3 SWAP2 POP POP JUMP JUMPDEST PUSH0 PUSH1 0x20 DUP3 DUP5 SUB SLT ISZERO PUSH2 0x2BE4 JUMPI PUSH2 0x2BE3 PUSH2 0x207B JUMP JUMPDEST JUMPDEST PUSH0 PUSH2 0x2BF1 DUP5 DUP3 DUP6 ADD PUSH2 0x2BBB JUMP JUMPDEST SWAP2 POP POP SWAP3 SWAP2 POP POP JUMP JUMPDEST PUSH0 PUSH2 0x2C04 DUP3 PUSH2 0x21C6 JUMP JUMPDEST SWAP2 POP PUSH2 0x2C0F DUP4 PUSH2 0x21C6 JUMP JUMPDEST SWAP3 POP DUP3 DUP3 SUB SWAP1 POP DUP2 DUP2 GT ISZERO PUSH2 0x2C27 JUMPI PUSH2 0x2C26 PUSH2 0x2A10 JUMP JUMPDEST JUMPDEST SWAP3 SWAP2 POP POP JUMP JUMPDEST PUSH32 0x4E487B7100000000000000000000000000000000000000000000000000000000 PUSH0 MSTORE PUSH1 0x31 PUSH1 0x4 MSTORE PUSH1 0x24 PUSH0 REVERT INVALID LOG2 PUSH5 0x6970667358 0x22 SLT KECCAK256 STATICCALL PUSH30 0x337BDEBB9E8C2843E5BCC8422CEC654409D7575D543750E6DB6E5E17F4ED PUSH5 0x736F6C6343 STOP ADDMOD BYTE STOP CALLER "
		},
		"gasEstimates": {
			"creation": {
				"codeDepositCost": "2281600",
				"executionCost": "infinite",
				"totalCost": "infinite"
			},
			"external": {
				"approve(address,uint256)": "infinite",
				"balanceOf(address)": "infinite",
				"getApproved(uint256)": "infinite",
				"isApprovedForAll(address,address)": "infinite",
				"name()": "infinite",
				"nftCount()": "2500",
				"nftLimit()": "2471",
				"owner()": "2626",
				"ownerOf(uint256)": "infinite",
				"pause()": "infinite",
				"paused()": "2519",
				"renounceOwnership()": "infinite",
				"safeMint(address,uint256)": "infinite",
				"safeTransferFrom(address,address,uint256)": "infinite",
				"safeTransferFrom(address,address,uint256,bytes)": "infinite",
				"setApprovalForAll(address,bool)": "infinite",
				"setBaseURI(string)": "infinite",
				"setVaultAddress(address)": "infinite",
				"supportsInterface(bytes4)": "940",
				"symbol()": "infinite",
				"tokenByIndex(uint256)": "infinite",
				"tokenOfOwnerByIndex(address,uint256)": "infinite",
				"tokenURI(uint256)": "infinite",
				"totalSupply()": "2530",
				"transferFrom(address,address,uint256)": "infinite",
				"transferOwnership(address)": "infinite",
				"unpause()": "infinite",
				"vaultAddress()": "2575"
			},
			"internal": {
				"_increaseBalance(address,uint128)": "infinite",
				"_update(address,uint256,address)": "infinite"
			}
		},
		"methodIdentifiers": {
			"approve(address,uint256)": "095ea7b3",
			"balanceOf(address)": "70a08231",
			"getApproved(uint256)": "081812fc",
			"isApprovedForAll(address,address)": "e985e9c5",
			"name()": "06fdde03",
			"nftCount()": "0af2c6ca",
			"nftLimit()": "2a7065ea",
			"owner()": "8da5cb5b",
			"ownerOf(uint256)": "6352211e",
			"pause()": "8456cb59",
			"paused()": "5c975abb",
			"renounceOwnership()": "715018a6",
			"safeMint(address,uint256)": "a1448194",
			"safeTransferFrom(address,address,uint256)": "42842e0e",
			"safeTransferFrom(address,address,uint256,bytes)": "b88d4fde",
			"setApprovalForAll(address,bool)": "a22cb465",
			"setBaseURI(string)": "55f804b3",
			"setVaultAddress(address)": "85535cc5",
			"supportsInterface(bytes4)": "01ffc9a7",
			"symbol()": "95d89b41",
			"tokenByIndex(uint256)": "4f6ccce7",
			"tokenOfOwnerByIndex(address,uint256)": "2f745c59",
			"tokenURI(uint256)": "c87b56dd",
			"totalSupply()": "18160ddd",
			"transferFrom(address,address,uint256)": "23b872dd",
			"transferOwnership(address)": "f2fde38b",
			"unpause()": "3f4ba83a",
			"vaultAddress()": "430bf08a"
		}
	},
	"abi": [
		{
			"inputs": [
				{
					"internalType": "address",
					"name": "initialOwner",
					"type": "address"
				},
				{
					"internalType": "string",
					"name": "baseURI",
					"type": "string"
				},
				{
					"internalType": "uint256",
					"name": "_nftLimit",
					"type": "uint256"
				}
			],
			"stateMutability": "nonpayable",
			"type": "constructor"
		},
		{
			"inputs": [],
			"name": "ERC721EnumerableForbiddenBatchMint",
			"type": "error"
		},
		{
			"inputs": [
				{
					"internalType": "address",
					"name": "sender",
					"type": "address"
				},
				{
					"internalType": "uint256",
					"name": "tokenId",
					"type": "uint256"
				},
				{
					"internalType": "address",
					"name": "owner",
					"type": "address"
				}
			],
			"name": "ERC721IncorrectOwner",
			"type": "error"
		},
		{
			"inputs": [
				{
					"internalType": "address",
					"name": "operator",
					"type": "address"
				},
				{
					"internalType": "uint256",
					"name": "tokenId",
					"type": "uint256"
				}
			],
			"name": "ERC721InsufficientApproval",
			"type": "error"
		},
		{
			"inputs": [
				{
					"internalType": "address",
					"name": "approver",
					"type": "address"
				}
			],
			"name": "ERC721InvalidApprover",
			"type": "error"
		},
		{
			"inputs": [
				{
					"internalType": "address",
					"name": "operator",
					"type": "address"
				}
			],
			"name": "ERC721InvalidOperator",
			"type": "error"
		},
		{
			"inputs": [
				{
					"internalType": "address",
					"name": "owner",
					"type": "address"
				}
			],
			"name": "ERC721InvalidOwner",
			"type": "error"
		},
		{
			"inputs": [
				{
					"internalType": "address",
					"name": "receiver",
					"type": "address"
				}
			],
			"name": "ERC721InvalidReceiver",
			"type": "error"
		},
		{
			"inputs": [
				{
					"internalType": "address",
					"name": "sender",
					"type": "address"
				}
			],
			"name": "ERC721InvalidSender",
			"type": "error"
		},
		{
			"inputs": [
				{
					"internalType": "uint256",
					"name": "tokenId",
					"type": "uint256"
				}
			],
			"name": "ERC721NonexistentToken",
			"type": "error"
		},
		{
			"inputs": [
				{
					"internalType": "address",
					"name": "owner",
					"type": "address"
				},
				{
					"internalType": "uint256",
					"name": "index",
					"type": "uint256"
				}
			],
			"name": "ERC721OutOfBoundsIndex",
			"type": "error"
		},
		{
			"inputs": [],
			"name": "EnforcedPause",
			"type": "error"
		},
		{
			"inputs": [],
			"name": "ExpectedPause",
			"type": "error"
		},
		{
			"inputs": [
				{
					"internalType": "address",
					"name": "owner",
					"type": "address"
				}
			],
			"name": "OwnableInvalidOwner",
			"type": "error"
		},
		{
			"inputs": [
				{
					"internalType": "address",
					"name": "account",
					"type": "address"
				}
			],
			"name": "OwnableUnauthorizedAccount",
			"type": "error"
		},
		{
			"anonymous": false,
			"inputs": [
				{
					"indexed": true,
					"internalType": "address",
					"name": "owner",
					"type": "address"
				},
				{
					"indexed": true,
					"internalType": "address",
					"name": "approved",
					"type": "address"
				},
				{
					"indexed": true,
					"internalType": "uint256",
					"name": "tokenId",
					"type": "uint256"
				}
			],
			"name": "Approval",
			"type": "event"
		},
		{
			"anonymous": false,
			"inputs": [
				{
					"indexed": true,
					"internalType": "address",
					"name": "owner",
					"type": "address"
				},
				{
					"indexed": true,
					"internalType": "address",
					"name": "operator",
					"type": "address"
				},
				{
					"indexed": false,
					"internalType": "bool",
					"name": "approved",
					"type": "bool"
				}
			],
			"name": "ApprovalForAll",
			"type": "event"
		},
		{
			"anonymous": false,
			"inputs": [
				{
					"indexed": true,
					"internalType": "address",
					"name": "previousOwner",
					"type": "address"
				},
				{
					"indexed": true,
					"internalType": "address",
					"name": "newOwner",
					"type": "address"
				}
			],
			"name": "OwnershipTransferred",
			"type": "event"
		},
		{
			"anonymous": false,
			"inputs": [
				{
					"indexed": false,
					"internalType": "address",
					"name": "account",
					"type": "address"
				}
			],
			"name": "Paused",
			"type": "event"
		},
		{
			"anonymous": false,
			"inputs": [
				{
					"indexed": true,
					"internalType": "address",
					"name": "from",
					"type": "address"
				},
				{
					"indexed": true,
					"internalType": "address",
					"name": "to",
					"type": "address"
				},
				{
					"indexed": true,
					"internalType": "uint256",
					"name": "tokenId",
					"type": "uint256"
				}
			],
			"name": "Transfer",
			"type": "event"
		},
		{
			"anonymous": false,
			"inputs": [
				{
					"indexed": false,
					"internalType": "address",
					"name": "account",
					"type": "address"
				}
			],
			"name": "Unpaused",
			"type": "event"
		},
		{
			"inputs": [
				{
					"internalType": "address",
					"name": "to",
					"type": "address"
				},
				{
					"internalType": "uint256",
					"name": "tokenId",
					"type": "uint256"
				}
			],
			"name": "approve",
			"outputs": [],
			"stateMutability": "nonpayable",
			"type": "function"
		},
		{
			"inputs": [
				{
					"internalType": "address",
					"name": "owner",
					"type": "address"
				}
			],
			"name": "balanceOf",
			"outputs": [
				{
					"internalType": "uint256",
					"name": "",
					"type": "uint256"
				}
			],
			"stateMutability": "view",
			"type": "function"
		},
		{
			"inputs": [
				{
					"internalType": "uint256",
					"name": "tokenId",
					"type": "uint256"
				}
			],
			"name": "getApproved",
			"outputs": [
				{
					"internalType": "address",
					"name": "",
					"type": "address"
				}
			],
			"stateMutability": "view",
			"type": "function"
		},
		{
			"inputs": [
				{
					"internalType": "address",
					"name": "owner",
					"type": "address"
				},
				{
					"internalType": "address",
					"name": "operator",
					"type": "address"
				}
			],
			"name": "isApprovedForAll",
			"outputs": [
				{
					"internalType": "bool",
					"name": "",
					"type": "bool"
				}
			],
			"stateMutability": "view",
			"type": "function"
		},
		{
			"inputs": [],
			"name": "name",
			"outputs": [
				{
					"internalType": "string",
					"name": "",
					"type": "string"
				}
			],
			"stateMutability": "view",
			"type": "function"
		},
		{
			"inputs": [],
			"name": "nftCount",
			"outputs": [
				{
					"internalType": "uint256",
					"name": "_nftCount",
					"type": "uint256"
				}
			],
			"stateMutability": "view",
			"type": "function"
		},
		{
			"inputs": [],
			"name": "nftLimit",
			"outputs": [
				{
					"internalType": "uint256",
					"name": "",
					"type": "uint256"
				}
			],
			"stateMutability": "view",
			"type": "function"
		},
		{
			"inputs": [],
			"name": "owner",
			"outputs": [
				{
					"internalType": "address",
					"name": "",
					"type": "address"
				}
			],
			"stateMutability": "view",
			"type": "function"
		},
		{
			"inputs": [
				{
					"internalType": "uint256",
					"name": "tokenId",
					"type": "uint256"
				}
			],
			"name": "ownerOf",
			"outputs": [
				{
					"internalType": "address",
					"name": "",
					"type": "address"
				}
			],
			"stateMutability": "view",
			"type": "function"
		},
		{
			"inputs": [],
			"name": "pause",
			"outputs": [],
			"stateMutability": "nonpayable",
			"type": "function"
		},
		{
			"inputs": [],
			"name": "paused",
			"outputs": [
				{
					"internalType": "bool",
					"name": "",
					"type": "bool"
				}
			],
			"stateMutability": "view",
			"type": "function"
		},
		{
			"inputs": [],
			"name": "renounceOwnership",
			"outputs": [],
			"stateMutability": "nonpayable",
			"type": "function"
		},
		{
			"inputs": [
				{
					"internalType": "address",
					"name": "to",
					"type": "address"
				},
				{
					"internalType": "uint256",
					"name": "amount",
					"type": "uint256"
				}
			],
			"name": "safeMint",
			"outputs": [],
			"stateMutability": "nonpayable",
			"type": "function"
		},
		{
			"inputs": [
				{
					"internalType": "address",
					"name": "from",
					"type": "address"
				},
				{
					"internalType": "address",
					"name": "to",
					"type": "address"
				},
				{
					"internalType": "uint256",
					"name": "tokenId",
					"type": "uint256"
				}
			],
			"name": "safeTransferFrom",
			"outputs": [],
			"stateMutability": "nonpayable",
			"type": "function"
		},
		{
			"inputs": [
				{
					"internalType": "address",
					"name": "from",
					"type": "address"
				},
				{
					"internalType": "address",
					"name": "to",
					"type": "address"
				},
				{
					"internalType": "uint256",
					"name": "tokenId",
					"type": "uint256"
				},
				{
					"internalType": "bytes",
					"name": "data",
					"type": "bytes"
				}
			],
			"name": "safeTransferFrom",
			"outputs": [],
			"stateMutability": "nonpayable",
			"type": "function"
		},
		{
			"inputs": [
				{
					"internalType": "address",
					"name": "operator",
					"type": "address"
				},
				{
					"internalType": "bool",
					"name": "approved",
					"type": "bool"
				}
			],
			"name": "setApprovalForAll",
			"outputs": [],
			"stateMutability": "nonpayable",
			"type": "function"
		},
		{
			"inputs": [
				{
					"internalType": "string",
					"name": "baseURI",
					"type": "string"
				}
			],
			"name": "setBaseURI",
			"outputs": [],
			"stateMutability": "nonpayable",
			"type": "function"
		},
		{
			"inputs": [
				{
					"internalType": "address",
					"name": "_vaultAddress",
					"type": "address"
				}
			],
			"name": "setVaultAddress",
			"outputs": [],
			"stateMutability": "nonpayable",
			"type": "function"
		},
		{
			"inputs": [
				{
					"internalType": "bytes4",
					"name": "interfaceId",
					"type": "bytes4"
				}
			],
			"name": "supportsInterface",
			"outputs": [
				{
					"internalType": "bool",
					"name": "",
					"type": "bool"
				}
			],
			"stateMutability": "view",
			"type": "function"
		},
		{
			"inputs": [],
			"name": "symbol",
			"outputs": [
				{
					"internalType": "string",
					"name": "",
					"type": "string"
				}
			],
			"stateMutability": "view",
			"type": "function"
		},
		{
			"inputs": [
				{
					"internalType": "uint256",
					"name": "index",
					"type": "uint256"
				}
			],
			"name": "tokenByIndex",
			"outputs": [
				{
					"internalType": "uint256",
					"name": "",
					"type": "uint256"
				}
			],
			"stateMutability": "view",
			"type": "function"
		},
		{
			"inputs": [
				{
					"internalType": "address",
					"name": "owner",
					"type": "address"
				},
				{
					"internalType": "uint256",
					"name": "index",
					"type": "uint256"
				}
			],
			"name": "tokenOfOwnerByIndex",
			"outputs": [
				{
					"internalType": "uint256",
					"name": "",
					"type": "uint256"
				}
			],
			"stateMutability": "view",
			"type": "function"
		},
		{
			"inputs": [
				{
					"internalType": "uint256",
					"name": "",
					"type": "uint256"
				}
			],
			"name": "tokenURI",
			"outputs": [
				{
					"internalType": "string",
					"name": "",
					"type": "string"
				}
			],
			"stateMutability": "view",
			"type": "function"
		},
		{
			"inputs": [],
			"name": "totalSupply",
			"outputs": [
				{
					"internalType": "uint256",
					"name": "",
					"type": "uint256"
				}
			],
			"stateMutability": "view",
			"type": "function"
		},
		{
			"inputs": [
				{
					"internalType": "address",
					"name": "from",
					"type": "address"
				},
				{
					"internalType": "address",
					"name": "to",
					"type": "address"
				},
				{
					"internalType": "uint256",
					"name": "tokenId",
					"type": "uint256"
				}
			],
			"name": "transferFrom",
			"outputs": [],
			"stateMutability": "nonpayable",
			"type": "function"
		},
		{
			"inputs": [
				{
					"internalType": "address",
					"name": "newOwner",
					"type": "address"
				}
			],
			"name": "transferOwnership",
			"outputs": [],
			"stateMutability": "nonpayable",
			"type": "function"
		},
		{
			"inputs": [],
			"name": "unpause",
			"outputs": [],
			"stateMutability": "nonpayable",
			"type": "function"
		},
		{
			"inputs": [],
			"name": "vaultAddress",
			"outputs": [
				{
					"internalType": "address",
					"name": "",
					"type": "address"
				}
			],
			"stateMutability": "view",
			"type": "function"
		}
	]
}